{
	"contracts/KipuBankV3.sol": {
		"KipuBankV3": {
			"abi": [
				{
					"inputs": [
						{
							"internalType": "address",
							"name": "_initialOwner",
							"type": "address"
						},
						{
							"internalType": "address",
							"name": "_weth",
							"type": "address"
						},
						{
							"internalType": "address",
							"name": "_usdc",
							"type": "address"
						},
						{
							"internalType": "address",
							"name": "_router",
							"type": "address"
						},
						{
							"internalType": "uint256",
							"name": "_bankCap",
							"type": "uint256"
						},
						{
							"internalType": "uint256",
							"name": "_maxWithdrawal",
							"type": "uint256"
						}
					],
					"stateMutability": "nonpayable",
					"type": "constructor"
				},
				{
					"inputs": [],
					"name": "KipuBank_DeniedContract",
					"type": "error"
				},
				{
					"inputs": [
						{
							"internalType": "bytes",
							"name": "error",
							"type": "bytes"
						}
					],
					"name": "KipuBank_FailedDeposit",
					"type": "error"
				},
				{
					"inputs": [
						{
							"internalType": "bytes",
							"name": "error",
							"type": "bytes"
						}
					],
					"name": "KipuBank_FailedOperation",
					"type": "error"
				},
				{
					"inputs": [
						{
							"internalType": "bytes",
							"name": "error",
							"type": "bytes"
						}
					],
					"name": "KipuBank_FailedWithdrawal",
					"type": "error"
				},
				{
					"inputs": [
						{
							"internalType": "bytes",
							"name": "error",
							"type": "bytes"
						}
					],
					"name": "KipuBank_InsufficientFounds",
					"type": "error"
				},
				{
					"inputs": [
						{
							"internalType": "address",
							"name": "token",
							"type": "address"
						}
					],
					"name": "KipuBank_NotSupportedToken",
					"type": "error"
				},
				{
					"inputs": [
						{
							"internalType": "address",
							"name": "owner",
							"type": "address"
						}
					],
					"name": "OwnableInvalidOwner",
					"type": "error"
				},
				{
					"inputs": [
						{
							"internalType": "address",
							"name": "account",
							"type": "address"
						}
					],
					"name": "OwnableUnauthorizedAccount",
					"type": "error"
				},
				{
					"inputs": [],
					"name": "ReentrancyGuardReentrantCall",
					"type": "error"
				},
				{
					"inputs": [
						{
							"internalType": "address",
							"name": "token",
							"type": "address"
						}
					],
					"name": "SafeERC20FailedOperation",
					"type": "error"
				},
				{
					"anonymous": false,
					"inputs": [
						{
							"indexed": false,
							"internalType": "uint256",
							"name": "amount",
							"type": "uint256"
						}
					],
					"name": "KipuBank_EmergencyWithdrawal",
					"type": "event"
				},
				{
					"anonymous": false,
					"inputs": [
						{
							"indexed": false,
							"internalType": "address",
							"name": "receiver",
							"type": "address"
						},
						{
							"indexed": false,
							"internalType": "uint256",
							"name": "amount",
							"type": "uint256"
						}
					],
					"name": "KipuBank_SuccessfulDeposit",
					"type": "event"
				},
				{
					"anonymous": false,
					"inputs": [
						{
							"indexed": false,
							"internalType": "address",
							"name": "receiver",
							"type": "address"
						},
						{
							"indexed": false,
							"internalType": "uint256",
							"name": "amount",
							"type": "uint256"
						}
					],
					"name": "KipuBank_SuccessfulWithdrawal",
					"type": "event"
				},
				{
					"anonymous": false,
					"inputs": [
						{
							"indexed": true,
							"internalType": "address",
							"name": "previousOwner",
							"type": "address"
						},
						{
							"indexed": true,
							"internalType": "address",
							"name": "newOwner",
							"type": "address"
						}
					],
					"name": "OwnershipTransferred",
					"type": "event"
				},
				{
					"stateMutability": "nonpayable",
					"type": "fallback"
				},
				{
					"inputs": [],
					"name": "consultKipuBankFounds",
					"outputs": [
						{
							"internalType": "uint256",
							"name": "amount_",
							"type": "uint256"
						}
					],
					"stateMutability": "view",
					"type": "function"
				},
				{
					"inputs": [],
					"name": "deposit",
					"outputs": [],
					"stateMutability": "payable",
					"type": "function"
				},
				{
					"inputs": [
						{
							"internalType": "address",
							"name": "_token",
							"type": "address"
						},
						{
							"internalType": "uint256",
							"name": "_amountIn",
							"type": "uint256"
						},
						{
							"internalType": "uint256",
							"name": "_amountMinOut",
							"type": "uint256"
						}
					],
					"name": "depositERC20",
					"outputs": [],
					"stateMutability": "nonpayable",
					"type": "function"
				},
				{
					"inputs": [
						{
							"internalType": "uint256",
							"name": "_amount",
							"type": "uint256"
						},
						{
							"internalType": "address",
							"name": "_recipient",
							"type": "address"
						}
					],
					"name": "emergencyWithdrawal",
					"outputs": [],
					"stateMutability": "nonpayable",
					"type": "function"
				},
				{
					"inputs": [],
					"name": "i_bankCap",
					"outputs": [
						{
							"internalType": "uint256",
							"name": "",
							"type": "uint256"
						}
					],
					"stateMutability": "view",
					"type": "function"
				},
				{
					"inputs": [],
					"name": "i_maxWithdrawal",
					"outputs": [
						{
							"internalType": "uint256",
							"name": "",
							"type": "uint256"
						}
					],
					"stateMutability": "view",
					"type": "function"
				},
				{
					"inputs": [],
					"name": "i_usdc",
					"outputs": [
						{
							"internalType": "contract IERC20",
							"name": "",
							"type": "address"
						}
					],
					"stateMutability": "view",
					"type": "function"
				},
				{
					"inputs": [],
					"name": "i_weth",
					"outputs": [
						{
							"internalType": "address",
							"name": "",
							"type": "address"
						}
					],
					"stateMutability": "view",
					"type": "function"
				},
				{
					"inputs": [],
					"name": "owner",
					"outputs": [
						{
							"internalType": "address",
							"name": "",
							"type": "address"
						}
					],
					"stateMutability": "view",
					"type": "function"
				},
				{
					"inputs": [],
					"name": "renounceOwnership",
					"outputs": [],
					"stateMutability": "nonpayable",
					"type": "function"
				},
				{
					"inputs": [
						{
							"internalType": "address",
							"name": "",
							"type": "address"
						}
					],
					"name": "s_totalDepositsByToken",
					"outputs": [
						{
							"internalType": "uint256",
							"name": "",
							"type": "uint256"
						}
					],
					"stateMutability": "view",
					"type": "function"
				},
				{
					"inputs": [],
					"name": "s_totalWithdrawals",
					"outputs": [
						{
							"internalType": "uint256",
							"name": "",
							"type": "uint256"
						}
					],
					"stateMutability": "view",
					"type": "function"
				},
				{
					"inputs": [
						{
							"internalType": "address",
							"name": "newOwner",
							"type": "address"
						}
					],
					"name": "transferOwnership",
					"outputs": [],
					"stateMutability": "nonpayable",
					"type": "function"
				},
				{
					"inputs": [],
					"name": "uniswapFactory",
					"outputs": [
						{
							"internalType": "contract IUniswapV2Factory",
							"name": "",
							"type": "address"
						}
					],
					"stateMutability": "view",
					"type": "function"
				},
				{
					"inputs": [],
					"name": "uniswapRouter",
					"outputs": [
						{
							"internalType": "contract IUniswapV2Router02",
							"name": "",
							"type": "address"
						}
					],
					"stateMutability": "view",
					"type": "function"
				},
				{
					"inputs": [
						{
							"internalType": "uint256",
							"name": "_amount",
							"type": "uint256"
						}
					],
					"name": "withdrawUsdc",
					"outputs": [],
					"stateMutability": "nonpayable",
					"type": "function"
				},
				{
					"stateMutability": "payable",
					"type": "receive"
				}
			],
			"devdoc": {
				"errors": {
					"OwnableInvalidOwner(address)": [
						{
							"details": "The owner is not a valid owner account. (eg. `address(0)`)"
						}
					],
					"OwnableUnauthorizedAccount(address)": [
						{
							"details": "The caller account is not authorized to perform an operation."
						}
					],
					"ReentrancyGuardReentrantCall()": [
						{
							"details": "Unauthorized reentrant call."
						}
					],
					"SafeERC20FailedOperation(address)": [
						{
							"details": "An operation with an ERC-20 token failed."
						}
					]
				},
				"kind": "dev",
				"methods": {
					"owner()": {
						"details": "Returns the address of the current owner."
					},
					"renounceOwnership()": {
						"details": "Leaves the contract without owner. It will not be possible to call `onlyOwner` functions. Can only be called by the current owner. NOTE: Renouncing ownership will leave the contract without an owner, thereby disabling any functionality that is only available to the owner."
					},
					"transferOwnership(address)": {
						"details": "Transfers ownership of the contract to a new account (`newOwner`). Can only be called by the current owner."
					}
				},
				"version": 1
			},
			"evm": {
				"assembly": "    /* \"contracts/KipuBankV3.sol\":1053:8917  contract KipuBankV3 is Ownable, ReentrancyGuard{... */\n  mstore(0x40, 0x0120)\n    /* \"contracts/KipuBankV3.sol\":3488:4089  constructor(... */\n  callvalue\n  dup1\n  iszero\n  tag_1\n  jumpi\n  0x00\n  dup1\n  revert\ntag_1:\n  pop\n  mload(0x40)\n  sub(codesize, bytecodeSize)\n  dup1\n  bytecodeSize\n  dup4\n  codecopy\n  dup2\n  dup2\n  add\n  0x40\n  mstore\n  dup2\n  add\n  swap1\n  tag_2\n  swap2\n  swap1\n  tag_3\n  jump\t// in\ntag_2:\n    /* \"contracts/KipuBankV3.sol\":3659:3672  _initialOwner */\n  dup6\n    /* \"@openzeppelin/contracts/access/Ownable.sol\":1297:1298  0 */\n  0x00\n    /* \"@openzeppelin/contracts/access/Ownable.sol\":1273:1299  initialOwner == address(0) */\n  0xffffffffffffffffffffffffffffffffffffffff\n  and\n    /* \"@openzeppelin/contracts/access/Ownable.sol\":1273:1285  initialOwner */\n  dup2\n    /* \"@openzeppelin/contracts/access/Ownable.sol\":1273:1299  initialOwner == address(0) */\n  0xffffffffffffffffffffffffffffffffffffffff\n  and\n  sub\n    /* \"@openzeppelin/contracts/access/Ownable.sol\":1269:1364  if (initialOwner == address(0)) {... */\n  tag_8\n  jumpi\n    /* \"@openzeppelin/contracts/access/Ownable.sol\":1350:1351  0 */\n  0x00\n    /* \"@openzeppelin/contracts/access/Ownable.sol\":1322:1353  OwnableInvalidOwner(address(0)) */\n  mload(0x40)\n  0x1e4fbdf700000000000000000000000000000000000000000000000000000000\n  dup2\n  mstore\n  0x04\n  add\n  tag_9\n  swap2\n  swap1\n  tag_10\n  jump\t// in\ntag_9:\n  mload(0x40)\n  dup1\n  swap2\n  sub\n  swap1\n  revert\n    /* \"@openzeppelin/contracts/access/Ownable.sol\":1269:1364  if (initialOwner == address(0)) {... */\ntag_8:\n    /* \"@openzeppelin/contracts/access/Ownable.sol\":1373:1405  _transferOwnership(initialOwner) */\n  tag_11\n    /* \"@openzeppelin/contracts/access/Ownable.sol\":1392:1404  initialOwner */\n  dup2\n    /* \"@openzeppelin/contracts/access/Ownable.sol\":1373:1391  _transferOwnership */\n  shl(0x20, tag_12)\n    /* \"@openzeppelin/contracts/access/Ownable.sol\":1373:1405  _transferOwnership(initialOwner) */\n  0x20\n  shr\n  jump\t// in\ntag_11:\n    /* \"@openzeppelin/contracts/access/Ownable.sol\":1225:1412  constructor(address initialOwner) {... */\n  pop\n    /* \"@openzeppelin/contracts/utils/ReentrancyGuard.sol\":1857:1858  1 */\n  0x01\n    /* \"@openzeppelin/contracts/utils/ReentrancyGuard.sol\":2061:2068  _status */\n  dup1\n    /* \"@openzeppelin/contracts/utils/ReentrancyGuard.sol\":2061:2082  _status = NOT_ENTERED */\n  dup2\n  swap1\n  sstore\n  pop\n    /* \"contracts/KipuBankV3.sol\":3709:3711  10 */\n  0x0a\n    /* \"contracts/KipuBankV3.sol\":3698:3706  _bankCap */\n  dup3\n    /* \"contracts/KipuBankV3.sol\":3698:3711  _bankCap < 10 */\n  lt\n    /* \"contracts/KipuBankV3.sol\":3698:3733  _bankCap < 10 || _maxWithdrawal < 1 */\n  dup1\n  tag_15\n  jumpi\n  pop\n    /* \"contracts/KipuBankV3.sol\":3732:3733  1 */\n  0x01\n    /* \"contracts/KipuBankV3.sol\":3715:3729  _maxWithdrawal */\n  dup2\n    /* \"contracts/KipuBankV3.sol\":3715:3733  _maxWithdrawal < 1 */\n  lt\n    /* \"contracts/KipuBankV3.sol\":3698:3733  _bankCap < 10 || _maxWithdrawal < 1 */\ntag_15:\n    /* \"contracts/KipuBankV3.sol\":3694:3767  if (_bankCap < 10 || _maxWithdrawal < 1) revert KipuBank_DeniedContract() */\n  iszero\n  tag_16\n  jumpi\n    /* \"contracts/KipuBankV3.sol\":3742:3767  KipuBank_DeniedContract() */\n  mload(0x40)\n  0x01d65100000000000000000000000000000000000000000000000000000000\n  dup2\n  mstore\n  0x04\n  add\n  mload(0x40)\n  dup1\n  swap2\n  sub\n  swap1\n  revert\n    /* \"contracts/KipuBankV3.sol\":3694:3767  if (_bankCap < 10 || _maxWithdrawal < 1) revert KipuBank_DeniedContract() */\ntag_16:\n    /* \"contracts/KipuBankV3.sol\":3811:3816  10**6 */\n  0x0f4240\n    /* \"contracts/KipuBankV3.sol\":3800:3808  _bankCap */\n  dup3\n    /* \"contracts/KipuBankV3.sol\":3800:3816  _bankCap * 10**6 */\n  tag_17\n  swap2\n  swap1\n  tag_18\n  jump\t// in\ntag_17:\n    /* \"contracts/KipuBankV3.sol\":3788:3816  i_bankCap = _bankCap * 10**6 */\n  0x80\n  dup2\n  dup2\n  mstore\n  pop\n  pop\n    /* \"contracts/KipuBankV3.sol\":3872:3877  10**6 */\n  0x0f4240\n    /* \"contracts/KipuBankV3.sol\":3856:3870  _maxWithdrawal */\n  dup2\n    /* \"contracts/KipuBankV3.sol\":3856:3877  _maxWithdrawal* 10**6 */\n  tag_19\n  swap2\n  swap1\n  tag_18\n  jump\t// in\ntag_19:\n    /* \"contracts/KipuBankV3.sol\":3837:3877  i_maxWithdrawal  = _maxWithdrawal* 10**6 */\n  0xa0\n  dup2\n  dup2\n  mstore\n  pop\n  pop\n    /* \"contracts/KipuBankV3.sol\":3924:3929  _usdc */\n  dup4\n    /* \"contracts/KipuBankV3.sol\":3908:3930  i_usdc = IERC20(_usdc) */\n  0xffffffffffffffffffffffffffffffffffffffff\n  and\n  0xc0\n  dup2\n  0xffffffffffffffffffffffffffffffffffffffff\n  and\n  dup2\n  mstore\n  pop\n  pop\n    /* \"contracts/KipuBankV3.sol\":3950:3955  _weth */\n  dup5\n    /* \"contracts/KipuBankV3.sol\":3941:3955  i_weth = _weth */\n  0xffffffffffffffffffffffffffffffffffffffff\n  and\n  0xe0\n  dup2\n  0xffffffffffffffffffffffffffffffffffffffff\n  and\n  dup2\n  mstore\n  pop\n  pop\n    /* \"contracts/KipuBankV3.sol\":4003:4010  _router */\n  dup3\n    /* \"contracts/KipuBankV3.sol\":3968:4011  uniswapRouter = IUniswapV2Router02(_router) */\n  0xffffffffffffffffffffffffffffffffffffffff\n  and\n  0x0100\n  dup2\n  0xffffffffffffffffffffffffffffffffffffffff\n  and\n  dup2\n  mstore\n  pop\n  pop\n    /* \"contracts/KipuBankV3.sol\":4057:4070  uniswapRouter */\n  mload(0x0100)\n    /* \"contracts/KipuBankV3.sol\":4057:4078  uniswapRouter.factory */\n  0xffffffffffffffffffffffffffffffffffffffff\n  and\n  0xc45a0155\n    /* \"contracts/KipuBankV3.sol\":4057:4080  uniswapRouter.factory() */\n  mload(0x40)\n  dup2\n  0xffffffff\n  and\n  0xe0\n  shl\n  dup2\n  mstore\n  0x04\n  add\n  0x20\n  mload(0x40)\n  dup1\n  dup4\n  sub\n  dup2\n  dup7\n  gas\n  staticcall\n  iszero\n  dup1\n  iszero\n  tag_21\n  jumpi\n  returndatasize\n  0x00\n  dup1\n  returndatacopy\n  revert(0x00, returndatasize)\ntag_21:\n  pop\n  pop\n  pop\n  pop\n  mload(0x40)\n  returndatasize\n  not(0x1f)\n  0x1f\n  dup3\n  add\n  and\n  dup3\n  add\n  dup1\n  0x40\n  mstore\n  pop\n  dup2\n  add\n  swap1\n  tag_22\n  swap2\n  swap1\n  tag_23\n  jump\t// in\ntag_22:\n    /* \"contracts/KipuBankV3.sol\":4022:4036  uniswapFactory */\n  0x05\n  0x00\n    /* \"contracts/KipuBankV3.sol\":4022:4081  uniswapFactory = IUniswapV2Factory(uniswapRouter.factory()) */\n  0x0100\n  exp\n  dup2\n  sload\n  dup2\n  0xffffffffffffffffffffffffffffffffffffffff\n  mul\n  not\n  and\n  swap1\n  dup4\n  0xffffffffffffffffffffffffffffffffffffffff\n  and\n  mul\n  or\n  swap1\n  sstore\n  pop\n    /* \"contracts/KipuBankV3.sol\":3488:4089  constructor(... */\n  pop\n  pop\n  pop\n  pop\n  pop\n  pop\n    /* \"contracts/KipuBankV3.sol\":1053:8917  contract KipuBankV3 is Ownable, ReentrancyGuard{... */\n  jump(tag_24)\n    /* \"@openzeppelin/contracts/access/Ownable.sol\":2912:3099  function _transferOwnership(address newOwner) internal virtual {... */\ntag_12:\n    /* \"@openzeppelin/contracts/access/Ownable.sol\":2985:3001  address oldOwner */\n  0x00\n    /* \"@openzeppelin/contracts/access/Ownable.sol\":3004:3010  _owner */\n  dup1\n  0x00\n  swap1\n  sload\n  swap1\n  0x0100\n  exp\n  swap1\n  div\n  0xffffffffffffffffffffffffffffffffffffffff\n  and\n    /* \"@openzeppelin/contracts/access/Ownable.sol\":2985:3010  address oldOwner = _owner */\n  swap1\n  pop\n    /* \"@openzeppelin/contracts/access/Ownable.sol\":3029:3037  newOwner */\n  dup2\n    /* \"@openzeppelin/contracts/access/Ownable.sol\":3020:3026  _owner */\n  0x00\n  dup1\n    /* \"@openzeppelin/contracts/access/Ownable.sol\":3020:3037  _owner = newOwner */\n  0x0100\n  exp\n  dup2\n  sload\n  dup2\n  0xffffffffffffffffffffffffffffffffffffffff\n  mul\n  not\n  and\n  swap1\n  dup4\n  0xffffffffffffffffffffffffffffffffffffffff\n  and\n  mul\n  or\n  swap1\n  sstore\n  pop\n    /* \"@openzeppelin/contracts/access/Ownable.sol\":3083:3091  newOwner */\n  dup2\n    /* \"@openzeppelin/contracts/access/Ownable.sol\":3052:3092  OwnershipTransferred(oldOwner, newOwner) */\n  0xffffffffffffffffffffffffffffffffffffffff\n  and\n    /* \"@openzeppelin/contracts/access/Ownable.sol\":3073:3081  oldOwner */\n  dup2\n    /* \"@openzeppelin/contracts/access/Ownable.sol\":3052:3092  OwnershipTransferred(oldOwner, newOwner) */\n  0xffffffffffffffffffffffffffffffffffffffff\n  and\n  0x8be0079c531659141344cd1fd0a4f28419497f9722a3daafe3b4186f6b6457e0\n  mload(0x40)\n  mload(0x40)\n  dup1\n  swap2\n  sub\n  swap1\n  log3\n    /* \"@openzeppelin/contracts/access/Ownable.sol\":2975:3099  {... */\n  pop\n    /* \"@openzeppelin/contracts/access/Ownable.sol\":2912:3099  function _transferOwnership(address newOwner) internal virtual {... */\n  pop\n  jump\t// out\n    /* \"#utility.yul\":88:205   */\ntag_27:\n    /* \"#utility.yul\":197:198   */\n  0x00\n    /* \"#utility.yul\":194:195   */\n  dup1\n    /* \"#utility.yul\":187:199   */\n  revert\n    /* \"#utility.yul\":334:460   */\ntag_29:\n    /* \"#utility.yul\":371:378   */\n  0x00\n    /* \"#utility.yul\":411:453   */\n  0xffffffffffffffffffffffffffffffffffffffff\n    /* \"#utility.yul\":404:409   */\n  dup3\n    /* \"#utility.yul\":400:454   */\n  and\n    /* \"#utility.yul\":389:454   */\n  swap1\n  pop\n    /* \"#utility.yul\":334:460   */\n  swap2\n  swap1\n  pop\n  jump\t// out\n    /* \"#utility.yul\":466:562   */\ntag_30:\n    /* \"#utility.yul\":503:510   */\n  0x00\n    /* \"#utility.yul\":532:556   */\n  tag_44\n    /* \"#utility.yul\":550:555   */\n  dup3\n    /* \"#utility.yul\":532:556   */\n  tag_29\n  jump\t// in\ntag_44:\n    /* \"#utility.yul\":521:556   */\n  swap1\n  pop\n    /* \"#utility.yul\":466:562   */\n  swap2\n  swap1\n  pop\n  jump\t// out\n    /* \"#utility.yul\":568:690   */\ntag_31:\n    /* \"#utility.yul\":641:665   */\n  tag_46\n    /* \"#utility.yul\":659:664   */\n  dup2\n    /* \"#utility.yul\":641:665   */\n  tag_30\n  jump\t// in\ntag_46:\n    /* \"#utility.yul\":634:639   */\n  dup2\n    /* \"#utility.yul\":631:666   */\n  eq\n    /* \"#utility.yul\":621:684   */\n  tag_47\n  jumpi\n    /* \"#utility.yul\":680:681   */\n  0x00\n    /* \"#utility.yul\":677:678   */\n  dup1\n    /* \"#utility.yul\":670:682   */\n  revert\n    /* \"#utility.yul\":621:684   */\ntag_47:\n    /* \"#utility.yul\":568:690   */\n  pop\n  jump\t// out\n    /* \"#utility.yul\":696:839   */\ntag_32:\n    /* \"#utility.yul\":753:758   */\n  0x00\n    /* \"#utility.yul\":784:790   */\n  dup2\n    /* \"#utility.yul\":778:791   */\n  mload\n    /* \"#utility.yul\":769:791   */\n  swap1\n  pop\n    /* \"#utility.yul\":800:833   */\n  tag_49\n    /* \"#utility.yul\":827:832   */\n  dup2\n    /* \"#utility.yul\":800:833   */\n  tag_31\n  jump\t// in\ntag_49:\n    /* \"#utility.yul\":696:839   */\n  swap3\n  swap2\n  pop\n  pop\n  jump\t// out\n    /* \"#utility.yul\":845:922   */\ntag_33:\n    /* \"#utility.yul\":882:889   */\n  0x00\n    /* \"#utility.yul\":911:916   */\n  dup2\n    /* \"#utility.yul\":900:916   */\n  swap1\n  pop\n    /* \"#utility.yul\":845:922   */\n  swap2\n  swap1\n  pop\n  jump\t// out\n    /* \"#utility.yul\":928:1050   */\ntag_34:\n    /* \"#utility.yul\":1001:1025   */\n  tag_52\n    /* \"#utility.yul\":1019:1024   */\n  dup2\n    /* \"#utility.yul\":1001:1025   */\n  tag_33\n  jump\t// in\ntag_52:\n    /* \"#utility.yul\":994:999   */\n  dup2\n    /* \"#utility.yul\":991:1026   */\n  eq\n    /* \"#utility.yul\":981:1044   */\n  tag_53\n  jumpi\n    /* \"#utility.yul\":1040:1041   */\n  0x00\n    /* \"#utility.yul\":1037:1038   */\n  dup1\n    /* \"#utility.yul\":1030:1042   */\n  revert\n    /* \"#utility.yul\":981:1044   */\ntag_53:\n    /* \"#utility.yul\":928:1050   */\n  pop\n  jump\t// out\n    /* \"#utility.yul\":1056:1199   */\ntag_35:\n    /* \"#utility.yul\":1113:1118   */\n  0x00\n    /* \"#utility.yul\":1144:1150   */\n  dup2\n    /* \"#utility.yul\":1138:1151   */\n  mload\n    /* \"#utility.yul\":1129:1151   */\n  swap1\n  pop\n    /* \"#utility.yul\":1160:1193   */\n  tag_55\n    /* \"#utility.yul\":1187:1192   */\n  dup2\n    /* \"#utility.yul\":1160:1193   */\n  tag_34\n  jump\t// in\ntag_55:\n    /* \"#utility.yul\":1056:1199   */\n  swap3\n  swap2\n  pop\n  pop\n  jump\t// out\n    /* \"#utility.yul\":1205:2339   */\ntag_3:\n    /* \"#utility.yul\":1320:1326   */\n  0x00\n    /* \"#utility.yul\":1328:1334   */\n  dup1\n    /* \"#utility.yul\":1336:1342   */\n  0x00\n    /* \"#utility.yul\":1344:1350   */\n  dup1\n    /* \"#utility.yul\":1352:1358   */\n  0x00\n    /* \"#utility.yul\":1360:1366   */\n  dup1\n    /* \"#utility.yul\":1409:1412   */\n  0xc0\n    /* \"#utility.yul\":1397:1406   */\n  dup8\n    /* \"#utility.yul\":1388:1395   */\n  dup10\n    /* \"#utility.yul\":1384:1407   */\n  sub\n    /* \"#utility.yul\":1380:1413   */\n  slt\n    /* \"#utility.yul\":1377:1497   */\n  iszero\n  tag_57\n  jumpi\n    /* \"#utility.yul\":1416:1495   */\n  tag_58\n  tag_27\n  jump\t// in\ntag_58:\n    /* \"#utility.yul\":1377:1497   */\ntag_57:\n    /* \"#utility.yul\":1536:1537   */\n  0x00\n    /* \"#utility.yul\":1561:1625   */\n  tag_59\n    /* \"#utility.yul\":1617:1624   */\n  dup10\n    /* \"#utility.yul\":1608:1614   */\n  dup3\n    /* \"#utility.yul\":1597:1606   */\n  dup11\n    /* \"#utility.yul\":1593:1615   */\n  add\n    /* \"#utility.yul\":1561:1625   */\n  tag_32\n  jump\t// in\ntag_59:\n    /* \"#utility.yul\":1551:1625   */\n  swap7\n  pop\n    /* \"#utility.yul\":1507:1635   */\n  pop\n    /* \"#utility.yul\":1674:1676   */\n  0x20\n    /* \"#utility.yul\":1700:1764   */\n  tag_60\n    /* \"#utility.yul\":1756:1763   */\n  dup10\n    /* \"#utility.yul\":1747:1753   */\n  dup3\n    /* \"#utility.yul\":1736:1745   */\n  dup11\n    /* \"#utility.yul\":1732:1754   */\n  add\n    /* \"#utility.yul\":1700:1764   */\n  tag_32\n  jump\t// in\ntag_60:\n    /* \"#utility.yul\":1690:1764   */\n  swap6\n  pop\n    /* \"#utility.yul\":1645:1774   */\n  pop\n    /* \"#utility.yul\":1813:1815   */\n  0x40\n    /* \"#utility.yul\":1839:1903   */\n  tag_61\n    /* \"#utility.yul\":1895:1902   */\n  dup10\n    /* \"#utility.yul\":1886:1892   */\n  dup3\n    /* \"#utility.yul\":1875:1884   */\n  dup11\n    /* \"#utility.yul\":1871:1893   */\n  add\n    /* \"#utility.yul\":1839:1903   */\n  tag_32\n  jump\t// in\ntag_61:\n    /* \"#utility.yul\":1829:1903   */\n  swap5\n  pop\n    /* \"#utility.yul\":1784:1913   */\n  pop\n    /* \"#utility.yul\":1952:1954   */\n  0x60\n    /* \"#utility.yul\":1978:2042   */\n  tag_62\n    /* \"#utility.yul\":2034:2041   */\n  dup10\n    /* \"#utility.yul\":2025:2031   */\n  dup3\n    /* \"#utility.yul\":2014:2023   */\n  dup11\n    /* \"#utility.yul\":2010:2032   */\n  add\n    /* \"#utility.yul\":1978:2042   */\n  tag_32\n  jump\t// in\ntag_62:\n    /* \"#utility.yul\":1968:2042   */\n  swap4\n  pop\n    /* \"#utility.yul\":1923:2052   */\n  pop\n    /* \"#utility.yul\":2091:2094   */\n  0x80\n    /* \"#utility.yul\":2118:2182   */\n  tag_63\n    /* \"#utility.yul\":2174:2181   */\n  dup10\n    /* \"#utility.yul\":2165:2171   */\n  dup3\n    /* \"#utility.yul\":2154:2163   */\n  dup11\n    /* \"#utility.yul\":2150:2172   */\n  add\n    /* \"#utility.yul\":2118:2182   */\n  tag_35\n  jump\t// in\ntag_63:\n    /* \"#utility.yul\":2108:2182   */\n  swap3\n  pop\n    /* \"#utility.yul\":2062:2192   */\n  pop\n    /* \"#utility.yul\":2231:2234   */\n  0xa0\n    /* \"#utility.yul\":2258:2322   */\n  tag_64\n    /* \"#utility.yul\":2314:2321   */\n  dup10\n    /* \"#utility.yul\":2305:2311   */\n  dup3\n    /* \"#utility.yul\":2294:2303   */\n  dup11\n    /* \"#utility.yul\":2290:2312   */\n  add\n    /* \"#utility.yul\":2258:2322   */\n  tag_35\n  jump\t// in\ntag_64:\n    /* \"#utility.yul\":2248:2322   */\n  swap2\n  pop\n    /* \"#utility.yul\":2202:2332   */\n  pop\n    /* \"#utility.yul\":1205:2339   */\n  swap3\n  swap6\n  pop\n  swap3\n  swap6\n  pop\n  swap3\n  swap6\n  jump\t// out\n    /* \"#utility.yul\":2345:2463   */\ntag_36:\n    /* \"#utility.yul\":2432:2456   */\n  tag_66\n    /* \"#utility.yul\":2450:2455   */\n  dup2\n    /* \"#utility.yul\":2432:2456   */\n  tag_30\n  jump\t// in\ntag_66:\n    /* \"#utility.yul\":2427:2430   */\n  dup3\n    /* \"#utility.yul\":2420:2457   */\n  mstore\n    /* \"#utility.yul\":2345:2463   */\n  pop\n  pop\n  jump\t// out\n    /* \"#utility.yul\":2469:2691   */\ntag_10:\n    /* \"#utility.yul\":2562:2566   */\n  0x00\n    /* \"#utility.yul\":2600:2602   */\n  0x20\n    /* \"#utility.yul\":2589:2598   */\n  dup3\n    /* \"#utility.yul\":2585:2603   */\n  add\n    /* \"#utility.yul\":2577:2603   */\n  swap1\n  pop\n    /* \"#utility.yul\":2613:2684   */\n  tag_68\n    /* \"#utility.yul\":2681:2682   */\n  0x00\n    /* \"#utility.yul\":2670:2679   */\n  dup4\n    /* \"#utility.yul\":2666:2683   */\n  add\n    /* \"#utility.yul\":2657:2663   */\n  dup5\n    /* \"#utility.yul\":2613:2684   */\n  tag_36\n  jump\t// in\ntag_68:\n    /* \"#utility.yul\":2469:2691   */\n  swap3\n  swap2\n  pop\n  pop\n  jump\t// out\n    /* \"#utility.yul\":2697:2877   */\ntag_37:\n    /* \"#utility.yul\":2745:2822   */\n  0x4e487b7100000000000000000000000000000000000000000000000000000000\n    /* \"#utility.yul\":2742:2743   */\n  0x00\n    /* \"#utility.yul\":2735:2823   */\n  mstore\n    /* \"#utility.yul\":2842:2846   */\n  0x11\n    /* \"#utility.yul\":2839:2840   */\n  0x04\n    /* \"#utility.yul\":2832:2847   */\n  mstore\n    /* \"#utility.yul\":2866:2870   */\n  0x24\n    /* \"#utility.yul\":2863:2864   */\n  0x00\n    /* \"#utility.yul\":2856:2871   */\n  revert\n    /* \"#utility.yul\":2883:3293   */\ntag_18:\n    /* \"#utility.yul\":2923:2930   */\n  0x00\n    /* \"#utility.yul\":2946:2966   */\n  tag_71\n    /* \"#utility.yul\":2964:2965   */\n  dup3\n    /* \"#utility.yul\":2946:2966   */\n  tag_33\n  jump\t// in\ntag_71:\n    /* \"#utility.yul\":2941:2966   */\n  swap2\n  pop\n    /* \"#utility.yul\":2980:3000   */\n  tag_72\n    /* \"#utility.yul\":2998:2999   */\n  dup4\n    /* \"#utility.yul\":2980:3000   */\n  tag_33\n  jump\t// in\ntag_72:\n    /* \"#utility.yul\":2975:3000   */\n  swap3\n  pop\n    /* \"#utility.yul\":3035:3036   */\n  dup3\n    /* \"#utility.yul\":3032:3033   */\n  dup3\n    /* \"#utility.yul\":3028:3037   */\n  mul\n    /* \"#utility.yul\":3057:3087   */\n  tag_73\n    /* \"#utility.yul\":3075:3086   */\n  dup2\n    /* \"#utility.yul\":3057:3087   */\n  tag_33\n  jump\t// in\ntag_73:\n    /* \"#utility.yul\":3046:3087   */\n  swap2\n  pop\n    /* \"#utility.yul\":3236:3237   */\n  dup3\n    /* \"#utility.yul\":3227:3234   */\n  dup3\n    /* \"#utility.yul\":3223:3238   */\n  div\n    /* \"#utility.yul\":3220:3221   */\n  dup5\n    /* \"#utility.yul\":3217:3239   */\n  eq\n    /* \"#utility.yul\":3197:3198   */\n  dup4\n    /* \"#utility.yul\":3190:3199   */\n  iszero\n    /* \"#utility.yul\":3170:3253   */\n  or\n    /* \"#utility.yul\":3147:3286   */\n  tag_74\n  jumpi\n    /* \"#utility.yul\":3266:3284   */\n  tag_75\n  tag_37\n  jump\t// in\ntag_75:\n    /* \"#utility.yul\":3147:3286   */\ntag_74:\n    /* \"#utility.yul\":2931:3293   */\n  pop\n    /* \"#utility.yul\":2883:3293   */\n  swap3\n  swap2\n  pop\n  pop\n  jump\t// out\n    /* \"#utility.yul\":3299:3650   */\ntag_23:\n    /* \"#utility.yul\":3369:3375   */\n  0x00\n    /* \"#utility.yul\":3418:3420   */\n  0x20\n    /* \"#utility.yul\":3406:3415   */\n  dup3\n    /* \"#utility.yul\":3397:3404   */\n  dup5\n    /* \"#utility.yul\":3393:3416   */\n  sub\n    /* \"#utility.yul\":3389:3421   */\n  slt\n    /* \"#utility.yul\":3386:3505   */\n  iszero\n  tag_77\n  jumpi\n    /* \"#utility.yul\":3424:3503   */\n  tag_78\n  tag_27\n  jump\t// in\ntag_78:\n    /* \"#utility.yul\":3386:3505   */\ntag_77:\n    /* \"#utility.yul\":3544:3545   */\n  0x00\n    /* \"#utility.yul\":3569:3633   */\n  tag_79\n    /* \"#utility.yul\":3625:3632   */\n  dup5\n    /* \"#utility.yul\":3616:3622   */\n  dup3\n    /* \"#utility.yul\":3605:3614   */\n  dup6\n    /* \"#utility.yul\":3601:3623   */\n  add\n    /* \"#utility.yul\":3569:3633   */\n  tag_32\n  jump\t// in\ntag_79:\n    /* \"#utility.yul\":3559:3633   */\n  swap2\n  pop\n    /* \"#utility.yul\":3515:3643   */\n  pop\n    /* \"#utility.yul\":3299:3650   */\n  swap3\n  swap2\n  pop\n  pop\n  jump\t// out\n    /* \"contracts/KipuBankV3.sol\":1053:8917  contract KipuBankV3 is Ownable, ReentrancyGuard{... */\ntag_24:\n  mload(0x80)\n  mload(0xa0)\n  mload(0xc0)\n  mload(0xe0)\n  mload(0x0100)\n  codecopy(0x00, dataOffset(sub_0), dataSize(sub_0))\n  0x00\n  assignImmutable(\"0xda956e91f77b4bd5547e59f2b47cb1a55b9b750d737784777a0ec1d41d783cd2\")\n  0x00\n  assignImmutable(\"0x25f9e8aeae9c2ffb4081060f1a62aa0739d35380589299578ccc29b3c3a0654e\")\n  0x00\n  assignImmutable(\"0x0b24e851bc758cefb56b47f9e12cff3ce5289edee2e1cc4c34a4b468a11de2d1\")\n  0x00\n  assignImmutable(\"0xd4b9d2c04c114ccab3d4470f7240f7878c88eddf29bef0226301531fceb67cc9\")\n  0x00\n  assignImmutable(\"0xbd75987a67efb9716d5393bd2ea04eabcd14da56452f9df91c5c677e8aeed1a7\")\n  return(0x00, dataSize(sub_0))\nstop\n\nsub_0: assembly {\n        /* \"contracts/KipuBankV3.sol\":1053:8917  contract KipuBankV3 is Ownable, ReentrancyGuard{... */\n      mstore(0x40, 0x80)\n      jumpi(tag_1, lt(calldatasize, 0x04))\n      shr(0xe0, calldataload(0x00))\n      dup1\n      0x8bdb2afa\n      gt\n      tag_19\n      jumpi\n      dup1\n      0xf2fde38b\n      gt\n      tag_20\n      jumpi\n      dup1\n      0xf2fde38b\n      eq\n      tag_15\n      jumpi\n      dup1\n      0xf3db702c\n      eq\n      tag_16\n      jumpi\n      dup1\n      0xf6687af7\n      eq\n      tag_17\n      jumpi\n      dup1\n      0xff40e1d0\n      eq\n      tag_18\n      jumpi\n      jump(tag_2)\n    tag_20:\n      dup1\n      0x8bdb2afa\n      eq\n      tag_11\n      jumpi\n      dup1\n      0x8da5cb5b\n      eq\n      tag_12\n      jumpi\n      dup1\n      0x9e2b5339\n      eq\n      tag_13\n      jumpi\n      dup1\n      0xd0e30db0\n      eq\n      tag_14\n      jumpi\n      jump(tag_2)\n    tag_19:\n      dup1\n      0x4dbe7e92\n      gt\n      tag_21\n      jumpi\n      dup1\n      0x4dbe7e92\n      eq\n      tag_7\n      jumpi\n      dup1\n      0x5b06dece\n      eq\n      tag_8\n      jumpi\n      dup1\n      0x715018a6\n      eq\n      tag_9\n      jumpi\n      dup1\n      0x735de9f7\n      eq\n      tag_10\n      jumpi\n      jump(tag_2)\n    tag_21:\n      dup1\n      0x06f69acc\n      eq\n      tag_3\n      jumpi\n      dup1\n      0x089781a9\n      eq\n      tag_4\n      jumpi\n      dup1\n      0x21425ee0\n      eq\n      tag_5\n      jumpi\n      dup1\n      0x260ad389\n      eq\n      tag_6\n      jumpi\n      jump(tag_2)\n    tag_1:\n      jumpi(tag_2, calldatasize)\n        /* \"contracts/KipuBankV3.sol\":4163:4218  KipuBank_FailedOperation(\"Use deposit for ETH deposit\") */\n      mload(0x40)\n      0x336ea14200000000000000000000000000000000000000000000000000000000\n      dup2\n      mstore\n      0x04\n      add\n      tag_24\n      swap1\n      tag_25\n      jump\t// in\n    tag_24:\n      mload(0x40)\n      dup1\n      swap2\n      sub\n      swap1\n      revert\n        /* \"contracts/KipuBankV3.sol\":1053:8917  contract KipuBankV3 is Ownable, ReentrancyGuard{... */\n    tag_2:\n      callvalue\n      dup1\n      iszero\n      tag_26\n      jumpi\n      0x00\n      dup1\n      revert\n    tag_26:\n      pop\n        /* \"contracts/KipuBankV3.sol\":4271:4346  KipuBank_FailedOperation(\"Operation does not exists or data was incorrect\") */\n      mload(0x40)\n      0x336ea14200000000000000000000000000000000000000000000000000000000\n      dup2\n      mstore\n      0x04\n      add\n      tag_29\n      swap1\n      tag_30\n      jump\t// in\n    tag_29:\n      mload(0x40)\n      dup1\n      swap2\n      sub\n      swap1\n      revert\n        /* \"contracts/KipuBankV3.sol\":4374:4488  function consultKipuBankFounds() external view returns (uint256 amount_){... */\n    tag_3:\n      callvalue\n      dup1\n      iszero\n      tag_31\n      jumpi\n      0x00\n      dup1\n      revert\n    tag_31:\n      pop\n      tag_32\n      tag_33\n      jump\t// in\n    tag_32:\n      mload(0x40)\n      tag_34\n      swap2\n      swap1\n      tag_35\n      jump\t// in\n    tag_34:\n      mload(0x40)\n      dup1\n      swap2\n      sub\n      swap1\n      return\n        /* \"contracts/KipuBankV3.sol\":1385:1425  uint256 public immutable i_maxWithdrawal */\n    tag_4:\n      callvalue\n      dup1\n      iszero\n      tag_36\n      jumpi\n      0x00\n      dup1\n      revert\n    tag_36:\n      pop\n      tag_37\n      tag_38\n      jump\t// in\n    tag_37:\n      mload(0x40)\n      tag_39\n      swap2\n      swap1\n      tag_35\n      jump\t// in\n    tag_39:\n      mload(0x40)\n      dup1\n      swap2\n      sub\n      swap1\n      return\n        /* \"contracts/KipuBankV3.sol\":4605:6179  function depositERC20(... */\n    tag_5:\n      callvalue\n      dup1\n      iszero\n      tag_40\n      jumpi\n      0x00\n      dup1\n      revert\n    tag_40:\n      pop\n      tag_41\n      0x04\n      dup1\n      calldatasize\n      sub\n      dup2\n      add\n      swap1\n      tag_42\n      swap2\n      swap1\n      tag_43\n      jump\t// in\n    tag_42:\n      tag_44\n      jump\t// in\n    tag_41:\n      stop\n        /* \"contracts/KipuBankV3.sol\":1234:1291  mapping(address => uint256) public s_totalDepositsByToken */\n    tag_6:\n      callvalue\n      dup1\n      iszero\n      tag_45\n      jumpi\n      0x00\n      dup1\n      revert\n    tag_45:\n      pop\n      tag_46\n      0x04\n      dup1\n      calldatasize\n      sub\n      dup2\n      add\n      swap1\n      tag_47\n      swap2\n      swap1\n      tag_48\n      jump\t// in\n    tag_47:\n      tag_49\n      jump\t// in\n    tag_46:\n      mload(0x40)\n      tag_50\n      swap2\n      swap1\n      tag_35\n      jump\t// in\n    tag_50:\n      mload(0x40)\n      dup1\n      swap2\n      sub\n      swap1\n      return\n        /* \"contracts/KipuBankV3.sol\":1473:1504  address public immutable i_weth */\n    tag_7:\n      callvalue\n      dup1\n      iszero\n      tag_51\n      jumpi\n      0x00\n      dup1\n      revert\n    tag_51:\n      pop\n      tag_52\n      tag_53\n      jump\t// in\n    tag_52:\n      mload(0x40)\n      tag_54\n      swap2\n      swap1\n      tag_55\n      jump\t// in\n    tag_54:\n      mload(0x40)\n      dup1\n      swap2\n      sub\n      swap1\n      return\n        /* \"contracts/KipuBankV3.sol\":6187:6529  function withdrawUsdc(uint256 _amount) external nonReentrant _availableAmount(_amount){... */\n    tag_8:\n      callvalue\n      dup1\n      iszero\n      tag_56\n      jumpi\n      0x00\n      dup1\n      revert\n    tag_56:\n      pop\n      tag_57\n      0x04\n      dup1\n      calldatasize\n      sub\n      dup2\n      add\n      swap1\n      tag_58\n      swap2\n      swap1\n      tag_59\n      jump\t// in\n    tag_58:\n      tag_60\n      jump\t// in\n    tag_57:\n      stop\n        /* \"@openzeppelin/contracts/access/Ownable.sol\":2293:2394  function renounceOwnership() public virtual onlyOwner {... */\n    tag_9:\n      callvalue\n      dup1\n      iszero\n      tag_61\n      jumpi\n      0x00\n      dup1\n      revert\n    tag_61:\n      pop\n      tag_62\n      tag_63\n      jump\t// in\n    tag_62:\n      stop\n        /* \"contracts/KipuBankV3.sol\":1513:1562  IUniswapV2Router02 public immutable uniswapRouter */\n    tag_10:\n      callvalue\n      dup1\n      iszero\n      tag_64\n      jumpi\n      0x00\n      dup1\n      revert\n    tag_64:\n      pop\n      tag_65\n      tag_66\n      jump\t// in\n    tag_65:\n      mload(0x40)\n      tag_67\n      swap2\n      swap1\n      tag_68\n      jump\t// in\n    tag_67:\n      mload(0x40)\n      dup1\n      swap2\n      sub\n      swap1\n      return\n        /* \"contracts/KipuBankV3.sol\":1571:1610  IUniswapV2Factory public uniswapFactory */\n    tag_11:\n      callvalue\n      dup1\n      iszero\n      tag_69\n      jumpi\n      0x00\n      dup1\n      revert\n    tag_69:\n      pop\n      tag_70\n      tag_71\n      jump\t// in\n    tag_70:\n      mload(0x40)\n      tag_72\n      swap2\n      swap1\n      tag_73\n      jump\t// in\n    tag_72:\n      mload(0x40)\n      dup1\n      swap2\n      sub\n      swap1\n      return\n        /* \"@openzeppelin/contracts/access/Ownable.sol\":1638:1723  function owner() public view virtual returns (address) {... */\n    tag_12:\n      callvalue\n      dup1\n      iszero\n      tag_74\n      jumpi\n      0x00\n      dup1\n      revert\n    tag_74:\n      pop\n      tag_75\n      tag_76\n      jump\t// in\n    tag_75:\n      mload(0x40)\n      tag_77\n      swap2\n      swap1\n      tag_55\n      jump\t// in\n    tag_77:\n      mload(0x40)\n      dup1\n      swap2\n      sub\n      swap1\n      return\n        /* \"contracts/KipuBankV3.sol\":6537:6742  function emergencyWithdrawal(uint256 _amount, address _recipient) external onlyOwner {... */\n    tag_13:\n      callvalue\n      dup1\n      iszero\n      tag_78\n      jumpi\n      0x00\n      dup1\n      revert\n    tag_78:\n      pop\n      tag_79\n      0x04\n      dup1\n      calldatasize\n      sub\n      dup2\n      add\n      swap1\n      tag_80\n      swap2\n      swap1\n      tag_81\n      jump\t// in\n    tag_80:\n      tag_82\n      jump\t// in\n    tag_79:\n      stop\n        /* \"contracts/KipuBankV3.sol\":4496:4597  function deposit() external payable nonReentrant{... */\n    tag_14:\n      tag_83\n      tag_84\n      jump\t// in\n    tag_83:\n      stop\n        /* \"@openzeppelin/contracts/access/Ownable.sol\":2543:2758  function transferOwnership(address newOwner) public virtual onlyOwner {... */\n    tag_15:\n      callvalue\n      dup1\n      iszero\n      tag_85\n      jumpi\n      0x00\n      dup1\n      revert\n    tag_85:\n      pop\n      tag_86\n      0x04\n      dup1\n      calldatasize\n      sub\n      dup2\n      add\n      swap1\n      tag_87\n      swap2\n      swap1\n      tag_48\n      jump\t// in\n    tag_87:\n      tag_88\n      jump\t// in\n    tag_86:\n      stop\n        /* \"contracts/KipuBankV3.sol\":1300:1333  uint256 public s_totalWithdrawals */\n    tag_16:\n      callvalue\n      dup1\n      iszero\n      tag_89\n      jumpi\n      0x00\n      dup1\n      revert\n    tag_89:\n      pop\n      tag_90\n      tag_91\n      jump\t// in\n    tag_90:\n      mload(0x40)\n      tag_92\n      swap2\n      swap1\n      tag_35\n      jump\t// in\n    tag_92:\n      mload(0x40)\n      dup1\n      swap2\n      sub\n      swap1\n      return\n        /* \"contracts/KipuBankV3.sol\":1342:1376  uint256 public immutable i_bankCap */\n    tag_17:\n      callvalue\n      dup1\n      iszero\n      tag_93\n      jumpi\n      0x00\n      dup1\n      revert\n    tag_93:\n      pop\n      tag_94\n      tag_95\n      jump\t// in\n    tag_94:\n      mload(0x40)\n      tag_96\n      swap2\n      swap1\n      tag_35\n      jump\t// in\n    tag_96:\n      mload(0x40)\n      dup1\n      swap2\n      sub\n      swap1\n      return\n        /* \"contracts/KipuBankV3.sol\":1434:1464  IERC20 public immutable i_usdc */\n    tag_18:\n      callvalue\n      dup1\n      iszero\n      tag_97\n      jumpi\n      0x00\n      dup1\n      revert\n    tag_97:\n      pop\n      tag_98\n      tag_99\n      jump\t// in\n    tag_98:\n      mload(0x40)\n      tag_100\n      swap2\n      swap1\n      tag_101\n      jump\t// in\n    tag_100:\n      mload(0x40)\n      dup1\n      swap2\n      sub\n      swap1\n      return\n        /* \"contracts/KipuBankV3.sol\":4374:4488  function consultKipuBankFounds() external view returns (uint256 amount_){... */\n    tag_33:\n        /* \"contracts/KipuBankV3.sol\":4430:4445  uint256 amount_ */\n      0x00\n        /* \"contracts/KipuBankV3.sol\":4464:4480  _consultFounds() */\n      tag_103\n        /* \"contracts/KipuBankV3.sol\":4464:4478  _consultFounds */\n      tag_104\n        /* \"contracts/KipuBankV3.sol\":4464:4480  _consultFounds() */\n      jump\t// in\n    tag_103:\n        /* \"contracts/KipuBankV3.sol\":4457:4480  return _consultFounds() */\n      swap1\n      pop\n        /* \"contracts/KipuBankV3.sol\":4374:4488  function consultKipuBankFounds() external view returns (uint256 amount_){... */\n      swap1\n      jump\t// out\n        /* \"contracts/KipuBankV3.sol\":1385:1425  uint256 public immutable i_maxWithdrawal */\n    tag_38:\n      immutable(\"0xd4b9d2c04c114ccab3d4470f7240f7878c88eddf29bef0226301531fceb67cc9\")\n      dup2\n      jump\t// out\n        /* \"contracts/KipuBankV3.sol\":4605:6179  function depositERC20(... */\n    tag_44:\n        /* \"@openzeppelin/contracts/utils/ReentrancyGuard.sol\":2500:2521  _nonReentrantBefore() */\n      tag_106\n        /* \"@openzeppelin/contracts/utils/ReentrancyGuard.sol\":2500:2519  _nonReentrantBefore */\n      tag_107\n        /* \"@openzeppelin/contracts/utils/ReentrancyGuard.sol\":2500:2521  _nonReentrantBefore() */\n      jump\t// in\n    tag_106:\n        /* \"contracts/KipuBankV3.sol\":4743:4749  _token */\n      dup3\n        /* \"contracts/KipuBankV3.sol\":2580:2592  address pair */\n      0x00\n        /* \"contracts/KipuBankV3.sol\":2595:2609  uniswapFactory */\n      0x05\n      0x00\n      swap1\n      sload\n      swap1\n      0x0100\n      exp\n      swap1\n      div\n      0xffffffffffffffffffffffffffffffffffffffff\n      and\n        /* \"contracts/KipuBankV3.sol\":2595:2617  uniswapFactory.getPair */\n      0xffffffffffffffffffffffffffffffffffffffff\n      and\n      0xe6a43905\n        /* \"contracts/KipuBankV3.sol\":2618:2624  _token */\n      dup4\n        /* \"contracts/KipuBankV3.sol\":2634:2640  i_usdc */\n      immutable(\"0x0b24e851bc758cefb56b47f9e12cff3ce5289edee2e1cc4c34a4b468a11de2d1\")\n        /* \"contracts/KipuBankV3.sol\":2595:2642  uniswapFactory.getPair(_token, address(i_usdc)) */\n      mload(0x40)\n      dup4\n      0xffffffff\n      and\n      0xe0\n      shl\n      dup2\n      mstore\n      0x04\n      add\n      tag_109\n      swap3\n      swap2\n      swap1\n      tag_110\n      jump\t// in\n    tag_109:\n      0x20\n      mload(0x40)\n      dup1\n      dup4\n      sub\n      dup2\n      dup7\n      gas\n      staticcall\n      iszero\n      dup1\n      iszero\n      tag_112\n      jumpi\n      returndatasize\n      0x00\n      dup1\n      returndatacopy\n      revert(0x00, returndatasize)\n    tag_112:\n      pop\n      pop\n      pop\n      pop\n      mload(0x40)\n      returndatasize\n      not(0x1f)\n      0x1f\n      dup3\n      add\n      and\n      dup3\n      add\n      dup1\n      0x40\n      mstore\n      pop\n      dup2\n      add\n      swap1\n      tag_113\n      swap2\n      swap1\n      tag_114\n      jump\t// in\n    tag_113:\n        /* \"contracts/KipuBankV3.sol\":2580:2642  address pair = uniswapFactory.getPair(_token, address(i_usdc)) */\n      swap1\n      pop\n        /* \"contracts/KipuBankV3.sol\":2676:2677  0 */\n      0x00\n        /* \"contracts/KipuBankV3.sol\":2660:2678  pair == address(0) */\n      0xffffffffffffffffffffffffffffffffffffffff\n      and\n        /* \"contracts/KipuBankV3.sol\":2660:2664  pair */\n      dup2\n        /* \"contracts/KipuBankV3.sol\":2660:2678  pair == address(0) */\n      0xffffffffffffffffffffffffffffffffffffffff\n      and\n      sub\n        /* \"contracts/KipuBankV3.sol\":2657:2755  if(pair == address(0)){... */\n      tag_115\n      jumpi\n        /* \"contracts/KipuBankV3.sol\":2732:2738  _token */\n      dup2\n        /* \"contracts/KipuBankV3.sol\":2705:2739  KipuBank_NotSupportedToken(_token) */\n      mload(0x40)\n      0xe584a63f00000000000000000000000000000000000000000000000000000000\n      dup2\n      mstore\n      0x04\n      add\n      tag_116\n      swap2\n      swap1\n      tag_55\n      jump\t// in\n    tag_116:\n      mload(0x40)\n      dup1\n      swap2\n      sub\n      swap1\n      revert\n        /* \"contracts/KipuBankV3.sol\":2657:2755  if(pair == address(0)){... */\n    tag_115:\n        /* \"contracts/KipuBankV3.sol\":4775:4781  _token */\n      dup5\n        /* \"contracts/KipuBankV3.sol\":4783:4792  _amountIn */\n      dup5\n        /* \"contracts/KipuBankV3.sol\":3183:3184  0 */\n      0x00\n        /* \"contracts/KipuBankV3.sol\":3165:3185  _token != address(0) */\n      0xffffffffffffffffffffffffffffffffffffffff\n      and\n        /* \"contracts/KipuBankV3.sol\":3165:3171  _token */\n      dup3\n        /* \"contracts/KipuBankV3.sol\":3165:3185  _token != address(0) */\n      0xffffffffffffffffffffffffffffffffffffffff\n      and\n      eq\n        /* \"contracts/KipuBankV3.sol\":3161:3431  if (_token != address(0)) {... */\n      tag_118\n      jumpi\n        /* \"contracts/KipuBankV3.sol\":3202:3214  IERC20 token */\n      0x00\n        /* \"contracts/KipuBankV3.sol\":3224:3230  _token */\n      dup3\n        /* \"contracts/KipuBankV3.sol\":3202:3231  IERC20 token = IERC20(_token) */\n      swap1\n      pop\n        /* \"contracts/KipuBankV3.sol\":3295:3302  _amount */\n      dup2\n        /* \"contracts/KipuBankV3.sol\":3250:3255  token */\n      dup2\n        /* \"contracts/KipuBankV3.sol\":3250:3265  token.allowance */\n      0xffffffffffffffffffffffffffffffffffffffff\n      and\n      0xdd62ed3e\n        /* \"contracts/KipuBankV3.sol\":3266:3276  msg.sender */\n      caller\n        /* \"contracts/KipuBankV3.sol\":3286:3290  this */\n      address\n        /* \"contracts/KipuBankV3.sol\":3250:3292  token.allowance(msg.sender, address(this)) */\n      mload(0x40)\n      dup4\n      0xffffffff\n      and\n      0xe0\n      shl\n      dup2\n      mstore\n      0x04\n      add\n      tag_119\n      swap3\n      swap2\n      swap1\n      tag_110\n      jump\t// in\n    tag_119:\n      0x20\n      mload(0x40)\n      dup1\n      dup4\n      sub\n      dup2\n      dup7\n      gas\n      staticcall\n      iszero\n      dup1\n      iszero\n      tag_121\n      jumpi\n      returndatasize\n      0x00\n      dup1\n      returndatacopy\n      revert(0x00, returndatasize)\n    tag_121:\n      pop\n      pop\n      pop\n      pop\n      mload(0x40)\n      returndatasize\n      not(0x1f)\n      0x1f\n      dup3\n      add\n      and\n      dup3\n      add\n      dup1\n      0x40\n      mstore\n      pop\n      dup2\n      add\n      swap1\n      tag_122\n      swap2\n      swap1\n      tag_123\n      jump\t// in\n    tag_122:\n        /* \"contracts/KipuBankV3.sol\":3250:3302  token.allowance(msg.sender, address(this)) < _amount */\n      lt\n        /* \"contracts/KipuBankV3.sol\":3246:3420  if (token.allowance(msg.sender, address(this)) < _amount) {... */\n      iszero\n      tag_124\n      jumpi\n        /* \"contracts/KipuBankV3.sol\":3330:3404  KipuBank_FailedOperation(\"ERC20: Insufficient allowance for transferFrom\") */\n      mload(0x40)\n      0x336ea14200000000000000000000000000000000000000000000000000000000\n      dup2\n      mstore\n      0x04\n      add\n      tag_125\n      swap1\n      tag_126\n      jump\t// in\n    tag_125:\n      mload(0x40)\n      dup1\n      swap2\n      sub\n      swap1\n      revert\n        /* \"contracts/KipuBankV3.sol\":3246:3420  if (token.allowance(msg.sender, address(this)) < _amount) {... */\n    tag_124:\n        /* \"contracts/KipuBankV3.sol\":3187:3431  {... */\n      pop\n        /* \"contracts/KipuBankV3.sol\":3161:3431  if (_token != address(0)) {... */\n    tag_118:\n        /* \"contracts/KipuBankV3.sol\":4812:4818  _token */\n      dup7\n        /* \"contracts/KipuBankV3.sol\":4820:4829  _amountIn */\n      dup7\n        /* \"contracts/KipuBankV3.sol\":2846:2866  uint256 amountInUSDC */\n      0x00\n        /* \"contracts/KipuBankV3.sol\":2869:2902  _estimateUSDCOut(_token, _amount) */\n      tag_128\n        /* \"contracts/KipuBankV3.sol\":2886:2892  _token */\n      dup4\n        /* \"contracts/KipuBankV3.sol\":2894:2901  _amount */\n      dup4\n        /* \"contracts/KipuBankV3.sol\":2869:2885  _estimateUSDCOut */\n      tag_129\n        /* \"contracts/KipuBankV3.sol\":2869:2902  _estimateUSDCOut(_token, _amount) */\n      jump\t// in\n    tag_128:\n        /* \"contracts/KipuBankV3.sol\":2846:2902  uint256 amountInUSDC = _estimateUSDCOut(_token, _amount) */\n      swap1\n      pop\n        /* \"contracts/KipuBankV3.sol\":2971:2980  i_bankCap */\n      immutable(\"0xbd75987a67efb9716d5393bd2ea04eabcd14da56452f9df91c5c677e8aeed1a7\")\n        /* \"contracts/KipuBankV3.sol\":2956:2968  amountInUSDC */\n      dup2\n        /* \"contracts/KipuBankV3.sol\":2921:2927  i_usdc */\n      immutable(\"0x0b24e851bc758cefb56b47f9e12cff3ce5289edee2e1cc4c34a4b468a11de2d1\")\n        /* \"contracts/KipuBankV3.sol\":2914:2938  IERC20(i_usdc).balanceOf */\n      0xffffffffffffffffffffffffffffffffffffffff\n      and\n      0x70a08231\n        /* \"contracts/KipuBankV3.sol\":2947:2951  this */\n      address\n        /* \"contracts/KipuBankV3.sol\":2914:2953  IERC20(i_usdc).balanceOf(address(this)) */\n      mload(0x40)\n      dup3\n      0xffffffff\n      and\n      0xe0\n      shl\n      dup2\n      mstore\n      0x04\n      add\n      tag_130\n      swap2\n      swap1\n      tag_55\n      jump\t// in\n    tag_130:\n      0x20\n      mload(0x40)\n      dup1\n      dup4\n      sub\n      dup2\n      dup7\n      gas\n      staticcall\n      iszero\n      dup1\n      iszero\n      tag_132\n      jumpi\n      returndatasize\n      0x00\n      dup1\n      returndatacopy\n      revert(0x00, returndatasize)\n    tag_132:\n      pop\n      pop\n      pop\n      pop\n      mload(0x40)\n      returndatasize\n      not(0x1f)\n      0x1f\n      dup3\n      add\n      and\n      dup3\n      add\n      dup1\n      0x40\n      mstore\n      pop\n      dup2\n      add\n      swap1\n      tag_133\n      swap2\n      swap1\n      tag_123\n      jump\t// in\n    tag_133:\n        /* \"contracts/KipuBankV3.sol\":2914:2968  IERC20(i_usdc).balanceOf(address(this)) + amountInUSDC */\n      tag_134\n      swap2\n      swap1\n      tag_135\n      jump\t// in\n    tag_134:\n        /* \"contracts/KipuBankV3.sol\":2914:2980  IERC20(i_usdc).balanceOf(address(this)) + amountInUSDC > i_bankCap */\n      gt\n        /* \"contracts/KipuBankV3.sol\":2910:3065  if (IERC20(i_usdc).balanceOf(address(this)) + amountInUSDC > i_bankCap) {... */\n      iszero\n      tag_136\n      jumpi\n        /* \"contracts/KipuBankV3.sol\":3000:3057  KipuBank_FailedDeposit(\"Total KipuBank's funds exceeded\") */\n      mload(0x40)\n      0xa2d2e1b200000000000000000000000000000000000000000000000000000000\n      dup2\n      mstore\n      0x04\n      add\n      tag_137\n      swap1\n      tag_138\n      jump\t// in\n    tag_137:\n      mload(0x40)\n      dup1\n      swap2\n      sub\n      swap1\n      revert\n        /* \"contracts/KipuBankV3.sol\":2910:3065  if (IERC20(i_usdc).balanceOf(address(this)) + amountInUSDC > i_bankCap) {... */\n    tag_136:\n        /* \"contracts/KipuBankV3.sol\":4934:4946  IERC20 token */\n      0x00\n        /* \"contracts/KipuBankV3.sol\":4956:4962  _token */\n      dup11\n        /* \"contracts/KipuBankV3.sol\":4934:4963  IERC20 token = IERC20(_token) */\n      swap1\n      pop\n        /* \"contracts/KipuBankV3.sol\":4974:5034  token.safeTransferFrom(msg.sender, address(this), _amountIn) */\n      tag_140\n        /* \"contracts/KipuBankV3.sol\":4997:5007  msg.sender */\n      caller\n        /* \"contracts/KipuBankV3.sol\":5017:5021  this */\n      address\n        /* \"contracts/KipuBankV3.sol\":5024:5033  _amountIn */\n      dup13\n        /* \"contracts/KipuBankV3.sol\":4974:4979  token */\n      dup5\n        /* \"contracts/KipuBankV3.sol\":4974:4996  token.safeTransferFrom */\n      0xffffffffffffffffffffffffffffffffffffffff\n      and\n      tag_141\n      swap1\n        /* \"contracts/KipuBankV3.sol\":4974:5034  token.safeTransferFrom(msg.sender, address(this), _amountIn) */\n      swap4\n      swap3\n      swap2\n      swap1\n      0xffffffff\n      and\n      jump\t// in\n    tag_140:\n        /* \"contracts/KipuBankV3.sol\":5068:5088  uint256 usdcReceived */\n      0x00\n        /* \"contracts/KipuBankV3.sol\":5099:5120  uint256 beforeBalance */\n      dup1\n        /* \"contracts/KipuBankV3.sol\":5130:5136  i_usdc */\n      immutable(\"0x0b24e851bc758cefb56b47f9e12cff3ce5289edee2e1cc4c34a4b468a11de2d1\")\n        /* \"contracts/KipuBankV3.sol\":5123:5147  IERC20(i_usdc).balanceOf */\n      0xffffffffffffffffffffffffffffffffffffffff\n      and\n      0x70a08231\n        /* \"contracts/KipuBankV3.sol\":5156:5160  this */\n      address\n        /* \"contracts/KipuBankV3.sol\":5123:5162  IERC20(i_usdc).balanceOf(address(this)) */\n      mload(0x40)\n      dup3\n      0xffffffff\n      and\n      0xe0\n      shl\n      dup2\n      mstore\n      0x04\n      add\n      tag_142\n      swap2\n      swap1\n      tag_55\n      jump\t// in\n    tag_142:\n      0x20\n      mload(0x40)\n      dup1\n      dup4\n      sub\n      dup2\n      dup7\n      gas\n      staticcall\n      iszero\n      dup1\n      iszero\n      tag_144\n      jumpi\n      returndatasize\n      0x00\n      dup1\n      returndatacopy\n      revert(0x00, returndatasize)\n    tag_144:\n      pop\n      pop\n      pop\n      pop\n      mload(0x40)\n      returndatasize\n      not(0x1f)\n      0x1f\n      dup3\n      add\n      and\n      dup3\n      add\n      dup1\n      0x40\n      mstore\n      pop\n      dup2\n      add\n      swap1\n      tag_145\n      swap2\n      swap1\n      tag_123\n      jump\t// in\n    tag_145:\n        /* \"contracts/KipuBankV3.sol\":5099:5162  uint256 beforeBalance = IERC20(i_usdc).balanceOf(address(this)) */\n      swap1\n      pop\n        /* \"contracts/KipuBankV3.sol\":5195:5201  i_usdc */\n      immutable(\"0x0b24e851bc758cefb56b47f9e12cff3ce5289edee2e1cc4c34a4b468a11de2d1\")\n        /* \"contracts/KipuBankV3.sol\":5177:5202  _token != address(i_usdc) */\n      0xffffffffffffffffffffffffffffffffffffffff\n      and\n        /* \"contracts/KipuBankV3.sol\":5177:5183  _token */\n      dup14\n        /* \"contracts/KipuBankV3.sol\":5177:5202  _token != address(i_usdc) */\n      0xffffffffffffffffffffffffffffffffffffffff\n      and\n      eq\n        /* \"contracts/KipuBankV3.sol\":5173:5845  if (_token != address(i_usdc)) {... */\n      tag_146\n      jumpi\n        /* \"contracts/KipuBankV3.sol\":5219:5240  address[] memory path */\n      0x00\n        /* \"contracts/KipuBankV3.sol\":5257:5258  2 */\n      0x02\n        /* \"contracts/KipuBankV3.sol\":5243:5259  new address[](2) */\n      0xffffffffffffffff\n      dup2\n      gt\n      iszero\n      tag_147\n      jumpi\n      tag_148\n      tag_149\n      jump\t// in\n    tag_148:\n    tag_147:\n      mload(0x40)\n      swap1\n      dup1\n      dup3\n      mstore\n      dup1\n      0x20\n      mul\n      0x20\n      add\n      dup3\n      add\n      0x40\n      mstore\n      dup1\n      iszero\n      tag_150\n      jumpi\n      dup2\n      0x20\n      add\n      0x20\n      dup3\n      mul\n      dup1\n      calldatasize\n      dup4\n      calldatacopy\n      dup1\n      dup3\n      add\n      swap2\n      pop\n      pop\n      swap1\n      pop\n    tag_150:\n      pop\n        /* \"contracts/KipuBankV3.sol\":5219:5259  address[] memory path = new address[](2) */\n      swap1\n      pop\n        /* \"contracts/KipuBankV3.sol\":5284:5290  _token */\n      dup14\n        /* \"contracts/KipuBankV3.sol\":5274:5278  path */\n      dup2\n        /* \"contracts/KipuBankV3.sol\":5279:5280  0 */\n      0x00\n        /* \"contracts/KipuBankV3.sol\":5274:5281  path[0] */\n      dup2\n      mload\n      dup2\n      lt\n      tag_151\n      jumpi\n      tag_152\n      tag_153\n      jump\t// in\n    tag_152:\n    tag_151:\n      0x20\n      mul\n      0x20\n      add\n      add\n        /* \"contracts/KipuBankV3.sol\":5274:5290  path[0] = _token */\n      swap1\n      0xffffffffffffffffffffffffffffffffffffffff\n      and\n      swap1\n      dup2\n      0xffffffffffffffffffffffffffffffffffffffff\n      and\n      dup2\n      mstore\n      pop\n      pop\n        /* \"contracts/KipuBankV3.sol\":5323:5329  i_usdc */\n      immutable(\"0x0b24e851bc758cefb56b47f9e12cff3ce5289edee2e1cc4c34a4b468a11de2d1\")\n        /* \"contracts/KipuBankV3.sol\":5305:5309  path */\n      dup2\n        /* \"contracts/KipuBankV3.sol\":5310:5311  1 */\n      0x01\n        /* \"contracts/KipuBankV3.sol\":5305:5312  path[1] */\n      dup2\n      mload\n      dup2\n      lt\n      tag_154\n      jumpi\n      tag_155\n      tag_153\n      jump\t// in\n    tag_155:\n    tag_154:\n      0x20\n      mul\n      0x20\n      add\n      add\n        /* \"contracts/KipuBankV3.sol\":5305:5330  path[1] = address(i_usdc) */\n      swap1\n      0xffffffffffffffffffffffffffffffffffffffff\n      and\n      swap1\n      dup2\n      0xffffffffffffffffffffffffffffffffffffffff\n      and\n      dup2\n      mstore\n      pop\n      pop\n        /* \"contracts/KipuBankV3.sol\":5377:5390  uniswapRouter */\n      immutable(\"0xda956e91f77b4bd5547e59f2b47cb1a55b9b750d737784777a0ec1d41d783cd2\")\n        /* \"contracts/KipuBankV3.sol\":5377:5444  uniswapRouter.swapExactTokensForTokensSupportingFeeOnTransferTokens */\n      0xffffffffffffffffffffffffffffffffffffffff\n      and\n      0x5c11d795\n        /* \"contracts/KipuBankV3.sol\":5463:5472  _amountIn */\n      dup15\n        /* \"contracts/KipuBankV3.sol\":5491:5504  _amountMinOut */\n      dup15\n        /* \"contracts/KipuBankV3.sol\":5523:5527  path */\n      dup5\n        /* \"contracts/KipuBankV3.sol\":5554:5558  this */\n      address\n        /* \"contracts/KipuBankV3.sol\":5596:5599  300 */\n      0x012c\n        /* \"contracts/KipuBankV3.sol\":5578:5593  block.timestamp */\n      timestamp\n        /* \"contracts/KipuBankV3.sol\":5578:5599  block.timestamp + 300 */\n      tag_156\n      swap2\n      swap1\n      tag_135\n      jump\t// in\n    tag_156:\n        /* \"contracts/KipuBankV3.sol\":5377:5614  uniswapRouter.swapExactTokensForTokensSupportingFeeOnTransferTokens(... */\n      mload(0x40)\n      dup7\n      0xffffffff\n      and\n      0xe0\n      shl\n      dup2\n      mstore\n      0x04\n      add\n      tag_157\n      swap6\n      swap5\n      swap4\n      swap3\n      swap2\n      swap1\n      tag_158\n      jump\t// in\n    tag_157:\n      0x00\n      mload(0x40)\n      dup1\n      dup4\n      sub\n      dup2\n      0x00\n      dup8\n      dup1\n      extcodesize\n      iszero\n      dup1\n      iszero\n      tag_159\n      jumpi\n      0x00\n      dup1\n      revert\n    tag_159:\n      pop\n      gas\n      call\n      iszero\n      dup1\n      iszero\n      tag_161\n      jumpi\n      returndatasize\n      0x00\n      dup1\n      returndatacopy\n      revert(0x00, returndatasize)\n    tag_161:\n      pop\n      pop\n      pop\n      pop\n        /* \"contracts/KipuBankV3.sol\":5656:5676  uint256 afterBalance */\n      0x00\n        /* \"contracts/KipuBankV3.sol\":5686:5692  i_usdc */\n      immutable(\"0x0b24e851bc758cefb56b47f9e12cff3ce5289edee2e1cc4c34a4b468a11de2d1\")\n        /* \"contracts/KipuBankV3.sol\":5679:5703  IERC20(i_usdc).balanceOf */\n      0xffffffffffffffffffffffffffffffffffffffff\n      and\n      0x70a08231\n        /* \"contracts/KipuBankV3.sol\":5712:5716  this */\n      address\n        /* \"contracts/KipuBankV3.sol\":5679:5718  IERC20(i_usdc).balanceOf(address(this)) */\n      mload(0x40)\n      dup3\n      0xffffffff\n      and\n      0xe0\n      shl\n      dup2\n      mstore\n      0x04\n      add\n      tag_162\n      swap2\n      swap1\n      tag_55\n      jump\t// in\n    tag_162:\n      0x20\n      mload(0x40)\n      dup1\n      dup4\n      sub\n      dup2\n      dup7\n      gas\n      staticcall\n      iszero\n      dup1\n      iszero\n      tag_164\n      jumpi\n      returndatasize\n      0x00\n      dup1\n      returndatacopy\n      revert(0x00, returndatasize)\n    tag_164:\n      pop\n      pop\n      pop\n      pop\n      mload(0x40)\n      returndatasize\n      not(0x1f)\n      0x1f\n      dup3\n      add\n      and\n      dup3\n      add\n      dup1\n      0x40\n      mstore\n      pop\n      dup2\n      add\n      swap1\n      tag_165\n      swap2\n      swap1\n      tag_123\n      jump\t// in\n    tag_165:\n        /* \"contracts/KipuBankV3.sol\":5656:5718  uint256 afterBalance = IERC20(i_usdc).balanceOf(address(this)) */\n      swap1\n      pop\n        /* \"contracts/KipuBankV3.sol\":5763:5776  beforeBalance */\n      dup3\n        /* \"contracts/KipuBankV3.sol\":5748:5760  afterBalance */\n      dup2\n        /* \"contracts/KipuBankV3.sol\":5748:5776  afterBalance - beforeBalance */\n      tag_166\n      swap2\n      swap1\n      tag_167\n      jump\t// in\n    tag_166:\n        /* \"contracts/KipuBankV3.sol\":5733:5776  usdcReceived = afterBalance - beforeBalance */\n      swap4\n      pop\n        /* \"contracts/KipuBankV3.sol\":5204:5788  {... */\n      pop\n      pop\n        /* \"contracts/KipuBankV3.sol\":5173:5845  if (_token != address(i_usdc)) {... */\n      jump(tag_168)\n    tag_146:\n        /* \"contracts/KipuBankV3.sol\":5824:5833  _amountIn */\n      dup12\n        /* \"contracts/KipuBankV3.sol\":5809:5833  usdcReceived = _amountIn */\n      swap2\n      pop\n        /* \"contracts/KipuBankV3.sol\":5173:5845  if (_token != address(i_usdc)) {... */\n    tag_168:\n        /* \"contracts/KipuBankV3.sol\":5889:5898  i_bankCap */\n      immutable(\"0xbd75987a67efb9716d5393bd2ea04eabcd14da56452f9df91c5c677e8aeed1a7\")\n        /* \"contracts/KipuBankV3.sol\":5874:5886  usdcReceived */\n      dup3\n        /* \"contracts/KipuBankV3.sol\":5858:5871  beforeBalance */\n      dup3\n        /* \"contracts/KipuBankV3.sol\":5858:5886  beforeBalance + usdcReceived */\n      tag_169\n      swap2\n      swap1\n      tag_135\n      jump\t// in\n    tag_169:\n        /* \"contracts/KipuBankV3.sol\":5858:5898  beforeBalance + usdcReceived > i_bankCap */\n      gt\n        /* \"contracts/KipuBankV3.sol\":5855:5964  if(beforeBalance + usdcReceived > i_bankCap) revert KipuBank_FailedDeposit(\"Total KipuBank's funds exceeded\") */\n      iszero\n      tag_170\n      jumpi\n        /* \"contracts/KipuBankV3.sol\":5907:5964  KipuBank_FailedDeposit(\"Total KipuBank's funds exceeded\") */\n      mload(0x40)\n      0xa2d2e1b200000000000000000000000000000000000000000000000000000000\n      dup2\n      mstore\n      0x04\n      add\n      tag_171\n      swap1\n      tag_138\n      jump\t// in\n    tag_171:\n      mload(0x40)\n      dup1\n      swap2\n      sub\n      swap1\n      revert\n        /* \"contracts/KipuBankV3.sol\":5855:5964  if(beforeBalance + usdcReceived > i_bankCap) revert KipuBank_FailedDeposit(\"Total KipuBank's funds exceeded\") */\n    tag_170:\n        /* \"contracts/KipuBankV3.sol\":6024:6036  usdcReceived */\n      dup2\n        /* \"contracts/KipuBankV3.sol\":5998:6008  s_balances */\n      0x02\n        /* \"contracts/KipuBankV3.sol\":5998:6020  s_balances[msg.sender] */\n      0x00\n        /* \"contracts/KipuBankV3.sol\":6009:6019  msg.sender */\n      caller\n        /* \"contracts/KipuBankV3.sol\":5998:6020  s_balances[msg.sender] */\n      0xffffffffffffffffffffffffffffffffffffffff\n      and\n      0xffffffffffffffffffffffffffffffffffffffff\n      and\n      dup2\n      mstore\n      0x20\n      add\n      swap1\n      dup2\n      mstore\n      0x20\n      add\n      0x00\n      keccak256\n      0x00\n        /* \"contracts/KipuBankV3.sol\":5998:6036  s_balances[msg.sender] += usdcReceived */\n      dup3\n      dup3\n      sload\n      tag_172\n      swap2\n      swap1\n      tag_135\n      jump\t// in\n    tag_172:\n      swap3\n      pop\n      pop\n      dup2\n      swap1\n      sstore\n      pop\n        /* \"contracts/KipuBankV3.sol\":6047:6081  _actualizeOperations(true, _token) */\n      tag_173\n        /* \"contracts/KipuBankV3.sol\":6068:6072  true */\n      0x01\n        /* \"contracts/KipuBankV3.sol\":6074:6080  _token */\n      dup15\n        /* \"contracts/KipuBankV3.sol\":6047:6067  _actualizeOperations */\n      tag_174\n        /* \"contracts/KipuBankV3.sol\":6047:6081  _actualizeOperations(true, _token) */\n      jump\t// in\n    tag_173:\n        /* \"contracts/KipuBankV3.sol\":6119:6171  KipuBank_SuccessfulDeposit(msg.sender, usdcReceived) */\n      0x7b7cd0ddbbea241880e825e1eb51c30752cb96dd7efeb4be691ec55dfa4d8963\n        /* \"contracts/KipuBankV3.sol\":6146:6156  msg.sender */\n      caller\n        /* \"contracts/KipuBankV3.sol\":6158:6170  usdcReceived */\n      dup4\n        /* \"contracts/KipuBankV3.sol\":6119:6171  KipuBank_SuccessfulDeposit(msg.sender, usdcReceived) */\n      mload(0x40)\n      tag_175\n      swap3\n      swap2\n      swap1\n      tag_176\n      jump\t// in\n    tag_175:\n      mload(0x40)\n      dup1\n      swap2\n      sub\n      swap1\n      log1\n        /* \"contracts/KipuBankV3.sol\":4830:6179  {... */\n      pop\n      pop\n      pop\n        /* \"contracts/KipuBankV3.sol\":2839:3076  {... */\n      pop\n        /* \"contracts/KipuBankV3.sol\":3441:3442  _ */\n      pop\n      pop\n        /* \"contracts/KipuBankV3.sol\":2765:2766  _ */\n      pop\n      pop\n        /* \"contracts/KipuBankV3.sol\":2509:2774  { //prevents using excesive gas in case of unsupported tokens... */\n      pop\n        /* \"@openzeppelin/contracts/utils/ReentrancyGuard.sol\":2531:2532  _ */\n      pop\n        /* \"@openzeppelin/contracts/utils/ReentrancyGuard.sol\":2542:2562  _nonReentrantAfter() */\n      tag_177\n        /* \"@openzeppelin/contracts/utils/ReentrancyGuard.sol\":2542:2560  _nonReentrantAfter */\n      tag_178\n        /* \"@openzeppelin/contracts/utils/ReentrancyGuard.sol\":2542:2562  _nonReentrantAfter() */\n      jump\t// in\n    tag_177:\n        /* \"contracts/KipuBankV3.sol\":4605:6179  function depositERC20(... */\n      pop\n      pop\n      pop\n      jump\t// out\n        /* \"contracts/KipuBankV3.sol\":1234:1291  mapping(address => uint256) public s_totalDepositsByToken */\n    tag_49:\n      mstore(0x20, 0x03)\n      dup1\n      0x00\n      mstore\n      keccak256(0x00, 0x40)\n      0x00\n      swap2\n      pop\n      swap1\n      pop\n      sload\n      dup2\n      jump\t// out\n        /* \"contracts/KipuBankV3.sol\":1473:1504  address public immutable i_weth */\n    tag_53:\n      immutable(\"0x25f9e8aeae9c2ffb4081060f1a62aa0739d35380589299578ccc29b3c3a0654e\")\n      dup2\n      jump\t// out\n        /* \"contracts/KipuBankV3.sol\":6187:6529  function withdrawUsdc(uint256 _amount) external nonReentrant _availableAmount(_amount){... */\n    tag_60:\n        /* \"@openzeppelin/contracts/utils/ReentrancyGuard.sol\":2500:2521  _nonReentrantBefore() */\n      tag_180\n        /* \"@openzeppelin/contracts/utils/ReentrancyGuard.sol\":2500:2519  _nonReentrantBefore */\n      tag_107\n        /* \"@openzeppelin/contracts/utils/ReentrancyGuard.sol\":2500:2521  _nonReentrantBefore() */\n      jump\t// in\n    tag_180:\n        /* \"contracts/KipuBankV3.sol\":6265:6272  _amount */\n      dup1\n        /* \"contracts/KipuBankV3.sol\":2252:2259  _amount */\n      dup1\n        /* \"contracts/KipuBankV3.sol\":2234:2249  i_maxWithdrawal */\n      immutable(\"0xd4b9d2c04c114ccab3d4470f7240f7878c88eddf29bef0226301531fceb67cc9\")\n        /* \"contracts/KipuBankV3.sol\":2234:2259  i_maxWithdrawal < _amount */\n      lt\n        /* \"contracts/KipuBankV3.sol\":2231:2334  if(i_maxWithdrawal < _amount) revert KipuBank_FailedWithdrawal(\"Amount exceeds the maximum withdrawal\") */\n      iszero\n      tag_182\n      jumpi\n        /* \"contracts/KipuBankV3.sol\":2268:2334  KipuBank_FailedWithdrawal(\"Amount exceeds the maximum withdrawal\") */\n      mload(0x40)\n      0x0fc0517400000000000000000000000000000000000000000000000000000000\n      dup2\n      mstore\n      0x04\n      add\n      tag_183\n      swap1\n      tag_184\n      jump\t// in\n    tag_183:\n      mload(0x40)\n      dup1\n      swap2\n      sub\n      swap1\n      revert\n        /* \"contracts/KipuBankV3.sol\":2231:2334  if(i_maxWithdrawal < _amount) revert KipuBank_FailedWithdrawal(\"Amount exceeds the maximum withdrawal\") */\n    tag_182:\n        /* \"contracts/KipuBankV3.sol\":2373:2380  _amount */\n      dup1\n        /* \"contracts/KipuBankV3.sol\":2348:2358  s_balances */\n      0x02\n        /* \"contracts/KipuBankV3.sol\":2348:2370  s_balances[msg.sender] */\n      0x00\n        /* \"contracts/KipuBankV3.sol\":2359:2369  msg.sender */\n      caller\n        /* \"contracts/KipuBankV3.sol\":2348:2370  s_balances[msg.sender] */\n      0xffffffffffffffffffffffffffffffffffffffff\n      and\n      0xffffffffffffffffffffffffffffffffffffffff\n      and\n      dup2\n      mstore\n      0x20\n      add\n      swap1\n      dup2\n      mstore\n      0x20\n      add\n      0x00\n      keccak256\n      sload\n        /* \"contracts/KipuBankV3.sol\":2348:2380  s_balances[msg.sender] < _amount */\n      lt\n        /* \"contracts/KipuBankV3.sol\":2345:2437  if(s_balances[msg.sender] < _amount) revert KipuBank_InsufficientFounds(\"Not enough founds\") */\n      iszero\n      tag_185\n      jumpi\n        /* \"contracts/KipuBankV3.sol\":2389:2437  KipuBank_InsufficientFounds(\"Not enough founds\") */\n      mload(0x40)\n      0xe7fe37fb00000000000000000000000000000000000000000000000000000000\n      dup2\n      mstore\n      0x04\n      add\n      tag_186\n      swap1\n      tag_187\n      jump\t// in\n    tag_186:\n      mload(0x40)\n      dup1\n      swap2\n      sub\n      swap1\n      revert\n        /* \"contracts/KipuBankV3.sol\":2345:2437  if(s_balances[msg.sender] < _amount) revert KipuBank_InsufficientFounds(\"Not enough founds\") */\n    tag_185:\n        /* \"contracts/KipuBankV3.sol\":6310:6317  _amount */\n      dup2\n        /* \"contracts/KipuBankV3.sol\":6284:6294  s_balances */\n      0x02\n        /* \"contracts/KipuBankV3.sol\":6284:6306  s_balances[msg.sender] */\n      0x00\n        /* \"contracts/KipuBankV3.sol\":6295:6305  msg.sender */\n      caller\n        /* \"contracts/KipuBankV3.sol\":6284:6306  s_balances[msg.sender] */\n      0xffffffffffffffffffffffffffffffffffffffff\n      and\n      0xffffffffffffffffffffffffffffffffffffffff\n      and\n      dup2\n      mstore\n      0x20\n      add\n      swap1\n      dup2\n      mstore\n      0x20\n      add\n      0x00\n      keccak256\n      0x00\n        /* \"contracts/KipuBankV3.sol\":6284:6317  s_balances[msg.sender] -= _amount */\n      dup3\n      dup3\n      sload\n      tag_189\n      swap2\n      swap1\n      tag_167\n      jump\t// in\n    tag_189:\n      swap3\n      pop\n      pop\n      dup2\n      swap1\n      sstore\n      pop\n        /* \"contracts/KipuBankV3.sol\":6328:6340  IERC20 token */\n      0x00\n        /* \"contracts/KipuBankV3.sol\":6343:6349  i_usdc */\n      immutable(\"0x0b24e851bc758cefb56b47f9e12cff3ce5289edee2e1cc4c34a4b468a11de2d1\")\n        /* \"contracts/KipuBankV3.sol\":6328:6349  IERC20 token = i_usdc */\n      swap1\n      pop\n        /* \"contracts/KipuBankV3.sol\":6360:6403  _actualizeOperations(false, address(token)) */\n      tag_190\n        /* \"contracts/KipuBankV3.sol\":6381:6386  false */\n      0x00\n        /* \"contracts/KipuBankV3.sol\":6396:6401  token */\n      dup3\n        /* \"contracts/KipuBankV3.sol\":6360:6380  _actualizeOperations */\n      tag_174\n        /* \"contracts/KipuBankV3.sol\":6360:6403  _actualizeOperations(false, address(token)) */\n      jump\t// in\n    tag_190:\n        /* \"contracts/KipuBankV3.sol\":6414:6453  token.safeTransfer(msg.sender, _amount) */\n      tag_191\n        /* \"contracts/KipuBankV3.sol\":6433:6443  msg.sender */\n      caller\n        /* \"contracts/KipuBankV3.sol\":6445:6452  _amount */\n      dup5\n        /* \"contracts/KipuBankV3.sol\":6414:6419  token */\n      dup4\n        /* \"contracts/KipuBankV3.sol\":6414:6432  token.safeTransfer */\n      0xffffffffffffffffffffffffffffffffffffffff\n      and\n      tag_192\n      swap1\n        /* \"contracts/KipuBankV3.sol\":6414:6453  token.safeTransfer(msg.sender, _amount) */\n      swap3\n      swap2\n      swap1\n      0xffffffff\n      and\n      jump\t// in\n    tag_191:\n        /* \"contracts/KipuBankV3.sol\":6471:6521  KipuBank_SuccessfulWithdrawal(msg.sender, _amount) */\n      0x1ff21e81cff87fccbac096ad565f52cb1b358db04a736a6a137cceb4a287a702\n        /* \"contracts/KipuBankV3.sol\":6501:6511  msg.sender */\n      caller\n        /* \"contracts/KipuBankV3.sol\":6513:6520  _amount */\n      dup5\n        /* \"contracts/KipuBankV3.sol\":6471:6521  KipuBank_SuccessfulWithdrawal(msg.sender, _amount) */\n      mload(0x40)\n      tag_193\n      swap3\n      swap2\n      swap1\n      tag_176\n      jump\t// in\n    tag_193:\n      mload(0x40)\n      dup1\n      swap2\n      sub\n      swap1\n      log1\n        /* \"contracts/KipuBankV3.sol\":6273:6529  {... */\n      pop\n        /* \"@openzeppelin/contracts/utils/ReentrancyGuard.sol\":2531:2532  _ */\n      pop\n        /* \"@openzeppelin/contracts/utils/ReentrancyGuard.sol\":2542:2562  _nonReentrantAfter() */\n      tag_194\n        /* \"@openzeppelin/contracts/utils/ReentrancyGuard.sol\":2542:2560  _nonReentrantAfter */\n      tag_178\n        /* \"@openzeppelin/contracts/utils/ReentrancyGuard.sol\":2542:2562  _nonReentrantAfter() */\n      jump\t// in\n    tag_194:\n        /* \"contracts/KipuBankV3.sol\":6187:6529  function withdrawUsdc(uint256 _amount) external nonReentrant _availableAmount(_amount){... */\n      pop\n      jump\t// out\n        /* \"@openzeppelin/contracts/access/Ownable.sol\":2293:2394  function renounceOwnership() public virtual onlyOwner {... */\n    tag_63:\n        /* \"@openzeppelin/contracts/access/Ownable.sol\":1531:1544  _checkOwner() */\n      tag_196\n        /* \"@openzeppelin/contracts/access/Ownable.sol\":1531:1542  _checkOwner */\n      tag_197\n        /* \"@openzeppelin/contracts/access/Ownable.sol\":1531:1544  _checkOwner() */\n      jump\t// in\n    tag_196:\n        /* \"@openzeppelin/contracts/access/Ownable.sol\":2357:2387  _transferOwnership(address(0)) */\n      tag_199\n        /* \"@openzeppelin/contracts/access/Ownable.sol\":2384:2385  0 */\n      0x00\n        /* \"@openzeppelin/contracts/access/Ownable.sol\":2357:2375  _transferOwnership */\n      tag_200\n        /* \"@openzeppelin/contracts/access/Ownable.sol\":2357:2387  _transferOwnership(address(0)) */\n      jump\t// in\n    tag_199:\n        /* \"@openzeppelin/contracts/access/Ownable.sol\":2293:2394  function renounceOwnership() public virtual onlyOwner {... */\n      jump\t// out\n        /* \"contracts/KipuBankV3.sol\":1513:1562  IUniswapV2Router02 public immutable uniswapRouter */\n    tag_66:\n      immutable(\"0xda956e91f77b4bd5547e59f2b47cb1a55b9b750d737784777a0ec1d41d783cd2\")\n      dup2\n      jump\t// out\n        /* \"contracts/KipuBankV3.sol\":1571:1610  IUniswapV2Factory public uniswapFactory */\n    tag_71:\n      0x05\n      0x00\n      swap1\n      sload\n      swap1\n      0x0100\n      exp\n      swap1\n      div\n      0xffffffffffffffffffffffffffffffffffffffff\n      and\n      dup2\n      jump\t// out\n        /* \"@openzeppelin/contracts/access/Ownable.sol\":1638:1723  function owner() public view virtual returns (address) {... */\n    tag_76:\n        /* \"@openzeppelin/contracts/access/Ownable.sol\":1684:1691  address */\n      0x00\n        /* \"@openzeppelin/contracts/access/Ownable.sol\":1710:1716  _owner */\n      dup1\n      0x00\n      swap1\n      sload\n      swap1\n      0x0100\n      exp\n      swap1\n      div\n      0xffffffffffffffffffffffffffffffffffffffff\n      and\n        /* \"@openzeppelin/contracts/access/Ownable.sol\":1703:1716  return _owner */\n      swap1\n      pop\n        /* \"@openzeppelin/contracts/access/Ownable.sol\":1638:1723  function owner() public view virtual returns (address) {... */\n      swap1\n      jump\t// out\n        /* \"contracts/KipuBankV3.sol\":6537:6742  function emergencyWithdrawal(uint256 _amount, address _recipient) external onlyOwner {... */\n    tag_82:\n        /* \"@openzeppelin/contracts/access/Ownable.sol\":1531:1544  _checkOwner() */\n      tag_203\n        /* \"@openzeppelin/contracts/access/Ownable.sol\":1531:1542  _checkOwner */\n      tag_197\n        /* \"@openzeppelin/contracts/access/Ownable.sol\":1531:1544  _checkOwner() */\n      jump\t// in\n    tag_203:\n        /* \"contracts/KipuBankV3.sol\":6633:6681  IERC20(i_usdc).safeTransfer(_recipient, _amount) */\n      tag_205\n        /* \"contracts/KipuBankV3.sol\":6661:6671  _recipient */\n      dup2\n        /* \"contracts/KipuBankV3.sol\":6673:6680  _amount */\n      dup4\n        /* \"contracts/KipuBankV3.sol\":6640:6646  i_usdc */\n      immutable(\"0x0b24e851bc758cefb56b47f9e12cff3ce5289edee2e1cc4c34a4b468a11de2d1\")\n        /* \"contracts/KipuBankV3.sol\":6633:6660  IERC20(i_usdc).safeTransfer */\n      0xffffffffffffffffffffffffffffffffffffffff\n      and\n      tag_192\n      swap1\n        /* \"contracts/KipuBankV3.sol\":6633:6681  IERC20(i_usdc).safeTransfer(_recipient, _amount) */\n      swap3\n      swap2\n      swap1\n      0xffffffff\n      and\n      jump\t// in\n    tag_205:\n        /* \"contracts/KipuBankV3.sol\":6697:6734  KipuBank_EmergencyWithdrawal(_amount) */\n      0xbb8f0afef873e84feb2f1167dd70a028e4f9ada114828481f03ed1255aa0f541\n        /* \"contracts/KipuBankV3.sol\":6726:6733  _amount */\n      dup3\n        /* \"contracts/KipuBankV3.sol\":6697:6734  KipuBank_EmergencyWithdrawal(_amount) */\n      mload(0x40)\n      tag_206\n      swap2\n      swap1\n      tag_35\n      jump\t// in\n    tag_206:\n      mload(0x40)\n      dup1\n      swap2\n      sub\n      swap1\n      log1\n        /* \"contracts/KipuBankV3.sol\":6537:6742  function emergencyWithdrawal(uint256 _amount, address _recipient) external onlyOwner {... */\n      pop\n      pop\n      jump\t// out\n        /* \"contracts/KipuBankV3.sol\":4496:4597  function deposit() external payable nonReentrant{... */\n    tag_84:\n        /* \"@openzeppelin/contracts/utils/ReentrancyGuard.sol\":2500:2521  _nonReentrantBefore() */\n      tag_208\n        /* \"@openzeppelin/contracts/utils/ReentrancyGuard.sol\":2500:2519  _nonReentrantBefore */\n      tag_107\n        /* \"@openzeppelin/contracts/utils/ReentrancyGuard.sol\":2500:2521  _nonReentrantBefore() */\n      jump\t// in\n    tag_208:\n        /* \"contracts/KipuBankV3.sol\":4555:4589  _depositETH(msg.sender, msg.value) */\n      tag_210\n        /* \"contracts/KipuBankV3.sol\":4567:4577  msg.sender */\n      caller\n        /* \"contracts/KipuBankV3.sol\":4579:4588  msg.value */\n      callvalue\n        /* \"contracts/KipuBankV3.sol\":4555:4566  _depositETH */\n      tag_211\n        /* \"contracts/KipuBankV3.sol\":4555:4589  _depositETH(msg.sender, msg.value) */\n      jump\t// in\n    tag_210:\n        /* \"@openzeppelin/contracts/utils/ReentrancyGuard.sol\":2542:2562  _nonReentrantAfter() */\n      tag_212\n        /* \"@openzeppelin/contracts/utils/ReentrancyGuard.sol\":2542:2560  _nonReentrantAfter */\n      tag_178\n        /* \"@openzeppelin/contracts/utils/ReentrancyGuard.sol\":2542:2562  _nonReentrantAfter() */\n      jump\t// in\n    tag_212:\n        /* \"contracts/KipuBankV3.sol\":4496:4597  function deposit() external payable nonReentrant{... */\n      jump\t// out\n        /* \"@openzeppelin/contracts/access/Ownable.sol\":2543:2758  function transferOwnership(address newOwner) public virtual onlyOwner {... */\n    tag_88:\n        /* \"@openzeppelin/contracts/access/Ownable.sol\":1531:1544  _checkOwner() */\n      tag_214\n        /* \"@openzeppelin/contracts/access/Ownable.sol\":1531:1542  _checkOwner */\n      tag_197\n        /* \"@openzeppelin/contracts/access/Ownable.sol\":1531:1544  _checkOwner() */\n      jump\t// in\n    tag_214:\n        /* \"@openzeppelin/contracts/access/Ownable.sol\":2647:2648  0 */\n      0x00\n        /* \"@openzeppelin/contracts/access/Ownable.sol\":2627:2649  newOwner == address(0) */\n      0xffffffffffffffffffffffffffffffffffffffff\n      and\n        /* \"@openzeppelin/contracts/access/Ownable.sol\":2627:2635  newOwner */\n      dup2\n        /* \"@openzeppelin/contracts/access/Ownable.sol\":2627:2649  newOwner == address(0) */\n      0xffffffffffffffffffffffffffffffffffffffff\n      and\n      sub\n        /* \"@openzeppelin/contracts/access/Ownable.sol\":2623:2714  if (newOwner == address(0)) {... */\n      tag_216\n      jumpi\n        /* \"@openzeppelin/contracts/access/Ownable.sol\":2700:2701  0 */\n      0x00\n        /* \"@openzeppelin/contracts/access/Ownable.sol\":2672:2703  OwnableInvalidOwner(address(0)) */\n      mload(0x40)\n      0x1e4fbdf700000000000000000000000000000000000000000000000000000000\n      dup2\n      mstore\n      0x04\n      add\n      tag_217\n      swap2\n      swap1\n      tag_55\n      jump\t// in\n    tag_217:\n      mload(0x40)\n      dup1\n      swap2\n      sub\n      swap1\n      revert\n        /* \"@openzeppelin/contracts/access/Ownable.sol\":2623:2714  if (newOwner == address(0)) {... */\n    tag_216:\n        /* \"@openzeppelin/contracts/access/Ownable.sol\":2723:2751  _transferOwnership(newOwner) */\n      tag_218\n        /* \"@openzeppelin/contracts/access/Ownable.sol\":2742:2750  newOwner */\n      dup2\n        /* \"@openzeppelin/contracts/access/Ownable.sol\":2723:2741  _transferOwnership */\n      tag_200\n        /* \"@openzeppelin/contracts/access/Ownable.sol\":2723:2751  _transferOwnership(newOwner) */\n      jump\t// in\n    tag_218:\n        /* \"@openzeppelin/contracts/access/Ownable.sol\":2543:2758  function transferOwnership(address newOwner) public virtual onlyOwner {... */\n      pop\n      jump\t// out\n        /* \"contracts/KipuBankV3.sol\":1300:1333  uint256 public s_totalWithdrawals */\n    tag_91:\n      sload(0x04)\n      dup2\n      jump\t// out\n        /* \"contracts/KipuBankV3.sol\":1342:1376  uint256 public immutable i_bankCap */\n    tag_95:\n      immutable(\"0xbd75987a67efb9716d5393bd2ea04eabcd14da56452f9df91c5c677e8aeed1a7\")\n      dup2\n      jump\t// out\n        /* \"contracts/KipuBankV3.sol\":1434:1464  IERC20 public immutable i_usdc */\n    tag_99:\n      immutable(\"0x0b24e851bc758cefb56b47f9e12cff3ce5289edee2e1cc4c34a4b468a11de2d1\")\n      dup2\n      jump\t// out\n        /* \"contracts/KipuBankV3.sol\":8778:8912  function _consultFounds() internal view returns (uint256 amount_) {... */\n    tag_104:\n        /* \"contracts/KipuBankV3.sol\":8827:8842  uint256 amount_ */\n      0x00\n        /* \"contracts/KipuBankV3.sol\":8872:8878  i_usdc */\n      immutable(\"0x0b24e851bc758cefb56b47f9e12cff3ce5289edee2e1cc4c34a4b468a11de2d1\")\n        /* \"contracts/KipuBankV3.sol\":8865:8889  IERC20(i_usdc).balanceOf */\n      0xffffffffffffffffffffffffffffffffffffffff\n      and\n      0x70a08231\n        /* \"contracts/KipuBankV3.sol\":8898:8902  this */\n      address\n        /* \"contracts/KipuBankV3.sol\":8865:8904  IERC20(i_usdc).balanceOf(address(this)) */\n      mload(0x40)\n      dup3\n      0xffffffff\n      and\n      0xe0\n      shl\n      dup2\n      mstore\n      0x04\n      add\n      tag_220\n      swap2\n      swap1\n      tag_55\n      jump\t// in\n    tag_220:\n      0x20\n      mload(0x40)\n      dup1\n      dup4\n      sub\n      dup2\n      dup7\n      gas\n      staticcall\n      iszero\n      dup1\n      iszero\n      tag_222\n      jumpi\n      returndatasize\n      0x00\n      dup1\n      returndatacopy\n      revert(0x00, returndatasize)\n    tag_222:\n      pop\n      pop\n      pop\n      pop\n      mload(0x40)\n      returndatasize\n      not(0x1f)\n      0x1f\n      dup3\n      add\n      and\n      dup3\n      add\n      dup1\n      0x40\n      mstore\n      pop\n      dup2\n      add\n      swap1\n      tag_223\n      swap2\n      swap1\n      tag_123\n      jump\t// in\n    tag_223:\n        /* \"contracts/KipuBankV3.sol\":8855:8904  amount_ = IERC20(i_usdc).balanceOf(address(this)) */\n      swap1\n      pop\n        /* \"contracts/KipuBankV3.sol\":8778:8912  function _consultFounds() internal view returns (uint256 amount_) {... */\n      swap1\n      jump\t// out\n        /* \"@openzeppelin/contracts/utils/ReentrancyGuard.sol\":2575:2882  function _nonReentrantBefore() private {... */\n    tag_107:\n        /* \"@openzeppelin/contracts/utils/ReentrancyGuard.sol\":1899:1900  2 */\n      0x02\n        /* \"@openzeppelin/contracts/utils/ReentrancyGuard.sol\":2702:2709  _status */\n      sload(0x01)\n        /* \"@openzeppelin/contracts/utils/ReentrancyGuard.sol\":2702:2720  _status == ENTERED */\n      sub\n        /* \"@openzeppelin/contracts/utils/ReentrancyGuard.sol\":2698:2784  if (_status == ENTERED) {... */\n      tag_225\n      jumpi\n        /* \"@openzeppelin/contracts/utils/ReentrancyGuard.sol\":2743:2773  ReentrancyGuardReentrantCall() */\n      mload(0x40)\n      0x3ee5aeb500000000000000000000000000000000000000000000000000000000\n      dup2\n      mstore\n      0x04\n      add\n      mload(0x40)\n      dup1\n      swap2\n      sub\n      swap1\n      revert\n        /* \"@openzeppelin/contracts/utils/ReentrancyGuard.sol\":2698:2784  if (_status == ENTERED) {... */\n    tag_225:\n        /* \"@openzeppelin/contracts/utils/ReentrancyGuard.sol\":1899:1900  2 */\n      0x02\n        /* \"@openzeppelin/contracts/utils/ReentrancyGuard.sol\":2858:2865  _status */\n      0x01\n        /* \"@openzeppelin/contracts/utils/ReentrancyGuard.sol\":2858:2875  _status = ENTERED */\n      dup2\n      swap1\n      sstore\n      pop\n        /* \"@openzeppelin/contracts/utils/ReentrancyGuard.sol\":2575:2882  function _nonReentrantBefore() private {... */\n      jump\t// out\n        /* \"contracts/KipuBankV3.sol\":6766:7425  function _estimateUSDCOut(address _token, uint256 _amount) internal view returns (uint256) {... */\n    tag_129:\n        /* \"contracts/KipuBankV3.sol\":6848:6855  uint256 */\n      0x00\n        /* \"contracts/KipuBankV3.sol\":6890:6896  i_usdc */\n      immutable(\"0x0b24e851bc758cefb56b47f9e12cff3ce5289edee2e1cc4c34a4b468a11de2d1\")\n        /* \"contracts/KipuBankV3.sol\":6872:6897  _token == address(i_usdc) */\n      0xffffffffffffffffffffffffffffffffffffffff\n      and\n        /* \"contracts/KipuBankV3.sol\":6872:6878  _token */\n      dup4\n        /* \"contracts/KipuBankV3.sol\":6872:6897  _token == address(i_usdc) */\n      0xffffffffffffffffffffffffffffffffffffffff\n      and\n      sub\n        /* \"contracts/KipuBankV3.sol\":6868:6913  if (_token == address(i_usdc)) return _amount */\n      tag_227\n      jumpi\n        /* \"contracts/KipuBankV3.sol\":6906:6913  _amount */\n      dup2\n        /* \"contracts/KipuBankV3.sol\":6899:6913  return _amount */\n      swap1\n      pop\n      jump(tag_226)\n        /* \"contracts/KipuBankV3.sol\":6868:6913  if (_token == address(i_usdc)) return _amount */\n    tag_227:\n        /* \"contracts/KipuBankV3.sol\":6926:6938  address pair */\n      0x00\n        /* \"contracts/KipuBankV3.sol\":6941:6955  uniswapFactory */\n      0x05\n      0x00\n      swap1\n      sload\n      swap1\n      0x0100\n      exp\n      swap1\n      div\n      0xffffffffffffffffffffffffffffffffffffffff\n      and\n        /* \"contracts/KipuBankV3.sol\":6941:6963  uniswapFactory.getPair */\n      0xffffffffffffffffffffffffffffffffffffffff\n      and\n      0xe6a43905\n        /* \"contracts/KipuBankV3.sol\":6964:6970  _token */\n      dup6\n        /* \"contracts/KipuBankV3.sol\":6980:6986  i_usdc */\n      immutable(\"0x0b24e851bc758cefb56b47f9e12cff3ce5289edee2e1cc4c34a4b468a11de2d1\")\n        /* \"contracts/KipuBankV3.sol\":6941:6988  uniswapFactory.getPair(_token, address(i_usdc)) */\n      mload(0x40)\n      dup4\n      0xffffffff\n      and\n      0xe0\n      shl\n      dup2\n      mstore\n      0x04\n      add\n      tag_228\n      swap3\n      swap2\n      swap1\n      tag_110\n      jump\t// in\n    tag_228:\n      0x20\n      mload(0x40)\n      dup1\n      dup4\n      sub\n      dup2\n      dup7\n      gas\n      staticcall\n      iszero\n      dup1\n      iszero\n      tag_230\n      jumpi\n      returndatasize\n      0x00\n      dup1\n      returndatacopy\n      revert(0x00, returndatasize)\n    tag_230:\n      pop\n      pop\n      pop\n      pop\n      mload(0x40)\n      returndatasize\n      not(0x1f)\n      0x1f\n      dup3\n      add\n      and\n      dup3\n      add\n      dup1\n      0x40\n      mstore\n      pop\n      dup2\n      add\n      swap1\n      tag_231\n      swap2\n      swap1\n      tag_114\n      jump\t// in\n    tag_231:\n        /* \"contracts/KipuBankV3.sol\":6926:6988  address pair = uniswapFactory.getPair(_token, address(i_usdc)) */\n      swap1\n      pop\n        /* \"contracts/KipuBankV3.sol\":7002:7018  uint112 reserve0 */\n      0x00\n        /* \"contracts/KipuBankV3.sol\":7020:7036  uint112 reserve1 */\n      dup1\n        /* \"contracts/KipuBankV3.sol\":7056:7060  pair */\n      dup3\n        /* \"contracts/KipuBankV3.sol\":7041:7073  IUniswapV2Pair(pair).getReserves */\n      0xffffffffffffffffffffffffffffffffffffffff\n      and\n      0x0902f1ac\n        /* \"contracts/KipuBankV3.sol\":7041:7075  IUniswapV2Pair(pair).getReserves() */\n      mload(0x40)\n      dup2\n      0xffffffff\n      and\n      0xe0\n      shl\n      dup2\n      mstore\n      0x04\n      add\n      0x60\n      mload(0x40)\n      dup1\n      dup4\n      sub\n      dup2\n      dup7\n      gas\n      staticcall\n      iszero\n      dup1\n      iszero\n      tag_233\n      jumpi\n      returndatasize\n      0x00\n      dup1\n      returndatacopy\n      revert(0x00, returndatasize)\n    tag_233:\n      pop\n      pop\n      pop\n      pop\n      mload(0x40)\n      returndatasize\n      not(0x1f)\n      0x1f\n      dup3\n      add\n      and\n      dup3\n      add\n      dup1\n      0x40\n      mstore\n      pop\n      dup2\n      add\n      swap1\n      tag_234\n      swap2\n      swap1\n      tag_235\n      jump\t// in\n    tag_234:\n        /* \"contracts/KipuBankV3.sol\":7001:7075  (uint112 reserve0, uint112 reserve1,) = IUniswapV2Pair(pair).getReserves() */\n      pop\n      swap2\n      pop\n      swap2\n      pop\n        /* \"contracts/KipuBankV3.sol\":7087:7104  uint112 reserveIn */\n      0x00\n        /* \"contracts/KipuBankV3.sol\":7106:7124  uint112 reserveOut */\n      dup1\n        /* \"contracts/KipuBankV3.sol\":7145:7151  i_usdc */\n      immutable(\"0x0b24e851bc758cefb56b47f9e12cff3ce5289edee2e1cc4c34a4b468a11de2d1\")\n        /* \"contracts/KipuBankV3.sol\":7128:7152  _token < address(i_usdc) */\n      0xffffffffffffffffffffffffffffffffffffffff\n      and\n        /* \"contracts/KipuBankV3.sol\":7128:7134  _token */\n      dup9\n        /* \"contracts/KipuBankV3.sol\":7128:7152  _token < address(i_usdc) */\n      0xffffffffffffffffffffffffffffffffffffffff\n      and\n      lt\n        /* \"contracts/KipuBankV3.sol\":7128:7198  _token < address(i_usdc) ? (reserve0, reserve1) : (reserve1, reserve0) */\n      tag_236\n      jumpi\n        /* \"contracts/KipuBankV3.sol\":7179:7187  reserve1 */\n      dup3\n        /* \"contracts/KipuBankV3.sol\":7189:7197  reserve0 */\n      dup5\n        /* \"contracts/KipuBankV3.sol\":7128:7198  _token < address(i_usdc) ? (reserve0, reserve1) : (reserve1, reserve0) */\n      jump(tag_237)\n    tag_236:\n        /* \"contracts/KipuBankV3.sol\":7156:7164  reserve0 */\n      dup4\n        /* \"contracts/KipuBankV3.sol\":7166:7174  reserve1 */\n      dup4\n        /* \"contracts/KipuBankV3.sol\":7128:7198  _token < address(i_usdc) ? (reserve0, reserve1) : (reserve1, reserve0) */\n    tag_237:\n        /* \"contracts/KipuBankV3.sol\":7086:7198  (uint112 reserveIn, uint112 reserveOut) = _token < address(i_usdc) ? (reserve0, reserve1) : (reserve1, reserve0) */\n      swap2\n      pop\n      swap2\n      pop\n        /* \"contracts/KipuBankV3.sol\":7211:7234  uint256 amountInWithFee */\n      0x00\n        /* \"contracts/KipuBankV3.sol\":7247:7250  997 */\n      0x03e5\n        /* \"contracts/KipuBankV3.sol\":7237:7244  _amount */\n      dup9\n        /* \"contracts/KipuBankV3.sol\":7237:7250  _amount * 997 */\n      tag_238\n      swap2\n      swap1\n      tag_239\n      jump\t// in\n    tag_238:\n        /* \"contracts/KipuBankV3.sol\":7211:7250  uint256 amountInWithFee = _amount * 997 */\n      swap1\n      pop\n        /* \"contracts/KipuBankV3.sol\":7261:7278  uint256 numerator */\n      0x00\n        /* \"contracts/KipuBankV3.sol\":7299:7309  reserveOut */\n      dup3\n        /* \"contracts/KipuBankV3.sol\":7281:7309  amountInWithFee * reserveOut */\n      0xffffffffffffffffffffffffffff\n      and\n        /* \"contracts/KipuBankV3.sol\":7281:7296  amountInWithFee */\n      dup3\n        /* \"contracts/KipuBankV3.sol\":7281:7309  amountInWithFee * reserveOut */\n      tag_240\n      swap2\n      swap1\n      tag_239\n      jump\t// in\n    tag_240:\n        /* \"contracts/KipuBankV3.sol\":7261:7309  uint256 numerator = amountInWithFee * reserveOut */\n      swap1\n      pop\n        /* \"contracts/KipuBankV3.sol\":7320:7339  uint256 denominator */\n      0x00\n        /* \"contracts/KipuBankV3.sol\":7361:7376  amountInWithFee */\n      dup3\n        /* \"contracts/KipuBankV3.sol\":7354:7358  1000 */\n      0x03e8\n        /* \"contracts/KipuBankV3.sol\":7342:7351  reserveIn */\n      dup7\n        /* \"contracts/KipuBankV3.sol\":7342:7358  reserveIn * 1000 */\n      tag_241\n      swap2\n      swap1\n      tag_242\n      jump\t// in\n    tag_241:\n        /* \"contracts/KipuBankV3.sol\":7342:7376  reserveIn * 1000 + amountInWithFee */\n      0xffffffffffffffffffffffffffff\n      and\n      tag_243\n      swap2\n      swap1\n      tag_135\n      jump\t// in\n    tag_243:\n        /* \"contracts/KipuBankV3.sol\":7320:7376  uint256 denominator = reserveIn * 1000 + amountInWithFee */\n      swap1\n      pop\n        /* \"contracts/KipuBankV3.sol\":7406:7417  denominator */\n      dup1\n        /* \"contracts/KipuBankV3.sol\":7394:7403  numerator */\n      dup3\n        /* \"contracts/KipuBankV3.sol\":7394:7417  numerator / denominator */\n      tag_244\n      swap2\n      swap1\n      tag_245\n      jump\t// in\n    tag_244:\n        /* \"contracts/KipuBankV3.sol\":7387:7417  return numerator / denominator */\n      swap9\n      pop\n      pop\n      pop\n      pop\n      pop\n      pop\n      pop\n      pop\n      pop\n        /* \"contracts/KipuBankV3.sol\":6766:7425  function _estimateUSDCOut(address _token, uint256 _amount) internal view returns (uint256) {... */\n    tag_226:\n      swap3\n      swap2\n      pop\n      pop\n      jump\t// out\n        /* \"@openzeppelin/contracts/token/ERC20/utils/SafeERC20.sol\":1618:1806  function safeTransferFrom(IERC20 token, address from, address to, uint256 value) internal {... */\n    tag_141:\n        /* \"@openzeppelin/contracts/token/ERC20/utils/SafeERC20.sol\":1718:1799  _callOptionalReturn(token, abi.encodeCall(token.transferFrom, (from, to, value))) */\n      tag_247\n        /* \"@openzeppelin/contracts/token/ERC20/utils/SafeERC20.sol\":1738:1743  token */\n      dup5\n        /* \"@openzeppelin/contracts/token/ERC20/utils/SafeERC20.sol\":1760:1765  token */\n      dup6\n        /* \"@openzeppelin/contracts/token/ERC20/utils/SafeERC20.sol\":1760:1778  token.transferFrom */\n      0xffffffffffffffffffffffffffffffffffffffff\n      and\n      0x23b872dd\n        /* \"@openzeppelin/contracts/token/ERC20/utils/SafeERC20.sol\":1781:1785  from */\n      dup7\n        /* \"@openzeppelin/contracts/token/ERC20/utils/SafeERC20.sol\":1787:1789  to */\n      dup7\n        /* \"@openzeppelin/contracts/token/ERC20/utils/SafeERC20.sol\":1791:1796  value */\n      dup7\n        /* \"@openzeppelin/contracts/token/ERC20/utils/SafeERC20.sol\":1745:1798  abi.encodeCall(token.transferFrom, (from, to, value)) */\n      add(0x24, mload(0x40))\n      tag_248\n      swap4\n      swap3\n      swap2\n      swap1\n      tag_249\n      jump\t// in\n    tag_248:\n      mload(0x40)\n      0x20\n      dup2\n      dup4\n      sub\n      sub\n      dup2\n      mstore\n      swap1\n      0x40\n      mstore\n      swap2\n      pop\n      0xe0\n      shl\n      0x20\n      dup3\n      add\n      dup1\n      mload\n      0xffffffffffffffffffffffffffffffffffffffffffffffffffffffff\n      dup4\n      dup2\n      dup4\n      and\n      or\n      dup4\n      mstore\n      pop\n      pop\n      pop\n      pop\n        /* \"@openzeppelin/contracts/token/ERC20/utils/SafeERC20.sol\":1718:1737  _callOptionalReturn */\n      tag_250\n        /* \"@openzeppelin/contracts/token/ERC20/utils/SafeERC20.sol\":1718:1799  _callOptionalReturn(token, abi.encodeCall(token.transferFrom, (from, to, value))) */\n      jump\t// in\n    tag_247:\n        /* \"@openzeppelin/contracts/token/ERC20/utils/SafeERC20.sol\":1618:1806  function safeTransferFrom(IERC20 token, address from, address to, uint256 value) internal {... */\n      pop\n      pop\n      pop\n      pop\n      jump\t// out\n        /* \"contracts/KipuBankV3.sol\":8540:8754  function _actualizeOperations(bool isDeposit, address token) private{... */\n    tag_174:\n        /* \"contracts/KipuBankV3.sol\":8622:8631  isDeposit */\n      dup2\n        /* \"contracts/KipuBankV3.sol\":8619:8747  if(isDeposit){... */\n      iszero\n      tag_252\n      jumpi\n        /* \"contracts/KipuBankV3.sol\":8680:8681  1 */\n      0x01\n        /* \"contracts/KipuBankV3.sol\":8647:8669  s_totalDepositsByToken */\n      0x03\n        /* \"contracts/KipuBankV3.sol\":8647:8676  s_totalDepositsByToken[token] */\n      0x00\n        /* \"contracts/KipuBankV3.sol\":8670:8675  token */\n      dup4\n        /* \"contracts/KipuBankV3.sol\":8647:8676  s_totalDepositsByToken[token] */\n      0xffffffffffffffffffffffffffffffffffffffff\n      and\n      0xffffffffffffffffffffffffffffffffffffffff\n      and\n      dup2\n      mstore\n      0x20\n      add\n      swap1\n      dup2\n      mstore\n      0x20\n      add\n      0x00\n      keccak256\n      0x00\n        /* \"contracts/KipuBankV3.sol\":8647:8681  s_totalDepositsByToken[token] += 1 */\n      dup3\n      dup3\n      sload\n      tag_253\n      swap2\n      swap1\n      tag_135\n      jump\t// in\n    tag_253:\n      swap3\n      pop\n      pop\n      dup2\n      swap1\n      sstore\n      pop\n        /* \"contracts/KipuBankV3.sol\":8619:8747  if(isDeposit){... */\n      jump(tag_254)\n    tag_252:\n        /* \"contracts/KipuBankV3.sol\":8734:8735  1 */\n      0x01\n        /* \"contracts/KipuBankV3.sol\":8712:8730  s_totalWithdrawals */\n      0x04\n      0x00\n        /* \"contracts/KipuBankV3.sol\":8712:8735  s_totalWithdrawals += 1 */\n      dup3\n      dup3\n      sload\n      tag_255\n      swap2\n      swap1\n      tag_135\n      jump\t// in\n    tag_255:\n      swap3\n      pop\n      pop\n      dup2\n      swap1\n      sstore\n      pop\n        /* \"contracts/KipuBankV3.sol\":8619:8747  if(isDeposit){... */\n    tag_254:\n        /* \"contracts/KipuBankV3.sol\":8540:8754  function _actualizeOperations(bool isDeposit, address token) private{... */\n      pop\n      pop\n      jump\t// out\n        /* \"@openzeppelin/contracts/utils/ReentrancyGuard.sol\":2888:3096  function _nonReentrantAfter() private {... */\n    tag_178:\n        /* \"@openzeppelin/contracts/utils/ReentrancyGuard.sol\":1857:1858  1 */\n      0x01\n        /* \"@openzeppelin/contracts/utils/ReentrancyGuard.sol\":3068:3075  _status */\n      dup1\n        /* \"@openzeppelin/contracts/utils/ReentrancyGuard.sol\":3068:3089  _status = NOT_ENTERED */\n      dup2\n      swap1\n      sstore\n      pop\n        /* \"@openzeppelin/contracts/utils/ReentrancyGuard.sol\":2888:3096  function _nonReentrantAfter() private {... */\n      jump\t// out\n        /* \"@openzeppelin/contracts/token/ERC20/utils/SafeERC20.sol\":1219:1379  function safeTransfer(IERC20 token, address to, uint256 value) internal {... */\n    tag_192:\n        /* \"@openzeppelin/contracts/token/ERC20/utils/SafeERC20.sol\":1301:1372  _callOptionalReturn(token, abi.encodeCall(token.transfer, (to, value))) */\n      tag_258\n        /* \"@openzeppelin/contracts/token/ERC20/utils/SafeERC20.sol\":1321:1326  token */\n      dup4\n        /* \"@openzeppelin/contracts/token/ERC20/utils/SafeERC20.sol\":1343:1348  token */\n      dup5\n        /* \"@openzeppelin/contracts/token/ERC20/utils/SafeERC20.sol\":1343:1357  token.transfer */\n      0xffffffffffffffffffffffffffffffffffffffff\n      and\n      0xa9059cbb\n        /* \"@openzeppelin/contracts/token/ERC20/utils/SafeERC20.sol\":1360:1362  to */\n      dup6\n        /* \"@openzeppelin/contracts/token/ERC20/utils/SafeERC20.sol\":1364:1369  value */\n      dup6\n        /* \"@openzeppelin/contracts/token/ERC20/utils/SafeERC20.sol\":1328:1371  abi.encodeCall(token.transfer, (to, value)) */\n      add(0x24, mload(0x40))\n      tag_259\n      swap3\n      swap2\n      swap1\n      tag_176\n      jump\t// in\n    tag_259:\n      mload(0x40)\n      0x20\n      dup2\n      dup4\n      sub\n      sub\n      dup2\n      mstore\n      swap1\n      0x40\n      mstore\n      swap2\n      pop\n      0xe0\n      shl\n      0x20\n      dup3\n      add\n      dup1\n      mload\n      0xffffffffffffffffffffffffffffffffffffffffffffffffffffffff\n      dup4\n      dup2\n      dup4\n      and\n      or\n      dup4\n      mstore\n      pop\n      pop\n      pop\n      pop\n        /* \"@openzeppelin/contracts/token/ERC20/utils/SafeERC20.sol\":1301:1320  _callOptionalReturn */\n      tag_250\n        /* \"@openzeppelin/contracts/token/ERC20/utils/SafeERC20.sol\":1301:1372  _callOptionalReturn(token, abi.encodeCall(token.transfer, (to, value))) */\n      jump\t// in\n    tag_258:\n        /* \"@openzeppelin/contracts/token/ERC20/utils/SafeERC20.sol\":1219:1379  function safeTransfer(IERC20 token, address to, uint256 value) internal {... */\n      pop\n      pop\n      pop\n      jump\t// out\n        /* \"@openzeppelin/contracts/access/Ownable.sol\":1796:1958  function _checkOwner() internal view virtual {... */\n    tag_197:\n        /* \"@openzeppelin/contracts/access/Ownable.sol\":1866:1878  _msgSender() */\n      tag_261\n        /* \"@openzeppelin/contracts/access/Ownable.sol\":1866:1876  _msgSender */\n      tag_262\n        /* \"@openzeppelin/contracts/access/Ownable.sol\":1866:1878  _msgSender() */\n      jump\t// in\n    tag_261:\n        /* \"@openzeppelin/contracts/access/Ownable.sol\":1855:1878  owner() != _msgSender() */\n      0xffffffffffffffffffffffffffffffffffffffff\n      and\n        /* \"@openzeppelin/contracts/access/Ownable.sol\":1855:1862  owner() */\n      tag_263\n        /* \"@openzeppelin/contracts/access/Ownable.sol\":1855:1860  owner */\n      tag_76\n        /* \"@openzeppelin/contracts/access/Ownable.sol\":1855:1862  owner() */\n      jump\t// in\n    tag_263:\n        /* \"@openzeppelin/contracts/access/Ownable.sol\":1855:1878  owner() != _msgSender() */\n      0xffffffffffffffffffffffffffffffffffffffff\n      and\n      eq\n        /* \"@openzeppelin/contracts/access/Ownable.sol\":1851:1952  if (owner() != _msgSender()) {... */\n      tag_264\n      jumpi\n        /* \"@openzeppelin/contracts/access/Ownable.sol\":1928:1940  _msgSender() */\n      tag_265\n        /* \"@openzeppelin/contracts/access/Ownable.sol\":1928:1938  _msgSender */\n      tag_262\n        /* \"@openzeppelin/contracts/access/Ownable.sol\":1928:1940  _msgSender() */\n      jump\t// in\n    tag_265:\n        /* \"@openzeppelin/contracts/access/Ownable.sol\":1901:1941  OwnableUnauthorizedAccount(_msgSender()) */\n      mload(0x40)\n      0x118cdaa700000000000000000000000000000000000000000000000000000000\n      dup2\n      mstore\n      0x04\n      add\n      tag_266\n      swap2\n      swap1\n      tag_55\n      jump\t// in\n    tag_266:\n      mload(0x40)\n      dup1\n      swap2\n      sub\n      swap1\n      revert\n        /* \"@openzeppelin/contracts/access/Ownable.sol\":1851:1952  if (owner() != _msgSender()) {... */\n    tag_264:\n        /* \"@openzeppelin/contracts/access/Ownable.sol\":1796:1958  function _checkOwner() internal view virtual {... */\n      jump\t// out\n        /* \"@openzeppelin/contracts/access/Ownable.sol\":2912:3099  function _transferOwnership(address newOwner) internal virtual {... */\n    tag_200:\n        /* \"@openzeppelin/contracts/access/Ownable.sol\":2985:3001  address oldOwner */\n      0x00\n        /* \"@openzeppelin/contracts/access/Ownable.sol\":3004:3010  _owner */\n      dup1\n      0x00\n      swap1\n      sload\n      swap1\n      0x0100\n      exp\n      swap1\n      div\n      0xffffffffffffffffffffffffffffffffffffffff\n      and\n        /* \"@openzeppelin/contracts/access/Ownable.sol\":2985:3010  address oldOwner = _owner */\n      swap1\n      pop\n        /* \"@openzeppelin/contracts/access/Ownable.sol\":3029:3037  newOwner */\n      dup2\n        /* \"@openzeppelin/contracts/access/Ownable.sol\":3020:3026  _owner */\n      0x00\n      dup1\n        /* \"@openzeppelin/contracts/access/Ownable.sol\":3020:3037  _owner = newOwner */\n      0x0100\n      exp\n      dup2\n      sload\n      dup2\n      0xffffffffffffffffffffffffffffffffffffffff\n      mul\n      not\n      and\n      swap1\n      dup4\n      0xffffffffffffffffffffffffffffffffffffffff\n      and\n      mul\n      or\n      swap1\n      sstore\n      pop\n        /* \"@openzeppelin/contracts/access/Ownable.sol\":3083:3091  newOwner */\n      dup2\n        /* \"@openzeppelin/contracts/access/Ownable.sol\":3052:3092  OwnershipTransferred(oldOwner, newOwner) */\n      0xffffffffffffffffffffffffffffffffffffffff\n      and\n        /* \"@openzeppelin/contracts/access/Ownable.sol\":3073:3081  oldOwner */\n      dup2\n        /* \"@openzeppelin/contracts/access/Ownable.sol\":3052:3092  OwnershipTransferred(oldOwner, newOwner) */\n      0xffffffffffffffffffffffffffffffffffffffff\n      and\n      0x8be0079c531659141344cd1fd0a4f28419497f9722a3daafe3b4186f6b6457e0\n      mload(0x40)\n      mload(0x40)\n      dup1\n      swap2\n      sub\n      swap1\n      log3\n        /* \"@openzeppelin/contracts/access/Ownable.sol\":2975:3099  {... */\n      pop\n        /* \"@openzeppelin/contracts/access/Ownable.sol\":2912:3099  function _transferOwnership(address newOwner) internal virtual {... */\n      pop\n      jump\t// out\n        /* \"contracts/KipuBankV3.sol\":7450:8532  function _depositETH(address _sender, uint256 _amountIn) private _areFundsExceeded(address(0), _amountIn) {... */\n    tag_211:\n        /* \"contracts/KipuBankV3.sol\":7541:7542  0 */\n      0x00\n        /* \"contracts/KipuBankV3.sol\":7545:7554  _amountIn */\n      dup2\n        /* \"contracts/KipuBankV3.sol\":2846:2866  uint256 amountInUSDC */\n      0x00\n        /* \"contracts/KipuBankV3.sol\":2869:2902  _estimateUSDCOut(_token, _amount) */\n      tag_269\n        /* \"contracts/KipuBankV3.sol\":2886:2892  _token */\n      dup4\n        /* \"contracts/KipuBankV3.sol\":2894:2901  _amount */\n      dup4\n        /* \"contracts/KipuBankV3.sol\":2869:2885  _estimateUSDCOut */\n      tag_129\n        /* \"contracts/KipuBankV3.sol\":2869:2902  _estimateUSDCOut(_token, _amount) */\n      jump\t// in\n    tag_269:\n        /* \"contracts/KipuBankV3.sol\":2846:2902  uint256 amountInUSDC = _estimateUSDCOut(_token, _amount) */\n      swap1\n      pop\n        /* \"contracts/KipuBankV3.sol\":2971:2980  i_bankCap */\n      immutable(\"0xbd75987a67efb9716d5393bd2ea04eabcd14da56452f9df91c5c677e8aeed1a7\")\n        /* \"contracts/KipuBankV3.sol\":2956:2968  amountInUSDC */\n      dup2\n        /* \"contracts/KipuBankV3.sol\":2921:2927  i_usdc */\n      immutable(\"0x0b24e851bc758cefb56b47f9e12cff3ce5289edee2e1cc4c34a4b468a11de2d1\")\n        /* \"contracts/KipuBankV3.sol\":2914:2938  IERC20(i_usdc).balanceOf */\n      0xffffffffffffffffffffffffffffffffffffffff\n      and\n      0x70a08231\n        /* \"contracts/KipuBankV3.sol\":2947:2951  this */\n      address\n        /* \"contracts/KipuBankV3.sol\":2914:2953  IERC20(i_usdc).balanceOf(address(this)) */\n      mload(0x40)\n      dup3\n      0xffffffff\n      and\n      0xe0\n      shl\n      dup2\n      mstore\n      0x04\n      add\n      tag_270\n      swap2\n      swap1\n      tag_55\n      jump\t// in\n    tag_270:\n      0x20\n      mload(0x40)\n      dup1\n      dup4\n      sub\n      dup2\n      dup7\n      gas\n      staticcall\n      iszero\n      dup1\n      iszero\n      tag_272\n      jumpi\n      returndatasize\n      0x00\n      dup1\n      returndatacopy\n      revert(0x00, returndatasize)\n    tag_272:\n      pop\n      pop\n      pop\n      pop\n      mload(0x40)\n      returndatasize\n      not(0x1f)\n      0x1f\n      dup3\n      add\n      and\n      dup3\n      add\n      dup1\n      0x40\n      mstore\n      pop\n      dup2\n      add\n      swap1\n      tag_273\n      swap2\n      swap1\n      tag_123\n      jump\t// in\n    tag_273:\n        /* \"contracts/KipuBankV3.sol\":2914:2968  IERC20(i_usdc).balanceOf(address(this)) + amountInUSDC */\n      tag_274\n      swap2\n      swap1\n      tag_135\n      jump\t// in\n    tag_274:\n        /* \"contracts/KipuBankV3.sol\":2914:2980  IERC20(i_usdc).balanceOf(address(this)) + amountInUSDC > i_bankCap */\n      gt\n        /* \"contracts/KipuBankV3.sol\":2910:3065  if (IERC20(i_usdc).balanceOf(address(this)) + amountInUSDC > i_bankCap) {... */\n      iszero\n      tag_275\n      jumpi\n        /* \"contracts/KipuBankV3.sol\":3000:3057  KipuBank_FailedDeposit(\"Total KipuBank's funds exceeded\") */\n      mload(0x40)\n      0xa2d2e1b200000000000000000000000000000000000000000000000000000000\n      dup2\n      mstore\n      0x04\n      add\n      tag_276\n      swap1\n      tag_138\n      jump\t// in\n    tag_276:\n      mload(0x40)\n      dup1\n      swap2\n      sub\n      swap1\n      revert\n        /* \"contracts/KipuBankV3.sol\":2910:3065  if (IERC20(i_usdc).balanceOf(address(this)) + amountInUSDC > i_bankCap) {... */\n    tag_275:\n        /* \"contracts/KipuBankV3.sol\":7567:7588  uint256 beforeBalance */\n      0x00\n        /* \"contracts/KipuBankV3.sol\":7598:7604  i_usdc */\n      immutable(\"0x0b24e851bc758cefb56b47f9e12cff3ce5289edee2e1cc4c34a4b468a11de2d1\")\n        /* \"contracts/KipuBankV3.sol\":7591:7615  IERC20(i_usdc).balanceOf */\n      0xffffffffffffffffffffffffffffffffffffffff\n      and\n      0x70a08231\n        /* \"contracts/KipuBankV3.sol\":7624:7628  this */\n      address\n        /* \"contracts/KipuBankV3.sol\":7591:7630  IERC20(i_usdc).balanceOf(address(this)) */\n      mload(0x40)\n      dup3\n      0xffffffff\n      and\n      0xe0\n      shl\n      dup2\n      mstore\n      0x04\n      add\n      tag_278\n      swap2\n      swap1\n      tag_55\n      jump\t// in\n    tag_278:\n      0x20\n      mload(0x40)\n      dup1\n      dup4\n      sub\n      dup2\n      dup7\n      gas\n      staticcall\n      iszero\n      dup1\n      iszero\n      tag_280\n      jumpi\n      returndatasize\n      0x00\n      dup1\n      returndatacopy\n      revert(0x00, returndatasize)\n    tag_280:\n      pop\n      pop\n      pop\n      pop\n      mload(0x40)\n      returndatasize\n      not(0x1f)\n      0x1f\n      dup3\n      add\n      and\n      dup3\n      add\n      dup1\n      0x40\n      mstore\n      pop\n      dup2\n      add\n      swap1\n      tag_281\n      swap2\n      swap1\n      tag_123\n      jump\t// in\n    tag_281:\n        /* \"contracts/KipuBankV3.sol\":7567:7630  uint256 beforeBalance = IERC20(i_usdc).balanceOf(address(this)) */\n      swap1\n      pop\n        /* \"contracts/KipuBankV3.sol\":7651:7672  uint256 _amountMinOut */\n      0x00\n        /* \"contracts/KipuBankV3.sol\":7675:7710  _estimateUSDCOut(i_weth, _amountIn) */\n      tag_282\n        /* \"contracts/KipuBankV3.sol\":7692:7698  i_weth */\n      immutable(\"0x25f9e8aeae9c2ffb4081060f1a62aa0739d35380589299578ccc29b3c3a0654e\")\n        /* \"contracts/KipuBankV3.sol\":7700:7709  _amountIn */\n      dup8\n        /* \"contracts/KipuBankV3.sol\":7675:7691  _estimateUSDCOut */\n      tag_129\n        /* \"contracts/KipuBankV3.sol\":7675:7710  _estimateUSDCOut(i_weth, _amountIn) */\n      jump\t// in\n    tag_282:\n        /* \"contracts/KipuBankV3.sol\":7651:7710  uint256 _amountMinOut = _estimateUSDCOut(i_weth, _amountIn) */\n      swap1\n      pop\n        /* \"contracts/KipuBankV3.sol\":7760:7763  100 */\n      0x64\n        /* \"contracts/KipuBankV3.sol\":7754:7756  99 */\n      0x63\n        /* \"contracts/KipuBankV3.sol\":7738:7751  _amountMinOut */\n      dup3\n        /* \"contracts/KipuBankV3.sol\":7738:7756  _amountMinOut * 99 */\n      tag_283\n      swap2\n      swap1\n      tag_239\n      jump\t// in\n    tag_283:\n        /* \"contracts/KipuBankV3.sol\":7737:7763  (_amountMinOut * 99) / 100 */\n      tag_284\n      swap2\n      swap1\n      tag_245\n      jump\t// in\n    tag_284:\n        /* \"contracts/KipuBankV3.sol\":7721:7763  _amountMinOut = (_amountMinOut * 99) / 100 */\n      swap1\n      pop\n        /* \"contracts/KipuBankV3.sol\":7776:7797  address[] memory path */\n      0x00\n        /* \"contracts/KipuBankV3.sol\":7814:7815  2 */\n      0x02\n        /* \"contracts/KipuBankV3.sol\":7800:7816  new address[](2) */\n      0xffffffffffffffff\n      dup2\n      gt\n      iszero\n      tag_285\n      jumpi\n      tag_286\n      tag_149\n      jump\t// in\n    tag_286:\n    tag_285:\n      mload(0x40)\n      swap1\n      dup1\n      dup3\n      mstore\n      dup1\n      0x20\n      mul\n      0x20\n      add\n      dup3\n      add\n      0x40\n      mstore\n      dup1\n      iszero\n      tag_287\n      jumpi\n      dup2\n      0x20\n      add\n      0x20\n      dup3\n      mul\n      dup1\n      calldatasize\n      dup4\n      calldatacopy\n      dup1\n      dup3\n      add\n      swap2\n      pop\n      pop\n      swap1\n      pop\n    tag_287:\n      pop\n        /* \"contracts/KipuBankV3.sol\":7776:7816  address[] memory path = new address[](2) */\n      swap1\n      pop\n        /* \"contracts/KipuBankV3.sol\":7837:7843  i_weth */\n      immutable(\"0x25f9e8aeae9c2ffb4081060f1a62aa0739d35380589299578ccc29b3c3a0654e\")\n        /* \"contracts/KipuBankV3.sol\":7827:7831  path */\n      dup2\n        /* \"contracts/KipuBankV3.sol\":7832:7833  0 */\n      0x00\n        /* \"contracts/KipuBankV3.sol\":7827:7834  path[0] */\n      dup2\n      mload\n      dup2\n      lt\n      tag_288\n      jumpi\n      tag_289\n      tag_153\n      jump\t// in\n    tag_289:\n    tag_288:\n      0x20\n      mul\n      0x20\n      add\n      add\n        /* \"contracts/KipuBankV3.sol\":7827:7843  path[0] = i_weth */\n      swap1\n      0xffffffffffffffffffffffffffffffffffffffff\n      and\n      swap1\n      dup2\n      0xffffffffffffffffffffffffffffffffffffffff\n      and\n      dup2\n      mstore\n      pop\n      pop\n        /* \"contracts/KipuBankV3.sol\":7872:7878  i_usdc */\n      immutable(\"0x0b24e851bc758cefb56b47f9e12cff3ce5289edee2e1cc4c34a4b468a11de2d1\")\n        /* \"contracts/KipuBankV3.sol\":7854:7858  path */\n      dup2\n        /* \"contracts/KipuBankV3.sol\":7859:7860  1 */\n      0x01\n        /* \"contracts/KipuBankV3.sol\":7854:7861  path[1] */\n      dup2\n      mload\n      dup2\n      lt\n      tag_290\n      jumpi\n      tag_291\n      tag_153\n      jump\t// in\n    tag_291:\n    tag_290:\n      0x20\n      mul\n      0x20\n      add\n      add\n        /* \"contracts/KipuBankV3.sol\":7854:7879  path[1] = address(i_usdc) */\n      swap1\n      0xffffffffffffffffffffffffffffffffffffffff\n      and\n      swap1\n      dup2\n      0xffffffffffffffffffffffffffffffffffffffff\n      and\n      dup2\n      mstore\n      pop\n      pop\n        /* \"contracts/KipuBankV3.sol\":7892:7905  uniswapRouter */\n      immutable(\"0xda956e91f77b4bd5547e59f2b47cb1a55b9b750d737784777a0ec1d41d783cd2\")\n        /* \"contracts/KipuBankV3.sol\":7892:7956  uniswapRouter.swapExactETHForTokensSupportingFeeOnTransferTokens */\n      0xffffffffffffffffffffffffffffffffffffffff\n      and\n      0xb6f9de95\n        /* \"contracts/KipuBankV3.sol\":7965:7974  _amountIn */\n      dup9\n        /* \"contracts/KipuBankV3.sol\":7991:8004  _amountMinOut */\n      dup5\n        /* \"contracts/KipuBankV3.sol\":8019:8023  path */\n      dup5\n        /* \"contracts/KipuBankV3.sol\":8046:8050  this */\n      address\n        /* \"contracts/KipuBankV3.sol\":8084:8087  300 */\n      0x012c\n        /* \"contracts/KipuBankV3.sol\":8066:8081  block.timestamp */\n      timestamp\n        /* \"contracts/KipuBankV3.sol\":8066:8087  block.timestamp + 300 */\n      tag_292\n      swap2\n      swap1\n      tag_135\n      jump\t// in\n    tag_292:\n        /* \"contracts/KipuBankV3.sol\":7892:8098  uniswapRouter.swapExactETHForTokensSupportingFeeOnTransferTokens{ value: _amountIn }(... */\n      mload(0x40)\n      dup7\n      0xffffffff\n      and\n      0xe0\n      shl\n      dup2\n      mstore\n      0x04\n      add\n      tag_293\n      swap5\n      swap4\n      swap3\n      swap2\n      swap1\n      tag_294\n      jump\t// in\n    tag_293:\n      0x00\n      mload(0x40)\n      dup1\n      dup4\n      sub\n      dup2\n      dup6\n      dup9\n      dup1\n      extcodesize\n      iszero\n      dup1\n      iszero\n      tag_295\n      jumpi\n      0x00\n      dup1\n      revert\n    tag_295:\n      pop\n      gas\n      call\n      iszero\n      dup1\n      iszero\n      tag_297\n      jumpi\n      returndatasize\n      0x00\n      dup1\n      returndatacopy\n      revert(0x00, returndatasize)\n    tag_297:\n      pop\n      pop\n      pop\n      pop\n      pop\n        /* \"contracts/KipuBankV3.sol\":8111:8131  uint256 afterBalance */\n      0x00\n        /* \"contracts/KipuBankV3.sol\":8141:8147  i_usdc */\n      immutable(\"0x0b24e851bc758cefb56b47f9e12cff3ce5289edee2e1cc4c34a4b468a11de2d1\")\n        /* \"contracts/KipuBankV3.sol\":8134:8158  IERC20(i_usdc).balanceOf */\n      0xffffffffffffffffffffffffffffffffffffffff\n      and\n      0x70a08231\n        /* \"contracts/KipuBankV3.sol\":8167:8171  this */\n      address\n        /* \"contracts/KipuBankV3.sol\":8134:8173  IERC20(i_usdc).balanceOf(address(this)) */\n      mload(0x40)\n      dup3\n      0xffffffff\n      and\n      0xe0\n      shl\n      dup2\n      mstore\n      0x04\n      add\n      tag_298\n      swap2\n      swap1\n      tag_55\n      jump\t// in\n    tag_298:\n      0x20\n      mload(0x40)\n      dup1\n      dup4\n      sub\n      dup2\n      dup7\n      gas\n      staticcall\n      iszero\n      dup1\n      iszero\n      tag_300\n      jumpi\n      returndatasize\n      0x00\n      dup1\n      returndatacopy\n      revert(0x00, returndatasize)\n    tag_300:\n      pop\n      pop\n      pop\n      pop\n      mload(0x40)\n      returndatasize\n      not(0x1f)\n      0x1f\n      dup3\n      add\n      and\n      dup3\n      add\n      dup1\n      0x40\n      mstore\n      pop\n      dup2\n      add\n      swap1\n      tag_301\n      swap2\n      swap1\n      tag_123\n      jump\t// in\n    tag_301:\n        /* \"contracts/KipuBankV3.sol\":8111:8173  uint256 afterBalance = IERC20(i_usdc).balanceOf(address(this)) */\n      swap1\n      pop\n        /* \"contracts/KipuBankV3.sol\":8184:8204  uint256 usdcReceived */\n      0x00\n        /* \"contracts/KipuBankV3.sol\":8222:8235  beforeBalance */\n      dup5\n        /* \"contracts/KipuBankV3.sol\":8207:8219  afterBalance */\n      dup3\n        /* \"contracts/KipuBankV3.sol\":8207:8235  afterBalance - beforeBalance */\n      tag_302\n      swap2\n      swap1\n      tag_167\n      jump\t// in\n    tag_302:\n        /* \"contracts/KipuBankV3.sol\":8184:8235  uint256 usdcReceived = afterBalance - beforeBalance */\n      swap1\n      pop\n        /* \"contracts/KipuBankV3.sol\":8290:8299  i_bankCap */\n      immutable(\"0xbd75987a67efb9716d5393bd2ea04eabcd14da56452f9df91c5c677e8aeed1a7\")\n        /* \"contracts/KipuBankV3.sol\":8275:8287  usdcReceived */\n      dup2\n        /* \"contracts/KipuBankV3.sol\":8259:8272  beforeBalance */\n      dup7\n        /* \"contracts/KipuBankV3.sol\":8259:8287  beforeBalance + usdcReceived */\n      tag_303\n      swap2\n      swap1\n      tag_135\n      jump\t// in\n    tag_303:\n        /* \"contracts/KipuBankV3.sol\":8259:8299  beforeBalance + usdcReceived > i_bankCap */\n      gt\n        /* \"contracts/KipuBankV3.sol\":8256:8365  if(beforeBalance + usdcReceived > i_bankCap) revert KipuBank_FailedDeposit(\"Total KipuBank's funds exceeded\") */\n      iszero\n      tag_304\n      jumpi\n        /* \"contracts/KipuBankV3.sol\":8308:8365  KipuBank_FailedDeposit(\"Total KipuBank's funds exceeded\") */\n      mload(0x40)\n      0xa2d2e1b200000000000000000000000000000000000000000000000000000000\n      dup2\n      mstore\n      0x04\n      add\n      tag_305\n      swap1\n      tag_138\n      jump\t// in\n    tag_305:\n      mload(0x40)\n      dup1\n      swap2\n      sub\n      swap1\n      revert\n        /* \"contracts/KipuBankV3.sol\":8256:8365  if(beforeBalance + usdcReceived > i_bankCap) revert KipuBank_FailedDeposit(\"Total KipuBank's funds exceeded\") */\n    tag_304:\n        /* \"contracts/KipuBankV3.sol\":8402:8414  usdcReceived */\n      dup1\n        /* \"contracts/KipuBankV3.sol\":8379:8389  s_balances */\n      0x02\n        /* \"contracts/KipuBankV3.sol\":8379:8398  s_balances[_sender] */\n      0x00\n        /* \"contracts/KipuBankV3.sol\":8390:8397  _sender */\n      dup13\n        /* \"contracts/KipuBankV3.sol\":8379:8398  s_balances[_sender] */\n      0xffffffffffffffffffffffffffffffffffffffff\n      and\n      0xffffffffffffffffffffffffffffffffffffffff\n      and\n      dup2\n      mstore\n      0x20\n      add\n      swap1\n      dup2\n      mstore\n      0x20\n      add\n      0x00\n      keccak256\n      0x00\n        /* \"contracts/KipuBankV3.sol\":8379:8414  s_balances[_sender] += usdcReceived */\n      dup3\n      dup3\n      sload\n      tag_306\n      swap2\n      swap1\n      tag_135\n      jump\t// in\n    tag_306:\n      swap3\n      pop\n      pop\n      dup2\n      swap1\n      sstore\n      pop\n        /* \"contracts/KipuBankV3.sol\":8425:8459  _actualizeOperations(true, i_weth) */\n      tag_307\n        /* \"contracts/KipuBankV3.sol\":8446:8450  true */\n      0x01\n        /* \"contracts/KipuBankV3.sol\":8452:8458  i_weth */\n      immutable(\"0x25f9e8aeae9c2ffb4081060f1a62aa0739d35380589299578ccc29b3c3a0654e\")\n        /* \"contracts/KipuBankV3.sol\":8425:8445  _actualizeOperations */\n      tag_174\n        /* \"contracts/KipuBankV3.sol\":8425:8459  _actualizeOperations(true, i_weth) */\n      jump\t// in\n    tag_307:\n        /* \"contracts/KipuBankV3.sol\":8475:8524  KipuBank_SuccessfulDeposit(_sender, usdcReceived) */\n      0x7b7cd0ddbbea241880e825e1eb51c30752cb96dd7efeb4be691ec55dfa4d8963\n        /* \"contracts/KipuBankV3.sol\":8502:8509  _sender */\n      dup11\n        /* \"contracts/KipuBankV3.sol\":8511:8523  usdcReceived */\n      dup3\n        /* \"contracts/KipuBankV3.sol\":8475:8524  KipuBank_SuccessfulDeposit(_sender, usdcReceived) */\n      mload(0x40)\n      tag_308\n      swap3\n      swap2\n      swap1\n      tag_176\n      jump\t// in\n    tag_308:\n      mload(0x40)\n      dup1\n      swap2\n      sub\n      swap1\n      log1\n        /* \"contracts/KipuBankV3.sol\":7556:8532  {... */\n      pop\n      pop\n      pop\n      pop\n      pop\n        /* \"contracts/KipuBankV3.sol\":2839:3076  {... */\n      pop\n        /* \"contracts/KipuBankV3.sol\":7450:8532  function _depositETH(address _sender, uint256 _amountIn) private _areFundsExceeded(address(0), _amountIn) {... */\n      pop\n      pop\n      pop\n      pop\n      jump\t// out\n        /* \"@openzeppelin/contracts/token/ERC20/utils/SafeERC20.sol\":8370:9090  function _callOptionalReturn(IERC20 token, bytes memory data) private {... */\n    tag_250:\n        /* \"@openzeppelin/contracts/token/ERC20/utils/SafeERC20.sol\":8450:8468  uint256 returnSize */\n      0x00\n        /* \"@openzeppelin/contracts/token/ERC20/utils/SafeERC20.sol\":8478:8497  uint256 returnValue */\n      dup1\n        /* \"@openzeppelin/contracts/token/ERC20/utils/SafeERC20.sol\":8616:8620  0x20 */\n      0x20\n        /* \"@openzeppelin/contracts/token/ERC20/utils/SafeERC20.sol\":8613:8614  0 */\n      0x00\n        /* \"@openzeppelin/contracts/token/ERC20/utils/SafeERC20.sol\":8606:8610  data */\n      dup5\n        /* \"@openzeppelin/contracts/token/ERC20/utils/SafeERC20.sol\":8600:8611  mload(data) */\n      mload\n        /* \"@openzeppelin/contracts/token/ERC20/utils/SafeERC20.sol\":8593:8597  0x20 */\n      0x20\n        /* \"@openzeppelin/contracts/token/ERC20/utils/SafeERC20.sol\":8587:8591  data */\n      dup7\n        /* \"@openzeppelin/contracts/token/ERC20/utils/SafeERC20.sol\":8583:8598  add(data, 0x20) */\n      add\n        /* \"@openzeppelin/contracts/token/ERC20/utils/SafeERC20.sol\":8580:8581  0 */\n      0x00\n        /* \"@openzeppelin/contracts/token/ERC20/utils/SafeERC20.sol\":8573:8578  token */\n      dup9\n        /* \"@openzeppelin/contracts/token/ERC20/utils/SafeERC20.sol\":8566:8571  gas() */\n      gas\n        /* \"@openzeppelin/contracts/token/ERC20/utils/SafeERC20.sol\":8561:8621  call(gas(), token, 0, add(data, 0x20), mload(data), 0, 0x20) */\n      call\n        /* \"@openzeppelin/contracts/token/ERC20/utils/SafeERC20.sol\":8673:8680  success */\n      dup1\n        /* \"@openzeppelin/contracts/token/ERC20/utils/SafeERC20.sol\":8663:8839  if iszero(success) {... */\n      tag_310\n      jumpi\n        /* \"@openzeppelin/contracts/token/ERC20/utils/SafeERC20.sol\":8717:8721  0x40 */\n      0x40\n        /* \"@openzeppelin/contracts/token/ERC20/utils/SafeERC20.sol\":8711:8722  mload(0x40) */\n      mload\n        /* \"@openzeppelin/contracts/token/ERC20/utils/SafeERC20.sol\":8762:8778  returndatasize() */\n      returndatasize\n        /* \"@openzeppelin/contracts/token/ERC20/utils/SafeERC20.sol\":8759:8760  0 */\n      0x00\n        /* \"@openzeppelin/contracts/token/ERC20/utils/SafeERC20.sol\":8754:8757  ptr */\n      dup3\n        /* \"@openzeppelin/contracts/token/ERC20/utils/SafeERC20.sol\":8739:8779  returndatacopy(ptr, 0, returndatasize()) */\n      returndatacopy\n        /* \"@openzeppelin/contracts/token/ERC20/utils/SafeERC20.sol\":8808:8824  returndatasize() */\n      returndatasize\n        /* \"@openzeppelin/contracts/token/ERC20/utils/SafeERC20.sol\":8803:8806  ptr */\n      dup2\n        /* \"@openzeppelin/contracts/token/ERC20/utils/SafeERC20.sol\":8796:8825  revert(ptr, returndatasize()) */\n      revert\n        /* \"@openzeppelin/contracts/token/ERC20/utils/SafeERC20.sol\":8663:8839  if iszero(success) {... */\n    tag_310:\n        /* \"@openzeppelin/contracts/token/ERC20/utils/SafeERC20.sol\":8866:8882  returndatasize() */\n      returndatasize\n        /* \"@openzeppelin/contracts/token/ERC20/utils/SafeERC20.sol\":8852:8882  returnSize := returndatasize() */\n      swap3\n      pop\n        /* \"@openzeppelin/contracts/token/ERC20/utils/SafeERC20.sol\":8916:8917  0 */\n      0x00\n        /* \"@openzeppelin/contracts/token/ERC20/utils/SafeERC20.sol\":8910:8918  mload(0) */\n      mload\n        /* \"@openzeppelin/contracts/token/ERC20/utils/SafeERC20.sol\":8895:8918  returnValue := mload(0) */\n      swap2\n      pop\n        /* \"@openzeppelin/contracts/token/ERC20/utils/SafeERC20.sol\":8532:8928  {... */\n      pop\n        /* \"@openzeppelin/contracts/token/ERC20/utils/SafeERC20.sol\":8956:8957  0 */\n      0x00\n        /* \"@openzeppelin/contracts/token/ERC20/utils/SafeERC20.sol\":8942:8952  returnSize */\n      dup3\n        /* \"@openzeppelin/contracts/token/ERC20/utils/SafeERC20.sol\":8942:8957  returnSize == 0 */\n      eq\n        /* \"@openzeppelin/contracts/token/ERC20/utils/SafeERC20.sol\":8942:9010  returnSize == 0 ? address(token).code.length == 0 : returnValue != 1 */\n      tag_311\n      jumpi\n        /* \"@openzeppelin/contracts/token/ERC20/utils/SafeERC20.sol\":9009:9010  1 */\n      0x01\n        /* \"@openzeppelin/contracts/token/ERC20/utils/SafeERC20.sol\":8994:9005  returnValue */\n      dup2\n        /* \"@openzeppelin/contracts/token/ERC20/utils/SafeERC20.sol\":8994:9010  returnValue != 1 */\n      eq\n      iszero\n        /* \"@openzeppelin/contracts/token/ERC20/utils/SafeERC20.sol\":8942:9010  returnSize == 0 ? address(token).code.length == 0 : returnValue != 1 */\n      jump(tag_312)\n    tag_311:\n        /* \"@openzeppelin/contracts/token/ERC20/utils/SafeERC20.sol\":8990:8991  0 */\n      0x00\n        /* \"@openzeppelin/contracts/token/ERC20/utils/SafeERC20.sol\":8968:8973  token */\n      dup5\n        /* \"@openzeppelin/contracts/token/ERC20/utils/SafeERC20.sol\":8960:8986  address(token).code.length */\n      0xffffffffffffffffffffffffffffffffffffffff\n      and\n      extcodesize\n        /* \"@openzeppelin/contracts/token/ERC20/utils/SafeERC20.sol\":8960:8991  address(token).code.length == 0 */\n      eq\n        /* \"@openzeppelin/contracts/token/ERC20/utils/SafeERC20.sol\":8942:9010  returnSize == 0 ? address(token).code.length == 0 : returnValue != 1 */\n    tag_312:\n        /* \"@openzeppelin/contracts/token/ERC20/utils/SafeERC20.sol\":8938:9084  if (returnSize == 0 ? address(token).code.length == 0 : returnValue != 1) {... */\n      iszero\n      tag_313\n      jumpi\n        /* \"@openzeppelin/contracts/token/ERC20/utils/SafeERC20.sol\":9066:9071  token */\n      dup4\n        /* \"@openzeppelin/contracts/token/ERC20/utils/SafeERC20.sol\":9033:9073  SafeERC20FailedOperation(address(token)) */\n      mload(0x40)\n      0x5274afe700000000000000000000000000000000000000000000000000000000\n      dup2\n      mstore\n      0x04\n      add\n      tag_314\n      swap2\n      swap1\n      tag_55\n      jump\t// in\n    tag_314:\n      mload(0x40)\n      dup1\n      swap2\n      sub\n      swap1\n      revert\n        /* \"@openzeppelin/contracts/token/ERC20/utils/SafeERC20.sol\":8938:9084  if (returnSize == 0 ? address(token).code.length == 0 : returnValue != 1) {... */\n    tag_313:\n        /* \"@openzeppelin/contracts/token/ERC20/utils/SafeERC20.sol\":8440:9090  {... */\n      pop\n      pop\n        /* \"@openzeppelin/contracts/token/ERC20/utils/SafeERC20.sol\":8370:9090  function _callOptionalReturn(IERC20 token, bytes memory data) private {... */\n      pop\n      pop\n      jump\t// out\n        /* \"@openzeppelin/contracts/utils/Context.sol\":656:752  function _msgSender() internal view virtual returns (address) {... */\n    tag_262:\n        /* \"@openzeppelin/contracts/utils/Context.sol\":709:716  address */\n      0x00\n        /* \"@openzeppelin/contracts/utils/Context.sol\":735:745  msg.sender */\n      caller\n        /* \"@openzeppelin/contracts/utils/Context.sol\":728:745  return msg.sender */\n      swap1\n      pop\n        /* \"@openzeppelin/contracts/utils/Context.sol\":656:752  function _msgSender() internal view virtual returns (address) {... */\n      swap1\n      jump\t// out\n        /* \"#utility.yul\":7:175   */\n    tag_316:\n        /* \"#utility.yul\":90:101   */\n      0x00\n        /* \"#utility.yul\":124:130   */\n      dup3\n        /* \"#utility.yul\":119:122   */\n      dup3\n        /* \"#utility.yul\":112:131   */\n      mstore\n        /* \"#utility.yul\":164:168   */\n      0x20\n        /* \"#utility.yul\":159:162   */\n      dup3\n        /* \"#utility.yul\":155:169   */\n      add\n        /* \"#utility.yul\":140:169   */\n      swap1\n      pop\n        /* \"#utility.yul\":7:175   */\n      swap3\n      swap2\n      pop\n      pop\n      jump\t// out\n        /* \"#utility.yul\":181:358   */\n    tag_317:\n        /* \"#utility.yul\":321:350   */\n      0x557365206465706f73697420666f7220455448206465706f7369740000000000\n        /* \"#utility.yul\":317:318   */\n      0x00\n        /* \"#utility.yul\":309:315   */\n      dup3\n        /* \"#utility.yul\":305:319   */\n      add\n        /* \"#utility.yul\":298:351   */\n      mstore\n        /* \"#utility.yul\":181:358   */\n      pop\n      jump\t// out\n        /* \"#utility.yul\":364:728   */\n    tag_318:\n        /* \"#utility.yul\":505:508   */\n      0x00\n        /* \"#utility.yul\":526:592   */\n      tag_371\n        /* \"#utility.yul\":589:591   */\n      0x1b\n        /* \"#utility.yul\":584:587   */\n      dup4\n        /* \"#utility.yul\":526:592   */\n      tag_316\n      jump\t// in\n    tag_371:\n        /* \"#utility.yul\":519:592   */\n      swap2\n      pop\n        /* \"#utility.yul\":601:694   */\n      tag_372\n        /* \"#utility.yul\":690:693   */\n      dup3\n        /* \"#utility.yul\":601:694   */\n      tag_317\n      jump\t// in\n    tag_372:\n        /* \"#utility.yul\":719:721   */\n      0x20\n        /* \"#utility.yul\":714:717   */\n      dup3\n        /* \"#utility.yul\":710:722   */\n      add\n        /* \"#utility.yul\":703:722   */\n      swap1\n      pop\n        /* \"#utility.yul\":364:728   */\n      swap2\n      swap1\n      pop\n      jump\t// out\n        /* \"#utility.yul\":734:1151   */\n    tag_25:\n        /* \"#utility.yul\":899:903   */\n      0x00\n        /* \"#utility.yul\":937:939   */\n      0x20\n        /* \"#utility.yul\":926:935   */\n      dup3\n        /* \"#utility.yul\":922:940   */\n      add\n        /* \"#utility.yul\":914:940   */\n      swap1\n      pop\n        /* \"#utility.yul\":986:995   */\n      dup2\n        /* \"#utility.yul\":980:984   */\n      dup2\n        /* \"#utility.yul\":976:996   */\n      sub\n        /* \"#utility.yul\":972:973   */\n      0x00\n        /* \"#utility.yul\":961:970   */\n      dup4\n        /* \"#utility.yul\":957:974   */\n      add\n        /* \"#utility.yul\":950:997   */\n      mstore\n        /* \"#utility.yul\":1014:1144   */\n      tag_374\n        /* \"#utility.yul\":1139:1143   */\n      dup2\n        /* \"#utility.yul\":1014:1144   */\n      tag_318\n      jump\t// in\n    tag_374:\n        /* \"#utility.yul\":1006:1144   */\n      swap1\n      pop\n        /* \"#utility.yul\":734:1151   */\n      swap2\n      swap1\n      pop\n      jump\t// out\n        /* \"#utility.yul\":1157:1391   */\n    tag_319:\n        /* \"#utility.yul\":1297:1331   */\n      0x4f7065726174696f6e20646f6573206e6f7420657869737473206f7220646174\n        /* \"#utility.yul\":1293:1294   */\n      0x00\n        /* \"#utility.yul\":1285:1291   */\n      dup3\n        /* \"#utility.yul\":1281:1295   */\n      add\n        /* \"#utility.yul\":1274:1332   */\n      mstore\n        /* \"#utility.yul\":1366:1383   */\n      0x612077617320696e636f72726563740000000000000000000000000000000000\n        /* \"#utility.yul\":1361:1363   */\n      0x20\n        /* \"#utility.yul\":1353:1359   */\n      dup3\n        /* \"#utility.yul\":1349:1364   */\n      add\n        /* \"#utility.yul\":1342:1384   */\n      mstore\n        /* \"#utility.yul\":1157:1391   */\n      pop\n      jump\t// out\n        /* \"#utility.yul\":1397:1761   */\n    tag_320:\n        /* \"#utility.yul\":1538:1541   */\n      0x00\n        /* \"#utility.yul\":1559:1625   */\n      tag_377\n        /* \"#utility.yul\":1622:1624   */\n      0x2f\n        /* \"#utility.yul\":1617:1620   */\n      dup4\n        /* \"#utility.yul\":1559:1625   */\n      tag_316\n      jump\t// in\n    tag_377:\n        /* \"#utility.yul\":1552:1625   */\n      swap2\n      pop\n        /* \"#utility.yul\":1634:1727   */\n      tag_378\n        /* \"#utility.yul\":1723:1726   */\n      dup3\n        /* \"#utility.yul\":1634:1727   */\n      tag_319\n      jump\t// in\n    tag_378:\n        /* \"#utility.yul\":1752:1754   */\n      0x40\n        /* \"#utility.yul\":1747:1750   */\n      dup3\n        /* \"#utility.yul\":1743:1755   */\n      add\n        /* \"#utility.yul\":1736:1755   */\n      swap1\n      pop\n        /* \"#utility.yul\":1397:1761   */\n      swap2\n      swap1\n      pop\n      jump\t// out\n        /* \"#utility.yul\":1767:2184   */\n    tag_30:\n        /* \"#utility.yul\":1932:1936   */\n      0x00\n        /* \"#utility.yul\":1970:1972   */\n      0x20\n        /* \"#utility.yul\":1959:1968   */\n      dup3\n        /* \"#utility.yul\":1955:1973   */\n      add\n        /* \"#utility.yul\":1947:1973   */\n      swap1\n      pop\n        /* \"#utility.yul\":2019:2028   */\n      dup2\n        /* \"#utility.yul\":2013:2017   */\n      dup2\n        /* \"#utility.yul\":2009:2029   */\n      sub\n        /* \"#utility.yul\":2005:2006   */\n      0x00\n        /* \"#utility.yul\":1994:2003   */\n      dup4\n        /* \"#utility.yul\":1990:2007   */\n      add\n        /* \"#utility.yul\":1983:2030   */\n      mstore\n        /* \"#utility.yul\":2047:2177   */\n      tag_380\n        /* \"#utility.yul\":2172:2176   */\n      dup2\n        /* \"#utility.yul\":2047:2177   */\n      tag_320\n      jump\t// in\n    tag_380:\n        /* \"#utility.yul\":2039:2177   */\n      swap1\n      pop\n        /* \"#utility.yul\":1767:2184   */\n      swap2\n      swap1\n      pop\n      jump\t// out\n        /* \"#utility.yul\":2190:2267   */\n    tag_321:\n        /* \"#utility.yul\":2227:2234   */\n      0x00\n        /* \"#utility.yul\":2256:2261   */\n      dup2\n        /* \"#utility.yul\":2245:2261   */\n      swap1\n      pop\n        /* \"#utility.yul\":2190:2267   */\n      swap2\n      swap1\n      pop\n      jump\t// out\n        /* \"#utility.yul\":2273:2391   */\n    tag_322:\n        /* \"#utility.yul\":2360:2384   */\n      tag_383\n        /* \"#utility.yul\":2378:2383   */\n      dup2\n        /* \"#utility.yul\":2360:2384   */\n      tag_321\n      jump\t// in\n    tag_383:\n        /* \"#utility.yul\":2355:2358   */\n      dup3\n        /* \"#utility.yul\":2348:2385   */\n      mstore\n        /* \"#utility.yul\":2273:2391   */\n      pop\n      pop\n      jump\t// out\n        /* \"#utility.yul\":2397:2619   */\n    tag_35:\n        /* \"#utility.yul\":2490:2494   */\n      0x00\n        /* \"#utility.yul\":2528:2530   */\n      0x20\n        /* \"#utility.yul\":2517:2526   */\n      dup3\n        /* \"#utility.yul\":2513:2531   */\n      add\n        /* \"#utility.yul\":2505:2531   */\n      swap1\n      pop\n        /* \"#utility.yul\":2541:2612   */\n      tag_385\n        /* \"#utility.yul\":2609:2610   */\n      0x00\n        /* \"#utility.yul\":2598:2607   */\n      dup4\n        /* \"#utility.yul\":2594:2611   */\n      add\n        /* \"#utility.yul\":2585:2591   */\n      dup5\n        /* \"#utility.yul\":2541:2612   */\n      tag_322\n      jump\t// in\n    tag_385:\n        /* \"#utility.yul\":2397:2619   */\n      swap3\n      swap2\n      pop\n      pop\n      jump\t// out\n        /* \"#utility.yul\":2706:2823   */\n    tag_324:\n        /* \"#utility.yul\":2815:2816   */\n      0x00\n        /* \"#utility.yul\":2812:2813   */\n      dup1\n        /* \"#utility.yul\":2805:2817   */\n      revert\n        /* \"#utility.yul\":2952:3078   */\n    tag_326:\n        /* \"#utility.yul\":2989:2996   */\n      0x00\n        /* \"#utility.yul\":3029:3071   */\n      0xffffffffffffffffffffffffffffffffffffffff\n        /* \"#utility.yul\":3022:3027   */\n      dup3\n        /* \"#utility.yul\":3018:3072   */\n      and\n        /* \"#utility.yul\":3007:3072   */\n      swap1\n      pop\n        /* \"#utility.yul\":2952:3078   */\n      swap2\n      swap1\n      pop\n      jump\t// out\n        /* \"#utility.yul\":3084:3180   */\n    tag_327:\n        /* \"#utility.yul\":3121:3128   */\n      0x00\n        /* \"#utility.yul\":3150:3174   */\n      tag_391\n        /* \"#utility.yul\":3168:3173   */\n      dup3\n        /* \"#utility.yul\":3150:3174   */\n      tag_326\n      jump\t// in\n    tag_391:\n        /* \"#utility.yul\":3139:3174   */\n      swap1\n      pop\n        /* \"#utility.yul\":3084:3180   */\n      swap2\n      swap1\n      pop\n      jump\t// out\n        /* \"#utility.yul\":3186:3308   */\n    tag_328:\n        /* \"#utility.yul\":3259:3283   */\n      tag_393\n        /* \"#utility.yul\":3277:3282   */\n      dup2\n        /* \"#utility.yul\":3259:3283   */\n      tag_327\n      jump\t// in\n    tag_393:\n        /* \"#utility.yul\":3252:3257   */\n      dup2\n        /* \"#utility.yul\":3249:3284   */\n      eq\n        /* \"#utility.yul\":3239:3302   */\n      tag_394\n      jumpi\n        /* \"#utility.yul\":3298:3299   */\n      0x00\n        /* \"#utility.yul\":3295:3296   */\n      dup1\n        /* \"#utility.yul\":3288:3300   */\n      revert\n        /* \"#utility.yul\":3239:3302   */\n    tag_394:\n        /* \"#utility.yul\":3186:3308   */\n      pop\n      jump\t// out\n        /* \"#utility.yul\":3314:3453   */\n    tag_329:\n        /* \"#utility.yul\":3360:3365   */\n      0x00\n        /* \"#utility.yul\":3398:3404   */\n      dup2\n        /* \"#utility.yul\":3385:3405   */\n      calldataload\n        /* \"#utility.yul\":3376:3405   */\n      swap1\n      pop\n        /* \"#utility.yul\":3414:3447   */\n      tag_396\n        /* \"#utility.yul\":3441:3446   */\n      dup2\n        /* \"#utility.yul\":3414:3447   */\n      tag_328\n      jump\t// in\n    tag_396:\n        /* \"#utility.yul\":3314:3453   */\n      swap3\n      swap2\n      pop\n      pop\n      jump\t// out\n        /* \"#utility.yul\":3459:3581   */\n    tag_330:\n        /* \"#utility.yul\":3532:3556   */\n      tag_398\n        /* \"#utility.yul\":3550:3555   */\n      dup2\n        /* \"#utility.yul\":3532:3556   */\n      tag_321\n      jump\t// in\n    tag_398:\n        /* \"#utility.yul\":3525:3530   */\n      dup2\n        /* \"#utility.yul\":3522:3557   */\n      eq\n        /* \"#utility.yul\":3512:3575   */\n      tag_399\n      jumpi\n        /* \"#utility.yul\":3571:3572   */\n      0x00\n        /* \"#utility.yul\":3568:3569   */\n      dup1\n        /* \"#utility.yul\":3561:3573   */\n      revert\n        /* \"#utility.yul\":3512:3575   */\n    tag_399:\n        /* \"#utility.yul\":3459:3581   */\n      pop\n      jump\t// out\n        /* \"#utility.yul\":3587:3726   */\n    tag_331:\n        /* \"#utility.yul\":3633:3638   */\n      0x00\n        /* \"#utility.yul\":3671:3677   */\n      dup2\n        /* \"#utility.yul\":3658:3678   */\n      calldataload\n        /* \"#utility.yul\":3649:3678   */\n      swap1\n      pop\n        /* \"#utility.yul\":3687:3720   */\n      tag_401\n        /* \"#utility.yul\":3714:3719   */\n      dup2\n        /* \"#utility.yul\":3687:3720   */\n      tag_330\n      jump\t// in\n    tag_401:\n        /* \"#utility.yul\":3587:3726   */\n      swap3\n      swap2\n      pop\n      pop\n      jump\t// out\n        /* \"#utility.yul\":3732:4351   */\n    tag_43:\n        /* \"#utility.yul\":3809:3815   */\n      0x00\n        /* \"#utility.yul\":3817:3823   */\n      dup1\n        /* \"#utility.yul\":3825:3831   */\n      0x00\n        /* \"#utility.yul\":3874:3876   */\n      0x60\n        /* \"#utility.yul\":3862:3871   */\n      dup5\n        /* \"#utility.yul\":3853:3860   */\n      dup7\n        /* \"#utility.yul\":3849:3872   */\n      sub\n        /* \"#utility.yul\":3845:3877   */\n      slt\n        /* \"#utility.yul\":3842:3961   */\n      iszero\n      tag_403\n      jumpi\n        /* \"#utility.yul\":3880:3959   */\n      tag_404\n      tag_324\n      jump\t// in\n    tag_404:\n        /* \"#utility.yul\":3842:3961   */\n    tag_403:\n        /* \"#utility.yul\":4000:4001   */\n      0x00\n        /* \"#utility.yul\":4025:4078   */\n      tag_405\n        /* \"#utility.yul\":4070:4077   */\n      dup7\n        /* \"#utility.yul\":4061:4067   */\n      dup3\n        /* \"#utility.yul\":4050:4059   */\n      dup8\n        /* \"#utility.yul\":4046:4068   */\n      add\n        /* \"#utility.yul\":4025:4078   */\n      tag_329\n      jump\t// in\n    tag_405:\n        /* \"#utility.yul\":4015:4078   */\n      swap4\n      pop\n        /* \"#utility.yul\":3971:4088   */\n      pop\n        /* \"#utility.yul\":4127:4129   */\n      0x20\n        /* \"#utility.yul\":4153:4206   */\n      tag_406\n        /* \"#utility.yul\":4198:4205   */\n      dup7\n        /* \"#utility.yul\":4189:4195   */\n      dup3\n        /* \"#utility.yul\":4178:4187   */\n      dup8\n        /* \"#utility.yul\":4174:4196   */\n      add\n        /* \"#utility.yul\":4153:4206   */\n      tag_331\n      jump\t// in\n    tag_406:\n        /* \"#utility.yul\":4143:4206   */\n      swap3\n      pop\n        /* \"#utility.yul\":4098:4216   */\n      pop\n        /* \"#utility.yul\":4255:4257   */\n      0x40\n        /* \"#utility.yul\":4281:4334   */\n      tag_407\n        /* \"#utility.yul\":4326:4333   */\n      dup7\n        /* \"#utility.yul\":4317:4323   */\n      dup3\n        /* \"#utility.yul\":4306:4315   */\n      dup8\n        /* \"#utility.yul\":4302:4324   */\n      add\n        /* \"#utility.yul\":4281:4334   */\n      tag_331\n      jump\t// in\n    tag_407:\n        /* \"#utility.yul\":4271:4334   */\n      swap2\n      pop\n        /* \"#utility.yul\":4226:4344   */\n      pop\n        /* \"#utility.yul\":3732:4351   */\n      swap3\n      pop\n      swap3\n      pop\n      swap3\n      jump\t// out\n        /* \"#utility.yul\":4357:4686   */\n    tag_48:\n        /* \"#utility.yul\":4416:4422   */\n      0x00\n        /* \"#utility.yul\":4465:4467   */\n      0x20\n        /* \"#utility.yul\":4453:4462   */\n      dup3\n        /* \"#utility.yul\":4444:4451   */\n      dup5\n        /* \"#utility.yul\":4440:4463   */\n      sub\n        /* \"#utility.yul\":4436:4468   */\n      slt\n        /* \"#utility.yul\":4433:4552   */\n      iszero\n      tag_409\n      jumpi\n        /* \"#utility.yul\":4471:4550   */\n      tag_410\n      tag_324\n      jump\t// in\n    tag_410:\n        /* \"#utility.yul\":4433:4552   */\n    tag_409:\n        /* \"#utility.yul\":4591:4592   */\n      0x00\n        /* \"#utility.yul\":4616:4669   */\n      tag_411\n        /* \"#utility.yul\":4661:4668   */\n      dup5\n        /* \"#utility.yul\":4652:4658   */\n      dup3\n        /* \"#utility.yul\":4641:4650   */\n      dup6\n        /* \"#utility.yul\":4637:4659   */\n      add\n        /* \"#utility.yul\":4616:4669   */\n      tag_329\n      jump\t// in\n    tag_411:\n        /* \"#utility.yul\":4606:4669   */\n      swap2\n      pop\n        /* \"#utility.yul\":4562:4679   */\n      pop\n        /* \"#utility.yul\":4357:4686   */\n      swap3\n      swap2\n      pop\n      pop\n      jump\t// out\n        /* \"#utility.yul\":4692:4810   */\n    tag_332:\n        /* \"#utility.yul\":4779:4803   */\n      tag_413\n        /* \"#utility.yul\":4797:4802   */\n      dup2\n        /* \"#utility.yul\":4779:4803   */\n      tag_327\n      jump\t// in\n    tag_413:\n        /* \"#utility.yul\":4774:4777   */\n      dup3\n        /* \"#utility.yul\":4767:4804   */\n      mstore\n        /* \"#utility.yul\":4692:4810   */\n      pop\n      pop\n      jump\t// out\n        /* \"#utility.yul\":4816:5038   */\n    tag_55:\n        /* \"#utility.yul\":4909:4913   */\n      0x00\n        /* \"#utility.yul\":4947:4949   */\n      0x20\n        /* \"#utility.yul\":4936:4945   */\n      dup3\n        /* \"#utility.yul\":4932:4950   */\n      add\n        /* \"#utility.yul\":4924:4950   */\n      swap1\n      pop\n        /* \"#utility.yul\":4960:5031   */\n      tag_415\n        /* \"#utility.yul\":5028:5029   */\n      0x00\n        /* \"#utility.yul\":5017:5026   */\n      dup4\n        /* \"#utility.yul\":5013:5030   */\n      add\n        /* \"#utility.yul\":5004:5010   */\n      dup5\n        /* \"#utility.yul\":4960:5031   */\n      tag_332\n      jump\t// in\n    tag_415:\n        /* \"#utility.yul\":4816:5038   */\n      swap3\n      swap2\n      pop\n      pop\n      jump\t// out\n        /* \"#utility.yul\":5044:5373   */\n    tag_59:\n        /* \"#utility.yul\":5103:5109   */\n      0x00\n        /* \"#utility.yul\":5152:5154   */\n      0x20\n        /* \"#utility.yul\":5140:5149   */\n      dup3\n        /* \"#utility.yul\":5131:5138   */\n      dup5\n        /* \"#utility.yul\":5127:5150   */\n      sub\n        /* \"#utility.yul\":5123:5155   */\n      slt\n        /* \"#utility.yul\":5120:5239   */\n      iszero\n      tag_417\n      jumpi\n        /* \"#utility.yul\":5158:5237   */\n      tag_418\n      tag_324\n      jump\t// in\n    tag_418:\n        /* \"#utility.yul\":5120:5239   */\n    tag_417:\n        /* \"#utility.yul\":5278:5279   */\n      0x00\n        /* \"#utility.yul\":5303:5356   */\n      tag_419\n        /* \"#utility.yul\":5348:5355   */\n      dup5\n        /* \"#utility.yul\":5339:5345   */\n      dup3\n        /* \"#utility.yul\":5328:5337   */\n      dup6\n        /* \"#utility.yul\":5324:5346   */\n      add\n        /* \"#utility.yul\":5303:5356   */\n      tag_331\n      jump\t// in\n    tag_419:\n        /* \"#utility.yul\":5293:5356   */\n      swap2\n      pop\n        /* \"#utility.yul\":5249:5366   */\n      pop\n        /* \"#utility.yul\":5044:5373   */\n      swap3\n      swap2\n      pop\n      pop\n      jump\t// out\n        /* \"#utility.yul\":5379:5439   */\n    tag_333:\n        /* \"#utility.yul\":5407:5410   */\n      0x00\n        /* \"#utility.yul\":5428:5433   */\n      dup2\n        /* \"#utility.yul\":5421:5433   */\n      swap1\n      pop\n        /* \"#utility.yul\":5379:5439   */\n      swap2\n      swap1\n      pop\n      jump\t// out\n        /* \"#utility.yul\":5445:5587   */\n    tag_334:\n        /* \"#utility.yul\":5495:5504   */\n      0x00\n        /* \"#utility.yul\":5528:5581   */\n      tag_422\n        /* \"#utility.yul\":5546:5580   */\n      tag_423\n        /* \"#utility.yul\":5555:5579   */\n      tag_424\n        /* \"#utility.yul\":5573:5578   */\n      dup5\n        /* \"#utility.yul\":5555:5579   */\n      tag_326\n      jump\t// in\n    tag_424:\n        /* \"#utility.yul\":5546:5580   */\n      tag_333\n      jump\t// in\n    tag_423:\n        /* \"#utility.yul\":5528:5581   */\n      tag_326\n      jump\t// in\n    tag_422:\n        /* \"#utility.yul\":5515:5581   */\n      swap1\n      pop\n        /* \"#utility.yul\":5445:5587   */\n      swap2\n      swap1\n      pop\n      jump\t// out\n        /* \"#utility.yul\":5593:5719   */\n    tag_335:\n        /* \"#utility.yul\":5643:5652   */\n      0x00\n        /* \"#utility.yul\":5676:5713   */\n      tag_426\n        /* \"#utility.yul\":5707:5712   */\n      dup3\n        /* \"#utility.yul\":5676:5713   */\n      tag_334\n      jump\t// in\n    tag_426:\n        /* \"#utility.yul\":5663:5713   */\n      swap1\n      pop\n        /* \"#utility.yul\":5593:5719   */\n      swap2\n      swap1\n      pop\n      jump\t// out\n        /* \"#utility.yul\":5725:5878   */\n    tag_336:\n        /* \"#utility.yul\":5802:5811   */\n      0x00\n        /* \"#utility.yul\":5835:5872   */\n      tag_428\n        /* \"#utility.yul\":5866:5871   */\n      dup3\n        /* \"#utility.yul\":5835:5872   */\n      tag_335\n      jump\t// in\n    tag_428:\n        /* \"#utility.yul\":5822:5872   */\n      swap1\n      pop\n        /* \"#utility.yul\":5725:5878   */\n      swap2\n      swap1\n      pop\n      jump\t// out\n        /* \"#utility.yul\":5884:6069   */\n    tag_337:\n        /* \"#utility.yul\":5998:6062   */\n      tag_430\n        /* \"#utility.yul\":6056:6061   */\n      dup2\n        /* \"#utility.yul\":5998:6062   */\n      tag_336\n      jump\t// in\n    tag_430:\n        /* \"#utility.yul\":5993:5996   */\n      dup3\n        /* \"#utility.yul\":5986:6063   */\n      mstore\n        /* \"#utility.yul\":5884:6069   */\n      pop\n      pop\n      jump\t// out\n        /* \"#utility.yul\":6075:6351   */\n    tag_68:\n        /* \"#utility.yul\":6195:6199   */\n      0x00\n        /* \"#utility.yul\":6233:6235   */\n      0x20\n        /* \"#utility.yul\":6222:6231   */\n      dup3\n        /* \"#utility.yul\":6218:6236   */\n      add\n        /* \"#utility.yul\":6210:6236   */\n      swap1\n      pop\n        /* \"#utility.yul\":6246:6344   */\n      tag_432\n        /* \"#utility.yul\":6341:6342   */\n      0x00\n        /* \"#utility.yul\":6330:6339   */\n      dup4\n        /* \"#utility.yul\":6326:6343   */\n      add\n        /* \"#utility.yul\":6317:6323   */\n      dup5\n        /* \"#utility.yul\":6246:6344   */\n      tag_337\n      jump\t// in\n    tag_432:\n        /* \"#utility.yul\":6075:6351   */\n      swap3\n      swap2\n      pop\n      pop\n      jump\t// out\n        /* \"#utility.yul\":6357:6508   */\n    tag_338:\n        /* \"#utility.yul\":6432:6441   */\n      0x00\n        /* \"#utility.yul\":6465:6502   */\n      tag_434\n        /* \"#utility.yul\":6496:6501   */\n      dup3\n        /* \"#utility.yul\":6465:6502   */\n      tag_335\n      jump\t// in\n    tag_434:\n        /* \"#utility.yul\":6452:6502   */\n      swap1\n      pop\n        /* \"#utility.yul\":6357:6508   */\n      swap2\n      swap1\n      pop\n      jump\t// out\n        /* \"#utility.yul\":6514:6695   */\n    tag_339:\n        /* \"#utility.yul\":6626:6688   */\n      tag_436\n        /* \"#utility.yul\":6682:6687   */\n      dup2\n        /* \"#utility.yul\":6626:6688   */\n      tag_338\n      jump\t// in\n    tag_436:\n        /* \"#utility.yul\":6621:6624   */\n      dup3\n        /* \"#utility.yul\":6614:6689   */\n      mstore\n        /* \"#utility.yul\":6514:6695   */\n      pop\n      pop\n      jump\t// out\n        /* \"#utility.yul\":6701:6973   */\n    tag_73:\n        /* \"#utility.yul\":6819:6823   */\n      0x00\n        /* \"#utility.yul\":6857:6859   */\n      0x20\n        /* \"#utility.yul\":6846:6855   */\n      dup3\n        /* \"#utility.yul\":6842:6860   */\n      add\n        /* \"#utility.yul\":6834:6860   */\n      swap1\n      pop\n        /* \"#utility.yul\":6870:6966   */\n      tag_438\n        /* \"#utility.yul\":6963:6964   */\n      0x00\n        /* \"#utility.yul\":6952:6961   */\n      dup4\n        /* \"#utility.yul\":6948:6965   */\n      add\n        /* \"#utility.yul\":6939:6945   */\n      dup5\n        /* \"#utility.yul\":6870:6966   */\n      tag_339\n      jump\t// in\n    tag_438:\n        /* \"#utility.yul\":6701:6973   */\n      swap3\n      swap2\n      pop\n      pop\n      jump\t// out\n        /* \"#utility.yul\":6979:7453   */\n    tag_81:\n        /* \"#utility.yul\":7047:7053   */\n      0x00\n        /* \"#utility.yul\":7055:7061   */\n      dup1\n        /* \"#utility.yul\":7104:7106   */\n      0x40\n        /* \"#utility.yul\":7092:7101   */\n      dup4\n        /* \"#utility.yul\":7083:7090   */\n      dup6\n        /* \"#utility.yul\":7079:7102   */\n      sub\n        /* \"#utility.yul\":7075:7107   */\n      slt\n        /* \"#utility.yul\":7072:7191   */\n      iszero\n      tag_440\n      jumpi\n        /* \"#utility.yul\":7110:7189   */\n      tag_441\n      tag_324\n      jump\t// in\n    tag_441:\n        /* \"#utility.yul\":7072:7191   */\n    tag_440:\n        /* \"#utility.yul\":7230:7231   */\n      0x00\n        /* \"#utility.yul\":7255:7308   */\n      tag_442\n        /* \"#utility.yul\":7300:7307   */\n      dup6\n        /* \"#utility.yul\":7291:7297   */\n      dup3\n        /* \"#utility.yul\":7280:7289   */\n      dup7\n        /* \"#utility.yul\":7276:7298   */\n      add\n        /* \"#utility.yul\":7255:7308   */\n      tag_331\n      jump\t// in\n    tag_442:\n        /* \"#utility.yul\":7245:7308   */\n      swap3\n      pop\n        /* \"#utility.yul\":7201:7318   */\n      pop\n        /* \"#utility.yul\":7357:7359   */\n      0x20\n        /* \"#utility.yul\":7383:7436   */\n      tag_443\n        /* \"#utility.yul\":7428:7435   */\n      dup6\n        /* \"#utility.yul\":7419:7425   */\n      dup3\n        /* \"#utility.yul\":7408:7417   */\n      dup7\n        /* \"#utility.yul\":7404:7426   */\n      add\n        /* \"#utility.yul\":7383:7436   */\n      tag_329\n      jump\t// in\n    tag_443:\n        /* \"#utility.yul\":7373:7436   */\n      swap2\n      pop\n        /* \"#utility.yul\":7328:7446   */\n      pop\n        /* \"#utility.yul\":6979:7453   */\n      swap3\n      pop\n      swap3\n      swap1\n      pop\n      jump\t// out\n        /* \"#utility.yul\":7459:7599   */\n    tag_340:\n        /* \"#utility.yul\":7523:7532   */\n      0x00\n        /* \"#utility.yul\":7556:7593   */\n      tag_445\n        /* \"#utility.yul\":7587:7592   */\n      dup3\n        /* \"#utility.yul\":7556:7593   */\n      tag_335\n      jump\t// in\n    tag_445:\n        /* \"#utility.yul\":7543:7593   */\n      swap1\n      pop\n        /* \"#utility.yul\":7459:7599   */\n      swap2\n      swap1\n      pop\n      jump\t// out\n        /* \"#utility.yul\":7605:7764   */\n    tag_341:\n        /* \"#utility.yul\":7706:7757   */\n      tag_447\n        /* \"#utility.yul\":7751:7756   */\n      dup2\n        /* \"#utility.yul\":7706:7757   */\n      tag_340\n      jump\t// in\n    tag_447:\n        /* \"#utility.yul\":7701:7704   */\n      dup3\n        /* \"#utility.yul\":7694:7758   */\n      mstore\n        /* \"#utility.yul\":7605:7764   */\n      pop\n      pop\n      jump\t// out\n        /* \"#utility.yul\":7770:8020   */\n    tag_101:\n        /* \"#utility.yul\":7877:7881   */\n      0x00\n        /* \"#utility.yul\":7915:7917   */\n      0x20\n        /* \"#utility.yul\":7904:7913   */\n      dup3\n        /* \"#utility.yul\":7900:7918   */\n      add\n        /* \"#utility.yul\":7892:7918   */\n      swap1\n      pop\n        /* \"#utility.yul\":7928:8013   */\n      tag_449\n        /* \"#utility.yul\":8010:8011   */\n      0x00\n        /* \"#utility.yul\":7999:8008   */\n      dup4\n        /* \"#utility.yul\":7995:8012   */\n      add\n        /* \"#utility.yul\":7986:7992   */\n      dup5\n        /* \"#utility.yul\":7928:8013   */\n      tag_341\n      jump\t// in\n    tag_449:\n        /* \"#utility.yul\":7770:8020   */\n      swap3\n      swap2\n      pop\n      pop\n      jump\t// out\n        /* \"#utility.yul\":8026:8358   */\n    tag_110:\n        /* \"#utility.yul\":8147:8151   */\n      0x00\n        /* \"#utility.yul\":8185:8187   */\n      0x40\n        /* \"#utility.yul\":8174:8183   */\n      dup3\n        /* \"#utility.yul\":8170:8188   */\n      add\n        /* \"#utility.yul\":8162:8188   */\n      swap1\n      pop\n        /* \"#utility.yul\":8198:8269   */\n      tag_451\n        /* \"#utility.yul\":8266:8267   */\n      0x00\n        /* \"#utility.yul\":8255:8264   */\n      dup4\n        /* \"#utility.yul\":8251:8268   */\n      add\n        /* \"#utility.yul\":8242:8248   */\n      dup6\n        /* \"#utility.yul\":8198:8269   */\n      tag_332\n      jump\t// in\n    tag_451:\n        /* \"#utility.yul\":8279:8351   */\n      tag_452\n        /* \"#utility.yul\":8347:8349   */\n      0x20\n        /* \"#utility.yul\":8336:8345   */\n      dup4\n        /* \"#utility.yul\":8332:8350   */\n      add\n        /* \"#utility.yul\":8323:8329   */\n      dup5\n        /* \"#utility.yul\":8279:8351   */\n      tag_332\n      jump\t// in\n    tag_452:\n        /* \"#utility.yul\":8026:8358   */\n      swap4\n      swap3\n      pop\n      pop\n      pop\n      jump\t// out\n        /* \"#utility.yul\":8364:8507   */\n    tag_342:\n        /* \"#utility.yul\":8421:8426   */\n      0x00\n        /* \"#utility.yul\":8452:8458   */\n      dup2\n        /* \"#utility.yul\":8446:8459   */\n      mload\n        /* \"#utility.yul\":8437:8459   */\n      swap1\n      pop\n        /* \"#utility.yul\":8468:8501   */\n      tag_454\n        /* \"#utility.yul\":8495:8500   */\n      dup2\n        /* \"#utility.yul\":8468:8501   */\n      tag_328\n      jump\t// in\n    tag_454:\n        /* \"#utility.yul\":8364:8507   */\n      swap3\n      swap2\n      pop\n      pop\n      jump\t// out\n        /* \"#utility.yul\":8513:8864   */\n    tag_114:\n        /* \"#utility.yul\":8583:8589   */\n      0x00\n        /* \"#utility.yul\":8632:8634   */\n      0x20\n        /* \"#utility.yul\":8620:8629   */\n      dup3\n        /* \"#utility.yul\":8611:8618   */\n      dup5\n        /* \"#utility.yul\":8607:8630   */\n      sub\n        /* \"#utility.yul\":8603:8635   */\n      slt\n        /* \"#utility.yul\":8600:8719   */\n      iszero\n      tag_456\n      jumpi\n        /* \"#utility.yul\":8638:8717   */\n      tag_457\n      tag_324\n      jump\t// in\n    tag_457:\n        /* \"#utility.yul\":8600:8719   */\n    tag_456:\n        /* \"#utility.yul\":8758:8759   */\n      0x00\n        /* \"#utility.yul\":8783:8847   */\n      tag_458\n        /* \"#utility.yul\":8839:8846   */\n      dup5\n        /* \"#utility.yul\":8830:8836   */\n      dup3\n        /* \"#utility.yul\":8819:8828   */\n      dup6\n        /* \"#utility.yul\":8815:8837   */\n      add\n        /* \"#utility.yul\":8783:8847   */\n      tag_342\n      jump\t// in\n    tag_458:\n        /* \"#utility.yul\":8773:8847   */\n      swap2\n      pop\n        /* \"#utility.yul\":8729:8857   */\n      pop\n        /* \"#utility.yul\":8513:8864   */\n      swap3\n      swap2\n      pop\n      pop\n      jump\t// out\n        /* \"#utility.yul\":8870:9013   */\n    tag_343:\n        /* \"#utility.yul\":8927:8932   */\n      0x00\n        /* \"#utility.yul\":8958:8964   */\n      dup2\n        /* \"#utility.yul\":8952:8965   */\n      mload\n        /* \"#utility.yul\":8943:8965   */\n      swap1\n      pop\n        /* \"#utility.yul\":8974:9007   */\n      tag_460\n        /* \"#utility.yul\":9001:9006   */\n      dup2\n        /* \"#utility.yul\":8974:9007   */\n      tag_330\n      jump\t// in\n    tag_460:\n        /* \"#utility.yul\":8870:9013   */\n      swap3\n      swap2\n      pop\n      pop\n      jump\t// out\n        /* \"#utility.yul\":9019:9370   */\n    tag_123:\n        /* \"#utility.yul\":9089:9095   */\n      0x00\n        /* \"#utility.yul\":9138:9140   */\n      0x20\n        /* \"#utility.yul\":9126:9135   */\n      dup3\n        /* \"#utility.yul\":9117:9124   */\n      dup5\n        /* \"#utility.yul\":9113:9136   */\n      sub\n        /* \"#utility.yul\":9109:9141   */\n      slt\n        /* \"#utility.yul\":9106:9225   */\n      iszero\n      tag_462\n      jumpi\n        /* \"#utility.yul\":9144:9223   */\n      tag_463\n      tag_324\n      jump\t// in\n    tag_463:\n        /* \"#utility.yul\":9106:9225   */\n    tag_462:\n        /* \"#utility.yul\":9264:9265   */\n      0x00\n        /* \"#utility.yul\":9289:9353   */\n      tag_464\n        /* \"#utility.yul\":9345:9352   */\n      dup5\n        /* \"#utility.yul\":9336:9342   */\n      dup3\n        /* \"#utility.yul\":9325:9334   */\n      dup6\n        /* \"#utility.yul\":9321:9343   */\n      add\n        /* \"#utility.yul\":9289:9353   */\n      tag_343\n      jump\t// in\n    tag_464:\n        /* \"#utility.yul\":9279:9353   */\n      swap2\n      pop\n        /* \"#utility.yul\":9235:9363   */\n      pop\n        /* \"#utility.yul\":9019:9370   */\n      swap3\n      swap2\n      pop\n      pop\n      jump\t// out\n        /* \"#utility.yul\":9376:9609   */\n    tag_344:\n        /* \"#utility.yul\":9516:9550   */\n      0x45524332303a20496e73756666696369656e7420616c6c6f77616e636520666f\n        /* \"#utility.yul\":9512:9513   */\n      0x00\n        /* \"#utility.yul\":9504:9510   */\n      dup3\n        /* \"#utility.yul\":9500:9514   */\n      add\n        /* \"#utility.yul\":9493:9551   */\n      mstore\n        /* \"#utility.yul\":9585:9601   */\n      0x72207472616e7366657246726f6d000000000000000000000000000000000000\n        /* \"#utility.yul\":9580:9582   */\n      0x20\n        /* \"#utility.yul\":9572:9578   */\n      dup3\n        /* \"#utility.yul\":9568:9583   */\n      add\n        /* \"#utility.yul\":9561:9602   */\n      mstore\n        /* \"#utility.yul\":9376:9609   */\n      pop\n      jump\t// out\n        /* \"#utility.yul\":9615:9979   */\n    tag_345:\n        /* \"#utility.yul\":9756:9759   */\n      0x00\n        /* \"#utility.yul\":9777:9843   */\n      tag_467\n        /* \"#utility.yul\":9840:9842   */\n      0x2e\n        /* \"#utility.yul\":9835:9838   */\n      dup4\n        /* \"#utility.yul\":9777:9843   */\n      tag_316\n      jump\t// in\n    tag_467:\n        /* \"#utility.yul\":9770:9843   */\n      swap2\n      pop\n        /* \"#utility.yul\":9852:9945   */\n      tag_468\n        /* \"#utility.yul\":9941:9944   */\n      dup3\n        /* \"#utility.yul\":9852:9945   */\n      tag_344\n      jump\t// in\n    tag_468:\n        /* \"#utility.yul\":9970:9972   */\n      0x40\n        /* \"#utility.yul\":9965:9968   */\n      dup3\n        /* \"#utility.yul\":9961:9973   */\n      add\n        /* \"#utility.yul\":9954:9973   */\n      swap1\n      pop\n        /* \"#utility.yul\":9615:9979   */\n      swap2\n      swap1\n      pop\n      jump\t// out\n        /* \"#utility.yul\":9985:10402   */\n    tag_126:\n        /* \"#utility.yul\":10150:10154   */\n      0x00\n        /* \"#utility.yul\":10188:10190   */\n      0x20\n        /* \"#utility.yul\":10177:10186   */\n      dup3\n        /* \"#utility.yul\":10173:10191   */\n      add\n        /* \"#utility.yul\":10165:10191   */\n      swap1\n      pop\n        /* \"#utility.yul\":10237:10246   */\n      dup2\n        /* \"#utility.yul\":10231:10235   */\n      dup2\n        /* \"#utility.yul\":10227:10247   */\n      sub\n        /* \"#utility.yul\":10223:10224   */\n      0x00\n        /* \"#utility.yul\":10212:10221   */\n      dup4\n        /* \"#utility.yul\":10208:10225   */\n      add\n        /* \"#utility.yul\":10201:10248   */\n      mstore\n        /* \"#utility.yul\":10265:10395   */\n      tag_470\n        /* \"#utility.yul\":10390:10394   */\n      dup2\n        /* \"#utility.yul\":10265:10395   */\n      tag_345\n      jump\t// in\n    tag_470:\n        /* \"#utility.yul\":10257:10395   */\n      swap1\n      pop\n        /* \"#utility.yul\":9985:10402   */\n      swap2\n      swap1\n      pop\n      jump\t// out\n        /* \"#utility.yul\":10408:10588   */\n    tag_346:\n        /* \"#utility.yul\":10456:10533   */\n      0x4e487b7100000000000000000000000000000000000000000000000000000000\n        /* \"#utility.yul\":10453:10454   */\n      0x00\n        /* \"#utility.yul\":10446:10534   */\n      mstore\n        /* \"#utility.yul\":10553:10557   */\n      0x11\n        /* \"#utility.yul\":10550:10551   */\n      0x04\n        /* \"#utility.yul\":10543:10558   */\n      mstore\n        /* \"#utility.yul\":10577:10581   */\n      0x24\n        /* \"#utility.yul\":10574:10575   */\n      0x00\n        /* \"#utility.yul\":10567:10582   */\n      revert\n        /* \"#utility.yul\":10594:10785   */\n    tag_135:\n        /* \"#utility.yul\":10634:10637   */\n      0x00\n        /* \"#utility.yul\":10653:10673   */\n      tag_473\n        /* \"#utility.yul\":10671:10672   */\n      dup3\n        /* \"#utility.yul\":10653:10673   */\n      tag_321\n      jump\t// in\n    tag_473:\n        /* \"#utility.yul\":10648:10673   */\n      swap2\n      pop\n        /* \"#utility.yul\":10687:10707   */\n      tag_474\n        /* \"#utility.yul\":10705:10706   */\n      dup4\n        /* \"#utility.yul\":10687:10707   */\n      tag_321\n      jump\t// in\n    tag_474:\n        /* \"#utility.yul\":10682:10707   */\n      swap3\n      pop\n        /* \"#utility.yul\":10730:10731   */\n      dup3\n        /* \"#utility.yul\":10727:10728   */\n      dup3\n        /* \"#utility.yul\":10723:10732   */\n      add\n        /* \"#utility.yul\":10716:10732   */\n      swap1\n      pop\n        /* \"#utility.yul\":10751:10754   */\n      dup1\n        /* \"#utility.yul\":10748:10749   */\n      dup3\n        /* \"#utility.yul\":10745:10755   */\n      gt\n        /* \"#utility.yul\":10742:10778   */\n      iszero\n      tag_475\n      jumpi\n        /* \"#utility.yul\":10758:10776   */\n      tag_476\n      tag_346\n      jump\t// in\n    tag_476:\n        /* \"#utility.yul\":10742:10778   */\n    tag_475:\n        /* \"#utility.yul\":10594:10785   */\n      swap3\n      swap2\n      pop\n      pop\n      jump\t// out\n        /* \"#utility.yul\":10791:10972   */\n    tag_347:\n        /* \"#utility.yul\":10931:10964   */\n      0x546f74616c204b69707542616e6b27732066756e647320657863656564656400\n        /* \"#utility.yul\":10927:10928   */\n      0x00\n        /* \"#utility.yul\":10919:10925   */\n      dup3\n        /* \"#utility.yul\":10915:10929   */\n      add\n        /* \"#utility.yul\":10908:10965   */\n      mstore\n        /* \"#utility.yul\":10791:10972   */\n      pop\n      jump\t// out\n        /* \"#utility.yul\":10978:11342   */\n    tag_348:\n        /* \"#utility.yul\":11119:11122   */\n      0x00\n        /* \"#utility.yul\":11140:11206   */\n      tag_479\n        /* \"#utility.yul\":11203:11205   */\n      0x1f\n        /* \"#utility.yul\":11198:11201   */\n      dup4\n        /* \"#utility.yul\":11140:11206   */\n      tag_316\n      jump\t// in\n    tag_479:\n        /* \"#utility.yul\":11133:11206   */\n      swap2\n      pop\n        /* \"#utility.yul\":11215:11308   */\n      tag_480\n        /* \"#utility.yul\":11304:11307   */\n      dup3\n        /* \"#utility.yul\":11215:11308   */\n      tag_347\n      jump\t// in\n    tag_480:\n        /* \"#utility.yul\":11333:11335   */\n      0x20\n        /* \"#utility.yul\":11328:11331   */\n      dup3\n        /* \"#utility.yul\":11324:11336   */\n      add\n        /* \"#utility.yul\":11317:11336   */\n      swap1\n      pop\n        /* \"#utility.yul\":10978:11342   */\n      swap2\n      swap1\n      pop\n      jump\t// out\n        /* \"#utility.yul\":11348:11765   */\n    tag_138:\n        /* \"#utility.yul\":11513:11517   */\n      0x00\n        /* \"#utility.yul\":11551:11553   */\n      0x20\n        /* \"#utility.yul\":11540:11549   */\n      dup3\n        /* \"#utility.yul\":11536:11554   */\n      add\n        /* \"#utility.yul\":11528:11554   */\n      swap1\n      pop\n        /* \"#utility.yul\":11600:11609   */\n      dup2\n        /* \"#utility.yul\":11594:11598   */\n      dup2\n        /* \"#utility.yul\":11590:11610   */\n      sub\n        /* \"#utility.yul\":11586:11587   */\n      0x00\n        /* \"#utility.yul\":11575:11584   */\n      dup4\n        /* \"#utility.yul\":11571:11588   */\n      add\n        /* \"#utility.yul\":11564:11611   */\n      mstore\n        /* \"#utility.yul\":11628:11758   */\n      tag_482\n        /* \"#utility.yul\":11753:11757   */\n      dup2\n        /* \"#utility.yul\":11628:11758   */\n      tag_348\n      jump\t// in\n    tag_482:\n        /* \"#utility.yul\":11620:11758   */\n      swap1\n      pop\n        /* \"#utility.yul\":11348:11765   */\n      swap2\n      swap1\n      pop\n      jump\t// out\n        /* \"#utility.yul\":11771:11951   */\n    tag_149:\n        /* \"#utility.yul\":11819:11896   */\n      0x4e487b7100000000000000000000000000000000000000000000000000000000\n        /* \"#utility.yul\":11816:11817   */\n      0x00\n        /* \"#utility.yul\":11809:11897   */\n      mstore\n        /* \"#utility.yul\":11916:11920   */\n      0x41\n        /* \"#utility.yul\":11913:11914   */\n      0x04\n        /* \"#utility.yul\":11906:11921   */\n      mstore\n        /* \"#utility.yul\":11940:11944   */\n      0x24\n        /* \"#utility.yul\":11937:11938   */\n      0x00\n        /* \"#utility.yul\":11930:11945   */\n      revert\n        /* \"#utility.yul\":11957:12137   */\n    tag_153:\n        /* \"#utility.yul\":12005:12082   */\n      0x4e487b7100000000000000000000000000000000000000000000000000000000\n        /* \"#utility.yul\":12002:12003   */\n      0x00\n        /* \"#utility.yul\":11995:12083   */\n      mstore\n        /* \"#utility.yul\":12102:12106   */\n      0x32\n        /* \"#utility.yul\":12099:12100   */\n      0x04\n        /* \"#utility.yul\":12092:12107   */\n      mstore\n        /* \"#utility.yul\":12126:12130   */\n      0x24\n        /* \"#utility.yul\":12123:12124   */\n      0x00\n        /* \"#utility.yul\":12116:12131   */\n      revert\n        /* \"#utility.yul\":12143:12257   */\n    tag_349:\n        /* \"#utility.yul\":12210:12216   */\n      0x00\n        /* \"#utility.yul\":12244:12249   */\n      dup2\n        /* \"#utility.yul\":12238:12250   */\n      mload\n        /* \"#utility.yul\":12228:12250   */\n      swap1\n      pop\n        /* \"#utility.yul\":12143:12257   */\n      swap2\n      swap1\n      pop\n      jump\t// out\n        /* \"#utility.yul\":12263:12447   */\n    tag_350:\n        /* \"#utility.yul\":12362:12373   */\n      0x00\n        /* \"#utility.yul\":12396:12402   */\n      dup3\n        /* \"#utility.yul\":12391:12394   */\n      dup3\n        /* \"#utility.yul\":12384:12403   */\n      mstore\n        /* \"#utility.yul\":12436:12440   */\n      0x20\n        /* \"#utility.yul\":12431:12434   */\n      dup3\n        /* \"#utility.yul\":12427:12441   */\n      add\n        /* \"#utility.yul\":12412:12441   */\n      swap1\n      pop\n        /* \"#utility.yul\":12263:12447   */\n      swap3\n      swap2\n      pop\n      pop\n      jump\t// out\n        /* \"#utility.yul\":12453:12585   */\n    tag_351:\n        /* \"#utility.yul\":12520:12524   */\n      0x00\n        /* \"#utility.yul\":12543:12546   */\n      dup2\n        /* \"#utility.yul\":12535:12546   */\n      swap1\n      pop\n        /* \"#utility.yul\":12573:12577   */\n      0x20\n        /* \"#utility.yul\":12568:12571   */\n      dup3\n        /* \"#utility.yul\":12564:12578   */\n      add\n        /* \"#utility.yul\":12556:12578   */\n      swap1\n      pop\n        /* \"#utility.yul\":12453:12585   */\n      swap2\n      swap1\n      pop\n      jump\t// out\n        /* \"#utility.yul\":12591:12699   */\n    tag_352:\n        /* \"#utility.yul\":12668:12692   */\n      tag_489\n        /* \"#utility.yul\":12686:12691   */\n      dup2\n        /* \"#utility.yul\":12668:12692   */\n      tag_327\n      jump\t// in\n    tag_489:\n        /* \"#utility.yul\":12663:12666   */\n      dup3\n        /* \"#utility.yul\":12656:12693   */\n      mstore\n        /* \"#utility.yul\":12591:12699   */\n      pop\n      pop\n      jump\t// out\n        /* \"#utility.yul\":12705:12884   */\n    tag_353:\n        /* \"#utility.yul\":12774:12784   */\n      0x00\n        /* \"#utility.yul\":12795:12841   */\n      tag_491\n        /* \"#utility.yul\":12837:12840   */\n      dup4\n        /* \"#utility.yul\":12829:12835   */\n      dup4\n        /* \"#utility.yul\":12795:12841   */\n      tag_352\n      jump\t// in\n    tag_491:\n        /* \"#utility.yul\":12873:12877   */\n      0x20\n        /* \"#utility.yul\":12868:12871   */\n      dup4\n        /* \"#utility.yul\":12864:12878   */\n      add\n        /* \"#utility.yul\":12850:12878   */\n      swap1\n      pop\n        /* \"#utility.yul\":12705:12884   */\n      swap3\n      swap2\n      pop\n      pop\n      jump\t// out\n        /* \"#utility.yul\":12890:13003   */\n    tag_354:\n        /* \"#utility.yul\":12960:12964   */\n      0x00\n        /* \"#utility.yul\":12992:12996   */\n      0x20\n        /* \"#utility.yul\":12987:12990   */\n      dup3\n        /* \"#utility.yul\":12983:12997   */\n      add\n        /* \"#utility.yul\":12975:12997   */\n      swap1\n      pop\n        /* \"#utility.yul\":12890:13003   */\n      swap2\n      swap1\n      pop\n      jump\t// out\n        /* \"#utility.yul\":13039:13771   */\n    tag_355:\n        /* \"#utility.yul\":13158:13161   */\n      0x00\n        /* \"#utility.yul\":13187:13241   */\n      tag_494\n        /* \"#utility.yul\":13235:13240   */\n      dup3\n        /* \"#utility.yul\":13187:13241   */\n      tag_349\n      jump\t// in\n    tag_494:\n        /* \"#utility.yul\":13257:13343   */\n      tag_495\n        /* \"#utility.yul\":13336:13342   */\n      dup2\n        /* \"#utility.yul\":13331:13334   */\n      dup6\n        /* \"#utility.yul\":13257:13343   */\n      tag_350\n      jump\t// in\n    tag_495:\n        /* \"#utility.yul\":13250:13343   */\n      swap4\n      pop\n        /* \"#utility.yul\":13367:13423   */\n      tag_496\n        /* \"#utility.yul\":13417:13422   */\n      dup4\n        /* \"#utility.yul\":13367:13423   */\n      tag_351\n      jump\t// in\n    tag_496:\n        /* \"#utility.yul\":13446:13453   */\n      dup1\n        /* \"#utility.yul\":13477:13478   */\n      0x00\n        /* \"#utility.yul\":13462:13746   */\n    tag_497:\n        /* \"#utility.yul\":13487:13493   */\n      dup4\n        /* \"#utility.yul\":13484:13485   */\n      dup2\n        /* \"#utility.yul\":13481:13494   */\n      lt\n        /* \"#utility.yul\":13462:13746   */\n      iszero\n      tag_499\n      jumpi\n        /* \"#utility.yul\":13563:13569   */\n      dup2\n        /* \"#utility.yul\":13557:13570   */\n      mload\n        /* \"#utility.yul\":13590:13653   */\n      tag_500\n        /* \"#utility.yul\":13649:13652   */\n      dup9\n        /* \"#utility.yul\":13634:13647   */\n      dup3\n        /* \"#utility.yul\":13590:13653   */\n      tag_353\n      jump\t// in\n    tag_500:\n        /* \"#utility.yul\":13583:13653   */\n      swap8\n      pop\n        /* \"#utility.yul\":13676:13736   */\n      tag_501\n        /* \"#utility.yul\":13729:13735   */\n      dup4\n        /* \"#utility.yul\":13676:13736   */\n      tag_354\n      jump\t// in\n    tag_501:\n        /* \"#utility.yul\":13666:13736   */\n      swap3\n      pop\n        /* \"#utility.yul\":13522:13746   */\n      pop\n        /* \"#utility.yul\":13509:13510   */\n      0x01\n        /* \"#utility.yul\":13506:13507   */\n      dup2\n        /* \"#utility.yul\":13502:13511   */\n      add\n        /* \"#utility.yul\":13497:13511   */\n      swap1\n      pop\n        /* \"#utility.yul\":13462:13746   */\n      jump(tag_497)\n    tag_499:\n        /* \"#utility.yul\":13466:13480   */\n      pop\n        /* \"#utility.yul\":13762:13765   */\n      dup6\n        /* \"#utility.yul\":13755:13765   */\n      swap4\n      pop\n        /* \"#utility.yul\":13163:13771   */\n      pop\n      pop\n      pop\n        /* \"#utility.yul\":13039:13771   */\n      swap3\n      swap2\n      pop\n      pop\n      jump\t// out\n        /* \"#utility.yul\":13777:14592   */\n    tag_158:\n        /* \"#utility.yul\":14032:14036   */\n      0x00\n        /* \"#utility.yul\":14070:14073   */\n      0xa0\n        /* \"#utility.yul\":14059:14068   */\n      dup3\n        /* \"#utility.yul\":14055:14074   */\n      add\n        /* \"#utility.yul\":14047:14074   */\n      swap1\n      pop\n        /* \"#utility.yul\":14084:14155   */\n      tag_503\n        /* \"#utility.yul\":14152:14153   */\n      0x00\n        /* \"#utility.yul\":14141:14150   */\n      dup4\n        /* \"#utility.yul\":14137:14154   */\n      add\n        /* \"#utility.yul\":14128:14134   */\n      dup9\n        /* \"#utility.yul\":14084:14155   */\n      tag_322\n      jump\t// in\n    tag_503:\n        /* \"#utility.yul\":14165:14237   */\n      tag_504\n        /* \"#utility.yul\":14233:14235   */\n      0x20\n        /* \"#utility.yul\":14222:14231   */\n      dup4\n        /* \"#utility.yul\":14218:14236   */\n      add\n        /* \"#utility.yul\":14209:14215   */\n      dup8\n        /* \"#utility.yul\":14165:14237   */\n      tag_322\n      jump\t// in\n    tag_504:\n        /* \"#utility.yul\":14284:14293   */\n      dup2\n        /* \"#utility.yul\":14278:14282   */\n      dup2\n        /* \"#utility.yul\":14274:14294   */\n      sub\n        /* \"#utility.yul\":14269:14271   */\n      0x40\n        /* \"#utility.yul\":14258:14267   */\n      dup4\n        /* \"#utility.yul\":14254:14272   */\n      add\n        /* \"#utility.yul\":14247:14295   */\n      mstore\n        /* \"#utility.yul\":14312:14420   */\n      tag_505\n        /* \"#utility.yul\":14415:14419   */\n      dup2\n        /* \"#utility.yul\":14406:14412   */\n      dup7\n        /* \"#utility.yul\":14312:14420   */\n      tag_355\n      jump\t// in\n    tag_505:\n        /* \"#utility.yul\":14304:14420   */\n      swap1\n      pop\n        /* \"#utility.yul\":14430:14502   */\n      tag_506\n        /* \"#utility.yul\":14498:14500   */\n      0x60\n        /* \"#utility.yul\":14487:14496   */\n      dup4\n        /* \"#utility.yul\":14483:14501   */\n      add\n        /* \"#utility.yul\":14474:14480   */\n      dup6\n        /* \"#utility.yul\":14430:14502   */\n      tag_332\n      jump\t// in\n    tag_506:\n        /* \"#utility.yul\":14512:14585   */\n      tag_507\n        /* \"#utility.yul\":14580:14583   */\n      0x80\n        /* \"#utility.yul\":14569:14578   */\n      dup4\n        /* \"#utility.yul\":14565:14584   */\n      add\n        /* \"#utility.yul\":14556:14562   */\n      dup5\n        /* \"#utility.yul\":14512:14585   */\n      tag_322\n      jump\t// in\n    tag_507:\n        /* \"#utility.yul\":13777:14592   */\n      swap7\n      swap6\n      pop\n      pop\n      pop\n      pop\n      pop\n      pop\n      jump\t// out\n        /* \"#utility.yul\":14598:14792   */\n    tag_167:\n        /* \"#utility.yul\":14638:14642   */\n      0x00\n        /* \"#utility.yul\":14658:14678   */\n      tag_509\n        /* \"#utility.yul\":14676:14677   */\n      dup3\n        /* \"#utility.yul\":14658:14678   */\n      tag_321\n      jump\t// in\n    tag_509:\n        /* \"#utility.yul\":14653:14678   */\n      swap2\n      pop\n        /* \"#utility.yul\":14692:14712   */\n      tag_510\n        /* \"#utility.yul\":14710:14711   */\n      dup4\n        /* \"#utility.yul\":14692:14712   */\n      tag_321\n      jump\t// in\n    tag_510:\n        /* \"#utility.yul\":14687:14712   */\n      swap3\n      pop\n        /* \"#utility.yul\":14736:14737   */\n      dup3\n        /* \"#utility.yul\":14733:14734   */\n      dup3\n        /* \"#utility.yul\":14729:14738   */\n      sub\n        /* \"#utility.yul\":14721:14738   */\n      swap1\n      pop\n        /* \"#utility.yul\":14760:14761   */\n      dup2\n        /* \"#utility.yul\":14754:14758   */\n      dup2\n        /* \"#utility.yul\":14751:14762   */\n      gt\n        /* \"#utility.yul\":14748:14785   */\n      iszero\n      tag_511\n      jumpi\n        /* \"#utility.yul\":14765:14783   */\n      tag_512\n      tag_346\n      jump\t// in\n    tag_512:\n        /* \"#utility.yul\":14748:14785   */\n    tag_511:\n        /* \"#utility.yul\":14598:14792   */\n      swap3\n      swap2\n      pop\n      pop\n      jump\t// out\n        /* \"#utility.yul\":14798:15130   */\n    tag_176:\n        /* \"#utility.yul\":14919:14923   */\n      0x00\n        /* \"#utility.yul\":14957:14959   */\n      0x40\n        /* \"#utility.yul\":14946:14955   */\n      dup3\n        /* \"#utility.yul\":14942:14960   */\n      add\n        /* \"#utility.yul\":14934:14960   */\n      swap1\n      pop\n        /* \"#utility.yul\":14970:15041   */\n      tag_514\n        /* \"#utility.yul\":15038:15039   */\n      0x00\n        /* \"#utility.yul\":15027:15036   */\n      dup4\n        /* \"#utility.yul\":15023:15040   */\n      add\n        /* \"#utility.yul\":15014:15020   */\n      dup6\n        /* \"#utility.yul\":14970:15041   */\n      tag_332\n      jump\t// in\n    tag_514:\n        /* \"#utility.yul\":15051:15123   */\n      tag_515\n        /* \"#utility.yul\":15119:15121   */\n      0x20\n        /* \"#utility.yul\":15108:15117   */\n      dup4\n        /* \"#utility.yul\":15104:15122   */\n      add\n        /* \"#utility.yul\":15095:15101   */\n      dup5\n        /* \"#utility.yul\":15051:15123   */\n      tag_322\n      jump\t// in\n    tag_515:\n        /* \"#utility.yul\":14798:15130   */\n      swap4\n      swap3\n      pop\n      pop\n      pop\n      jump\t// out\n        /* \"#utility.yul\":15136:15360   */\n    tag_356:\n        /* \"#utility.yul\":15276:15310   */\n      0x416d6f756e74206578636565647320746865206d6178696d756d207769746864\n        /* \"#utility.yul\":15272:15273   */\n      0x00\n        /* \"#utility.yul\":15264:15270   */\n      dup3\n        /* \"#utility.yul\":15260:15274   */\n      add\n        /* \"#utility.yul\":15253:15311   */\n      mstore\n        /* \"#utility.yul\":15345:15352   */\n      0x726177616c000000000000000000000000000000000000000000000000000000\n        /* \"#utility.yul\":15340:15342   */\n      0x20\n        /* \"#utility.yul\":15332:15338   */\n      dup3\n        /* \"#utility.yul\":15328:15343   */\n      add\n        /* \"#utility.yul\":15321:15353   */\n      mstore\n        /* \"#utility.yul\":15136:15360   */\n      pop\n      jump\t// out\n        /* \"#utility.yul\":15366:15730   */\n    tag_357:\n        /* \"#utility.yul\":15507:15510   */\n      0x00\n        /* \"#utility.yul\":15528:15594   */\n      tag_518\n        /* \"#utility.yul\":15591:15593   */\n      0x25\n        /* \"#utility.yul\":15586:15589   */\n      dup4\n        /* \"#utility.yul\":15528:15594   */\n      tag_316\n      jump\t// in\n    tag_518:\n        /* \"#utility.yul\":15521:15594   */\n      swap2\n      pop\n        /* \"#utility.yul\":15603:15696   */\n      tag_519\n        /* \"#utility.yul\":15692:15695   */\n      dup3\n        /* \"#utility.yul\":15603:15696   */\n      tag_356\n      jump\t// in\n    tag_519:\n        /* \"#utility.yul\":15721:15723   */\n      0x40\n        /* \"#utility.yul\":15716:15719   */\n      dup3\n        /* \"#utility.yul\":15712:15724   */\n      add\n        /* \"#utility.yul\":15705:15724   */\n      swap1\n      pop\n        /* \"#utility.yul\":15366:15730   */\n      swap2\n      swap1\n      pop\n      jump\t// out\n        /* \"#utility.yul\":15736:16153   */\n    tag_184:\n        /* \"#utility.yul\":15901:15905   */\n      0x00\n        /* \"#utility.yul\":15939:15941   */\n      0x20\n        /* \"#utility.yul\":15928:15937   */\n      dup3\n        /* \"#utility.yul\":15924:15942   */\n      add\n        /* \"#utility.yul\":15916:15942   */\n      swap1\n      pop\n        /* \"#utility.yul\":15988:15997   */\n      dup2\n        /* \"#utility.yul\":15982:15986   */\n      dup2\n        /* \"#utility.yul\":15978:15998   */\n      sub\n        /* \"#utility.yul\":15974:15975   */\n      0x00\n        /* \"#utility.yul\":15963:15972   */\n      dup4\n        /* \"#utility.yul\":15959:15976   */\n      add\n        /* \"#utility.yul\":15952:15999   */\n      mstore\n        /* \"#utility.yul\":16016:16146   */\n      tag_521\n        /* \"#utility.yul\":16141:16145   */\n      dup2\n        /* \"#utility.yul\":16016:16146   */\n      tag_357\n      jump\t// in\n    tag_521:\n        /* \"#utility.yul\":16008:16146   */\n      swap1\n      pop\n        /* \"#utility.yul\":15736:16153   */\n      swap2\n      swap1\n      pop\n      jump\t// out\n        /* \"#utility.yul\":16159:16326   */\n    tag_358:\n        /* \"#utility.yul\":16299:16318   */\n      0x4e6f7420656e6f75676820666f756e6473000000000000000000000000000000\n        /* \"#utility.yul\":16295:16296   */\n      0x00\n        /* \"#utility.yul\":16287:16293   */\n      dup3\n        /* \"#utility.yul\":16283:16297   */\n      add\n        /* \"#utility.yul\":16276:16319   */\n      mstore\n        /* \"#utility.yul\":16159:16326   */\n      pop\n      jump\t// out\n        /* \"#utility.yul\":16332:16696   */\n    tag_359:\n        /* \"#utility.yul\":16473:16476   */\n      0x00\n        /* \"#utility.yul\":16494:16560   */\n      tag_524\n        /* \"#utility.yul\":16557:16559   */\n      0x11\n        /* \"#utility.yul\":16552:16555   */\n      dup4\n        /* \"#utility.yul\":16494:16560   */\n      tag_316\n      jump\t// in\n    tag_524:\n        /* \"#utility.yul\":16487:16560   */\n      swap2\n      pop\n        /* \"#utility.yul\":16569:16662   */\n      tag_525\n        /* \"#utility.yul\":16658:16661   */\n      dup3\n        /* \"#utility.yul\":16569:16662   */\n      tag_358\n      jump\t// in\n    tag_525:\n        /* \"#utility.yul\":16687:16689   */\n      0x20\n        /* \"#utility.yul\":16682:16685   */\n      dup3\n        /* \"#utility.yul\":16678:16690   */\n      add\n        /* \"#utility.yul\":16671:16690   */\n      swap1\n      pop\n        /* \"#utility.yul\":16332:16696   */\n      swap2\n      swap1\n      pop\n      jump\t// out\n        /* \"#utility.yul\":16702:17119   */\n    tag_187:\n        /* \"#utility.yul\":16867:16871   */\n      0x00\n        /* \"#utility.yul\":16905:16907   */\n      0x20\n        /* \"#utility.yul\":16894:16903   */\n      dup3\n        /* \"#utility.yul\":16890:16908   */\n      add\n        /* \"#utility.yul\":16882:16908   */\n      swap1\n      pop\n        /* \"#utility.yul\":16954:16963   */\n      dup2\n        /* \"#utility.yul\":16948:16952   */\n      dup2\n        /* \"#utility.yul\":16944:16964   */\n      sub\n        /* \"#utility.yul\":16940:16941   */\n      0x00\n        /* \"#utility.yul\":16929:16938   */\n      dup4\n        /* \"#utility.yul\":16925:16942   */\n      add\n        /* \"#utility.yul\":16918:16965   */\n      mstore\n        /* \"#utility.yul\":16982:17112   */\n      tag_527\n        /* \"#utility.yul\":17107:17111   */\n      dup2\n        /* \"#utility.yul\":16982:17112   */\n      tag_359\n      jump\t// in\n    tag_527:\n        /* \"#utility.yul\":16974:17112   */\n      swap1\n      pop\n        /* \"#utility.yul\":16702:17119   */\n      swap2\n      swap1\n      pop\n      jump\t// out\n        /* \"#utility.yul\":17125:17239   */\n    tag_360:\n        /* \"#utility.yul\":17162:17169   */\n      0x00\n        /* \"#utility.yul\":17202:17232   */\n      0xffffffffffffffffffffffffffff\n        /* \"#utility.yul\":17195:17200   */\n      dup3\n        /* \"#utility.yul\":17191:17233   */\n      and\n        /* \"#utility.yul\":17180:17233   */\n      swap1\n      pop\n        /* \"#utility.yul\":17125:17239   */\n      swap2\n      swap1\n      pop\n      jump\t// out\n        /* \"#utility.yul\":17245:17367   */\n    tag_361:\n        /* \"#utility.yul\":17318:17342   */\n      tag_530\n        /* \"#utility.yul\":17336:17341   */\n      dup2\n        /* \"#utility.yul\":17318:17342   */\n      tag_360\n      jump\t// in\n    tag_530:\n        /* \"#utility.yul\":17311:17316   */\n      dup2\n        /* \"#utility.yul\":17308:17343   */\n      eq\n        /* \"#utility.yul\":17298:17361   */\n      tag_531\n      jumpi\n        /* \"#utility.yul\":17357:17358   */\n      0x00\n        /* \"#utility.yul\":17354:17355   */\n      dup1\n        /* \"#utility.yul\":17347:17359   */\n      revert\n        /* \"#utility.yul\":17298:17361   */\n    tag_531:\n        /* \"#utility.yul\":17245:17367   */\n      pop\n      jump\t// out\n        /* \"#utility.yul\":17373:17516   */\n    tag_362:\n        /* \"#utility.yul\":17430:17435   */\n      0x00\n        /* \"#utility.yul\":17461:17467   */\n      dup2\n        /* \"#utility.yul\":17455:17468   */\n      mload\n        /* \"#utility.yul\":17446:17468   */\n      swap1\n      pop\n        /* \"#utility.yul\":17477:17510   */\n      tag_533\n        /* \"#utility.yul\":17504:17509   */\n      dup2\n        /* \"#utility.yul\":17477:17510   */\n      tag_361\n      jump\t// in\n    tag_533:\n        /* \"#utility.yul\":17373:17516   */\n      swap3\n      swap2\n      pop\n      pop\n      jump\t// out\n        /* \"#utility.yul\":17522:17615   */\n    tag_363:\n        /* \"#utility.yul\":17558:17565   */\n      0x00\n        /* \"#utility.yul\":17598:17608   */\n      0xffffffff\n        /* \"#utility.yul\":17591:17596   */\n      dup3\n        /* \"#utility.yul\":17587:17609   */\n      and\n        /* \"#utility.yul\":17576:17609   */\n      swap1\n      pop\n        /* \"#utility.yul\":17522:17615   */\n      swap2\n      swap1\n      pop\n      jump\t// out\n        /* \"#utility.yul\":17621:17741   */\n    tag_364:\n        /* \"#utility.yul\":17693:17716   */\n      tag_536\n        /* \"#utility.yul\":17710:17715   */\n      dup2\n        /* \"#utility.yul\":17693:17716   */\n      tag_363\n      jump\t// in\n    tag_536:\n        /* \"#utility.yul\":17686:17691   */\n      dup2\n        /* \"#utility.yul\":17683:17717   */\n      eq\n        /* \"#utility.yul\":17673:17735   */\n      tag_537\n      jumpi\n        /* \"#utility.yul\":17731:17732   */\n      0x00\n        /* \"#utility.yul\":17728:17729   */\n      dup1\n        /* \"#utility.yul\":17721:17733   */\n      revert\n        /* \"#utility.yul\":17673:17735   */\n    tag_537:\n        /* \"#utility.yul\":17621:17741   */\n      pop\n      jump\t// out\n        /* \"#utility.yul\":17747:17888   */\n    tag_365:\n        /* \"#utility.yul\":17803:17808   */\n      0x00\n        /* \"#utility.yul\":17834:17840   */\n      dup2\n        /* \"#utility.yul\":17828:17841   */\n      mload\n        /* \"#utility.yul\":17819:17841   */\n      swap1\n      pop\n        /* \"#utility.yul\":17850:17882   */\n      tag_539\n        /* \"#utility.yul\":17876:17881   */\n      dup2\n        /* \"#utility.yul\":17850:17882   */\n      tag_364\n      jump\t// in\n    tag_539:\n        /* \"#utility.yul\":17747:17888   */\n      swap3\n      swap2\n      pop\n      pop\n      jump\t// out\n        /* \"#utility.yul\":17894:18555   */\n    tag_235:\n        /* \"#utility.yul\":17981:17987   */\n      0x00\n        /* \"#utility.yul\":17989:17995   */\n      dup1\n        /* \"#utility.yul\":17997:18003   */\n      0x00\n        /* \"#utility.yul\":18046:18048   */\n      0x60\n        /* \"#utility.yul\":18034:18043   */\n      dup5\n        /* \"#utility.yul\":18025:18032   */\n      dup7\n        /* \"#utility.yul\":18021:18044   */\n      sub\n        /* \"#utility.yul\":18017:18049   */\n      slt\n        /* \"#utility.yul\":18014:18133   */\n      iszero\n      tag_541\n      jumpi\n        /* \"#utility.yul\":18052:18131   */\n      tag_542\n      tag_324\n      jump\t// in\n    tag_542:\n        /* \"#utility.yul\":18014:18133   */\n    tag_541:\n        /* \"#utility.yul\":18172:18173   */\n      0x00\n        /* \"#utility.yul\":18197:18261   */\n      tag_543\n        /* \"#utility.yul\":18253:18260   */\n      dup7\n        /* \"#utility.yul\":18244:18250   */\n      dup3\n        /* \"#utility.yul\":18233:18242   */\n      dup8\n        /* \"#utility.yul\":18229:18251   */\n      add\n        /* \"#utility.yul\":18197:18261   */\n      tag_362\n      jump\t// in\n    tag_543:\n        /* \"#utility.yul\":18187:18261   */\n      swap4\n      pop\n        /* \"#utility.yul\":18143:18271   */\n      pop\n        /* \"#utility.yul\":18310:18312   */\n      0x20\n        /* \"#utility.yul\":18336:18400   */\n      tag_544\n        /* \"#utility.yul\":18392:18399   */\n      dup7\n        /* \"#utility.yul\":18383:18389   */\n      dup3\n        /* \"#utility.yul\":18372:18381   */\n      dup8\n        /* \"#utility.yul\":18368:18390   */\n      add\n        /* \"#utility.yul\":18336:18400   */\n      tag_362\n      jump\t// in\n    tag_544:\n        /* \"#utility.yul\":18326:18400   */\n      swap3\n      pop\n        /* \"#utility.yul\":18281:18410   */\n      pop\n        /* \"#utility.yul\":18449:18451   */\n      0x40\n        /* \"#utility.yul\":18475:18538   */\n      tag_545\n        /* \"#utility.yul\":18530:18537   */\n      dup7\n        /* \"#utility.yul\":18521:18527   */\n      dup3\n        /* \"#utility.yul\":18510:18519   */\n      dup8\n        /* \"#utility.yul\":18506:18528   */\n      add\n        /* \"#utility.yul\":18475:18538   */\n      tag_365\n      jump\t// in\n    tag_545:\n        /* \"#utility.yul\":18465:18538   */\n      swap2\n      pop\n        /* \"#utility.yul\":18420:18548   */\n      pop\n        /* \"#utility.yul\":17894:18555   */\n      swap3\n      pop\n      swap3\n      pop\n      swap3\n      jump\t// out\n        /* \"#utility.yul\":18561:18971   */\n    tag_239:\n        /* \"#utility.yul\":18601:18608   */\n      0x00\n        /* \"#utility.yul\":18624:18644   */\n      tag_547\n        /* \"#utility.yul\":18642:18643   */\n      dup3\n        /* \"#utility.yul\":18624:18644   */\n      tag_321\n      jump\t// in\n    tag_547:\n        /* \"#utility.yul\":18619:18644   */\n      swap2\n      pop\n        /* \"#utility.yul\":18658:18678   */\n      tag_548\n        /* \"#utility.yul\":18676:18677   */\n      dup4\n        /* \"#utility.yul\":18658:18678   */\n      tag_321\n      jump\t// in\n    tag_548:\n        /* \"#utility.yul\":18653:18678   */\n      swap3\n      pop\n        /* \"#utility.yul\":18713:18714   */\n      dup3\n        /* \"#utility.yul\":18710:18711   */\n      dup3\n        /* \"#utility.yul\":18706:18715   */\n      mul\n        /* \"#utility.yul\":18735:18765   */\n      tag_549\n        /* \"#utility.yul\":18753:18764   */\n      dup2\n        /* \"#utility.yul\":18735:18765   */\n      tag_321\n      jump\t// in\n    tag_549:\n        /* \"#utility.yul\":18724:18765   */\n      swap2\n      pop\n        /* \"#utility.yul\":18914:18915   */\n      dup3\n        /* \"#utility.yul\":18905:18912   */\n      dup3\n        /* \"#utility.yul\":18901:18916   */\n      div\n        /* \"#utility.yul\":18898:18899   */\n      dup5\n        /* \"#utility.yul\":18895:18917   */\n      eq\n        /* \"#utility.yul\":18875:18876   */\n      dup4\n        /* \"#utility.yul\":18868:18877   */\n      iszero\n        /* \"#utility.yul\":18848:18931   */\n      or\n        /* \"#utility.yul\":18825:18964   */\n      tag_550\n      jumpi\n        /* \"#utility.yul\":18944:18962   */\n      tag_551\n      tag_346\n      jump\t// in\n    tag_551:\n        /* \"#utility.yul\":18825:18964   */\n    tag_550:\n        /* \"#utility.yul\":18609:18971   */\n      pop\n        /* \"#utility.yul\":18561:18971   */\n      swap3\n      swap2\n      pop\n      pop\n      jump\t// out\n        /* \"#utility.yul\":18977:19256   */\n    tag_242:\n        /* \"#utility.yul\":19017:19024   */\n      0x00\n        /* \"#utility.yul\":19040:19060   */\n      tag_553\n        /* \"#utility.yul\":19058:19059   */\n      dup3\n        /* \"#utility.yul\":19040:19060   */\n      tag_360\n      jump\t// in\n    tag_553:\n        /* \"#utility.yul\":19035:19060   */\n      swap2\n      pop\n        /* \"#utility.yul\":19074:19094   */\n      tag_554\n        /* \"#utility.yul\":19092:19093   */\n      dup4\n        /* \"#utility.yul\":19074:19094   */\n      tag_360\n      jump\t// in\n    tag_554:\n        /* \"#utility.yul\":19069:19094   */\n      swap3\n      pop\n        /* \"#utility.yul\":19129:19130   */\n      dup3\n        /* \"#utility.yul\":19126:19127   */\n      dup3\n        /* \"#utility.yul\":19122:19131   */\n      mul\n        /* \"#utility.yul\":19151:19181   */\n      tag_555\n        /* \"#utility.yul\":19169:19180   */\n      dup2\n        /* \"#utility.yul\":19151:19181   */\n      tag_360\n      jump\t// in\n    tag_555:\n        /* \"#utility.yul\":19140:19181   */\n      swap2\n      pop\n        /* \"#utility.yul\":19213:19224   */\n      dup1\n        /* \"#utility.yul\":19204:19211   */\n      dup3\n        /* \"#utility.yul\":19201:19225   */\n      eq\n        /* \"#utility.yul\":19191:19249   */\n      tag_556\n      jumpi\n        /* \"#utility.yul\":19229:19247   */\n      tag_557\n      tag_346\n      jump\t// in\n    tag_557:\n        /* \"#utility.yul\":19191:19249   */\n    tag_556:\n        /* \"#utility.yul\":19025:19256   */\n      pop\n        /* \"#utility.yul\":18977:19256   */\n      swap3\n      swap2\n      pop\n      pop\n      jump\t// out\n        /* \"#utility.yul\":19262:19442   */\n    tag_366:\n        /* \"#utility.yul\":19310:19387   */\n      0x4e487b7100000000000000000000000000000000000000000000000000000000\n        /* \"#utility.yul\":19307:19308   */\n      0x00\n        /* \"#utility.yul\":19300:19388   */\n      mstore\n        /* \"#utility.yul\":19407:19411   */\n      0x12\n        /* \"#utility.yul\":19404:19405   */\n      0x04\n        /* \"#utility.yul\":19397:19412   */\n      mstore\n        /* \"#utility.yul\":19431:19435   */\n      0x24\n        /* \"#utility.yul\":19428:19429   */\n      0x00\n        /* \"#utility.yul\":19421:19436   */\n      revert\n        /* \"#utility.yul\":19448:19633   */\n    tag_245:\n        /* \"#utility.yul\":19488:19489   */\n      0x00\n        /* \"#utility.yul\":19505:19525   */\n      tag_560\n        /* \"#utility.yul\":19523:19524   */\n      dup3\n        /* \"#utility.yul\":19505:19525   */\n      tag_321\n      jump\t// in\n    tag_560:\n        /* \"#utility.yul\":19500:19525   */\n      swap2\n      pop\n        /* \"#utility.yul\":19539:19559   */\n      tag_561\n        /* \"#utility.yul\":19557:19558   */\n      dup4\n        /* \"#utility.yul\":19539:19559   */\n      tag_321\n      jump\t// in\n    tag_561:\n        /* \"#utility.yul\":19534:19559   */\n      swap3\n      pop\n        /* \"#utility.yul\":19578:19579   */\n      dup3\n        /* \"#utility.yul\":19568:19603   */\n      tag_562\n      jumpi\n        /* \"#utility.yul\":19583:19601   */\n      tag_563\n      tag_366\n      jump\t// in\n    tag_563:\n        /* \"#utility.yul\":19568:19603   */\n    tag_562:\n        /* \"#utility.yul\":19625:19626   */\n      dup3\n        /* \"#utility.yul\":19622:19623   */\n      dup3\n        /* \"#utility.yul\":19618:19627   */\n      div\n        /* \"#utility.yul\":19613:19627   */\n      swap1\n      pop\n        /* \"#utility.yul\":19448:19633   */\n      swap3\n      swap2\n      pop\n      pop\n      jump\t// out\n        /* \"#utility.yul\":19639:20081   */\n    tag_249:\n        /* \"#utility.yul\":19788:19792   */\n      0x00\n        /* \"#utility.yul\":19826:19828   */\n      0x60\n        /* \"#utility.yul\":19815:19824   */\n      dup3\n        /* \"#utility.yul\":19811:19829   */\n      add\n        /* \"#utility.yul\":19803:19829   */\n      swap1\n      pop\n        /* \"#utility.yul\":19839:19910   */\n      tag_565\n        /* \"#utility.yul\":19907:19908   */\n      0x00\n        /* \"#utility.yul\":19896:19905   */\n      dup4\n        /* \"#utility.yul\":19892:19909   */\n      add\n        /* \"#utility.yul\":19883:19889   */\n      dup7\n        /* \"#utility.yul\":19839:19910   */\n      tag_332\n      jump\t// in\n    tag_565:\n        /* \"#utility.yul\":19920:19992   */\n      tag_566\n        /* \"#utility.yul\":19988:19990   */\n      0x20\n        /* \"#utility.yul\":19977:19986   */\n      dup4\n        /* \"#utility.yul\":19973:19991   */\n      add\n        /* \"#utility.yul\":19964:19970   */\n      dup6\n        /* \"#utility.yul\":19920:19992   */\n      tag_332\n      jump\t// in\n    tag_566:\n        /* \"#utility.yul\":20002:20074   */\n      tag_567\n        /* \"#utility.yul\":20070:20072   */\n      0x40\n        /* \"#utility.yul\":20059:20068   */\n      dup4\n        /* \"#utility.yul\":20055:20073   */\n      add\n        /* \"#utility.yul\":20046:20052   */\n      dup5\n        /* \"#utility.yul\":20002:20074   */\n      tag_322\n      jump\t// in\n    tag_567:\n        /* \"#utility.yul\":19639:20081   */\n      swap5\n      swap4\n      pop\n      pop\n      pop\n      pop\n      jump\t// out\n        /* \"#utility.yul\":20087:20791   */\n    tag_294:\n        /* \"#utility.yul\":20314:20318   */\n      0x00\n        /* \"#utility.yul\":20352:20355   */\n      0x80\n        /* \"#utility.yul\":20341:20350   */\n      dup3\n        /* \"#utility.yul\":20337:20356   */\n      add\n        /* \"#utility.yul\":20329:20356   */\n      swap1\n      pop\n        /* \"#utility.yul\":20366:20437   */\n      tag_569\n        /* \"#utility.yul\":20434:20435   */\n      0x00\n        /* \"#utility.yul\":20423:20432   */\n      dup4\n        /* \"#utility.yul\":20419:20436   */\n      add\n        /* \"#utility.yul\":20410:20416   */\n      dup8\n        /* \"#utility.yul\":20366:20437   */\n      tag_322\n      jump\t// in\n    tag_569:\n        /* \"#utility.yul\":20484:20493   */\n      dup2\n        /* \"#utility.yul\":20478:20482   */\n      dup2\n        /* \"#utility.yul\":20474:20494   */\n      sub\n        /* \"#utility.yul\":20469:20471   */\n      0x20\n        /* \"#utility.yul\":20458:20467   */\n      dup4\n        /* \"#utility.yul\":20454:20472   */\n      add\n        /* \"#utility.yul\":20447:20495   */\n      mstore\n        /* \"#utility.yul\":20512:20620   */\n      tag_570\n        /* \"#utility.yul\":20615:20619   */\n      dup2\n        /* \"#utility.yul\":20606:20612   */\n      dup7\n        /* \"#utility.yul\":20512:20620   */\n      tag_355\n      jump\t// in\n    tag_570:\n        /* \"#utility.yul\":20504:20620   */\n      swap1\n      pop\n        /* \"#utility.yul\":20630:20702   */\n      tag_571\n        /* \"#utility.yul\":20698:20700   */\n      0x40\n        /* \"#utility.yul\":20687:20696   */\n      dup4\n        /* \"#utility.yul\":20683:20701   */\n      add\n        /* \"#utility.yul\":20674:20680   */\n      dup6\n        /* \"#utility.yul\":20630:20702   */\n      tag_332\n      jump\t// in\n    tag_571:\n        /* \"#utility.yul\":20712:20784   */\n      tag_572\n        /* \"#utility.yul\":20780:20782   */\n      0x60\n        /* \"#utility.yul\":20769:20778   */\n      dup4\n        /* \"#utility.yul\":20765:20783   */\n      add\n        /* \"#utility.yul\":20756:20762   */\n      dup5\n        /* \"#utility.yul\":20712:20784   */\n      tag_322\n      jump\t// in\n    tag_572:\n        /* \"#utility.yul\":20087:20791   */\n      swap6\n      swap5\n      pop\n      pop\n      pop\n      pop\n      pop\n      jump\t// out\n\n    auxdata: 0xa2646970667358221220339bd23408ca3fd2f17a5d1d8637845d237478f0b8bea19aca82fe4314cb11cb64736f6c634300081a0033\n}\n",
				"bytecode": {
					"linkReferences": {},
					"object": "610120604052348015610010575f80fd5b50604051612d39380380612d39833981810160405281019061003291906103d4565b855f73ffffffffffffffffffffffffffffffffffffffff168173ffffffffffffffffffffffffffffffffffffffff16036100a3575f6040517f1e4fbdf700000000000000000000000000000000000000000000000000000000815260040161009a919061046c565b60405180910390fd5b6100b28161028260201b60201c565b5060018081905550600a8210806100c95750600181105b156100ff576040517e01d65100000000000000000000000000000000000000000000000000000000815260040160405180910390fd5b620f42408261010e91906104b2565b60808181525050620f42408161012491906104b2565b60a081815250508373ffffffffffffffffffffffffffffffffffffffff1660c08173ffffffffffffffffffffffffffffffffffffffff16815250508473ffffffffffffffffffffffffffffffffffffffff1660e08173ffffffffffffffffffffffffffffffffffffffff16815250508273ffffffffffffffffffffffffffffffffffffffff166101008173ffffffffffffffffffffffffffffffffffffffff16815250506101005173ffffffffffffffffffffffffffffffffffffffff1663c45a01556040518163ffffffff1660e01b8152600401602060405180830381865afa158015610214573d5f803e3d5ffd5b505050506040513d601f19601f8201168201806040525081019061023891906104f3565b60055f6101000a81548173ffffffffffffffffffffffffffffffffffffffff021916908373ffffffffffffffffffffffffffffffffffffffff16021790555050505050505061051e565b5f805f9054906101000a900473ffffffffffffffffffffffffffffffffffffffff169050815f806101000a81548173ffffffffffffffffffffffffffffffffffffffff021916908373ffffffffffffffffffffffffffffffffffffffff1602179055508173ffffffffffffffffffffffffffffffffffffffff168173ffffffffffffffffffffffffffffffffffffffff167f8be0079c531659141344cd1fd0a4f28419497f9722a3daafe3b4186f6b6457e060405160405180910390a35050565b5f80fd5b5f73ffffffffffffffffffffffffffffffffffffffff82169050919050565b5f61037082610347565b9050919050565b61038081610366565b811461038a575f80fd5b50565b5f8151905061039b81610377565b92915050565b5f819050919050565b6103b3816103a1565b81146103bd575f80fd5b50565b5f815190506103ce816103aa565b92915050565b5f805f805f8060c087890312156103ee576103ed610343565b5b5f6103fb89828a0161038d565b965050602061040c89828a0161038d565b955050604061041d89828a0161038d565b945050606061042e89828a0161038d565b935050608061043f89828a016103c0565b92505060a061045089828a016103c0565b9150509295509295509295565b61046681610366565b82525050565b5f60208201905061047f5f83018461045d565b92915050565b7f4e487b71000000000000000000000000000000000000000000000000000000005f52601160045260245ffd5b5f6104bc826103a1565b91506104c7836103a1565b92508282026104d5816103a1565b915082820484148315176104ec576104eb610485565b5b5092915050565b5f6020828403121561050857610507610343565b5b5f6105158482850161038d565b91505092915050565b60805160a05160c05160e051610100516127286106115f395f818161099301528181610e28015261195201525f8181610c13015281816117e4015281816118750152611b5d01525f818161046f015281816106860152818161079c015281816108360152818161092401528181610a2f01528181610d7701528181610ea501528181610ff001528181611015015281816110f901528181611193015281816112880152818161166201528181611746015281816118e301526119ee01525f81816104030152610c4101525f818161066401528181610ae201528181610fcc015281816116400152611a9701526127285ff3fe6080604052600436106100f6575f3560e01c80638bdb2afa11610089578063f2fde38b11610058578063f2fde38b1461034d578063f3db702c14610375578063f6687af71461039f578063ff40e1d0146103c957610136565b80638bdb2afa146102c75780638da5cb5b146102f15780639e2b53391461031b578063d0e30db01461034357610136565b80634dbe7e92116100c55780634dbe7e92146102355780635b06dece1461025f578063715018a614610287578063735de9f71461029d57610136565b806306f69acc1461017d578063089781a9146101a757806321425ee0146101d1578063260ad389146101f957610136565b36610136576040517f336ea14200000000000000000000000000000000000000000000000000000000815260040161012d90611cc2565b60405180910390fd5b348015610141575f80fd5b506040517f336ea14200000000000000000000000000000000000000000000000000000000815260040161017490611d50565b60405180910390fd5b348015610188575f80fd5b506101916103f3565b60405161019e9190611d86565b60405180910390f35b3480156101b2575f80fd5b506101bb610401565b6040516101c89190611d86565b60405180910390f35b3480156101dc575f80fd5b506101f760048036038101906101f29190611e27565b610425565b005b348015610204575f80fd5b5061021f600480360381019061021a9190611e77565b610bfc565b60405161022c9190611d86565b60405180910390f35b348015610240575f80fd5b50610249610c11565b6040516102569190611eb1565b60405180910390f35b34801561026a575f80fd5b5061028560048036038101906102809190611eca565b610c35565b005b348015610292575f80fd5b5061029b610e13565b005b3480156102a8575f80fd5b506102b1610e26565b6040516102be9190611f50565b60405180910390f35b3480156102d2575f80fd5b506102db610e4a565b6040516102e89190611f89565b60405180910390f35b3480156102fc575f80fd5b50610305610e6f565b6040516103129190611eb1565b60405180910390f35b348015610326575f80fd5b50610341600480360381019061033c9190611fa2565b610e96565b005b61034b610f24565b005b348015610358575f80fd5b50610373600480360381019061036e9190611e77565b610f40565b005b348015610380575f80fd5b50610389610fc4565b6040516103969190611d86565b60405180910390f35b3480156103aa575f80fd5b506103b3610fca565b6040516103c09190611d86565b60405180910390f35b3480156103d4575f80fd5b506103dd610fee565b6040516103ea9190612000565b60405180910390f35b5f6103fc611012565b905090565b7f000000000000000000000000000000000000000000000000000000000000000081565b61042d6110b0565b825f60055f9054906101000a900473ffffffffffffffffffffffffffffffffffffffff1673ffffffffffffffffffffffffffffffffffffffff1663e6a43905837f00000000000000000000000000000000000000000000000000000000000000006040518363ffffffff1660e01b81526004016104ab929190612019565b602060405180830381865afa1580156104c6573d5f803e3d5ffd5b505050506040513d601f19601f820116820180604052508101906104ea9190612054565b90505f73ffffffffffffffffffffffffffffffffffffffff168173ffffffffffffffffffffffffffffffffffffffff160361055c57816040517fe584a63f0000000000000000000000000000000000000000000000000000000081526004016105539190611eb1565b60405180910390fd5b84845f73ffffffffffffffffffffffffffffffffffffffff168273ffffffffffffffffffffffffffffffffffffffff1614610653575f829050818173ffffffffffffffffffffffffffffffffffffffff1663dd62ed3e33306040518363ffffffff1660e01b81526004016105d1929190612019565b602060405180830381865afa1580156105ec573d5f803e3d5ffd5b505050506040513d601f19601f820116820180604052508101906106109190612093565b1015610651576040517f336ea1420000000000000000000000000000000000000000000000000000000081526004016106489061212e565b60405180910390fd5b505b86865f61066083836110f6565b90507f0000000000000000000000000000000000000000000000000000000000000000817f000000000000000000000000000000000000000000000000000000000000000073ffffffffffffffffffffffffffffffffffffffff166370a08231306040518263ffffffff1660e01b81526004016106dd9190611eb1565b602060405180830381865afa1580156106f8573d5f803e3d5ffd5b505050506040513d601f19601f8201168201806040525081019061071c9190612093565b6107269190612179565b1115610767576040517fa2d2e1b200000000000000000000000000000000000000000000000000000000815260040161075e906121f6565b60405180910390fd5b5f8a905061079833308c8473ffffffffffffffffffffffffffffffffffffffff16611360909392919063ffffffff16565b5f807f000000000000000000000000000000000000000000000000000000000000000073ffffffffffffffffffffffffffffffffffffffff166370a08231306040518263ffffffff1660e01b81526004016107f39190611eb1565b602060405180830381865afa15801561080e573d5f803e3d5ffd5b505050506040513d601f19601f820116820180604052508101906108329190612093565b90507f000000000000000000000000000000000000000000000000000000000000000073ffffffffffffffffffffffffffffffffffffffff168d73ffffffffffffffffffffffffffffffffffffffff1614610adc575f600267ffffffffffffffff8111156108a3576108a2612214565b5b6040519080825280602002602001820160405280156108d15781602001602082028036833780820191505090505b5090508d815f815181106108e8576108e7612241565b5b602002602001019073ffffffffffffffffffffffffffffffffffffffff16908173ffffffffffffffffffffffffffffffffffffffff16815250507f00000000000000000000000000000000000000000000000000000000000000008160018151811061095757610956612241565b5b602002602001019073ffffffffffffffffffffffffffffffffffffffff16908173ffffffffffffffffffffffffffffffffffffffff16815250507f000000000000000000000000000000000000000000000000000000000000000073ffffffffffffffffffffffffffffffffffffffff16635c11d7958e8e843061012c426109df9190612179565b6040518663ffffffff1660e01b81526004016109ff959493929190612325565b5f604051808303815f87803b158015610a16575f80fd5b505af1158015610a28573d5f803e3d5ffd5b505050505f7f000000000000000000000000000000000000000000000000000000000000000073ffffffffffffffffffffffffffffffffffffffff166370a08231306040518263ffffffff1660e01b8152600401610a869190611eb1565b602060405180830381865afa158015610aa1573d5f803e3d5ffd5b505050506040513d601f19601f82011682018060405250810190610ac59190612093565b90508281610ad3919061237d565b93505050610ae0565b8b91505b7f00000000000000000000000000000000000000000000000000000000000000008282610b0d9190612179565b1115610b4e576040517fa2d2e1b2000000000000000000000000000000000000000000000000000000008152600401610b45906121f6565b60405180910390fd5b8160025f3373ffffffffffffffffffffffffffffffffffffffff1673ffffffffffffffffffffffffffffffffffffffff1681526020019081526020015f205f828254610b9a9190612179565b92505081905550610bac60018e6113e2565b7f7b7cd0ddbbea241880e825e1eb51c30752cb96dd7efeb4be691ec55dfa4d89633383604051610bdd9291906123b0565b60405180910390a150505050505050505050610bf761145f565b505050565b6003602052805f5260405f205f915090505481565b7f000000000000000000000000000000000000000000000000000000000000000081565b610c3d6110b0565b80807f00000000000000000000000000000000000000000000000000000000000000001015610ca1576040517f0fc05174000000000000000000000000000000000000000000000000000000008152600401610c9890612447565b60405180910390fd5b8060025f3373ffffffffffffffffffffffffffffffffffffffff1673ffffffffffffffffffffffffffffffffffffffff1681526020019081526020015f20541015610d21576040517fe7fe37fb000000000000000000000000000000000000000000000000000000008152600401610d18906124af565b60405180910390fd5b8160025f3373ffffffffffffffffffffffffffffffffffffffff1673ffffffffffffffffffffffffffffffffffffffff1681526020019081526020015f205f828254610d6d919061237d565b925050819055505f7f00000000000000000000000000000000000000000000000000000000000000009050610da25f826113e2565b610dcd33848373ffffffffffffffffffffffffffffffffffffffff166114689092919063ffffffff16565b7f1ff21e81cff87fccbac096ad565f52cb1b358db04a736a6a137cceb4a287a7023384604051610dfe9291906123b0565b60405180910390a15050610e1061145f565b50565b610e1b6114e7565b610e245f61156e565b565b7f000000000000000000000000000000000000000000000000000000000000000081565b60055f9054906101000a900473ffffffffffffffffffffffffffffffffffffffff1681565b5f805f9054906101000a900473ffffffffffffffffffffffffffffffffffffffff16905090565b610e9e6114e7565b610ee981837f000000000000000000000000000000000000000000000000000000000000000073ffffffffffffffffffffffffffffffffffffffff166114689092919063ffffffff16565b7fbb8f0afef873e84feb2f1167dd70a028e4f9ada114828481f03ed1255aa0f54182604051610f189190611d86565b60405180910390a15050565b610f2c6110b0565b610f36333461162f565b610f3e61145f565b565b610f486114e7565b5f73ffffffffffffffffffffffffffffffffffffffff168173ffffffffffffffffffffffffffffffffffffffff1603610fb8575f6040517f1e4fbdf7000000000000000000000000000000000000000000000000000000008152600401610faf9190611eb1565b60405180910390fd5b610fc18161156e565b50565b60045481565b7f000000000000000000000000000000000000000000000000000000000000000081565b7f000000000000000000000000000000000000000000000000000000000000000081565b5f7f000000000000000000000000000000000000000000000000000000000000000073ffffffffffffffffffffffffffffffffffffffff166370a08231306040518263ffffffff1660e01b815260040161106c9190611eb1565b602060405180830381865afa158015611087573d5f803e3d5ffd5b505050506040513d601f19601f820116820180604052508101906110ab9190612093565b905090565b6002600154036110ec576040517f3ee5aeb500000000000000000000000000000000000000000000000000000000815260040160405180910390fd5b6002600181905550565b5f7f000000000000000000000000000000000000000000000000000000000000000073ffffffffffffffffffffffffffffffffffffffff168373ffffffffffffffffffffffffffffffffffffffff16036111525781905061135a565b5f60055f9054906101000a900473ffffffffffffffffffffffffffffffffffffffff1673ffffffffffffffffffffffffffffffffffffffff1663e6a43905857f00000000000000000000000000000000000000000000000000000000000000006040518363ffffffff1660e01b81526004016111cf929190612019565b602060405180830381865afa1580156111ea573d5f803e3d5ffd5b505050506040513d601f19601f8201168201806040525081019061120e9190612054565b90505f808273ffffffffffffffffffffffffffffffffffffffff16630902f1ac6040518163ffffffff1660e01b8152600401606060405180830381865afa15801561125b573d5f803e3d5ffd5b505050506040513d601f19601f8201168201806040525081019061127f9190612549565b50915091505f807f000000000000000000000000000000000000000000000000000000000000000073ffffffffffffffffffffffffffffffffffffffff168873ffffffffffffffffffffffffffffffffffffffff16106112e05782846112e3565b83835b915091505f6103e5886112f69190612599565b90505f826dffffffffffffffffffffffffffff16826113159190612599565b90505f826103e88661132791906125da565b6dffffffffffffffffffffffffffff166113419190612179565b9050808261134f9190612643565b985050505050505050505b92915050565b6113dc848573ffffffffffffffffffffffffffffffffffffffff166323b872dd86868660405160240161139593929190612673565b604051602081830303815290604052915060e01b6020820180517bffffffffffffffffffffffffffffffffffffffffffffffffffffffff8381831617835250505050611bc6565b50505050565b811561144157600160035f8373ffffffffffffffffffffffffffffffffffffffff1673ffffffffffffffffffffffffffffffffffffffff1681526020019081526020015f205f8282546114359190612179565b9250508190555061145b565b600160045f8282546114539190612179565b925050819055505b5050565b60018081905550565b6114e2838473ffffffffffffffffffffffffffffffffffffffff1663a9059cbb858560405160240161149b9291906123b0565b604051602081830303815290604052915060e01b6020820180517bffffffffffffffffffffffffffffffffffffffffffffffffffffffff8381831617835250505050611bc6565b505050565b6114ef611c61565b73ffffffffffffffffffffffffffffffffffffffff1661150d610e6f565b73ffffffffffffffffffffffffffffffffffffffff161461156c57611530611c61565b6040517f118cdaa70000000000000000000000000000000000000000000000000000000081526004016115639190611eb1565b60405180910390fd5b565b5f805f9054906101000a900473ffffffffffffffffffffffffffffffffffffffff169050815f806101000a81548173ffffffffffffffffffffffffffffffffffffffff021916908373ffffffffffffffffffffffffffffffffffffffff1602179055508173ffffffffffffffffffffffffffffffffffffffff168173ffffffffffffffffffffffffffffffffffffffff167f8be0079c531659141344cd1fd0a4f28419497f9722a3daafe3b4186f6b6457e060405160405180910390a35050565b5f815f61163c83836110f6565b90507f0000000000000000000000000000000000000000000000000000000000000000817f000000000000000000000000000000000000000000000000000000000000000073ffffffffffffffffffffffffffffffffffffffff166370a08231306040518263ffffffff1660e01b81526004016116b99190611eb1565b602060405180830381865afa1580156116d4573d5f803e3d5ffd5b505050506040513d601f19601f820116820180604052508101906116f89190612093565b6117029190612179565b1115611743576040517fa2d2e1b200000000000000000000000000000000000000000000000000000000815260040161173a906121f6565b60405180910390fd5b5f7f000000000000000000000000000000000000000000000000000000000000000073ffffffffffffffffffffffffffffffffffffffff166370a08231306040518263ffffffff1660e01b815260040161179d9190611eb1565b602060405180830381865afa1580156117b8573d5f803e3d5ffd5b505050506040513d601f19601f820116820180604052508101906117dc9190612093565b90505f6118097f0000000000000000000000000000000000000000000000000000000000000000876110f6565b9050606460638261181a9190612599565b6118249190612643565b90505f600267ffffffffffffffff81111561184257611841612214565b5b6040519080825280602002602001820160405280156118705781602001602082028036833780820191505090505b5090507f0000000000000000000000000000000000000000000000000000000000000000815f815181106118a7576118a6612241565b5b602002602001019073ffffffffffffffffffffffffffffffffffffffff16908173ffffffffffffffffffffffffffffffffffffffff16815250507f00000000000000000000000000000000000000000000000000000000000000008160018151811061191657611915612241565b5b602002602001019073ffffffffffffffffffffffffffffffffffffffff16908173ffffffffffffffffffffffffffffffffffffffff16815250507f000000000000000000000000000000000000000000000000000000000000000073ffffffffffffffffffffffffffffffffffffffff1663b6f9de958884843061012c4261199e9190612179565b6040518663ffffffff1660e01b81526004016119bd94939291906126a8565b5f604051808303818588803b1580156119d4575f80fd5b505af11580156119e6573d5f803e3d5ffd5b50505050505f7f000000000000000000000000000000000000000000000000000000000000000073ffffffffffffffffffffffffffffffffffffffff166370a08231306040518263ffffffff1660e01b8152600401611a459190611eb1565b602060405180830381865afa158015611a60573d5f803e3d5ffd5b505050506040513d601f19601f82011682018060405250810190611a849190612093565b90505f8482611a93919061237d565b90507f00000000000000000000000000000000000000000000000000000000000000008186611ac29190612179565b1115611b03576040517fa2d2e1b2000000000000000000000000000000000000000000000000000000008152600401611afa906121f6565b60405180910390fd5b8060025f8c73ffffffffffffffffffffffffffffffffffffffff1673ffffffffffffffffffffffffffffffffffffffff1681526020019081526020015f205f828254611b4f9190612179565b92505081905550611b8160017f00000000000000000000000000000000000000000000000000000000000000006113e2565b7f7b7cd0ddbbea241880e825e1eb51c30752cb96dd7efeb4be691ec55dfa4d89638a82604051611bb29291906123b0565b60405180910390a150505050505050505050565b5f8060205f8451602086015f885af180611be5576040513d5f823e3d81fd5b3d92505f519150505f8214611bfe576001811415611c19565b5f8473ffffffffffffffffffffffffffffffffffffffff163b145b15611c5b57836040517f5274afe7000000000000000000000000000000000000000000000000000000008152600401611c529190611eb1565b60405180910390fd5b50505050565b5f33905090565b5f82825260208201905092915050565b7f557365206465706f73697420666f7220455448206465706f73697400000000005f82015250565b5f611cac601b83611c68565b9150611cb782611c78565b602082019050919050565b5f6020820190508181035f830152611cd981611ca0565b9050919050565b7f4f7065726174696f6e20646f6573206e6f7420657869737473206f72206461745f8201527f612077617320696e636f72726563740000000000000000000000000000000000602082015250565b5f611d3a602f83611c68565b9150611d4582611ce0565b604082019050919050565b5f6020820190508181035f830152611d6781611d2e565b9050919050565b5f819050919050565b611d8081611d6e565b82525050565b5f602082019050611d995f830184611d77565b92915050565b5f80fd5b5f73ffffffffffffffffffffffffffffffffffffffff82169050919050565b5f611dcc82611da3565b9050919050565b611ddc81611dc2565b8114611de6575f80fd5b50565b5f81359050611df781611dd3565b92915050565b611e0681611d6e565b8114611e10575f80fd5b50565b5f81359050611e2181611dfd565b92915050565b5f805f60608486031215611e3e57611e3d611d9f565b5b5f611e4b86828701611de9565b9350506020611e5c86828701611e13565b9250506040611e6d86828701611e13565b9150509250925092565b5f60208284031215611e8c57611e8b611d9f565b5b5f611e9984828501611de9565b91505092915050565b611eab81611dc2565b82525050565b5f602082019050611ec45f830184611ea2565b92915050565b5f60208284031215611edf57611ede611d9f565b5b5f611eec84828501611e13565b91505092915050565b5f819050919050565b5f611f18611f13611f0e84611da3565b611ef5565b611da3565b9050919050565b5f611f2982611efe565b9050919050565b5f611f3a82611f1f565b9050919050565b611f4a81611f30565b82525050565b5f602082019050611f635f830184611f41565b92915050565b5f611f7382611f1f565b9050919050565b611f8381611f69565b82525050565b5f602082019050611f9c5f830184611f7a565b92915050565b5f8060408385031215611fb857611fb7611d9f565b5b5f611fc585828601611e13565b9250506020611fd685828601611de9565b9150509250929050565b5f611fea82611f1f565b9050919050565b611ffa81611fe0565b82525050565b5f6020820190506120135f830184611ff1565b92915050565b5f60408201905061202c5f830185611ea2565b6120396020830184611ea2565b9392505050565b5f8151905061204e81611dd3565b92915050565b5f6020828403121561206957612068611d9f565b5b5f61207684828501612040565b91505092915050565b5f8151905061208d81611dfd565b92915050565b5f602082840312156120a8576120a7611d9f565b5b5f6120b58482850161207f565b91505092915050565b7f45524332303a20496e73756666696369656e7420616c6c6f77616e636520666f5f8201527f72207472616e7366657246726f6d000000000000000000000000000000000000602082015250565b5f612118602e83611c68565b9150612123826120be565b604082019050919050565b5f6020820190508181035f8301526121458161210c565b9050919050565b7f4e487b71000000000000000000000000000000000000000000000000000000005f52601160045260245ffd5b5f61218382611d6e565b915061218e83611d6e565b92508282019050808211156121a6576121a561214c565b5b92915050565b7f546f74616c204b69707542616e6b27732066756e6473206578636565646564005f82015250565b5f6121e0601f83611c68565b91506121eb826121ac565b602082019050919050565b5f6020820190508181035f83015261220d816121d4565b9050919050565b7f4e487b71000000000000000000000000000000000000000000000000000000005f52604160045260245ffd5b7f4e487b71000000000000000000000000000000000000000000000000000000005f52603260045260245ffd5b5f81519050919050565b5f82825260208201905092915050565b5f819050602082019050919050565b6122a081611dc2565b82525050565b5f6122b18383612297565b60208301905092915050565b5f602082019050919050565b5f6122d38261226e565b6122dd8185612278565b93506122e883612288565b805f5b838110156123185781516122ff88826122a6565b975061230a836122bd565b9250506001810190506122eb565b5085935050505092915050565b5f60a0820190506123385f830188611d77565b6123456020830187611d77565b818103604083015261235781866122c9565b90506123666060830185611ea2565b6123736080830184611d77565b9695505050505050565b5f61238782611d6e565b915061239283611d6e565b92508282039050818111156123aa576123a961214c565b5b92915050565b5f6040820190506123c35f830185611ea2565b6123d06020830184611d77565b9392505050565b7f416d6f756e74206578636565647320746865206d6178696d756d2077697468645f8201527f726177616c000000000000000000000000000000000000000000000000000000602082015250565b5f612431602583611c68565b915061243c826123d7565b604082019050919050565b5f6020820190508181035f83015261245e81612425565b9050919050565b7f4e6f7420656e6f75676820666f756e64730000000000000000000000000000005f82015250565b5f612499601183611c68565b91506124a482612465565b602082019050919050565b5f6020820190508181035f8301526124c68161248d565b9050919050565b5f6dffffffffffffffffffffffffffff82169050919050565b6124ef816124cd565b81146124f9575f80fd5b50565b5f8151905061250a816124e6565b92915050565b5f63ffffffff82169050919050565b61252881612510565b8114612532575f80fd5b50565b5f815190506125438161251f565b92915050565b5f805f606084860312156125605761255f611d9f565b5b5f61256d868287016124fc565b935050602061257e868287016124fc565b925050604061258f86828701612535565b9150509250925092565b5f6125a382611d6e565b91506125ae83611d6e565b92508282026125bc81611d6e565b915082820484148315176125d3576125d261214c565b5b5092915050565b5f6125e4826124cd565b91506125ef836124cd565b92508282026125fd816124cd565b915080821461260f5761260e61214c565b5b5092915050565b7f4e487b71000000000000000000000000000000000000000000000000000000005f52601260045260245ffd5b5f61264d82611d6e565b915061265883611d6e565b92508261266857612667612616565b5b828204905092915050565b5f6060820190506126865f830186611ea2565b6126936020830185611ea2565b6126a06040830184611d77565b949350505050565b5f6080820190506126bb5f830187611d77565b81810360208301526126cd81866122c9565b90506126dc6040830185611ea2565b6126e96060830184611d77565b9594505050505056fea2646970667358221220339bd23408ca3fd2f17a5d1d8637845d237478f0b8bea19aca82fe4314cb11cb64736f6c634300081a0033",
					"opcodes": "PUSH2 0x120 PUSH1 0x40 MSTORE CALLVALUE DUP1 ISZERO PUSH2 0x10 JUMPI PUSH0 DUP1 REVERT JUMPDEST POP PUSH1 0x40 MLOAD PUSH2 0x2D39 CODESIZE SUB DUP1 PUSH2 0x2D39 DUP4 CODECOPY DUP2 DUP2 ADD PUSH1 0x40 MSTORE DUP2 ADD SWAP1 PUSH2 0x32 SWAP2 SWAP1 PUSH2 0x3D4 JUMP JUMPDEST DUP6 PUSH0 PUSH20 0xFFFFFFFFFFFFFFFFFFFFFFFFFFFFFFFFFFFFFFFF AND DUP2 PUSH20 0xFFFFFFFFFFFFFFFFFFFFFFFFFFFFFFFFFFFFFFFF AND SUB PUSH2 0xA3 JUMPI PUSH0 PUSH1 0x40 MLOAD PUSH32 0x1E4FBDF700000000000000000000000000000000000000000000000000000000 DUP2 MSTORE PUSH1 0x4 ADD PUSH2 0x9A SWAP2 SWAP1 PUSH2 0x46C JUMP JUMPDEST PUSH1 0x40 MLOAD DUP1 SWAP2 SUB SWAP1 REVERT JUMPDEST PUSH2 0xB2 DUP2 PUSH2 0x282 PUSH1 0x20 SHL PUSH1 0x20 SHR JUMP JUMPDEST POP PUSH1 0x1 DUP1 DUP2 SWAP1 SSTORE POP PUSH1 0xA DUP3 LT DUP1 PUSH2 0xC9 JUMPI POP PUSH1 0x1 DUP2 LT JUMPDEST ISZERO PUSH2 0xFF JUMPI PUSH1 0x40 MLOAD PUSH31 0x1D65100000000000000000000000000000000000000000000000000000000 DUP2 MSTORE PUSH1 0x4 ADD PUSH1 0x40 MLOAD DUP1 SWAP2 SUB SWAP1 REVERT JUMPDEST PUSH3 0xF4240 DUP3 PUSH2 0x10E SWAP2 SWAP1 PUSH2 0x4B2 JUMP JUMPDEST PUSH1 0x80 DUP2 DUP2 MSTORE POP POP PUSH3 0xF4240 DUP2 PUSH2 0x124 SWAP2 SWAP1 PUSH2 0x4B2 JUMP JUMPDEST PUSH1 0xA0 DUP2 DUP2 MSTORE POP POP DUP4 PUSH20 0xFFFFFFFFFFFFFFFFFFFFFFFFFFFFFFFFFFFFFFFF AND PUSH1 0xC0 DUP2 PUSH20 0xFFFFFFFFFFFFFFFFFFFFFFFFFFFFFFFFFFFFFFFF AND DUP2 MSTORE POP POP DUP5 PUSH20 0xFFFFFFFFFFFFFFFFFFFFFFFFFFFFFFFFFFFFFFFF AND PUSH1 0xE0 DUP2 PUSH20 0xFFFFFFFFFFFFFFFFFFFFFFFFFFFFFFFFFFFFFFFF AND DUP2 MSTORE POP POP DUP3 PUSH20 0xFFFFFFFFFFFFFFFFFFFFFFFFFFFFFFFFFFFFFFFF AND PUSH2 0x100 DUP2 PUSH20 0xFFFFFFFFFFFFFFFFFFFFFFFFFFFFFFFFFFFFFFFF AND DUP2 MSTORE POP POP PUSH2 0x100 MLOAD PUSH20 0xFFFFFFFFFFFFFFFFFFFFFFFFFFFFFFFFFFFFFFFF AND PUSH4 0xC45A0155 PUSH1 0x40 MLOAD DUP2 PUSH4 0xFFFFFFFF AND PUSH1 0xE0 SHL DUP2 MSTORE PUSH1 0x4 ADD PUSH1 0x20 PUSH1 0x40 MLOAD DUP1 DUP4 SUB DUP2 DUP7 GAS STATICCALL ISZERO DUP1 ISZERO PUSH2 0x214 JUMPI RETURNDATASIZE PUSH0 DUP1 RETURNDATACOPY RETURNDATASIZE PUSH0 REVERT JUMPDEST POP POP POP POP PUSH1 0x40 MLOAD RETURNDATASIZE PUSH1 0x1F NOT PUSH1 0x1F DUP3 ADD AND DUP3 ADD DUP1 PUSH1 0x40 MSTORE POP DUP2 ADD SWAP1 PUSH2 0x238 SWAP2 SWAP1 PUSH2 0x4F3 JUMP JUMPDEST PUSH1 0x5 PUSH0 PUSH2 0x100 EXP DUP2 SLOAD DUP2 PUSH20 0xFFFFFFFFFFFFFFFFFFFFFFFFFFFFFFFFFFFFFFFF MUL NOT AND SWAP1 DUP4 PUSH20 0xFFFFFFFFFFFFFFFFFFFFFFFFFFFFFFFFFFFFFFFF AND MUL OR SWAP1 SSTORE POP POP POP POP POP POP POP PUSH2 0x51E JUMP JUMPDEST PUSH0 DUP1 PUSH0 SWAP1 SLOAD SWAP1 PUSH2 0x100 EXP SWAP1 DIV PUSH20 0xFFFFFFFFFFFFFFFFFFFFFFFFFFFFFFFFFFFFFFFF AND SWAP1 POP DUP2 PUSH0 DUP1 PUSH2 0x100 EXP DUP2 SLOAD DUP2 PUSH20 0xFFFFFFFFFFFFFFFFFFFFFFFFFFFFFFFFFFFFFFFF MUL NOT AND SWAP1 DUP4 PUSH20 0xFFFFFFFFFFFFFFFFFFFFFFFFFFFFFFFFFFFFFFFF AND MUL OR SWAP1 SSTORE POP DUP2 PUSH20 0xFFFFFFFFFFFFFFFFFFFFFFFFFFFFFFFFFFFFFFFF AND DUP2 PUSH20 0xFFFFFFFFFFFFFFFFFFFFFFFFFFFFFFFFFFFFFFFF AND PUSH32 0x8BE0079C531659141344CD1FD0A4F28419497F9722A3DAAFE3B4186F6B6457E0 PUSH1 0x40 MLOAD PUSH1 0x40 MLOAD DUP1 SWAP2 SUB SWAP1 LOG3 POP POP JUMP JUMPDEST PUSH0 DUP1 REVERT JUMPDEST PUSH0 PUSH20 0xFFFFFFFFFFFFFFFFFFFFFFFFFFFFFFFFFFFFFFFF DUP3 AND SWAP1 POP SWAP2 SWAP1 POP JUMP JUMPDEST PUSH0 PUSH2 0x370 DUP3 PUSH2 0x347 JUMP JUMPDEST SWAP1 POP SWAP2 SWAP1 POP JUMP JUMPDEST PUSH2 0x380 DUP2 PUSH2 0x366 JUMP JUMPDEST DUP2 EQ PUSH2 0x38A JUMPI PUSH0 DUP1 REVERT JUMPDEST POP JUMP JUMPDEST PUSH0 DUP2 MLOAD SWAP1 POP PUSH2 0x39B DUP2 PUSH2 0x377 JUMP JUMPDEST SWAP3 SWAP2 POP POP JUMP JUMPDEST PUSH0 DUP2 SWAP1 POP SWAP2 SWAP1 POP JUMP JUMPDEST PUSH2 0x3B3 DUP2 PUSH2 0x3A1 JUMP JUMPDEST DUP2 EQ PUSH2 0x3BD JUMPI PUSH0 DUP1 REVERT JUMPDEST POP JUMP JUMPDEST PUSH0 DUP2 MLOAD SWAP1 POP PUSH2 0x3CE DUP2 PUSH2 0x3AA JUMP JUMPDEST SWAP3 SWAP2 POP POP JUMP JUMPDEST PUSH0 DUP1 PUSH0 DUP1 PUSH0 DUP1 PUSH1 0xC0 DUP8 DUP10 SUB SLT ISZERO PUSH2 0x3EE JUMPI PUSH2 0x3ED PUSH2 0x343 JUMP JUMPDEST JUMPDEST PUSH0 PUSH2 0x3FB DUP10 DUP3 DUP11 ADD PUSH2 0x38D JUMP JUMPDEST SWAP7 POP POP PUSH1 0x20 PUSH2 0x40C DUP10 DUP3 DUP11 ADD PUSH2 0x38D JUMP JUMPDEST SWAP6 POP POP PUSH1 0x40 PUSH2 0x41D DUP10 DUP3 DUP11 ADD PUSH2 0x38D JUMP JUMPDEST SWAP5 POP POP PUSH1 0x60 PUSH2 0x42E DUP10 DUP3 DUP11 ADD PUSH2 0x38D JUMP JUMPDEST SWAP4 POP POP PUSH1 0x80 PUSH2 0x43F DUP10 DUP3 DUP11 ADD PUSH2 0x3C0 JUMP JUMPDEST SWAP3 POP POP PUSH1 0xA0 PUSH2 0x450 DUP10 DUP3 DUP11 ADD PUSH2 0x3C0 JUMP JUMPDEST SWAP2 POP POP SWAP3 SWAP6 POP SWAP3 SWAP6 POP SWAP3 SWAP6 JUMP JUMPDEST PUSH2 0x466 DUP2 PUSH2 0x366 JUMP JUMPDEST DUP3 MSTORE POP POP JUMP JUMPDEST PUSH0 PUSH1 0x20 DUP3 ADD SWAP1 POP PUSH2 0x47F PUSH0 DUP4 ADD DUP5 PUSH2 0x45D JUMP JUMPDEST SWAP3 SWAP2 POP POP JUMP JUMPDEST PUSH32 0x4E487B7100000000000000000000000000000000000000000000000000000000 PUSH0 MSTORE PUSH1 0x11 PUSH1 0x4 MSTORE PUSH1 0x24 PUSH0 REVERT JUMPDEST PUSH0 PUSH2 0x4BC DUP3 PUSH2 0x3A1 JUMP JUMPDEST SWAP2 POP PUSH2 0x4C7 DUP4 PUSH2 0x3A1 JUMP JUMPDEST SWAP3 POP DUP3 DUP3 MUL PUSH2 0x4D5 DUP2 PUSH2 0x3A1 JUMP JUMPDEST SWAP2 POP DUP3 DUP3 DIV DUP5 EQ DUP4 ISZERO OR PUSH2 0x4EC JUMPI PUSH2 0x4EB PUSH2 0x485 JUMP JUMPDEST JUMPDEST POP SWAP3 SWAP2 POP POP JUMP JUMPDEST PUSH0 PUSH1 0x20 DUP3 DUP5 SUB SLT ISZERO PUSH2 0x508 JUMPI PUSH2 0x507 PUSH2 0x343 JUMP JUMPDEST JUMPDEST PUSH0 PUSH2 0x515 DUP5 DUP3 DUP6 ADD PUSH2 0x38D JUMP JUMPDEST SWAP2 POP POP SWAP3 SWAP2 POP POP JUMP JUMPDEST PUSH1 0x80 MLOAD PUSH1 0xA0 MLOAD PUSH1 0xC0 MLOAD PUSH1 0xE0 MLOAD PUSH2 0x100 MLOAD PUSH2 0x2728 PUSH2 0x611 PUSH0 CODECOPY PUSH0 DUP2 DUP2 PUSH2 0x993 ADD MSTORE DUP2 DUP2 PUSH2 0xE28 ADD MSTORE PUSH2 0x1952 ADD MSTORE PUSH0 DUP2 DUP2 PUSH2 0xC13 ADD MSTORE DUP2 DUP2 PUSH2 0x17E4 ADD MSTORE DUP2 DUP2 PUSH2 0x1875 ADD MSTORE PUSH2 0x1B5D ADD MSTORE PUSH0 DUP2 DUP2 PUSH2 0x46F ADD MSTORE DUP2 DUP2 PUSH2 0x686 ADD MSTORE DUP2 DUP2 PUSH2 0x79C ADD MSTORE DUP2 DUP2 PUSH2 0x836 ADD MSTORE DUP2 DUP2 PUSH2 0x924 ADD MSTORE DUP2 DUP2 PUSH2 0xA2F ADD MSTORE DUP2 DUP2 PUSH2 0xD77 ADD MSTORE DUP2 DUP2 PUSH2 0xEA5 ADD MSTORE DUP2 DUP2 PUSH2 0xFF0 ADD MSTORE DUP2 DUP2 PUSH2 0x1015 ADD MSTORE DUP2 DUP2 PUSH2 0x10F9 ADD MSTORE DUP2 DUP2 PUSH2 0x1193 ADD MSTORE DUP2 DUP2 PUSH2 0x1288 ADD MSTORE DUP2 DUP2 PUSH2 0x1662 ADD MSTORE DUP2 DUP2 PUSH2 0x1746 ADD MSTORE DUP2 DUP2 PUSH2 0x18E3 ADD MSTORE PUSH2 0x19EE ADD MSTORE PUSH0 DUP2 DUP2 PUSH2 0x403 ADD MSTORE PUSH2 0xC41 ADD MSTORE PUSH0 DUP2 DUP2 PUSH2 0x664 ADD MSTORE DUP2 DUP2 PUSH2 0xAE2 ADD MSTORE DUP2 DUP2 PUSH2 0xFCC ADD MSTORE DUP2 DUP2 PUSH2 0x1640 ADD MSTORE PUSH2 0x1A97 ADD MSTORE PUSH2 0x2728 PUSH0 RETURN INVALID PUSH1 0x80 PUSH1 0x40 MSTORE PUSH1 0x4 CALLDATASIZE LT PUSH2 0xF6 JUMPI PUSH0 CALLDATALOAD PUSH1 0xE0 SHR DUP1 PUSH4 0x8BDB2AFA GT PUSH2 0x89 JUMPI DUP1 PUSH4 0xF2FDE38B GT PUSH2 0x58 JUMPI DUP1 PUSH4 0xF2FDE38B EQ PUSH2 0x34D JUMPI DUP1 PUSH4 0xF3DB702C EQ PUSH2 0x375 JUMPI DUP1 PUSH4 0xF6687AF7 EQ PUSH2 0x39F JUMPI DUP1 PUSH4 0xFF40E1D0 EQ PUSH2 0x3C9 JUMPI PUSH2 0x136 JUMP JUMPDEST DUP1 PUSH4 0x8BDB2AFA EQ PUSH2 0x2C7 JUMPI DUP1 PUSH4 0x8DA5CB5B EQ PUSH2 0x2F1 JUMPI DUP1 PUSH4 0x9E2B5339 EQ PUSH2 0x31B JUMPI DUP1 PUSH4 0xD0E30DB0 EQ PUSH2 0x343 JUMPI PUSH2 0x136 JUMP JUMPDEST DUP1 PUSH4 0x4DBE7E92 GT PUSH2 0xC5 JUMPI DUP1 PUSH4 0x4DBE7E92 EQ PUSH2 0x235 JUMPI DUP1 PUSH4 0x5B06DECE EQ PUSH2 0x25F JUMPI DUP1 PUSH4 0x715018A6 EQ PUSH2 0x287 JUMPI DUP1 PUSH4 0x735DE9F7 EQ PUSH2 0x29D JUMPI PUSH2 0x136 JUMP JUMPDEST DUP1 PUSH4 0x6F69ACC EQ PUSH2 0x17D JUMPI DUP1 PUSH4 0x89781A9 EQ PUSH2 0x1A7 JUMPI DUP1 PUSH4 0x21425EE0 EQ PUSH2 0x1D1 JUMPI DUP1 PUSH4 0x260AD389 EQ PUSH2 0x1F9 JUMPI PUSH2 0x136 JUMP JUMPDEST CALLDATASIZE PUSH2 0x136 JUMPI PUSH1 0x40 MLOAD PUSH32 0x336EA14200000000000000000000000000000000000000000000000000000000 DUP2 MSTORE PUSH1 0x4 ADD PUSH2 0x12D SWAP1 PUSH2 0x1CC2 JUMP JUMPDEST PUSH1 0x40 MLOAD DUP1 SWAP2 SUB SWAP1 REVERT JUMPDEST CALLVALUE DUP1 ISZERO PUSH2 0x141 JUMPI PUSH0 DUP1 REVERT JUMPDEST POP PUSH1 0x40 MLOAD PUSH32 0x336EA14200000000000000000000000000000000000000000000000000000000 DUP2 MSTORE PUSH1 0x4 ADD PUSH2 0x174 SWAP1 PUSH2 0x1D50 JUMP JUMPDEST PUSH1 0x40 MLOAD DUP1 SWAP2 SUB SWAP1 REVERT JUMPDEST CALLVALUE DUP1 ISZERO PUSH2 0x188 JUMPI PUSH0 DUP1 REVERT JUMPDEST POP PUSH2 0x191 PUSH2 0x3F3 JUMP JUMPDEST PUSH1 0x40 MLOAD PUSH2 0x19E SWAP2 SWAP1 PUSH2 0x1D86 JUMP JUMPDEST PUSH1 0x40 MLOAD DUP1 SWAP2 SUB SWAP1 RETURN JUMPDEST CALLVALUE DUP1 ISZERO PUSH2 0x1B2 JUMPI PUSH0 DUP1 REVERT JUMPDEST POP PUSH2 0x1BB PUSH2 0x401 JUMP JUMPDEST PUSH1 0x40 MLOAD PUSH2 0x1C8 SWAP2 SWAP1 PUSH2 0x1D86 JUMP JUMPDEST PUSH1 0x40 MLOAD DUP1 SWAP2 SUB SWAP1 RETURN JUMPDEST CALLVALUE DUP1 ISZERO PUSH2 0x1DC JUMPI PUSH0 DUP1 REVERT JUMPDEST POP PUSH2 0x1F7 PUSH1 0x4 DUP1 CALLDATASIZE SUB DUP2 ADD SWAP1 PUSH2 0x1F2 SWAP2 SWAP1 PUSH2 0x1E27 JUMP JUMPDEST PUSH2 0x425 JUMP JUMPDEST STOP JUMPDEST CALLVALUE DUP1 ISZERO PUSH2 0x204 JUMPI PUSH0 DUP1 REVERT JUMPDEST POP PUSH2 0x21F PUSH1 0x4 DUP1 CALLDATASIZE SUB DUP2 ADD SWAP1 PUSH2 0x21A SWAP2 SWAP1 PUSH2 0x1E77 JUMP JUMPDEST PUSH2 0xBFC JUMP JUMPDEST PUSH1 0x40 MLOAD PUSH2 0x22C SWAP2 SWAP1 PUSH2 0x1D86 JUMP JUMPDEST PUSH1 0x40 MLOAD DUP1 SWAP2 SUB SWAP1 RETURN JUMPDEST CALLVALUE DUP1 ISZERO PUSH2 0x240 JUMPI PUSH0 DUP1 REVERT JUMPDEST POP PUSH2 0x249 PUSH2 0xC11 JUMP JUMPDEST PUSH1 0x40 MLOAD PUSH2 0x256 SWAP2 SWAP1 PUSH2 0x1EB1 JUMP JUMPDEST PUSH1 0x40 MLOAD DUP1 SWAP2 SUB SWAP1 RETURN JUMPDEST CALLVALUE DUP1 ISZERO PUSH2 0x26A JUMPI PUSH0 DUP1 REVERT JUMPDEST POP PUSH2 0x285 PUSH1 0x4 DUP1 CALLDATASIZE SUB DUP2 ADD SWAP1 PUSH2 0x280 SWAP2 SWAP1 PUSH2 0x1ECA JUMP JUMPDEST PUSH2 0xC35 JUMP JUMPDEST STOP JUMPDEST CALLVALUE DUP1 ISZERO PUSH2 0x292 JUMPI PUSH0 DUP1 REVERT JUMPDEST POP PUSH2 0x29B PUSH2 0xE13 JUMP JUMPDEST STOP JUMPDEST CALLVALUE DUP1 ISZERO PUSH2 0x2A8 JUMPI PUSH0 DUP1 REVERT JUMPDEST POP PUSH2 0x2B1 PUSH2 0xE26 JUMP JUMPDEST PUSH1 0x40 MLOAD PUSH2 0x2BE SWAP2 SWAP1 PUSH2 0x1F50 JUMP JUMPDEST PUSH1 0x40 MLOAD DUP1 SWAP2 SUB SWAP1 RETURN JUMPDEST CALLVALUE DUP1 ISZERO PUSH2 0x2D2 JUMPI PUSH0 DUP1 REVERT JUMPDEST POP PUSH2 0x2DB PUSH2 0xE4A JUMP JUMPDEST PUSH1 0x40 MLOAD PUSH2 0x2E8 SWAP2 SWAP1 PUSH2 0x1F89 JUMP JUMPDEST PUSH1 0x40 MLOAD DUP1 SWAP2 SUB SWAP1 RETURN JUMPDEST CALLVALUE DUP1 ISZERO PUSH2 0x2FC JUMPI PUSH0 DUP1 REVERT JUMPDEST POP PUSH2 0x305 PUSH2 0xE6F JUMP JUMPDEST PUSH1 0x40 MLOAD PUSH2 0x312 SWAP2 SWAP1 PUSH2 0x1EB1 JUMP JUMPDEST PUSH1 0x40 MLOAD DUP1 SWAP2 SUB SWAP1 RETURN JUMPDEST CALLVALUE DUP1 ISZERO PUSH2 0x326 JUMPI PUSH0 DUP1 REVERT JUMPDEST POP PUSH2 0x341 PUSH1 0x4 DUP1 CALLDATASIZE SUB DUP2 ADD SWAP1 PUSH2 0x33C SWAP2 SWAP1 PUSH2 0x1FA2 JUMP JUMPDEST PUSH2 0xE96 JUMP JUMPDEST STOP JUMPDEST PUSH2 0x34B PUSH2 0xF24 JUMP JUMPDEST STOP JUMPDEST CALLVALUE DUP1 ISZERO PUSH2 0x358 JUMPI PUSH0 DUP1 REVERT JUMPDEST POP PUSH2 0x373 PUSH1 0x4 DUP1 CALLDATASIZE SUB DUP2 ADD SWAP1 PUSH2 0x36E SWAP2 SWAP1 PUSH2 0x1E77 JUMP JUMPDEST PUSH2 0xF40 JUMP JUMPDEST STOP JUMPDEST CALLVALUE DUP1 ISZERO PUSH2 0x380 JUMPI PUSH0 DUP1 REVERT JUMPDEST POP PUSH2 0x389 PUSH2 0xFC4 JUMP JUMPDEST PUSH1 0x40 MLOAD PUSH2 0x396 SWAP2 SWAP1 PUSH2 0x1D86 JUMP JUMPDEST PUSH1 0x40 MLOAD DUP1 SWAP2 SUB SWAP1 RETURN JUMPDEST CALLVALUE DUP1 ISZERO PUSH2 0x3AA JUMPI PUSH0 DUP1 REVERT JUMPDEST POP PUSH2 0x3B3 PUSH2 0xFCA JUMP JUMPDEST PUSH1 0x40 MLOAD PUSH2 0x3C0 SWAP2 SWAP1 PUSH2 0x1D86 JUMP JUMPDEST PUSH1 0x40 MLOAD DUP1 SWAP2 SUB SWAP1 RETURN JUMPDEST CALLVALUE DUP1 ISZERO PUSH2 0x3D4 JUMPI PUSH0 DUP1 REVERT JUMPDEST POP PUSH2 0x3DD PUSH2 0xFEE JUMP JUMPDEST PUSH1 0x40 MLOAD PUSH2 0x3EA SWAP2 SWAP1 PUSH2 0x2000 JUMP JUMPDEST PUSH1 0x40 MLOAD DUP1 SWAP2 SUB SWAP1 RETURN JUMPDEST PUSH0 PUSH2 0x3FC PUSH2 0x1012 JUMP JUMPDEST SWAP1 POP SWAP1 JUMP JUMPDEST PUSH32 0x0 DUP2 JUMP JUMPDEST PUSH2 0x42D PUSH2 0x10B0 JUMP JUMPDEST DUP3 PUSH0 PUSH1 0x5 PUSH0 SWAP1 SLOAD SWAP1 PUSH2 0x100 EXP SWAP1 DIV PUSH20 0xFFFFFFFFFFFFFFFFFFFFFFFFFFFFFFFFFFFFFFFF AND PUSH20 0xFFFFFFFFFFFFFFFFFFFFFFFFFFFFFFFFFFFFFFFF AND PUSH4 0xE6A43905 DUP4 PUSH32 0x0 PUSH1 0x40 MLOAD DUP4 PUSH4 0xFFFFFFFF AND PUSH1 0xE0 SHL DUP2 MSTORE PUSH1 0x4 ADD PUSH2 0x4AB SWAP3 SWAP2 SWAP1 PUSH2 0x2019 JUMP JUMPDEST PUSH1 0x20 PUSH1 0x40 MLOAD DUP1 DUP4 SUB DUP2 DUP7 GAS STATICCALL ISZERO DUP1 ISZERO PUSH2 0x4C6 JUMPI RETURNDATASIZE PUSH0 DUP1 RETURNDATACOPY RETURNDATASIZE PUSH0 REVERT JUMPDEST POP POP POP POP PUSH1 0x40 MLOAD RETURNDATASIZE PUSH1 0x1F NOT PUSH1 0x1F DUP3 ADD AND DUP3 ADD DUP1 PUSH1 0x40 MSTORE POP DUP2 ADD SWAP1 PUSH2 0x4EA SWAP2 SWAP1 PUSH2 0x2054 JUMP JUMPDEST SWAP1 POP PUSH0 PUSH20 0xFFFFFFFFFFFFFFFFFFFFFFFFFFFFFFFFFFFFFFFF AND DUP2 PUSH20 0xFFFFFFFFFFFFFFFFFFFFFFFFFFFFFFFFFFFFFFFF AND SUB PUSH2 0x55C JUMPI DUP2 PUSH1 0x40 MLOAD PUSH32 0xE584A63F00000000000000000000000000000000000000000000000000000000 DUP2 MSTORE PUSH1 0x4 ADD PUSH2 0x553 SWAP2 SWAP1 PUSH2 0x1EB1 JUMP JUMPDEST PUSH1 0x40 MLOAD DUP1 SWAP2 SUB SWAP1 REVERT JUMPDEST DUP5 DUP5 PUSH0 PUSH20 0xFFFFFFFFFFFFFFFFFFFFFFFFFFFFFFFFFFFFFFFF AND DUP3 PUSH20 0xFFFFFFFFFFFFFFFFFFFFFFFFFFFFFFFFFFFFFFFF AND EQ PUSH2 0x653 JUMPI PUSH0 DUP3 SWAP1 POP DUP2 DUP2 PUSH20 0xFFFFFFFFFFFFFFFFFFFFFFFFFFFFFFFFFFFFFFFF AND PUSH4 0xDD62ED3E CALLER ADDRESS PUSH1 0x40 MLOAD DUP4 PUSH4 0xFFFFFFFF AND PUSH1 0xE0 SHL DUP2 MSTORE PUSH1 0x4 ADD PUSH2 0x5D1 SWAP3 SWAP2 SWAP1 PUSH2 0x2019 JUMP JUMPDEST PUSH1 0x20 PUSH1 0x40 MLOAD DUP1 DUP4 SUB DUP2 DUP7 GAS STATICCALL ISZERO DUP1 ISZERO PUSH2 0x5EC JUMPI RETURNDATASIZE PUSH0 DUP1 RETURNDATACOPY RETURNDATASIZE PUSH0 REVERT JUMPDEST POP POP POP POP PUSH1 0x40 MLOAD RETURNDATASIZE PUSH1 0x1F NOT PUSH1 0x1F DUP3 ADD AND DUP3 ADD DUP1 PUSH1 0x40 MSTORE POP DUP2 ADD SWAP1 PUSH2 0x610 SWAP2 SWAP1 PUSH2 0x2093 JUMP JUMPDEST LT ISZERO PUSH2 0x651 JUMPI PUSH1 0x40 MLOAD PUSH32 0x336EA14200000000000000000000000000000000000000000000000000000000 DUP2 MSTORE PUSH1 0x4 ADD PUSH2 0x648 SWAP1 PUSH2 0x212E JUMP JUMPDEST PUSH1 0x40 MLOAD DUP1 SWAP2 SUB SWAP1 REVERT JUMPDEST POP JUMPDEST DUP7 DUP7 PUSH0 PUSH2 0x660 DUP4 DUP4 PUSH2 0x10F6 JUMP JUMPDEST SWAP1 POP PUSH32 0x0 DUP2 PUSH32 0x0 PUSH20 0xFFFFFFFFFFFFFFFFFFFFFFFFFFFFFFFFFFFFFFFF AND PUSH4 0x70A08231 ADDRESS PUSH1 0x40 MLOAD DUP3 PUSH4 0xFFFFFFFF AND PUSH1 0xE0 SHL DUP2 MSTORE PUSH1 0x4 ADD PUSH2 0x6DD SWAP2 SWAP1 PUSH2 0x1EB1 JUMP JUMPDEST PUSH1 0x20 PUSH1 0x40 MLOAD DUP1 DUP4 SUB DUP2 DUP7 GAS STATICCALL ISZERO DUP1 ISZERO PUSH2 0x6F8 JUMPI RETURNDATASIZE PUSH0 DUP1 RETURNDATACOPY RETURNDATASIZE PUSH0 REVERT JUMPDEST POP POP POP POP PUSH1 0x40 MLOAD RETURNDATASIZE PUSH1 0x1F NOT PUSH1 0x1F DUP3 ADD AND DUP3 ADD DUP1 PUSH1 0x40 MSTORE POP DUP2 ADD SWAP1 PUSH2 0x71C SWAP2 SWAP1 PUSH2 0x2093 JUMP JUMPDEST PUSH2 0x726 SWAP2 SWAP1 PUSH2 0x2179 JUMP JUMPDEST GT ISZERO PUSH2 0x767 JUMPI PUSH1 0x40 MLOAD PUSH32 0xA2D2E1B200000000000000000000000000000000000000000000000000000000 DUP2 MSTORE PUSH1 0x4 ADD PUSH2 0x75E SWAP1 PUSH2 0x21F6 JUMP JUMPDEST PUSH1 0x40 MLOAD DUP1 SWAP2 SUB SWAP1 REVERT JUMPDEST PUSH0 DUP11 SWAP1 POP PUSH2 0x798 CALLER ADDRESS DUP13 DUP5 PUSH20 0xFFFFFFFFFFFFFFFFFFFFFFFFFFFFFFFFFFFFFFFF AND PUSH2 0x1360 SWAP1 SWAP4 SWAP3 SWAP2 SWAP1 PUSH4 0xFFFFFFFF AND JUMP JUMPDEST PUSH0 DUP1 PUSH32 0x0 PUSH20 0xFFFFFFFFFFFFFFFFFFFFFFFFFFFFFFFFFFFFFFFF AND PUSH4 0x70A08231 ADDRESS PUSH1 0x40 MLOAD DUP3 PUSH4 0xFFFFFFFF AND PUSH1 0xE0 SHL DUP2 MSTORE PUSH1 0x4 ADD PUSH2 0x7F3 SWAP2 SWAP1 PUSH2 0x1EB1 JUMP JUMPDEST PUSH1 0x20 PUSH1 0x40 MLOAD DUP1 DUP4 SUB DUP2 DUP7 GAS STATICCALL ISZERO DUP1 ISZERO PUSH2 0x80E JUMPI RETURNDATASIZE PUSH0 DUP1 RETURNDATACOPY RETURNDATASIZE PUSH0 REVERT JUMPDEST POP POP POP POP PUSH1 0x40 MLOAD RETURNDATASIZE PUSH1 0x1F NOT PUSH1 0x1F DUP3 ADD AND DUP3 ADD DUP1 PUSH1 0x40 MSTORE POP DUP2 ADD SWAP1 PUSH2 0x832 SWAP2 SWAP1 PUSH2 0x2093 JUMP JUMPDEST SWAP1 POP PUSH32 0x0 PUSH20 0xFFFFFFFFFFFFFFFFFFFFFFFFFFFFFFFFFFFFFFFF AND DUP14 PUSH20 0xFFFFFFFFFFFFFFFFFFFFFFFFFFFFFFFFFFFFFFFF AND EQ PUSH2 0xADC JUMPI PUSH0 PUSH1 0x2 PUSH8 0xFFFFFFFFFFFFFFFF DUP2 GT ISZERO PUSH2 0x8A3 JUMPI PUSH2 0x8A2 PUSH2 0x2214 JUMP JUMPDEST JUMPDEST PUSH1 0x40 MLOAD SWAP1 DUP1 DUP3 MSTORE DUP1 PUSH1 0x20 MUL PUSH1 0x20 ADD DUP3 ADD PUSH1 0x40 MSTORE DUP1 ISZERO PUSH2 0x8D1 JUMPI DUP2 PUSH1 0x20 ADD PUSH1 0x20 DUP3 MUL DUP1 CALLDATASIZE DUP4 CALLDATACOPY DUP1 DUP3 ADD SWAP2 POP POP SWAP1 POP JUMPDEST POP SWAP1 POP DUP14 DUP2 PUSH0 DUP2 MLOAD DUP2 LT PUSH2 0x8E8 JUMPI PUSH2 0x8E7 PUSH2 0x2241 JUMP JUMPDEST JUMPDEST PUSH1 0x20 MUL PUSH1 0x20 ADD ADD SWAP1 PUSH20 0xFFFFFFFFFFFFFFFFFFFFFFFFFFFFFFFFFFFFFFFF AND SWAP1 DUP2 PUSH20 0xFFFFFFFFFFFFFFFFFFFFFFFFFFFFFFFFFFFFFFFF AND DUP2 MSTORE POP POP PUSH32 0x0 DUP2 PUSH1 0x1 DUP2 MLOAD DUP2 LT PUSH2 0x957 JUMPI PUSH2 0x956 PUSH2 0x2241 JUMP JUMPDEST JUMPDEST PUSH1 0x20 MUL PUSH1 0x20 ADD ADD SWAP1 PUSH20 0xFFFFFFFFFFFFFFFFFFFFFFFFFFFFFFFFFFFFFFFF AND SWAP1 DUP2 PUSH20 0xFFFFFFFFFFFFFFFFFFFFFFFFFFFFFFFFFFFFFFFF AND DUP2 MSTORE POP POP PUSH32 0x0 PUSH20 0xFFFFFFFFFFFFFFFFFFFFFFFFFFFFFFFFFFFFFFFF AND PUSH4 0x5C11D795 DUP15 DUP15 DUP5 ADDRESS PUSH2 0x12C TIMESTAMP PUSH2 0x9DF SWAP2 SWAP1 PUSH2 0x2179 JUMP JUMPDEST PUSH1 0x40 MLOAD DUP7 PUSH4 0xFFFFFFFF AND PUSH1 0xE0 SHL DUP2 MSTORE PUSH1 0x4 ADD PUSH2 0x9FF SWAP6 SWAP5 SWAP4 SWAP3 SWAP2 SWAP1 PUSH2 0x2325 JUMP JUMPDEST PUSH0 PUSH1 0x40 MLOAD DUP1 DUP4 SUB DUP2 PUSH0 DUP8 DUP1 EXTCODESIZE ISZERO DUP1 ISZERO PUSH2 0xA16 JUMPI PUSH0 DUP1 REVERT JUMPDEST POP GAS CALL ISZERO DUP1 ISZERO PUSH2 0xA28 JUMPI RETURNDATASIZE PUSH0 DUP1 RETURNDATACOPY RETURNDATASIZE PUSH0 REVERT JUMPDEST POP POP POP POP PUSH0 PUSH32 0x0 PUSH20 0xFFFFFFFFFFFFFFFFFFFFFFFFFFFFFFFFFFFFFFFF AND PUSH4 0x70A08231 ADDRESS PUSH1 0x40 MLOAD DUP3 PUSH4 0xFFFFFFFF AND PUSH1 0xE0 SHL DUP2 MSTORE PUSH1 0x4 ADD PUSH2 0xA86 SWAP2 SWAP1 PUSH2 0x1EB1 JUMP JUMPDEST PUSH1 0x20 PUSH1 0x40 MLOAD DUP1 DUP4 SUB DUP2 DUP7 GAS STATICCALL ISZERO DUP1 ISZERO PUSH2 0xAA1 JUMPI RETURNDATASIZE PUSH0 DUP1 RETURNDATACOPY RETURNDATASIZE PUSH0 REVERT JUMPDEST POP POP POP POP PUSH1 0x40 MLOAD RETURNDATASIZE PUSH1 0x1F NOT PUSH1 0x1F DUP3 ADD AND DUP3 ADD DUP1 PUSH1 0x40 MSTORE POP DUP2 ADD SWAP1 PUSH2 0xAC5 SWAP2 SWAP1 PUSH2 0x2093 JUMP JUMPDEST SWAP1 POP DUP3 DUP2 PUSH2 0xAD3 SWAP2 SWAP1 PUSH2 0x237D JUMP JUMPDEST SWAP4 POP POP POP PUSH2 0xAE0 JUMP JUMPDEST DUP12 SWAP2 POP JUMPDEST PUSH32 0x0 DUP3 DUP3 PUSH2 0xB0D SWAP2 SWAP1 PUSH2 0x2179 JUMP JUMPDEST GT ISZERO PUSH2 0xB4E JUMPI PUSH1 0x40 MLOAD PUSH32 0xA2D2E1B200000000000000000000000000000000000000000000000000000000 DUP2 MSTORE PUSH1 0x4 ADD PUSH2 0xB45 SWAP1 PUSH2 0x21F6 JUMP JUMPDEST PUSH1 0x40 MLOAD DUP1 SWAP2 SUB SWAP1 REVERT JUMPDEST DUP2 PUSH1 0x2 PUSH0 CALLER PUSH20 0xFFFFFFFFFFFFFFFFFFFFFFFFFFFFFFFFFFFFFFFF AND PUSH20 0xFFFFFFFFFFFFFFFFFFFFFFFFFFFFFFFFFFFFFFFF AND DUP2 MSTORE PUSH1 0x20 ADD SWAP1 DUP2 MSTORE PUSH1 0x20 ADD PUSH0 KECCAK256 PUSH0 DUP3 DUP3 SLOAD PUSH2 0xB9A SWAP2 SWAP1 PUSH2 0x2179 JUMP JUMPDEST SWAP3 POP POP DUP2 SWAP1 SSTORE POP PUSH2 0xBAC PUSH1 0x1 DUP15 PUSH2 0x13E2 JUMP JUMPDEST PUSH32 0x7B7CD0DDBBEA241880E825E1EB51C30752CB96DD7EFEB4BE691EC55DFA4D8963 CALLER DUP4 PUSH1 0x40 MLOAD PUSH2 0xBDD SWAP3 SWAP2 SWAP1 PUSH2 0x23B0 JUMP JUMPDEST PUSH1 0x40 MLOAD DUP1 SWAP2 SUB SWAP1 LOG1 POP POP POP POP POP POP POP POP POP POP PUSH2 0xBF7 PUSH2 0x145F JUMP JUMPDEST POP POP POP JUMP JUMPDEST PUSH1 0x3 PUSH1 0x20 MSTORE DUP1 PUSH0 MSTORE PUSH1 0x40 PUSH0 KECCAK256 PUSH0 SWAP2 POP SWAP1 POP SLOAD DUP2 JUMP JUMPDEST PUSH32 0x0 DUP2 JUMP JUMPDEST PUSH2 0xC3D PUSH2 0x10B0 JUMP JUMPDEST DUP1 DUP1 PUSH32 0x0 LT ISZERO PUSH2 0xCA1 JUMPI PUSH1 0x40 MLOAD PUSH32 0xFC0517400000000000000000000000000000000000000000000000000000000 DUP2 MSTORE PUSH1 0x4 ADD PUSH2 0xC98 SWAP1 PUSH2 0x2447 JUMP JUMPDEST PUSH1 0x40 MLOAD DUP1 SWAP2 SUB SWAP1 REVERT JUMPDEST DUP1 PUSH1 0x2 PUSH0 CALLER PUSH20 0xFFFFFFFFFFFFFFFFFFFFFFFFFFFFFFFFFFFFFFFF AND PUSH20 0xFFFFFFFFFFFFFFFFFFFFFFFFFFFFFFFFFFFFFFFF AND DUP2 MSTORE PUSH1 0x20 ADD SWAP1 DUP2 MSTORE PUSH1 0x20 ADD PUSH0 KECCAK256 SLOAD LT ISZERO PUSH2 0xD21 JUMPI PUSH1 0x40 MLOAD PUSH32 0xE7FE37FB00000000000000000000000000000000000000000000000000000000 DUP2 MSTORE PUSH1 0x4 ADD PUSH2 0xD18 SWAP1 PUSH2 0x24AF JUMP JUMPDEST PUSH1 0x40 MLOAD DUP1 SWAP2 SUB SWAP1 REVERT JUMPDEST DUP2 PUSH1 0x2 PUSH0 CALLER PUSH20 0xFFFFFFFFFFFFFFFFFFFFFFFFFFFFFFFFFFFFFFFF AND PUSH20 0xFFFFFFFFFFFFFFFFFFFFFFFFFFFFFFFFFFFFFFFF AND DUP2 MSTORE PUSH1 0x20 ADD SWAP1 DUP2 MSTORE PUSH1 0x20 ADD PUSH0 KECCAK256 PUSH0 DUP3 DUP3 SLOAD PUSH2 0xD6D SWAP2 SWAP1 PUSH2 0x237D JUMP JUMPDEST SWAP3 POP POP DUP2 SWAP1 SSTORE POP PUSH0 PUSH32 0x0 SWAP1 POP PUSH2 0xDA2 PUSH0 DUP3 PUSH2 0x13E2 JUMP JUMPDEST PUSH2 0xDCD CALLER DUP5 DUP4 PUSH20 0xFFFFFFFFFFFFFFFFFFFFFFFFFFFFFFFFFFFFFFFF AND PUSH2 0x1468 SWAP1 SWAP3 SWAP2 SWAP1 PUSH4 0xFFFFFFFF AND JUMP JUMPDEST PUSH32 0x1FF21E81CFF87FCCBAC096AD565F52CB1B358DB04A736A6A137CCEB4A287A702 CALLER DUP5 PUSH1 0x40 MLOAD PUSH2 0xDFE SWAP3 SWAP2 SWAP1 PUSH2 0x23B0 JUMP JUMPDEST PUSH1 0x40 MLOAD DUP1 SWAP2 SUB SWAP1 LOG1 POP POP PUSH2 0xE10 PUSH2 0x145F JUMP JUMPDEST POP JUMP JUMPDEST PUSH2 0xE1B PUSH2 0x14E7 JUMP JUMPDEST PUSH2 0xE24 PUSH0 PUSH2 0x156E JUMP JUMPDEST JUMP JUMPDEST PUSH32 0x0 DUP2 JUMP JUMPDEST PUSH1 0x5 PUSH0 SWAP1 SLOAD SWAP1 PUSH2 0x100 EXP SWAP1 DIV PUSH20 0xFFFFFFFFFFFFFFFFFFFFFFFFFFFFFFFFFFFFFFFF AND DUP2 JUMP JUMPDEST PUSH0 DUP1 PUSH0 SWAP1 SLOAD SWAP1 PUSH2 0x100 EXP SWAP1 DIV PUSH20 0xFFFFFFFFFFFFFFFFFFFFFFFFFFFFFFFFFFFFFFFF AND SWAP1 POP SWAP1 JUMP JUMPDEST PUSH2 0xE9E PUSH2 0x14E7 JUMP JUMPDEST PUSH2 0xEE9 DUP2 DUP4 PUSH32 0x0 PUSH20 0xFFFFFFFFFFFFFFFFFFFFFFFFFFFFFFFFFFFFFFFF AND PUSH2 0x1468 SWAP1 SWAP3 SWAP2 SWAP1 PUSH4 0xFFFFFFFF AND JUMP JUMPDEST PUSH32 0xBB8F0AFEF873E84FEB2F1167DD70A028E4F9ADA114828481F03ED1255AA0F541 DUP3 PUSH1 0x40 MLOAD PUSH2 0xF18 SWAP2 SWAP1 PUSH2 0x1D86 JUMP JUMPDEST PUSH1 0x40 MLOAD DUP1 SWAP2 SUB SWAP1 LOG1 POP POP JUMP JUMPDEST PUSH2 0xF2C PUSH2 0x10B0 JUMP JUMPDEST PUSH2 0xF36 CALLER CALLVALUE PUSH2 0x162F JUMP JUMPDEST PUSH2 0xF3E PUSH2 0x145F JUMP JUMPDEST JUMP JUMPDEST PUSH2 0xF48 PUSH2 0x14E7 JUMP JUMPDEST PUSH0 PUSH20 0xFFFFFFFFFFFFFFFFFFFFFFFFFFFFFFFFFFFFFFFF AND DUP2 PUSH20 0xFFFFFFFFFFFFFFFFFFFFFFFFFFFFFFFFFFFFFFFF AND SUB PUSH2 0xFB8 JUMPI PUSH0 PUSH1 0x40 MLOAD PUSH32 0x1E4FBDF700000000000000000000000000000000000000000000000000000000 DUP2 MSTORE PUSH1 0x4 ADD PUSH2 0xFAF SWAP2 SWAP1 PUSH2 0x1EB1 JUMP JUMPDEST PUSH1 0x40 MLOAD DUP1 SWAP2 SUB SWAP1 REVERT JUMPDEST PUSH2 0xFC1 DUP2 PUSH2 0x156E JUMP JUMPDEST POP JUMP JUMPDEST PUSH1 0x4 SLOAD DUP2 JUMP JUMPDEST PUSH32 0x0 DUP2 JUMP JUMPDEST PUSH32 0x0 DUP2 JUMP JUMPDEST PUSH0 PUSH32 0x0 PUSH20 0xFFFFFFFFFFFFFFFFFFFFFFFFFFFFFFFFFFFFFFFF AND PUSH4 0x70A08231 ADDRESS PUSH1 0x40 MLOAD DUP3 PUSH4 0xFFFFFFFF AND PUSH1 0xE0 SHL DUP2 MSTORE PUSH1 0x4 ADD PUSH2 0x106C SWAP2 SWAP1 PUSH2 0x1EB1 JUMP JUMPDEST PUSH1 0x20 PUSH1 0x40 MLOAD DUP1 DUP4 SUB DUP2 DUP7 GAS STATICCALL ISZERO DUP1 ISZERO PUSH2 0x1087 JUMPI RETURNDATASIZE PUSH0 DUP1 RETURNDATACOPY RETURNDATASIZE PUSH0 REVERT JUMPDEST POP POP POP POP PUSH1 0x40 MLOAD RETURNDATASIZE PUSH1 0x1F NOT PUSH1 0x1F DUP3 ADD AND DUP3 ADD DUP1 PUSH1 0x40 MSTORE POP DUP2 ADD SWAP1 PUSH2 0x10AB SWAP2 SWAP1 PUSH2 0x2093 JUMP JUMPDEST SWAP1 POP SWAP1 JUMP JUMPDEST PUSH1 0x2 PUSH1 0x1 SLOAD SUB PUSH2 0x10EC JUMPI PUSH1 0x40 MLOAD PUSH32 0x3EE5AEB500000000000000000000000000000000000000000000000000000000 DUP2 MSTORE PUSH1 0x4 ADD PUSH1 0x40 MLOAD DUP1 SWAP2 SUB SWAP1 REVERT JUMPDEST PUSH1 0x2 PUSH1 0x1 DUP2 SWAP1 SSTORE POP JUMP JUMPDEST PUSH0 PUSH32 0x0 PUSH20 0xFFFFFFFFFFFFFFFFFFFFFFFFFFFFFFFFFFFFFFFF AND DUP4 PUSH20 0xFFFFFFFFFFFFFFFFFFFFFFFFFFFFFFFFFFFFFFFF AND SUB PUSH2 0x1152 JUMPI DUP2 SWAP1 POP PUSH2 0x135A JUMP JUMPDEST PUSH0 PUSH1 0x5 PUSH0 SWAP1 SLOAD SWAP1 PUSH2 0x100 EXP SWAP1 DIV PUSH20 0xFFFFFFFFFFFFFFFFFFFFFFFFFFFFFFFFFFFFFFFF AND PUSH20 0xFFFFFFFFFFFFFFFFFFFFFFFFFFFFFFFFFFFFFFFF AND PUSH4 0xE6A43905 DUP6 PUSH32 0x0 PUSH1 0x40 MLOAD DUP4 PUSH4 0xFFFFFFFF AND PUSH1 0xE0 SHL DUP2 MSTORE PUSH1 0x4 ADD PUSH2 0x11CF SWAP3 SWAP2 SWAP1 PUSH2 0x2019 JUMP JUMPDEST PUSH1 0x20 PUSH1 0x40 MLOAD DUP1 DUP4 SUB DUP2 DUP7 GAS STATICCALL ISZERO DUP1 ISZERO PUSH2 0x11EA JUMPI RETURNDATASIZE PUSH0 DUP1 RETURNDATACOPY RETURNDATASIZE PUSH0 REVERT JUMPDEST POP POP POP POP PUSH1 0x40 MLOAD RETURNDATASIZE PUSH1 0x1F NOT PUSH1 0x1F DUP3 ADD AND DUP3 ADD DUP1 PUSH1 0x40 MSTORE POP DUP2 ADD SWAP1 PUSH2 0x120E SWAP2 SWAP1 PUSH2 0x2054 JUMP JUMPDEST SWAP1 POP PUSH0 DUP1 DUP3 PUSH20 0xFFFFFFFFFFFFFFFFFFFFFFFFFFFFFFFFFFFFFFFF AND PUSH4 0x902F1AC PUSH1 0x40 MLOAD DUP2 PUSH4 0xFFFFFFFF AND PUSH1 0xE0 SHL DUP2 MSTORE PUSH1 0x4 ADD PUSH1 0x60 PUSH1 0x40 MLOAD DUP1 DUP4 SUB DUP2 DUP7 GAS STATICCALL ISZERO DUP1 ISZERO PUSH2 0x125B JUMPI RETURNDATASIZE PUSH0 DUP1 RETURNDATACOPY RETURNDATASIZE PUSH0 REVERT JUMPDEST POP POP POP POP PUSH1 0x40 MLOAD RETURNDATASIZE PUSH1 0x1F NOT PUSH1 0x1F DUP3 ADD AND DUP3 ADD DUP1 PUSH1 0x40 MSTORE POP DUP2 ADD SWAP1 PUSH2 0x127F SWAP2 SWAP1 PUSH2 0x2549 JUMP JUMPDEST POP SWAP2 POP SWAP2 POP PUSH0 DUP1 PUSH32 0x0 PUSH20 0xFFFFFFFFFFFFFFFFFFFFFFFFFFFFFFFFFFFFFFFF AND DUP9 PUSH20 0xFFFFFFFFFFFFFFFFFFFFFFFFFFFFFFFFFFFFFFFF AND LT PUSH2 0x12E0 JUMPI DUP3 DUP5 PUSH2 0x12E3 JUMP JUMPDEST DUP4 DUP4 JUMPDEST SWAP2 POP SWAP2 POP PUSH0 PUSH2 0x3E5 DUP9 PUSH2 0x12F6 SWAP2 SWAP1 PUSH2 0x2599 JUMP JUMPDEST SWAP1 POP PUSH0 DUP3 PUSH14 0xFFFFFFFFFFFFFFFFFFFFFFFFFFFF AND DUP3 PUSH2 0x1315 SWAP2 SWAP1 PUSH2 0x2599 JUMP JUMPDEST SWAP1 POP PUSH0 DUP3 PUSH2 0x3E8 DUP7 PUSH2 0x1327 SWAP2 SWAP1 PUSH2 0x25DA JUMP JUMPDEST PUSH14 0xFFFFFFFFFFFFFFFFFFFFFFFFFFFF AND PUSH2 0x1341 SWAP2 SWAP1 PUSH2 0x2179 JUMP JUMPDEST SWAP1 POP DUP1 DUP3 PUSH2 0x134F SWAP2 SWAP1 PUSH2 0x2643 JUMP JUMPDEST SWAP9 POP POP POP POP POP POP POP POP POP JUMPDEST SWAP3 SWAP2 POP POP JUMP JUMPDEST PUSH2 0x13DC DUP5 DUP6 PUSH20 0xFFFFFFFFFFFFFFFFFFFFFFFFFFFFFFFFFFFFFFFF AND PUSH4 0x23B872DD DUP7 DUP7 DUP7 PUSH1 0x40 MLOAD PUSH1 0x24 ADD PUSH2 0x1395 SWAP4 SWAP3 SWAP2 SWAP1 PUSH2 0x2673 JUMP JUMPDEST PUSH1 0x40 MLOAD PUSH1 0x20 DUP2 DUP4 SUB SUB DUP2 MSTORE SWAP1 PUSH1 0x40 MSTORE SWAP2 POP PUSH1 0xE0 SHL PUSH1 0x20 DUP3 ADD DUP1 MLOAD PUSH28 0xFFFFFFFFFFFFFFFFFFFFFFFFFFFFFFFFFFFFFFFFFFFFFFFFFFFFFFFF DUP4 DUP2 DUP4 AND OR DUP4 MSTORE POP POP POP POP PUSH2 0x1BC6 JUMP JUMPDEST POP POP POP POP JUMP JUMPDEST DUP2 ISZERO PUSH2 0x1441 JUMPI PUSH1 0x1 PUSH1 0x3 PUSH0 DUP4 PUSH20 0xFFFFFFFFFFFFFFFFFFFFFFFFFFFFFFFFFFFFFFFF AND PUSH20 0xFFFFFFFFFFFFFFFFFFFFFFFFFFFFFFFFFFFFFFFF AND DUP2 MSTORE PUSH1 0x20 ADD SWAP1 DUP2 MSTORE PUSH1 0x20 ADD PUSH0 KECCAK256 PUSH0 DUP3 DUP3 SLOAD PUSH2 0x1435 SWAP2 SWAP1 PUSH2 0x2179 JUMP JUMPDEST SWAP3 POP POP DUP2 SWAP1 SSTORE POP PUSH2 0x145B JUMP JUMPDEST PUSH1 0x1 PUSH1 0x4 PUSH0 DUP3 DUP3 SLOAD PUSH2 0x1453 SWAP2 SWAP1 PUSH2 0x2179 JUMP JUMPDEST SWAP3 POP POP DUP2 SWAP1 SSTORE POP JUMPDEST POP POP JUMP JUMPDEST PUSH1 0x1 DUP1 DUP2 SWAP1 SSTORE POP JUMP JUMPDEST PUSH2 0x14E2 DUP4 DUP5 PUSH20 0xFFFFFFFFFFFFFFFFFFFFFFFFFFFFFFFFFFFFFFFF AND PUSH4 0xA9059CBB DUP6 DUP6 PUSH1 0x40 MLOAD PUSH1 0x24 ADD PUSH2 0x149B SWAP3 SWAP2 SWAP1 PUSH2 0x23B0 JUMP JUMPDEST PUSH1 0x40 MLOAD PUSH1 0x20 DUP2 DUP4 SUB SUB DUP2 MSTORE SWAP1 PUSH1 0x40 MSTORE SWAP2 POP PUSH1 0xE0 SHL PUSH1 0x20 DUP3 ADD DUP1 MLOAD PUSH28 0xFFFFFFFFFFFFFFFFFFFFFFFFFFFFFFFFFFFFFFFFFFFFFFFFFFFFFFFF DUP4 DUP2 DUP4 AND OR DUP4 MSTORE POP POP POP POP PUSH2 0x1BC6 JUMP JUMPDEST POP POP POP JUMP JUMPDEST PUSH2 0x14EF PUSH2 0x1C61 JUMP JUMPDEST PUSH20 0xFFFFFFFFFFFFFFFFFFFFFFFFFFFFFFFFFFFFFFFF AND PUSH2 0x150D PUSH2 0xE6F JUMP JUMPDEST PUSH20 0xFFFFFFFFFFFFFFFFFFFFFFFFFFFFFFFFFFFFFFFF AND EQ PUSH2 0x156C JUMPI PUSH2 0x1530 PUSH2 0x1C61 JUMP JUMPDEST PUSH1 0x40 MLOAD PUSH32 0x118CDAA700000000000000000000000000000000000000000000000000000000 DUP2 MSTORE PUSH1 0x4 ADD PUSH2 0x1563 SWAP2 SWAP1 PUSH2 0x1EB1 JUMP JUMPDEST PUSH1 0x40 MLOAD DUP1 SWAP2 SUB SWAP1 REVERT JUMPDEST JUMP JUMPDEST PUSH0 DUP1 PUSH0 SWAP1 SLOAD SWAP1 PUSH2 0x100 EXP SWAP1 DIV PUSH20 0xFFFFFFFFFFFFFFFFFFFFFFFFFFFFFFFFFFFFFFFF AND SWAP1 POP DUP2 PUSH0 DUP1 PUSH2 0x100 EXP DUP2 SLOAD DUP2 PUSH20 0xFFFFFFFFFFFFFFFFFFFFFFFFFFFFFFFFFFFFFFFF MUL NOT AND SWAP1 DUP4 PUSH20 0xFFFFFFFFFFFFFFFFFFFFFFFFFFFFFFFFFFFFFFFF AND MUL OR SWAP1 SSTORE POP DUP2 PUSH20 0xFFFFFFFFFFFFFFFFFFFFFFFFFFFFFFFFFFFFFFFF AND DUP2 PUSH20 0xFFFFFFFFFFFFFFFFFFFFFFFFFFFFFFFFFFFFFFFF AND PUSH32 0x8BE0079C531659141344CD1FD0A4F28419497F9722A3DAAFE3B4186F6B6457E0 PUSH1 0x40 MLOAD PUSH1 0x40 MLOAD DUP1 SWAP2 SUB SWAP1 LOG3 POP POP JUMP JUMPDEST PUSH0 DUP2 PUSH0 PUSH2 0x163C DUP4 DUP4 PUSH2 0x10F6 JUMP JUMPDEST SWAP1 POP PUSH32 0x0 DUP2 PUSH32 0x0 PUSH20 0xFFFFFFFFFFFFFFFFFFFFFFFFFFFFFFFFFFFFFFFF AND PUSH4 0x70A08231 ADDRESS PUSH1 0x40 MLOAD DUP3 PUSH4 0xFFFFFFFF AND PUSH1 0xE0 SHL DUP2 MSTORE PUSH1 0x4 ADD PUSH2 0x16B9 SWAP2 SWAP1 PUSH2 0x1EB1 JUMP JUMPDEST PUSH1 0x20 PUSH1 0x40 MLOAD DUP1 DUP4 SUB DUP2 DUP7 GAS STATICCALL ISZERO DUP1 ISZERO PUSH2 0x16D4 JUMPI RETURNDATASIZE PUSH0 DUP1 RETURNDATACOPY RETURNDATASIZE PUSH0 REVERT JUMPDEST POP POP POP POP PUSH1 0x40 MLOAD RETURNDATASIZE PUSH1 0x1F NOT PUSH1 0x1F DUP3 ADD AND DUP3 ADD DUP1 PUSH1 0x40 MSTORE POP DUP2 ADD SWAP1 PUSH2 0x16F8 SWAP2 SWAP1 PUSH2 0x2093 JUMP JUMPDEST PUSH2 0x1702 SWAP2 SWAP1 PUSH2 0x2179 JUMP JUMPDEST GT ISZERO PUSH2 0x1743 JUMPI PUSH1 0x40 MLOAD PUSH32 0xA2D2E1B200000000000000000000000000000000000000000000000000000000 DUP2 MSTORE PUSH1 0x4 ADD PUSH2 0x173A SWAP1 PUSH2 0x21F6 JUMP JUMPDEST PUSH1 0x40 MLOAD DUP1 SWAP2 SUB SWAP1 REVERT JUMPDEST PUSH0 PUSH32 0x0 PUSH20 0xFFFFFFFFFFFFFFFFFFFFFFFFFFFFFFFFFFFFFFFF AND PUSH4 0x70A08231 ADDRESS PUSH1 0x40 MLOAD DUP3 PUSH4 0xFFFFFFFF AND PUSH1 0xE0 SHL DUP2 MSTORE PUSH1 0x4 ADD PUSH2 0x179D SWAP2 SWAP1 PUSH2 0x1EB1 JUMP JUMPDEST PUSH1 0x20 PUSH1 0x40 MLOAD DUP1 DUP4 SUB DUP2 DUP7 GAS STATICCALL ISZERO DUP1 ISZERO PUSH2 0x17B8 JUMPI RETURNDATASIZE PUSH0 DUP1 RETURNDATACOPY RETURNDATASIZE PUSH0 REVERT JUMPDEST POP POP POP POP PUSH1 0x40 MLOAD RETURNDATASIZE PUSH1 0x1F NOT PUSH1 0x1F DUP3 ADD AND DUP3 ADD DUP1 PUSH1 0x40 MSTORE POP DUP2 ADD SWAP1 PUSH2 0x17DC SWAP2 SWAP1 PUSH2 0x2093 JUMP JUMPDEST SWAP1 POP PUSH0 PUSH2 0x1809 PUSH32 0x0 DUP8 PUSH2 0x10F6 JUMP JUMPDEST SWAP1 POP PUSH1 0x64 PUSH1 0x63 DUP3 PUSH2 0x181A SWAP2 SWAP1 PUSH2 0x2599 JUMP JUMPDEST PUSH2 0x1824 SWAP2 SWAP1 PUSH2 0x2643 JUMP JUMPDEST SWAP1 POP PUSH0 PUSH1 0x2 PUSH8 0xFFFFFFFFFFFFFFFF DUP2 GT ISZERO PUSH2 0x1842 JUMPI PUSH2 0x1841 PUSH2 0x2214 JUMP JUMPDEST JUMPDEST PUSH1 0x40 MLOAD SWAP1 DUP1 DUP3 MSTORE DUP1 PUSH1 0x20 MUL PUSH1 0x20 ADD DUP3 ADD PUSH1 0x40 MSTORE DUP1 ISZERO PUSH2 0x1870 JUMPI DUP2 PUSH1 0x20 ADD PUSH1 0x20 DUP3 MUL DUP1 CALLDATASIZE DUP4 CALLDATACOPY DUP1 DUP3 ADD SWAP2 POP POP SWAP1 POP JUMPDEST POP SWAP1 POP PUSH32 0x0 DUP2 PUSH0 DUP2 MLOAD DUP2 LT PUSH2 0x18A7 JUMPI PUSH2 0x18A6 PUSH2 0x2241 JUMP JUMPDEST JUMPDEST PUSH1 0x20 MUL PUSH1 0x20 ADD ADD SWAP1 PUSH20 0xFFFFFFFFFFFFFFFFFFFFFFFFFFFFFFFFFFFFFFFF AND SWAP1 DUP2 PUSH20 0xFFFFFFFFFFFFFFFFFFFFFFFFFFFFFFFFFFFFFFFF AND DUP2 MSTORE POP POP PUSH32 0x0 DUP2 PUSH1 0x1 DUP2 MLOAD DUP2 LT PUSH2 0x1916 JUMPI PUSH2 0x1915 PUSH2 0x2241 JUMP JUMPDEST JUMPDEST PUSH1 0x20 MUL PUSH1 0x20 ADD ADD SWAP1 PUSH20 0xFFFFFFFFFFFFFFFFFFFFFFFFFFFFFFFFFFFFFFFF AND SWAP1 DUP2 PUSH20 0xFFFFFFFFFFFFFFFFFFFFFFFFFFFFFFFFFFFFFFFF AND DUP2 MSTORE POP POP PUSH32 0x0 PUSH20 0xFFFFFFFFFFFFFFFFFFFFFFFFFFFFFFFFFFFFFFFF AND PUSH4 0xB6F9DE95 DUP9 DUP5 DUP5 ADDRESS PUSH2 0x12C TIMESTAMP PUSH2 0x199E SWAP2 SWAP1 PUSH2 0x2179 JUMP JUMPDEST PUSH1 0x40 MLOAD DUP7 PUSH4 0xFFFFFFFF AND PUSH1 0xE0 SHL DUP2 MSTORE PUSH1 0x4 ADD PUSH2 0x19BD SWAP5 SWAP4 SWAP3 SWAP2 SWAP1 PUSH2 0x26A8 JUMP JUMPDEST PUSH0 PUSH1 0x40 MLOAD DUP1 DUP4 SUB DUP2 DUP6 DUP9 DUP1 EXTCODESIZE ISZERO DUP1 ISZERO PUSH2 0x19D4 JUMPI PUSH0 DUP1 REVERT JUMPDEST POP GAS CALL ISZERO DUP1 ISZERO PUSH2 0x19E6 JUMPI RETURNDATASIZE PUSH0 DUP1 RETURNDATACOPY RETURNDATASIZE PUSH0 REVERT JUMPDEST POP POP POP POP POP PUSH0 PUSH32 0x0 PUSH20 0xFFFFFFFFFFFFFFFFFFFFFFFFFFFFFFFFFFFFFFFF AND PUSH4 0x70A08231 ADDRESS PUSH1 0x40 MLOAD DUP3 PUSH4 0xFFFFFFFF AND PUSH1 0xE0 SHL DUP2 MSTORE PUSH1 0x4 ADD PUSH2 0x1A45 SWAP2 SWAP1 PUSH2 0x1EB1 JUMP JUMPDEST PUSH1 0x20 PUSH1 0x40 MLOAD DUP1 DUP4 SUB DUP2 DUP7 GAS STATICCALL ISZERO DUP1 ISZERO PUSH2 0x1A60 JUMPI RETURNDATASIZE PUSH0 DUP1 RETURNDATACOPY RETURNDATASIZE PUSH0 REVERT JUMPDEST POP POP POP POP PUSH1 0x40 MLOAD RETURNDATASIZE PUSH1 0x1F NOT PUSH1 0x1F DUP3 ADD AND DUP3 ADD DUP1 PUSH1 0x40 MSTORE POP DUP2 ADD SWAP1 PUSH2 0x1A84 SWAP2 SWAP1 PUSH2 0x2093 JUMP JUMPDEST SWAP1 POP PUSH0 DUP5 DUP3 PUSH2 0x1A93 SWAP2 SWAP1 PUSH2 0x237D JUMP JUMPDEST SWAP1 POP PUSH32 0x0 DUP2 DUP7 PUSH2 0x1AC2 SWAP2 SWAP1 PUSH2 0x2179 JUMP JUMPDEST GT ISZERO PUSH2 0x1B03 JUMPI PUSH1 0x40 MLOAD PUSH32 0xA2D2E1B200000000000000000000000000000000000000000000000000000000 DUP2 MSTORE PUSH1 0x4 ADD PUSH2 0x1AFA SWAP1 PUSH2 0x21F6 JUMP JUMPDEST PUSH1 0x40 MLOAD DUP1 SWAP2 SUB SWAP1 REVERT JUMPDEST DUP1 PUSH1 0x2 PUSH0 DUP13 PUSH20 0xFFFFFFFFFFFFFFFFFFFFFFFFFFFFFFFFFFFFFFFF AND PUSH20 0xFFFFFFFFFFFFFFFFFFFFFFFFFFFFFFFFFFFFFFFF AND DUP2 MSTORE PUSH1 0x20 ADD SWAP1 DUP2 MSTORE PUSH1 0x20 ADD PUSH0 KECCAK256 PUSH0 DUP3 DUP3 SLOAD PUSH2 0x1B4F SWAP2 SWAP1 PUSH2 0x2179 JUMP JUMPDEST SWAP3 POP POP DUP2 SWAP1 SSTORE POP PUSH2 0x1B81 PUSH1 0x1 PUSH32 0x0 PUSH2 0x13E2 JUMP JUMPDEST PUSH32 0x7B7CD0DDBBEA241880E825E1EB51C30752CB96DD7EFEB4BE691EC55DFA4D8963 DUP11 DUP3 PUSH1 0x40 MLOAD PUSH2 0x1BB2 SWAP3 SWAP2 SWAP1 PUSH2 0x23B0 JUMP JUMPDEST PUSH1 0x40 MLOAD DUP1 SWAP2 SUB SWAP1 LOG1 POP POP POP POP POP POP POP POP POP POP JUMP JUMPDEST PUSH0 DUP1 PUSH1 0x20 PUSH0 DUP5 MLOAD PUSH1 0x20 DUP7 ADD PUSH0 DUP9 GAS CALL DUP1 PUSH2 0x1BE5 JUMPI PUSH1 0x40 MLOAD RETURNDATASIZE PUSH0 DUP3 RETURNDATACOPY RETURNDATASIZE DUP2 REVERT JUMPDEST RETURNDATASIZE SWAP3 POP PUSH0 MLOAD SWAP2 POP POP PUSH0 DUP3 EQ PUSH2 0x1BFE JUMPI PUSH1 0x1 DUP2 EQ ISZERO PUSH2 0x1C19 JUMP JUMPDEST PUSH0 DUP5 PUSH20 0xFFFFFFFFFFFFFFFFFFFFFFFFFFFFFFFFFFFFFFFF AND EXTCODESIZE EQ JUMPDEST ISZERO PUSH2 0x1C5B JUMPI DUP4 PUSH1 0x40 MLOAD PUSH32 0x5274AFE700000000000000000000000000000000000000000000000000000000 DUP2 MSTORE PUSH1 0x4 ADD PUSH2 0x1C52 SWAP2 SWAP1 PUSH2 0x1EB1 JUMP JUMPDEST PUSH1 0x40 MLOAD DUP1 SWAP2 SUB SWAP1 REVERT JUMPDEST POP POP POP POP JUMP JUMPDEST PUSH0 CALLER SWAP1 POP SWAP1 JUMP JUMPDEST PUSH0 DUP3 DUP3 MSTORE PUSH1 0x20 DUP3 ADD SWAP1 POP SWAP3 SWAP2 POP POP JUMP JUMPDEST PUSH32 0x557365206465706F73697420666F7220455448206465706F7369740000000000 PUSH0 DUP3 ADD MSTORE POP JUMP JUMPDEST PUSH0 PUSH2 0x1CAC PUSH1 0x1B DUP4 PUSH2 0x1C68 JUMP JUMPDEST SWAP2 POP PUSH2 0x1CB7 DUP3 PUSH2 0x1C78 JUMP JUMPDEST PUSH1 0x20 DUP3 ADD SWAP1 POP SWAP2 SWAP1 POP JUMP JUMPDEST PUSH0 PUSH1 0x20 DUP3 ADD SWAP1 POP DUP2 DUP2 SUB PUSH0 DUP4 ADD MSTORE PUSH2 0x1CD9 DUP2 PUSH2 0x1CA0 JUMP JUMPDEST SWAP1 POP SWAP2 SWAP1 POP JUMP JUMPDEST PUSH32 0x4F7065726174696F6E20646F6573206E6F7420657869737473206F7220646174 PUSH0 DUP3 ADD MSTORE PUSH32 0x612077617320696E636F72726563740000000000000000000000000000000000 PUSH1 0x20 DUP3 ADD MSTORE POP JUMP JUMPDEST PUSH0 PUSH2 0x1D3A PUSH1 0x2F DUP4 PUSH2 0x1C68 JUMP JUMPDEST SWAP2 POP PUSH2 0x1D45 DUP3 PUSH2 0x1CE0 JUMP JUMPDEST PUSH1 0x40 DUP3 ADD SWAP1 POP SWAP2 SWAP1 POP JUMP JUMPDEST PUSH0 PUSH1 0x20 DUP3 ADD SWAP1 POP DUP2 DUP2 SUB PUSH0 DUP4 ADD MSTORE PUSH2 0x1D67 DUP2 PUSH2 0x1D2E JUMP JUMPDEST SWAP1 POP SWAP2 SWAP1 POP JUMP JUMPDEST PUSH0 DUP2 SWAP1 POP SWAP2 SWAP1 POP JUMP JUMPDEST PUSH2 0x1D80 DUP2 PUSH2 0x1D6E JUMP JUMPDEST DUP3 MSTORE POP POP JUMP JUMPDEST PUSH0 PUSH1 0x20 DUP3 ADD SWAP1 POP PUSH2 0x1D99 PUSH0 DUP4 ADD DUP5 PUSH2 0x1D77 JUMP JUMPDEST SWAP3 SWAP2 POP POP JUMP JUMPDEST PUSH0 DUP1 REVERT JUMPDEST PUSH0 PUSH20 0xFFFFFFFFFFFFFFFFFFFFFFFFFFFFFFFFFFFFFFFF DUP3 AND SWAP1 POP SWAP2 SWAP1 POP JUMP JUMPDEST PUSH0 PUSH2 0x1DCC DUP3 PUSH2 0x1DA3 JUMP JUMPDEST SWAP1 POP SWAP2 SWAP1 POP JUMP JUMPDEST PUSH2 0x1DDC DUP2 PUSH2 0x1DC2 JUMP JUMPDEST DUP2 EQ PUSH2 0x1DE6 JUMPI PUSH0 DUP1 REVERT JUMPDEST POP JUMP JUMPDEST PUSH0 DUP2 CALLDATALOAD SWAP1 POP PUSH2 0x1DF7 DUP2 PUSH2 0x1DD3 JUMP JUMPDEST SWAP3 SWAP2 POP POP JUMP JUMPDEST PUSH2 0x1E06 DUP2 PUSH2 0x1D6E JUMP JUMPDEST DUP2 EQ PUSH2 0x1E10 JUMPI PUSH0 DUP1 REVERT JUMPDEST POP JUMP JUMPDEST PUSH0 DUP2 CALLDATALOAD SWAP1 POP PUSH2 0x1E21 DUP2 PUSH2 0x1DFD JUMP JUMPDEST SWAP3 SWAP2 POP POP JUMP JUMPDEST PUSH0 DUP1 PUSH0 PUSH1 0x60 DUP5 DUP7 SUB SLT ISZERO PUSH2 0x1E3E JUMPI PUSH2 0x1E3D PUSH2 0x1D9F JUMP JUMPDEST JUMPDEST PUSH0 PUSH2 0x1E4B DUP7 DUP3 DUP8 ADD PUSH2 0x1DE9 JUMP JUMPDEST SWAP4 POP POP PUSH1 0x20 PUSH2 0x1E5C DUP7 DUP3 DUP8 ADD PUSH2 0x1E13 JUMP JUMPDEST SWAP3 POP POP PUSH1 0x40 PUSH2 0x1E6D DUP7 DUP3 DUP8 ADD PUSH2 0x1E13 JUMP JUMPDEST SWAP2 POP POP SWAP3 POP SWAP3 POP SWAP3 JUMP JUMPDEST PUSH0 PUSH1 0x20 DUP3 DUP5 SUB SLT ISZERO PUSH2 0x1E8C JUMPI PUSH2 0x1E8B PUSH2 0x1D9F JUMP JUMPDEST JUMPDEST PUSH0 PUSH2 0x1E99 DUP5 DUP3 DUP6 ADD PUSH2 0x1DE9 JUMP JUMPDEST SWAP2 POP POP SWAP3 SWAP2 POP POP JUMP JUMPDEST PUSH2 0x1EAB DUP2 PUSH2 0x1DC2 JUMP JUMPDEST DUP3 MSTORE POP POP JUMP JUMPDEST PUSH0 PUSH1 0x20 DUP3 ADD SWAP1 POP PUSH2 0x1EC4 PUSH0 DUP4 ADD DUP5 PUSH2 0x1EA2 JUMP JUMPDEST SWAP3 SWAP2 POP POP JUMP JUMPDEST PUSH0 PUSH1 0x20 DUP3 DUP5 SUB SLT ISZERO PUSH2 0x1EDF JUMPI PUSH2 0x1EDE PUSH2 0x1D9F JUMP JUMPDEST JUMPDEST PUSH0 PUSH2 0x1EEC DUP5 DUP3 DUP6 ADD PUSH2 0x1E13 JUMP JUMPDEST SWAP2 POP POP SWAP3 SWAP2 POP POP JUMP JUMPDEST PUSH0 DUP2 SWAP1 POP SWAP2 SWAP1 POP JUMP JUMPDEST PUSH0 PUSH2 0x1F18 PUSH2 0x1F13 PUSH2 0x1F0E DUP5 PUSH2 0x1DA3 JUMP JUMPDEST PUSH2 0x1EF5 JUMP JUMPDEST PUSH2 0x1DA3 JUMP JUMPDEST SWAP1 POP SWAP2 SWAP1 POP JUMP JUMPDEST PUSH0 PUSH2 0x1F29 DUP3 PUSH2 0x1EFE JUMP JUMPDEST SWAP1 POP SWAP2 SWAP1 POP JUMP JUMPDEST PUSH0 PUSH2 0x1F3A DUP3 PUSH2 0x1F1F JUMP JUMPDEST SWAP1 POP SWAP2 SWAP1 POP JUMP JUMPDEST PUSH2 0x1F4A DUP2 PUSH2 0x1F30 JUMP JUMPDEST DUP3 MSTORE POP POP JUMP JUMPDEST PUSH0 PUSH1 0x20 DUP3 ADD SWAP1 POP PUSH2 0x1F63 PUSH0 DUP4 ADD DUP5 PUSH2 0x1F41 JUMP JUMPDEST SWAP3 SWAP2 POP POP JUMP JUMPDEST PUSH0 PUSH2 0x1F73 DUP3 PUSH2 0x1F1F JUMP JUMPDEST SWAP1 POP SWAP2 SWAP1 POP JUMP JUMPDEST PUSH2 0x1F83 DUP2 PUSH2 0x1F69 JUMP JUMPDEST DUP3 MSTORE POP POP JUMP JUMPDEST PUSH0 PUSH1 0x20 DUP3 ADD SWAP1 POP PUSH2 0x1F9C PUSH0 DUP4 ADD DUP5 PUSH2 0x1F7A JUMP JUMPDEST SWAP3 SWAP2 POP POP JUMP JUMPDEST PUSH0 DUP1 PUSH1 0x40 DUP4 DUP6 SUB SLT ISZERO PUSH2 0x1FB8 JUMPI PUSH2 0x1FB7 PUSH2 0x1D9F JUMP JUMPDEST JUMPDEST PUSH0 PUSH2 0x1FC5 DUP6 DUP3 DUP7 ADD PUSH2 0x1E13 JUMP JUMPDEST SWAP3 POP POP PUSH1 0x20 PUSH2 0x1FD6 DUP6 DUP3 DUP7 ADD PUSH2 0x1DE9 JUMP JUMPDEST SWAP2 POP POP SWAP3 POP SWAP3 SWAP1 POP JUMP JUMPDEST PUSH0 PUSH2 0x1FEA DUP3 PUSH2 0x1F1F JUMP JUMPDEST SWAP1 POP SWAP2 SWAP1 POP JUMP JUMPDEST PUSH2 0x1FFA DUP2 PUSH2 0x1FE0 JUMP JUMPDEST DUP3 MSTORE POP POP JUMP JUMPDEST PUSH0 PUSH1 0x20 DUP3 ADD SWAP1 POP PUSH2 0x2013 PUSH0 DUP4 ADD DUP5 PUSH2 0x1FF1 JUMP JUMPDEST SWAP3 SWAP2 POP POP JUMP JUMPDEST PUSH0 PUSH1 0x40 DUP3 ADD SWAP1 POP PUSH2 0x202C PUSH0 DUP4 ADD DUP6 PUSH2 0x1EA2 JUMP JUMPDEST PUSH2 0x2039 PUSH1 0x20 DUP4 ADD DUP5 PUSH2 0x1EA2 JUMP JUMPDEST SWAP4 SWAP3 POP POP POP JUMP JUMPDEST PUSH0 DUP2 MLOAD SWAP1 POP PUSH2 0x204E DUP2 PUSH2 0x1DD3 JUMP JUMPDEST SWAP3 SWAP2 POP POP JUMP JUMPDEST PUSH0 PUSH1 0x20 DUP3 DUP5 SUB SLT ISZERO PUSH2 0x2069 JUMPI PUSH2 0x2068 PUSH2 0x1D9F JUMP JUMPDEST JUMPDEST PUSH0 PUSH2 0x2076 DUP5 DUP3 DUP6 ADD PUSH2 0x2040 JUMP JUMPDEST SWAP2 POP POP SWAP3 SWAP2 POP POP JUMP JUMPDEST PUSH0 DUP2 MLOAD SWAP1 POP PUSH2 0x208D DUP2 PUSH2 0x1DFD JUMP JUMPDEST SWAP3 SWAP2 POP POP JUMP JUMPDEST PUSH0 PUSH1 0x20 DUP3 DUP5 SUB SLT ISZERO PUSH2 0x20A8 JUMPI PUSH2 0x20A7 PUSH2 0x1D9F JUMP JUMPDEST JUMPDEST PUSH0 PUSH2 0x20B5 DUP5 DUP3 DUP6 ADD PUSH2 0x207F JUMP JUMPDEST SWAP2 POP POP SWAP3 SWAP2 POP POP JUMP JUMPDEST PUSH32 0x45524332303A20496E73756666696369656E7420616C6C6F77616E636520666F PUSH0 DUP3 ADD MSTORE PUSH32 0x72207472616E7366657246726F6D000000000000000000000000000000000000 PUSH1 0x20 DUP3 ADD MSTORE POP JUMP JUMPDEST PUSH0 PUSH2 0x2118 PUSH1 0x2E DUP4 PUSH2 0x1C68 JUMP JUMPDEST SWAP2 POP PUSH2 0x2123 DUP3 PUSH2 0x20BE JUMP JUMPDEST PUSH1 0x40 DUP3 ADD SWAP1 POP SWAP2 SWAP1 POP JUMP JUMPDEST PUSH0 PUSH1 0x20 DUP3 ADD SWAP1 POP DUP2 DUP2 SUB PUSH0 DUP4 ADD MSTORE PUSH2 0x2145 DUP2 PUSH2 0x210C JUMP JUMPDEST SWAP1 POP SWAP2 SWAP1 POP JUMP JUMPDEST PUSH32 0x4E487B7100000000000000000000000000000000000000000000000000000000 PUSH0 MSTORE PUSH1 0x11 PUSH1 0x4 MSTORE PUSH1 0x24 PUSH0 REVERT JUMPDEST PUSH0 PUSH2 0x2183 DUP3 PUSH2 0x1D6E JUMP JUMPDEST SWAP2 POP PUSH2 0x218E DUP4 PUSH2 0x1D6E JUMP JUMPDEST SWAP3 POP DUP3 DUP3 ADD SWAP1 POP DUP1 DUP3 GT ISZERO PUSH2 0x21A6 JUMPI PUSH2 0x21A5 PUSH2 0x214C JUMP JUMPDEST JUMPDEST SWAP3 SWAP2 POP POP JUMP JUMPDEST PUSH32 0x546F74616C204B69707542616E6B27732066756E647320657863656564656400 PUSH0 DUP3 ADD MSTORE POP JUMP JUMPDEST PUSH0 PUSH2 0x21E0 PUSH1 0x1F DUP4 PUSH2 0x1C68 JUMP JUMPDEST SWAP2 POP PUSH2 0x21EB DUP3 PUSH2 0x21AC JUMP JUMPDEST PUSH1 0x20 DUP3 ADD SWAP1 POP SWAP2 SWAP1 POP JUMP JUMPDEST PUSH0 PUSH1 0x20 DUP3 ADD SWAP1 POP DUP2 DUP2 SUB PUSH0 DUP4 ADD MSTORE PUSH2 0x220D DUP2 PUSH2 0x21D4 JUMP JUMPDEST SWAP1 POP SWAP2 SWAP1 POP JUMP JUMPDEST PUSH32 0x4E487B7100000000000000000000000000000000000000000000000000000000 PUSH0 MSTORE PUSH1 0x41 PUSH1 0x4 MSTORE PUSH1 0x24 PUSH0 REVERT JUMPDEST PUSH32 0x4E487B7100000000000000000000000000000000000000000000000000000000 PUSH0 MSTORE PUSH1 0x32 PUSH1 0x4 MSTORE PUSH1 0x24 PUSH0 REVERT JUMPDEST PUSH0 DUP2 MLOAD SWAP1 POP SWAP2 SWAP1 POP JUMP JUMPDEST PUSH0 DUP3 DUP3 MSTORE PUSH1 0x20 DUP3 ADD SWAP1 POP SWAP3 SWAP2 POP POP JUMP JUMPDEST PUSH0 DUP2 SWAP1 POP PUSH1 0x20 DUP3 ADD SWAP1 POP SWAP2 SWAP1 POP JUMP JUMPDEST PUSH2 0x22A0 DUP2 PUSH2 0x1DC2 JUMP JUMPDEST DUP3 MSTORE POP POP JUMP JUMPDEST PUSH0 PUSH2 0x22B1 DUP4 DUP4 PUSH2 0x2297 JUMP JUMPDEST PUSH1 0x20 DUP4 ADD SWAP1 POP SWAP3 SWAP2 POP POP JUMP JUMPDEST PUSH0 PUSH1 0x20 DUP3 ADD SWAP1 POP SWAP2 SWAP1 POP JUMP JUMPDEST PUSH0 PUSH2 0x22D3 DUP3 PUSH2 0x226E JUMP JUMPDEST PUSH2 0x22DD DUP2 DUP6 PUSH2 0x2278 JUMP JUMPDEST SWAP4 POP PUSH2 0x22E8 DUP4 PUSH2 0x2288 JUMP JUMPDEST DUP1 PUSH0 JUMPDEST DUP4 DUP2 LT ISZERO PUSH2 0x2318 JUMPI DUP2 MLOAD PUSH2 0x22FF DUP9 DUP3 PUSH2 0x22A6 JUMP JUMPDEST SWAP8 POP PUSH2 0x230A DUP4 PUSH2 0x22BD JUMP JUMPDEST SWAP3 POP POP PUSH1 0x1 DUP2 ADD SWAP1 POP PUSH2 0x22EB JUMP JUMPDEST POP DUP6 SWAP4 POP POP POP POP SWAP3 SWAP2 POP POP JUMP JUMPDEST PUSH0 PUSH1 0xA0 DUP3 ADD SWAP1 POP PUSH2 0x2338 PUSH0 DUP4 ADD DUP9 PUSH2 0x1D77 JUMP JUMPDEST PUSH2 0x2345 PUSH1 0x20 DUP4 ADD DUP8 PUSH2 0x1D77 JUMP JUMPDEST DUP2 DUP2 SUB PUSH1 0x40 DUP4 ADD MSTORE PUSH2 0x2357 DUP2 DUP7 PUSH2 0x22C9 JUMP JUMPDEST SWAP1 POP PUSH2 0x2366 PUSH1 0x60 DUP4 ADD DUP6 PUSH2 0x1EA2 JUMP JUMPDEST PUSH2 0x2373 PUSH1 0x80 DUP4 ADD DUP5 PUSH2 0x1D77 JUMP JUMPDEST SWAP7 SWAP6 POP POP POP POP POP POP JUMP JUMPDEST PUSH0 PUSH2 0x2387 DUP3 PUSH2 0x1D6E JUMP JUMPDEST SWAP2 POP PUSH2 0x2392 DUP4 PUSH2 0x1D6E JUMP JUMPDEST SWAP3 POP DUP3 DUP3 SUB SWAP1 POP DUP2 DUP2 GT ISZERO PUSH2 0x23AA JUMPI PUSH2 0x23A9 PUSH2 0x214C JUMP JUMPDEST JUMPDEST SWAP3 SWAP2 POP POP JUMP JUMPDEST PUSH0 PUSH1 0x40 DUP3 ADD SWAP1 POP PUSH2 0x23C3 PUSH0 DUP4 ADD DUP6 PUSH2 0x1EA2 JUMP JUMPDEST PUSH2 0x23D0 PUSH1 0x20 DUP4 ADD DUP5 PUSH2 0x1D77 JUMP JUMPDEST SWAP4 SWAP3 POP POP POP JUMP JUMPDEST PUSH32 0x416D6F756E74206578636565647320746865206D6178696D756D207769746864 PUSH0 DUP3 ADD MSTORE PUSH32 0x726177616C000000000000000000000000000000000000000000000000000000 PUSH1 0x20 DUP3 ADD MSTORE POP JUMP JUMPDEST PUSH0 PUSH2 0x2431 PUSH1 0x25 DUP4 PUSH2 0x1C68 JUMP JUMPDEST SWAP2 POP PUSH2 0x243C DUP3 PUSH2 0x23D7 JUMP JUMPDEST PUSH1 0x40 DUP3 ADD SWAP1 POP SWAP2 SWAP1 POP JUMP JUMPDEST PUSH0 PUSH1 0x20 DUP3 ADD SWAP1 POP DUP2 DUP2 SUB PUSH0 DUP4 ADD MSTORE PUSH2 0x245E DUP2 PUSH2 0x2425 JUMP JUMPDEST SWAP1 POP SWAP2 SWAP1 POP JUMP JUMPDEST PUSH32 0x4E6F7420656E6F75676820666F756E6473000000000000000000000000000000 PUSH0 DUP3 ADD MSTORE POP JUMP JUMPDEST PUSH0 PUSH2 0x2499 PUSH1 0x11 DUP4 PUSH2 0x1C68 JUMP JUMPDEST SWAP2 POP PUSH2 0x24A4 DUP3 PUSH2 0x2465 JUMP JUMPDEST PUSH1 0x20 DUP3 ADD SWAP1 POP SWAP2 SWAP1 POP JUMP JUMPDEST PUSH0 PUSH1 0x20 DUP3 ADD SWAP1 POP DUP2 DUP2 SUB PUSH0 DUP4 ADD MSTORE PUSH2 0x24C6 DUP2 PUSH2 0x248D JUMP JUMPDEST SWAP1 POP SWAP2 SWAP1 POP JUMP JUMPDEST PUSH0 PUSH14 0xFFFFFFFFFFFFFFFFFFFFFFFFFFFF DUP3 AND SWAP1 POP SWAP2 SWAP1 POP JUMP JUMPDEST PUSH2 0x24EF DUP2 PUSH2 0x24CD JUMP JUMPDEST DUP2 EQ PUSH2 0x24F9 JUMPI PUSH0 DUP1 REVERT JUMPDEST POP JUMP JUMPDEST PUSH0 DUP2 MLOAD SWAP1 POP PUSH2 0x250A DUP2 PUSH2 0x24E6 JUMP JUMPDEST SWAP3 SWAP2 POP POP JUMP JUMPDEST PUSH0 PUSH4 0xFFFFFFFF DUP3 AND SWAP1 POP SWAP2 SWAP1 POP JUMP JUMPDEST PUSH2 0x2528 DUP2 PUSH2 0x2510 JUMP JUMPDEST DUP2 EQ PUSH2 0x2532 JUMPI PUSH0 DUP1 REVERT JUMPDEST POP JUMP JUMPDEST PUSH0 DUP2 MLOAD SWAP1 POP PUSH2 0x2543 DUP2 PUSH2 0x251F JUMP JUMPDEST SWAP3 SWAP2 POP POP JUMP JUMPDEST PUSH0 DUP1 PUSH0 PUSH1 0x60 DUP5 DUP7 SUB SLT ISZERO PUSH2 0x2560 JUMPI PUSH2 0x255F PUSH2 0x1D9F JUMP JUMPDEST JUMPDEST PUSH0 PUSH2 0x256D DUP7 DUP3 DUP8 ADD PUSH2 0x24FC JUMP JUMPDEST SWAP4 POP POP PUSH1 0x20 PUSH2 0x257E DUP7 DUP3 DUP8 ADD PUSH2 0x24FC JUMP JUMPDEST SWAP3 POP POP PUSH1 0x40 PUSH2 0x258F DUP7 DUP3 DUP8 ADD PUSH2 0x2535 JUMP JUMPDEST SWAP2 POP POP SWAP3 POP SWAP3 POP SWAP3 JUMP JUMPDEST PUSH0 PUSH2 0x25A3 DUP3 PUSH2 0x1D6E JUMP JUMPDEST SWAP2 POP PUSH2 0x25AE DUP4 PUSH2 0x1D6E JUMP JUMPDEST SWAP3 POP DUP3 DUP3 MUL PUSH2 0x25BC DUP2 PUSH2 0x1D6E JUMP JUMPDEST SWAP2 POP DUP3 DUP3 DIV DUP5 EQ DUP4 ISZERO OR PUSH2 0x25D3 JUMPI PUSH2 0x25D2 PUSH2 0x214C JUMP JUMPDEST JUMPDEST POP SWAP3 SWAP2 POP POP JUMP JUMPDEST PUSH0 PUSH2 0x25E4 DUP3 PUSH2 0x24CD JUMP JUMPDEST SWAP2 POP PUSH2 0x25EF DUP4 PUSH2 0x24CD JUMP JUMPDEST SWAP3 POP DUP3 DUP3 MUL PUSH2 0x25FD DUP2 PUSH2 0x24CD JUMP JUMPDEST SWAP2 POP DUP1 DUP3 EQ PUSH2 0x260F JUMPI PUSH2 0x260E PUSH2 0x214C JUMP JUMPDEST JUMPDEST POP SWAP3 SWAP2 POP POP JUMP JUMPDEST PUSH32 0x4E487B7100000000000000000000000000000000000000000000000000000000 PUSH0 MSTORE PUSH1 0x12 PUSH1 0x4 MSTORE PUSH1 0x24 PUSH0 REVERT JUMPDEST PUSH0 PUSH2 0x264D DUP3 PUSH2 0x1D6E JUMP JUMPDEST SWAP2 POP PUSH2 0x2658 DUP4 PUSH2 0x1D6E JUMP JUMPDEST SWAP3 POP DUP3 PUSH2 0x2668 JUMPI PUSH2 0x2667 PUSH2 0x2616 JUMP JUMPDEST JUMPDEST DUP3 DUP3 DIV SWAP1 POP SWAP3 SWAP2 POP POP JUMP JUMPDEST PUSH0 PUSH1 0x60 DUP3 ADD SWAP1 POP PUSH2 0x2686 PUSH0 DUP4 ADD DUP7 PUSH2 0x1EA2 JUMP JUMPDEST PUSH2 0x2693 PUSH1 0x20 DUP4 ADD DUP6 PUSH2 0x1EA2 JUMP JUMPDEST PUSH2 0x26A0 PUSH1 0x40 DUP4 ADD DUP5 PUSH2 0x1D77 JUMP JUMPDEST SWAP5 SWAP4 POP POP POP POP JUMP JUMPDEST PUSH0 PUSH1 0x80 DUP3 ADD SWAP1 POP PUSH2 0x26BB PUSH0 DUP4 ADD DUP8 PUSH2 0x1D77 JUMP JUMPDEST DUP2 DUP2 SUB PUSH1 0x20 DUP4 ADD MSTORE PUSH2 0x26CD DUP2 DUP7 PUSH2 0x22C9 JUMP JUMPDEST SWAP1 POP PUSH2 0x26DC PUSH1 0x40 DUP4 ADD DUP6 PUSH2 0x1EA2 JUMP JUMPDEST PUSH2 0x26E9 PUSH1 0x60 DUP4 ADD DUP5 PUSH2 0x1D77 JUMP JUMPDEST SWAP6 SWAP5 POP POP POP POP POP JUMP INVALID LOG2 PUSH5 0x6970667358 0x22 SLT KECCAK256 CALLER SWAP12 0xD2 CALLVALUE ADDMOD 0xCA EXTCODEHASH 0xD2 CALL PUSH27 0x5D1D8637845D237478F0B8BEA19ACA82FE4314CB11CB64736F6C63 NUMBER STOP ADDMOD BYTE STOP CALLER "
				},
				"gasEstimates": {
					"creation": {
						"codeDepositCost": "2004800",
						"executionCost": "infinite",
						"totalCost": "infinite"
					},
					"external": {
						"": "532",
						"consultKipuBankFounds()": "infinite",
						"deposit()": "infinite",
						"depositERC20(address,uint256,uint256)": "infinite",
						"emergencyWithdrawal(uint256,address)": "infinite",
						"i_bankCap()": "infinite",
						"i_maxWithdrawal()": "infinite",
						"i_usdc()": "infinite",
						"i_weth()": "infinite",
						"owner()": "2560",
						"renounceOwnership()": "infinite",
						"s_totalDepositsByToken(address)": "2892",
						"s_totalWithdrawals()": "2469",
						"transferOwnership(address)": "infinite",
						"uniswapFactory()": "infinite",
						"uniswapRouter()": "infinite",
						"withdrawUsdc(uint256)": "infinite"
					},
					"internal": {
						"_actualizeOperations(bool,address)": "infinite",
						"_consultFounds()": "infinite",
						"_depositETH(address,uint256)": "infinite",
						"_estimateUSDCOut(address,uint256)": "infinite"
					}
				},
				"methodIdentifiers": {
					"consultKipuBankFounds()": "06f69acc",
					"deposit()": "d0e30db0",
					"depositERC20(address,uint256,uint256)": "21425ee0",
					"emergencyWithdrawal(uint256,address)": "9e2b5339",
					"i_bankCap()": "f6687af7",
					"i_maxWithdrawal()": "089781a9",
					"i_usdc()": "ff40e1d0",
					"i_weth()": "4dbe7e92",
					"owner()": "8da5cb5b",
					"renounceOwnership()": "715018a6",
					"s_totalDepositsByToken(address)": "260ad389",
					"s_totalWithdrawals()": "f3db702c",
					"transferOwnership(address)": "f2fde38b",
					"uniswapFactory()": "8bdb2afa",
					"uniswapRouter()": "735de9f7",
					"withdrawUsdc(uint256)": "5b06dece"
				}
			},
			"storageLayout": {
				"storage": [
					{
						"astId": 8,
						"contract": "contracts/KipuBankV3.sol:KipuBankV3",
						"label": "_owner",
						"offset": 0,
						"slot": "0",
						"type": "t_address"
					},
					{
						"astId": 846,
						"contract": "contracts/KipuBankV3.sol:KipuBankV3",
						"label": "_status",
						"offset": 0,
						"slot": "1",
						"type": "t_uint256"
					},
					{
						"astId": 1647,
						"contract": "contracts/KipuBankV3.sol:KipuBankV3",
						"label": "s_balances",
						"offset": 0,
						"slot": "2",
						"type": "t_mapping(t_address,t_uint256)"
					},
					{
						"astId": 1651,
						"contract": "contracts/KipuBankV3.sol:KipuBankV3",
						"label": "s_totalDepositsByToken",
						"offset": 0,
						"slot": "3",
						"type": "t_mapping(t_address,t_uint256)"
					},
					{
						"astId": 1653,
						"contract": "contracts/KipuBankV3.sol:KipuBankV3",
						"label": "s_totalWithdrawals",
						"offset": 0,
						"slot": "4",
						"type": "t_uint256"
					},
					{
						"astId": 1668,
						"contract": "contracts/KipuBankV3.sol:KipuBankV3",
						"label": "uniswapFactory",
						"offset": 0,
						"slot": "5",
						"type": "t_contract(IUniswapV2Factory)979"
					}
				],
				"types": {
					"t_address": {
						"encoding": "inplace",
						"label": "address",
						"numberOfBytes": "20"
					},
					"t_contract(IUniswapV2Factory)979": {
						"encoding": "inplace",
						"label": "contract IUniswapV2Factory",
						"numberOfBytes": "20"
					},
					"t_mapping(t_address,t_uint256)": {
						"encoding": "mapping",
						"key": "t_address",
						"label": "mapping(address => uint256)",
						"numberOfBytes": "32",
						"value": "t_uint256"
					},
					"t_uint256": {
						"encoding": "inplace",
						"label": "uint256",
						"numberOfBytes": "32"
					}
				}
			},
			"userdoc": {
				"kind": "user",
				"methods": {},
				"version": 1
			}
		}
	}
}