{
	"contracts/KipuBankV3.sol": {
		"KipuBankV3": {
			"abi": [
				{
					"inputs": [
						{
							"internalType": "address",
							"name": "_initialOwner",
							"type": "address"
						},
						{
							"internalType": "address",
							"name": "_weth",
							"type": "address"
						},
						{
							"internalType": "address",
							"name": "_usdc",
							"type": "address"
						},
						{
							"internalType": "address",
							"name": "_router",
							"type": "address"
						},
						{
							"internalType": "uint256",
							"name": "_bankCap",
							"type": "uint256"
						},
						{
							"internalType": "uint256",
							"name": "_maxWithdrawal",
							"type": "uint256"
						}
					],
					"stateMutability": "nonpayable",
					"type": "constructor"
				},
				{
					"inputs": [],
					"name": "KipuBank_DeniedContract",
					"type": "error"
				},
				{
					"inputs": [
						{
							"internalType": "bytes",
							"name": "error",
							"type": "bytes"
						}
					],
					"name": "KipuBank_FailedDeposit",
					"type": "error"
				},
				{
					"inputs": [
						{
							"internalType": "bytes",
							"name": "error",
							"type": "bytes"
						}
					],
					"name": "KipuBank_FailedOperation",
					"type": "error"
				},
				{
					"inputs": [
						{
							"internalType": "bytes",
							"name": "error",
							"type": "bytes"
						}
					],
					"name": "KipuBank_FailedWithdrawal",
					"type": "error"
				},
				{
					"inputs": [
						{
							"internalType": "bytes",
							"name": "error",
							"type": "bytes"
						}
					],
					"name": "KipuBank_InsufficientFunds",
					"type": "error"
				},
				{
					"inputs": [
						{
							"internalType": "address",
							"name": "token",
							"type": "address"
						}
					],
					"name": "KipuBank_NotSupportedToken",
					"type": "error"
				},
				{
					"inputs": [
						{
							"internalType": "address",
							"name": "owner",
							"type": "address"
						}
					],
					"name": "OwnableInvalidOwner",
					"type": "error"
				},
				{
					"inputs": [
						{
							"internalType": "address",
							"name": "account",
							"type": "address"
						}
					],
					"name": "OwnableUnauthorizedAccount",
					"type": "error"
				},
				{
					"inputs": [],
					"name": "ReentrancyGuardReentrantCall",
					"type": "error"
				},
				{
					"inputs": [
						{
							"internalType": "address",
							"name": "token",
							"type": "address"
						}
					],
					"name": "SafeERC20FailedOperation",
					"type": "error"
				},
				{
					"anonymous": false,
					"inputs": [
						{
							"indexed": false,
							"internalType": "uint256",
							"name": "amount",
							"type": "uint256"
						}
					],
					"name": "KipuBank_EmergencyWithdrawal",
					"type": "event"
				},
				{
					"anonymous": false,
					"inputs": [
						{
							"indexed": false,
							"internalType": "address",
							"name": "receiver",
							"type": "address"
						},
						{
							"indexed": false,
							"internalType": "uint256",
							"name": "amount",
							"type": "uint256"
						}
					],
					"name": "KipuBank_SuccessfulDeposit",
					"type": "event"
				},
				{
					"anonymous": false,
					"inputs": [
						{
							"indexed": false,
							"internalType": "address",
							"name": "receiver",
							"type": "address"
						},
						{
							"indexed": false,
							"internalType": "uint256",
							"name": "amount",
							"type": "uint256"
						}
					],
					"name": "KipuBank_SuccessfulWithdrawal",
					"type": "event"
				},
				{
					"anonymous": false,
					"inputs": [
						{
							"indexed": true,
							"internalType": "address",
							"name": "previousOwner",
							"type": "address"
						},
						{
							"indexed": true,
							"internalType": "address",
							"name": "newOwner",
							"type": "address"
						}
					],
					"name": "OwnershipTransferred",
					"type": "event"
				},
				{
					"stateMutability": "nonpayable",
					"type": "fallback"
				},
				{
					"inputs": [],
					"name": "consultKipuBankFunds",
					"outputs": [
						{
							"internalType": "uint256",
							"name": "amount_",
							"type": "uint256"
						}
					],
					"stateMutability": "view",
					"type": "function"
				},
				{
					"inputs": [],
					"name": "deposit",
					"outputs": [],
					"stateMutability": "payable",
					"type": "function"
				},
				{
					"inputs": [
						{
							"internalType": "address",
							"name": "_token",
							"type": "address"
						},
						{
							"internalType": "uint256",
							"name": "_amountIn",
							"type": "uint256"
						},
						{
							"internalType": "uint256",
							"name": "_amountMinOut",
							"type": "uint256"
						}
					],
					"name": "depositERC20",
					"outputs": [],
					"stateMutability": "nonpayable",
					"type": "function"
				},
				{
					"inputs": [
						{
							"internalType": "uint256",
							"name": "_amount",
							"type": "uint256"
						},
						{
							"internalType": "address",
							"name": "_recipient",
							"type": "address"
						}
					],
					"name": "emergencyWithdrawal",
					"outputs": [],
					"stateMutability": "nonpayable",
					"type": "function"
				},
				{
					"inputs": [],
					"name": "i_bankCap",
					"outputs": [
						{
							"internalType": "uint256",
							"name": "",
							"type": "uint256"
						}
					],
					"stateMutability": "view",
					"type": "function"
				},
				{
					"inputs": [],
					"name": "i_maxWithdrawal",
					"outputs": [
						{
							"internalType": "uint256",
							"name": "",
							"type": "uint256"
						}
					],
					"stateMutability": "view",
					"type": "function"
				},
				{
					"inputs": [],
					"name": "i_usdc",
					"outputs": [
						{
							"internalType": "contract IERC20",
							"name": "",
							"type": "address"
						}
					],
					"stateMutability": "view",
					"type": "function"
				},
				{
					"inputs": [],
					"name": "i_weth",
					"outputs": [
						{
							"internalType": "address",
							"name": "",
							"type": "address"
						}
					],
					"stateMutability": "view",
					"type": "function"
				},
				{
					"inputs": [],
					"name": "owner",
					"outputs": [
						{
							"internalType": "address",
							"name": "",
							"type": "address"
						}
					],
					"stateMutability": "view",
					"type": "function"
				},
				{
					"inputs": [],
					"name": "renounceOwnership",
					"outputs": [],
					"stateMutability": "nonpayable",
					"type": "function"
				},
				{
					"inputs": [
						{
							"internalType": "address",
							"name": "",
							"type": "address"
						}
					],
					"name": "s_totalDepositsByToken",
					"outputs": [
						{
							"internalType": "uint256",
							"name": "",
							"type": "uint256"
						}
					],
					"stateMutability": "view",
					"type": "function"
				},
				{
					"inputs": [],
					"name": "s_totalWithdrawals",
					"outputs": [
						{
							"internalType": "uint256",
							"name": "",
							"type": "uint256"
						}
					],
					"stateMutability": "view",
					"type": "function"
				},
				{
					"inputs": [
						{
							"internalType": "address",
							"name": "newOwner",
							"type": "address"
						}
					],
					"name": "transferOwnership",
					"outputs": [],
					"stateMutability": "nonpayable",
					"type": "function"
				},
				{
					"inputs": [],
					"name": "uniswapFactory",
					"outputs": [
						{
							"internalType": "contract IUniswapV2Factory",
							"name": "",
							"type": "address"
						}
					],
					"stateMutability": "view",
					"type": "function"
				},
				{
					"inputs": [],
					"name": "uniswapRouter",
					"outputs": [
						{
							"internalType": "contract IUniswapV2Router02",
							"name": "",
							"type": "address"
						}
					],
					"stateMutability": "view",
					"type": "function"
				},
				{
					"inputs": [
						{
							"internalType": "uint256",
							"name": "_amount",
							"type": "uint256"
						}
					],
					"name": "withdrawUsdc",
					"outputs": [],
					"stateMutability": "nonpayable",
					"type": "function"
				},
				{
					"stateMutability": "payable",
					"type": "receive"
				}
			],
			"devdoc": {
				"errors": {
					"KipuBank_FailedDeposit(bytes)": [
						{
							"params": {
								"error": "Encoded error message returned by the failed call."
							}
						}
					],
					"KipuBank_FailedOperation(bytes)": [
						{
							"params": {
								"error": "Encoded error message returned by the failed call."
							}
						}
					],
					"KipuBank_FailedWithdrawal(bytes)": [
						{
							"params": {
								"error": "Encoded error message returned by the failed call."
							}
						}
					],
					"KipuBank_InsufficientFunds(bytes)": [
						{
							"params": {
								"error": "Encoded error message returned by the failed call."
							}
						}
					],
					"KipuBank_NotSupportedToken(address)": [
						{
							"params": {
								"token": "The address of the unsupported token."
							}
						}
					],
					"OwnableInvalidOwner(address)": [
						{
							"details": "The owner is not a valid owner account. (eg. `address(0)`)"
						}
					],
					"OwnableUnauthorizedAccount(address)": [
						{
							"details": "The caller account is not authorized to perform an operation."
						}
					],
					"ReentrancyGuardReentrantCall()": [
						{
							"details": "Unauthorized reentrant call."
						}
					],
					"SafeERC20FailedOperation(address)": [
						{
							"details": "An operation with an ERC-20 token failed."
						}
					]
				},
				"events": {
					"KipuBank_EmergencyWithdrawal(uint256)": {
						"params": {
							"amount": "The amount of USDC withdrawn by the owner."
						}
					},
					"KipuBank_SuccessfulDeposit(address,uint256)": {
						"params": {
							"amount": "The net amount of USDC credited to the user's balance.",
							"receiver": "The address making the deposit."
						}
					},
					"KipuBank_SuccessfulWithdrawal(address,uint256)": {
						"params": {
							"amount": "The amount of USDC withdrawn.",
							"receiver": "The address receiving the withdrawn funds."
						}
					}
				},
				"kind": "dev",
				"methods": {
					"constructor": {
						"custom:error": "KipuBank_DeniedContract Thrown if the capacity or withdrawal limits are set too low.",
						"params": {
							"_bankCap": "The maximum capacity the bank can hold (in unscaled USD value).",
							"_initialOwner": "The address that will be set as the contract owner.",
							"_maxWithdrawal": "The maximum amount a user can withdraw per transaction (in unscaled USD value).",
							"_router": "The address of the Uniswap V2 Router02.",
							"_usdc": "The address of the USDC ERC20 token. ",
							"_weth": "The address of the WETH token (used for ETH swaps)."
						}
					},
					"consultKipuBankFunds()": {
						"returns": {
							"amount_": "The contract's USDC balance (6 decimals)."
						}
					},
					"deposit()": {
						"details": "Calls _depositETH and is protected by nonReentrant."
					},
					"depositERC20(address,uint256,uint256)": {
						"custom:error": "KipuBank_FailedDeposit Thrown if the post-swap USDC balance exceeds i_bankCap.",
						"params": {
							"_amountIn": "The amount of the ERC20 token being deposited.",
							"_amountMinOut": "The minimum amount of USDC expected to receive from the swap.",
							"_token": "The address of the ERC20 token being deposited."
						}
					},
					"emergencyWithdrawal(uint256,address)": {
						"params": {
							"_amount": "The amount of USDC to withdraw.",
							"_recipient": "The address to send the funds to."
						}
					},
					"owner()": {
						"details": "Returns the address of the current owner."
					},
					"renounceOwnership()": {
						"details": "Leaves the contract without owner. It will not be possible to call `onlyOwner` functions. Can only be called by the current owner. NOTE: Renouncing ownership will leave the contract without an owner, thereby disabling any functionality that is only available to the owner."
					},
					"transferOwnership(address)": {
						"details": "Transfers ownership of the contract to a new account (`newOwner`). Can only be called by the current owner."
					},
					"withdrawUsdc(uint256)": {
						"params": {
							"_amount": "The amount of USDC to withdraw (in USDC decimals)."
						}
					}
				},
				"version": 1
			},
			"evm": {
				"assembly": "    /* \"contracts/KipuBankV3.sol\":1053:15450  contract KipuBankV3 is Ownable, ReentrancyGuard{... */\n  mstore(0x40, 0x0120)\n    /* \"contracts/KipuBankV3.sol\":7677:8258  constructor(... */\n  callvalue\n  dup1\n  iszero\n  tag_1\n  jumpi\n  0x00\n  dup1\n  revert\ntag_1:\n  pop\n  mload(0x40)\n  sub(codesize, bytecodeSize)\n  dup1\n  bytecodeSize\n  dup4\n  codecopy\n  dup2\n  dup2\n  add\n  0x40\n  mstore\n  dup2\n  add\n  swap1\n  tag_2\n  swap2\n  swap1\n  tag_3\n  jump\t// in\ntag_2:\n    /* \"contracts/KipuBankV3.sol\":7848:7861  _initialOwner */\n  dup6\n    /* \"@openzeppelin/contracts/access/Ownable.sol\":1297:1298  0 */\n  0x00\n    /* \"@openzeppelin/contracts/access/Ownable.sol\":1273:1299  initialOwner == address(0) */\n  0xffffffffffffffffffffffffffffffffffffffff\n  and\n    /* \"@openzeppelin/contracts/access/Ownable.sol\":1273:1285  initialOwner */\n  dup2\n    /* \"@openzeppelin/contracts/access/Ownable.sol\":1273:1299  initialOwner == address(0) */\n  0xffffffffffffffffffffffffffffffffffffffff\n  and\n  sub\n    /* \"@openzeppelin/contracts/access/Ownable.sol\":1269:1364  if (initialOwner == address(0)) {... */\n  tag_8\n  jumpi\n    /* \"@openzeppelin/contracts/access/Ownable.sol\":1350:1351  0 */\n  0x00\n    /* \"@openzeppelin/contracts/access/Ownable.sol\":1322:1353  OwnableInvalidOwner(address(0)) */\n  mload(0x40)\n  0x1e4fbdf700000000000000000000000000000000000000000000000000000000\n  dup2\n  mstore\n  0x04\n  add\n  tag_9\n  swap2\n  swap1\n  tag_10\n  jump\t// in\ntag_9:\n  mload(0x40)\n  dup1\n  swap2\n  sub\n  swap1\n  revert\n    /* \"@openzeppelin/contracts/access/Ownable.sol\":1269:1364  if (initialOwner == address(0)) {... */\ntag_8:\n    /* \"@openzeppelin/contracts/access/Ownable.sol\":1373:1405  _transferOwnership(initialOwner) */\n  tag_11\n    /* \"@openzeppelin/contracts/access/Ownable.sol\":1392:1404  initialOwner */\n  dup2\n    /* \"@openzeppelin/contracts/access/Ownable.sol\":1373:1391  _transferOwnership */\n  shl(0x20, tag_12)\n    /* \"@openzeppelin/contracts/access/Ownable.sol\":1373:1405  _transferOwnership(initialOwner) */\n  0x20\n  shr\n  jump\t// in\ntag_11:\n    /* \"@openzeppelin/contracts/access/Ownable.sol\":1225:1412  constructor(address initialOwner) {... */\n  pop\n    /* \"@openzeppelin/contracts/utils/ReentrancyGuard.sol\":1857:1858  1 */\n  0x01\n    /* \"@openzeppelin/contracts/utils/ReentrancyGuard.sol\":2061:2068  _status */\n  dup1\n    /* \"@openzeppelin/contracts/utils/ReentrancyGuard.sol\":2061:2082  _status = NOT_ENTERED */\n  dup2\n  swap1\n  sstore\n  pop\n    /* \"contracts/KipuBankV3.sol\":7898:7900  10 */\n  0x0a\n    /* \"contracts/KipuBankV3.sol\":7887:7895  _bankCap */\n  dup3\n    /* \"contracts/KipuBankV3.sol\":7887:7900  _bankCap < 10 */\n  lt\n    /* \"contracts/KipuBankV3.sol\":7887:7922  _bankCap < 10 || _maxWithdrawal < 1 */\n  dup1\n  tag_15\n  jumpi\n  pop\n    /* \"contracts/KipuBankV3.sol\":7921:7922  1 */\n  0x01\n    /* \"contracts/KipuBankV3.sol\":7904:7918  _maxWithdrawal */\n  dup2\n    /* \"contracts/KipuBankV3.sol\":7904:7922  _maxWithdrawal < 1 */\n  lt\n    /* \"contracts/KipuBankV3.sol\":7887:7922  _bankCap < 10 || _maxWithdrawal < 1 */\ntag_15:\n    /* \"contracts/KipuBankV3.sol\":7883:7956  if (_bankCap < 10 || _maxWithdrawal < 1) revert KipuBank_DeniedContract() */\n  iszero\n  tag_16\n  jumpi\n    /* \"contracts/KipuBankV3.sol\":7931:7956  KipuBank_DeniedContract() */\n  mload(0x40)\n  0x01d65100000000000000000000000000000000000000000000000000000000\n  dup2\n  mstore\n  0x04\n  add\n  mload(0x40)\n  dup1\n  swap2\n  sub\n  swap1\n  revert\n    /* \"contracts/KipuBankV3.sol\":7883:7956  if (_bankCap < 10 || _maxWithdrawal < 1) revert KipuBank_DeniedContract() */\ntag_16:\n    /* \"contracts/KipuBankV3.sol\":8000:8005  10**6 */\n  0x0f4240\n    /* \"contracts/KipuBankV3.sol\":7989:7997  _bankCap */\n  dup3\n    /* \"contracts/KipuBankV3.sol\":7989:8005  _bankCap * 10**6 */\n  tag_17\n  swap2\n  swap1\n  tag_18\n  jump\t// in\ntag_17:\n    /* \"contracts/KipuBankV3.sol\":7977:8005  i_bankCap = _bankCap * 10**6 */\n  0x80\n  dup2\n  dup2\n  mstore\n  pop\n  pop\n    /* \"contracts/KipuBankV3.sol\":8051:8056  10**6 */\n  0x0f4240\n    /* \"contracts/KipuBankV3.sol\":8035:8049  _maxWithdrawal */\n  dup2\n    /* \"contracts/KipuBankV3.sol\":8035:8056  _maxWithdrawal* 10**6 */\n  tag_19\n  swap2\n  swap1\n  tag_18\n  jump\t// in\ntag_19:\n    /* \"contracts/KipuBankV3.sol\":8016:8056  i_maxWithdrawal  = _maxWithdrawal* 10**6 */\n  0xa0\n  dup2\n  dup2\n  mstore\n  pop\n  pop\n    /* \"contracts/KipuBankV3.sol\":8093:8098  _usdc */\n  dup4\n    /* \"contracts/KipuBankV3.sol\":8077:8099  i_usdc = IERC20(_usdc) */\n  0xffffffffffffffffffffffffffffffffffffffff\n  and\n  0xc0\n  dup2\n  0xffffffffffffffffffffffffffffffffffffffff\n  and\n  dup2\n  mstore\n  pop\n  pop\n    /* \"contracts/KipuBankV3.sol\":8119:8124  _weth */\n  dup5\n    /* \"contracts/KipuBankV3.sol\":8110:8124  i_weth = _weth */\n  0xffffffffffffffffffffffffffffffffffffffff\n  and\n  0xe0\n  dup2\n  0xffffffffffffffffffffffffffffffffffffffff\n  and\n  dup2\n  mstore\n  pop\n  pop\n    /* \"contracts/KipuBankV3.sol\":8172:8179  _router */\n  dup3\n    /* \"contracts/KipuBankV3.sol\":8137:8180  uniswapRouter = IUniswapV2Router02(_router) */\n  0xffffffffffffffffffffffffffffffffffffffff\n  and\n  0x0100\n  dup2\n  0xffffffffffffffffffffffffffffffffffffffff\n  and\n  dup2\n  mstore\n  pop\n  pop\n    /* \"contracts/KipuBankV3.sol\":8226:8239  uniswapRouter */\n  mload(0x0100)\n    /* \"contracts/KipuBankV3.sol\":8226:8247  uniswapRouter.factory */\n  0xffffffffffffffffffffffffffffffffffffffff\n  and\n  0xc45a0155\n    /* \"contracts/KipuBankV3.sol\":8226:8249  uniswapRouter.factory() */\n  mload(0x40)\n  dup2\n  0xffffffff\n  and\n  0xe0\n  shl\n  dup2\n  mstore\n  0x04\n  add\n  0x20\n  mload(0x40)\n  dup1\n  dup4\n  sub\n  dup2\n  dup7\n  gas\n  staticcall\n  iszero\n  dup1\n  iszero\n  tag_21\n  jumpi\n  returndatasize\n  0x00\n  dup1\n  returndatacopy\n  revert(0x00, returndatasize)\ntag_21:\n  pop\n  pop\n  pop\n  pop\n  mload(0x40)\n  returndatasize\n  not(0x1f)\n  0x1f\n  dup3\n  add\n  and\n  dup3\n  add\n  dup1\n  0x40\n  mstore\n  pop\n  dup2\n  add\n  swap1\n  tag_22\n  swap2\n  swap1\n  tag_23\n  jump\t// in\ntag_22:\n    /* \"contracts/KipuBankV3.sol\":8191:8205  uniswapFactory */\n  0x05\n  0x00\n    /* \"contracts/KipuBankV3.sol\":8191:8250  uniswapFactory = IUniswapV2Factory(uniswapRouter.factory()) */\n  0x0100\n  exp\n  dup2\n  sload\n  dup2\n  0xffffffffffffffffffffffffffffffffffffffff\n  mul\n  not\n  and\n  swap1\n  dup4\n  0xffffffffffffffffffffffffffffffffffffffff\n  and\n  mul\n  or\n  swap1\n  sstore\n  pop\n    /* \"contracts/KipuBankV3.sol\":7677:8258  constructor(... */\n  pop\n  pop\n  pop\n  pop\n  pop\n  pop\n    /* \"contracts/KipuBankV3.sol\":1053:15450  contract KipuBankV3 is Ownable, ReentrancyGuard{... */\n  jump(tag_24)\n    /* \"@openzeppelin/contracts/access/Ownable.sol\":2912:3099  function _transferOwnership(address newOwner) internal virtual {... */\ntag_12:\n    /* \"@openzeppelin/contracts/access/Ownable.sol\":2985:3001  address oldOwner */\n  0x00\n    /* \"@openzeppelin/contracts/access/Ownable.sol\":3004:3010  _owner */\n  dup1\n  0x00\n  swap1\n  sload\n  swap1\n  0x0100\n  exp\n  swap1\n  div\n  0xffffffffffffffffffffffffffffffffffffffff\n  and\n    /* \"@openzeppelin/contracts/access/Ownable.sol\":2985:3010  address oldOwner = _owner */\n  swap1\n  pop\n    /* \"@openzeppelin/contracts/access/Ownable.sol\":3029:3037  newOwner */\n  dup2\n    /* \"@openzeppelin/contracts/access/Ownable.sol\":3020:3026  _owner */\n  0x00\n  dup1\n    /* \"@openzeppelin/contracts/access/Ownable.sol\":3020:3037  _owner = newOwner */\n  0x0100\n  exp\n  dup2\n  sload\n  dup2\n  0xffffffffffffffffffffffffffffffffffffffff\n  mul\n  not\n  and\n  swap1\n  dup4\n  0xffffffffffffffffffffffffffffffffffffffff\n  and\n  mul\n  or\n  swap1\n  sstore\n  pop\n    /* \"@openzeppelin/contracts/access/Ownable.sol\":3083:3091  newOwner */\n  dup2\n    /* \"@openzeppelin/contracts/access/Ownable.sol\":3052:3092  OwnershipTransferred(oldOwner, newOwner) */\n  0xffffffffffffffffffffffffffffffffffffffff\n  and\n    /* \"@openzeppelin/contracts/access/Ownable.sol\":3073:3081  oldOwner */\n  dup2\n    /* \"@openzeppelin/contracts/access/Ownable.sol\":3052:3092  OwnershipTransferred(oldOwner, newOwner) */\n  0xffffffffffffffffffffffffffffffffffffffff\n  and\n  0x8be0079c531659141344cd1fd0a4f28419497f9722a3daafe3b4186f6b6457e0\n  mload(0x40)\n  mload(0x40)\n  dup1\n  swap2\n  sub\n  swap1\n  log3\n    /* \"@openzeppelin/contracts/access/Ownable.sol\":2975:3099  {... */\n  pop\n    /* \"@openzeppelin/contracts/access/Ownable.sol\":2912:3099  function _transferOwnership(address newOwner) internal virtual {... */\n  pop\n  jump\t// out\n    /* \"#utility.yul\":88:205   */\ntag_27:\n    /* \"#utility.yul\":197:198   */\n  0x00\n    /* \"#utility.yul\":194:195   */\n  dup1\n    /* \"#utility.yul\":187:199   */\n  revert\n    /* \"#utility.yul\":334:460   */\ntag_29:\n    /* \"#utility.yul\":371:378   */\n  0x00\n    /* \"#utility.yul\":411:453   */\n  0xffffffffffffffffffffffffffffffffffffffff\n    /* \"#utility.yul\":404:409   */\n  dup3\n    /* \"#utility.yul\":400:454   */\n  and\n    /* \"#utility.yul\":389:454   */\n  swap1\n  pop\n    /* \"#utility.yul\":334:460   */\n  swap2\n  swap1\n  pop\n  jump\t// out\n    /* \"#utility.yul\":466:562   */\ntag_30:\n    /* \"#utility.yul\":503:510   */\n  0x00\n    /* \"#utility.yul\":532:556   */\n  tag_44\n    /* \"#utility.yul\":550:555   */\n  dup3\n    /* \"#utility.yul\":532:556   */\n  tag_29\n  jump\t// in\ntag_44:\n    /* \"#utility.yul\":521:556   */\n  swap1\n  pop\n    /* \"#utility.yul\":466:562   */\n  swap2\n  swap1\n  pop\n  jump\t// out\n    /* \"#utility.yul\":568:690   */\ntag_31:\n    /* \"#utility.yul\":641:665   */\n  tag_46\n    /* \"#utility.yul\":659:664   */\n  dup2\n    /* \"#utility.yul\":641:665   */\n  tag_30\n  jump\t// in\ntag_46:\n    /* \"#utility.yul\":634:639   */\n  dup2\n    /* \"#utility.yul\":631:666   */\n  eq\n    /* \"#utility.yul\":621:684   */\n  tag_47\n  jumpi\n    /* \"#utility.yul\":680:681   */\n  0x00\n    /* \"#utility.yul\":677:678   */\n  dup1\n    /* \"#utility.yul\":670:682   */\n  revert\n    /* \"#utility.yul\":621:684   */\ntag_47:\n    /* \"#utility.yul\":568:690   */\n  pop\n  jump\t// out\n    /* \"#utility.yul\":696:839   */\ntag_32:\n    /* \"#utility.yul\":753:758   */\n  0x00\n    /* \"#utility.yul\":784:790   */\n  dup2\n    /* \"#utility.yul\":778:791   */\n  mload\n    /* \"#utility.yul\":769:791   */\n  swap1\n  pop\n    /* \"#utility.yul\":800:833   */\n  tag_49\n    /* \"#utility.yul\":827:832   */\n  dup2\n    /* \"#utility.yul\":800:833   */\n  tag_31\n  jump\t// in\ntag_49:\n    /* \"#utility.yul\":696:839   */\n  swap3\n  swap2\n  pop\n  pop\n  jump\t// out\n    /* \"#utility.yul\":845:922   */\ntag_33:\n    /* \"#utility.yul\":882:889   */\n  0x00\n    /* \"#utility.yul\":911:916   */\n  dup2\n    /* \"#utility.yul\":900:916   */\n  swap1\n  pop\n    /* \"#utility.yul\":845:922   */\n  swap2\n  swap1\n  pop\n  jump\t// out\n    /* \"#utility.yul\":928:1050   */\ntag_34:\n    /* \"#utility.yul\":1001:1025   */\n  tag_52\n    /* \"#utility.yul\":1019:1024   */\n  dup2\n    /* \"#utility.yul\":1001:1025   */\n  tag_33\n  jump\t// in\ntag_52:\n    /* \"#utility.yul\":994:999   */\n  dup2\n    /* \"#utility.yul\":991:1026   */\n  eq\n    /* \"#utility.yul\":981:1044   */\n  tag_53\n  jumpi\n    /* \"#utility.yul\":1040:1041   */\n  0x00\n    /* \"#utility.yul\":1037:1038   */\n  dup1\n    /* \"#utility.yul\":1030:1042   */\n  revert\n    /* \"#utility.yul\":981:1044   */\ntag_53:\n    /* \"#utility.yul\":928:1050   */\n  pop\n  jump\t// out\n    /* \"#utility.yul\":1056:1199   */\ntag_35:\n    /* \"#utility.yul\":1113:1118   */\n  0x00\n    /* \"#utility.yul\":1144:1150   */\n  dup2\n    /* \"#utility.yul\":1138:1151   */\n  mload\n    /* \"#utility.yul\":1129:1151   */\n  swap1\n  pop\n    /* \"#utility.yul\":1160:1193   */\n  tag_55\n    /* \"#utility.yul\":1187:1192   */\n  dup2\n    /* \"#utility.yul\":1160:1193   */\n  tag_34\n  jump\t// in\ntag_55:\n    /* \"#utility.yul\":1056:1199   */\n  swap3\n  swap2\n  pop\n  pop\n  jump\t// out\n    /* \"#utility.yul\":1205:2339   */\ntag_3:\n    /* \"#utility.yul\":1320:1326   */\n  0x00\n    /* \"#utility.yul\":1328:1334   */\n  dup1\n    /* \"#utility.yul\":1336:1342   */\n  0x00\n    /* \"#utility.yul\":1344:1350   */\n  dup1\n    /* \"#utility.yul\":1352:1358   */\n  0x00\n    /* \"#utility.yul\":1360:1366   */\n  dup1\n    /* \"#utility.yul\":1409:1412   */\n  0xc0\n    /* \"#utility.yul\":1397:1406   */\n  dup8\n    /* \"#utility.yul\":1388:1395   */\n  dup10\n    /* \"#utility.yul\":1384:1407   */\n  sub\n    /* \"#utility.yul\":1380:1413   */\n  slt\n    /* \"#utility.yul\":1377:1497   */\n  iszero\n  tag_57\n  jumpi\n    /* \"#utility.yul\":1416:1495   */\n  tag_58\n  tag_27\n  jump\t// in\ntag_58:\n    /* \"#utility.yul\":1377:1497   */\ntag_57:\n    /* \"#utility.yul\":1536:1537   */\n  0x00\n    /* \"#utility.yul\":1561:1625   */\n  tag_59\n    /* \"#utility.yul\":1617:1624   */\n  dup10\n    /* \"#utility.yul\":1608:1614   */\n  dup3\n    /* \"#utility.yul\":1597:1606   */\n  dup11\n    /* \"#utility.yul\":1593:1615   */\n  add\n    /* \"#utility.yul\":1561:1625   */\n  tag_32\n  jump\t// in\ntag_59:\n    /* \"#utility.yul\":1551:1625   */\n  swap7\n  pop\n    /* \"#utility.yul\":1507:1635   */\n  pop\n    /* \"#utility.yul\":1674:1676   */\n  0x20\n    /* \"#utility.yul\":1700:1764   */\n  tag_60\n    /* \"#utility.yul\":1756:1763   */\n  dup10\n    /* \"#utility.yul\":1747:1753   */\n  dup3\n    /* \"#utility.yul\":1736:1745   */\n  dup11\n    /* \"#utility.yul\":1732:1754   */\n  add\n    /* \"#utility.yul\":1700:1764   */\n  tag_32\n  jump\t// in\ntag_60:\n    /* \"#utility.yul\":1690:1764   */\n  swap6\n  pop\n    /* \"#utility.yul\":1645:1774   */\n  pop\n    /* \"#utility.yul\":1813:1815   */\n  0x40\n    /* \"#utility.yul\":1839:1903   */\n  tag_61\n    /* \"#utility.yul\":1895:1902   */\n  dup10\n    /* \"#utility.yul\":1886:1892   */\n  dup3\n    /* \"#utility.yul\":1875:1884   */\n  dup11\n    /* \"#utility.yul\":1871:1893   */\n  add\n    /* \"#utility.yul\":1839:1903   */\n  tag_32\n  jump\t// in\ntag_61:\n    /* \"#utility.yul\":1829:1903   */\n  swap5\n  pop\n    /* \"#utility.yul\":1784:1913   */\n  pop\n    /* \"#utility.yul\":1952:1954   */\n  0x60\n    /* \"#utility.yul\":1978:2042   */\n  tag_62\n    /* \"#utility.yul\":2034:2041   */\n  dup10\n    /* \"#utility.yul\":2025:2031   */\n  dup3\n    /* \"#utility.yul\":2014:2023   */\n  dup11\n    /* \"#utility.yul\":2010:2032   */\n  add\n    /* \"#utility.yul\":1978:2042   */\n  tag_32\n  jump\t// in\ntag_62:\n    /* \"#utility.yul\":1968:2042   */\n  swap4\n  pop\n    /* \"#utility.yul\":1923:2052   */\n  pop\n    /* \"#utility.yul\":2091:2094   */\n  0x80\n    /* \"#utility.yul\":2118:2182   */\n  tag_63\n    /* \"#utility.yul\":2174:2181   */\n  dup10\n    /* \"#utility.yul\":2165:2171   */\n  dup3\n    /* \"#utility.yul\":2154:2163   */\n  dup11\n    /* \"#utility.yul\":2150:2172   */\n  add\n    /* \"#utility.yul\":2118:2182   */\n  tag_35\n  jump\t// in\ntag_63:\n    /* \"#utility.yul\":2108:2182   */\n  swap3\n  pop\n    /* \"#utility.yul\":2062:2192   */\n  pop\n    /* \"#utility.yul\":2231:2234   */\n  0xa0\n    /* \"#utility.yul\":2258:2322   */\n  tag_64\n    /* \"#utility.yul\":2314:2321   */\n  dup10\n    /* \"#utility.yul\":2305:2311   */\n  dup3\n    /* \"#utility.yul\":2294:2303   */\n  dup11\n    /* \"#utility.yul\":2290:2312   */\n  add\n    /* \"#utility.yul\":2258:2322   */\n  tag_35\n  jump\t// in\ntag_64:\n    /* \"#utility.yul\":2248:2322   */\n  swap2\n  pop\n    /* \"#utility.yul\":2202:2332   */\n  pop\n    /* \"#utility.yul\":1205:2339   */\n  swap3\n  swap6\n  pop\n  swap3\n  swap6\n  pop\n  swap3\n  swap6\n  jump\t// out\n    /* \"#utility.yul\":2345:2463   */\ntag_36:\n    /* \"#utility.yul\":2432:2456   */\n  tag_66\n    /* \"#utility.yul\":2450:2455   */\n  dup2\n    /* \"#utility.yul\":2432:2456   */\n  tag_30\n  jump\t// in\ntag_66:\n    /* \"#utility.yul\":2427:2430   */\n  dup3\n    /* \"#utility.yul\":2420:2457   */\n  mstore\n    /* \"#utility.yul\":2345:2463   */\n  pop\n  pop\n  jump\t// out\n    /* \"#utility.yul\":2469:2691   */\ntag_10:\n    /* \"#utility.yul\":2562:2566   */\n  0x00\n    /* \"#utility.yul\":2600:2602   */\n  0x20\n    /* \"#utility.yul\":2589:2598   */\n  dup3\n    /* \"#utility.yul\":2585:2603   */\n  add\n    /* \"#utility.yul\":2577:2603   */\n  swap1\n  pop\n    /* \"#utility.yul\":2613:2684   */\n  tag_68\n    /* \"#utility.yul\":2681:2682   */\n  0x00\n    /* \"#utility.yul\":2670:2679   */\n  dup4\n    /* \"#utility.yul\":2666:2683   */\n  add\n    /* \"#utility.yul\":2657:2663   */\n  dup5\n    /* \"#utility.yul\":2613:2684   */\n  tag_36\n  jump\t// in\ntag_68:\n    /* \"#utility.yul\":2469:2691   */\n  swap3\n  swap2\n  pop\n  pop\n  jump\t// out\n    /* \"#utility.yul\":2697:2877   */\ntag_37:\n    /* \"#utility.yul\":2745:2822   */\n  0x4e487b7100000000000000000000000000000000000000000000000000000000\n    /* \"#utility.yul\":2742:2743   */\n  0x00\n    /* \"#utility.yul\":2735:2823   */\n  mstore\n    /* \"#utility.yul\":2842:2846   */\n  0x11\n    /* \"#utility.yul\":2839:2840   */\n  0x04\n    /* \"#utility.yul\":2832:2847   */\n  mstore\n    /* \"#utility.yul\":2866:2870   */\n  0x24\n    /* \"#utility.yul\":2863:2864   */\n  0x00\n    /* \"#utility.yul\":2856:2871   */\n  revert\n    /* \"#utility.yul\":2883:3293   */\ntag_18:\n    /* \"#utility.yul\":2923:2930   */\n  0x00\n    /* \"#utility.yul\":2946:2966   */\n  tag_71\n    /* \"#utility.yul\":2964:2965   */\n  dup3\n    /* \"#utility.yul\":2946:2966   */\n  tag_33\n  jump\t// in\ntag_71:\n    /* \"#utility.yul\":2941:2966   */\n  swap2\n  pop\n    /* \"#utility.yul\":2980:3000   */\n  tag_72\n    /* \"#utility.yul\":2998:2999   */\n  dup4\n    /* \"#utility.yul\":2980:3000   */\n  tag_33\n  jump\t// in\ntag_72:\n    /* \"#utility.yul\":2975:3000   */\n  swap3\n  pop\n    /* \"#utility.yul\":3035:3036   */\n  dup3\n    /* \"#utility.yul\":3032:3033   */\n  dup3\n    /* \"#utility.yul\":3028:3037   */\n  mul\n    /* \"#utility.yul\":3057:3087   */\n  tag_73\n    /* \"#utility.yul\":3075:3086   */\n  dup2\n    /* \"#utility.yul\":3057:3087   */\n  tag_33\n  jump\t// in\ntag_73:\n    /* \"#utility.yul\":3046:3087   */\n  swap2\n  pop\n    /* \"#utility.yul\":3236:3237   */\n  dup3\n    /* \"#utility.yul\":3227:3234   */\n  dup3\n    /* \"#utility.yul\":3223:3238   */\n  div\n    /* \"#utility.yul\":3220:3221   */\n  dup5\n    /* \"#utility.yul\":3217:3239   */\n  eq\n    /* \"#utility.yul\":3197:3198   */\n  dup4\n    /* \"#utility.yul\":3190:3199   */\n  iszero\n    /* \"#utility.yul\":3170:3253   */\n  or\n    /* \"#utility.yul\":3147:3286   */\n  tag_74\n  jumpi\n    /* \"#utility.yul\":3266:3284   */\n  tag_75\n  tag_37\n  jump\t// in\ntag_75:\n    /* \"#utility.yul\":3147:3286   */\ntag_74:\n    /* \"#utility.yul\":2931:3293   */\n  pop\n    /* \"#utility.yul\":2883:3293   */\n  swap3\n  swap2\n  pop\n  pop\n  jump\t// out\n    /* \"#utility.yul\":3299:3650   */\ntag_23:\n    /* \"#utility.yul\":3369:3375   */\n  0x00\n    /* \"#utility.yul\":3418:3420   */\n  0x20\n    /* \"#utility.yul\":3406:3415   */\n  dup3\n    /* \"#utility.yul\":3397:3404   */\n  dup5\n    /* \"#utility.yul\":3393:3416   */\n  sub\n    /* \"#utility.yul\":3389:3421   */\n  slt\n    /* \"#utility.yul\":3386:3505   */\n  iszero\n  tag_77\n  jumpi\n    /* \"#utility.yul\":3424:3503   */\n  tag_78\n  tag_27\n  jump\t// in\ntag_78:\n    /* \"#utility.yul\":3386:3505   */\ntag_77:\n    /* \"#utility.yul\":3544:3545   */\n  0x00\n    /* \"#utility.yul\":3569:3633   */\n  tag_79\n    /* \"#utility.yul\":3625:3632   */\n  dup5\n    /* \"#utility.yul\":3616:3622   */\n  dup3\n    /* \"#utility.yul\":3605:3614   */\n  dup6\n    /* \"#utility.yul\":3601:3623   */\n  add\n    /* \"#utility.yul\":3569:3633   */\n  tag_32\n  jump\t// in\ntag_79:\n    /* \"#utility.yul\":3559:3633   */\n  swap2\n  pop\n    /* \"#utility.yul\":3515:3643   */\n  pop\n    /* \"#utility.yul\":3299:3650   */\n  swap3\n  swap2\n  pop\n  pop\n  jump\t// out\n    /* \"contracts/KipuBankV3.sol\":1053:15450  contract KipuBankV3 is Ownable, ReentrancyGuard{... */\ntag_24:\n  mload(0x80)\n  mload(0xa0)\n  mload(0xc0)\n  mload(0xe0)\n  mload(0x0100)\n  codecopy(0x00, dataOffset(sub_0), dataSize(sub_0))\n  0x00\n  assignImmutable(\"0xe7c9d2642b7ef3f0e3fb3aae7fff3104a3ecb5cdc09d85f65b66c9838c84cd52\")\n  0x00\n  assignImmutable(\"0x5f346b15a47626ee96fd810f3d262348170ef701ecee2cccf0c2510256671eaa\")\n  0x00\n  assignImmutable(\"0xe0800c6beceec1247d5682d9f388b4169d48b373c18811205d6cd68456d8cf3b\")\n  0x00\n  assignImmutable(\"0x25f9e8aeae9c2ffb4081060f1a62aa0739d35380589299578ccc29b3c3a0654e\")\n  0x00\n  assignImmutable(\"0xad55db84fbe3147935ae260b6daeae918a666c79e031e119ec3348828c3cd0fb\")\n  return(0x00, dataSize(sub_0))\nstop\n\nsub_0: assembly {\n        /* \"contracts/KipuBankV3.sol\":1053:15450  contract KipuBankV3 is Ownable, ReentrancyGuard{... */\n      mstore(0x40, 0x80)\n      jumpi(tag_1, lt(calldatasize, 0x04))\n      shr(0xe0, calldataload(0x00))\n      dup1\n      0x8da5cb5b\n      gt\n      tag_19\n      jumpi\n      dup1\n      0xf2fde38b\n      gt\n      tag_20\n      jumpi\n      dup1\n      0xf2fde38b\n      eq\n      tag_15\n      jumpi\n      dup1\n      0xf3db702c\n      eq\n      tag_16\n      jumpi\n      dup1\n      0xf6687af7\n      eq\n      tag_17\n      jumpi\n      dup1\n      0xff40e1d0\n      eq\n      tag_18\n      jumpi\n      jump(tag_2)\n    tag_20:\n      dup1\n      0x8da5cb5b\n      eq\n      tag_11\n      jumpi\n      dup1\n      0x9e2b5339\n      eq\n      tag_12\n      jumpi\n      dup1\n      0xc4cbcf3d\n      eq\n      tag_13\n      jumpi\n      dup1\n      0xd0e30db0\n      eq\n      tag_14\n      jumpi\n      jump(tag_2)\n    tag_19:\n      dup1\n      0x5b06dece\n      gt\n      tag_21\n      jumpi\n      dup1\n      0x5b06dece\n      eq\n      tag_7\n      jumpi\n      dup1\n      0x715018a6\n      eq\n      tag_8\n      jumpi\n      dup1\n      0x735de9f7\n      eq\n      tag_9\n      jumpi\n      dup1\n      0x8bdb2afa\n      eq\n      tag_10\n      jumpi\n      jump(tag_2)\n    tag_21:\n      dup1\n      0x089781a9\n      eq\n      tag_3\n      jumpi\n      dup1\n      0x21425ee0\n      eq\n      tag_4\n      jumpi\n      dup1\n      0x260ad389\n      eq\n      tag_5\n      jumpi\n      dup1\n      0x4dbe7e92\n      eq\n      tag_6\n      jumpi\n      jump(tag_2)\n    tag_1:\n      jumpi(tag_2, calldatasize)\n        /* \"@openzeppelin/contracts/utils/ReentrancyGuard.sol\":2500:2521  _nonReentrantBefore() */\n      tag_24\n        /* \"@openzeppelin/contracts/utils/ReentrancyGuard.sol\":2500:2519  _nonReentrantBefore */\n      tag_25\n        /* \"@openzeppelin/contracts/utils/ReentrancyGuard.sol\":2500:2521  _nonReentrantBefore() */\n      jump\t// in\n    tag_24:\n        /* \"contracts/KipuBankV3.sol\":8473:8528  KipuBank_FailedOperation(\"Use deposit for ETH deposit\") */\n      mload(0x40)\n      0x336ea14200000000000000000000000000000000000000000000000000000000\n      dup2\n      mstore\n      0x04\n      add\n      tag_27\n      swap1\n      tag_28\n      jump\t// in\n    tag_27:\n      mload(0x40)\n      dup1\n      swap2\n      sub\n      swap1\n      revert\n        /* \"contracts/KipuBankV3.sol\":1053:15450  contract KipuBankV3 is Ownable, ReentrancyGuard{... */\n    tag_2:\n      callvalue\n      dup1\n      iszero\n      tag_31\n      jumpi\n      0x00\n      dup1\n      revert\n    tag_31:\n      pop\n        /* \"contracts/KipuBankV3.sol\":8649:8724  KipuBank_FailedOperation(\"Operation does not exists or data was incorrect\") */\n      mload(0x40)\n      0x336ea14200000000000000000000000000000000000000000000000000000000\n      dup2\n      mstore\n      0x04\n      add\n      tag_34\n      swap1\n      tag_35\n      jump\t// in\n    tag_34:\n      mload(0x40)\n      dup1\n      swap2\n      sub\n      swap1\n      revert\n        /* \"contracts/KipuBankV3.sol\":1855:1895  uint256 public immutable i_maxWithdrawal */\n    tag_3:\n      callvalue\n      dup1\n      iszero\n      tag_36\n      jumpi\n      0x00\n      dup1\n      revert\n    tag_36:\n      pop\n      tag_37\n      tag_38\n      jump\t// in\n    tag_37:\n      mload(0x40)\n      tag_39\n      swap2\n      swap1\n      tag_40\n      jump\t// in\n    tag_39:\n      mload(0x40)\n      dup1\n      swap2\n      sub\n      swap1\n      return\n        /* \"contracts/KipuBankV3.sol\":9799:11373  function depositERC20(... */\n    tag_4:\n      callvalue\n      dup1\n      iszero\n      tag_41\n      jumpi\n      0x00\n      dup1\n      revert\n    tag_41:\n      pop\n      tag_42\n      0x04\n      dup1\n      calldatasize\n      sub\n      dup2\n      add\n      swap1\n      tag_43\n      swap2\n      swap1\n      tag_44\n      jump\t// in\n    tag_43:\n      tag_45\n      jump\t// in\n    tag_42:\n      stop\n        /* \"contracts/KipuBankV3.sol\":1439:1496  mapping(address => uint256) public s_totalDepositsByToken */\n    tag_5:\n      callvalue\n      dup1\n      iszero\n      tag_46\n      jumpi\n      0x00\n      dup1\n      revert\n    tag_46:\n      pop\n      tag_47\n      0x04\n      dup1\n      calldatasize\n      sub\n      dup2\n      add\n      swap1\n      tag_48\n      swap2\n      swap1\n      tag_49\n      jump\t// in\n    tag_48:\n      tag_50\n      jump\t// in\n    tag_47:\n      mload(0x40)\n      tag_51\n      swap2\n      swap1\n      tag_40\n      jump\t// in\n    tag_51:\n      mload(0x40)\n      dup1\n      swap2\n      sub\n      swap1\n      return\n        /* \"contracts/KipuBankV3.sol\":2117:2148  address public immutable i_weth */\n    tag_6:\n      callvalue\n      dup1\n      iszero\n      tag_52\n      jumpi\n      0x00\n      dup1\n      revert\n    tag_52:\n      pop\n      tag_53\n      tag_54\n      jump\t// in\n    tag_53:\n      mload(0x40)\n      tag_55\n      swap2\n      swap1\n      tag_56\n      jump\t// in\n    tag_55:\n      mload(0x40)\n      dup1\n      swap2\n      sub\n      swap1\n      return\n        /* \"contracts/KipuBankV3.sol\":11560:11902  function withdrawUsdc(uint256 _amount) external nonReentrant _availableAmount(_amount){... */\n    tag_7:\n      callvalue\n      dup1\n      iszero\n      tag_57\n      jumpi\n      0x00\n      dup1\n      revert\n    tag_57:\n      pop\n      tag_58\n      0x04\n      dup1\n      calldatasize\n      sub\n      dup2\n      add\n      swap1\n      tag_59\n      swap2\n      swap1\n      tag_60\n      jump\t// in\n    tag_59:\n      tag_61\n      jump\t// in\n    tag_58:\n      stop\n        /* \"@openzeppelin/contracts/access/Ownable.sol\":2293:2394  function renounceOwnership() public virtual onlyOwner {... */\n    tag_8:\n      callvalue\n      dup1\n      iszero\n      tag_62\n      jumpi\n      0x00\n      dup1\n      revert\n    tag_62:\n      pop\n      tag_63\n      tag_64\n      jump\t// in\n    tag_63:\n      stop\n        /* \"contracts/KipuBankV3.sol\":2253:2302  IUniswapV2Router02 public immutable uniswapRouter */\n    tag_9:\n      callvalue\n      dup1\n      iszero\n      tag_65\n      jumpi\n      0x00\n      dup1\n      revert\n    tag_65:\n      pop\n      tag_66\n      tag_67\n      jump\t// in\n    tag_66:\n      mload(0x40)\n      tag_68\n      swap2\n      swap1\n      tag_69\n      jump\t// in\n    tag_68:\n      mload(0x40)\n      dup1\n      swap2\n      sub\n      swap1\n      return\n        /* \"contracts/KipuBankV3.sol\":2413:2452  IUniswapV2Factory public uniswapFactory */\n    tag_10:\n      callvalue\n      dup1\n      iszero\n      tag_70\n      jumpi\n      0x00\n      dup1\n      revert\n    tag_70:\n      pop\n      tag_71\n      tag_72\n      jump\t// in\n    tag_71:\n      mload(0x40)\n      tag_73\n      swap2\n      swap1\n      tag_74\n      jump\t// in\n    tag_73:\n      mload(0x40)\n      dup1\n      swap2\n      sub\n      swap1\n      return\n        /* \"@openzeppelin/contracts/access/Ownable.sol\":1638:1723  function owner() public view virtual returns (address) {... */\n    tag_11:\n      callvalue\n      dup1\n      iszero\n      tag_75\n      jumpi\n      0x00\n      dup1\n      revert\n    tag_75:\n      pop\n      tag_76\n      tag_77\n      jump\t// in\n    tag_76:\n      mload(0x40)\n      tag_78\n      swap2\n      swap1\n      tag_56\n      jump\t// in\n    tag_78:\n      mload(0x40)\n      dup1\n      swap2\n      sub\n      swap1\n      return\n        /* \"contracts/KipuBankV3.sol\":12143:12348  function emergencyWithdrawal(uint256 _amount, address _recipient) external onlyOwner {... */\n    tag_12:\n      callvalue\n      dup1\n      iszero\n      tag_79\n      jumpi\n      0x00\n      dup1\n      revert\n    tag_79:\n      pop\n      tag_80\n      0x04\n      dup1\n      calldatasize\n      sub\n      dup2\n      add\n      swap1\n      tag_81\n      swap2\n      swap1\n      tag_82\n      jump\t// in\n    tag_81:\n      tag_83\n      jump\t// in\n    tag_80:\n      stop\n        /* \"contracts/KipuBankV3.sol\":8941:9053  function consultKipuBankFunds() external view returns (uint256 amount_){... */\n    tag_13:\n      callvalue\n      dup1\n      iszero\n      tag_84\n      jumpi\n      0x00\n      dup1\n      revert\n    tag_84:\n      pop\n      tag_85\n      tag_86\n      jump\t// in\n    tag_85:\n      mload(0x40)\n      tag_87\n      swap2\n      swap1\n      tag_40\n      jump\t// in\n    tag_87:\n      mload(0x40)\n      dup1\n      swap2\n      sub\n      swap1\n      return\n        /* \"contracts/KipuBankV3.sol\":9240:9341  function deposit() external payable nonReentrant{... */\n    tag_14:\n      tag_88\n      tag_89\n      jump\t// in\n    tag_88:\n      stop\n        /* \"@openzeppelin/contracts/access/Ownable.sol\":2543:2758  function transferOwnership(address newOwner) public virtual onlyOwner {... */\n    tag_15:\n      callvalue\n      dup1\n      iszero\n      tag_90\n      jumpi\n      0x00\n      dup1\n      revert\n    tag_90:\n      pop\n      tag_91\n      0x04\n      dup1\n      calldatasize\n      sub\n      dup2\n      add\n      swap1\n      tag_92\n      swap2\n      swap1\n      tag_49\n      jump\t// in\n    tag_92:\n      tag_93\n      jump\t// in\n    tag_91:\n      stop\n        /* \"contracts/KipuBankV3.sol\":1583:1616  uint256 public s_totalWithdrawals */\n    tag_16:\n      callvalue\n      dup1\n      iszero\n      tag_94\n      jumpi\n      0x00\n      dup1\n      revert\n    tag_94:\n      pop\n      tag_95\n      tag_96\n      jump\t// in\n    tag_95:\n      mload(0x40)\n      tag_97\n      swap2\n      swap1\n      tag_40\n      jump\t// in\n    tag_97:\n      mload(0x40)\n      dup1\n      swap2\n      sub\n      swap1\n      return\n        /* \"contracts/KipuBankV3.sol\":1725:1759  uint256 public immutable i_bankCap */\n    tag_17:\n      callvalue\n      dup1\n      iszero\n      tag_98\n      jumpi\n      0x00\n      dup1\n      revert\n    tag_98:\n      pop\n      tag_99\n      tag_100\n      jump\t// in\n    tag_99:\n      mload(0x40)\n      tag_101\n      swap2\n      swap1\n      tag_40\n      jump\t// in\n    tag_101:\n      mload(0x40)\n      dup1\n      swap2\n      sub\n      swap1\n      return\n        /* \"contracts/KipuBankV3.sol\":1979:2009  IERC20 public immutable i_usdc */\n    tag_18:\n      callvalue\n      dup1\n      iszero\n      tag_102\n      jumpi\n      0x00\n      dup1\n      revert\n    tag_102:\n      pop\n      tag_103\n      tag_104\n      jump\t// in\n    tag_103:\n      mload(0x40)\n      tag_105\n      swap2\n      swap1\n      tag_106\n      jump\t// in\n    tag_105:\n      mload(0x40)\n      dup1\n      swap2\n      sub\n      swap1\n      return\n        /* \"@openzeppelin/contracts/utils/ReentrancyGuard.sol\":2575:2882  function _nonReentrantBefore() private {... */\n    tag_25:\n        /* \"@openzeppelin/contracts/utils/ReentrancyGuard.sol\":1899:1900  2 */\n      0x02\n        /* \"@openzeppelin/contracts/utils/ReentrancyGuard.sol\":2702:2709  _status */\n      sload(0x01)\n        /* \"@openzeppelin/contracts/utils/ReentrancyGuard.sol\":2702:2720  _status == ENTERED */\n      sub\n        /* \"@openzeppelin/contracts/utils/ReentrancyGuard.sol\":2698:2784  if (_status == ENTERED) {... */\n      tag_108\n      jumpi\n        /* \"@openzeppelin/contracts/utils/ReentrancyGuard.sol\":2743:2773  ReentrancyGuardReentrantCall() */\n      mload(0x40)\n      0x3ee5aeb500000000000000000000000000000000000000000000000000000000\n      dup2\n      mstore\n      0x04\n      add\n      mload(0x40)\n      dup1\n      swap2\n      sub\n      swap1\n      revert\n        /* \"@openzeppelin/contracts/utils/ReentrancyGuard.sol\":2698:2784  if (_status == ENTERED) {... */\n    tag_108:\n        /* \"@openzeppelin/contracts/utils/ReentrancyGuard.sol\":1899:1900  2 */\n      0x02\n        /* \"@openzeppelin/contracts/utils/ReentrancyGuard.sol\":2858:2865  _status */\n      0x01\n        /* \"@openzeppelin/contracts/utils/ReentrancyGuard.sol\":2858:2875  _status = ENTERED */\n      dup2\n      swap1\n      sstore\n      pop\n        /* \"@openzeppelin/contracts/utils/ReentrancyGuard.sol\":2575:2882  function _nonReentrantBefore() private {... */\n      jump\t// out\n        /* \"@openzeppelin/contracts/utils/ReentrancyGuard.sol\":2888:3096  function _nonReentrantAfter() private {... */\n    tag_30:\n        /* \"@openzeppelin/contracts/utils/ReentrancyGuard.sol\":1857:1858  1 */\n      0x01\n        /* \"@openzeppelin/contracts/utils/ReentrancyGuard.sol\":3068:3075  _status */\n      dup1\n        /* \"@openzeppelin/contracts/utils/ReentrancyGuard.sol\":3068:3089  _status = NOT_ENTERED */\n      dup2\n      swap1\n      sstore\n      pop\n        /* \"@openzeppelin/contracts/utils/ReentrancyGuard.sol\":2888:3096  function _nonReentrantAfter() private {... */\n      jump\t// out\n        /* \"contracts/KipuBankV3.sol\":1855:1895  uint256 public immutable i_maxWithdrawal */\n    tag_38:\n      immutable(\"0x25f9e8aeae9c2ffb4081060f1a62aa0739d35380589299578ccc29b3c3a0654e\")\n      dup2\n      jump\t// out\n        /* \"contracts/KipuBankV3.sol\":9799:11373  function depositERC20(... */\n    tag_45:\n        /* \"@openzeppelin/contracts/utils/ReentrancyGuard.sol\":2500:2521  _nonReentrantBefore() */\n      tag_111\n        /* \"@openzeppelin/contracts/utils/ReentrancyGuard.sol\":2500:2519  _nonReentrantBefore */\n      tag_25\n        /* \"@openzeppelin/contracts/utils/ReentrancyGuard.sol\":2500:2521  _nonReentrantBefore() */\n      jump\t// in\n    tag_111:\n        /* \"contracts/KipuBankV3.sol\":9937:9943  _token */\n      dup3\n        /* \"contracts/KipuBankV3.sol\":5327:5339  address pair */\n      0x00\n        /* \"contracts/KipuBankV3.sol\":5342:5356  uniswapFactory */\n      0x05\n      0x00\n      swap1\n      sload\n      swap1\n      0x0100\n      exp\n      swap1\n      div\n      0xffffffffffffffffffffffffffffffffffffffff\n      and\n        /* \"contracts/KipuBankV3.sol\":5342:5364  uniswapFactory.getPair */\n      0xffffffffffffffffffffffffffffffffffffffff\n      and\n      0xe6a43905\n        /* \"contracts/KipuBankV3.sol\":5365:5371  _token */\n      dup4\n        /* \"contracts/KipuBankV3.sol\":5381:5387  i_usdc */\n      immutable(\"0xe0800c6beceec1247d5682d9f388b4169d48b373c18811205d6cd68456d8cf3b\")\n        /* \"contracts/KipuBankV3.sol\":5342:5389  uniswapFactory.getPair(_token, address(i_usdc)) */\n      mload(0x40)\n      dup4\n      0xffffffff\n      and\n      0xe0\n      shl\n      dup2\n      mstore\n      0x04\n      add\n      tag_113\n      swap3\n      swap2\n      swap1\n      tag_114\n      jump\t// in\n    tag_113:\n      0x20\n      mload(0x40)\n      dup1\n      dup4\n      sub\n      dup2\n      dup7\n      gas\n      staticcall\n      iszero\n      dup1\n      iszero\n      tag_116\n      jumpi\n      returndatasize\n      0x00\n      dup1\n      returndatacopy\n      revert(0x00, returndatasize)\n    tag_116:\n      pop\n      pop\n      pop\n      pop\n      mload(0x40)\n      returndatasize\n      not(0x1f)\n      0x1f\n      dup3\n      add\n      and\n      dup3\n      add\n      dup1\n      0x40\n      mstore\n      pop\n      dup2\n      add\n      swap1\n      tag_117\n      swap2\n      swap1\n      tag_118\n      jump\t// in\n    tag_117:\n        /* \"contracts/KipuBankV3.sol\":5327:5389  address pair = uniswapFactory.getPair(_token, address(i_usdc)) */\n      swap1\n      pop\n        /* \"contracts/KipuBankV3.sol\":5423:5424  0 */\n      0x00\n        /* \"contracts/KipuBankV3.sol\":5407:5425  pair == address(0) */\n      0xffffffffffffffffffffffffffffffffffffffff\n      and\n        /* \"contracts/KipuBankV3.sol\":5407:5411  pair */\n      dup2\n        /* \"contracts/KipuBankV3.sol\":5407:5425  pair == address(0) */\n      0xffffffffffffffffffffffffffffffffffffffff\n      and\n      sub\n        /* \"contracts/KipuBankV3.sol\":5404:5502  if(pair == address(0)){... */\n      tag_119\n      jumpi\n        /* \"contracts/KipuBankV3.sol\":5479:5485  _token */\n      dup2\n        /* \"contracts/KipuBankV3.sol\":5452:5486  KipuBank_NotSupportedToken(_token) */\n      mload(0x40)\n      0xe584a63f00000000000000000000000000000000000000000000000000000000\n      dup2\n      mstore\n      0x04\n      add\n      tag_120\n      swap2\n      swap1\n      tag_56\n      jump\t// in\n    tag_120:\n      mload(0x40)\n      dup1\n      swap2\n      sub\n      swap1\n      revert\n        /* \"contracts/KipuBankV3.sol\":5404:5502  if(pair == address(0)){... */\n    tag_119:\n        /* \"contracts/KipuBankV3.sol\":9969:9975  _token */\n      dup5\n        /* \"contracts/KipuBankV3.sol\":9977:9986  _amountIn */\n      dup5\n        /* \"contracts/KipuBankV3.sol\":6659:6660  0 */\n      0x00\n        /* \"contracts/KipuBankV3.sol\":6641:6661  _token != address(0) */\n      0xffffffffffffffffffffffffffffffffffffffff\n      and\n        /* \"contracts/KipuBankV3.sol\":6641:6647  _token */\n      dup3\n        /* \"contracts/KipuBankV3.sol\":6641:6661  _token != address(0) */\n      0xffffffffffffffffffffffffffffffffffffffff\n      and\n      eq\n        /* \"contracts/KipuBankV3.sol\":6637:6907  if (_token != address(0)) {... */\n      tag_122\n      jumpi\n        /* \"contracts/KipuBankV3.sol\":6678:6690  IERC20 token */\n      0x00\n        /* \"contracts/KipuBankV3.sol\":6700:6706  _token */\n      dup3\n        /* \"contracts/KipuBankV3.sol\":6678:6707  IERC20 token = IERC20(_token) */\n      swap1\n      pop\n        /* \"contracts/KipuBankV3.sol\":6771:6778  _amount */\n      dup2\n        /* \"contracts/KipuBankV3.sol\":6726:6731  token */\n      dup2\n        /* \"contracts/KipuBankV3.sol\":6726:6741  token.allowance */\n      0xffffffffffffffffffffffffffffffffffffffff\n      and\n      0xdd62ed3e\n        /* \"contracts/KipuBankV3.sol\":6742:6752  msg.sender */\n      caller\n        /* \"contracts/KipuBankV3.sol\":6762:6766  this */\n      address\n        /* \"contracts/KipuBankV3.sol\":6726:6768  token.allowance(msg.sender, address(this)) */\n      mload(0x40)\n      dup4\n      0xffffffff\n      and\n      0xe0\n      shl\n      dup2\n      mstore\n      0x04\n      add\n      tag_123\n      swap3\n      swap2\n      swap1\n      tag_114\n      jump\t// in\n    tag_123:\n      0x20\n      mload(0x40)\n      dup1\n      dup4\n      sub\n      dup2\n      dup7\n      gas\n      staticcall\n      iszero\n      dup1\n      iszero\n      tag_125\n      jumpi\n      returndatasize\n      0x00\n      dup1\n      returndatacopy\n      revert(0x00, returndatasize)\n    tag_125:\n      pop\n      pop\n      pop\n      pop\n      mload(0x40)\n      returndatasize\n      not(0x1f)\n      0x1f\n      dup3\n      add\n      and\n      dup3\n      add\n      dup1\n      0x40\n      mstore\n      pop\n      dup2\n      add\n      swap1\n      tag_126\n      swap2\n      swap1\n      tag_127\n      jump\t// in\n    tag_126:\n        /* \"contracts/KipuBankV3.sol\":6726:6778  token.allowance(msg.sender, address(this)) < _amount */\n      lt\n        /* \"contracts/KipuBankV3.sol\":6722:6896  if (token.allowance(msg.sender, address(this)) < _amount) {... */\n      iszero\n      tag_128\n      jumpi\n        /* \"contracts/KipuBankV3.sol\":6806:6880  KipuBank_FailedOperation(\"ERC20: Insufficient allowance for transferFrom\") */\n      mload(0x40)\n      0x336ea14200000000000000000000000000000000000000000000000000000000\n      dup2\n      mstore\n      0x04\n      add\n      tag_129\n      swap1\n      tag_130\n      jump\t// in\n    tag_129:\n      mload(0x40)\n      dup1\n      swap2\n      sub\n      swap1\n      revert\n        /* \"contracts/KipuBankV3.sol\":6722:6896  if (token.allowance(msg.sender, address(this)) < _amount) {... */\n    tag_128:\n        /* \"contracts/KipuBankV3.sol\":6663:6907  {... */\n      pop\n        /* \"contracts/KipuBankV3.sol\":6637:6907  if (_token != address(0)) {... */\n    tag_122:\n        /* \"contracts/KipuBankV3.sol\":10006:10012  _token */\n      dup7\n        /* \"contracts/KipuBankV3.sol\":10014:10023  _amountIn */\n      dup7\n        /* \"contracts/KipuBankV3.sol\":5975:5995  uint256 amountInUSDC */\n      0x00\n        /* \"contracts/KipuBankV3.sol\":5998:6031  _estimateUSDCOut(_token, _amount) */\n      tag_132\n        /* \"contracts/KipuBankV3.sol\":6015:6021  _token */\n      dup4\n        /* \"contracts/KipuBankV3.sol\":6023:6030  _amount */\n      dup4\n        /* \"contracts/KipuBankV3.sol\":5998:6014  _estimateUSDCOut */\n      tag_133\n        /* \"contracts/KipuBankV3.sol\":5998:6031  _estimateUSDCOut(_token, _amount) */\n      jump\t// in\n    tag_132:\n        /* \"contracts/KipuBankV3.sol\":5975:6031  uint256 amountInUSDC = _estimateUSDCOut(_token, _amount) */\n      swap1\n      pop\n        /* \"contracts/KipuBankV3.sol\":6104:6113  i_bankCap */\n      immutable(\"0xad55db84fbe3147935ae260b6daeae918a666c79e031e119ec3348828c3cd0fb\")\n        /* \"contracts/KipuBankV3.sol\":6089:6101  amountInUSDC */\n      dup2\n        /* \"contracts/KipuBankV3.sol\":6054:6060  i_usdc */\n      immutable(\"0xe0800c6beceec1247d5682d9f388b4169d48b373c18811205d6cd68456d8cf3b\")\n        /* \"contracts/KipuBankV3.sol\":6047:6071  IERC20(i_usdc).balanceOf */\n      0xffffffffffffffffffffffffffffffffffffffff\n      and\n      0x70a08231\n        /* \"contracts/KipuBankV3.sol\":6080:6084  this */\n      address\n        /* \"contracts/KipuBankV3.sol\":6047:6086  IERC20(i_usdc).balanceOf(address(this)) */\n      mload(0x40)\n      dup3\n      0xffffffff\n      and\n      0xe0\n      shl\n      dup2\n      mstore\n      0x04\n      add\n      tag_134\n      swap2\n      swap1\n      tag_56\n      jump\t// in\n    tag_134:\n      0x20\n      mload(0x40)\n      dup1\n      dup4\n      sub\n      dup2\n      dup7\n      gas\n      staticcall\n      iszero\n      dup1\n      iszero\n      tag_136\n      jumpi\n      returndatasize\n      0x00\n      dup1\n      returndatacopy\n      revert(0x00, returndatasize)\n    tag_136:\n      pop\n      pop\n      pop\n      pop\n      mload(0x40)\n      returndatasize\n      not(0x1f)\n      0x1f\n      dup3\n      add\n      and\n      dup3\n      add\n      dup1\n      0x40\n      mstore\n      pop\n      dup2\n      add\n      swap1\n      tag_137\n      swap2\n      swap1\n      tag_127\n      jump\t// in\n    tag_137:\n        /* \"contracts/KipuBankV3.sol\":6047:6101  IERC20(i_usdc).balanceOf(address(this)) + amountInUSDC */\n      tag_138\n      swap2\n      swap1\n      tag_139\n      jump\t// in\n    tag_138:\n        /* \"contracts/KipuBankV3.sol\":6047:6113  IERC20(i_usdc).balanceOf(address(this)) + amountInUSDC > i_bankCap */\n      gt\n        /* \"contracts/KipuBankV3.sol\":6043:6206  if (IERC20(i_usdc).balanceOf(address(this)) + amountInUSDC > i_bankCap) {... */\n      iszero\n      tag_140\n      jumpi\n        /* \"contracts/KipuBankV3.sol\":6137:6194  KipuBank_FailedDeposit(\"Total KipuBank's Funds exceeded\") */\n      mload(0x40)\n      0xa2d2e1b200000000000000000000000000000000000000000000000000000000\n      dup2\n      mstore\n      0x04\n      add\n      tag_141\n      swap1\n      tag_142\n      jump\t// in\n    tag_141:\n      mload(0x40)\n      dup1\n      swap2\n      sub\n      swap1\n      revert\n        /* \"contracts/KipuBankV3.sol\":6043:6206  if (IERC20(i_usdc).balanceOf(address(this)) + amountInUSDC > i_bankCap) {... */\n    tag_140:\n        /* \"contracts/KipuBankV3.sol\":10128:10140  IERC20 token */\n      0x00\n        /* \"contracts/KipuBankV3.sol\":10150:10156  _token */\n      dup11\n        /* \"contracts/KipuBankV3.sol\":10128:10157  IERC20 token = IERC20(_token) */\n      swap1\n      pop\n        /* \"contracts/KipuBankV3.sol\":10168:10228  token.safeTransferFrom(msg.sender, address(this), _amountIn) */\n      tag_144\n        /* \"contracts/KipuBankV3.sol\":10191:10201  msg.sender */\n      caller\n        /* \"contracts/KipuBankV3.sol\":10211:10215  this */\n      address\n        /* \"contracts/KipuBankV3.sol\":10218:10227  _amountIn */\n      dup13\n        /* \"contracts/KipuBankV3.sol\":10168:10173  token */\n      dup5\n        /* \"contracts/KipuBankV3.sol\":10168:10190  token.safeTransferFrom */\n      0xffffffffffffffffffffffffffffffffffffffff\n      and\n      tag_145\n      swap1\n        /* \"contracts/KipuBankV3.sol\":10168:10228  token.safeTransferFrom(msg.sender, address(this), _amountIn) */\n      swap4\n      swap3\n      swap2\n      swap1\n      0xffffffff\n      and\n      jump\t// in\n    tag_144:\n        /* \"contracts/KipuBankV3.sol\":10262:10282  uint256 usdcReceived */\n      0x00\n        /* \"contracts/KipuBankV3.sol\":10293:10314  uint256 beforeBalance */\n      dup1\n        /* \"contracts/KipuBankV3.sol\":10324:10330  i_usdc */\n      immutable(\"0xe0800c6beceec1247d5682d9f388b4169d48b373c18811205d6cd68456d8cf3b\")\n        /* \"contracts/KipuBankV3.sol\":10317:10341  IERC20(i_usdc).balanceOf */\n      0xffffffffffffffffffffffffffffffffffffffff\n      and\n      0x70a08231\n        /* \"contracts/KipuBankV3.sol\":10350:10354  this */\n      address\n        /* \"contracts/KipuBankV3.sol\":10317:10356  IERC20(i_usdc).balanceOf(address(this)) */\n      mload(0x40)\n      dup3\n      0xffffffff\n      and\n      0xe0\n      shl\n      dup2\n      mstore\n      0x04\n      add\n      tag_146\n      swap2\n      swap1\n      tag_56\n      jump\t// in\n    tag_146:\n      0x20\n      mload(0x40)\n      dup1\n      dup4\n      sub\n      dup2\n      dup7\n      gas\n      staticcall\n      iszero\n      dup1\n      iszero\n      tag_148\n      jumpi\n      returndatasize\n      0x00\n      dup1\n      returndatacopy\n      revert(0x00, returndatasize)\n    tag_148:\n      pop\n      pop\n      pop\n      pop\n      mload(0x40)\n      returndatasize\n      not(0x1f)\n      0x1f\n      dup3\n      add\n      and\n      dup3\n      add\n      dup1\n      0x40\n      mstore\n      pop\n      dup2\n      add\n      swap1\n      tag_149\n      swap2\n      swap1\n      tag_127\n      jump\t// in\n    tag_149:\n        /* \"contracts/KipuBankV3.sol\":10293:10356  uint256 beforeBalance = IERC20(i_usdc).balanceOf(address(this)) */\n      swap1\n      pop\n        /* \"contracts/KipuBankV3.sol\":10389:10395  i_usdc */\n      immutable(\"0xe0800c6beceec1247d5682d9f388b4169d48b373c18811205d6cd68456d8cf3b\")\n        /* \"contracts/KipuBankV3.sol\":10371:10396  _token != address(i_usdc) */\n      0xffffffffffffffffffffffffffffffffffffffff\n      and\n        /* \"contracts/KipuBankV3.sol\":10371:10377  _token */\n      dup14\n        /* \"contracts/KipuBankV3.sol\":10371:10396  _token != address(i_usdc) */\n      0xffffffffffffffffffffffffffffffffffffffff\n      and\n      eq\n        /* \"contracts/KipuBankV3.sol\":10367:11039  if (_token != address(i_usdc)) {... */\n      tag_150\n      jumpi\n        /* \"contracts/KipuBankV3.sol\":10413:10434  address[] memory path */\n      0x00\n        /* \"contracts/KipuBankV3.sol\":10451:10452  2 */\n      0x02\n        /* \"contracts/KipuBankV3.sol\":10437:10453  new address[](2) */\n      0xffffffffffffffff\n      dup2\n      gt\n      iszero\n      tag_151\n      jumpi\n      tag_152\n      tag_153\n      jump\t// in\n    tag_152:\n    tag_151:\n      mload(0x40)\n      swap1\n      dup1\n      dup3\n      mstore\n      dup1\n      0x20\n      mul\n      0x20\n      add\n      dup3\n      add\n      0x40\n      mstore\n      dup1\n      iszero\n      tag_154\n      jumpi\n      dup2\n      0x20\n      add\n      0x20\n      dup3\n      mul\n      dup1\n      calldatasize\n      dup4\n      calldatacopy\n      dup1\n      dup3\n      add\n      swap2\n      pop\n      pop\n      swap1\n      pop\n    tag_154:\n      pop\n        /* \"contracts/KipuBankV3.sol\":10413:10453  address[] memory path = new address[](2) */\n      swap1\n      pop\n        /* \"contracts/KipuBankV3.sol\":10478:10484  _token */\n      dup14\n        /* \"contracts/KipuBankV3.sol\":10468:10472  path */\n      dup2\n        /* \"contracts/KipuBankV3.sol\":10473:10474  0 */\n      0x00\n        /* \"contracts/KipuBankV3.sol\":10468:10475  path[0] */\n      dup2\n      mload\n      dup2\n      lt\n      tag_155\n      jumpi\n      tag_156\n      tag_157\n      jump\t// in\n    tag_156:\n    tag_155:\n      0x20\n      mul\n      0x20\n      add\n      add\n        /* \"contracts/KipuBankV3.sol\":10468:10484  path[0] = _token */\n      swap1\n      0xffffffffffffffffffffffffffffffffffffffff\n      and\n      swap1\n      dup2\n      0xffffffffffffffffffffffffffffffffffffffff\n      and\n      dup2\n      mstore\n      pop\n      pop\n        /* \"contracts/KipuBankV3.sol\":10517:10523  i_usdc */\n      immutable(\"0xe0800c6beceec1247d5682d9f388b4169d48b373c18811205d6cd68456d8cf3b\")\n        /* \"contracts/KipuBankV3.sol\":10499:10503  path */\n      dup2\n        /* \"contracts/KipuBankV3.sol\":10504:10505  1 */\n      0x01\n        /* \"contracts/KipuBankV3.sol\":10499:10506  path[1] */\n      dup2\n      mload\n      dup2\n      lt\n      tag_158\n      jumpi\n      tag_159\n      tag_157\n      jump\t// in\n    tag_159:\n    tag_158:\n      0x20\n      mul\n      0x20\n      add\n      add\n        /* \"contracts/KipuBankV3.sol\":10499:10524  path[1] = address(i_usdc) */\n      swap1\n      0xffffffffffffffffffffffffffffffffffffffff\n      and\n      swap1\n      dup2\n      0xffffffffffffffffffffffffffffffffffffffff\n      and\n      dup2\n      mstore\n      pop\n      pop\n        /* \"contracts/KipuBankV3.sol\":10571:10584  uniswapRouter */\n      immutable(\"0xe7c9d2642b7ef3f0e3fb3aae7fff3104a3ecb5cdc09d85f65b66c9838c84cd52\")\n        /* \"contracts/KipuBankV3.sol\":10571:10638  uniswapRouter.swapExactTokensForTokensSupportingFeeOnTransferTokens */\n      0xffffffffffffffffffffffffffffffffffffffff\n      and\n      0x5c11d795\n        /* \"contracts/KipuBankV3.sol\":10657:10666  _amountIn */\n      dup15\n        /* \"contracts/KipuBankV3.sol\":10685:10698  _amountMinOut */\n      dup15\n        /* \"contracts/KipuBankV3.sol\":10717:10721  path */\n      dup5\n        /* \"contracts/KipuBankV3.sol\":10748:10752  this */\n      address\n        /* \"contracts/KipuBankV3.sol\":10790:10793  300 */\n      0x012c\n        /* \"contracts/KipuBankV3.sol\":10772:10787  block.timestamp */\n      timestamp\n        /* \"contracts/KipuBankV3.sol\":10772:10793  block.timestamp + 300 */\n      tag_160\n      swap2\n      swap1\n      tag_139\n      jump\t// in\n    tag_160:\n        /* \"contracts/KipuBankV3.sol\":10571:10808  uniswapRouter.swapExactTokensForTokensSupportingFeeOnTransferTokens(... */\n      mload(0x40)\n      dup7\n      0xffffffff\n      and\n      0xe0\n      shl\n      dup2\n      mstore\n      0x04\n      add\n      tag_161\n      swap6\n      swap5\n      swap4\n      swap3\n      swap2\n      swap1\n      tag_162\n      jump\t// in\n    tag_161:\n      0x00\n      mload(0x40)\n      dup1\n      dup4\n      sub\n      dup2\n      0x00\n      dup8\n      dup1\n      extcodesize\n      iszero\n      dup1\n      iszero\n      tag_163\n      jumpi\n      0x00\n      dup1\n      revert\n    tag_163:\n      pop\n      gas\n      call\n      iszero\n      dup1\n      iszero\n      tag_165\n      jumpi\n      returndatasize\n      0x00\n      dup1\n      returndatacopy\n      revert(0x00, returndatasize)\n    tag_165:\n      pop\n      pop\n      pop\n      pop\n        /* \"contracts/KipuBankV3.sol\":10850:10870  uint256 afterBalance */\n      0x00\n        /* \"contracts/KipuBankV3.sol\":10880:10886  i_usdc */\n      immutable(\"0xe0800c6beceec1247d5682d9f388b4169d48b373c18811205d6cd68456d8cf3b\")\n        /* \"contracts/KipuBankV3.sol\":10873:10897  IERC20(i_usdc).balanceOf */\n      0xffffffffffffffffffffffffffffffffffffffff\n      and\n      0x70a08231\n        /* \"contracts/KipuBankV3.sol\":10906:10910  this */\n      address\n        /* \"contracts/KipuBankV3.sol\":10873:10912  IERC20(i_usdc).balanceOf(address(this)) */\n      mload(0x40)\n      dup3\n      0xffffffff\n      and\n      0xe0\n      shl\n      dup2\n      mstore\n      0x04\n      add\n      tag_166\n      swap2\n      swap1\n      tag_56\n      jump\t// in\n    tag_166:\n      0x20\n      mload(0x40)\n      dup1\n      dup4\n      sub\n      dup2\n      dup7\n      gas\n      staticcall\n      iszero\n      dup1\n      iszero\n      tag_168\n      jumpi\n      returndatasize\n      0x00\n      dup1\n      returndatacopy\n      revert(0x00, returndatasize)\n    tag_168:\n      pop\n      pop\n      pop\n      pop\n      mload(0x40)\n      returndatasize\n      not(0x1f)\n      0x1f\n      dup3\n      add\n      and\n      dup3\n      add\n      dup1\n      0x40\n      mstore\n      pop\n      dup2\n      add\n      swap1\n      tag_169\n      swap2\n      swap1\n      tag_127\n      jump\t// in\n    tag_169:\n        /* \"contracts/KipuBankV3.sol\":10850:10912  uint256 afterBalance = IERC20(i_usdc).balanceOf(address(this)) */\n      swap1\n      pop\n        /* \"contracts/KipuBankV3.sol\":10957:10970  beforeBalance */\n      dup3\n        /* \"contracts/KipuBankV3.sol\":10942:10954  afterBalance */\n      dup2\n        /* \"contracts/KipuBankV3.sol\":10942:10970  afterBalance - beforeBalance */\n      tag_170\n      swap2\n      swap1\n      tag_171\n      jump\t// in\n    tag_170:\n        /* \"contracts/KipuBankV3.sol\":10927:10970  usdcReceived = afterBalance - beforeBalance */\n      swap4\n      pop\n        /* \"contracts/KipuBankV3.sol\":10398:10982  {... */\n      pop\n      pop\n        /* \"contracts/KipuBankV3.sol\":10367:11039  if (_token != address(i_usdc)) {... */\n      jump(tag_172)\n    tag_150:\n        /* \"contracts/KipuBankV3.sol\":11018:11027  _amountIn */\n      dup12\n        /* \"contracts/KipuBankV3.sol\":11003:11027  usdcReceived = _amountIn */\n      swap2\n      pop\n        /* \"contracts/KipuBankV3.sol\":10367:11039  if (_token != address(i_usdc)) {... */\n    tag_172:\n        /* \"contracts/KipuBankV3.sol\":11083:11092  i_bankCap */\n      immutable(\"0xad55db84fbe3147935ae260b6daeae918a666c79e031e119ec3348828c3cd0fb\")\n        /* \"contracts/KipuBankV3.sol\":11068:11080  usdcReceived */\n      dup3\n        /* \"contracts/KipuBankV3.sol\":11052:11065  beforeBalance */\n      dup3\n        /* \"contracts/KipuBankV3.sol\":11052:11080  beforeBalance + usdcReceived */\n      tag_173\n      swap2\n      swap1\n      tag_139\n      jump\t// in\n    tag_173:\n        /* \"contracts/KipuBankV3.sol\":11052:11092  beforeBalance + usdcReceived > i_bankCap */\n      gt\n        /* \"contracts/KipuBankV3.sol\":11049:11158  if(beforeBalance + usdcReceived > i_bankCap) revert KipuBank_FailedDeposit(\"Total KipuBank's Funds exceeded\") */\n      iszero\n      tag_174\n      jumpi\n        /* \"contracts/KipuBankV3.sol\":11101:11158  KipuBank_FailedDeposit(\"Total KipuBank's Funds exceeded\") */\n      mload(0x40)\n      0xa2d2e1b200000000000000000000000000000000000000000000000000000000\n      dup2\n      mstore\n      0x04\n      add\n      tag_175\n      swap1\n      tag_142\n      jump\t// in\n    tag_175:\n      mload(0x40)\n      dup1\n      swap2\n      sub\n      swap1\n      revert\n        /* \"contracts/KipuBankV3.sol\":11049:11158  if(beforeBalance + usdcReceived > i_bankCap) revert KipuBank_FailedDeposit(\"Total KipuBank's Funds exceeded\") */\n    tag_174:\n        /* \"contracts/KipuBankV3.sol\":11218:11230  usdcReceived */\n      dup2\n        /* \"contracts/KipuBankV3.sol\":11192:11202  s_balances */\n      0x02\n        /* \"contracts/KipuBankV3.sol\":11192:11214  s_balances[msg.sender] */\n      0x00\n        /* \"contracts/KipuBankV3.sol\":11203:11213  msg.sender */\n      caller\n        /* \"contracts/KipuBankV3.sol\":11192:11214  s_balances[msg.sender] */\n      0xffffffffffffffffffffffffffffffffffffffff\n      and\n      0xffffffffffffffffffffffffffffffffffffffff\n      and\n      dup2\n      mstore\n      0x20\n      add\n      swap1\n      dup2\n      mstore\n      0x20\n      add\n      0x00\n      keccak256\n      0x00\n        /* \"contracts/KipuBankV3.sol\":11192:11230  s_balances[msg.sender] += usdcReceived */\n      dup3\n      dup3\n      sload\n      tag_176\n      swap2\n      swap1\n      tag_139\n      jump\t// in\n    tag_176:\n      swap3\n      pop\n      pop\n      dup2\n      swap1\n      sstore\n      pop\n        /* \"contracts/KipuBankV3.sol\":11241:11275  _actualizeOperations(true, _token) */\n      tag_177\n        /* \"contracts/KipuBankV3.sol\":11262:11266  true */\n      0x01\n        /* \"contracts/KipuBankV3.sol\":11268:11274  _token */\n      dup15\n        /* \"contracts/KipuBankV3.sol\":11241:11261  _actualizeOperations */\n      tag_178\n        /* \"contracts/KipuBankV3.sol\":11241:11275  _actualizeOperations(true, _token) */\n      jump\t// in\n    tag_177:\n        /* \"contracts/KipuBankV3.sol\":11313:11365  KipuBank_SuccessfulDeposit(msg.sender, usdcReceived) */\n      0x7b7cd0ddbbea241880e825e1eb51c30752cb96dd7efeb4be691ec55dfa4d8963\n        /* \"contracts/KipuBankV3.sol\":11340:11350  msg.sender */\n      caller\n        /* \"contracts/KipuBankV3.sol\":11352:11364  usdcReceived */\n      dup4\n        /* \"contracts/KipuBankV3.sol\":11313:11365  KipuBank_SuccessfulDeposit(msg.sender, usdcReceived) */\n      mload(0x40)\n      tag_179\n      swap3\n      swap2\n      swap1\n      tag_180\n      jump\t// in\n    tag_179:\n      mload(0x40)\n      dup1\n      swap2\n      sub\n      swap1\n      log1\n        /* \"contracts/KipuBankV3.sol\":10024:11373  {... */\n      pop\n      pop\n      pop\n        /* \"contracts/KipuBankV3.sol\":5964:6225  {... */\n      pop\n        /* \"contracts/KipuBankV3.sol\":6917:6918  _ */\n      pop\n      pop\n        /* \"contracts/KipuBankV3.sol\":5512:5513  _ */\n      pop\n      pop\n        /* \"contracts/KipuBankV3.sol\":5256:5521  { //prevents using excesive gas in case of unsupported tokens... */\n      pop\n        /* \"@openzeppelin/contracts/utils/ReentrancyGuard.sol\":2531:2532  _ */\n      pop\n        /* \"@openzeppelin/contracts/utils/ReentrancyGuard.sol\":2542:2562  _nonReentrantAfter() */\n      tag_181\n        /* \"@openzeppelin/contracts/utils/ReentrancyGuard.sol\":2542:2560  _nonReentrantAfter */\n      tag_30\n        /* \"@openzeppelin/contracts/utils/ReentrancyGuard.sol\":2542:2562  _nonReentrantAfter() */\n      jump\t// in\n    tag_181:\n        /* \"contracts/KipuBankV3.sol\":9799:11373  function depositERC20(... */\n      pop\n      pop\n      pop\n      jump\t// out\n        /* \"contracts/KipuBankV3.sol\":1439:1496  mapping(address => uint256) public s_totalDepositsByToken */\n    tag_50:\n      mstore(0x20, 0x03)\n      dup1\n      0x00\n      mstore\n      keccak256(0x00, 0x40)\n      0x00\n      swap2\n      pop\n      swap1\n      pop\n      sload\n      dup2\n      jump\t// out\n        /* \"contracts/KipuBankV3.sol\":2117:2148  address public immutable i_weth */\n    tag_54:\n      immutable(\"0x5f346b15a47626ee96fd810f3d262348170ef701ecee2cccf0c2510256671eaa\")\n      dup2\n      jump\t// out\n        /* \"contracts/KipuBankV3.sol\":11560:11902  function withdrawUsdc(uint256 _amount) external nonReentrant _availableAmount(_amount){... */\n    tag_61:\n        /* \"@openzeppelin/contracts/utils/ReentrancyGuard.sol\":2500:2521  _nonReentrantBefore() */\n      tag_183\n        /* \"@openzeppelin/contracts/utils/ReentrancyGuard.sol\":2500:2519  _nonReentrantBefore */\n      tag_25\n        /* \"@openzeppelin/contracts/utils/ReentrancyGuard.sol\":2500:2521  _nonReentrantBefore() */\n      jump\t// in\n    tag_183:\n        /* \"contracts/KipuBankV3.sol\":11638:11645  _amount */\n      dup1\n        /* \"contracts/KipuBankV3.sol\":4745:4752  _amount */\n      dup1\n        /* \"contracts/KipuBankV3.sol\":4727:4742  i_maxWithdrawal */\n      immutable(\"0x25f9e8aeae9c2ffb4081060f1a62aa0739d35380589299578ccc29b3c3a0654e\")\n        /* \"contracts/KipuBankV3.sol\":4727:4752  i_maxWithdrawal < _amount */\n      lt\n        /* \"contracts/KipuBankV3.sol\":4724:4827  if(i_maxWithdrawal < _amount) revert KipuBank_FailedWithdrawal(\"Amount exceeds the maximum withdrawal\") */\n      iszero\n      tag_185\n      jumpi\n        /* \"contracts/KipuBankV3.sol\":4761:4827  KipuBank_FailedWithdrawal(\"Amount exceeds the maximum withdrawal\") */\n      mload(0x40)\n      0x0fc0517400000000000000000000000000000000000000000000000000000000\n      dup2\n      mstore\n      0x04\n      add\n      tag_186\n      swap1\n      tag_187\n      jump\t// in\n    tag_186:\n      mload(0x40)\n      dup1\n      swap2\n      sub\n      swap1\n      revert\n        /* \"contracts/KipuBankV3.sol\":4724:4827  if(i_maxWithdrawal < _amount) revert KipuBank_FailedWithdrawal(\"Amount exceeds the maximum withdrawal\") */\n    tag_185:\n        /* \"contracts/KipuBankV3.sol\":4866:4873  _amount */\n      dup1\n        /* \"contracts/KipuBankV3.sol\":4841:4851  s_balances */\n      0x02\n        /* \"contracts/KipuBankV3.sol\":4841:4863  s_balances[msg.sender] */\n      0x00\n        /* \"contracts/KipuBankV3.sol\":4852:4862  msg.sender */\n      caller\n        /* \"contracts/KipuBankV3.sol\":4841:4863  s_balances[msg.sender] */\n      0xffffffffffffffffffffffffffffffffffffffff\n      and\n      0xffffffffffffffffffffffffffffffffffffffff\n      and\n      dup2\n      mstore\n      0x20\n      add\n      swap1\n      dup2\n      mstore\n      0x20\n      add\n      0x00\n      keccak256\n      sload\n        /* \"contracts/KipuBankV3.sol\":4841:4873  s_balances[msg.sender] < _amount */\n      lt\n        /* \"contracts/KipuBankV3.sol\":4838:4928  if(s_balances[msg.sender] < _amount) revert KipuBank_InsufficientFunds(\"Not enough Funds\") */\n      iszero\n      tag_188\n      jumpi\n        /* \"contracts/KipuBankV3.sol\":4882:4928  KipuBank_InsufficientFunds(\"Not enough Funds\") */\n      mload(0x40)\n      0x986b5a3000000000000000000000000000000000000000000000000000000000\n      dup2\n      mstore\n      0x04\n      add\n      tag_189\n      swap1\n      tag_190\n      jump\t// in\n    tag_189:\n      mload(0x40)\n      dup1\n      swap2\n      sub\n      swap1\n      revert\n        /* \"contracts/KipuBankV3.sol\":4838:4928  if(s_balances[msg.sender] < _amount) revert KipuBank_InsufficientFunds(\"Not enough Funds\") */\n    tag_188:\n        /* \"contracts/KipuBankV3.sol\":11683:11690  _amount */\n      dup2\n        /* \"contracts/KipuBankV3.sol\":11657:11667  s_balances */\n      0x02\n        /* \"contracts/KipuBankV3.sol\":11657:11679  s_balances[msg.sender] */\n      0x00\n        /* \"contracts/KipuBankV3.sol\":11668:11678  msg.sender */\n      caller\n        /* \"contracts/KipuBankV3.sol\":11657:11679  s_balances[msg.sender] */\n      0xffffffffffffffffffffffffffffffffffffffff\n      and\n      0xffffffffffffffffffffffffffffffffffffffff\n      and\n      dup2\n      mstore\n      0x20\n      add\n      swap1\n      dup2\n      mstore\n      0x20\n      add\n      0x00\n      keccak256\n      0x00\n        /* \"contracts/KipuBankV3.sol\":11657:11690  s_balances[msg.sender] -= _amount */\n      dup3\n      dup3\n      sload\n      tag_192\n      swap2\n      swap1\n      tag_171\n      jump\t// in\n    tag_192:\n      swap3\n      pop\n      pop\n      dup2\n      swap1\n      sstore\n      pop\n        /* \"contracts/KipuBankV3.sol\":11701:11713  IERC20 token */\n      0x00\n        /* \"contracts/KipuBankV3.sol\":11716:11722  i_usdc */\n      immutable(\"0xe0800c6beceec1247d5682d9f388b4169d48b373c18811205d6cd68456d8cf3b\")\n        /* \"contracts/KipuBankV3.sol\":11701:11722  IERC20 token = i_usdc */\n      swap1\n      pop\n        /* \"contracts/KipuBankV3.sol\":11733:11776  _actualizeOperations(false, address(token)) */\n      tag_193\n        /* \"contracts/KipuBankV3.sol\":11754:11759  false */\n      0x00\n        /* \"contracts/KipuBankV3.sol\":11769:11774  token */\n      dup3\n        /* \"contracts/KipuBankV3.sol\":11733:11753  _actualizeOperations */\n      tag_178\n        /* \"contracts/KipuBankV3.sol\":11733:11776  _actualizeOperations(false, address(token)) */\n      jump\t// in\n    tag_193:\n        /* \"contracts/KipuBankV3.sol\":11787:11826  token.safeTransfer(msg.sender, _amount) */\n      tag_194\n        /* \"contracts/KipuBankV3.sol\":11806:11816  msg.sender */\n      caller\n        /* \"contracts/KipuBankV3.sol\":11818:11825  _amount */\n      dup5\n        /* \"contracts/KipuBankV3.sol\":11787:11792  token */\n      dup4\n        /* \"contracts/KipuBankV3.sol\":11787:11805  token.safeTransfer */\n      0xffffffffffffffffffffffffffffffffffffffff\n      and\n      tag_195\n      swap1\n        /* \"contracts/KipuBankV3.sol\":11787:11826  token.safeTransfer(msg.sender, _amount) */\n      swap3\n      swap2\n      swap1\n      0xffffffff\n      and\n      jump\t// in\n    tag_194:\n        /* \"contracts/KipuBankV3.sol\":11844:11894  KipuBank_SuccessfulWithdrawal(msg.sender, _amount) */\n      0x1ff21e81cff87fccbac096ad565f52cb1b358db04a736a6a137cceb4a287a702\n        /* \"contracts/KipuBankV3.sol\":11874:11884  msg.sender */\n      caller\n        /* \"contracts/KipuBankV3.sol\":11886:11893  _amount */\n      dup5\n        /* \"contracts/KipuBankV3.sol\":11844:11894  KipuBank_SuccessfulWithdrawal(msg.sender, _amount) */\n      mload(0x40)\n      tag_196\n      swap3\n      swap2\n      swap1\n      tag_180\n      jump\t// in\n    tag_196:\n      mload(0x40)\n      dup1\n      swap2\n      sub\n      swap1\n      log1\n        /* \"contracts/KipuBankV3.sol\":11646:11902  {... */\n      pop\n        /* \"@openzeppelin/contracts/utils/ReentrancyGuard.sol\":2531:2532  _ */\n      pop\n        /* \"@openzeppelin/contracts/utils/ReentrancyGuard.sol\":2542:2562  _nonReentrantAfter() */\n      tag_197\n        /* \"@openzeppelin/contracts/utils/ReentrancyGuard.sol\":2542:2560  _nonReentrantAfter */\n      tag_30\n        /* \"@openzeppelin/contracts/utils/ReentrancyGuard.sol\":2542:2562  _nonReentrantAfter() */\n      jump\t// in\n    tag_197:\n        /* \"contracts/KipuBankV3.sol\":11560:11902  function withdrawUsdc(uint256 _amount) external nonReentrant _availableAmount(_amount){... */\n      pop\n      jump\t// out\n        /* \"@openzeppelin/contracts/access/Ownable.sol\":2293:2394  function renounceOwnership() public virtual onlyOwner {... */\n    tag_64:\n        /* \"@openzeppelin/contracts/access/Ownable.sol\":1531:1544  _checkOwner() */\n      tag_199\n        /* \"@openzeppelin/contracts/access/Ownable.sol\":1531:1542  _checkOwner */\n      tag_200\n        /* \"@openzeppelin/contracts/access/Ownable.sol\":1531:1544  _checkOwner() */\n      jump\t// in\n    tag_199:\n        /* \"@openzeppelin/contracts/access/Ownable.sol\":2357:2387  _transferOwnership(address(0)) */\n      tag_202\n        /* \"@openzeppelin/contracts/access/Ownable.sol\":2384:2385  0 */\n      0x00\n        /* \"@openzeppelin/contracts/access/Ownable.sol\":2357:2375  _transferOwnership */\n      tag_203\n        /* \"@openzeppelin/contracts/access/Ownable.sol\":2357:2387  _transferOwnership(address(0)) */\n      jump\t// in\n    tag_202:\n        /* \"@openzeppelin/contracts/access/Ownable.sol\":2293:2394  function renounceOwnership() public virtual onlyOwner {... */\n      jump\t// out\n        /* \"contracts/KipuBankV3.sol\":2253:2302  IUniswapV2Router02 public immutable uniswapRouter */\n    tag_67:\n      immutable(\"0xe7c9d2642b7ef3f0e3fb3aae7fff3104a3ecb5cdc09d85f65b66c9838c84cd52\")\n      dup2\n      jump\t// out\n        /* \"contracts/KipuBankV3.sol\":2413:2452  IUniswapV2Factory public uniswapFactory */\n    tag_72:\n      0x05\n      0x00\n      swap1\n      sload\n      swap1\n      0x0100\n      exp\n      swap1\n      div\n      0xffffffffffffffffffffffffffffffffffffffff\n      and\n      dup2\n      jump\t// out\n        /* \"@openzeppelin/contracts/access/Ownable.sol\":1638:1723  function owner() public view virtual returns (address) {... */\n    tag_77:\n        /* \"@openzeppelin/contracts/access/Ownable.sol\":1684:1691  address */\n      0x00\n        /* \"@openzeppelin/contracts/access/Ownable.sol\":1710:1716  _owner */\n      dup1\n      0x00\n      swap1\n      sload\n      swap1\n      0x0100\n      exp\n      swap1\n      div\n      0xffffffffffffffffffffffffffffffffffffffff\n      and\n        /* \"@openzeppelin/contracts/access/Ownable.sol\":1703:1716  return _owner */\n      swap1\n      pop\n        /* \"@openzeppelin/contracts/access/Ownable.sol\":1638:1723  function owner() public view virtual returns (address) {... */\n      swap1\n      jump\t// out\n        /* \"contracts/KipuBankV3.sol\":12143:12348  function emergencyWithdrawal(uint256 _amount, address _recipient) external onlyOwner {... */\n    tag_83:\n        /* \"@openzeppelin/contracts/access/Ownable.sol\":1531:1544  _checkOwner() */\n      tag_206\n        /* \"@openzeppelin/contracts/access/Ownable.sol\":1531:1542  _checkOwner */\n      tag_200\n        /* \"@openzeppelin/contracts/access/Ownable.sol\":1531:1544  _checkOwner() */\n      jump\t// in\n    tag_206:\n        /* \"contracts/KipuBankV3.sol\":12239:12287  IERC20(i_usdc).safeTransfer(_recipient, _amount) */\n      tag_208\n        /* \"contracts/KipuBankV3.sol\":12267:12277  _recipient */\n      dup2\n        /* \"contracts/KipuBankV3.sol\":12279:12286  _amount */\n      dup4\n        /* \"contracts/KipuBankV3.sol\":12246:12252  i_usdc */\n      immutable(\"0xe0800c6beceec1247d5682d9f388b4169d48b373c18811205d6cd68456d8cf3b\")\n        /* \"contracts/KipuBankV3.sol\":12239:12266  IERC20(i_usdc).safeTransfer */\n      0xffffffffffffffffffffffffffffffffffffffff\n      and\n      tag_195\n      swap1\n        /* \"contracts/KipuBankV3.sol\":12239:12287  IERC20(i_usdc).safeTransfer(_recipient, _amount) */\n      swap3\n      swap2\n      swap1\n      0xffffffff\n      and\n      jump\t// in\n    tag_208:\n        /* \"contracts/KipuBankV3.sol\":12303:12340  KipuBank_EmergencyWithdrawal(_amount) */\n      0xbb8f0afef873e84feb2f1167dd70a028e4f9ada114828481f03ed1255aa0f541\n        /* \"contracts/KipuBankV3.sol\":12332:12339  _amount */\n      dup3\n        /* \"contracts/KipuBankV3.sol\":12303:12340  KipuBank_EmergencyWithdrawal(_amount) */\n      mload(0x40)\n      tag_209\n      swap2\n      swap1\n      tag_40\n      jump\t// in\n    tag_209:\n      mload(0x40)\n      dup1\n      swap2\n      sub\n      swap1\n      log1\n        /* \"contracts/KipuBankV3.sol\":12143:12348  function emergencyWithdrawal(uint256 _amount, address _recipient) external onlyOwner {... */\n      pop\n      pop\n      jump\t// out\n        /* \"contracts/KipuBankV3.sol\":8941:9053  function consultKipuBankFunds() external view returns (uint256 amount_){... */\n    tag_86:\n        /* \"contracts/KipuBankV3.sol\":8996:9011  uint256 amount_ */\n      0x00\n        /* \"contracts/KipuBankV3.sol\":9030:9045  _consultFunds() */\n      tag_211\n        /* \"contracts/KipuBankV3.sol\":9030:9043  _consultFunds */\n      tag_212\n        /* \"contracts/KipuBankV3.sol\":9030:9045  _consultFunds() */\n      jump\t// in\n    tag_211:\n        /* \"contracts/KipuBankV3.sol\":9023:9045  return _consultFunds() */\n      swap1\n      pop\n        /* \"contracts/KipuBankV3.sol\":8941:9053  function consultKipuBankFunds() external view returns (uint256 amount_){... */\n      swap1\n      jump\t// out\n        /* \"contracts/KipuBankV3.sol\":9240:9341  function deposit() external payable nonReentrant{... */\n    tag_89:\n        /* \"@openzeppelin/contracts/utils/ReentrancyGuard.sol\":2500:2521  _nonReentrantBefore() */\n      tag_214\n        /* \"@openzeppelin/contracts/utils/ReentrancyGuard.sol\":2500:2519  _nonReentrantBefore */\n      tag_25\n        /* \"@openzeppelin/contracts/utils/ReentrancyGuard.sol\":2500:2521  _nonReentrantBefore() */\n      jump\t// in\n    tag_214:\n        /* \"contracts/KipuBankV3.sol\":9299:9333  _depositETH(msg.sender, msg.value) */\n      tag_216\n        /* \"contracts/KipuBankV3.sol\":9311:9321  msg.sender */\n      caller\n        /* \"contracts/KipuBankV3.sol\":9323:9332  msg.value */\n      callvalue\n        /* \"contracts/KipuBankV3.sol\":9299:9310  _depositETH */\n      tag_217\n        /* \"contracts/KipuBankV3.sol\":9299:9333  _depositETH(msg.sender, msg.value) */\n      jump\t// in\n    tag_216:\n        /* \"@openzeppelin/contracts/utils/ReentrancyGuard.sol\":2542:2562  _nonReentrantAfter() */\n      tag_218\n        /* \"@openzeppelin/contracts/utils/ReentrancyGuard.sol\":2542:2560  _nonReentrantAfter */\n      tag_30\n        /* \"@openzeppelin/contracts/utils/ReentrancyGuard.sol\":2542:2562  _nonReentrantAfter() */\n      jump\t// in\n    tag_218:\n        /* \"contracts/KipuBankV3.sol\":9240:9341  function deposit() external payable nonReentrant{... */\n      jump\t// out\n        /* \"@openzeppelin/contracts/access/Ownable.sol\":2543:2758  function transferOwnership(address newOwner) public virtual onlyOwner {... */\n    tag_93:\n        /* \"@openzeppelin/contracts/access/Ownable.sol\":1531:1544  _checkOwner() */\n      tag_220\n        /* \"@openzeppelin/contracts/access/Ownable.sol\":1531:1542  _checkOwner */\n      tag_200\n        /* \"@openzeppelin/contracts/access/Ownable.sol\":1531:1544  _checkOwner() */\n      jump\t// in\n    tag_220:\n        /* \"@openzeppelin/contracts/access/Ownable.sol\":2647:2648  0 */\n      0x00\n        /* \"@openzeppelin/contracts/access/Ownable.sol\":2627:2649  newOwner == address(0) */\n      0xffffffffffffffffffffffffffffffffffffffff\n      and\n        /* \"@openzeppelin/contracts/access/Ownable.sol\":2627:2635  newOwner */\n      dup2\n        /* \"@openzeppelin/contracts/access/Ownable.sol\":2627:2649  newOwner == address(0) */\n      0xffffffffffffffffffffffffffffffffffffffff\n      and\n      sub\n        /* \"@openzeppelin/contracts/access/Ownable.sol\":2623:2714  if (newOwner == address(0)) {... */\n      tag_222\n      jumpi\n        /* \"@openzeppelin/contracts/access/Ownable.sol\":2700:2701  0 */\n      0x00\n        /* \"@openzeppelin/contracts/access/Ownable.sol\":2672:2703  OwnableInvalidOwner(address(0)) */\n      mload(0x40)\n      0x1e4fbdf700000000000000000000000000000000000000000000000000000000\n      dup2\n      mstore\n      0x04\n      add\n      tag_223\n      swap2\n      swap1\n      tag_56\n      jump\t// in\n    tag_223:\n      mload(0x40)\n      dup1\n      swap2\n      sub\n      swap1\n      revert\n        /* \"@openzeppelin/contracts/access/Ownable.sol\":2623:2714  if (newOwner == address(0)) {... */\n    tag_222:\n        /* \"@openzeppelin/contracts/access/Ownable.sol\":2723:2751  _transferOwnership(newOwner) */\n      tag_224\n        /* \"@openzeppelin/contracts/access/Ownable.sol\":2742:2750  newOwner */\n      dup2\n        /* \"@openzeppelin/contracts/access/Ownable.sol\":2723:2741  _transferOwnership */\n      tag_203\n        /* \"@openzeppelin/contracts/access/Ownable.sol\":2723:2751  _transferOwnership(newOwner) */\n      jump\t// in\n    tag_224:\n        /* \"@openzeppelin/contracts/access/Ownable.sol\":2543:2758  function transferOwnership(address newOwner) public virtual onlyOwner {... */\n      pop\n      jump\t// out\n        /* \"contracts/KipuBankV3.sol\":1583:1616  uint256 public s_totalWithdrawals */\n    tag_96:\n      sload(0x04)\n      dup2\n      jump\t// out\n        /* \"contracts/KipuBankV3.sol\":1725:1759  uint256 public immutable i_bankCap */\n    tag_100:\n      immutable(\"0xad55db84fbe3147935ae260b6daeae918a666c79e031e119ec3348828c3cd0fb\")\n      dup2\n      jump\t// out\n        /* \"contracts/KipuBankV3.sol\":1979:2009  IERC20 public immutable i_usdc */\n    tag_104:\n      immutable(\"0xe0800c6beceec1247d5682d9f388b4169d48b373c18811205d6cd68456d8cf3b\")\n      dup2\n      jump\t// out\n        /* \"contracts/KipuBankV3.sol\":12656:13315  function _estimateUSDCOut(address _token, uint256 _amount) internal view returns (uint256) {... */\n    tag_133:\n        /* \"contracts/KipuBankV3.sol\":12738:12745  uint256 */\n      0x00\n        /* \"contracts/KipuBankV3.sol\":12780:12786  i_usdc */\n      immutable(\"0xe0800c6beceec1247d5682d9f388b4169d48b373c18811205d6cd68456d8cf3b\")\n        /* \"contracts/KipuBankV3.sol\":12762:12787  _token == address(i_usdc) */\n      0xffffffffffffffffffffffffffffffffffffffff\n      and\n        /* \"contracts/KipuBankV3.sol\":12762:12768  _token */\n      dup4\n        /* \"contracts/KipuBankV3.sol\":12762:12787  _token == address(i_usdc) */\n      0xffffffffffffffffffffffffffffffffffffffff\n      and\n      sub\n        /* \"contracts/KipuBankV3.sol\":12758:12803  if (_token == address(i_usdc)) return _amount */\n      tag_226\n      jumpi\n        /* \"contracts/KipuBankV3.sol\":12796:12803  _amount */\n      dup2\n        /* \"contracts/KipuBankV3.sol\":12789:12803  return _amount */\n      swap1\n      pop\n      jump(tag_225)\n        /* \"contracts/KipuBankV3.sol\":12758:12803  if (_token == address(i_usdc)) return _amount */\n    tag_226:\n        /* \"contracts/KipuBankV3.sol\":12816:12828  address pair */\n      0x00\n        /* \"contracts/KipuBankV3.sol\":12831:12845  uniswapFactory */\n      0x05\n      0x00\n      swap1\n      sload\n      swap1\n      0x0100\n      exp\n      swap1\n      div\n      0xffffffffffffffffffffffffffffffffffffffff\n      and\n        /* \"contracts/KipuBankV3.sol\":12831:12853  uniswapFactory.getPair */\n      0xffffffffffffffffffffffffffffffffffffffff\n      and\n      0xe6a43905\n        /* \"contracts/KipuBankV3.sol\":12854:12860  _token */\n      dup6\n        /* \"contracts/KipuBankV3.sol\":12870:12876  i_usdc */\n      immutable(\"0xe0800c6beceec1247d5682d9f388b4169d48b373c18811205d6cd68456d8cf3b\")\n        /* \"contracts/KipuBankV3.sol\":12831:12878  uniswapFactory.getPair(_token, address(i_usdc)) */\n      mload(0x40)\n      dup4\n      0xffffffff\n      and\n      0xe0\n      shl\n      dup2\n      mstore\n      0x04\n      add\n      tag_227\n      swap3\n      swap2\n      swap1\n      tag_114\n      jump\t// in\n    tag_227:\n      0x20\n      mload(0x40)\n      dup1\n      dup4\n      sub\n      dup2\n      dup7\n      gas\n      staticcall\n      iszero\n      dup1\n      iszero\n      tag_229\n      jumpi\n      returndatasize\n      0x00\n      dup1\n      returndatacopy\n      revert(0x00, returndatasize)\n    tag_229:\n      pop\n      pop\n      pop\n      pop\n      mload(0x40)\n      returndatasize\n      not(0x1f)\n      0x1f\n      dup3\n      add\n      and\n      dup3\n      add\n      dup1\n      0x40\n      mstore\n      pop\n      dup2\n      add\n      swap1\n      tag_230\n      swap2\n      swap1\n      tag_118\n      jump\t// in\n    tag_230:\n        /* \"contracts/KipuBankV3.sol\":12816:12878  address pair = uniswapFactory.getPair(_token, address(i_usdc)) */\n      swap1\n      pop\n        /* \"contracts/KipuBankV3.sol\":12892:12908  uint112 reserve0 */\n      0x00\n        /* \"contracts/KipuBankV3.sol\":12910:12926  uint112 reserve1 */\n      dup1\n        /* \"contracts/KipuBankV3.sol\":12946:12950  pair */\n      dup3\n        /* \"contracts/KipuBankV3.sol\":12931:12963  IUniswapV2Pair(pair).getReserves */\n      0xffffffffffffffffffffffffffffffffffffffff\n      and\n      0x0902f1ac\n        /* \"contracts/KipuBankV3.sol\":12931:12965  IUniswapV2Pair(pair).getReserves() */\n      mload(0x40)\n      dup2\n      0xffffffff\n      and\n      0xe0\n      shl\n      dup2\n      mstore\n      0x04\n      add\n      0x60\n      mload(0x40)\n      dup1\n      dup4\n      sub\n      dup2\n      dup7\n      gas\n      staticcall\n      iszero\n      dup1\n      iszero\n      tag_232\n      jumpi\n      returndatasize\n      0x00\n      dup1\n      returndatacopy\n      revert(0x00, returndatasize)\n    tag_232:\n      pop\n      pop\n      pop\n      pop\n      mload(0x40)\n      returndatasize\n      not(0x1f)\n      0x1f\n      dup3\n      add\n      and\n      dup3\n      add\n      dup1\n      0x40\n      mstore\n      pop\n      dup2\n      add\n      swap1\n      tag_233\n      swap2\n      swap1\n      tag_234\n      jump\t// in\n    tag_233:\n        /* \"contracts/KipuBankV3.sol\":12891:12965  (uint112 reserve0, uint112 reserve1,) = IUniswapV2Pair(pair).getReserves() */\n      pop\n      swap2\n      pop\n      swap2\n      pop\n        /* \"contracts/KipuBankV3.sol\":12977:12994  uint112 reserveIn */\n      0x00\n        /* \"contracts/KipuBankV3.sol\":12996:13014  uint112 reserveOut */\n      dup1\n        /* \"contracts/KipuBankV3.sol\":13035:13041  i_usdc */\n      immutable(\"0xe0800c6beceec1247d5682d9f388b4169d48b373c18811205d6cd68456d8cf3b\")\n        /* \"contracts/KipuBankV3.sol\":13018:13042  _token < address(i_usdc) */\n      0xffffffffffffffffffffffffffffffffffffffff\n      and\n        /* \"contracts/KipuBankV3.sol\":13018:13024  _token */\n      dup9\n        /* \"contracts/KipuBankV3.sol\":13018:13042  _token < address(i_usdc) */\n      0xffffffffffffffffffffffffffffffffffffffff\n      and\n      lt\n        /* \"contracts/KipuBankV3.sol\":13018:13088  _token < address(i_usdc) ? (reserve0, reserve1) : (reserve1, reserve0) */\n      tag_235\n      jumpi\n        /* \"contracts/KipuBankV3.sol\":13069:13077  reserve1 */\n      dup3\n        /* \"contracts/KipuBankV3.sol\":13079:13087  reserve0 */\n      dup5\n        /* \"contracts/KipuBankV3.sol\":13018:13088  _token < address(i_usdc) ? (reserve0, reserve1) : (reserve1, reserve0) */\n      jump(tag_236)\n    tag_235:\n        /* \"contracts/KipuBankV3.sol\":13046:13054  reserve0 */\n      dup4\n        /* \"contracts/KipuBankV3.sol\":13056:13064  reserve1 */\n      dup4\n        /* \"contracts/KipuBankV3.sol\":13018:13088  _token < address(i_usdc) ? (reserve0, reserve1) : (reserve1, reserve0) */\n    tag_236:\n        /* \"contracts/KipuBankV3.sol\":12976:13088  (uint112 reserveIn, uint112 reserveOut) = _token < address(i_usdc) ? (reserve0, reserve1) : (reserve1, reserve0) */\n      swap2\n      pop\n      swap2\n      pop\n        /* \"contracts/KipuBankV3.sol\":13101:13124  uint256 amountInWithFee */\n      0x00\n        /* \"contracts/KipuBankV3.sol\":13137:13140  997 */\n      0x03e5\n        /* \"contracts/KipuBankV3.sol\":13127:13134  _amount */\n      dup9\n        /* \"contracts/KipuBankV3.sol\":13127:13140  _amount * 997 */\n      tag_237\n      swap2\n      swap1\n      tag_238\n      jump\t// in\n    tag_237:\n        /* \"contracts/KipuBankV3.sol\":13101:13140  uint256 amountInWithFee = _amount * 997 */\n      swap1\n      pop\n        /* \"contracts/KipuBankV3.sol\":13151:13168  uint256 numerator */\n      0x00\n        /* \"contracts/KipuBankV3.sol\":13189:13199  reserveOut */\n      dup3\n        /* \"contracts/KipuBankV3.sol\":13171:13199  amountInWithFee * reserveOut */\n      0xffffffffffffffffffffffffffff\n      and\n        /* \"contracts/KipuBankV3.sol\":13171:13186  amountInWithFee */\n      dup3\n        /* \"contracts/KipuBankV3.sol\":13171:13199  amountInWithFee * reserveOut */\n      tag_239\n      swap2\n      swap1\n      tag_238\n      jump\t// in\n    tag_239:\n        /* \"contracts/KipuBankV3.sol\":13151:13199  uint256 numerator = amountInWithFee * reserveOut */\n      swap1\n      pop\n        /* \"contracts/KipuBankV3.sol\":13210:13229  uint256 denominator */\n      0x00\n        /* \"contracts/KipuBankV3.sol\":13251:13266  amountInWithFee */\n      dup3\n        /* \"contracts/KipuBankV3.sol\":13244:13248  1000 */\n      0x03e8\n        /* \"contracts/KipuBankV3.sol\":13232:13241  reserveIn */\n      dup7\n        /* \"contracts/KipuBankV3.sol\":13232:13248  reserveIn * 1000 */\n      tag_240\n      swap2\n      swap1\n      tag_241\n      jump\t// in\n    tag_240:\n        /* \"contracts/KipuBankV3.sol\":13232:13266  reserveIn * 1000 + amountInWithFee */\n      0xffffffffffffffffffffffffffff\n      and\n      tag_242\n      swap2\n      swap1\n      tag_139\n      jump\t// in\n    tag_242:\n        /* \"contracts/KipuBankV3.sol\":13210:13266  uint256 denominator = reserveIn * 1000 + amountInWithFee */\n      swap1\n      pop\n        /* \"contracts/KipuBankV3.sol\":13296:13307  denominator */\n      dup1\n        /* \"contracts/KipuBankV3.sol\":13284:13293  numerator */\n      dup3\n        /* \"contracts/KipuBankV3.sol\":13284:13307  numerator / denominator */\n      tag_243\n      swap2\n      swap1\n      tag_244\n      jump\t// in\n    tag_243:\n        /* \"contracts/KipuBankV3.sol\":13277:13307  return numerator / denominator */\n      swap9\n      pop\n      pop\n      pop\n      pop\n      pop\n      pop\n      pop\n      pop\n      pop\n        /* \"contracts/KipuBankV3.sol\":12656:13315  function _estimateUSDCOut(address _token, uint256 _amount) internal view returns (uint256) {... */\n    tag_225:\n      swap3\n      swap2\n      pop\n      pop\n      jump\t// out\n        /* \"@openzeppelin/contracts/token/ERC20/utils/SafeERC20.sol\":1618:1806  function safeTransferFrom(IERC20 token, address from, address to, uint256 value) internal {... */\n    tag_145:\n        /* \"@openzeppelin/contracts/token/ERC20/utils/SafeERC20.sol\":1718:1799  _callOptionalReturn(token, abi.encodeCall(token.transferFrom, (from, to, value))) */\n      tag_246\n        /* \"@openzeppelin/contracts/token/ERC20/utils/SafeERC20.sol\":1738:1743  token */\n      dup5\n        /* \"@openzeppelin/contracts/token/ERC20/utils/SafeERC20.sol\":1760:1765  token */\n      dup6\n        /* \"@openzeppelin/contracts/token/ERC20/utils/SafeERC20.sol\":1760:1778  token.transferFrom */\n      0xffffffffffffffffffffffffffffffffffffffff\n      and\n      0x23b872dd\n        /* \"@openzeppelin/contracts/token/ERC20/utils/SafeERC20.sol\":1781:1785  from */\n      dup7\n        /* \"@openzeppelin/contracts/token/ERC20/utils/SafeERC20.sol\":1787:1789  to */\n      dup7\n        /* \"@openzeppelin/contracts/token/ERC20/utils/SafeERC20.sol\":1791:1796  value */\n      dup7\n        /* \"@openzeppelin/contracts/token/ERC20/utils/SafeERC20.sol\":1745:1798  abi.encodeCall(token.transferFrom, (from, to, value)) */\n      add(0x24, mload(0x40))\n      tag_247\n      swap4\n      swap3\n      swap2\n      swap1\n      tag_248\n      jump\t// in\n    tag_247:\n      mload(0x40)\n      0x20\n      dup2\n      dup4\n      sub\n      sub\n      dup2\n      mstore\n      swap1\n      0x40\n      mstore\n      swap2\n      pop\n      0xe0\n      shl\n      0x20\n      dup3\n      add\n      dup1\n      mload\n      0xffffffffffffffffffffffffffffffffffffffffffffffffffffffff\n      dup4\n      dup2\n      dup4\n      and\n      or\n      dup4\n      mstore\n      pop\n      pop\n      pop\n      pop\n        /* \"@openzeppelin/contracts/token/ERC20/utils/SafeERC20.sol\":1718:1737  _callOptionalReturn */\n      tag_249\n        /* \"@openzeppelin/contracts/token/ERC20/utils/SafeERC20.sol\":1718:1799  _callOptionalReturn(token, abi.encodeCall(token.transferFrom, (from, to, value))) */\n      jump\t// in\n    tag_246:\n        /* \"@openzeppelin/contracts/token/ERC20/utils/SafeERC20.sol\":1618:1806  function safeTransferFrom(IERC20 token, address from, address to, uint256 value) internal {... */\n      pop\n      pop\n      pop\n      pop\n      jump\t// out\n        /* \"contracts/KipuBankV3.sol\":14909:15123  function _actualizeOperations(bool isDeposit, address token) private{... */\n    tag_178:\n        /* \"contracts/KipuBankV3.sol\":14991:15000  isDeposit */\n      dup2\n        /* \"contracts/KipuBankV3.sol\":14988:15116  if(isDeposit){... */\n      iszero\n      tag_251\n      jumpi\n        /* \"contracts/KipuBankV3.sol\":15049:15050  1 */\n      0x01\n        /* \"contracts/KipuBankV3.sol\":15016:15038  s_totalDepositsByToken */\n      0x03\n        /* \"contracts/KipuBankV3.sol\":15016:15045  s_totalDepositsByToken[token] */\n      0x00\n        /* \"contracts/KipuBankV3.sol\":15039:15044  token */\n      dup4\n        /* \"contracts/KipuBankV3.sol\":15016:15045  s_totalDepositsByToken[token] */\n      0xffffffffffffffffffffffffffffffffffffffff\n      and\n      0xffffffffffffffffffffffffffffffffffffffff\n      and\n      dup2\n      mstore\n      0x20\n      add\n      swap1\n      dup2\n      mstore\n      0x20\n      add\n      0x00\n      keccak256\n      0x00\n        /* \"contracts/KipuBankV3.sol\":15016:15050  s_totalDepositsByToken[token] += 1 */\n      dup3\n      dup3\n      sload\n      tag_252\n      swap2\n      swap1\n      tag_139\n      jump\t// in\n    tag_252:\n      swap3\n      pop\n      pop\n      dup2\n      swap1\n      sstore\n      pop\n        /* \"contracts/KipuBankV3.sol\":14988:15116  if(isDeposit){... */\n      jump(tag_253)\n    tag_251:\n        /* \"contracts/KipuBankV3.sol\":15103:15104  1 */\n      0x01\n        /* \"contracts/KipuBankV3.sol\":15081:15099  s_totalWithdrawals */\n      0x04\n      0x00\n        /* \"contracts/KipuBankV3.sol\":15081:15104  s_totalWithdrawals += 1 */\n      dup3\n      dup3\n      sload\n      tag_254\n      swap2\n      swap1\n      tag_139\n      jump\t// in\n    tag_254:\n      swap3\n      pop\n      pop\n      dup2\n      swap1\n      sstore\n      pop\n        /* \"contracts/KipuBankV3.sol\":14988:15116  if(isDeposit){... */\n    tag_253:\n        /* \"contracts/KipuBankV3.sol\":14909:15123  function _actualizeOperations(bool isDeposit, address token) private{... */\n      pop\n      pop\n      jump\t// out\n        /* \"@openzeppelin/contracts/token/ERC20/utils/SafeERC20.sol\":1219:1379  function safeTransfer(IERC20 token, address to, uint256 value) internal {... */\n    tag_195:\n        /* \"@openzeppelin/contracts/token/ERC20/utils/SafeERC20.sol\":1301:1372  _callOptionalReturn(token, abi.encodeCall(token.transfer, (to, value))) */\n      tag_256\n        /* \"@openzeppelin/contracts/token/ERC20/utils/SafeERC20.sol\":1321:1326  token */\n      dup4\n        /* \"@openzeppelin/contracts/token/ERC20/utils/SafeERC20.sol\":1343:1348  token */\n      dup5\n        /* \"@openzeppelin/contracts/token/ERC20/utils/SafeERC20.sol\":1343:1357  token.transfer */\n      0xffffffffffffffffffffffffffffffffffffffff\n      and\n      0xa9059cbb\n        /* \"@openzeppelin/contracts/token/ERC20/utils/SafeERC20.sol\":1360:1362  to */\n      dup6\n        /* \"@openzeppelin/contracts/token/ERC20/utils/SafeERC20.sol\":1364:1369  value */\n      dup6\n        /* \"@openzeppelin/contracts/token/ERC20/utils/SafeERC20.sol\":1328:1371  abi.encodeCall(token.transfer, (to, value)) */\n      add(0x24, mload(0x40))\n      tag_257\n      swap3\n      swap2\n      swap1\n      tag_180\n      jump\t// in\n    tag_257:\n      mload(0x40)\n      0x20\n      dup2\n      dup4\n      sub\n      sub\n      dup2\n      mstore\n      swap1\n      0x40\n      mstore\n      swap2\n      pop\n      0xe0\n      shl\n      0x20\n      dup3\n      add\n      dup1\n      mload\n      0xffffffffffffffffffffffffffffffffffffffffffffffffffffffff\n      dup4\n      dup2\n      dup4\n      and\n      or\n      dup4\n      mstore\n      pop\n      pop\n      pop\n      pop\n        /* \"@openzeppelin/contracts/token/ERC20/utils/SafeERC20.sol\":1301:1320  _callOptionalReturn */\n      tag_249\n        /* \"@openzeppelin/contracts/token/ERC20/utils/SafeERC20.sol\":1301:1372  _callOptionalReturn(token, abi.encodeCall(token.transfer, (to, value))) */\n      jump\t// in\n    tag_256:\n        /* \"@openzeppelin/contracts/token/ERC20/utils/SafeERC20.sol\":1219:1379  function safeTransfer(IERC20 token, address to, uint256 value) internal {... */\n      pop\n      pop\n      pop\n      jump\t// out\n        /* \"@openzeppelin/contracts/access/Ownable.sol\":1796:1958  function _checkOwner() internal view virtual {... */\n    tag_200:\n        /* \"@openzeppelin/contracts/access/Ownable.sol\":1866:1878  _msgSender() */\n      tag_259\n        /* \"@openzeppelin/contracts/access/Ownable.sol\":1866:1876  _msgSender */\n      tag_260\n        /* \"@openzeppelin/contracts/access/Ownable.sol\":1866:1878  _msgSender() */\n      jump\t// in\n    tag_259:\n        /* \"@openzeppelin/contracts/access/Ownable.sol\":1855:1878  owner() != _msgSender() */\n      0xffffffffffffffffffffffffffffffffffffffff\n      and\n        /* \"@openzeppelin/contracts/access/Ownable.sol\":1855:1862  owner() */\n      tag_261\n        /* \"@openzeppelin/contracts/access/Ownable.sol\":1855:1860  owner */\n      tag_77\n        /* \"@openzeppelin/contracts/access/Ownable.sol\":1855:1862  owner() */\n      jump\t// in\n    tag_261:\n        /* \"@openzeppelin/contracts/access/Ownable.sol\":1855:1878  owner() != _msgSender() */\n      0xffffffffffffffffffffffffffffffffffffffff\n      and\n      eq\n        /* \"@openzeppelin/contracts/access/Ownable.sol\":1851:1952  if (owner() != _msgSender()) {... */\n      tag_262\n      jumpi\n        /* \"@openzeppelin/contracts/access/Ownable.sol\":1928:1940  _msgSender() */\n      tag_263\n        /* \"@openzeppelin/contracts/access/Ownable.sol\":1928:1938  _msgSender */\n      tag_260\n        /* \"@openzeppelin/contracts/access/Ownable.sol\":1928:1940  _msgSender() */\n      jump\t// in\n    tag_263:\n        /* \"@openzeppelin/contracts/access/Ownable.sol\":1901:1941  OwnableUnauthorizedAccount(_msgSender()) */\n      mload(0x40)\n      0x118cdaa700000000000000000000000000000000000000000000000000000000\n      dup2\n      mstore\n      0x04\n      add\n      tag_264\n      swap2\n      swap1\n      tag_56\n      jump\t// in\n    tag_264:\n      mload(0x40)\n      dup1\n      swap2\n      sub\n      swap1\n      revert\n        /* \"@openzeppelin/contracts/access/Ownable.sol\":1851:1952  if (owner() != _msgSender()) {... */\n    tag_262:\n        /* \"@openzeppelin/contracts/access/Ownable.sol\":1796:1958  function _checkOwner() internal view virtual {... */\n      jump\t// out\n        /* \"@openzeppelin/contracts/access/Ownable.sol\":2912:3099  function _transferOwnership(address newOwner) internal virtual {... */\n    tag_203:\n        /* \"@openzeppelin/contracts/access/Ownable.sol\":2985:3001  address oldOwner */\n      0x00\n        /* \"@openzeppelin/contracts/access/Ownable.sol\":3004:3010  _owner */\n      dup1\n      0x00\n      swap1\n      sload\n      swap1\n      0x0100\n      exp\n      swap1\n      div\n      0xffffffffffffffffffffffffffffffffffffffff\n      and\n        /* \"@openzeppelin/contracts/access/Ownable.sol\":2985:3010  address oldOwner = _owner */\n      swap1\n      pop\n        /* \"@openzeppelin/contracts/access/Ownable.sol\":3029:3037  newOwner */\n      dup2\n        /* \"@openzeppelin/contracts/access/Ownable.sol\":3020:3026  _owner */\n      0x00\n      dup1\n        /* \"@openzeppelin/contracts/access/Ownable.sol\":3020:3037  _owner = newOwner */\n      0x0100\n      exp\n      dup2\n      sload\n      dup2\n      0xffffffffffffffffffffffffffffffffffffffff\n      mul\n      not\n      and\n      swap1\n      dup4\n      0xffffffffffffffffffffffffffffffffffffffff\n      and\n      mul\n      or\n      swap1\n      sstore\n      pop\n        /* \"@openzeppelin/contracts/access/Ownable.sol\":3083:3091  newOwner */\n      dup2\n        /* \"@openzeppelin/contracts/access/Ownable.sol\":3052:3092  OwnershipTransferred(oldOwner, newOwner) */\n      0xffffffffffffffffffffffffffffffffffffffff\n      and\n        /* \"@openzeppelin/contracts/access/Ownable.sol\":3073:3081  oldOwner */\n      dup2\n        /* \"@openzeppelin/contracts/access/Ownable.sol\":3052:3092  OwnershipTransferred(oldOwner, newOwner) */\n      0xffffffffffffffffffffffffffffffffffffffff\n      and\n      0x8be0079c531659141344cd1fd0a4f28419497f9722a3daafe3b4186f6b6457e0\n      mload(0x40)\n      mload(0x40)\n      dup1\n      swap2\n      sub\n      swap1\n      log3\n        /* \"@openzeppelin/contracts/access/Ownable.sol\":2975:3099  {... */\n      pop\n        /* \"@openzeppelin/contracts/access/Ownable.sol\":2912:3099  function _transferOwnership(address newOwner) internal virtual {... */\n      pop\n      jump\t// out\n        /* \"contracts/KipuBankV3.sol\":15312:15445  function _consultFunds() internal view returns (uint256 amount_) {... */\n    tag_212:\n        /* \"contracts/KipuBankV3.sol\":15360:15375  uint256 amount_ */\n      0x00\n        /* \"contracts/KipuBankV3.sol\":15405:15411  i_usdc */\n      immutable(\"0xe0800c6beceec1247d5682d9f388b4169d48b373c18811205d6cd68456d8cf3b\")\n        /* \"contracts/KipuBankV3.sol\":15398:15422  IERC20(i_usdc).balanceOf */\n      0xffffffffffffffffffffffffffffffffffffffff\n      and\n      0x70a08231\n        /* \"contracts/KipuBankV3.sol\":15431:15435  this */\n      address\n        /* \"contracts/KipuBankV3.sol\":15398:15437  IERC20(i_usdc).balanceOf(address(this)) */\n      mload(0x40)\n      dup3\n      0xffffffff\n      and\n      0xe0\n      shl\n      dup2\n      mstore\n      0x04\n      add\n      tag_267\n      swap2\n      swap1\n      tag_56\n      jump\t// in\n    tag_267:\n      0x20\n      mload(0x40)\n      dup1\n      dup4\n      sub\n      dup2\n      dup7\n      gas\n      staticcall\n      iszero\n      dup1\n      iszero\n      tag_269\n      jumpi\n      returndatasize\n      0x00\n      dup1\n      returndatacopy\n      revert(0x00, returndatasize)\n    tag_269:\n      pop\n      pop\n      pop\n      pop\n      mload(0x40)\n      returndatasize\n      not(0x1f)\n      0x1f\n      dup3\n      add\n      and\n      dup3\n      add\n      dup1\n      0x40\n      mstore\n      pop\n      dup2\n      add\n      swap1\n      tag_270\n      swap2\n      swap1\n      tag_127\n      jump\t// in\n    tag_270:\n        /* \"contracts/KipuBankV3.sol\":15388:15437  amount_ = IERC20(i_usdc).balanceOf(address(this)) */\n      swap1\n      pop\n        /* \"contracts/KipuBankV3.sol\":15312:15445  function _consultFunds() internal view returns (uint256 amount_) {... */\n      swap1\n      jump\t// out\n        /* \"contracts/KipuBankV3.sol\":13577:14659  function _depositETH(address _sender, uint256 _amountIn) private _areFundsExceeded(address(0), _amountIn) {... */\n    tag_217:\n        /* \"contracts/KipuBankV3.sol\":13668:13669  0 */\n      0x00\n        /* \"contracts/KipuBankV3.sol\":13672:13681  _amountIn */\n      dup2\n        /* \"contracts/KipuBankV3.sol\":5975:5995  uint256 amountInUSDC */\n      0x00\n        /* \"contracts/KipuBankV3.sol\":5998:6031  _estimateUSDCOut(_token, _amount) */\n      tag_272\n        /* \"contracts/KipuBankV3.sol\":6015:6021  _token */\n      dup4\n        /* \"contracts/KipuBankV3.sol\":6023:6030  _amount */\n      dup4\n        /* \"contracts/KipuBankV3.sol\":5998:6014  _estimateUSDCOut */\n      tag_133\n        /* \"contracts/KipuBankV3.sol\":5998:6031  _estimateUSDCOut(_token, _amount) */\n      jump\t// in\n    tag_272:\n        /* \"contracts/KipuBankV3.sol\":5975:6031  uint256 amountInUSDC = _estimateUSDCOut(_token, _amount) */\n      swap1\n      pop\n        /* \"contracts/KipuBankV3.sol\":6104:6113  i_bankCap */\n      immutable(\"0xad55db84fbe3147935ae260b6daeae918a666c79e031e119ec3348828c3cd0fb\")\n        /* \"contracts/KipuBankV3.sol\":6089:6101  amountInUSDC */\n      dup2\n        /* \"contracts/KipuBankV3.sol\":6054:6060  i_usdc */\n      immutable(\"0xe0800c6beceec1247d5682d9f388b4169d48b373c18811205d6cd68456d8cf3b\")\n        /* \"contracts/KipuBankV3.sol\":6047:6071  IERC20(i_usdc).balanceOf */\n      0xffffffffffffffffffffffffffffffffffffffff\n      and\n      0x70a08231\n        /* \"contracts/KipuBankV3.sol\":6080:6084  this */\n      address\n        /* \"contracts/KipuBankV3.sol\":6047:6086  IERC20(i_usdc).balanceOf(address(this)) */\n      mload(0x40)\n      dup3\n      0xffffffff\n      and\n      0xe0\n      shl\n      dup2\n      mstore\n      0x04\n      add\n      tag_273\n      swap2\n      swap1\n      tag_56\n      jump\t// in\n    tag_273:\n      0x20\n      mload(0x40)\n      dup1\n      dup4\n      sub\n      dup2\n      dup7\n      gas\n      staticcall\n      iszero\n      dup1\n      iszero\n      tag_275\n      jumpi\n      returndatasize\n      0x00\n      dup1\n      returndatacopy\n      revert(0x00, returndatasize)\n    tag_275:\n      pop\n      pop\n      pop\n      pop\n      mload(0x40)\n      returndatasize\n      not(0x1f)\n      0x1f\n      dup3\n      add\n      and\n      dup3\n      add\n      dup1\n      0x40\n      mstore\n      pop\n      dup2\n      add\n      swap1\n      tag_276\n      swap2\n      swap1\n      tag_127\n      jump\t// in\n    tag_276:\n        /* \"contracts/KipuBankV3.sol\":6047:6101  IERC20(i_usdc).balanceOf(address(this)) + amountInUSDC */\n      tag_277\n      swap2\n      swap1\n      tag_139\n      jump\t// in\n    tag_277:\n        /* \"contracts/KipuBankV3.sol\":6047:6113  IERC20(i_usdc).balanceOf(address(this)) + amountInUSDC > i_bankCap */\n      gt\n        /* \"contracts/KipuBankV3.sol\":6043:6206  if (IERC20(i_usdc).balanceOf(address(this)) + amountInUSDC > i_bankCap) {... */\n      iszero\n      tag_278\n      jumpi\n        /* \"contracts/KipuBankV3.sol\":6137:6194  KipuBank_FailedDeposit(\"Total KipuBank's Funds exceeded\") */\n      mload(0x40)\n      0xa2d2e1b200000000000000000000000000000000000000000000000000000000\n      dup2\n      mstore\n      0x04\n      add\n      tag_279\n      swap1\n      tag_142\n      jump\t// in\n    tag_279:\n      mload(0x40)\n      dup1\n      swap2\n      sub\n      swap1\n      revert\n        /* \"contracts/KipuBankV3.sol\":6043:6206  if (IERC20(i_usdc).balanceOf(address(this)) + amountInUSDC > i_bankCap) {... */\n    tag_278:\n        /* \"contracts/KipuBankV3.sol\":13694:13715  uint256 beforeBalance */\n      0x00\n        /* \"contracts/KipuBankV3.sol\":13725:13731  i_usdc */\n      immutable(\"0xe0800c6beceec1247d5682d9f388b4169d48b373c18811205d6cd68456d8cf3b\")\n        /* \"contracts/KipuBankV3.sol\":13718:13742  IERC20(i_usdc).balanceOf */\n      0xffffffffffffffffffffffffffffffffffffffff\n      and\n      0x70a08231\n        /* \"contracts/KipuBankV3.sol\":13751:13755  this */\n      address\n        /* \"contracts/KipuBankV3.sol\":13718:13757  IERC20(i_usdc).balanceOf(address(this)) */\n      mload(0x40)\n      dup3\n      0xffffffff\n      and\n      0xe0\n      shl\n      dup2\n      mstore\n      0x04\n      add\n      tag_281\n      swap2\n      swap1\n      tag_56\n      jump\t// in\n    tag_281:\n      0x20\n      mload(0x40)\n      dup1\n      dup4\n      sub\n      dup2\n      dup7\n      gas\n      staticcall\n      iszero\n      dup1\n      iszero\n      tag_283\n      jumpi\n      returndatasize\n      0x00\n      dup1\n      returndatacopy\n      revert(0x00, returndatasize)\n    tag_283:\n      pop\n      pop\n      pop\n      pop\n      mload(0x40)\n      returndatasize\n      not(0x1f)\n      0x1f\n      dup3\n      add\n      and\n      dup3\n      add\n      dup1\n      0x40\n      mstore\n      pop\n      dup2\n      add\n      swap1\n      tag_284\n      swap2\n      swap1\n      tag_127\n      jump\t// in\n    tag_284:\n        /* \"contracts/KipuBankV3.sol\":13694:13757  uint256 beforeBalance = IERC20(i_usdc).balanceOf(address(this)) */\n      swap1\n      pop\n        /* \"contracts/KipuBankV3.sol\":13778:13799  uint256 _amountMinOut */\n      0x00\n        /* \"contracts/KipuBankV3.sol\":13802:13837  _estimateUSDCOut(i_weth, _amountIn) */\n      tag_285\n        /* \"contracts/KipuBankV3.sol\":13819:13825  i_weth */\n      immutable(\"0x5f346b15a47626ee96fd810f3d262348170ef701ecee2cccf0c2510256671eaa\")\n        /* \"contracts/KipuBankV3.sol\":13827:13836  _amountIn */\n      dup8\n        /* \"contracts/KipuBankV3.sol\":13802:13818  _estimateUSDCOut */\n      tag_133\n        /* \"contracts/KipuBankV3.sol\":13802:13837  _estimateUSDCOut(i_weth, _amountIn) */\n      jump\t// in\n    tag_285:\n        /* \"contracts/KipuBankV3.sol\":13778:13837  uint256 _amountMinOut = _estimateUSDCOut(i_weth, _amountIn) */\n      swap1\n      pop\n        /* \"contracts/KipuBankV3.sol\":13887:13890  100 */\n      0x64\n        /* \"contracts/KipuBankV3.sol\":13881:13883  99 */\n      0x63\n        /* \"contracts/KipuBankV3.sol\":13865:13878  _amountMinOut */\n      dup3\n        /* \"contracts/KipuBankV3.sol\":13865:13883  _amountMinOut * 99 */\n      tag_286\n      swap2\n      swap1\n      tag_238\n      jump\t// in\n    tag_286:\n        /* \"contracts/KipuBankV3.sol\":13864:13890  (_amountMinOut * 99) / 100 */\n      tag_287\n      swap2\n      swap1\n      tag_244\n      jump\t// in\n    tag_287:\n        /* \"contracts/KipuBankV3.sol\":13848:13890  _amountMinOut = (_amountMinOut * 99) / 100 */\n      swap1\n      pop\n        /* \"contracts/KipuBankV3.sol\":13903:13924  address[] memory path */\n      0x00\n        /* \"contracts/KipuBankV3.sol\":13941:13942  2 */\n      0x02\n        /* \"contracts/KipuBankV3.sol\":13927:13943  new address[](2) */\n      0xffffffffffffffff\n      dup2\n      gt\n      iszero\n      tag_288\n      jumpi\n      tag_289\n      tag_153\n      jump\t// in\n    tag_289:\n    tag_288:\n      mload(0x40)\n      swap1\n      dup1\n      dup3\n      mstore\n      dup1\n      0x20\n      mul\n      0x20\n      add\n      dup3\n      add\n      0x40\n      mstore\n      dup1\n      iszero\n      tag_290\n      jumpi\n      dup2\n      0x20\n      add\n      0x20\n      dup3\n      mul\n      dup1\n      calldatasize\n      dup4\n      calldatacopy\n      dup1\n      dup3\n      add\n      swap2\n      pop\n      pop\n      swap1\n      pop\n    tag_290:\n      pop\n        /* \"contracts/KipuBankV3.sol\":13903:13943  address[] memory path = new address[](2) */\n      swap1\n      pop\n        /* \"contracts/KipuBankV3.sol\":13964:13970  i_weth */\n      immutable(\"0x5f346b15a47626ee96fd810f3d262348170ef701ecee2cccf0c2510256671eaa\")\n        /* \"contracts/KipuBankV3.sol\":13954:13958  path */\n      dup2\n        /* \"contracts/KipuBankV3.sol\":13959:13960  0 */\n      0x00\n        /* \"contracts/KipuBankV3.sol\":13954:13961  path[0] */\n      dup2\n      mload\n      dup2\n      lt\n      tag_291\n      jumpi\n      tag_292\n      tag_157\n      jump\t// in\n    tag_292:\n    tag_291:\n      0x20\n      mul\n      0x20\n      add\n      add\n        /* \"contracts/KipuBankV3.sol\":13954:13970  path[0] = i_weth */\n      swap1\n      0xffffffffffffffffffffffffffffffffffffffff\n      and\n      swap1\n      dup2\n      0xffffffffffffffffffffffffffffffffffffffff\n      and\n      dup2\n      mstore\n      pop\n      pop\n        /* \"contracts/KipuBankV3.sol\":13999:14005  i_usdc */\n      immutable(\"0xe0800c6beceec1247d5682d9f388b4169d48b373c18811205d6cd68456d8cf3b\")\n        /* \"contracts/KipuBankV3.sol\":13981:13985  path */\n      dup2\n        /* \"contracts/KipuBankV3.sol\":13986:13987  1 */\n      0x01\n        /* \"contracts/KipuBankV3.sol\":13981:13988  path[1] */\n      dup2\n      mload\n      dup2\n      lt\n      tag_293\n      jumpi\n      tag_294\n      tag_157\n      jump\t// in\n    tag_294:\n    tag_293:\n      0x20\n      mul\n      0x20\n      add\n      add\n        /* \"contracts/KipuBankV3.sol\":13981:14006  path[1] = address(i_usdc) */\n      swap1\n      0xffffffffffffffffffffffffffffffffffffffff\n      and\n      swap1\n      dup2\n      0xffffffffffffffffffffffffffffffffffffffff\n      and\n      dup2\n      mstore\n      pop\n      pop\n        /* \"contracts/KipuBankV3.sol\":14019:14032  uniswapRouter */\n      immutable(\"0xe7c9d2642b7ef3f0e3fb3aae7fff3104a3ecb5cdc09d85f65b66c9838c84cd52\")\n        /* \"contracts/KipuBankV3.sol\":14019:14083  uniswapRouter.swapExactETHForTokensSupportingFeeOnTransferTokens */\n      0xffffffffffffffffffffffffffffffffffffffff\n      and\n      0xb6f9de95\n        /* \"contracts/KipuBankV3.sol\":14092:14101  _amountIn */\n      dup9\n        /* \"contracts/KipuBankV3.sol\":14118:14131  _amountMinOut */\n      dup5\n        /* \"contracts/KipuBankV3.sol\":14146:14150  path */\n      dup5\n        /* \"contracts/KipuBankV3.sol\":14173:14177  this */\n      address\n        /* \"contracts/KipuBankV3.sol\":14211:14214  300 */\n      0x012c\n        /* \"contracts/KipuBankV3.sol\":14193:14208  block.timestamp */\n      timestamp\n        /* \"contracts/KipuBankV3.sol\":14193:14214  block.timestamp + 300 */\n      tag_295\n      swap2\n      swap1\n      tag_139\n      jump\t// in\n    tag_295:\n        /* \"contracts/KipuBankV3.sol\":14019:14225  uniswapRouter.swapExactETHForTokensSupportingFeeOnTransferTokens{ value: _amountIn }(... */\n      mload(0x40)\n      dup7\n      0xffffffff\n      and\n      0xe0\n      shl\n      dup2\n      mstore\n      0x04\n      add\n      tag_296\n      swap5\n      swap4\n      swap3\n      swap2\n      swap1\n      tag_297\n      jump\t// in\n    tag_296:\n      0x00\n      mload(0x40)\n      dup1\n      dup4\n      sub\n      dup2\n      dup6\n      dup9\n      dup1\n      extcodesize\n      iszero\n      dup1\n      iszero\n      tag_298\n      jumpi\n      0x00\n      dup1\n      revert\n    tag_298:\n      pop\n      gas\n      call\n      iszero\n      dup1\n      iszero\n      tag_300\n      jumpi\n      returndatasize\n      0x00\n      dup1\n      returndatacopy\n      revert(0x00, returndatasize)\n    tag_300:\n      pop\n      pop\n      pop\n      pop\n      pop\n        /* \"contracts/KipuBankV3.sol\":14238:14258  uint256 afterBalance */\n      0x00\n        /* \"contracts/KipuBankV3.sol\":14268:14274  i_usdc */\n      immutable(\"0xe0800c6beceec1247d5682d9f388b4169d48b373c18811205d6cd68456d8cf3b\")\n        /* \"contracts/KipuBankV3.sol\":14261:14285  IERC20(i_usdc).balanceOf */\n      0xffffffffffffffffffffffffffffffffffffffff\n      and\n      0x70a08231\n        /* \"contracts/KipuBankV3.sol\":14294:14298  this */\n      address\n        /* \"contracts/KipuBankV3.sol\":14261:14300  IERC20(i_usdc).balanceOf(address(this)) */\n      mload(0x40)\n      dup3\n      0xffffffff\n      and\n      0xe0\n      shl\n      dup2\n      mstore\n      0x04\n      add\n      tag_301\n      swap2\n      swap1\n      tag_56\n      jump\t// in\n    tag_301:\n      0x20\n      mload(0x40)\n      dup1\n      dup4\n      sub\n      dup2\n      dup7\n      gas\n      staticcall\n      iszero\n      dup1\n      iszero\n      tag_303\n      jumpi\n      returndatasize\n      0x00\n      dup1\n      returndatacopy\n      revert(0x00, returndatasize)\n    tag_303:\n      pop\n      pop\n      pop\n      pop\n      mload(0x40)\n      returndatasize\n      not(0x1f)\n      0x1f\n      dup3\n      add\n      and\n      dup3\n      add\n      dup1\n      0x40\n      mstore\n      pop\n      dup2\n      add\n      swap1\n      tag_304\n      swap2\n      swap1\n      tag_127\n      jump\t// in\n    tag_304:\n        /* \"contracts/KipuBankV3.sol\":14238:14300  uint256 afterBalance = IERC20(i_usdc).balanceOf(address(this)) */\n      swap1\n      pop\n        /* \"contracts/KipuBankV3.sol\":14311:14331  uint256 usdcReceived */\n      0x00\n        /* \"contracts/KipuBankV3.sol\":14349:14362  beforeBalance */\n      dup5\n        /* \"contracts/KipuBankV3.sol\":14334:14346  afterBalance */\n      dup3\n        /* \"contracts/KipuBankV3.sol\":14334:14362  afterBalance - beforeBalance */\n      tag_305\n      swap2\n      swap1\n      tag_171\n      jump\t// in\n    tag_305:\n        /* \"contracts/KipuBankV3.sol\":14311:14362  uint256 usdcReceived = afterBalance - beforeBalance */\n      swap1\n      pop\n        /* \"contracts/KipuBankV3.sol\":14417:14426  i_bankCap */\n      immutable(\"0xad55db84fbe3147935ae260b6daeae918a666c79e031e119ec3348828c3cd0fb\")\n        /* \"contracts/KipuBankV3.sol\":14402:14414  usdcReceived */\n      dup2\n        /* \"contracts/KipuBankV3.sol\":14386:14399  beforeBalance */\n      dup7\n        /* \"contracts/KipuBankV3.sol\":14386:14414  beforeBalance + usdcReceived */\n      tag_306\n      swap2\n      swap1\n      tag_139\n      jump\t// in\n    tag_306:\n        /* \"contracts/KipuBankV3.sol\":14386:14426  beforeBalance + usdcReceived > i_bankCap */\n      gt\n        /* \"contracts/KipuBankV3.sol\":14383:14492  if(beforeBalance + usdcReceived > i_bankCap) revert KipuBank_FailedDeposit(\"Total KipuBank's Funds exceeded\") */\n      iszero\n      tag_307\n      jumpi\n        /* \"contracts/KipuBankV3.sol\":14435:14492  KipuBank_FailedDeposit(\"Total KipuBank's Funds exceeded\") */\n      mload(0x40)\n      0xa2d2e1b200000000000000000000000000000000000000000000000000000000\n      dup2\n      mstore\n      0x04\n      add\n      tag_308\n      swap1\n      tag_142\n      jump\t// in\n    tag_308:\n      mload(0x40)\n      dup1\n      swap2\n      sub\n      swap1\n      revert\n        /* \"contracts/KipuBankV3.sol\":14383:14492  if(beforeBalance + usdcReceived > i_bankCap) revert KipuBank_FailedDeposit(\"Total KipuBank's Funds exceeded\") */\n    tag_307:\n        /* \"contracts/KipuBankV3.sol\":14529:14541  usdcReceived */\n      dup1\n        /* \"contracts/KipuBankV3.sol\":14506:14516  s_balances */\n      0x02\n        /* \"contracts/KipuBankV3.sol\":14506:14525  s_balances[_sender] */\n      0x00\n        /* \"contracts/KipuBankV3.sol\":14517:14524  _sender */\n      dup13\n        /* \"contracts/KipuBankV3.sol\":14506:14525  s_balances[_sender] */\n      0xffffffffffffffffffffffffffffffffffffffff\n      and\n      0xffffffffffffffffffffffffffffffffffffffff\n      and\n      dup2\n      mstore\n      0x20\n      add\n      swap1\n      dup2\n      mstore\n      0x20\n      add\n      0x00\n      keccak256\n      0x00\n        /* \"contracts/KipuBankV3.sol\":14506:14541  s_balances[_sender] += usdcReceived */\n      dup3\n      dup3\n      sload\n      tag_309\n      swap2\n      swap1\n      tag_139\n      jump\t// in\n    tag_309:\n      swap3\n      pop\n      pop\n      dup2\n      swap1\n      sstore\n      pop\n        /* \"contracts/KipuBankV3.sol\":14552:14586  _actualizeOperations(true, i_weth) */\n      tag_310\n        /* \"contracts/KipuBankV3.sol\":14573:14577  true */\n      0x01\n        /* \"contracts/KipuBankV3.sol\":14579:14585  i_weth */\n      immutable(\"0x5f346b15a47626ee96fd810f3d262348170ef701ecee2cccf0c2510256671eaa\")\n        /* \"contracts/KipuBankV3.sol\":14552:14572  _actualizeOperations */\n      tag_178\n        /* \"contracts/KipuBankV3.sol\":14552:14586  _actualizeOperations(true, i_weth) */\n      jump\t// in\n    tag_310:\n        /* \"contracts/KipuBankV3.sol\":14602:14651  KipuBank_SuccessfulDeposit(_sender, usdcReceived) */\n      0x7b7cd0ddbbea241880e825e1eb51c30752cb96dd7efeb4be691ec55dfa4d8963\n        /* \"contracts/KipuBankV3.sol\":14629:14636  _sender */\n      dup11\n        /* \"contracts/KipuBankV3.sol\":14638:14650  usdcReceived */\n      dup3\n        /* \"contracts/KipuBankV3.sol\":14602:14651  KipuBank_SuccessfulDeposit(_sender, usdcReceived) */\n      mload(0x40)\n      tag_311\n      swap3\n      swap2\n      swap1\n      tag_180\n      jump\t// in\n    tag_311:\n      mload(0x40)\n      dup1\n      swap2\n      sub\n      swap1\n      log1\n        /* \"contracts/KipuBankV3.sol\":13683:14659  {... */\n      pop\n      pop\n      pop\n      pop\n      pop\n        /* \"contracts/KipuBankV3.sol\":5964:6225  {... */\n      pop\n        /* \"contracts/KipuBankV3.sol\":13577:14659  function _depositETH(address _sender, uint256 _amountIn) private _areFundsExceeded(address(0), _amountIn) {... */\n      pop\n      pop\n      pop\n      pop\n      jump\t// out\n        /* \"@openzeppelin/contracts/token/ERC20/utils/SafeERC20.sol\":8370:9090  function _callOptionalReturn(IERC20 token, bytes memory data) private {... */\n    tag_249:\n        /* \"@openzeppelin/contracts/token/ERC20/utils/SafeERC20.sol\":8450:8468  uint256 returnSize */\n      0x00\n        /* \"@openzeppelin/contracts/token/ERC20/utils/SafeERC20.sol\":8478:8497  uint256 returnValue */\n      dup1\n        /* \"@openzeppelin/contracts/token/ERC20/utils/SafeERC20.sol\":8616:8620  0x20 */\n      0x20\n        /* \"@openzeppelin/contracts/token/ERC20/utils/SafeERC20.sol\":8613:8614  0 */\n      0x00\n        /* \"@openzeppelin/contracts/token/ERC20/utils/SafeERC20.sol\":8606:8610  data */\n      dup5\n        /* \"@openzeppelin/contracts/token/ERC20/utils/SafeERC20.sol\":8600:8611  mload(data) */\n      mload\n        /* \"@openzeppelin/contracts/token/ERC20/utils/SafeERC20.sol\":8593:8597  0x20 */\n      0x20\n        /* \"@openzeppelin/contracts/token/ERC20/utils/SafeERC20.sol\":8587:8591  data */\n      dup7\n        /* \"@openzeppelin/contracts/token/ERC20/utils/SafeERC20.sol\":8583:8598  add(data, 0x20) */\n      add\n        /* \"@openzeppelin/contracts/token/ERC20/utils/SafeERC20.sol\":8580:8581  0 */\n      0x00\n        /* \"@openzeppelin/contracts/token/ERC20/utils/SafeERC20.sol\":8573:8578  token */\n      dup9\n        /* \"@openzeppelin/contracts/token/ERC20/utils/SafeERC20.sol\":8566:8571  gas() */\n      gas\n        /* \"@openzeppelin/contracts/token/ERC20/utils/SafeERC20.sol\":8561:8621  call(gas(), token, 0, add(data, 0x20), mload(data), 0, 0x20) */\n      call\n        /* \"@openzeppelin/contracts/token/ERC20/utils/SafeERC20.sol\":8673:8680  success */\n      dup1\n        /* \"@openzeppelin/contracts/token/ERC20/utils/SafeERC20.sol\":8663:8839  if iszero(success) {... */\n      tag_313\n      jumpi\n        /* \"@openzeppelin/contracts/token/ERC20/utils/SafeERC20.sol\":8717:8721  0x40 */\n      0x40\n        /* \"@openzeppelin/contracts/token/ERC20/utils/SafeERC20.sol\":8711:8722  mload(0x40) */\n      mload\n        /* \"@openzeppelin/contracts/token/ERC20/utils/SafeERC20.sol\":8762:8778  returndatasize() */\n      returndatasize\n        /* \"@openzeppelin/contracts/token/ERC20/utils/SafeERC20.sol\":8759:8760  0 */\n      0x00\n        /* \"@openzeppelin/contracts/token/ERC20/utils/SafeERC20.sol\":8754:8757  ptr */\n      dup3\n        /* \"@openzeppelin/contracts/token/ERC20/utils/SafeERC20.sol\":8739:8779  returndatacopy(ptr, 0, returndatasize()) */\n      returndatacopy\n        /* \"@openzeppelin/contracts/token/ERC20/utils/SafeERC20.sol\":8808:8824  returndatasize() */\n      returndatasize\n        /* \"@openzeppelin/contracts/token/ERC20/utils/SafeERC20.sol\":8803:8806  ptr */\n      dup2\n        /* \"@openzeppelin/contracts/token/ERC20/utils/SafeERC20.sol\":8796:8825  revert(ptr, returndatasize()) */\n      revert\n        /* \"@openzeppelin/contracts/token/ERC20/utils/SafeERC20.sol\":8663:8839  if iszero(success) {... */\n    tag_313:\n        /* \"@openzeppelin/contracts/token/ERC20/utils/SafeERC20.sol\":8866:8882  returndatasize() */\n      returndatasize\n        /* \"@openzeppelin/contracts/token/ERC20/utils/SafeERC20.sol\":8852:8882  returnSize := returndatasize() */\n      swap3\n      pop\n        /* \"@openzeppelin/contracts/token/ERC20/utils/SafeERC20.sol\":8916:8917  0 */\n      0x00\n        /* \"@openzeppelin/contracts/token/ERC20/utils/SafeERC20.sol\":8910:8918  mload(0) */\n      mload\n        /* \"@openzeppelin/contracts/token/ERC20/utils/SafeERC20.sol\":8895:8918  returnValue := mload(0) */\n      swap2\n      pop\n        /* \"@openzeppelin/contracts/token/ERC20/utils/SafeERC20.sol\":8532:8928  {... */\n      pop\n        /* \"@openzeppelin/contracts/token/ERC20/utils/SafeERC20.sol\":8956:8957  0 */\n      0x00\n        /* \"@openzeppelin/contracts/token/ERC20/utils/SafeERC20.sol\":8942:8952  returnSize */\n      dup3\n        /* \"@openzeppelin/contracts/token/ERC20/utils/SafeERC20.sol\":8942:8957  returnSize == 0 */\n      eq\n        /* \"@openzeppelin/contracts/token/ERC20/utils/SafeERC20.sol\":8942:9010  returnSize == 0 ? address(token).code.length == 0 : returnValue != 1 */\n      tag_314\n      jumpi\n        /* \"@openzeppelin/contracts/token/ERC20/utils/SafeERC20.sol\":9009:9010  1 */\n      0x01\n        /* \"@openzeppelin/contracts/token/ERC20/utils/SafeERC20.sol\":8994:9005  returnValue */\n      dup2\n        /* \"@openzeppelin/contracts/token/ERC20/utils/SafeERC20.sol\":8994:9010  returnValue != 1 */\n      eq\n      iszero\n        /* \"@openzeppelin/contracts/token/ERC20/utils/SafeERC20.sol\":8942:9010  returnSize == 0 ? address(token).code.length == 0 : returnValue != 1 */\n      jump(tag_315)\n    tag_314:\n        /* \"@openzeppelin/contracts/token/ERC20/utils/SafeERC20.sol\":8990:8991  0 */\n      0x00\n        /* \"@openzeppelin/contracts/token/ERC20/utils/SafeERC20.sol\":8968:8973  token */\n      dup5\n        /* \"@openzeppelin/contracts/token/ERC20/utils/SafeERC20.sol\":8960:8986  address(token).code.length */\n      0xffffffffffffffffffffffffffffffffffffffff\n      and\n      extcodesize\n        /* \"@openzeppelin/contracts/token/ERC20/utils/SafeERC20.sol\":8960:8991  address(token).code.length == 0 */\n      eq\n        /* \"@openzeppelin/contracts/token/ERC20/utils/SafeERC20.sol\":8942:9010  returnSize == 0 ? address(token).code.length == 0 : returnValue != 1 */\n    tag_315:\n        /* \"@openzeppelin/contracts/token/ERC20/utils/SafeERC20.sol\":8938:9084  if (returnSize == 0 ? address(token).code.length == 0 : returnValue != 1) {... */\n      iszero\n      tag_316\n      jumpi\n        /* \"@openzeppelin/contracts/token/ERC20/utils/SafeERC20.sol\":9066:9071  token */\n      dup4\n        /* \"@openzeppelin/contracts/token/ERC20/utils/SafeERC20.sol\":9033:9073  SafeERC20FailedOperation(address(token)) */\n      mload(0x40)\n      0x5274afe700000000000000000000000000000000000000000000000000000000\n      dup2\n      mstore\n      0x04\n      add\n      tag_317\n      swap2\n      swap1\n      tag_56\n      jump\t// in\n    tag_317:\n      mload(0x40)\n      dup1\n      swap2\n      sub\n      swap1\n      revert\n        /* \"@openzeppelin/contracts/token/ERC20/utils/SafeERC20.sol\":8938:9084  if (returnSize == 0 ? address(token).code.length == 0 : returnValue != 1) {... */\n    tag_316:\n        /* \"@openzeppelin/contracts/token/ERC20/utils/SafeERC20.sol\":8440:9090  {... */\n      pop\n      pop\n        /* \"@openzeppelin/contracts/token/ERC20/utils/SafeERC20.sol\":8370:9090  function _callOptionalReturn(IERC20 token, bytes memory data) private {... */\n      pop\n      pop\n      jump\t// out\n        /* \"@openzeppelin/contracts/utils/Context.sol\":656:752  function _msgSender() internal view virtual returns (address) {... */\n    tag_260:\n        /* \"@openzeppelin/contracts/utils/Context.sol\":709:716  address */\n      0x00\n        /* \"@openzeppelin/contracts/utils/Context.sol\":735:745  msg.sender */\n      caller\n        /* \"@openzeppelin/contracts/utils/Context.sol\":728:745  return msg.sender */\n      swap1\n      pop\n        /* \"@openzeppelin/contracts/utils/Context.sol\":656:752  function _msgSender() internal view virtual returns (address) {... */\n      swap1\n      jump\t// out\n        /* \"#utility.yul\":7:175   */\n    tag_319:\n        /* \"#utility.yul\":90:101   */\n      0x00\n        /* \"#utility.yul\":124:130   */\n      dup3\n        /* \"#utility.yul\":119:122   */\n      dup3\n        /* \"#utility.yul\":112:131   */\n      mstore\n        /* \"#utility.yul\":164:168   */\n      0x20\n        /* \"#utility.yul\":159:162   */\n      dup3\n        /* \"#utility.yul\":155:169   */\n      add\n        /* \"#utility.yul\":140:169   */\n      swap1\n      pop\n        /* \"#utility.yul\":7:175   */\n      swap3\n      swap2\n      pop\n      pop\n      jump\t// out\n        /* \"#utility.yul\":181:358   */\n    tag_320:\n        /* \"#utility.yul\":321:350   */\n      0x557365206465706f73697420666f7220455448206465706f7369740000000000\n        /* \"#utility.yul\":317:318   */\n      0x00\n        /* \"#utility.yul\":309:315   */\n      dup3\n        /* \"#utility.yul\":305:319   */\n      add\n        /* \"#utility.yul\":298:351   */\n      mstore\n        /* \"#utility.yul\":181:358   */\n      pop\n      jump\t// out\n        /* \"#utility.yul\":364:728   */\n    tag_321:\n        /* \"#utility.yul\":505:508   */\n      0x00\n        /* \"#utility.yul\":526:592   */\n      tag_374\n        /* \"#utility.yul\":589:591   */\n      0x1b\n        /* \"#utility.yul\":584:587   */\n      dup4\n        /* \"#utility.yul\":526:592   */\n      tag_319\n      jump\t// in\n    tag_374:\n        /* \"#utility.yul\":519:592   */\n      swap2\n      pop\n        /* \"#utility.yul\":601:694   */\n      tag_375\n        /* \"#utility.yul\":690:693   */\n      dup3\n        /* \"#utility.yul\":601:694   */\n      tag_320\n      jump\t// in\n    tag_375:\n        /* \"#utility.yul\":719:721   */\n      0x20\n        /* \"#utility.yul\":714:717   */\n      dup3\n        /* \"#utility.yul\":710:722   */\n      add\n        /* \"#utility.yul\":703:722   */\n      swap1\n      pop\n        /* \"#utility.yul\":364:728   */\n      swap2\n      swap1\n      pop\n      jump\t// out\n        /* \"#utility.yul\":734:1151   */\n    tag_28:\n        /* \"#utility.yul\":899:903   */\n      0x00\n        /* \"#utility.yul\":937:939   */\n      0x20\n        /* \"#utility.yul\":926:935   */\n      dup3\n        /* \"#utility.yul\":922:940   */\n      add\n        /* \"#utility.yul\":914:940   */\n      swap1\n      pop\n        /* \"#utility.yul\":986:995   */\n      dup2\n        /* \"#utility.yul\":980:984   */\n      dup2\n        /* \"#utility.yul\":976:996   */\n      sub\n        /* \"#utility.yul\":972:973   */\n      0x00\n        /* \"#utility.yul\":961:970   */\n      dup4\n        /* \"#utility.yul\":957:974   */\n      add\n        /* \"#utility.yul\":950:997   */\n      mstore\n        /* \"#utility.yul\":1014:1144   */\n      tag_377\n        /* \"#utility.yul\":1139:1143   */\n      dup2\n        /* \"#utility.yul\":1014:1144   */\n      tag_321\n      jump\t// in\n    tag_377:\n        /* \"#utility.yul\":1006:1144   */\n      swap1\n      pop\n        /* \"#utility.yul\":734:1151   */\n      swap2\n      swap1\n      pop\n      jump\t// out\n        /* \"#utility.yul\":1157:1391   */\n    tag_322:\n        /* \"#utility.yul\":1297:1331   */\n      0x4f7065726174696f6e20646f6573206e6f7420657869737473206f7220646174\n        /* \"#utility.yul\":1293:1294   */\n      0x00\n        /* \"#utility.yul\":1285:1291   */\n      dup3\n        /* \"#utility.yul\":1281:1295   */\n      add\n        /* \"#utility.yul\":1274:1332   */\n      mstore\n        /* \"#utility.yul\":1366:1383   */\n      0x612077617320696e636f72726563740000000000000000000000000000000000\n        /* \"#utility.yul\":1361:1363   */\n      0x20\n        /* \"#utility.yul\":1353:1359   */\n      dup3\n        /* \"#utility.yul\":1349:1364   */\n      add\n        /* \"#utility.yul\":1342:1384   */\n      mstore\n        /* \"#utility.yul\":1157:1391   */\n      pop\n      jump\t// out\n        /* \"#utility.yul\":1397:1761   */\n    tag_323:\n        /* \"#utility.yul\":1538:1541   */\n      0x00\n        /* \"#utility.yul\":1559:1625   */\n      tag_380\n        /* \"#utility.yul\":1622:1624   */\n      0x2f\n        /* \"#utility.yul\":1617:1620   */\n      dup4\n        /* \"#utility.yul\":1559:1625   */\n      tag_319\n      jump\t// in\n    tag_380:\n        /* \"#utility.yul\":1552:1625   */\n      swap2\n      pop\n        /* \"#utility.yul\":1634:1727   */\n      tag_381\n        /* \"#utility.yul\":1723:1726   */\n      dup3\n        /* \"#utility.yul\":1634:1727   */\n      tag_322\n      jump\t// in\n    tag_381:\n        /* \"#utility.yul\":1752:1754   */\n      0x40\n        /* \"#utility.yul\":1747:1750   */\n      dup3\n        /* \"#utility.yul\":1743:1755   */\n      add\n        /* \"#utility.yul\":1736:1755   */\n      swap1\n      pop\n        /* \"#utility.yul\":1397:1761   */\n      swap2\n      swap1\n      pop\n      jump\t// out\n        /* \"#utility.yul\":1767:2184   */\n    tag_35:\n        /* \"#utility.yul\":1932:1936   */\n      0x00\n        /* \"#utility.yul\":1970:1972   */\n      0x20\n        /* \"#utility.yul\":1959:1968   */\n      dup3\n        /* \"#utility.yul\":1955:1973   */\n      add\n        /* \"#utility.yul\":1947:1973   */\n      swap1\n      pop\n        /* \"#utility.yul\":2019:2028   */\n      dup2\n        /* \"#utility.yul\":2013:2017   */\n      dup2\n        /* \"#utility.yul\":2009:2029   */\n      sub\n        /* \"#utility.yul\":2005:2006   */\n      0x00\n        /* \"#utility.yul\":1994:2003   */\n      dup4\n        /* \"#utility.yul\":1990:2007   */\n      add\n        /* \"#utility.yul\":1983:2030   */\n      mstore\n        /* \"#utility.yul\":2047:2177   */\n      tag_383\n        /* \"#utility.yul\":2172:2176   */\n      dup2\n        /* \"#utility.yul\":2047:2177   */\n      tag_323\n      jump\t// in\n    tag_383:\n        /* \"#utility.yul\":2039:2177   */\n      swap1\n      pop\n        /* \"#utility.yul\":1767:2184   */\n      swap2\n      swap1\n      pop\n      jump\t// out\n        /* \"#utility.yul\":2190:2267   */\n    tag_324:\n        /* \"#utility.yul\":2227:2234   */\n      0x00\n        /* \"#utility.yul\":2256:2261   */\n      dup2\n        /* \"#utility.yul\":2245:2261   */\n      swap1\n      pop\n        /* \"#utility.yul\":2190:2267   */\n      swap2\n      swap1\n      pop\n      jump\t// out\n        /* \"#utility.yul\":2273:2391   */\n    tag_325:\n        /* \"#utility.yul\":2360:2384   */\n      tag_386\n        /* \"#utility.yul\":2378:2383   */\n      dup2\n        /* \"#utility.yul\":2360:2384   */\n      tag_324\n      jump\t// in\n    tag_386:\n        /* \"#utility.yul\":2355:2358   */\n      dup3\n        /* \"#utility.yul\":2348:2385   */\n      mstore\n        /* \"#utility.yul\":2273:2391   */\n      pop\n      pop\n      jump\t// out\n        /* \"#utility.yul\":2397:2619   */\n    tag_40:\n        /* \"#utility.yul\":2490:2494   */\n      0x00\n        /* \"#utility.yul\":2528:2530   */\n      0x20\n        /* \"#utility.yul\":2517:2526   */\n      dup3\n        /* \"#utility.yul\":2513:2531   */\n      add\n        /* \"#utility.yul\":2505:2531   */\n      swap1\n      pop\n        /* \"#utility.yul\":2541:2612   */\n      tag_388\n        /* \"#utility.yul\":2609:2610   */\n      0x00\n        /* \"#utility.yul\":2598:2607   */\n      dup4\n        /* \"#utility.yul\":2594:2611   */\n      add\n        /* \"#utility.yul\":2585:2591   */\n      dup5\n        /* \"#utility.yul\":2541:2612   */\n      tag_325\n      jump\t// in\n    tag_388:\n        /* \"#utility.yul\":2397:2619   */\n      swap3\n      swap2\n      pop\n      pop\n      jump\t// out\n        /* \"#utility.yul\":2706:2823   */\n    tag_327:\n        /* \"#utility.yul\":2815:2816   */\n      0x00\n        /* \"#utility.yul\":2812:2813   */\n      dup1\n        /* \"#utility.yul\":2805:2817   */\n      revert\n        /* \"#utility.yul\":2952:3078   */\n    tag_329:\n        /* \"#utility.yul\":2989:2996   */\n      0x00\n        /* \"#utility.yul\":3029:3071   */\n      0xffffffffffffffffffffffffffffffffffffffff\n        /* \"#utility.yul\":3022:3027   */\n      dup3\n        /* \"#utility.yul\":3018:3072   */\n      and\n        /* \"#utility.yul\":3007:3072   */\n      swap1\n      pop\n        /* \"#utility.yul\":2952:3078   */\n      swap2\n      swap1\n      pop\n      jump\t// out\n        /* \"#utility.yul\":3084:3180   */\n    tag_330:\n        /* \"#utility.yul\":3121:3128   */\n      0x00\n        /* \"#utility.yul\":3150:3174   */\n      tag_394\n        /* \"#utility.yul\":3168:3173   */\n      dup3\n        /* \"#utility.yul\":3150:3174   */\n      tag_329\n      jump\t// in\n    tag_394:\n        /* \"#utility.yul\":3139:3174   */\n      swap1\n      pop\n        /* \"#utility.yul\":3084:3180   */\n      swap2\n      swap1\n      pop\n      jump\t// out\n        /* \"#utility.yul\":3186:3308   */\n    tag_331:\n        /* \"#utility.yul\":3259:3283   */\n      tag_396\n        /* \"#utility.yul\":3277:3282   */\n      dup2\n        /* \"#utility.yul\":3259:3283   */\n      tag_330\n      jump\t// in\n    tag_396:\n        /* \"#utility.yul\":3252:3257   */\n      dup2\n        /* \"#utility.yul\":3249:3284   */\n      eq\n        /* \"#utility.yul\":3239:3302   */\n      tag_397\n      jumpi\n        /* \"#utility.yul\":3298:3299   */\n      0x00\n        /* \"#utility.yul\":3295:3296   */\n      dup1\n        /* \"#utility.yul\":3288:3300   */\n      revert\n        /* \"#utility.yul\":3239:3302   */\n    tag_397:\n        /* \"#utility.yul\":3186:3308   */\n      pop\n      jump\t// out\n        /* \"#utility.yul\":3314:3453   */\n    tag_332:\n        /* \"#utility.yul\":3360:3365   */\n      0x00\n        /* \"#utility.yul\":3398:3404   */\n      dup2\n        /* \"#utility.yul\":3385:3405   */\n      calldataload\n        /* \"#utility.yul\":3376:3405   */\n      swap1\n      pop\n        /* \"#utility.yul\":3414:3447   */\n      tag_399\n        /* \"#utility.yul\":3441:3446   */\n      dup2\n        /* \"#utility.yul\":3414:3447   */\n      tag_331\n      jump\t// in\n    tag_399:\n        /* \"#utility.yul\":3314:3453   */\n      swap3\n      swap2\n      pop\n      pop\n      jump\t// out\n        /* \"#utility.yul\":3459:3581   */\n    tag_333:\n        /* \"#utility.yul\":3532:3556   */\n      tag_401\n        /* \"#utility.yul\":3550:3555   */\n      dup2\n        /* \"#utility.yul\":3532:3556   */\n      tag_324\n      jump\t// in\n    tag_401:\n        /* \"#utility.yul\":3525:3530   */\n      dup2\n        /* \"#utility.yul\":3522:3557   */\n      eq\n        /* \"#utility.yul\":3512:3575   */\n      tag_402\n      jumpi\n        /* \"#utility.yul\":3571:3572   */\n      0x00\n        /* \"#utility.yul\":3568:3569   */\n      dup1\n        /* \"#utility.yul\":3561:3573   */\n      revert\n        /* \"#utility.yul\":3512:3575   */\n    tag_402:\n        /* \"#utility.yul\":3459:3581   */\n      pop\n      jump\t// out\n        /* \"#utility.yul\":3587:3726   */\n    tag_334:\n        /* \"#utility.yul\":3633:3638   */\n      0x00\n        /* \"#utility.yul\":3671:3677   */\n      dup2\n        /* \"#utility.yul\":3658:3678   */\n      calldataload\n        /* \"#utility.yul\":3649:3678   */\n      swap1\n      pop\n        /* \"#utility.yul\":3687:3720   */\n      tag_404\n        /* \"#utility.yul\":3714:3719   */\n      dup2\n        /* \"#utility.yul\":3687:3720   */\n      tag_333\n      jump\t// in\n    tag_404:\n        /* \"#utility.yul\":3587:3726   */\n      swap3\n      swap2\n      pop\n      pop\n      jump\t// out\n        /* \"#utility.yul\":3732:4351   */\n    tag_44:\n        /* \"#utility.yul\":3809:3815   */\n      0x00\n        /* \"#utility.yul\":3817:3823   */\n      dup1\n        /* \"#utility.yul\":3825:3831   */\n      0x00\n        /* \"#utility.yul\":3874:3876   */\n      0x60\n        /* \"#utility.yul\":3862:3871   */\n      dup5\n        /* \"#utility.yul\":3853:3860   */\n      dup7\n        /* \"#utility.yul\":3849:3872   */\n      sub\n        /* \"#utility.yul\":3845:3877   */\n      slt\n        /* \"#utility.yul\":3842:3961   */\n      iszero\n      tag_406\n      jumpi\n        /* \"#utility.yul\":3880:3959   */\n      tag_407\n      tag_327\n      jump\t// in\n    tag_407:\n        /* \"#utility.yul\":3842:3961   */\n    tag_406:\n        /* \"#utility.yul\":4000:4001   */\n      0x00\n        /* \"#utility.yul\":4025:4078   */\n      tag_408\n        /* \"#utility.yul\":4070:4077   */\n      dup7\n        /* \"#utility.yul\":4061:4067   */\n      dup3\n        /* \"#utility.yul\":4050:4059   */\n      dup8\n        /* \"#utility.yul\":4046:4068   */\n      add\n        /* \"#utility.yul\":4025:4078   */\n      tag_332\n      jump\t// in\n    tag_408:\n        /* \"#utility.yul\":4015:4078   */\n      swap4\n      pop\n        /* \"#utility.yul\":3971:4088   */\n      pop\n        /* \"#utility.yul\":4127:4129   */\n      0x20\n        /* \"#utility.yul\":4153:4206   */\n      tag_409\n        /* \"#utility.yul\":4198:4205   */\n      dup7\n        /* \"#utility.yul\":4189:4195   */\n      dup3\n        /* \"#utility.yul\":4178:4187   */\n      dup8\n        /* \"#utility.yul\":4174:4196   */\n      add\n        /* \"#utility.yul\":4153:4206   */\n      tag_334\n      jump\t// in\n    tag_409:\n        /* \"#utility.yul\":4143:4206   */\n      swap3\n      pop\n        /* \"#utility.yul\":4098:4216   */\n      pop\n        /* \"#utility.yul\":4255:4257   */\n      0x40\n        /* \"#utility.yul\":4281:4334   */\n      tag_410\n        /* \"#utility.yul\":4326:4333   */\n      dup7\n        /* \"#utility.yul\":4317:4323   */\n      dup3\n        /* \"#utility.yul\":4306:4315   */\n      dup8\n        /* \"#utility.yul\":4302:4324   */\n      add\n        /* \"#utility.yul\":4281:4334   */\n      tag_334\n      jump\t// in\n    tag_410:\n        /* \"#utility.yul\":4271:4334   */\n      swap2\n      pop\n        /* \"#utility.yul\":4226:4344   */\n      pop\n        /* \"#utility.yul\":3732:4351   */\n      swap3\n      pop\n      swap3\n      pop\n      swap3\n      jump\t// out\n        /* \"#utility.yul\":4357:4686   */\n    tag_49:\n        /* \"#utility.yul\":4416:4422   */\n      0x00\n        /* \"#utility.yul\":4465:4467   */\n      0x20\n        /* \"#utility.yul\":4453:4462   */\n      dup3\n        /* \"#utility.yul\":4444:4451   */\n      dup5\n        /* \"#utility.yul\":4440:4463   */\n      sub\n        /* \"#utility.yul\":4436:4468   */\n      slt\n        /* \"#utility.yul\":4433:4552   */\n      iszero\n      tag_412\n      jumpi\n        /* \"#utility.yul\":4471:4550   */\n      tag_413\n      tag_327\n      jump\t// in\n    tag_413:\n        /* \"#utility.yul\":4433:4552   */\n    tag_412:\n        /* \"#utility.yul\":4591:4592   */\n      0x00\n        /* \"#utility.yul\":4616:4669   */\n      tag_414\n        /* \"#utility.yul\":4661:4668   */\n      dup5\n        /* \"#utility.yul\":4652:4658   */\n      dup3\n        /* \"#utility.yul\":4641:4650   */\n      dup6\n        /* \"#utility.yul\":4637:4659   */\n      add\n        /* \"#utility.yul\":4616:4669   */\n      tag_332\n      jump\t// in\n    tag_414:\n        /* \"#utility.yul\":4606:4669   */\n      swap2\n      pop\n        /* \"#utility.yul\":4562:4679   */\n      pop\n        /* \"#utility.yul\":4357:4686   */\n      swap3\n      swap2\n      pop\n      pop\n      jump\t// out\n        /* \"#utility.yul\":4692:4810   */\n    tag_335:\n        /* \"#utility.yul\":4779:4803   */\n      tag_416\n        /* \"#utility.yul\":4797:4802   */\n      dup2\n        /* \"#utility.yul\":4779:4803   */\n      tag_330\n      jump\t// in\n    tag_416:\n        /* \"#utility.yul\":4774:4777   */\n      dup3\n        /* \"#utility.yul\":4767:4804   */\n      mstore\n        /* \"#utility.yul\":4692:4810   */\n      pop\n      pop\n      jump\t// out\n        /* \"#utility.yul\":4816:5038   */\n    tag_56:\n        /* \"#utility.yul\":4909:4913   */\n      0x00\n        /* \"#utility.yul\":4947:4949   */\n      0x20\n        /* \"#utility.yul\":4936:4945   */\n      dup3\n        /* \"#utility.yul\":4932:4950   */\n      add\n        /* \"#utility.yul\":4924:4950   */\n      swap1\n      pop\n        /* \"#utility.yul\":4960:5031   */\n      tag_418\n        /* \"#utility.yul\":5028:5029   */\n      0x00\n        /* \"#utility.yul\":5017:5026   */\n      dup4\n        /* \"#utility.yul\":5013:5030   */\n      add\n        /* \"#utility.yul\":5004:5010   */\n      dup5\n        /* \"#utility.yul\":4960:5031   */\n      tag_335\n      jump\t// in\n    tag_418:\n        /* \"#utility.yul\":4816:5038   */\n      swap3\n      swap2\n      pop\n      pop\n      jump\t// out\n        /* \"#utility.yul\":5044:5373   */\n    tag_60:\n        /* \"#utility.yul\":5103:5109   */\n      0x00\n        /* \"#utility.yul\":5152:5154   */\n      0x20\n        /* \"#utility.yul\":5140:5149   */\n      dup3\n        /* \"#utility.yul\":5131:5138   */\n      dup5\n        /* \"#utility.yul\":5127:5150   */\n      sub\n        /* \"#utility.yul\":5123:5155   */\n      slt\n        /* \"#utility.yul\":5120:5239   */\n      iszero\n      tag_420\n      jumpi\n        /* \"#utility.yul\":5158:5237   */\n      tag_421\n      tag_327\n      jump\t// in\n    tag_421:\n        /* \"#utility.yul\":5120:5239   */\n    tag_420:\n        /* \"#utility.yul\":5278:5279   */\n      0x00\n        /* \"#utility.yul\":5303:5356   */\n      tag_422\n        /* \"#utility.yul\":5348:5355   */\n      dup5\n        /* \"#utility.yul\":5339:5345   */\n      dup3\n        /* \"#utility.yul\":5328:5337   */\n      dup6\n        /* \"#utility.yul\":5324:5346   */\n      add\n        /* \"#utility.yul\":5303:5356   */\n      tag_334\n      jump\t// in\n    tag_422:\n        /* \"#utility.yul\":5293:5356   */\n      swap2\n      pop\n        /* \"#utility.yul\":5249:5366   */\n      pop\n        /* \"#utility.yul\":5044:5373   */\n      swap3\n      swap2\n      pop\n      pop\n      jump\t// out\n        /* \"#utility.yul\":5379:5439   */\n    tag_336:\n        /* \"#utility.yul\":5407:5410   */\n      0x00\n        /* \"#utility.yul\":5428:5433   */\n      dup2\n        /* \"#utility.yul\":5421:5433   */\n      swap1\n      pop\n        /* \"#utility.yul\":5379:5439   */\n      swap2\n      swap1\n      pop\n      jump\t// out\n        /* \"#utility.yul\":5445:5587   */\n    tag_337:\n        /* \"#utility.yul\":5495:5504   */\n      0x00\n        /* \"#utility.yul\":5528:5581   */\n      tag_425\n        /* \"#utility.yul\":5546:5580   */\n      tag_426\n        /* \"#utility.yul\":5555:5579   */\n      tag_427\n        /* \"#utility.yul\":5573:5578   */\n      dup5\n        /* \"#utility.yul\":5555:5579   */\n      tag_329\n      jump\t// in\n    tag_427:\n        /* \"#utility.yul\":5546:5580   */\n      tag_336\n      jump\t// in\n    tag_426:\n        /* \"#utility.yul\":5528:5581   */\n      tag_329\n      jump\t// in\n    tag_425:\n        /* \"#utility.yul\":5515:5581   */\n      swap1\n      pop\n        /* \"#utility.yul\":5445:5587   */\n      swap2\n      swap1\n      pop\n      jump\t// out\n        /* \"#utility.yul\":5593:5719   */\n    tag_338:\n        /* \"#utility.yul\":5643:5652   */\n      0x00\n        /* \"#utility.yul\":5676:5713   */\n      tag_429\n        /* \"#utility.yul\":5707:5712   */\n      dup3\n        /* \"#utility.yul\":5676:5713   */\n      tag_337\n      jump\t// in\n    tag_429:\n        /* \"#utility.yul\":5663:5713   */\n      swap1\n      pop\n        /* \"#utility.yul\":5593:5719   */\n      swap2\n      swap1\n      pop\n      jump\t// out\n        /* \"#utility.yul\":5725:5878   */\n    tag_339:\n        /* \"#utility.yul\":5802:5811   */\n      0x00\n        /* \"#utility.yul\":5835:5872   */\n      tag_431\n        /* \"#utility.yul\":5866:5871   */\n      dup3\n        /* \"#utility.yul\":5835:5872   */\n      tag_338\n      jump\t// in\n    tag_431:\n        /* \"#utility.yul\":5822:5872   */\n      swap1\n      pop\n        /* \"#utility.yul\":5725:5878   */\n      swap2\n      swap1\n      pop\n      jump\t// out\n        /* \"#utility.yul\":5884:6069   */\n    tag_340:\n        /* \"#utility.yul\":5998:6062   */\n      tag_433\n        /* \"#utility.yul\":6056:6061   */\n      dup2\n        /* \"#utility.yul\":5998:6062   */\n      tag_339\n      jump\t// in\n    tag_433:\n        /* \"#utility.yul\":5993:5996   */\n      dup3\n        /* \"#utility.yul\":5986:6063   */\n      mstore\n        /* \"#utility.yul\":5884:6069   */\n      pop\n      pop\n      jump\t// out\n        /* \"#utility.yul\":6075:6351   */\n    tag_69:\n        /* \"#utility.yul\":6195:6199   */\n      0x00\n        /* \"#utility.yul\":6233:6235   */\n      0x20\n        /* \"#utility.yul\":6222:6231   */\n      dup3\n        /* \"#utility.yul\":6218:6236   */\n      add\n        /* \"#utility.yul\":6210:6236   */\n      swap1\n      pop\n        /* \"#utility.yul\":6246:6344   */\n      tag_435\n        /* \"#utility.yul\":6341:6342   */\n      0x00\n        /* \"#utility.yul\":6330:6339   */\n      dup4\n        /* \"#utility.yul\":6326:6343   */\n      add\n        /* \"#utility.yul\":6317:6323   */\n      dup5\n        /* \"#utility.yul\":6246:6344   */\n      tag_340\n      jump\t// in\n    tag_435:\n        /* \"#utility.yul\":6075:6351   */\n      swap3\n      swap2\n      pop\n      pop\n      jump\t// out\n        /* \"#utility.yul\":6357:6508   */\n    tag_341:\n        /* \"#utility.yul\":6432:6441   */\n      0x00\n        /* \"#utility.yul\":6465:6502   */\n      tag_437\n        /* \"#utility.yul\":6496:6501   */\n      dup3\n        /* \"#utility.yul\":6465:6502   */\n      tag_338\n      jump\t// in\n    tag_437:\n        /* \"#utility.yul\":6452:6502   */\n      swap1\n      pop\n        /* \"#utility.yul\":6357:6508   */\n      swap2\n      swap1\n      pop\n      jump\t// out\n        /* \"#utility.yul\":6514:6695   */\n    tag_342:\n        /* \"#utility.yul\":6626:6688   */\n      tag_439\n        /* \"#utility.yul\":6682:6687   */\n      dup2\n        /* \"#utility.yul\":6626:6688   */\n      tag_341\n      jump\t// in\n    tag_439:\n        /* \"#utility.yul\":6621:6624   */\n      dup3\n        /* \"#utility.yul\":6614:6689   */\n      mstore\n        /* \"#utility.yul\":6514:6695   */\n      pop\n      pop\n      jump\t// out\n        /* \"#utility.yul\":6701:6973   */\n    tag_74:\n        /* \"#utility.yul\":6819:6823   */\n      0x00\n        /* \"#utility.yul\":6857:6859   */\n      0x20\n        /* \"#utility.yul\":6846:6855   */\n      dup3\n        /* \"#utility.yul\":6842:6860   */\n      add\n        /* \"#utility.yul\":6834:6860   */\n      swap1\n      pop\n        /* \"#utility.yul\":6870:6966   */\n      tag_441\n        /* \"#utility.yul\":6963:6964   */\n      0x00\n        /* \"#utility.yul\":6952:6961   */\n      dup4\n        /* \"#utility.yul\":6948:6965   */\n      add\n        /* \"#utility.yul\":6939:6945   */\n      dup5\n        /* \"#utility.yul\":6870:6966   */\n      tag_342\n      jump\t// in\n    tag_441:\n        /* \"#utility.yul\":6701:6973   */\n      swap3\n      swap2\n      pop\n      pop\n      jump\t// out\n        /* \"#utility.yul\":6979:7453   */\n    tag_82:\n        /* \"#utility.yul\":7047:7053   */\n      0x00\n        /* \"#utility.yul\":7055:7061   */\n      dup1\n        /* \"#utility.yul\":7104:7106   */\n      0x40\n        /* \"#utility.yul\":7092:7101   */\n      dup4\n        /* \"#utility.yul\":7083:7090   */\n      dup6\n        /* \"#utility.yul\":7079:7102   */\n      sub\n        /* \"#utility.yul\":7075:7107   */\n      slt\n        /* \"#utility.yul\":7072:7191   */\n      iszero\n      tag_443\n      jumpi\n        /* \"#utility.yul\":7110:7189   */\n      tag_444\n      tag_327\n      jump\t// in\n    tag_444:\n        /* \"#utility.yul\":7072:7191   */\n    tag_443:\n        /* \"#utility.yul\":7230:7231   */\n      0x00\n        /* \"#utility.yul\":7255:7308   */\n      tag_445\n        /* \"#utility.yul\":7300:7307   */\n      dup6\n        /* \"#utility.yul\":7291:7297   */\n      dup3\n        /* \"#utility.yul\":7280:7289   */\n      dup7\n        /* \"#utility.yul\":7276:7298   */\n      add\n        /* \"#utility.yul\":7255:7308   */\n      tag_334\n      jump\t// in\n    tag_445:\n        /* \"#utility.yul\":7245:7308   */\n      swap3\n      pop\n        /* \"#utility.yul\":7201:7318   */\n      pop\n        /* \"#utility.yul\":7357:7359   */\n      0x20\n        /* \"#utility.yul\":7383:7436   */\n      tag_446\n        /* \"#utility.yul\":7428:7435   */\n      dup6\n        /* \"#utility.yul\":7419:7425   */\n      dup3\n        /* \"#utility.yul\":7408:7417   */\n      dup7\n        /* \"#utility.yul\":7404:7426   */\n      add\n        /* \"#utility.yul\":7383:7436   */\n      tag_332\n      jump\t// in\n    tag_446:\n        /* \"#utility.yul\":7373:7436   */\n      swap2\n      pop\n        /* \"#utility.yul\":7328:7446   */\n      pop\n        /* \"#utility.yul\":6979:7453   */\n      swap3\n      pop\n      swap3\n      swap1\n      pop\n      jump\t// out\n        /* \"#utility.yul\":7459:7599   */\n    tag_343:\n        /* \"#utility.yul\":7523:7532   */\n      0x00\n        /* \"#utility.yul\":7556:7593   */\n      tag_448\n        /* \"#utility.yul\":7587:7592   */\n      dup3\n        /* \"#utility.yul\":7556:7593   */\n      tag_338\n      jump\t// in\n    tag_448:\n        /* \"#utility.yul\":7543:7593   */\n      swap1\n      pop\n        /* \"#utility.yul\":7459:7599   */\n      swap2\n      swap1\n      pop\n      jump\t// out\n        /* \"#utility.yul\":7605:7764   */\n    tag_344:\n        /* \"#utility.yul\":7706:7757   */\n      tag_450\n        /* \"#utility.yul\":7751:7756   */\n      dup2\n        /* \"#utility.yul\":7706:7757   */\n      tag_343\n      jump\t// in\n    tag_450:\n        /* \"#utility.yul\":7701:7704   */\n      dup3\n        /* \"#utility.yul\":7694:7758   */\n      mstore\n        /* \"#utility.yul\":7605:7764   */\n      pop\n      pop\n      jump\t// out\n        /* \"#utility.yul\":7770:8020   */\n    tag_106:\n        /* \"#utility.yul\":7877:7881   */\n      0x00\n        /* \"#utility.yul\":7915:7917   */\n      0x20\n        /* \"#utility.yul\":7904:7913   */\n      dup3\n        /* \"#utility.yul\":7900:7918   */\n      add\n        /* \"#utility.yul\":7892:7918   */\n      swap1\n      pop\n        /* \"#utility.yul\":7928:8013   */\n      tag_452\n        /* \"#utility.yul\":8010:8011   */\n      0x00\n        /* \"#utility.yul\":7999:8008   */\n      dup4\n        /* \"#utility.yul\":7995:8012   */\n      add\n        /* \"#utility.yul\":7986:7992   */\n      dup5\n        /* \"#utility.yul\":7928:8013   */\n      tag_344\n      jump\t// in\n    tag_452:\n        /* \"#utility.yul\":7770:8020   */\n      swap3\n      swap2\n      pop\n      pop\n      jump\t// out\n        /* \"#utility.yul\":8026:8358   */\n    tag_114:\n        /* \"#utility.yul\":8147:8151   */\n      0x00\n        /* \"#utility.yul\":8185:8187   */\n      0x40\n        /* \"#utility.yul\":8174:8183   */\n      dup3\n        /* \"#utility.yul\":8170:8188   */\n      add\n        /* \"#utility.yul\":8162:8188   */\n      swap1\n      pop\n        /* \"#utility.yul\":8198:8269   */\n      tag_454\n        /* \"#utility.yul\":8266:8267   */\n      0x00\n        /* \"#utility.yul\":8255:8264   */\n      dup4\n        /* \"#utility.yul\":8251:8268   */\n      add\n        /* \"#utility.yul\":8242:8248   */\n      dup6\n        /* \"#utility.yul\":8198:8269   */\n      tag_335\n      jump\t// in\n    tag_454:\n        /* \"#utility.yul\":8279:8351   */\n      tag_455\n        /* \"#utility.yul\":8347:8349   */\n      0x20\n        /* \"#utility.yul\":8336:8345   */\n      dup4\n        /* \"#utility.yul\":8332:8350   */\n      add\n        /* \"#utility.yul\":8323:8329   */\n      dup5\n        /* \"#utility.yul\":8279:8351   */\n      tag_335\n      jump\t// in\n    tag_455:\n        /* \"#utility.yul\":8026:8358   */\n      swap4\n      swap3\n      pop\n      pop\n      pop\n      jump\t// out\n        /* \"#utility.yul\":8364:8507   */\n    tag_345:\n        /* \"#utility.yul\":8421:8426   */\n      0x00\n        /* \"#utility.yul\":8452:8458   */\n      dup2\n        /* \"#utility.yul\":8446:8459   */\n      mload\n        /* \"#utility.yul\":8437:8459   */\n      swap1\n      pop\n        /* \"#utility.yul\":8468:8501   */\n      tag_457\n        /* \"#utility.yul\":8495:8500   */\n      dup2\n        /* \"#utility.yul\":8468:8501   */\n      tag_331\n      jump\t// in\n    tag_457:\n        /* \"#utility.yul\":8364:8507   */\n      swap3\n      swap2\n      pop\n      pop\n      jump\t// out\n        /* \"#utility.yul\":8513:8864   */\n    tag_118:\n        /* \"#utility.yul\":8583:8589   */\n      0x00\n        /* \"#utility.yul\":8632:8634   */\n      0x20\n        /* \"#utility.yul\":8620:8629   */\n      dup3\n        /* \"#utility.yul\":8611:8618   */\n      dup5\n        /* \"#utility.yul\":8607:8630   */\n      sub\n        /* \"#utility.yul\":8603:8635   */\n      slt\n        /* \"#utility.yul\":8600:8719   */\n      iszero\n      tag_459\n      jumpi\n        /* \"#utility.yul\":8638:8717   */\n      tag_460\n      tag_327\n      jump\t// in\n    tag_460:\n        /* \"#utility.yul\":8600:8719   */\n    tag_459:\n        /* \"#utility.yul\":8758:8759   */\n      0x00\n        /* \"#utility.yul\":8783:8847   */\n      tag_461\n        /* \"#utility.yul\":8839:8846   */\n      dup5\n        /* \"#utility.yul\":8830:8836   */\n      dup3\n        /* \"#utility.yul\":8819:8828   */\n      dup6\n        /* \"#utility.yul\":8815:8837   */\n      add\n        /* \"#utility.yul\":8783:8847   */\n      tag_345\n      jump\t// in\n    tag_461:\n        /* \"#utility.yul\":8773:8847   */\n      swap2\n      pop\n        /* \"#utility.yul\":8729:8857   */\n      pop\n        /* \"#utility.yul\":8513:8864   */\n      swap3\n      swap2\n      pop\n      pop\n      jump\t// out\n        /* \"#utility.yul\":8870:9013   */\n    tag_346:\n        /* \"#utility.yul\":8927:8932   */\n      0x00\n        /* \"#utility.yul\":8958:8964   */\n      dup2\n        /* \"#utility.yul\":8952:8965   */\n      mload\n        /* \"#utility.yul\":8943:8965   */\n      swap1\n      pop\n        /* \"#utility.yul\":8974:9007   */\n      tag_463\n        /* \"#utility.yul\":9001:9006   */\n      dup2\n        /* \"#utility.yul\":8974:9007   */\n      tag_333\n      jump\t// in\n    tag_463:\n        /* \"#utility.yul\":8870:9013   */\n      swap3\n      swap2\n      pop\n      pop\n      jump\t// out\n        /* \"#utility.yul\":9019:9370   */\n    tag_127:\n        /* \"#utility.yul\":9089:9095   */\n      0x00\n        /* \"#utility.yul\":9138:9140   */\n      0x20\n        /* \"#utility.yul\":9126:9135   */\n      dup3\n        /* \"#utility.yul\":9117:9124   */\n      dup5\n        /* \"#utility.yul\":9113:9136   */\n      sub\n        /* \"#utility.yul\":9109:9141   */\n      slt\n        /* \"#utility.yul\":9106:9225   */\n      iszero\n      tag_465\n      jumpi\n        /* \"#utility.yul\":9144:9223   */\n      tag_466\n      tag_327\n      jump\t// in\n    tag_466:\n        /* \"#utility.yul\":9106:9225   */\n    tag_465:\n        /* \"#utility.yul\":9264:9265   */\n      0x00\n        /* \"#utility.yul\":9289:9353   */\n      tag_467\n        /* \"#utility.yul\":9345:9352   */\n      dup5\n        /* \"#utility.yul\":9336:9342   */\n      dup3\n        /* \"#utility.yul\":9325:9334   */\n      dup6\n        /* \"#utility.yul\":9321:9343   */\n      add\n        /* \"#utility.yul\":9289:9353   */\n      tag_346\n      jump\t// in\n    tag_467:\n        /* \"#utility.yul\":9279:9353   */\n      swap2\n      pop\n        /* \"#utility.yul\":9235:9363   */\n      pop\n        /* \"#utility.yul\":9019:9370   */\n      swap3\n      swap2\n      pop\n      pop\n      jump\t// out\n        /* \"#utility.yul\":9376:9609   */\n    tag_347:\n        /* \"#utility.yul\":9516:9550   */\n      0x45524332303a20496e73756666696369656e7420616c6c6f77616e636520666f\n        /* \"#utility.yul\":9512:9513   */\n      0x00\n        /* \"#utility.yul\":9504:9510   */\n      dup3\n        /* \"#utility.yul\":9500:9514   */\n      add\n        /* \"#utility.yul\":9493:9551   */\n      mstore\n        /* \"#utility.yul\":9585:9601   */\n      0x72207472616e7366657246726f6d000000000000000000000000000000000000\n        /* \"#utility.yul\":9580:9582   */\n      0x20\n        /* \"#utility.yul\":9572:9578   */\n      dup3\n        /* \"#utility.yul\":9568:9583   */\n      add\n        /* \"#utility.yul\":9561:9602   */\n      mstore\n        /* \"#utility.yul\":9376:9609   */\n      pop\n      jump\t// out\n        /* \"#utility.yul\":9615:9979   */\n    tag_348:\n        /* \"#utility.yul\":9756:9759   */\n      0x00\n        /* \"#utility.yul\":9777:9843   */\n      tag_470\n        /* \"#utility.yul\":9840:9842   */\n      0x2e\n        /* \"#utility.yul\":9835:9838   */\n      dup4\n        /* \"#utility.yul\":9777:9843   */\n      tag_319\n      jump\t// in\n    tag_470:\n        /* \"#utility.yul\":9770:9843   */\n      swap2\n      pop\n        /* \"#utility.yul\":9852:9945   */\n      tag_471\n        /* \"#utility.yul\":9941:9944   */\n      dup3\n        /* \"#utility.yul\":9852:9945   */\n      tag_347\n      jump\t// in\n    tag_471:\n        /* \"#utility.yul\":9970:9972   */\n      0x40\n        /* \"#utility.yul\":9965:9968   */\n      dup3\n        /* \"#utility.yul\":9961:9973   */\n      add\n        /* \"#utility.yul\":9954:9973   */\n      swap1\n      pop\n        /* \"#utility.yul\":9615:9979   */\n      swap2\n      swap1\n      pop\n      jump\t// out\n        /* \"#utility.yul\":9985:10402   */\n    tag_130:\n        /* \"#utility.yul\":10150:10154   */\n      0x00\n        /* \"#utility.yul\":10188:10190   */\n      0x20\n        /* \"#utility.yul\":10177:10186   */\n      dup3\n        /* \"#utility.yul\":10173:10191   */\n      add\n        /* \"#utility.yul\":10165:10191   */\n      swap1\n      pop\n        /* \"#utility.yul\":10237:10246   */\n      dup2\n        /* \"#utility.yul\":10231:10235   */\n      dup2\n        /* \"#utility.yul\":10227:10247   */\n      sub\n        /* \"#utility.yul\":10223:10224   */\n      0x00\n        /* \"#utility.yul\":10212:10221   */\n      dup4\n        /* \"#utility.yul\":10208:10225   */\n      add\n        /* \"#utility.yul\":10201:10248   */\n      mstore\n        /* \"#utility.yul\":10265:10395   */\n      tag_473\n        /* \"#utility.yul\":10390:10394   */\n      dup2\n        /* \"#utility.yul\":10265:10395   */\n      tag_348\n      jump\t// in\n    tag_473:\n        /* \"#utility.yul\":10257:10395   */\n      swap1\n      pop\n        /* \"#utility.yul\":9985:10402   */\n      swap2\n      swap1\n      pop\n      jump\t// out\n        /* \"#utility.yul\":10408:10588   */\n    tag_349:\n        /* \"#utility.yul\":10456:10533   */\n      0x4e487b7100000000000000000000000000000000000000000000000000000000\n        /* \"#utility.yul\":10453:10454   */\n      0x00\n        /* \"#utility.yul\":10446:10534   */\n      mstore\n        /* \"#utility.yul\":10553:10557   */\n      0x11\n        /* \"#utility.yul\":10550:10551   */\n      0x04\n        /* \"#utility.yul\":10543:10558   */\n      mstore\n        /* \"#utility.yul\":10577:10581   */\n      0x24\n        /* \"#utility.yul\":10574:10575   */\n      0x00\n        /* \"#utility.yul\":10567:10582   */\n      revert\n        /* \"#utility.yul\":10594:10785   */\n    tag_139:\n        /* \"#utility.yul\":10634:10637   */\n      0x00\n        /* \"#utility.yul\":10653:10673   */\n      tag_476\n        /* \"#utility.yul\":10671:10672   */\n      dup3\n        /* \"#utility.yul\":10653:10673   */\n      tag_324\n      jump\t// in\n    tag_476:\n        /* \"#utility.yul\":10648:10673   */\n      swap2\n      pop\n        /* \"#utility.yul\":10687:10707   */\n      tag_477\n        /* \"#utility.yul\":10705:10706   */\n      dup4\n        /* \"#utility.yul\":10687:10707   */\n      tag_324\n      jump\t// in\n    tag_477:\n        /* \"#utility.yul\":10682:10707   */\n      swap3\n      pop\n        /* \"#utility.yul\":10730:10731   */\n      dup3\n        /* \"#utility.yul\":10727:10728   */\n      dup3\n        /* \"#utility.yul\":10723:10732   */\n      add\n        /* \"#utility.yul\":10716:10732   */\n      swap1\n      pop\n        /* \"#utility.yul\":10751:10754   */\n      dup1\n        /* \"#utility.yul\":10748:10749   */\n      dup3\n        /* \"#utility.yul\":10745:10755   */\n      gt\n        /* \"#utility.yul\":10742:10778   */\n      iszero\n      tag_478\n      jumpi\n        /* \"#utility.yul\":10758:10776   */\n      tag_479\n      tag_349\n      jump\t// in\n    tag_479:\n        /* \"#utility.yul\":10742:10778   */\n    tag_478:\n        /* \"#utility.yul\":10594:10785   */\n      swap3\n      swap2\n      pop\n      pop\n      jump\t// out\n        /* \"#utility.yul\":10791:10972   */\n    tag_350:\n        /* \"#utility.yul\":10931:10964   */\n      0x546f74616c204b69707542616e6b27732046756e647320657863656564656400\n        /* \"#utility.yul\":10927:10928   */\n      0x00\n        /* \"#utility.yul\":10919:10925   */\n      dup3\n        /* \"#utility.yul\":10915:10929   */\n      add\n        /* \"#utility.yul\":10908:10965   */\n      mstore\n        /* \"#utility.yul\":10791:10972   */\n      pop\n      jump\t// out\n        /* \"#utility.yul\":10978:11342   */\n    tag_351:\n        /* \"#utility.yul\":11119:11122   */\n      0x00\n        /* \"#utility.yul\":11140:11206   */\n      tag_482\n        /* \"#utility.yul\":11203:11205   */\n      0x1f\n        /* \"#utility.yul\":11198:11201   */\n      dup4\n        /* \"#utility.yul\":11140:11206   */\n      tag_319\n      jump\t// in\n    tag_482:\n        /* \"#utility.yul\":11133:11206   */\n      swap2\n      pop\n        /* \"#utility.yul\":11215:11308   */\n      tag_483\n        /* \"#utility.yul\":11304:11307   */\n      dup3\n        /* \"#utility.yul\":11215:11308   */\n      tag_350\n      jump\t// in\n    tag_483:\n        /* \"#utility.yul\":11333:11335   */\n      0x20\n        /* \"#utility.yul\":11328:11331   */\n      dup3\n        /* \"#utility.yul\":11324:11336   */\n      add\n        /* \"#utility.yul\":11317:11336   */\n      swap1\n      pop\n        /* \"#utility.yul\":10978:11342   */\n      swap2\n      swap1\n      pop\n      jump\t// out\n        /* \"#utility.yul\":11348:11765   */\n    tag_142:\n        /* \"#utility.yul\":11513:11517   */\n      0x00\n        /* \"#utility.yul\":11551:11553   */\n      0x20\n        /* \"#utility.yul\":11540:11549   */\n      dup3\n        /* \"#utility.yul\":11536:11554   */\n      add\n        /* \"#utility.yul\":11528:11554   */\n      swap1\n      pop\n        /* \"#utility.yul\":11600:11609   */\n      dup2\n        /* \"#utility.yul\":11594:11598   */\n      dup2\n        /* \"#utility.yul\":11590:11610   */\n      sub\n        /* \"#utility.yul\":11586:11587   */\n      0x00\n        /* \"#utility.yul\":11575:11584   */\n      dup4\n        /* \"#utility.yul\":11571:11588   */\n      add\n        /* \"#utility.yul\":11564:11611   */\n      mstore\n        /* \"#utility.yul\":11628:11758   */\n      tag_485\n        /* \"#utility.yul\":11753:11757   */\n      dup2\n        /* \"#utility.yul\":11628:11758   */\n      tag_351\n      jump\t// in\n    tag_485:\n        /* \"#utility.yul\":11620:11758   */\n      swap1\n      pop\n        /* \"#utility.yul\":11348:11765   */\n      swap2\n      swap1\n      pop\n      jump\t// out\n        /* \"#utility.yul\":11771:11951   */\n    tag_153:\n        /* \"#utility.yul\":11819:11896   */\n      0x4e487b7100000000000000000000000000000000000000000000000000000000\n        /* \"#utility.yul\":11816:11817   */\n      0x00\n        /* \"#utility.yul\":11809:11897   */\n      mstore\n        /* \"#utility.yul\":11916:11920   */\n      0x41\n        /* \"#utility.yul\":11913:11914   */\n      0x04\n        /* \"#utility.yul\":11906:11921   */\n      mstore\n        /* \"#utility.yul\":11940:11944   */\n      0x24\n        /* \"#utility.yul\":11937:11938   */\n      0x00\n        /* \"#utility.yul\":11930:11945   */\n      revert\n        /* \"#utility.yul\":11957:12137   */\n    tag_157:\n        /* \"#utility.yul\":12005:12082   */\n      0x4e487b7100000000000000000000000000000000000000000000000000000000\n        /* \"#utility.yul\":12002:12003   */\n      0x00\n        /* \"#utility.yul\":11995:12083   */\n      mstore\n        /* \"#utility.yul\":12102:12106   */\n      0x32\n        /* \"#utility.yul\":12099:12100   */\n      0x04\n        /* \"#utility.yul\":12092:12107   */\n      mstore\n        /* \"#utility.yul\":12126:12130   */\n      0x24\n        /* \"#utility.yul\":12123:12124   */\n      0x00\n        /* \"#utility.yul\":12116:12131   */\n      revert\n        /* \"#utility.yul\":12143:12257   */\n    tag_352:\n        /* \"#utility.yul\":12210:12216   */\n      0x00\n        /* \"#utility.yul\":12244:12249   */\n      dup2\n        /* \"#utility.yul\":12238:12250   */\n      mload\n        /* \"#utility.yul\":12228:12250   */\n      swap1\n      pop\n        /* \"#utility.yul\":12143:12257   */\n      swap2\n      swap1\n      pop\n      jump\t// out\n        /* \"#utility.yul\":12263:12447   */\n    tag_353:\n        /* \"#utility.yul\":12362:12373   */\n      0x00\n        /* \"#utility.yul\":12396:12402   */\n      dup3\n        /* \"#utility.yul\":12391:12394   */\n      dup3\n        /* \"#utility.yul\":12384:12403   */\n      mstore\n        /* \"#utility.yul\":12436:12440   */\n      0x20\n        /* \"#utility.yul\":12431:12434   */\n      dup3\n        /* \"#utility.yul\":12427:12441   */\n      add\n        /* \"#utility.yul\":12412:12441   */\n      swap1\n      pop\n        /* \"#utility.yul\":12263:12447   */\n      swap3\n      swap2\n      pop\n      pop\n      jump\t// out\n        /* \"#utility.yul\":12453:12585   */\n    tag_354:\n        /* \"#utility.yul\":12520:12524   */\n      0x00\n        /* \"#utility.yul\":12543:12546   */\n      dup2\n        /* \"#utility.yul\":12535:12546   */\n      swap1\n      pop\n        /* \"#utility.yul\":12573:12577   */\n      0x20\n        /* \"#utility.yul\":12568:12571   */\n      dup3\n        /* \"#utility.yul\":12564:12578   */\n      add\n        /* \"#utility.yul\":12556:12578   */\n      swap1\n      pop\n        /* \"#utility.yul\":12453:12585   */\n      swap2\n      swap1\n      pop\n      jump\t// out\n        /* \"#utility.yul\":12591:12699   */\n    tag_355:\n        /* \"#utility.yul\":12668:12692   */\n      tag_492\n        /* \"#utility.yul\":12686:12691   */\n      dup2\n        /* \"#utility.yul\":12668:12692   */\n      tag_330\n      jump\t// in\n    tag_492:\n        /* \"#utility.yul\":12663:12666   */\n      dup3\n        /* \"#utility.yul\":12656:12693   */\n      mstore\n        /* \"#utility.yul\":12591:12699   */\n      pop\n      pop\n      jump\t// out\n        /* \"#utility.yul\":12705:12884   */\n    tag_356:\n        /* \"#utility.yul\":12774:12784   */\n      0x00\n        /* \"#utility.yul\":12795:12841   */\n      tag_494\n        /* \"#utility.yul\":12837:12840   */\n      dup4\n        /* \"#utility.yul\":12829:12835   */\n      dup4\n        /* \"#utility.yul\":12795:12841   */\n      tag_355\n      jump\t// in\n    tag_494:\n        /* \"#utility.yul\":12873:12877   */\n      0x20\n        /* \"#utility.yul\":12868:12871   */\n      dup4\n        /* \"#utility.yul\":12864:12878   */\n      add\n        /* \"#utility.yul\":12850:12878   */\n      swap1\n      pop\n        /* \"#utility.yul\":12705:12884   */\n      swap3\n      swap2\n      pop\n      pop\n      jump\t// out\n        /* \"#utility.yul\":12890:13003   */\n    tag_357:\n        /* \"#utility.yul\":12960:12964   */\n      0x00\n        /* \"#utility.yul\":12992:12996   */\n      0x20\n        /* \"#utility.yul\":12987:12990   */\n      dup3\n        /* \"#utility.yul\":12983:12997   */\n      add\n        /* \"#utility.yul\":12975:12997   */\n      swap1\n      pop\n        /* \"#utility.yul\":12890:13003   */\n      swap2\n      swap1\n      pop\n      jump\t// out\n        /* \"#utility.yul\":13039:13771   */\n    tag_358:\n        /* \"#utility.yul\":13158:13161   */\n      0x00\n        /* \"#utility.yul\":13187:13241   */\n      tag_497\n        /* \"#utility.yul\":13235:13240   */\n      dup3\n        /* \"#utility.yul\":13187:13241   */\n      tag_352\n      jump\t// in\n    tag_497:\n        /* \"#utility.yul\":13257:13343   */\n      tag_498\n        /* \"#utility.yul\":13336:13342   */\n      dup2\n        /* \"#utility.yul\":13331:13334   */\n      dup6\n        /* \"#utility.yul\":13257:13343   */\n      tag_353\n      jump\t// in\n    tag_498:\n        /* \"#utility.yul\":13250:13343   */\n      swap4\n      pop\n        /* \"#utility.yul\":13367:13423   */\n      tag_499\n        /* \"#utility.yul\":13417:13422   */\n      dup4\n        /* \"#utility.yul\":13367:13423   */\n      tag_354\n      jump\t// in\n    tag_499:\n        /* \"#utility.yul\":13446:13453   */\n      dup1\n        /* \"#utility.yul\":13477:13478   */\n      0x00\n        /* \"#utility.yul\":13462:13746   */\n    tag_500:\n        /* \"#utility.yul\":13487:13493   */\n      dup4\n        /* \"#utility.yul\":13484:13485   */\n      dup2\n        /* \"#utility.yul\":13481:13494   */\n      lt\n        /* \"#utility.yul\":13462:13746   */\n      iszero\n      tag_502\n      jumpi\n        /* \"#utility.yul\":13563:13569   */\n      dup2\n        /* \"#utility.yul\":13557:13570   */\n      mload\n        /* \"#utility.yul\":13590:13653   */\n      tag_503\n        /* \"#utility.yul\":13649:13652   */\n      dup9\n        /* \"#utility.yul\":13634:13647   */\n      dup3\n        /* \"#utility.yul\":13590:13653   */\n      tag_356\n      jump\t// in\n    tag_503:\n        /* \"#utility.yul\":13583:13653   */\n      swap8\n      pop\n        /* \"#utility.yul\":13676:13736   */\n      tag_504\n        /* \"#utility.yul\":13729:13735   */\n      dup4\n        /* \"#utility.yul\":13676:13736   */\n      tag_357\n      jump\t// in\n    tag_504:\n        /* \"#utility.yul\":13666:13736   */\n      swap3\n      pop\n        /* \"#utility.yul\":13522:13746   */\n      pop\n        /* \"#utility.yul\":13509:13510   */\n      0x01\n        /* \"#utility.yul\":13506:13507   */\n      dup2\n        /* \"#utility.yul\":13502:13511   */\n      add\n        /* \"#utility.yul\":13497:13511   */\n      swap1\n      pop\n        /* \"#utility.yul\":13462:13746   */\n      jump(tag_500)\n    tag_502:\n        /* \"#utility.yul\":13466:13480   */\n      pop\n        /* \"#utility.yul\":13762:13765   */\n      dup6\n        /* \"#utility.yul\":13755:13765   */\n      swap4\n      pop\n        /* \"#utility.yul\":13163:13771   */\n      pop\n      pop\n      pop\n        /* \"#utility.yul\":13039:13771   */\n      swap3\n      swap2\n      pop\n      pop\n      jump\t// out\n        /* \"#utility.yul\":13777:14592   */\n    tag_162:\n        /* \"#utility.yul\":14032:14036   */\n      0x00\n        /* \"#utility.yul\":14070:14073   */\n      0xa0\n        /* \"#utility.yul\":14059:14068   */\n      dup3\n        /* \"#utility.yul\":14055:14074   */\n      add\n        /* \"#utility.yul\":14047:14074   */\n      swap1\n      pop\n        /* \"#utility.yul\":14084:14155   */\n      tag_506\n        /* \"#utility.yul\":14152:14153   */\n      0x00\n        /* \"#utility.yul\":14141:14150   */\n      dup4\n        /* \"#utility.yul\":14137:14154   */\n      add\n        /* \"#utility.yul\":14128:14134   */\n      dup9\n        /* \"#utility.yul\":14084:14155   */\n      tag_325\n      jump\t// in\n    tag_506:\n        /* \"#utility.yul\":14165:14237   */\n      tag_507\n        /* \"#utility.yul\":14233:14235   */\n      0x20\n        /* \"#utility.yul\":14222:14231   */\n      dup4\n        /* \"#utility.yul\":14218:14236   */\n      add\n        /* \"#utility.yul\":14209:14215   */\n      dup8\n        /* \"#utility.yul\":14165:14237   */\n      tag_325\n      jump\t// in\n    tag_507:\n        /* \"#utility.yul\":14284:14293   */\n      dup2\n        /* \"#utility.yul\":14278:14282   */\n      dup2\n        /* \"#utility.yul\":14274:14294   */\n      sub\n        /* \"#utility.yul\":14269:14271   */\n      0x40\n        /* \"#utility.yul\":14258:14267   */\n      dup4\n        /* \"#utility.yul\":14254:14272   */\n      add\n        /* \"#utility.yul\":14247:14295   */\n      mstore\n        /* \"#utility.yul\":14312:14420   */\n      tag_508\n        /* \"#utility.yul\":14415:14419   */\n      dup2\n        /* \"#utility.yul\":14406:14412   */\n      dup7\n        /* \"#utility.yul\":14312:14420   */\n      tag_358\n      jump\t// in\n    tag_508:\n        /* \"#utility.yul\":14304:14420   */\n      swap1\n      pop\n        /* \"#utility.yul\":14430:14502   */\n      tag_509\n        /* \"#utility.yul\":14498:14500   */\n      0x60\n        /* \"#utility.yul\":14487:14496   */\n      dup4\n        /* \"#utility.yul\":14483:14501   */\n      add\n        /* \"#utility.yul\":14474:14480   */\n      dup6\n        /* \"#utility.yul\":14430:14502   */\n      tag_335\n      jump\t// in\n    tag_509:\n        /* \"#utility.yul\":14512:14585   */\n      tag_510\n        /* \"#utility.yul\":14580:14583   */\n      0x80\n        /* \"#utility.yul\":14569:14578   */\n      dup4\n        /* \"#utility.yul\":14565:14584   */\n      add\n        /* \"#utility.yul\":14556:14562   */\n      dup5\n        /* \"#utility.yul\":14512:14585   */\n      tag_325\n      jump\t// in\n    tag_510:\n        /* \"#utility.yul\":13777:14592   */\n      swap7\n      swap6\n      pop\n      pop\n      pop\n      pop\n      pop\n      pop\n      jump\t// out\n        /* \"#utility.yul\":14598:14792   */\n    tag_171:\n        /* \"#utility.yul\":14638:14642   */\n      0x00\n        /* \"#utility.yul\":14658:14678   */\n      tag_512\n        /* \"#utility.yul\":14676:14677   */\n      dup3\n        /* \"#utility.yul\":14658:14678   */\n      tag_324\n      jump\t// in\n    tag_512:\n        /* \"#utility.yul\":14653:14678   */\n      swap2\n      pop\n        /* \"#utility.yul\":14692:14712   */\n      tag_513\n        /* \"#utility.yul\":14710:14711   */\n      dup4\n        /* \"#utility.yul\":14692:14712   */\n      tag_324\n      jump\t// in\n    tag_513:\n        /* \"#utility.yul\":14687:14712   */\n      swap3\n      pop\n        /* \"#utility.yul\":14736:14737   */\n      dup3\n        /* \"#utility.yul\":14733:14734   */\n      dup3\n        /* \"#utility.yul\":14729:14738   */\n      sub\n        /* \"#utility.yul\":14721:14738   */\n      swap1\n      pop\n        /* \"#utility.yul\":14760:14761   */\n      dup2\n        /* \"#utility.yul\":14754:14758   */\n      dup2\n        /* \"#utility.yul\":14751:14762   */\n      gt\n        /* \"#utility.yul\":14748:14785   */\n      iszero\n      tag_514\n      jumpi\n        /* \"#utility.yul\":14765:14783   */\n      tag_515\n      tag_349\n      jump\t// in\n    tag_515:\n        /* \"#utility.yul\":14748:14785   */\n    tag_514:\n        /* \"#utility.yul\":14598:14792   */\n      swap3\n      swap2\n      pop\n      pop\n      jump\t// out\n        /* \"#utility.yul\":14798:15130   */\n    tag_180:\n        /* \"#utility.yul\":14919:14923   */\n      0x00\n        /* \"#utility.yul\":14957:14959   */\n      0x40\n        /* \"#utility.yul\":14946:14955   */\n      dup3\n        /* \"#utility.yul\":14942:14960   */\n      add\n        /* \"#utility.yul\":14934:14960   */\n      swap1\n      pop\n        /* \"#utility.yul\":14970:15041   */\n      tag_517\n        /* \"#utility.yul\":15038:15039   */\n      0x00\n        /* \"#utility.yul\":15027:15036   */\n      dup4\n        /* \"#utility.yul\":15023:15040   */\n      add\n        /* \"#utility.yul\":15014:15020   */\n      dup6\n        /* \"#utility.yul\":14970:15041   */\n      tag_335\n      jump\t// in\n    tag_517:\n        /* \"#utility.yul\":15051:15123   */\n      tag_518\n        /* \"#utility.yul\":15119:15121   */\n      0x20\n        /* \"#utility.yul\":15108:15117   */\n      dup4\n        /* \"#utility.yul\":15104:15122   */\n      add\n        /* \"#utility.yul\":15095:15101   */\n      dup5\n        /* \"#utility.yul\":15051:15123   */\n      tag_325\n      jump\t// in\n    tag_518:\n        /* \"#utility.yul\":14798:15130   */\n      swap4\n      swap3\n      pop\n      pop\n      pop\n      jump\t// out\n        /* \"#utility.yul\":15136:15360   */\n    tag_359:\n        /* \"#utility.yul\":15276:15310   */\n      0x416d6f756e74206578636565647320746865206d6178696d756d207769746864\n        /* \"#utility.yul\":15272:15273   */\n      0x00\n        /* \"#utility.yul\":15264:15270   */\n      dup3\n        /* \"#utility.yul\":15260:15274   */\n      add\n        /* \"#utility.yul\":15253:15311   */\n      mstore\n        /* \"#utility.yul\":15345:15352   */\n      0x726177616c000000000000000000000000000000000000000000000000000000\n        /* \"#utility.yul\":15340:15342   */\n      0x20\n        /* \"#utility.yul\":15332:15338   */\n      dup3\n        /* \"#utility.yul\":15328:15343   */\n      add\n        /* \"#utility.yul\":15321:15353   */\n      mstore\n        /* \"#utility.yul\":15136:15360   */\n      pop\n      jump\t// out\n        /* \"#utility.yul\":15366:15730   */\n    tag_360:\n        /* \"#utility.yul\":15507:15510   */\n      0x00\n        /* \"#utility.yul\":15528:15594   */\n      tag_521\n        /* \"#utility.yul\":15591:15593   */\n      0x25\n        /* \"#utility.yul\":15586:15589   */\n      dup4\n        /* \"#utility.yul\":15528:15594   */\n      tag_319\n      jump\t// in\n    tag_521:\n        /* \"#utility.yul\":15521:15594   */\n      swap2\n      pop\n        /* \"#utility.yul\":15603:15696   */\n      tag_522\n        /* \"#utility.yul\":15692:15695   */\n      dup3\n        /* \"#utility.yul\":15603:15696   */\n      tag_359\n      jump\t// in\n    tag_522:\n        /* \"#utility.yul\":15721:15723   */\n      0x40\n        /* \"#utility.yul\":15716:15719   */\n      dup3\n        /* \"#utility.yul\":15712:15724   */\n      add\n        /* \"#utility.yul\":15705:15724   */\n      swap1\n      pop\n        /* \"#utility.yul\":15366:15730   */\n      swap2\n      swap1\n      pop\n      jump\t// out\n        /* \"#utility.yul\":15736:16153   */\n    tag_187:\n        /* \"#utility.yul\":15901:15905   */\n      0x00\n        /* \"#utility.yul\":15939:15941   */\n      0x20\n        /* \"#utility.yul\":15928:15937   */\n      dup3\n        /* \"#utility.yul\":15924:15942   */\n      add\n        /* \"#utility.yul\":15916:15942   */\n      swap1\n      pop\n        /* \"#utility.yul\":15988:15997   */\n      dup2\n        /* \"#utility.yul\":15982:15986   */\n      dup2\n        /* \"#utility.yul\":15978:15998   */\n      sub\n        /* \"#utility.yul\":15974:15975   */\n      0x00\n        /* \"#utility.yul\":15963:15972   */\n      dup4\n        /* \"#utility.yul\":15959:15976   */\n      add\n        /* \"#utility.yul\":15952:15999   */\n      mstore\n        /* \"#utility.yul\":16016:16146   */\n      tag_524\n        /* \"#utility.yul\":16141:16145   */\n      dup2\n        /* \"#utility.yul\":16016:16146   */\n      tag_360\n      jump\t// in\n    tag_524:\n        /* \"#utility.yul\":16008:16146   */\n      swap1\n      pop\n        /* \"#utility.yul\":15736:16153   */\n      swap2\n      swap1\n      pop\n      jump\t// out\n        /* \"#utility.yul\":16159:16325   */\n    tag_361:\n        /* \"#utility.yul\":16299:16317   */\n      0x4e6f7420656e6f7567682046756e647300000000000000000000000000000000\n        /* \"#utility.yul\":16295:16296   */\n      0x00\n        /* \"#utility.yul\":16287:16293   */\n      dup3\n        /* \"#utility.yul\":16283:16297   */\n      add\n        /* \"#utility.yul\":16276:16318   */\n      mstore\n        /* \"#utility.yul\":16159:16325   */\n      pop\n      jump\t// out\n        /* \"#utility.yul\":16331:16695   */\n    tag_362:\n        /* \"#utility.yul\":16472:16475   */\n      0x00\n        /* \"#utility.yul\":16493:16559   */\n      tag_527\n        /* \"#utility.yul\":16556:16558   */\n      0x10\n        /* \"#utility.yul\":16551:16554   */\n      dup4\n        /* \"#utility.yul\":16493:16559   */\n      tag_319\n      jump\t// in\n    tag_527:\n        /* \"#utility.yul\":16486:16559   */\n      swap2\n      pop\n        /* \"#utility.yul\":16568:16661   */\n      tag_528\n        /* \"#utility.yul\":16657:16660   */\n      dup3\n        /* \"#utility.yul\":16568:16661   */\n      tag_361\n      jump\t// in\n    tag_528:\n        /* \"#utility.yul\":16686:16688   */\n      0x20\n        /* \"#utility.yul\":16681:16684   */\n      dup3\n        /* \"#utility.yul\":16677:16689   */\n      add\n        /* \"#utility.yul\":16670:16689   */\n      swap1\n      pop\n        /* \"#utility.yul\":16331:16695   */\n      swap2\n      swap1\n      pop\n      jump\t// out\n        /* \"#utility.yul\":16701:17118   */\n    tag_190:\n        /* \"#utility.yul\":16866:16870   */\n      0x00\n        /* \"#utility.yul\":16904:16906   */\n      0x20\n        /* \"#utility.yul\":16893:16902   */\n      dup3\n        /* \"#utility.yul\":16889:16907   */\n      add\n        /* \"#utility.yul\":16881:16907   */\n      swap1\n      pop\n        /* \"#utility.yul\":16953:16962   */\n      dup2\n        /* \"#utility.yul\":16947:16951   */\n      dup2\n        /* \"#utility.yul\":16943:16963   */\n      sub\n        /* \"#utility.yul\":16939:16940   */\n      0x00\n        /* \"#utility.yul\":16928:16937   */\n      dup4\n        /* \"#utility.yul\":16924:16941   */\n      add\n        /* \"#utility.yul\":16917:16964   */\n      mstore\n        /* \"#utility.yul\":16981:17111   */\n      tag_530\n        /* \"#utility.yul\":17106:17110   */\n      dup2\n        /* \"#utility.yul\":16981:17111   */\n      tag_362\n      jump\t// in\n    tag_530:\n        /* \"#utility.yul\":16973:17111   */\n      swap1\n      pop\n        /* \"#utility.yul\":16701:17118   */\n      swap2\n      swap1\n      pop\n      jump\t// out\n        /* \"#utility.yul\":17124:17238   */\n    tag_363:\n        /* \"#utility.yul\":17161:17168   */\n      0x00\n        /* \"#utility.yul\":17201:17231   */\n      0xffffffffffffffffffffffffffff\n        /* \"#utility.yul\":17194:17199   */\n      dup3\n        /* \"#utility.yul\":17190:17232   */\n      and\n        /* \"#utility.yul\":17179:17232   */\n      swap1\n      pop\n        /* \"#utility.yul\":17124:17238   */\n      swap2\n      swap1\n      pop\n      jump\t// out\n        /* \"#utility.yul\":17244:17366   */\n    tag_364:\n        /* \"#utility.yul\":17317:17341   */\n      tag_533\n        /* \"#utility.yul\":17335:17340   */\n      dup2\n        /* \"#utility.yul\":17317:17341   */\n      tag_363\n      jump\t// in\n    tag_533:\n        /* \"#utility.yul\":17310:17315   */\n      dup2\n        /* \"#utility.yul\":17307:17342   */\n      eq\n        /* \"#utility.yul\":17297:17360   */\n      tag_534\n      jumpi\n        /* \"#utility.yul\":17356:17357   */\n      0x00\n        /* \"#utility.yul\":17353:17354   */\n      dup1\n        /* \"#utility.yul\":17346:17358   */\n      revert\n        /* \"#utility.yul\":17297:17360   */\n    tag_534:\n        /* \"#utility.yul\":17244:17366   */\n      pop\n      jump\t// out\n        /* \"#utility.yul\":17372:17515   */\n    tag_365:\n        /* \"#utility.yul\":17429:17434   */\n      0x00\n        /* \"#utility.yul\":17460:17466   */\n      dup2\n        /* \"#utility.yul\":17454:17467   */\n      mload\n        /* \"#utility.yul\":17445:17467   */\n      swap1\n      pop\n        /* \"#utility.yul\":17476:17509   */\n      tag_536\n        /* \"#utility.yul\":17503:17508   */\n      dup2\n        /* \"#utility.yul\":17476:17509   */\n      tag_364\n      jump\t// in\n    tag_536:\n        /* \"#utility.yul\":17372:17515   */\n      swap3\n      swap2\n      pop\n      pop\n      jump\t// out\n        /* \"#utility.yul\":17521:17614   */\n    tag_366:\n        /* \"#utility.yul\":17557:17564   */\n      0x00\n        /* \"#utility.yul\":17597:17607   */\n      0xffffffff\n        /* \"#utility.yul\":17590:17595   */\n      dup3\n        /* \"#utility.yul\":17586:17608   */\n      and\n        /* \"#utility.yul\":17575:17608   */\n      swap1\n      pop\n        /* \"#utility.yul\":17521:17614   */\n      swap2\n      swap1\n      pop\n      jump\t// out\n        /* \"#utility.yul\":17620:17740   */\n    tag_367:\n        /* \"#utility.yul\":17692:17715   */\n      tag_539\n        /* \"#utility.yul\":17709:17714   */\n      dup2\n        /* \"#utility.yul\":17692:17715   */\n      tag_366\n      jump\t// in\n    tag_539:\n        /* \"#utility.yul\":17685:17690   */\n      dup2\n        /* \"#utility.yul\":17682:17716   */\n      eq\n        /* \"#utility.yul\":17672:17734   */\n      tag_540\n      jumpi\n        /* \"#utility.yul\":17730:17731   */\n      0x00\n        /* \"#utility.yul\":17727:17728   */\n      dup1\n        /* \"#utility.yul\":17720:17732   */\n      revert\n        /* \"#utility.yul\":17672:17734   */\n    tag_540:\n        /* \"#utility.yul\":17620:17740   */\n      pop\n      jump\t// out\n        /* \"#utility.yul\":17746:17887   */\n    tag_368:\n        /* \"#utility.yul\":17802:17807   */\n      0x00\n        /* \"#utility.yul\":17833:17839   */\n      dup2\n        /* \"#utility.yul\":17827:17840   */\n      mload\n        /* \"#utility.yul\":17818:17840   */\n      swap1\n      pop\n        /* \"#utility.yul\":17849:17881   */\n      tag_542\n        /* \"#utility.yul\":17875:17880   */\n      dup2\n        /* \"#utility.yul\":17849:17881   */\n      tag_367\n      jump\t// in\n    tag_542:\n        /* \"#utility.yul\":17746:17887   */\n      swap3\n      swap2\n      pop\n      pop\n      jump\t// out\n        /* \"#utility.yul\":17893:18554   */\n    tag_234:\n        /* \"#utility.yul\":17980:17986   */\n      0x00\n        /* \"#utility.yul\":17988:17994   */\n      dup1\n        /* \"#utility.yul\":17996:18002   */\n      0x00\n        /* \"#utility.yul\":18045:18047   */\n      0x60\n        /* \"#utility.yul\":18033:18042   */\n      dup5\n        /* \"#utility.yul\":18024:18031   */\n      dup7\n        /* \"#utility.yul\":18020:18043   */\n      sub\n        /* \"#utility.yul\":18016:18048   */\n      slt\n        /* \"#utility.yul\":18013:18132   */\n      iszero\n      tag_544\n      jumpi\n        /* \"#utility.yul\":18051:18130   */\n      tag_545\n      tag_327\n      jump\t// in\n    tag_545:\n        /* \"#utility.yul\":18013:18132   */\n    tag_544:\n        /* \"#utility.yul\":18171:18172   */\n      0x00\n        /* \"#utility.yul\":18196:18260   */\n      tag_546\n        /* \"#utility.yul\":18252:18259   */\n      dup7\n        /* \"#utility.yul\":18243:18249   */\n      dup3\n        /* \"#utility.yul\":18232:18241   */\n      dup8\n        /* \"#utility.yul\":18228:18250   */\n      add\n        /* \"#utility.yul\":18196:18260   */\n      tag_365\n      jump\t// in\n    tag_546:\n        /* \"#utility.yul\":18186:18260   */\n      swap4\n      pop\n        /* \"#utility.yul\":18142:18270   */\n      pop\n        /* \"#utility.yul\":18309:18311   */\n      0x20\n        /* \"#utility.yul\":18335:18399   */\n      tag_547\n        /* \"#utility.yul\":18391:18398   */\n      dup7\n        /* \"#utility.yul\":18382:18388   */\n      dup3\n        /* \"#utility.yul\":18371:18380   */\n      dup8\n        /* \"#utility.yul\":18367:18389   */\n      add\n        /* \"#utility.yul\":18335:18399   */\n      tag_365\n      jump\t// in\n    tag_547:\n        /* \"#utility.yul\":18325:18399   */\n      swap3\n      pop\n        /* \"#utility.yul\":18280:18409   */\n      pop\n        /* \"#utility.yul\":18448:18450   */\n      0x40\n        /* \"#utility.yul\":18474:18537   */\n      tag_548\n        /* \"#utility.yul\":18529:18536   */\n      dup7\n        /* \"#utility.yul\":18520:18526   */\n      dup3\n        /* \"#utility.yul\":18509:18518   */\n      dup8\n        /* \"#utility.yul\":18505:18527   */\n      add\n        /* \"#utility.yul\":18474:18537   */\n      tag_368\n      jump\t// in\n    tag_548:\n        /* \"#utility.yul\":18464:18537   */\n      swap2\n      pop\n        /* \"#utility.yul\":18419:18547   */\n      pop\n        /* \"#utility.yul\":17893:18554   */\n      swap3\n      pop\n      swap3\n      pop\n      swap3\n      jump\t// out\n        /* \"#utility.yul\":18560:18970   */\n    tag_238:\n        /* \"#utility.yul\":18600:18607   */\n      0x00\n        /* \"#utility.yul\":18623:18643   */\n      tag_550\n        /* \"#utility.yul\":18641:18642   */\n      dup3\n        /* \"#utility.yul\":18623:18643   */\n      tag_324\n      jump\t// in\n    tag_550:\n        /* \"#utility.yul\":18618:18643   */\n      swap2\n      pop\n        /* \"#utility.yul\":18657:18677   */\n      tag_551\n        /* \"#utility.yul\":18675:18676   */\n      dup4\n        /* \"#utility.yul\":18657:18677   */\n      tag_324\n      jump\t// in\n    tag_551:\n        /* \"#utility.yul\":18652:18677   */\n      swap3\n      pop\n        /* \"#utility.yul\":18712:18713   */\n      dup3\n        /* \"#utility.yul\":18709:18710   */\n      dup3\n        /* \"#utility.yul\":18705:18714   */\n      mul\n        /* \"#utility.yul\":18734:18764   */\n      tag_552\n        /* \"#utility.yul\":18752:18763   */\n      dup2\n        /* \"#utility.yul\":18734:18764   */\n      tag_324\n      jump\t// in\n    tag_552:\n        /* \"#utility.yul\":18723:18764   */\n      swap2\n      pop\n        /* \"#utility.yul\":18913:18914   */\n      dup3\n        /* \"#utility.yul\":18904:18911   */\n      dup3\n        /* \"#utility.yul\":18900:18915   */\n      div\n        /* \"#utility.yul\":18897:18898   */\n      dup5\n        /* \"#utility.yul\":18894:18916   */\n      eq\n        /* \"#utility.yul\":18874:18875   */\n      dup4\n        /* \"#utility.yul\":18867:18876   */\n      iszero\n        /* \"#utility.yul\":18847:18930   */\n      or\n        /* \"#utility.yul\":18824:18963   */\n      tag_553\n      jumpi\n        /* \"#utility.yul\":18943:18961   */\n      tag_554\n      tag_349\n      jump\t// in\n    tag_554:\n        /* \"#utility.yul\":18824:18963   */\n    tag_553:\n        /* \"#utility.yul\":18608:18970   */\n      pop\n        /* \"#utility.yul\":18560:18970   */\n      swap3\n      swap2\n      pop\n      pop\n      jump\t// out\n        /* \"#utility.yul\":18976:19255   */\n    tag_241:\n        /* \"#utility.yul\":19016:19023   */\n      0x00\n        /* \"#utility.yul\":19039:19059   */\n      tag_556\n        /* \"#utility.yul\":19057:19058   */\n      dup3\n        /* \"#utility.yul\":19039:19059   */\n      tag_363\n      jump\t// in\n    tag_556:\n        /* \"#utility.yul\":19034:19059   */\n      swap2\n      pop\n        /* \"#utility.yul\":19073:19093   */\n      tag_557\n        /* \"#utility.yul\":19091:19092   */\n      dup4\n        /* \"#utility.yul\":19073:19093   */\n      tag_363\n      jump\t// in\n    tag_557:\n        /* \"#utility.yul\":19068:19093   */\n      swap3\n      pop\n        /* \"#utility.yul\":19128:19129   */\n      dup3\n        /* \"#utility.yul\":19125:19126   */\n      dup3\n        /* \"#utility.yul\":19121:19130   */\n      mul\n        /* \"#utility.yul\":19150:19180   */\n      tag_558\n        /* \"#utility.yul\":19168:19179   */\n      dup2\n        /* \"#utility.yul\":19150:19180   */\n      tag_363\n      jump\t// in\n    tag_558:\n        /* \"#utility.yul\":19139:19180   */\n      swap2\n      pop\n        /* \"#utility.yul\":19212:19223   */\n      dup1\n        /* \"#utility.yul\":19203:19210   */\n      dup3\n        /* \"#utility.yul\":19200:19224   */\n      eq\n        /* \"#utility.yul\":19190:19248   */\n      tag_559\n      jumpi\n        /* \"#utility.yul\":19228:19246   */\n      tag_560\n      tag_349\n      jump\t// in\n    tag_560:\n        /* \"#utility.yul\":19190:19248   */\n    tag_559:\n        /* \"#utility.yul\":19024:19255   */\n      pop\n        /* \"#utility.yul\":18976:19255   */\n      swap3\n      swap2\n      pop\n      pop\n      jump\t// out\n        /* \"#utility.yul\":19261:19441   */\n    tag_369:\n        /* \"#utility.yul\":19309:19386   */\n      0x4e487b7100000000000000000000000000000000000000000000000000000000\n        /* \"#utility.yul\":19306:19307   */\n      0x00\n        /* \"#utility.yul\":19299:19387   */\n      mstore\n        /* \"#utility.yul\":19406:19410   */\n      0x12\n        /* \"#utility.yul\":19403:19404   */\n      0x04\n        /* \"#utility.yul\":19396:19411   */\n      mstore\n        /* \"#utility.yul\":19430:19434   */\n      0x24\n        /* \"#utility.yul\":19427:19428   */\n      0x00\n        /* \"#utility.yul\":19420:19435   */\n      revert\n        /* \"#utility.yul\":19447:19632   */\n    tag_244:\n        /* \"#utility.yul\":19487:19488   */\n      0x00\n        /* \"#utility.yul\":19504:19524   */\n      tag_563\n        /* \"#utility.yul\":19522:19523   */\n      dup3\n        /* \"#utility.yul\":19504:19524   */\n      tag_324\n      jump\t// in\n    tag_563:\n        /* \"#utility.yul\":19499:19524   */\n      swap2\n      pop\n        /* \"#utility.yul\":19538:19558   */\n      tag_564\n        /* \"#utility.yul\":19556:19557   */\n      dup4\n        /* \"#utility.yul\":19538:19558   */\n      tag_324\n      jump\t// in\n    tag_564:\n        /* \"#utility.yul\":19533:19558   */\n      swap3\n      pop\n        /* \"#utility.yul\":19577:19578   */\n      dup3\n        /* \"#utility.yul\":19567:19602   */\n      tag_565\n      jumpi\n        /* \"#utility.yul\":19582:19600   */\n      tag_566\n      tag_369\n      jump\t// in\n    tag_566:\n        /* \"#utility.yul\":19567:19602   */\n    tag_565:\n        /* \"#utility.yul\":19624:19625   */\n      dup3\n        /* \"#utility.yul\":19621:19622   */\n      dup3\n        /* \"#utility.yul\":19617:19626   */\n      div\n        /* \"#utility.yul\":19612:19626   */\n      swap1\n      pop\n        /* \"#utility.yul\":19447:19632   */\n      swap3\n      swap2\n      pop\n      pop\n      jump\t// out\n        /* \"#utility.yul\":19638:20080   */\n    tag_248:\n        /* \"#utility.yul\":19787:19791   */\n      0x00\n        /* \"#utility.yul\":19825:19827   */\n      0x60\n        /* \"#utility.yul\":19814:19823   */\n      dup3\n        /* \"#utility.yul\":19810:19828   */\n      add\n        /* \"#utility.yul\":19802:19828   */\n      swap1\n      pop\n        /* \"#utility.yul\":19838:19909   */\n      tag_568\n        /* \"#utility.yul\":19906:19907   */\n      0x00\n        /* \"#utility.yul\":19895:19904   */\n      dup4\n        /* \"#utility.yul\":19891:19908   */\n      add\n        /* \"#utility.yul\":19882:19888   */\n      dup7\n        /* \"#utility.yul\":19838:19909   */\n      tag_335\n      jump\t// in\n    tag_568:\n        /* \"#utility.yul\":19919:19991   */\n      tag_569\n        /* \"#utility.yul\":19987:19989   */\n      0x20\n        /* \"#utility.yul\":19976:19985   */\n      dup4\n        /* \"#utility.yul\":19972:19990   */\n      add\n        /* \"#utility.yul\":19963:19969   */\n      dup6\n        /* \"#utility.yul\":19919:19991   */\n      tag_335\n      jump\t// in\n    tag_569:\n        /* \"#utility.yul\":20001:20073   */\n      tag_570\n        /* \"#utility.yul\":20069:20071   */\n      0x40\n        /* \"#utility.yul\":20058:20067   */\n      dup4\n        /* \"#utility.yul\":20054:20072   */\n      add\n        /* \"#utility.yul\":20045:20051   */\n      dup5\n        /* \"#utility.yul\":20001:20073   */\n      tag_325\n      jump\t// in\n    tag_570:\n        /* \"#utility.yul\":19638:20080   */\n      swap5\n      swap4\n      pop\n      pop\n      pop\n      pop\n      jump\t// out\n        /* \"#utility.yul\":20086:20790   */\n    tag_297:\n        /* \"#utility.yul\":20313:20317   */\n      0x00\n        /* \"#utility.yul\":20351:20354   */\n      0x80\n        /* \"#utility.yul\":20340:20349   */\n      dup3\n        /* \"#utility.yul\":20336:20355   */\n      add\n        /* \"#utility.yul\":20328:20355   */\n      swap1\n      pop\n        /* \"#utility.yul\":20365:20436   */\n      tag_572\n        /* \"#utility.yul\":20433:20434   */\n      0x00\n        /* \"#utility.yul\":20422:20431   */\n      dup4\n        /* \"#utility.yul\":20418:20435   */\n      add\n        /* \"#utility.yul\":20409:20415   */\n      dup8\n        /* \"#utility.yul\":20365:20436   */\n      tag_325\n      jump\t// in\n    tag_572:\n        /* \"#utility.yul\":20483:20492   */\n      dup2\n        /* \"#utility.yul\":20477:20481   */\n      dup2\n        /* \"#utility.yul\":20473:20493   */\n      sub\n        /* \"#utility.yul\":20468:20470   */\n      0x20\n        /* \"#utility.yul\":20457:20466   */\n      dup4\n        /* \"#utility.yul\":20453:20471   */\n      add\n        /* \"#utility.yul\":20446:20494   */\n      mstore\n        /* \"#utility.yul\":20511:20619   */\n      tag_573\n        /* \"#utility.yul\":20614:20618   */\n      dup2\n        /* \"#utility.yul\":20605:20611   */\n      dup7\n        /* \"#utility.yul\":20511:20619   */\n      tag_358\n      jump\t// in\n    tag_573:\n        /* \"#utility.yul\":20503:20619   */\n      swap1\n      pop\n        /* \"#utility.yul\":20629:20701   */\n      tag_574\n        /* \"#utility.yul\":20697:20699   */\n      0x40\n        /* \"#utility.yul\":20686:20695   */\n      dup4\n        /* \"#utility.yul\":20682:20700   */\n      add\n        /* \"#utility.yul\":20673:20679   */\n      dup6\n        /* \"#utility.yul\":20629:20701   */\n      tag_335\n      jump\t// in\n    tag_574:\n        /* \"#utility.yul\":20711:20783   */\n      tag_575\n        /* \"#utility.yul\":20779:20781   */\n      0x60\n        /* \"#utility.yul\":20768:20777   */\n      dup4\n        /* \"#utility.yul\":20764:20782   */\n      add\n        /* \"#utility.yul\":20755:20761   */\n      dup5\n        /* \"#utility.yul\":20711:20783   */\n      tag_325\n      jump\t// in\n    tag_575:\n        /* \"#utility.yul\":20086:20790   */\n      swap6\n      swap5\n      pop\n      pop\n      pop\n      pop\n      pop\n      jump\t// out\n\n    auxdata: 0xa26469706673582212206897f11937a188af94acc88bb3a40f0bdf8dcc540dc41598a1136dfa616e27e264736f6c634300081a0033\n}\n",
				"bytecode": {
					"linkReferences": {},
					"object": "610120604052348015610010575f80fd5b50604051612d41380380612d41833981810160405281019061003291906103d4565b855f73ffffffffffffffffffffffffffffffffffffffff168173ffffffffffffffffffffffffffffffffffffffff16036100a3575f6040517f1e4fbdf700000000000000000000000000000000000000000000000000000000815260040161009a919061046c565b60405180910390fd5b6100b28161028260201b60201c565b5060018081905550600a8210806100c95750600181105b156100ff576040517e01d65100000000000000000000000000000000000000000000000000000000815260040160405180910390fd5b620f42408261010e91906104b2565b60808181525050620f42408161012491906104b2565b60a081815250508373ffffffffffffffffffffffffffffffffffffffff1660c08173ffffffffffffffffffffffffffffffffffffffff16815250508473ffffffffffffffffffffffffffffffffffffffff1660e08173ffffffffffffffffffffffffffffffffffffffff16815250508273ffffffffffffffffffffffffffffffffffffffff166101008173ffffffffffffffffffffffffffffffffffffffff16815250506101005173ffffffffffffffffffffffffffffffffffffffff1663c45a01556040518163ffffffff1660e01b8152600401602060405180830381865afa158015610214573d5f803e3d5ffd5b505050506040513d601f19601f8201168201806040525081019061023891906104f3565b60055f6101000a81548173ffffffffffffffffffffffffffffffffffffffff021916908373ffffffffffffffffffffffffffffffffffffffff16021790555050505050505061051e565b5f805f9054906101000a900473ffffffffffffffffffffffffffffffffffffffff169050815f806101000a81548173ffffffffffffffffffffffffffffffffffffffff021916908373ffffffffffffffffffffffffffffffffffffffff1602179055508173ffffffffffffffffffffffffffffffffffffffff168173ffffffffffffffffffffffffffffffffffffffff167f8be0079c531659141344cd1fd0a4f28419497f9722a3daafe3b4186f6b6457e060405160405180910390a35050565b5f80fd5b5f73ffffffffffffffffffffffffffffffffffffffff82169050919050565b5f61037082610347565b9050919050565b61038081610366565b811461038a575f80fd5b50565b5f8151905061039b81610377565b92915050565b5f819050919050565b6103b3816103a1565b81146103bd575f80fd5b50565b5f815190506103ce816103aa565b92915050565b5f805f805f8060c087890312156103ee576103ed610343565b5b5f6103fb89828a0161038d565b965050602061040c89828a0161038d565b955050604061041d89828a0161038d565b945050606061042e89828a0161038d565b935050608061043f89828a016103c0565b92505060a061045089828a016103c0565b9150509295509295509295565b61046681610366565b82525050565b5f60208201905061047f5f83018461045d565b92915050565b7f4e487b71000000000000000000000000000000000000000000000000000000005f52601160045260245ffd5b5f6104bc826103a1565b91506104c7836103a1565b92508282026104d5816103a1565b915082820484148315176104ec576104eb610485565b5b5092915050565b5f6020828403121561050857610507610343565b5b5f6105158482850161038d565b91505092915050565b60805160a05160c05160e051610100516127306106115f395f81816109dc01528181610e71015261195a01525f8181610c5c015281816117ec0152818161187d0152611b6501525f81816104b8015281816106cf015281816107e50152818161087f0152818161096d01528181610a7801528181610dc001528181610eee015281816110470152818161106c01528181611106015281816111fb0152818161159c0152818161166a0152818161174e015281816118eb01526119f601525f818161044c0152610c8a01525f81816106ad01528181610b2b01528181611023015281816116480152611a9f01526127305ff3fe6080604052600436106100f6575f3560e01c80638da5cb5b11610089578063f2fde38b11610058578063f2fde38b14610355578063f3db702c1461037d578063f6687af7146103a7578063ff40e1d0146103d15761013e565b80638da5cb5b146102cf5780639e2b5339146102f9578063c4cbcf3d14610321578063d0e30db01461034b5761013e565b80635b06dece116100c55780635b06dece1461023d578063715018a614610265578063735de9f71461027b5780638bdb2afa146102a55761013e565b8063089781a91461018557806321425ee0146101af578063260ad389146101d75780634dbe7e92146102135761013e565b3661013e576101036103fb565b6040517f336ea14200000000000000000000000000000000000000000000000000000000815260040161013590611cca565b60405180910390fd5b348015610149575f80fd5b506040517f336ea14200000000000000000000000000000000000000000000000000000000815260040161017c90611d58565b60405180910390fd5b348015610190575f80fd5b5061019961044a565b6040516101a69190611d8e565b60405180910390f35b3480156101ba575f80fd5b506101d560048036038101906101d09190611e2f565b61046e565b005b3480156101e2575f80fd5b506101fd60048036038101906101f89190611e7f565b610c45565b60405161020a9190611d8e565b60405180910390f35b34801561021e575f80fd5b50610227610c5a565b6040516102349190611eb9565b60405180910390f35b348015610248575f80fd5b50610263600480360381019061025e9190611ed2565b610c7e565b005b348015610270575f80fd5b50610279610e5c565b005b348015610286575f80fd5b5061028f610e6f565b60405161029c9190611f58565b60405180910390f35b3480156102b0575f80fd5b506102b9610e93565b6040516102c69190611f91565b60405180910390f35b3480156102da575f80fd5b506102e3610eb8565b6040516102f09190611eb9565b60405180910390f35b348015610304575f80fd5b5061031f600480360381019061031a9190611faa565b610edf565b005b34801561032c575f80fd5b50610335610f6d565b6040516103429190611d8e565b60405180910390f35b610353610f7b565b005b348015610360575f80fd5b5061037b60048036038101906103769190611e7f565b610f97565b005b348015610388575f80fd5b5061039161101b565b60405161039e9190611d8e565b60405180910390f35b3480156103b2575f80fd5b506103bb611021565b6040516103c89190611d8e565b60405180910390f35b3480156103dc575f80fd5b506103e5611045565b6040516103f29190612008565b60405180910390f35b600260015403610437576040517f3ee5aeb500000000000000000000000000000000000000000000000000000000815260040160405180910390fd5b6002600181905550565b60018081905550565b7f000000000000000000000000000000000000000000000000000000000000000081565b6104766103fb565b825f60055f9054906101000a900473ffffffffffffffffffffffffffffffffffffffff1673ffffffffffffffffffffffffffffffffffffffff1663e6a43905837f00000000000000000000000000000000000000000000000000000000000000006040518363ffffffff1660e01b81526004016104f4929190612021565b602060405180830381865afa15801561050f573d5f803e3d5ffd5b505050506040513d601f19601f82011682018060405250810190610533919061205c565b90505f73ffffffffffffffffffffffffffffffffffffffff168173ffffffffffffffffffffffffffffffffffffffff16036105a557816040517fe584a63f00000000000000000000000000000000000000000000000000000000815260040161059c9190611eb9565b60405180910390fd5b84845f73ffffffffffffffffffffffffffffffffffffffff168273ffffffffffffffffffffffffffffffffffffffff161461069c575f829050818173ffffffffffffffffffffffffffffffffffffffff1663dd62ed3e33306040518363ffffffff1660e01b815260040161061a929190612021565b602060405180830381865afa158015610635573d5f803e3d5ffd5b505050506040513d601f19601f82011682018060405250810190610659919061209b565b101561069a576040517f336ea14200000000000000000000000000000000000000000000000000000000815260040161069190612136565b60405180910390fd5b505b86865f6106a98383611069565b90507f0000000000000000000000000000000000000000000000000000000000000000817f000000000000000000000000000000000000000000000000000000000000000073ffffffffffffffffffffffffffffffffffffffff166370a08231306040518263ffffffff1660e01b81526004016107269190611eb9565b602060405180830381865afa158015610741573d5f803e3d5ffd5b505050506040513d601f19601f82011682018060405250810190610765919061209b565b61076f9190612181565b11156107b0576040517fa2d2e1b20000000000000000000000000000000000000000000000000000000081526004016107a7906121fe565b60405180910390fd5b5f8a90506107e133308c8473ffffffffffffffffffffffffffffffffffffffff166112d3909392919063ffffffff16565b5f807f000000000000000000000000000000000000000000000000000000000000000073ffffffffffffffffffffffffffffffffffffffff166370a08231306040518263ffffffff1660e01b815260040161083c9190611eb9565b602060405180830381865afa158015610857573d5f803e3d5ffd5b505050506040513d601f19601f8201168201806040525081019061087b919061209b565b90507f000000000000000000000000000000000000000000000000000000000000000073ffffffffffffffffffffffffffffffffffffffff168d73ffffffffffffffffffffffffffffffffffffffff1614610b25575f600267ffffffffffffffff8111156108ec576108eb61221c565b5b60405190808252806020026020018201604052801561091a5781602001602082028036833780820191505090505b5090508d815f8151811061093157610930612249565b5b602002602001019073ffffffffffffffffffffffffffffffffffffffff16908173ffffffffffffffffffffffffffffffffffffffff16815250507f0000000000000000000000000000000000000000000000000000000000000000816001815181106109a05761099f612249565b5b602002602001019073ffffffffffffffffffffffffffffffffffffffff16908173ffffffffffffffffffffffffffffffffffffffff16815250507f000000000000000000000000000000000000000000000000000000000000000073ffffffffffffffffffffffffffffffffffffffff16635c11d7958e8e843061012c42610a289190612181565b6040518663ffffffff1660e01b8152600401610a4895949392919061232d565b5f604051808303815f87803b158015610a5f575f80fd5b505af1158015610a71573d5f803e3d5ffd5b505050505f7f000000000000000000000000000000000000000000000000000000000000000073ffffffffffffffffffffffffffffffffffffffff166370a08231306040518263ffffffff1660e01b8152600401610acf9190611eb9565b602060405180830381865afa158015610aea573d5f803e3d5ffd5b505050506040513d601f19601f82011682018060405250810190610b0e919061209b565b90508281610b1c9190612385565b93505050610b29565b8b91505b7f00000000000000000000000000000000000000000000000000000000000000008282610b569190612181565b1115610b97576040517fa2d2e1b2000000000000000000000000000000000000000000000000000000008152600401610b8e906121fe565b60405180910390fd5b8160025f3373ffffffffffffffffffffffffffffffffffffffff1673ffffffffffffffffffffffffffffffffffffffff1681526020019081526020015f205f828254610be39190612181565b92505081905550610bf560018e611355565b7f7b7cd0ddbbea241880e825e1eb51c30752cb96dd7efeb4be691ec55dfa4d89633383604051610c269291906123b8565b60405180910390a150505050505050505050610c40610441565b505050565b6003602052805f5260405f205f915090505481565b7f000000000000000000000000000000000000000000000000000000000000000081565b610c866103fb565b80807f00000000000000000000000000000000000000000000000000000000000000001015610cea576040517f0fc05174000000000000000000000000000000000000000000000000000000008152600401610ce19061244f565b60405180910390fd5b8060025f3373ffffffffffffffffffffffffffffffffffffffff1673ffffffffffffffffffffffffffffffffffffffff1681526020019081526020015f20541015610d6a576040517f986b5a30000000000000000000000000000000000000000000000000000000008152600401610d61906124b7565b60405180910390fd5b8160025f3373ffffffffffffffffffffffffffffffffffffffff1673ffffffffffffffffffffffffffffffffffffffff1681526020019081526020015f205f828254610db69190612385565b925050819055505f7f00000000000000000000000000000000000000000000000000000000000000009050610deb5f82611355565b610e1633848373ffffffffffffffffffffffffffffffffffffffff166113d29092919063ffffffff16565b7f1ff21e81cff87fccbac096ad565f52cb1b358db04a736a6a137cceb4a287a7023384604051610e479291906123b8565b60405180910390a15050610e59610441565b50565b610e64611451565b610e6d5f6114d8565b565b7f000000000000000000000000000000000000000000000000000000000000000081565b60055f9054906101000a900473ffffffffffffffffffffffffffffffffffffffff1681565b5f805f9054906101000a900473ffffffffffffffffffffffffffffffffffffffff16905090565b610ee7611451565b610f3281837f000000000000000000000000000000000000000000000000000000000000000073ffffffffffffffffffffffffffffffffffffffff166113d29092919063ffffffff16565b7fbb8f0afef873e84feb2f1167dd70a028e4f9ada114828481f03ed1255aa0f54182604051610f619190611d8e565b60405180910390a15050565b5f610f76611599565b905090565b610f836103fb565b610f8d3334611637565b610f95610441565b565b610f9f611451565b5f73ffffffffffffffffffffffffffffffffffffffff168173ffffffffffffffffffffffffffffffffffffffff160361100f575f6040517f1e4fbdf70000000000000000000000000000000000000000000000000000000081526004016110069190611eb9565b60405180910390fd5b611018816114d8565b50565b60045481565b7f000000000000000000000000000000000000000000000000000000000000000081565b7f000000000000000000000000000000000000000000000000000000000000000081565b5f7f000000000000000000000000000000000000000000000000000000000000000073ffffffffffffffffffffffffffffffffffffffff168373ffffffffffffffffffffffffffffffffffffffff16036110c5578190506112cd565b5f60055f9054906101000a900473ffffffffffffffffffffffffffffffffffffffff1673ffffffffffffffffffffffffffffffffffffffff1663e6a43905857f00000000000000000000000000000000000000000000000000000000000000006040518363ffffffff1660e01b8152600401611142929190612021565b602060405180830381865afa15801561115d573d5f803e3d5ffd5b505050506040513d601f19601f82011682018060405250810190611181919061205c565b90505f808273ffffffffffffffffffffffffffffffffffffffff16630902f1ac6040518163ffffffff1660e01b8152600401606060405180830381865afa1580156111ce573d5f803e3d5ffd5b505050506040513d601f19601f820116820180604052508101906111f29190612551565b50915091505f807f000000000000000000000000000000000000000000000000000000000000000073ffffffffffffffffffffffffffffffffffffffff168873ffffffffffffffffffffffffffffffffffffffff1610611253578284611256565b83835b915091505f6103e58861126991906125a1565b90505f826dffffffffffffffffffffffffffff168261128891906125a1565b90505f826103e88661129a91906125e2565b6dffffffffffffffffffffffffffff166112b49190612181565b905080826112c2919061264b565b985050505050505050505b92915050565b61134f848573ffffffffffffffffffffffffffffffffffffffff166323b872dd8686866040516024016113089392919061267b565b604051602081830303815290604052915060e01b6020820180517bffffffffffffffffffffffffffffffffffffffffffffffffffffffff8381831617835250505050611bce565b50505050565b81156113b457600160035f8373ffffffffffffffffffffffffffffffffffffffff1673ffffffffffffffffffffffffffffffffffffffff1681526020019081526020015f205f8282546113a89190612181565b925050819055506113ce565b600160045f8282546113c69190612181565b925050819055505b5050565b61144c838473ffffffffffffffffffffffffffffffffffffffff1663a9059cbb85856040516024016114059291906123b8565b604051602081830303815290604052915060e01b6020820180517bffffffffffffffffffffffffffffffffffffffffffffffffffffffff8381831617835250505050611bce565b505050565b611459611c69565b73ffffffffffffffffffffffffffffffffffffffff16611477610eb8565b73ffffffffffffffffffffffffffffffffffffffff16146114d65761149a611c69565b6040517f118cdaa70000000000000000000000000000000000000000000000000000000081526004016114cd9190611eb9565b60405180910390fd5b565b5f805f9054906101000a900473ffffffffffffffffffffffffffffffffffffffff169050815f806101000a81548173ffffffffffffffffffffffffffffffffffffffff021916908373ffffffffffffffffffffffffffffffffffffffff1602179055508173ffffffffffffffffffffffffffffffffffffffff168173ffffffffffffffffffffffffffffffffffffffff167f8be0079c531659141344cd1fd0a4f28419497f9722a3daafe3b4186f6b6457e060405160405180910390a35050565b5f7f000000000000000000000000000000000000000000000000000000000000000073ffffffffffffffffffffffffffffffffffffffff166370a08231306040518263ffffffff1660e01b81526004016115f39190611eb9565b602060405180830381865afa15801561160e573d5f803e3d5ffd5b505050506040513d601f19601f82011682018060405250810190611632919061209b565b905090565b5f815f6116448383611069565b90507f0000000000000000000000000000000000000000000000000000000000000000817f000000000000000000000000000000000000000000000000000000000000000073ffffffffffffffffffffffffffffffffffffffff166370a08231306040518263ffffffff1660e01b81526004016116c19190611eb9565b602060405180830381865afa1580156116dc573d5f803e3d5ffd5b505050506040513d601f19601f82011682018060405250810190611700919061209b565b61170a9190612181565b111561174b576040517fa2d2e1b2000000000000000000000000000000000000000000000000000000008152600401611742906121fe565b60405180910390fd5b5f7f000000000000000000000000000000000000000000000000000000000000000073ffffffffffffffffffffffffffffffffffffffff166370a08231306040518263ffffffff1660e01b81526004016117a59190611eb9565b602060405180830381865afa1580156117c0573d5f803e3d5ffd5b505050506040513d601f19601f820116820180604052508101906117e4919061209b565b90505f6118117f000000000000000000000000000000000000000000000000000000000000000087611069565b9050606460638261182291906125a1565b61182c919061264b565b90505f600267ffffffffffffffff81111561184a5761184961221c565b5b6040519080825280602002602001820160405280156118785781602001602082028036833780820191505090505b5090507f0000000000000000000000000000000000000000000000000000000000000000815f815181106118af576118ae612249565b5b602002602001019073ffffffffffffffffffffffffffffffffffffffff16908173ffffffffffffffffffffffffffffffffffffffff16815250507f00000000000000000000000000000000000000000000000000000000000000008160018151811061191e5761191d612249565b5b602002602001019073ffffffffffffffffffffffffffffffffffffffff16908173ffffffffffffffffffffffffffffffffffffffff16815250507f000000000000000000000000000000000000000000000000000000000000000073ffffffffffffffffffffffffffffffffffffffff1663b6f9de958884843061012c426119a69190612181565b6040518663ffffffff1660e01b81526004016119c594939291906126b0565b5f604051808303818588803b1580156119dc575f80fd5b505af11580156119ee573d5f803e3d5ffd5b50505050505f7f000000000000000000000000000000000000000000000000000000000000000073ffffffffffffffffffffffffffffffffffffffff166370a08231306040518263ffffffff1660e01b8152600401611a4d9190611eb9565b602060405180830381865afa158015611a68573d5f803e3d5ffd5b505050506040513d601f19601f82011682018060405250810190611a8c919061209b565b90505f8482611a9b9190612385565b90507f00000000000000000000000000000000000000000000000000000000000000008186611aca9190612181565b1115611b0b576040517fa2d2e1b2000000000000000000000000000000000000000000000000000000008152600401611b02906121fe565b60405180910390fd5b8060025f8c73ffffffffffffffffffffffffffffffffffffffff1673ffffffffffffffffffffffffffffffffffffffff1681526020019081526020015f205f828254611b579190612181565b92505081905550611b8960017f0000000000000000000000000000000000000000000000000000000000000000611355565b7f7b7cd0ddbbea241880e825e1eb51c30752cb96dd7efeb4be691ec55dfa4d89638a82604051611bba9291906123b8565b60405180910390a150505050505050505050565b5f8060205f8451602086015f885af180611bed576040513d5f823e3d81fd5b3d92505f519150505f8214611c06576001811415611c21565b5f8473ffffffffffffffffffffffffffffffffffffffff163b145b15611c6357836040517f5274afe7000000000000000000000000000000000000000000000000000000008152600401611c5a9190611eb9565b60405180910390fd5b50505050565b5f33905090565b5f82825260208201905092915050565b7f557365206465706f73697420666f7220455448206465706f73697400000000005f82015250565b5f611cb4601b83611c70565b9150611cbf82611c80565b602082019050919050565b5f6020820190508181035f830152611ce181611ca8565b9050919050565b7f4f7065726174696f6e20646f6573206e6f7420657869737473206f72206461745f8201527f612077617320696e636f72726563740000000000000000000000000000000000602082015250565b5f611d42602f83611c70565b9150611d4d82611ce8565b604082019050919050565b5f6020820190508181035f830152611d6f81611d36565b9050919050565b5f819050919050565b611d8881611d76565b82525050565b5f602082019050611da15f830184611d7f565b92915050565b5f80fd5b5f73ffffffffffffffffffffffffffffffffffffffff82169050919050565b5f611dd482611dab565b9050919050565b611de481611dca565b8114611dee575f80fd5b50565b5f81359050611dff81611ddb565b92915050565b611e0e81611d76565b8114611e18575f80fd5b50565b5f81359050611e2981611e05565b92915050565b5f805f60608486031215611e4657611e45611da7565b5b5f611e5386828701611df1565b9350506020611e6486828701611e1b565b9250506040611e7586828701611e1b565b9150509250925092565b5f60208284031215611e9457611e93611da7565b5b5f611ea184828501611df1565b91505092915050565b611eb381611dca565b82525050565b5f602082019050611ecc5f830184611eaa565b92915050565b5f60208284031215611ee757611ee6611da7565b5b5f611ef484828501611e1b565b91505092915050565b5f819050919050565b5f611f20611f1b611f1684611dab565b611efd565b611dab565b9050919050565b5f611f3182611f06565b9050919050565b5f611f4282611f27565b9050919050565b611f5281611f38565b82525050565b5f602082019050611f6b5f830184611f49565b92915050565b5f611f7b82611f27565b9050919050565b611f8b81611f71565b82525050565b5f602082019050611fa45f830184611f82565b92915050565b5f8060408385031215611fc057611fbf611da7565b5b5f611fcd85828601611e1b565b9250506020611fde85828601611df1565b9150509250929050565b5f611ff282611f27565b9050919050565b61200281611fe8565b82525050565b5f60208201905061201b5f830184611ff9565b92915050565b5f6040820190506120345f830185611eaa565b6120416020830184611eaa565b9392505050565b5f8151905061205681611ddb565b92915050565b5f6020828403121561207157612070611da7565b5b5f61207e84828501612048565b91505092915050565b5f8151905061209581611e05565b92915050565b5f602082840312156120b0576120af611da7565b5b5f6120bd84828501612087565b91505092915050565b7f45524332303a20496e73756666696369656e7420616c6c6f77616e636520666f5f8201527f72207472616e7366657246726f6d000000000000000000000000000000000000602082015250565b5f612120602e83611c70565b915061212b826120c6565b604082019050919050565b5f6020820190508181035f83015261214d81612114565b9050919050565b7f4e487b71000000000000000000000000000000000000000000000000000000005f52601160045260245ffd5b5f61218b82611d76565b915061219683611d76565b92508282019050808211156121ae576121ad612154565b5b92915050565b7f546f74616c204b69707542616e6b27732046756e6473206578636565646564005f82015250565b5f6121e8601f83611c70565b91506121f3826121b4565b602082019050919050565b5f6020820190508181035f830152612215816121dc565b9050919050565b7f4e487b71000000000000000000000000000000000000000000000000000000005f52604160045260245ffd5b7f4e487b71000000000000000000000000000000000000000000000000000000005f52603260045260245ffd5b5f81519050919050565b5f82825260208201905092915050565b5f819050602082019050919050565b6122a881611dca565b82525050565b5f6122b9838361229f565b60208301905092915050565b5f602082019050919050565b5f6122db82612276565b6122e58185612280565b93506122f083612290565b805f5b8381101561232057815161230788826122ae565b9750612312836122c5565b9250506001810190506122f3565b5085935050505092915050565b5f60a0820190506123405f830188611d7f565b61234d6020830187611d7f565b818103604083015261235f81866122d1565b905061236e6060830185611eaa565b61237b6080830184611d7f565b9695505050505050565b5f61238f82611d76565b915061239a83611d76565b92508282039050818111156123b2576123b1612154565b5b92915050565b5f6040820190506123cb5f830185611eaa565b6123d86020830184611d7f565b9392505050565b7f416d6f756e74206578636565647320746865206d6178696d756d2077697468645f8201527f726177616c000000000000000000000000000000000000000000000000000000602082015250565b5f612439602583611c70565b9150612444826123df565b604082019050919050565b5f6020820190508181035f8301526124668161242d565b9050919050565b7f4e6f7420656e6f7567682046756e6473000000000000000000000000000000005f82015250565b5f6124a1601083611c70565b91506124ac8261246d565b602082019050919050565b5f6020820190508181035f8301526124ce81612495565b9050919050565b5f6dffffffffffffffffffffffffffff82169050919050565b6124f7816124d5565b8114612501575f80fd5b50565b5f81519050612512816124ee565b92915050565b5f63ffffffff82169050919050565b61253081612518565b811461253a575f80fd5b50565b5f8151905061254b81612527565b92915050565b5f805f6060848603121561256857612567611da7565b5b5f61257586828701612504565b935050602061258686828701612504565b92505060406125978682870161253d565b9150509250925092565b5f6125ab82611d76565b91506125b683611d76565b92508282026125c481611d76565b915082820484148315176125db576125da612154565b5b5092915050565b5f6125ec826124d5565b91506125f7836124d5565b9250828202612605816124d5565b915080821461261757612616612154565b5b5092915050565b7f4e487b71000000000000000000000000000000000000000000000000000000005f52601260045260245ffd5b5f61265582611d76565b915061266083611d76565b9250826126705761266f61261e565b5b828204905092915050565b5f60608201905061268e5f830186611eaa565b61269b6020830185611eaa565b6126a86040830184611d7f565b949350505050565b5f6080820190506126c35f830187611d7f565b81810360208301526126d581866122d1565b90506126e46040830185611eaa565b6126f16060830184611d7f565b9594505050505056fea26469706673582212206897f11937a188af94acc88bb3a40f0bdf8dcc540dc41598a1136dfa616e27e264736f6c634300081a0033",
					"opcodes": "PUSH2 0x120 PUSH1 0x40 MSTORE CALLVALUE DUP1 ISZERO PUSH2 0x10 JUMPI PUSH0 DUP1 REVERT JUMPDEST POP PUSH1 0x40 MLOAD PUSH2 0x2D41 CODESIZE SUB DUP1 PUSH2 0x2D41 DUP4 CODECOPY DUP2 DUP2 ADD PUSH1 0x40 MSTORE DUP2 ADD SWAP1 PUSH2 0x32 SWAP2 SWAP1 PUSH2 0x3D4 JUMP JUMPDEST DUP6 PUSH0 PUSH20 0xFFFFFFFFFFFFFFFFFFFFFFFFFFFFFFFFFFFFFFFF AND DUP2 PUSH20 0xFFFFFFFFFFFFFFFFFFFFFFFFFFFFFFFFFFFFFFFF AND SUB PUSH2 0xA3 JUMPI PUSH0 PUSH1 0x40 MLOAD PUSH32 0x1E4FBDF700000000000000000000000000000000000000000000000000000000 DUP2 MSTORE PUSH1 0x4 ADD PUSH2 0x9A SWAP2 SWAP1 PUSH2 0x46C JUMP JUMPDEST PUSH1 0x40 MLOAD DUP1 SWAP2 SUB SWAP1 REVERT JUMPDEST PUSH2 0xB2 DUP2 PUSH2 0x282 PUSH1 0x20 SHL PUSH1 0x20 SHR JUMP JUMPDEST POP PUSH1 0x1 DUP1 DUP2 SWAP1 SSTORE POP PUSH1 0xA DUP3 LT DUP1 PUSH2 0xC9 JUMPI POP PUSH1 0x1 DUP2 LT JUMPDEST ISZERO PUSH2 0xFF JUMPI PUSH1 0x40 MLOAD PUSH31 0x1D65100000000000000000000000000000000000000000000000000000000 DUP2 MSTORE PUSH1 0x4 ADD PUSH1 0x40 MLOAD DUP1 SWAP2 SUB SWAP1 REVERT JUMPDEST PUSH3 0xF4240 DUP3 PUSH2 0x10E SWAP2 SWAP1 PUSH2 0x4B2 JUMP JUMPDEST PUSH1 0x80 DUP2 DUP2 MSTORE POP POP PUSH3 0xF4240 DUP2 PUSH2 0x124 SWAP2 SWAP1 PUSH2 0x4B2 JUMP JUMPDEST PUSH1 0xA0 DUP2 DUP2 MSTORE POP POP DUP4 PUSH20 0xFFFFFFFFFFFFFFFFFFFFFFFFFFFFFFFFFFFFFFFF AND PUSH1 0xC0 DUP2 PUSH20 0xFFFFFFFFFFFFFFFFFFFFFFFFFFFFFFFFFFFFFFFF AND DUP2 MSTORE POP POP DUP5 PUSH20 0xFFFFFFFFFFFFFFFFFFFFFFFFFFFFFFFFFFFFFFFF AND PUSH1 0xE0 DUP2 PUSH20 0xFFFFFFFFFFFFFFFFFFFFFFFFFFFFFFFFFFFFFFFF AND DUP2 MSTORE POP POP DUP3 PUSH20 0xFFFFFFFFFFFFFFFFFFFFFFFFFFFFFFFFFFFFFFFF AND PUSH2 0x100 DUP2 PUSH20 0xFFFFFFFFFFFFFFFFFFFFFFFFFFFFFFFFFFFFFFFF AND DUP2 MSTORE POP POP PUSH2 0x100 MLOAD PUSH20 0xFFFFFFFFFFFFFFFFFFFFFFFFFFFFFFFFFFFFFFFF AND PUSH4 0xC45A0155 PUSH1 0x40 MLOAD DUP2 PUSH4 0xFFFFFFFF AND PUSH1 0xE0 SHL DUP2 MSTORE PUSH1 0x4 ADD PUSH1 0x20 PUSH1 0x40 MLOAD DUP1 DUP4 SUB DUP2 DUP7 GAS STATICCALL ISZERO DUP1 ISZERO PUSH2 0x214 JUMPI RETURNDATASIZE PUSH0 DUP1 RETURNDATACOPY RETURNDATASIZE PUSH0 REVERT JUMPDEST POP POP POP POP PUSH1 0x40 MLOAD RETURNDATASIZE PUSH1 0x1F NOT PUSH1 0x1F DUP3 ADD AND DUP3 ADD DUP1 PUSH1 0x40 MSTORE POP DUP2 ADD SWAP1 PUSH2 0x238 SWAP2 SWAP1 PUSH2 0x4F3 JUMP JUMPDEST PUSH1 0x5 PUSH0 PUSH2 0x100 EXP DUP2 SLOAD DUP2 PUSH20 0xFFFFFFFFFFFFFFFFFFFFFFFFFFFFFFFFFFFFFFFF MUL NOT AND SWAP1 DUP4 PUSH20 0xFFFFFFFFFFFFFFFFFFFFFFFFFFFFFFFFFFFFFFFF AND MUL OR SWAP1 SSTORE POP POP POP POP POP POP POP PUSH2 0x51E JUMP JUMPDEST PUSH0 DUP1 PUSH0 SWAP1 SLOAD SWAP1 PUSH2 0x100 EXP SWAP1 DIV PUSH20 0xFFFFFFFFFFFFFFFFFFFFFFFFFFFFFFFFFFFFFFFF AND SWAP1 POP DUP2 PUSH0 DUP1 PUSH2 0x100 EXP DUP2 SLOAD DUP2 PUSH20 0xFFFFFFFFFFFFFFFFFFFFFFFFFFFFFFFFFFFFFFFF MUL NOT AND SWAP1 DUP4 PUSH20 0xFFFFFFFFFFFFFFFFFFFFFFFFFFFFFFFFFFFFFFFF AND MUL OR SWAP1 SSTORE POP DUP2 PUSH20 0xFFFFFFFFFFFFFFFFFFFFFFFFFFFFFFFFFFFFFFFF AND DUP2 PUSH20 0xFFFFFFFFFFFFFFFFFFFFFFFFFFFFFFFFFFFFFFFF AND PUSH32 0x8BE0079C531659141344CD1FD0A4F28419497F9722A3DAAFE3B4186F6B6457E0 PUSH1 0x40 MLOAD PUSH1 0x40 MLOAD DUP1 SWAP2 SUB SWAP1 LOG3 POP POP JUMP JUMPDEST PUSH0 DUP1 REVERT JUMPDEST PUSH0 PUSH20 0xFFFFFFFFFFFFFFFFFFFFFFFFFFFFFFFFFFFFFFFF DUP3 AND SWAP1 POP SWAP2 SWAP1 POP JUMP JUMPDEST PUSH0 PUSH2 0x370 DUP3 PUSH2 0x347 JUMP JUMPDEST SWAP1 POP SWAP2 SWAP1 POP JUMP JUMPDEST PUSH2 0x380 DUP2 PUSH2 0x366 JUMP JUMPDEST DUP2 EQ PUSH2 0x38A JUMPI PUSH0 DUP1 REVERT JUMPDEST POP JUMP JUMPDEST PUSH0 DUP2 MLOAD SWAP1 POP PUSH2 0x39B DUP2 PUSH2 0x377 JUMP JUMPDEST SWAP3 SWAP2 POP POP JUMP JUMPDEST PUSH0 DUP2 SWAP1 POP SWAP2 SWAP1 POP JUMP JUMPDEST PUSH2 0x3B3 DUP2 PUSH2 0x3A1 JUMP JUMPDEST DUP2 EQ PUSH2 0x3BD JUMPI PUSH0 DUP1 REVERT JUMPDEST POP JUMP JUMPDEST PUSH0 DUP2 MLOAD SWAP1 POP PUSH2 0x3CE DUP2 PUSH2 0x3AA JUMP JUMPDEST SWAP3 SWAP2 POP POP JUMP JUMPDEST PUSH0 DUP1 PUSH0 DUP1 PUSH0 DUP1 PUSH1 0xC0 DUP8 DUP10 SUB SLT ISZERO PUSH2 0x3EE JUMPI PUSH2 0x3ED PUSH2 0x343 JUMP JUMPDEST JUMPDEST PUSH0 PUSH2 0x3FB DUP10 DUP3 DUP11 ADD PUSH2 0x38D JUMP JUMPDEST SWAP7 POP POP PUSH1 0x20 PUSH2 0x40C DUP10 DUP3 DUP11 ADD PUSH2 0x38D JUMP JUMPDEST SWAP6 POP POP PUSH1 0x40 PUSH2 0x41D DUP10 DUP3 DUP11 ADD PUSH2 0x38D JUMP JUMPDEST SWAP5 POP POP PUSH1 0x60 PUSH2 0x42E DUP10 DUP3 DUP11 ADD PUSH2 0x38D JUMP JUMPDEST SWAP4 POP POP PUSH1 0x80 PUSH2 0x43F DUP10 DUP3 DUP11 ADD PUSH2 0x3C0 JUMP JUMPDEST SWAP3 POP POP PUSH1 0xA0 PUSH2 0x450 DUP10 DUP3 DUP11 ADD PUSH2 0x3C0 JUMP JUMPDEST SWAP2 POP POP SWAP3 SWAP6 POP SWAP3 SWAP6 POP SWAP3 SWAP6 JUMP JUMPDEST PUSH2 0x466 DUP2 PUSH2 0x366 JUMP JUMPDEST DUP3 MSTORE POP POP JUMP JUMPDEST PUSH0 PUSH1 0x20 DUP3 ADD SWAP1 POP PUSH2 0x47F PUSH0 DUP4 ADD DUP5 PUSH2 0x45D JUMP JUMPDEST SWAP3 SWAP2 POP POP JUMP JUMPDEST PUSH32 0x4E487B7100000000000000000000000000000000000000000000000000000000 PUSH0 MSTORE PUSH1 0x11 PUSH1 0x4 MSTORE PUSH1 0x24 PUSH0 REVERT JUMPDEST PUSH0 PUSH2 0x4BC DUP3 PUSH2 0x3A1 JUMP JUMPDEST SWAP2 POP PUSH2 0x4C7 DUP4 PUSH2 0x3A1 JUMP JUMPDEST SWAP3 POP DUP3 DUP3 MUL PUSH2 0x4D5 DUP2 PUSH2 0x3A1 JUMP JUMPDEST SWAP2 POP DUP3 DUP3 DIV DUP5 EQ DUP4 ISZERO OR PUSH2 0x4EC JUMPI PUSH2 0x4EB PUSH2 0x485 JUMP JUMPDEST JUMPDEST POP SWAP3 SWAP2 POP POP JUMP JUMPDEST PUSH0 PUSH1 0x20 DUP3 DUP5 SUB SLT ISZERO PUSH2 0x508 JUMPI PUSH2 0x507 PUSH2 0x343 JUMP JUMPDEST JUMPDEST PUSH0 PUSH2 0x515 DUP5 DUP3 DUP6 ADD PUSH2 0x38D JUMP JUMPDEST SWAP2 POP POP SWAP3 SWAP2 POP POP JUMP JUMPDEST PUSH1 0x80 MLOAD PUSH1 0xA0 MLOAD PUSH1 0xC0 MLOAD PUSH1 0xE0 MLOAD PUSH2 0x100 MLOAD PUSH2 0x2730 PUSH2 0x611 PUSH0 CODECOPY PUSH0 DUP2 DUP2 PUSH2 0x9DC ADD MSTORE DUP2 DUP2 PUSH2 0xE71 ADD MSTORE PUSH2 0x195A ADD MSTORE PUSH0 DUP2 DUP2 PUSH2 0xC5C ADD MSTORE DUP2 DUP2 PUSH2 0x17EC ADD MSTORE DUP2 DUP2 PUSH2 0x187D ADD MSTORE PUSH2 0x1B65 ADD MSTORE PUSH0 DUP2 DUP2 PUSH2 0x4B8 ADD MSTORE DUP2 DUP2 PUSH2 0x6CF ADD MSTORE DUP2 DUP2 PUSH2 0x7E5 ADD MSTORE DUP2 DUP2 PUSH2 0x87F ADD MSTORE DUP2 DUP2 PUSH2 0x96D ADD MSTORE DUP2 DUP2 PUSH2 0xA78 ADD MSTORE DUP2 DUP2 PUSH2 0xDC0 ADD MSTORE DUP2 DUP2 PUSH2 0xEEE ADD MSTORE DUP2 DUP2 PUSH2 0x1047 ADD MSTORE DUP2 DUP2 PUSH2 0x106C ADD MSTORE DUP2 DUP2 PUSH2 0x1106 ADD MSTORE DUP2 DUP2 PUSH2 0x11FB ADD MSTORE DUP2 DUP2 PUSH2 0x159C ADD MSTORE DUP2 DUP2 PUSH2 0x166A ADD MSTORE DUP2 DUP2 PUSH2 0x174E ADD MSTORE DUP2 DUP2 PUSH2 0x18EB ADD MSTORE PUSH2 0x19F6 ADD MSTORE PUSH0 DUP2 DUP2 PUSH2 0x44C ADD MSTORE PUSH2 0xC8A ADD MSTORE PUSH0 DUP2 DUP2 PUSH2 0x6AD ADD MSTORE DUP2 DUP2 PUSH2 0xB2B ADD MSTORE DUP2 DUP2 PUSH2 0x1023 ADD MSTORE DUP2 DUP2 PUSH2 0x1648 ADD MSTORE PUSH2 0x1A9F ADD MSTORE PUSH2 0x2730 PUSH0 RETURN INVALID PUSH1 0x80 PUSH1 0x40 MSTORE PUSH1 0x4 CALLDATASIZE LT PUSH2 0xF6 JUMPI PUSH0 CALLDATALOAD PUSH1 0xE0 SHR DUP1 PUSH4 0x8DA5CB5B GT PUSH2 0x89 JUMPI DUP1 PUSH4 0xF2FDE38B GT PUSH2 0x58 JUMPI DUP1 PUSH4 0xF2FDE38B EQ PUSH2 0x355 JUMPI DUP1 PUSH4 0xF3DB702C EQ PUSH2 0x37D JUMPI DUP1 PUSH4 0xF6687AF7 EQ PUSH2 0x3A7 JUMPI DUP1 PUSH4 0xFF40E1D0 EQ PUSH2 0x3D1 JUMPI PUSH2 0x13E JUMP JUMPDEST DUP1 PUSH4 0x8DA5CB5B EQ PUSH2 0x2CF JUMPI DUP1 PUSH4 0x9E2B5339 EQ PUSH2 0x2F9 JUMPI DUP1 PUSH4 0xC4CBCF3D EQ PUSH2 0x321 JUMPI DUP1 PUSH4 0xD0E30DB0 EQ PUSH2 0x34B JUMPI PUSH2 0x13E JUMP JUMPDEST DUP1 PUSH4 0x5B06DECE GT PUSH2 0xC5 JUMPI DUP1 PUSH4 0x5B06DECE EQ PUSH2 0x23D JUMPI DUP1 PUSH4 0x715018A6 EQ PUSH2 0x265 JUMPI DUP1 PUSH4 0x735DE9F7 EQ PUSH2 0x27B JUMPI DUP1 PUSH4 0x8BDB2AFA EQ PUSH2 0x2A5 JUMPI PUSH2 0x13E JUMP JUMPDEST DUP1 PUSH4 0x89781A9 EQ PUSH2 0x185 JUMPI DUP1 PUSH4 0x21425EE0 EQ PUSH2 0x1AF JUMPI DUP1 PUSH4 0x260AD389 EQ PUSH2 0x1D7 JUMPI DUP1 PUSH4 0x4DBE7E92 EQ PUSH2 0x213 JUMPI PUSH2 0x13E JUMP JUMPDEST CALLDATASIZE PUSH2 0x13E JUMPI PUSH2 0x103 PUSH2 0x3FB JUMP JUMPDEST PUSH1 0x40 MLOAD PUSH32 0x336EA14200000000000000000000000000000000000000000000000000000000 DUP2 MSTORE PUSH1 0x4 ADD PUSH2 0x135 SWAP1 PUSH2 0x1CCA JUMP JUMPDEST PUSH1 0x40 MLOAD DUP1 SWAP2 SUB SWAP1 REVERT JUMPDEST CALLVALUE DUP1 ISZERO PUSH2 0x149 JUMPI PUSH0 DUP1 REVERT JUMPDEST POP PUSH1 0x40 MLOAD PUSH32 0x336EA14200000000000000000000000000000000000000000000000000000000 DUP2 MSTORE PUSH1 0x4 ADD PUSH2 0x17C SWAP1 PUSH2 0x1D58 JUMP JUMPDEST PUSH1 0x40 MLOAD DUP1 SWAP2 SUB SWAP1 REVERT JUMPDEST CALLVALUE DUP1 ISZERO PUSH2 0x190 JUMPI PUSH0 DUP1 REVERT JUMPDEST POP PUSH2 0x199 PUSH2 0x44A JUMP JUMPDEST PUSH1 0x40 MLOAD PUSH2 0x1A6 SWAP2 SWAP1 PUSH2 0x1D8E JUMP JUMPDEST PUSH1 0x40 MLOAD DUP1 SWAP2 SUB SWAP1 RETURN JUMPDEST CALLVALUE DUP1 ISZERO PUSH2 0x1BA JUMPI PUSH0 DUP1 REVERT JUMPDEST POP PUSH2 0x1D5 PUSH1 0x4 DUP1 CALLDATASIZE SUB DUP2 ADD SWAP1 PUSH2 0x1D0 SWAP2 SWAP1 PUSH2 0x1E2F JUMP JUMPDEST PUSH2 0x46E JUMP JUMPDEST STOP JUMPDEST CALLVALUE DUP1 ISZERO PUSH2 0x1E2 JUMPI PUSH0 DUP1 REVERT JUMPDEST POP PUSH2 0x1FD PUSH1 0x4 DUP1 CALLDATASIZE SUB DUP2 ADD SWAP1 PUSH2 0x1F8 SWAP2 SWAP1 PUSH2 0x1E7F JUMP JUMPDEST PUSH2 0xC45 JUMP JUMPDEST PUSH1 0x40 MLOAD PUSH2 0x20A SWAP2 SWAP1 PUSH2 0x1D8E JUMP JUMPDEST PUSH1 0x40 MLOAD DUP1 SWAP2 SUB SWAP1 RETURN JUMPDEST CALLVALUE DUP1 ISZERO PUSH2 0x21E JUMPI PUSH0 DUP1 REVERT JUMPDEST POP PUSH2 0x227 PUSH2 0xC5A JUMP JUMPDEST PUSH1 0x40 MLOAD PUSH2 0x234 SWAP2 SWAP1 PUSH2 0x1EB9 JUMP JUMPDEST PUSH1 0x40 MLOAD DUP1 SWAP2 SUB SWAP1 RETURN JUMPDEST CALLVALUE DUP1 ISZERO PUSH2 0x248 JUMPI PUSH0 DUP1 REVERT JUMPDEST POP PUSH2 0x263 PUSH1 0x4 DUP1 CALLDATASIZE SUB DUP2 ADD SWAP1 PUSH2 0x25E SWAP2 SWAP1 PUSH2 0x1ED2 JUMP JUMPDEST PUSH2 0xC7E JUMP JUMPDEST STOP JUMPDEST CALLVALUE DUP1 ISZERO PUSH2 0x270 JUMPI PUSH0 DUP1 REVERT JUMPDEST POP PUSH2 0x279 PUSH2 0xE5C JUMP JUMPDEST STOP JUMPDEST CALLVALUE DUP1 ISZERO PUSH2 0x286 JUMPI PUSH0 DUP1 REVERT JUMPDEST POP PUSH2 0x28F PUSH2 0xE6F JUMP JUMPDEST PUSH1 0x40 MLOAD PUSH2 0x29C SWAP2 SWAP1 PUSH2 0x1F58 JUMP JUMPDEST PUSH1 0x40 MLOAD DUP1 SWAP2 SUB SWAP1 RETURN JUMPDEST CALLVALUE DUP1 ISZERO PUSH2 0x2B0 JUMPI PUSH0 DUP1 REVERT JUMPDEST POP PUSH2 0x2B9 PUSH2 0xE93 JUMP JUMPDEST PUSH1 0x40 MLOAD PUSH2 0x2C6 SWAP2 SWAP1 PUSH2 0x1F91 JUMP JUMPDEST PUSH1 0x40 MLOAD DUP1 SWAP2 SUB SWAP1 RETURN JUMPDEST CALLVALUE DUP1 ISZERO PUSH2 0x2DA JUMPI PUSH0 DUP1 REVERT JUMPDEST POP PUSH2 0x2E3 PUSH2 0xEB8 JUMP JUMPDEST PUSH1 0x40 MLOAD PUSH2 0x2F0 SWAP2 SWAP1 PUSH2 0x1EB9 JUMP JUMPDEST PUSH1 0x40 MLOAD DUP1 SWAP2 SUB SWAP1 RETURN JUMPDEST CALLVALUE DUP1 ISZERO PUSH2 0x304 JUMPI PUSH0 DUP1 REVERT JUMPDEST POP PUSH2 0x31F PUSH1 0x4 DUP1 CALLDATASIZE SUB DUP2 ADD SWAP1 PUSH2 0x31A SWAP2 SWAP1 PUSH2 0x1FAA JUMP JUMPDEST PUSH2 0xEDF JUMP JUMPDEST STOP JUMPDEST CALLVALUE DUP1 ISZERO PUSH2 0x32C JUMPI PUSH0 DUP1 REVERT JUMPDEST POP PUSH2 0x335 PUSH2 0xF6D JUMP JUMPDEST PUSH1 0x40 MLOAD PUSH2 0x342 SWAP2 SWAP1 PUSH2 0x1D8E JUMP JUMPDEST PUSH1 0x40 MLOAD DUP1 SWAP2 SUB SWAP1 RETURN JUMPDEST PUSH2 0x353 PUSH2 0xF7B JUMP JUMPDEST STOP JUMPDEST CALLVALUE DUP1 ISZERO PUSH2 0x360 JUMPI PUSH0 DUP1 REVERT JUMPDEST POP PUSH2 0x37B PUSH1 0x4 DUP1 CALLDATASIZE SUB DUP2 ADD SWAP1 PUSH2 0x376 SWAP2 SWAP1 PUSH2 0x1E7F JUMP JUMPDEST PUSH2 0xF97 JUMP JUMPDEST STOP JUMPDEST CALLVALUE DUP1 ISZERO PUSH2 0x388 JUMPI PUSH0 DUP1 REVERT JUMPDEST POP PUSH2 0x391 PUSH2 0x101B JUMP JUMPDEST PUSH1 0x40 MLOAD PUSH2 0x39E SWAP2 SWAP1 PUSH2 0x1D8E JUMP JUMPDEST PUSH1 0x40 MLOAD DUP1 SWAP2 SUB SWAP1 RETURN JUMPDEST CALLVALUE DUP1 ISZERO PUSH2 0x3B2 JUMPI PUSH0 DUP1 REVERT JUMPDEST POP PUSH2 0x3BB PUSH2 0x1021 JUMP JUMPDEST PUSH1 0x40 MLOAD PUSH2 0x3C8 SWAP2 SWAP1 PUSH2 0x1D8E JUMP JUMPDEST PUSH1 0x40 MLOAD DUP1 SWAP2 SUB SWAP1 RETURN JUMPDEST CALLVALUE DUP1 ISZERO PUSH2 0x3DC JUMPI PUSH0 DUP1 REVERT JUMPDEST POP PUSH2 0x3E5 PUSH2 0x1045 JUMP JUMPDEST PUSH1 0x40 MLOAD PUSH2 0x3F2 SWAP2 SWAP1 PUSH2 0x2008 JUMP JUMPDEST PUSH1 0x40 MLOAD DUP1 SWAP2 SUB SWAP1 RETURN JUMPDEST PUSH1 0x2 PUSH1 0x1 SLOAD SUB PUSH2 0x437 JUMPI PUSH1 0x40 MLOAD PUSH32 0x3EE5AEB500000000000000000000000000000000000000000000000000000000 DUP2 MSTORE PUSH1 0x4 ADD PUSH1 0x40 MLOAD DUP1 SWAP2 SUB SWAP1 REVERT JUMPDEST PUSH1 0x2 PUSH1 0x1 DUP2 SWAP1 SSTORE POP JUMP JUMPDEST PUSH1 0x1 DUP1 DUP2 SWAP1 SSTORE POP JUMP JUMPDEST PUSH32 0x0 DUP2 JUMP JUMPDEST PUSH2 0x476 PUSH2 0x3FB JUMP JUMPDEST DUP3 PUSH0 PUSH1 0x5 PUSH0 SWAP1 SLOAD SWAP1 PUSH2 0x100 EXP SWAP1 DIV PUSH20 0xFFFFFFFFFFFFFFFFFFFFFFFFFFFFFFFFFFFFFFFF AND PUSH20 0xFFFFFFFFFFFFFFFFFFFFFFFFFFFFFFFFFFFFFFFF AND PUSH4 0xE6A43905 DUP4 PUSH32 0x0 PUSH1 0x40 MLOAD DUP4 PUSH4 0xFFFFFFFF AND PUSH1 0xE0 SHL DUP2 MSTORE PUSH1 0x4 ADD PUSH2 0x4F4 SWAP3 SWAP2 SWAP1 PUSH2 0x2021 JUMP JUMPDEST PUSH1 0x20 PUSH1 0x40 MLOAD DUP1 DUP4 SUB DUP2 DUP7 GAS STATICCALL ISZERO DUP1 ISZERO PUSH2 0x50F JUMPI RETURNDATASIZE PUSH0 DUP1 RETURNDATACOPY RETURNDATASIZE PUSH0 REVERT JUMPDEST POP POP POP POP PUSH1 0x40 MLOAD RETURNDATASIZE PUSH1 0x1F NOT PUSH1 0x1F DUP3 ADD AND DUP3 ADD DUP1 PUSH1 0x40 MSTORE POP DUP2 ADD SWAP1 PUSH2 0x533 SWAP2 SWAP1 PUSH2 0x205C JUMP JUMPDEST SWAP1 POP PUSH0 PUSH20 0xFFFFFFFFFFFFFFFFFFFFFFFFFFFFFFFFFFFFFFFF AND DUP2 PUSH20 0xFFFFFFFFFFFFFFFFFFFFFFFFFFFFFFFFFFFFFFFF AND SUB PUSH2 0x5A5 JUMPI DUP2 PUSH1 0x40 MLOAD PUSH32 0xE584A63F00000000000000000000000000000000000000000000000000000000 DUP2 MSTORE PUSH1 0x4 ADD PUSH2 0x59C SWAP2 SWAP1 PUSH2 0x1EB9 JUMP JUMPDEST PUSH1 0x40 MLOAD DUP1 SWAP2 SUB SWAP1 REVERT JUMPDEST DUP5 DUP5 PUSH0 PUSH20 0xFFFFFFFFFFFFFFFFFFFFFFFFFFFFFFFFFFFFFFFF AND DUP3 PUSH20 0xFFFFFFFFFFFFFFFFFFFFFFFFFFFFFFFFFFFFFFFF AND EQ PUSH2 0x69C JUMPI PUSH0 DUP3 SWAP1 POP DUP2 DUP2 PUSH20 0xFFFFFFFFFFFFFFFFFFFFFFFFFFFFFFFFFFFFFFFF AND PUSH4 0xDD62ED3E CALLER ADDRESS PUSH1 0x40 MLOAD DUP4 PUSH4 0xFFFFFFFF AND PUSH1 0xE0 SHL DUP2 MSTORE PUSH1 0x4 ADD PUSH2 0x61A SWAP3 SWAP2 SWAP1 PUSH2 0x2021 JUMP JUMPDEST PUSH1 0x20 PUSH1 0x40 MLOAD DUP1 DUP4 SUB DUP2 DUP7 GAS STATICCALL ISZERO DUP1 ISZERO PUSH2 0x635 JUMPI RETURNDATASIZE PUSH0 DUP1 RETURNDATACOPY RETURNDATASIZE PUSH0 REVERT JUMPDEST POP POP POP POP PUSH1 0x40 MLOAD RETURNDATASIZE PUSH1 0x1F NOT PUSH1 0x1F DUP3 ADD AND DUP3 ADD DUP1 PUSH1 0x40 MSTORE POP DUP2 ADD SWAP1 PUSH2 0x659 SWAP2 SWAP1 PUSH2 0x209B JUMP JUMPDEST LT ISZERO PUSH2 0x69A JUMPI PUSH1 0x40 MLOAD PUSH32 0x336EA14200000000000000000000000000000000000000000000000000000000 DUP2 MSTORE PUSH1 0x4 ADD PUSH2 0x691 SWAP1 PUSH2 0x2136 JUMP JUMPDEST PUSH1 0x40 MLOAD DUP1 SWAP2 SUB SWAP1 REVERT JUMPDEST POP JUMPDEST DUP7 DUP7 PUSH0 PUSH2 0x6A9 DUP4 DUP4 PUSH2 0x1069 JUMP JUMPDEST SWAP1 POP PUSH32 0x0 DUP2 PUSH32 0x0 PUSH20 0xFFFFFFFFFFFFFFFFFFFFFFFFFFFFFFFFFFFFFFFF AND PUSH4 0x70A08231 ADDRESS PUSH1 0x40 MLOAD DUP3 PUSH4 0xFFFFFFFF AND PUSH1 0xE0 SHL DUP2 MSTORE PUSH1 0x4 ADD PUSH2 0x726 SWAP2 SWAP1 PUSH2 0x1EB9 JUMP JUMPDEST PUSH1 0x20 PUSH1 0x40 MLOAD DUP1 DUP4 SUB DUP2 DUP7 GAS STATICCALL ISZERO DUP1 ISZERO PUSH2 0x741 JUMPI RETURNDATASIZE PUSH0 DUP1 RETURNDATACOPY RETURNDATASIZE PUSH0 REVERT JUMPDEST POP POP POP POP PUSH1 0x40 MLOAD RETURNDATASIZE PUSH1 0x1F NOT PUSH1 0x1F DUP3 ADD AND DUP3 ADD DUP1 PUSH1 0x40 MSTORE POP DUP2 ADD SWAP1 PUSH2 0x765 SWAP2 SWAP1 PUSH2 0x209B JUMP JUMPDEST PUSH2 0x76F SWAP2 SWAP1 PUSH2 0x2181 JUMP JUMPDEST GT ISZERO PUSH2 0x7B0 JUMPI PUSH1 0x40 MLOAD PUSH32 0xA2D2E1B200000000000000000000000000000000000000000000000000000000 DUP2 MSTORE PUSH1 0x4 ADD PUSH2 0x7A7 SWAP1 PUSH2 0x21FE JUMP JUMPDEST PUSH1 0x40 MLOAD DUP1 SWAP2 SUB SWAP1 REVERT JUMPDEST PUSH0 DUP11 SWAP1 POP PUSH2 0x7E1 CALLER ADDRESS DUP13 DUP5 PUSH20 0xFFFFFFFFFFFFFFFFFFFFFFFFFFFFFFFFFFFFFFFF AND PUSH2 0x12D3 SWAP1 SWAP4 SWAP3 SWAP2 SWAP1 PUSH4 0xFFFFFFFF AND JUMP JUMPDEST PUSH0 DUP1 PUSH32 0x0 PUSH20 0xFFFFFFFFFFFFFFFFFFFFFFFFFFFFFFFFFFFFFFFF AND PUSH4 0x70A08231 ADDRESS PUSH1 0x40 MLOAD DUP3 PUSH4 0xFFFFFFFF AND PUSH1 0xE0 SHL DUP2 MSTORE PUSH1 0x4 ADD PUSH2 0x83C SWAP2 SWAP1 PUSH2 0x1EB9 JUMP JUMPDEST PUSH1 0x20 PUSH1 0x40 MLOAD DUP1 DUP4 SUB DUP2 DUP7 GAS STATICCALL ISZERO DUP1 ISZERO PUSH2 0x857 JUMPI RETURNDATASIZE PUSH0 DUP1 RETURNDATACOPY RETURNDATASIZE PUSH0 REVERT JUMPDEST POP POP POP POP PUSH1 0x40 MLOAD RETURNDATASIZE PUSH1 0x1F NOT PUSH1 0x1F DUP3 ADD AND DUP3 ADD DUP1 PUSH1 0x40 MSTORE POP DUP2 ADD SWAP1 PUSH2 0x87B SWAP2 SWAP1 PUSH2 0x209B JUMP JUMPDEST SWAP1 POP PUSH32 0x0 PUSH20 0xFFFFFFFFFFFFFFFFFFFFFFFFFFFFFFFFFFFFFFFF AND DUP14 PUSH20 0xFFFFFFFFFFFFFFFFFFFFFFFFFFFFFFFFFFFFFFFF AND EQ PUSH2 0xB25 JUMPI PUSH0 PUSH1 0x2 PUSH8 0xFFFFFFFFFFFFFFFF DUP2 GT ISZERO PUSH2 0x8EC JUMPI PUSH2 0x8EB PUSH2 0x221C JUMP JUMPDEST JUMPDEST PUSH1 0x40 MLOAD SWAP1 DUP1 DUP3 MSTORE DUP1 PUSH1 0x20 MUL PUSH1 0x20 ADD DUP3 ADD PUSH1 0x40 MSTORE DUP1 ISZERO PUSH2 0x91A JUMPI DUP2 PUSH1 0x20 ADD PUSH1 0x20 DUP3 MUL DUP1 CALLDATASIZE DUP4 CALLDATACOPY DUP1 DUP3 ADD SWAP2 POP POP SWAP1 POP JUMPDEST POP SWAP1 POP DUP14 DUP2 PUSH0 DUP2 MLOAD DUP2 LT PUSH2 0x931 JUMPI PUSH2 0x930 PUSH2 0x2249 JUMP JUMPDEST JUMPDEST PUSH1 0x20 MUL PUSH1 0x20 ADD ADD SWAP1 PUSH20 0xFFFFFFFFFFFFFFFFFFFFFFFFFFFFFFFFFFFFFFFF AND SWAP1 DUP2 PUSH20 0xFFFFFFFFFFFFFFFFFFFFFFFFFFFFFFFFFFFFFFFF AND DUP2 MSTORE POP POP PUSH32 0x0 DUP2 PUSH1 0x1 DUP2 MLOAD DUP2 LT PUSH2 0x9A0 JUMPI PUSH2 0x99F PUSH2 0x2249 JUMP JUMPDEST JUMPDEST PUSH1 0x20 MUL PUSH1 0x20 ADD ADD SWAP1 PUSH20 0xFFFFFFFFFFFFFFFFFFFFFFFFFFFFFFFFFFFFFFFF AND SWAP1 DUP2 PUSH20 0xFFFFFFFFFFFFFFFFFFFFFFFFFFFFFFFFFFFFFFFF AND DUP2 MSTORE POP POP PUSH32 0x0 PUSH20 0xFFFFFFFFFFFFFFFFFFFFFFFFFFFFFFFFFFFFFFFF AND PUSH4 0x5C11D795 DUP15 DUP15 DUP5 ADDRESS PUSH2 0x12C TIMESTAMP PUSH2 0xA28 SWAP2 SWAP1 PUSH2 0x2181 JUMP JUMPDEST PUSH1 0x40 MLOAD DUP7 PUSH4 0xFFFFFFFF AND PUSH1 0xE0 SHL DUP2 MSTORE PUSH1 0x4 ADD PUSH2 0xA48 SWAP6 SWAP5 SWAP4 SWAP3 SWAP2 SWAP1 PUSH2 0x232D JUMP JUMPDEST PUSH0 PUSH1 0x40 MLOAD DUP1 DUP4 SUB DUP2 PUSH0 DUP8 DUP1 EXTCODESIZE ISZERO DUP1 ISZERO PUSH2 0xA5F JUMPI PUSH0 DUP1 REVERT JUMPDEST POP GAS CALL ISZERO DUP1 ISZERO PUSH2 0xA71 JUMPI RETURNDATASIZE PUSH0 DUP1 RETURNDATACOPY RETURNDATASIZE PUSH0 REVERT JUMPDEST POP POP POP POP PUSH0 PUSH32 0x0 PUSH20 0xFFFFFFFFFFFFFFFFFFFFFFFFFFFFFFFFFFFFFFFF AND PUSH4 0x70A08231 ADDRESS PUSH1 0x40 MLOAD DUP3 PUSH4 0xFFFFFFFF AND PUSH1 0xE0 SHL DUP2 MSTORE PUSH1 0x4 ADD PUSH2 0xACF SWAP2 SWAP1 PUSH2 0x1EB9 JUMP JUMPDEST PUSH1 0x20 PUSH1 0x40 MLOAD DUP1 DUP4 SUB DUP2 DUP7 GAS STATICCALL ISZERO DUP1 ISZERO PUSH2 0xAEA JUMPI RETURNDATASIZE PUSH0 DUP1 RETURNDATACOPY RETURNDATASIZE PUSH0 REVERT JUMPDEST POP POP POP POP PUSH1 0x40 MLOAD RETURNDATASIZE PUSH1 0x1F NOT PUSH1 0x1F DUP3 ADD AND DUP3 ADD DUP1 PUSH1 0x40 MSTORE POP DUP2 ADD SWAP1 PUSH2 0xB0E SWAP2 SWAP1 PUSH2 0x209B JUMP JUMPDEST SWAP1 POP DUP3 DUP2 PUSH2 0xB1C SWAP2 SWAP1 PUSH2 0x2385 JUMP JUMPDEST SWAP4 POP POP POP PUSH2 0xB29 JUMP JUMPDEST DUP12 SWAP2 POP JUMPDEST PUSH32 0x0 DUP3 DUP3 PUSH2 0xB56 SWAP2 SWAP1 PUSH2 0x2181 JUMP JUMPDEST GT ISZERO PUSH2 0xB97 JUMPI PUSH1 0x40 MLOAD PUSH32 0xA2D2E1B200000000000000000000000000000000000000000000000000000000 DUP2 MSTORE PUSH1 0x4 ADD PUSH2 0xB8E SWAP1 PUSH2 0x21FE JUMP JUMPDEST PUSH1 0x40 MLOAD DUP1 SWAP2 SUB SWAP1 REVERT JUMPDEST DUP2 PUSH1 0x2 PUSH0 CALLER PUSH20 0xFFFFFFFFFFFFFFFFFFFFFFFFFFFFFFFFFFFFFFFF AND PUSH20 0xFFFFFFFFFFFFFFFFFFFFFFFFFFFFFFFFFFFFFFFF AND DUP2 MSTORE PUSH1 0x20 ADD SWAP1 DUP2 MSTORE PUSH1 0x20 ADD PUSH0 KECCAK256 PUSH0 DUP3 DUP3 SLOAD PUSH2 0xBE3 SWAP2 SWAP1 PUSH2 0x2181 JUMP JUMPDEST SWAP3 POP POP DUP2 SWAP1 SSTORE POP PUSH2 0xBF5 PUSH1 0x1 DUP15 PUSH2 0x1355 JUMP JUMPDEST PUSH32 0x7B7CD0DDBBEA241880E825E1EB51C30752CB96DD7EFEB4BE691EC55DFA4D8963 CALLER DUP4 PUSH1 0x40 MLOAD PUSH2 0xC26 SWAP3 SWAP2 SWAP1 PUSH2 0x23B8 JUMP JUMPDEST PUSH1 0x40 MLOAD DUP1 SWAP2 SUB SWAP1 LOG1 POP POP POP POP POP POP POP POP POP POP PUSH2 0xC40 PUSH2 0x441 JUMP JUMPDEST POP POP POP JUMP JUMPDEST PUSH1 0x3 PUSH1 0x20 MSTORE DUP1 PUSH0 MSTORE PUSH1 0x40 PUSH0 KECCAK256 PUSH0 SWAP2 POP SWAP1 POP SLOAD DUP2 JUMP JUMPDEST PUSH32 0x0 DUP2 JUMP JUMPDEST PUSH2 0xC86 PUSH2 0x3FB JUMP JUMPDEST DUP1 DUP1 PUSH32 0x0 LT ISZERO PUSH2 0xCEA JUMPI PUSH1 0x40 MLOAD PUSH32 0xFC0517400000000000000000000000000000000000000000000000000000000 DUP2 MSTORE PUSH1 0x4 ADD PUSH2 0xCE1 SWAP1 PUSH2 0x244F JUMP JUMPDEST PUSH1 0x40 MLOAD DUP1 SWAP2 SUB SWAP1 REVERT JUMPDEST DUP1 PUSH1 0x2 PUSH0 CALLER PUSH20 0xFFFFFFFFFFFFFFFFFFFFFFFFFFFFFFFFFFFFFFFF AND PUSH20 0xFFFFFFFFFFFFFFFFFFFFFFFFFFFFFFFFFFFFFFFF AND DUP2 MSTORE PUSH1 0x20 ADD SWAP1 DUP2 MSTORE PUSH1 0x20 ADD PUSH0 KECCAK256 SLOAD LT ISZERO PUSH2 0xD6A JUMPI PUSH1 0x40 MLOAD PUSH32 0x986B5A3000000000000000000000000000000000000000000000000000000000 DUP2 MSTORE PUSH1 0x4 ADD PUSH2 0xD61 SWAP1 PUSH2 0x24B7 JUMP JUMPDEST PUSH1 0x40 MLOAD DUP1 SWAP2 SUB SWAP1 REVERT JUMPDEST DUP2 PUSH1 0x2 PUSH0 CALLER PUSH20 0xFFFFFFFFFFFFFFFFFFFFFFFFFFFFFFFFFFFFFFFF AND PUSH20 0xFFFFFFFFFFFFFFFFFFFFFFFFFFFFFFFFFFFFFFFF AND DUP2 MSTORE PUSH1 0x20 ADD SWAP1 DUP2 MSTORE PUSH1 0x20 ADD PUSH0 KECCAK256 PUSH0 DUP3 DUP3 SLOAD PUSH2 0xDB6 SWAP2 SWAP1 PUSH2 0x2385 JUMP JUMPDEST SWAP3 POP POP DUP2 SWAP1 SSTORE POP PUSH0 PUSH32 0x0 SWAP1 POP PUSH2 0xDEB PUSH0 DUP3 PUSH2 0x1355 JUMP JUMPDEST PUSH2 0xE16 CALLER DUP5 DUP4 PUSH20 0xFFFFFFFFFFFFFFFFFFFFFFFFFFFFFFFFFFFFFFFF AND PUSH2 0x13D2 SWAP1 SWAP3 SWAP2 SWAP1 PUSH4 0xFFFFFFFF AND JUMP JUMPDEST PUSH32 0x1FF21E81CFF87FCCBAC096AD565F52CB1B358DB04A736A6A137CCEB4A287A702 CALLER DUP5 PUSH1 0x40 MLOAD PUSH2 0xE47 SWAP3 SWAP2 SWAP1 PUSH2 0x23B8 JUMP JUMPDEST PUSH1 0x40 MLOAD DUP1 SWAP2 SUB SWAP1 LOG1 POP POP PUSH2 0xE59 PUSH2 0x441 JUMP JUMPDEST POP JUMP JUMPDEST PUSH2 0xE64 PUSH2 0x1451 JUMP JUMPDEST PUSH2 0xE6D PUSH0 PUSH2 0x14D8 JUMP JUMPDEST JUMP JUMPDEST PUSH32 0x0 DUP2 JUMP JUMPDEST PUSH1 0x5 PUSH0 SWAP1 SLOAD SWAP1 PUSH2 0x100 EXP SWAP1 DIV PUSH20 0xFFFFFFFFFFFFFFFFFFFFFFFFFFFFFFFFFFFFFFFF AND DUP2 JUMP JUMPDEST PUSH0 DUP1 PUSH0 SWAP1 SLOAD SWAP1 PUSH2 0x100 EXP SWAP1 DIV PUSH20 0xFFFFFFFFFFFFFFFFFFFFFFFFFFFFFFFFFFFFFFFF AND SWAP1 POP SWAP1 JUMP JUMPDEST PUSH2 0xEE7 PUSH2 0x1451 JUMP JUMPDEST PUSH2 0xF32 DUP2 DUP4 PUSH32 0x0 PUSH20 0xFFFFFFFFFFFFFFFFFFFFFFFFFFFFFFFFFFFFFFFF AND PUSH2 0x13D2 SWAP1 SWAP3 SWAP2 SWAP1 PUSH4 0xFFFFFFFF AND JUMP JUMPDEST PUSH32 0xBB8F0AFEF873E84FEB2F1167DD70A028E4F9ADA114828481F03ED1255AA0F541 DUP3 PUSH1 0x40 MLOAD PUSH2 0xF61 SWAP2 SWAP1 PUSH2 0x1D8E JUMP JUMPDEST PUSH1 0x40 MLOAD DUP1 SWAP2 SUB SWAP1 LOG1 POP POP JUMP JUMPDEST PUSH0 PUSH2 0xF76 PUSH2 0x1599 JUMP JUMPDEST SWAP1 POP SWAP1 JUMP JUMPDEST PUSH2 0xF83 PUSH2 0x3FB JUMP JUMPDEST PUSH2 0xF8D CALLER CALLVALUE PUSH2 0x1637 JUMP JUMPDEST PUSH2 0xF95 PUSH2 0x441 JUMP JUMPDEST JUMP JUMPDEST PUSH2 0xF9F PUSH2 0x1451 JUMP JUMPDEST PUSH0 PUSH20 0xFFFFFFFFFFFFFFFFFFFFFFFFFFFFFFFFFFFFFFFF AND DUP2 PUSH20 0xFFFFFFFFFFFFFFFFFFFFFFFFFFFFFFFFFFFFFFFF AND SUB PUSH2 0x100F JUMPI PUSH0 PUSH1 0x40 MLOAD PUSH32 0x1E4FBDF700000000000000000000000000000000000000000000000000000000 DUP2 MSTORE PUSH1 0x4 ADD PUSH2 0x1006 SWAP2 SWAP1 PUSH2 0x1EB9 JUMP JUMPDEST PUSH1 0x40 MLOAD DUP1 SWAP2 SUB SWAP1 REVERT JUMPDEST PUSH2 0x1018 DUP2 PUSH2 0x14D8 JUMP JUMPDEST POP JUMP JUMPDEST PUSH1 0x4 SLOAD DUP2 JUMP JUMPDEST PUSH32 0x0 DUP2 JUMP JUMPDEST PUSH32 0x0 DUP2 JUMP JUMPDEST PUSH0 PUSH32 0x0 PUSH20 0xFFFFFFFFFFFFFFFFFFFFFFFFFFFFFFFFFFFFFFFF AND DUP4 PUSH20 0xFFFFFFFFFFFFFFFFFFFFFFFFFFFFFFFFFFFFFFFF AND SUB PUSH2 0x10C5 JUMPI DUP2 SWAP1 POP PUSH2 0x12CD JUMP JUMPDEST PUSH0 PUSH1 0x5 PUSH0 SWAP1 SLOAD SWAP1 PUSH2 0x100 EXP SWAP1 DIV PUSH20 0xFFFFFFFFFFFFFFFFFFFFFFFFFFFFFFFFFFFFFFFF AND PUSH20 0xFFFFFFFFFFFFFFFFFFFFFFFFFFFFFFFFFFFFFFFF AND PUSH4 0xE6A43905 DUP6 PUSH32 0x0 PUSH1 0x40 MLOAD DUP4 PUSH4 0xFFFFFFFF AND PUSH1 0xE0 SHL DUP2 MSTORE PUSH1 0x4 ADD PUSH2 0x1142 SWAP3 SWAP2 SWAP1 PUSH2 0x2021 JUMP JUMPDEST PUSH1 0x20 PUSH1 0x40 MLOAD DUP1 DUP4 SUB DUP2 DUP7 GAS STATICCALL ISZERO DUP1 ISZERO PUSH2 0x115D JUMPI RETURNDATASIZE PUSH0 DUP1 RETURNDATACOPY RETURNDATASIZE PUSH0 REVERT JUMPDEST POP POP POP POP PUSH1 0x40 MLOAD RETURNDATASIZE PUSH1 0x1F NOT PUSH1 0x1F DUP3 ADD AND DUP3 ADD DUP1 PUSH1 0x40 MSTORE POP DUP2 ADD SWAP1 PUSH2 0x1181 SWAP2 SWAP1 PUSH2 0x205C JUMP JUMPDEST SWAP1 POP PUSH0 DUP1 DUP3 PUSH20 0xFFFFFFFFFFFFFFFFFFFFFFFFFFFFFFFFFFFFFFFF AND PUSH4 0x902F1AC PUSH1 0x40 MLOAD DUP2 PUSH4 0xFFFFFFFF AND PUSH1 0xE0 SHL DUP2 MSTORE PUSH1 0x4 ADD PUSH1 0x60 PUSH1 0x40 MLOAD DUP1 DUP4 SUB DUP2 DUP7 GAS STATICCALL ISZERO DUP1 ISZERO PUSH2 0x11CE JUMPI RETURNDATASIZE PUSH0 DUP1 RETURNDATACOPY RETURNDATASIZE PUSH0 REVERT JUMPDEST POP POP POP POP PUSH1 0x40 MLOAD RETURNDATASIZE PUSH1 0x1F NOT PUSH1 0x1F DUP3 ADD AND DUP3 ADD DUP1 PUSH1 0x40 MSTORE POP DUP2 ADD SWAP1 PUSH2 0x11F2 SWAP2 SWAP1 PUSH2 0x2551 JUMP JUMPDEST POP SWAP2 POP SWAP2 POP PUSH0 DUP1 PUSH32 0x0 PUSH20 0xFFFFFFFFFFFFFFFFFFFFFFFFFFFFFFFFFFFFFFFF AND DUP9 PUSH20 0xFFFFFFFFFFFFFFFFFFFFFFFFFFFFFFFFFFFFFFFF AND LT PUSH2 0x1253 JUMPI DUP3 DUP5 PUSH2 0x1256 JUMP JUMPDEST DUP4 DUP4 JUMPDEST SWAP2 POP SWAP2 POP PUSH0 PUSH2 0x3E5 DUP9 PUSH2 0x1269 SWAP2 SWAP1 PUSH2 0x25A1 JUMP JUMPDEST SWAP1 POP PUSH0 DUP3 PUSH14 0xFFFFFFFFFFFFFFFFFFFFFFFFFFFF AND DUP3 PUSH2 0x1288 SWAP2 SWAP1 PUSH2 0x25A1 JUMP JUMPDEST SWAP1 POP PUSH0 DUP3 PUSH2 0x3E8 DUP7 PUSH2 0x129A SWAP2 SWAP1 PUSH2 0x25E2 JUMP JUMPDEST PUSH14 0xFFFFFFFFFFFFFFFFFFFFFFFFFFFF AND PUSH2 0x12B4 SWAP2 SWAP1 PUSH2 0x2181 JUMP JUMPDEST SWAP1 POP DUP1 DUP3 PUSH2 0x12C2 SWAP2 SWAP1 PUSH2 0x264B JUMP JUMPDEST SWAP9 POP POP POP POP POP POP POP POP POP JUMPDEST SWAP3 SWAP2 POP POP JUMP JUMPDEST PUSH2 0x134F DUP5 DUP6 PUSH20 0xFFFFFFFFFFFFFFFFFFFFFFFFFFFFFFFFFFFFFFFF AND PUSH4 0x23B872DD DUP7 DUP7 DUP7 PUSH1 0x40 MLOAD PUSH1 0x24 ADD PUSH2 0x1308 SWAP4 SWAP3 SWAP2 SWAP1 PUSH2 0x267B JUMP JUMPDEST PUSH1 0x40 MLOAD PUSH1 0x20 DUP2 DUP4 SUB SUB DUP2 MSTORE SWAP1 PUSH1 0x40 MSTORE SWAP2 POP PUSH1 0xE0 SHL PUSH1 0x20 DUP3 ADD DUP1 MLOAD PUSH28 0xFFFFFFFFFFFFFFFFFFFFFFFFFFFFFFFFFFFFFFFFFFFFFFFFFFFFFFFF DUP4 DUP2 DUP4 AND OR DUP4 MSTORE POP POP POP POP PUSH2 0x1BCE JUMP JUMPDEST POP POP POP POP JUMP JUMPDEST DUP2 ISZERO PUSH2 0x13B4 JUMPI PUSH1 0x1 PUSH1 0x3 PUSH0 DUP4 PUSH20 0xFFFFFFFFFFFFFFFFFFFFFFFFFFFFFFFFFFFFFFFF AND PUSH20 0xFFFFFFFFFFFFFFFFFFFFFFFFFFFFFFFFFFFFFFFF AND DUP2 MSTORE PUSH1 0x20 ADD SWAP1 DUP2 MSTORE PUSH1 0x20 ADD PUSH0 KECCAK256 PUSH0 DUP3 DUP3 SLOAD PUSH2 0x13A8 SWAP2 SWAP1 PUSH2 0x2181 JUMP JUMPDEST SWAP3 POP POP DUP2 SWAP1 SSTORE POP PUSH2 0x13CE JUMP JUMPDEST PUSH1 0x1 PUSH1 0x4 PUSH0 DUP3 DUP3 SLOAD PUSH2 0x13C6 SWAP2 SWAP1 PUSH2 0x2181 JUMP JUMPDEST SWAP3 POP POP DUP2 SWAP1 SSTORE POP JUMPDEST POP POP JUMP JUMPDEST PUSH2 0x144C DUP4 DUP5 PUSH20 0xFFFFFFFFFFFFFFFFFFFFFFFFFFFFFFFFFFFFFFFF AND PUSH4 0xA9059CBB DUP6 DUP6 PUSH1 0x40 MLOAD PUSH1 0x24 ADD PUSH2 0x1405 SWAP3 SWAP2 SWAP1 PUSH2 0x23B8 JUMP JUMPDEST PUSH1 0x40 MLOAD PUSH1 0x20 DUP2 DUP4 SUB SUB DUP2 MSTORE SWAP1 PUSH1 0x40 MSTORE SWAP2 POP PUSH1 0xE0 SHL PUSH1 0x20 DUP3 ADD DUP1 MLOAD PUSH28 0xFFFFFFFFFFFFFFFFFFFFFFFFFFFFFFFFFFFFFFFFFFFFFFFFFFFFFFFF DUP4 DUP2 DUP4 AND OR DUP4 MSTORE POP POP POP POP PUSH2 0x1BCE JUMP JUMPDEST POP POP POP JUMP JUMPDEST PUSH2 0x1459 PUSH2 0x1C69 JUMP JUMPDEST PUSH20 0xFFFFFFFFFFFFFFFFFFFFFFFFFFFFFFFFFFFFFFFF AND PUSH2 0x1477 PUSH2 0xEB8 JUMP JUMPDEST PUSH20 0xFFFFFFFFFFFFFFFFFFFFFFFFFFFFFFFFFFFFFFFF AND EQ PUSH2 0x14D6 JUMPI PUSH2 0x149A PUSH2 0x1C69 JUMP JUMPDEST PUSH1 0x40 MLOAD PUSH32 0x118CDAA700000000000000000000000000000000000000000000000000000000 DUP2 MSTORE PUSH1 0x4 ADD PUSH2 0x14CD SWAP2 SWAP1 PUSH2 0x1EB9 JUMP JUMPDEST PUSH1 0x40 MLOAD DUP1 SWAP2 SUB SWAP1 REVERT JUMPDEST JUMP JUMPDEST PUSH0 DUP1 PUSH0 SWAP1 SLOAD SWAP1 PUSH2 0x100 EXP SWAP1 DIV PUSH20 0xFFFFFFFFFFFFFFFFFFFFFFFFFFFFFFFFFFFFFFFF AND SWAP1 POP DUP2 PUSH0 DUP1 PUSH2 0x100 EXP DUP2 SLOAD DUP2 PUSH20 0xFFFFFFFFFFFFFFFFFFFFFFFFFFFFFFFFFFFFFFFF MUL NOT AND SWAP1 DUP4 PUSH20 0xFFFFFFFFFFFFFFFFFFFFFFFFFFFFFFFFFFFFFFFF AND MUL OR SWAP1 SSTORE POP DUP2 PUSH20 0xFFFFFFFFFFFFFFFFFFFFFFFFFFFFFFFFFFFFFFFF AND DUP2 PUSH20 0xFFFFFFFFFFFFFFFFFFFFFFFFFFFFFFFFFFFFFFFF AND PUSH32 0x8BE0079C531659141344CD1FD0A4F28419497F9722A3DAAFE3B4186F6B6457E0 PUSH1 0x40 MLOAD PUSH1 0x40 MLOAD DUP1 SWAP2 SUB SWAP1 LOG3 POP POP JUMP JUMPDEST PUSH0 PUSH32 0x0 PUSH20 0xFFFFFFFFFFFFFFFFFFFFFFFFFFFFFFFFFFFFFFFF AND PUSH4 0x70A08231 ADDRESS PUSH1 0x40 MLOAD DUP3 PUSH4 0xFFFFFFFF AND PUSH1 0xE0 SHL DUP2 MSTORE PUSH1 0x4 ADD PUSH2 0x15F3 SWAP2 SWAP1 PUSH2 0x1EB9 JUMP JUMPDEST PUSH1 0x20 PUSH1 0x40 MLOAD DUP1 DUP4 SUB DUP2 DUP7 GAS STATICCALL ISZERO DUP1 ISZERO PUSH2 0x160E JUMPI RETURNDATASIZE PUSH0 DUP1 RETURNDATACOPY RETURNDATASIZE PUSH0 REVERT JUMPDEST POP POP POP POP PUSH1 0x40 MLOAD RETURNDATASIZE PUSH1 0x1F NOT PUSH1 0x1F DUP3 ADD AND DUP3 ADD DUP1 PUSH1 0x40 MSTORE POP DUP2 ADD SWAP1 PUSH2 0x1632 SWAP2 SWAP1 PUSH2 0x209B JUMP JUMPDEST SWAP1 POP SWAP1 JUMP JUMPDEST PUSH0 DUP2 PUSH0 PUSH2 0x1644 DUP4 DUP4 PUSH2 0x1069 JUMP JUMPDEST SWAP1 POP PUSH32 0x0 DUP2 PUSH32 0x0 PUSH20 0xFFFFFFFFFFFFFFFFFFFFFFFFFFFFFFFFFFFFFFFF AND PUSH4 0x70A08231 ADDRESS PUSH1 0x40 MLOAD DUP3 PUSH4 0xFFFFFFFF AND PUSH1 0xE0 SHL DUP2 MSTORE PUSH1 0x4 ADD PUSH2 0x16C1 SWAP2 SWAP1 PUSH2 0x1EB9 JUMP JUMPDEST PUSH1 0x20 PUSH1 0x40 MLOAD DUP1 DUP4 SUB DUP2 DUP7 GAS STATICCALL ISZERO DUP1 ISZERO PUSH2 0x16DC JUMPI RETURNDATASIZE PUSH0 DUP1 RETURNDATACOPY RETURNDATASIZE PUSH0 REVERT JUMPDEST POP POP POP POP PUSH1 0x40 MLOAD RETURNDATASIZE PUSH1 0x1F NOT PUSH1 0x1F DUP3 ADD AND DUP3 ADD DUP1 PUSH1 0x40 MSTORE POP DUP2 ADD SWAP1 PUSH2 0x1700 SWAP2 SWAP1 PUSH2 0x209B JUMP JUMPDEST PUSH2 0x170A SWAP2 SWAP1 PUSH2 0x2181 JUMP JUMPDEST GT ISZERO PUSH2 0x174B JUMPI PUSH1 0x40 MLOAD PUSH32 0xA2D2E1B200000000000000000000000000000000000000000000000000000000 DUP2 MSTORE PUSH1 0x4 ADD PUSH2 0x1742 SWAP1 PUSH2 0x21FE JUMP JUMPDEST PUSH1 0x40 MLOAD DUP1 SWAP2 SUB SWAP1 REVERT JUMPDEST PUSH0 PUSH32 0x0 PUSH20 0xFFFFFFFFFFFFFFFFFFFFFFFFFFFFFFFFFFFFFFFF AND PUSH4 0x70A08231 ADDRESS PUSH1 0x40 MLOAD DUP3 PUSH4 0xFFFFFFFF AND PUSH1 0xE0 SHL DUP2 MSTORE PUSH1 0x4 ADD PUSH2 0x17A5 SWAP2 SWAP1 PUSH2 0x1EB9 JUMP JUMPDEST PUSH1 0x20 PUSH1 0x40 MLOAD DUP1 DUP4 SUB DUP2 DUP7 GAS STATICCALL ISZERO DUP1 ISZERO PUSH2 0x17C0 JUMPI RETURNDATASIZE PUSH0 DUP1 RETURNDATACOPY RETURNDATASIZE PUSH0 REVERT JUMPDEST POP POP POP POP PUSH1 0x40 MLOAD RETURNDATASIZE PUSH1 0x1F NOT PUSH1 0x1F DUP3 ADD AND DUP3 ADD DUP1 PUSH1 0x40 MSTORE POP DUP2 ADD SWAP1 PUSH2 0x17E4 SWAP2 SWAP1 PUSH2 0x209B JUMP JUMPDEST SWAP1 POP PUSH0 PUSH2 0x1811 PUSH32 0x0 DUP8 PUSH2 0x1069 JUMP JUMPDEST SWAP1 POP PUSH1 0x64 PUSH1 0x63 DUP3 PUSH2 0x1822 SWAP2 SWAP1 PUSH2 0x25A1 JUMP JUMPDEST PUSH2 0x182C SWAP2 SWAP1 PUSH2 0x264B JUMP JUMPDEST SWAP1 POP PUSH0 PUSH1 0x2 PUSH8 0xFFFFFFFFFFFFFFFF DUP2 GT ISZERO PUSH2 0x184A JUMPI PUSH2 0x1849 PUSH2 0x221C JUMP JUMPDEST JUMPDEST PUSH1 0x40 MLOAD SWAP1 DUP1 DUP3 MSTORE DUP1 PUSH1 0x20 MUL PUSH1 0x20 ADD DUP3 ADD PUSH1 0x40 MSTORE DUP1 ISZERO PUSH2 0x1878 JUMPI DUP2 PUSH1 0x20 ADD PUSH1 0x20 DUP3 MUL DUP1 CALLDATASIZE DUP4 CALLDATACOPY DUP1 DUP3 ADD SWAP2 POP POP SWAP1 POP JUMPDEST POP SWAP1 POP PUSH32 0x0 DUP2 PUSH0 DUP2 MLOAD DUP2 LT PUSH2 0x18AF JUMPI PUSH2 0x18AE PUSH2 0x2249 JUMP JUMPDEST JUMPDEST PUSH1 0x20 MUL PUSH1 0x20 ADD ADD SWAP1 PUSH20 0xFFFFFFFFFFFFFFFFFFFFFFFFFFFFFFFFFFFFFFFF AND SWAP1 DUP2 PUSH20 0xFFFFFFFFFFFFFFFFFFFFFFFFFFFFFFFFFFFFFFFF AND DUP2 MSTORE POP POP PUSH32 0x0 DUP2 PUSH1 0x1 DUP2 MLOAD DUP2 LT PUSH2 0x191E JUMPI PUSH2 0x191D PUSH2 0x2249 JUMP JUMPDEST JUMPDEST PUSH1 0x20 MUL PUSH1 0x20 ADD ADD SWAP1 PUSH20 0xFFFFFFFFFFFFFFFFFFFFFFFFFFFFFFFFFFFFFFFF AND SWAP1 DUP2 PUSH20 0xFFFFFFFFFFFFFFFFFFFFFFFFFFFFFFFFFFFFFFFF AND DUP2 MSTORE POP POP PUSH32 0x0 PUSH20 0xFFFFFFFFFFFFFFFFFFFFFFFFFFFFFFFFFFFFFFFF AND PUSH4 0xB6F9DE95 DUP9 DUP5 DUP5 ADDRESS PUSH2 0x12C TIMESTAMP PUSH2 0x19A6 SWAP2 SWAP1 PUSH2 0x2181 JUMP JUMPDEST PUSH1 0x40 MLOAD DUP7 PUSH4 0xFFFFFFFF AND PUSH1 0xE0 SHL DUP2 MSTORE PUSH1 0x4 ADD PUSH2 0x19C5 SWAP5 SWAP4 SWAP3 SWAP2 SWAP1 PUSH2 0x26B0 JUMP JUMPDEST PUSH0 PUSH1 0x40 MLOAD DUP1 DUP4 SUB DUP2 DUP6 DUP9 DUP1 EXTCODESIZE ISZERO DUP1 ISZERO PUSH2 0x19DC JUMPI PUSH0 DUP1 REVERT JUMPDEST POP GAS CALL ISZERO DUP1 ISZERO PUSH2 0x19EE JUMPI RETURNDATASIZE PUSH0 DUP1 RETURNDATACOPY RETURNDATASIZE PUSH0 REVERT JUMPDEST POP POP POP POP POP PUSH0 PUSH32 0x0 PUSH20 0xFFFFFFFFFFFFFFFFFFFFFFFFFFFFFFFFFFFFFFFF AND PUSH4 0x70A08231 ADDRESS PUSH1 0x40 MLOAD DUP3 PUSH4 0xFFFFFFFF AND PUSH1 0xE0 SHL DUP2 MSTORE PUSH1 0x4 ADD PUSH2 0x1A4D SWAP2 SWAP1 PUSH2 0x1EB9 JUMP JUMPDEST PUSH1 0x20 PUSH1 0x40 MLOAD DUP1 DUP4 SUB DUP2 DUP7 GAS STATICCALL ISZERO DUP1 ISZERO PUSH2 0x1A68 JUMPI RETURNDATASIZE PUSH0 DUP1 RETURNDATACOPY RETURNDATASIZE PUSH0 REVERT JUMPDEST POP POP POP POP PUSH1 0x40 MLOAD RETURNDATASIZE PUSH1 0x1F NOT PUSH1 0x1F DUP3 ADD AND DUP3 ADD DUP1 PUSH1 0x40 MSTORE POP DUP2 ADD SWAP1 PUSH2 0x1A8C SWAP2 SWAP1 PUSH2 0x209B JUMP JUMPDEST SWAP1 POP PUSH0 DUP5 DUP3 PUSH2 0x1A9B SWAP2 SWAP1 PUSH2 0x2385 JUMP JUMPDEST SWAP1 POP PUSH32 0x0 DUP2 DUP7 PUSH2 0x1ACA SWAP2 SWAP1 PUSH2 0x2181 JUMP JUMPDEST GT ISZERO PUSH2 0x1B0B JUMPI PUSH1 0x40 MLOAD PUSH32 0xA2D2E1B200000000000000000000000000000000000000000000000000000000 DUP2 MSTORE PUSH1 0x4 ADD PUSH2 0x1B02 SWAP1 PUSH2 0x21FE JUMP JUMPDEST PUSH1 0x40 MLOAD DUP1 SWAP2 SUB SWAP1 REVERT JUMPDEST DUP1 PUSH1 0x2 PUSH0 DUP13 PUSH20 0xFFFFFFFFFFFFFFFFFFFFFFFFFFFFFFFFFFFFFFFF AND PUSH20 0xFFFFFFFFFFFFFFFFFFFFFFFFFFFFFFFFFFFFFFFF AND DUP2 MSTORE PUSH1 0x20 ADD SWAP1 DUP2 MSTORE PUSH1 0x20 ADD PUSH0 KECCAK256 PUSH0 DUP3 DUP3 SLOAD PUSH2 0x1B57 SWAP2 SWAP1 PUSH2 0x2181 JUMP JUMPDEST SWAP3 POP POP DUP2 SWAP1 SSTORE POP PUSH2 0x1B89 PUSH1 0x1 PUSH32 0x0 PUSH2 0x1355 JUMP JUMPDEST PUSH32 0x7B7CD0DDBBEA241880E825E1EB51C30752CB96DD7EFEB4BE691EC55DFA4D8963 DUP11 DUP3 PUSH1 0x40 MLOAD PUSH2 0x1BBA SWAP3 SWAP2 SWAP1 PUSH2 0x23B8 JUMP JUMPDEST PUSH1 0x40 MLOAD DUP1 SWAP2 SUB SWAP1 LOG1 POP POP POP POP POP POP POP POP POP POP JUMP JUMPDEST PUSH0 DUP1 PUSH1 0x20 PUSH0 DUP5 MLOAD PUSH1 0x20 DUP7 ADD PUSH0 DUP9 GAS CALL DUP1 PUSH2 0x1BED JUMPI PUSH1 0x40 MLOAD RETURNDATASIZE PUSH0 DUP3 RETURNDATACOPY RETURNDATASIZE DUP2 REVERT JUMPDEST RETURNDATASIZE SWAP3 POP PUSH0 MLOAD SWAP2 POP POP PUSH0 DUP3 EQ PUSH2 0x1C06 JUMPI PUSH1 0x1 DUP2 EQ ISZERO PUSH2 0x1C21 JUMP JUMPDEST PUSH0 DUP5 PUSH20 0xFFFFFFFFFFFFFFFFFFFFFFFFFFFFFFFFFFFFFFFF AND EXTCODESIZE EQ JUMPDEST ISZERO PUSH2 0x1C63 JUMPI DUP4 PUSH1 0x40 MLOAD PUSH32 0x5274AFE700000000000000000000000000000000000000000000000000000000 DUP2 MSTORE PUSH1 0x4 ADD PUSH2 0x1C5A SWAP2 SWAP1 PUSH2 0x1EB9 JUMP JUMPDEST PUSH1 0x40 MLOAD DUP1 SWAP2 SUB SWAP1 REVERT JUMPDEST POP POP POP POP JUMP JUMPDEST PUSH0 CALLER SWAP1 POP SWAP1 JUMP JUMPDEST PUSH0 DUP3 DUP3 MSTORE PUSH1 0x20 DUP3 ADD SWAP1 POP SWAP3 SWAP2 POP POP JUMP JUMPDEST PUSH32 0x557365206465706F73697420666F7220455448206465706F7369740000000000 PUSH0 DUP3 ADD MSTORE POP JUMP JUMPDEST PUSH0 PUSH2 0x1CB4 PUSH1 0x1B DUP4 PUSH2 0x1C70 JUMP JUMPDEST SWAP2 POP PUSH2 0x1CBF DUP3 PUSH2 0x1C80 JUMP JUMPDEST PUSH1 0x20 DUP3 ADD SWAP1 POP SWAP2 SWAP1 POP JUMP JUMPDEST PUSH0 PUSH1 0x20 DUP3 ADD SWAP1 POP DUP2 DUP2 SUB PUSH0 DUP4 ADD MSTORE PUSH2 0x1CE1 DUP2 PUSH2 0x1CA8 JUMP JUMPDEST SWAP1 POP SWAP2 SWAP1 POP JUMP JUMPDEST PUSH32 0x4F7065726174696F6E20646F6573206E6F7420657869737473206F7220646174 PUSH0 DUP3 ADD MSTORE PUSH32 0x612077617320696E636F72726563740000000000000000000000000000000000 PUSH1 0x20 DUP3 ADD MSTORE POP JUMP JUMPDEST PUSH0 PUSH2 0x1D42 PUSH1 0x2F DUP4 PUSH2 0x1C70 JUMP JUMPDEST SWAP2 POP PUSH2 0x1D4D DUP3 PUSH2 0x1CE8 JUMP JUMPDEST PUSH1 0x40 DUP3 ADD SWAP1 POP SWAP2 SWAP1 POP JUMP JUMPDEST PUSH0 PUSH1 0x20 DUP3 ADD SWAP1 POP DUP2 DUP2 SUB PUSH0 DUP4 ADD MSTORE PUSH2 0x1D6F DUP2 PUSH2 0x1D36 JUMP JUMPDEST SWAP1 POP SWAP2 SWAP1 POP JUMP JUMPDEST PUSH0 DUP2 SWAP1 POP SWAP2 SWAP1 POP JUMP JUMPDEST PUSH2 0x1D88 DUP2 PUSH2 0x1D76 JUMP JUMPDEST DUP3 MSTORE POP POP JUMP JUMPDEST PUSH0 PUSH1 0x20 DUP3 ADD SWAP1 POP PUSH2 0x1DA1 PUSH0 DUP4 ADD DUP5 PUSH2 0x1D7F JUMP JUMPDEST SWAP3 SWAP2 POP POP JUMP JUMPDEST PUSH0 DUP1 REVERT JUMPDEST PUSH0 PUSH20 0xFFFFFFFFFFFFFFFFFFFFFFFFFFFFFFFFFFFFFFFF DUP3 AND SWAP1 POP SWAP2 SWAP1 POP JUMP JUMPDEST PUSH0 PUSH2 0x1DD4 DUP3 PUSH2 0x1DAB JUMP JUMPDEST SWAP1 POP SWAP2 SWAP1 POP JUMP JUMPDEST PUSH2 0x1DE4 DUP2 PUSH2 0x1DCA JUMP JUMPDEST DUP2 EQ PUSH2 0x1DEE JUMPI PUSH0 DUP1 REVERT JUMPDEST POP JUMP JUMPDEST PUSH0 DUP2 CALLDATALOAD SWAP1 POP PUSH2 0x1DFF DUP2 PUSH2 0x1DDB JUMP JUMPDEST SWAP3 SWAP2 POP POP JUMP JUMPDEST PUSH2 0x1E0E DUP2 PUSH2 0x1D76 JUMP JUMPDEST DUP2 EQ PUSH2 0x1E18 JUMPI PUSH0 DUP1 REVERT JUMPDEST POP JUMP JUMPDEST PUSH0 DUP2 CALLDATALOAD SWAP1 POP PUSH2 0x1E29 DUP2 PUSH2 0x1E05 JUMP JUMPDEST SWAP3 SWAP2 POP POP JUMP JUMPDEST PUSH0 DUP1 PUSH0 PUSH1 0x60 DUP5 DUP7 SUB SLT ISZERO PUSH2 0x1E46 JUMPI PUSH2 0x1E45 PUSH2 0x1DA7 JUMP JUMPDEST JUMPDEST PUSH0 PUSH2 0x1E53 DUP7 DUP3 DUP8 ADD PUSH2 0x1DF1 JUMP JUMPDEST SWAP4 POP POP PUSH1 0x20 PUSH2 0x1E64 DUP7 DUP3 DUP8 ADD PUSH2 0x1E1B JUMP JUMPDEST SWAP3 POP POP PUSH1 0x40 PUSH2 0x1E75 DUP7 DUP3 DUP8 ADD PUSH2 0x1E1B JUMP JUMPDEST SWAP2 POP POP SWAP3 POP SWAP3 POP SWAP3 JUMP JUMPDEST PUSH0 PUSH1 0x20 DUP3 DUP5 SUB SLT ISZERO PUSH2 0x1E94 JUMPI PUSH2 0x1E93 PUSH2 0x1DA7 JUMP JUMPDEST JUMPDEST PUSH0 PUSH2 0x1EA1 DUP5 DUP3 DUP6 ADD PUSH2 0x1DF1 JUMP JUMPDEST SWAP2 POP POP SWAP3 SWAP2 POP POP JUMP JUMPDEST PUSH2 0x1EB3 DUP2 PUSH2 0x1DCA JUMP JUMPDEST DUP3 MSTORE POP POP JUMP JUMPDEST PUSH0 PUSH1 0x20 DUP3 ADD SWAP1 POP PUSH2 0x1ECC PUSH0 DUP4 ADD DUP5 PUSH2 0x1EAA JUMP JUMPDEST SWAP3 SWAP2 POP POP JUMP JUMPDEST PUSH0 PUSH1 0x20 DUP3 DUP5 SUB SLT ISZERO PUSH2 0x1EE7 JUMPI PUSH2 0x1EE6 PUSH2 0x1DA7 JUMP JUMPDEST JUMPDEST PUSH0 PUSH2 0x1EF4 DUP5 DUP3 DUP6 ADD PUSH2 0x1E1B JUMP JUMPDEST SWAP2 POP POP SWAP3 SWAP2 POP POP JUMP JUMPDEST PUSH0 DUP2 SWAP1 POP SWAP2 SWAP1 POP JUMP JUMPDEST PUSH0 PUSH2 0x1F20 PUSH2 0x1F1B PUSH2 0x1F16 DUP5 PUSH2 0x1DAB JUMP JUMPDEST PUSH2 0x1EFD JUMP JUMPDEST PUSH2 0x1DAB JUMP JUMPDEST SWAP1 POP SWAP2 SWAP1 POP JUMP JUMPDEST PUSH0 PUSH2 0x1F31 DUP3 PUSH2 0x1F06 JUMP JUMPDEST SWAP1 POP SWAP2 SWAP1 POP JUMP JUMPDEST PUSH0 PUSH2 0x1F42 DUP3 PUSH2 0x1F27 JUMP JUMPDEST SWAP1 POP SWAP2 SWAP1 POP JUMP JUMPDEST PUSH2 0x1F52 DUP2 PUSH2 0x1F38 JUMP JUMPDEST DUP3 MSTORE POP POP JUMP JUMPDEST PUSH0 PUSH1 0x20 DUP3 ADD SWAP1 POP PUSH2 0x1F6B PUSH0 DUP4 ADD DUP5 PUSH2 0x1F49 JUMP JUMPDEST SWAP3 SWAP2 POP POP JUMP JUMPDEST PUSH0 PUSH2 0x1F7B DUP3 PUSH2 0x1F27 JUMP JUMPDEST SWAP1 POP SWAP2 SWAP1 POP JUMP JUMPDEST PUSH2 0x1F8B DUP2 PUSH2 0x1F71 JUMP JUMPDEST DUP3 MSTORE POP POP JUMP JUMPDEST PUSH0 PUSH1 0x20 DUP3 ADD SWAP1 POP PUSH2 0x1FA4 PUSH0 DUP4 ADD DUP5 PUSH2 0x1F82 JUMP JUMPDEST SWAP3 SWAP2 POP POP JUMP JUMPDEST PUSH0 DUP1 PUSH1 0x40 DUP4 DUP6 SUB SLT ISZERO PUSH2 0x1FC0 JUMPI PUSH2 0x1FBF PUSH2 0x1DA7 JUMP JUMPDEST JUMPDEST PUSH0 PUSH2 0x1FCD DUP6 DUP3 DUP7 ADD PUSH2 0x1E1B JUMP JUMPDEST SWAP3 POP POP PUSH1 0x20 PUSH2 0x1FDE DUP6 DUP3 DUP7 ADD PUSH2 0x1DF1 JUMP JUMPDEST SWAP2 POP POP SWAP3 POP SWAP3 SWAP1 POP JUMP JUMPDEST PUSH0 PUSH2 0x1FF2 DUP3 PUSH2 0x1F27 JUMP JUMPDEST SWAP1 POP SWAP2 SWAP1 POP JUMP JUMPDEST PUSH2 0x2002 DUP2 PUSH2 0x1FE8 JUMP JUMPDEST DUP3 MSTORE POP POP JUMP JUMPDEST PUSH0 PUSH1 0x20 DUP3 ADD SWAP1 POP PUSH2 0x201B PUSH0 DUP4 ADD DUP5 PUSH2 0x1FF9 JUMP JUMPDEST SWAP3 SWAP2 POP POP JUMP JUMPDEST PUSH0 PUSH1 0x40 DUP3 ADD SWAP1 POP PUSH2 0x2034 PUSH0 DUP4 ADD DUP6 PUSH2 0x1EAA JUMP JUMPDEST PUSH2 0x2041 PUSH1 0x20 DUP4 ADD DUP5 PUSH2 0x1EAA JUMP JUMPDEST SWAP4 SWAP3 POP POP POP JUMP JUMPDEST PUSH0 DUP2 MLOAD SWAP1 POP PUSH2 0x2056 DUP2 PUSH2 0x1DDB JUMP JUMPDEST SWAP3 SWAP2 POP POP JUMP JUMPDEST PUSH0 PUSH1 0x20 DUP3 DUP5 SUB SLT ISZERO PUSH2 0x2071 JUMPI PUSH2 0x2070 PUSH2 0x1DA7 JUMP JUMPDEST JUMPDEST PUSH0 PUSH2 0x207E DUP5 DUP3 DUP6 ADD PUSH2 0x2048 JUMP JUMPDEST SWAP2 POP POP SWAP3 SWAP2 POP POP JUMP JUMPDEST PUSH0 DUP2 MLOAD SWAP1 POP PUSH2 0x2095 DUP2 PUSH2 0x1E05 JUMP JUMPDEST SWAP3 SWAP2 POP POP JUMP JUMPDEST PUSH0 PUSH1 0x20 DUP3 DUP5 SUB SLT ISZERO PUSH2 0x20B0 JUMPI PUSH2 0x20AF PUSH2 0x1DA7 JUMP JUMPDEST JUMPDEST PUSH0 PUSH2 0x20BD DUP5 DUP3 DUP6 ADD PUSH2 0x2087 JUMP JUMPDEST SWAP2 POP POP SWAP3 SWAP2 POP POP JUMP JUMPDEST PUSH32 0x45524332303A20496E73756666696369656E7420616C6C6F77616E636520666F PUSH0 DUP3 ADD MSTORE PUSH32 0x72207472616E7366657246726F6D000000000000000000000000000000000000 PUSH1 0x20 DUP3 ADD MSTORE POP JUMP JUMPDEST PUSH0 PUSH2 0x2120 PUSH1 0x2E DUP4 PUSH2 0x1C70 JUMP JUMPDEST SWAP2 POP PUSH2 0x212B DUP3 PUSH2 0x20C6 JUMP JUMPDEST PUSH1 0x40 DUP3 ADD SWAP1 POP SWAP2 SWAP1 POP JUMP JUMPDEST PUSH0 PUSH1 0x20 DUP3 ADD SWAP1 POP DUP2 DUP2 SUB PUSH0 DUP4 ADD MSTORE PUSH2 0x214D DUP2 PUSH2 0x2114 JUMP JUMPDEST SWAP1 POP SWAP2 SWAP1 POP JUMP JUMPDEST PUSH32 0x4E487B7100000000000000000000000000000000000000000000000000000000 PUSH0 MSTORE PUSH1 0x11 PUSH1 0x4 MSTORE PUSH1 0x24 PUSH0 REVERT JUMPDEST PUSH0 PUSH2 0x218B DUP3 PUSH2 0x1D76 JUMP JUMPDEST SWAP2 POP PUSH2 0x2196 DUP4 PUSH2 0x1D76 JUMP JUMPDEST SWAP3 POP DUP3 DUP3 ADD SWAP1 POP DUP1 DUP3 GT ISZERO PUSH2 0x21AE JUMPI PUSH2 0x21AD PUSH2 0x2154 JUMP JUMPDEST JUMPDEST SWAP3 SWAP2 POP POP JUMP JUMPDEST PUSH32 0x546F74616C204B69707542616E6B27732046756E647320657863656564656400 PUSH0 DUP3 ADD MSTORE POP JUMP JUMPDEST PUSH0 PUSH2 0x21E8 PUSH1 0x1F DUP4 PUSH2 0x1C70 JUMP JUMPDEST SWAP2 POP PUSH2 0x21F3 DUP3 PUSH2 0x21B4 JUMP JUMPDEST PUSH1 0x20 DUP3 ADD SWAP1 POP SWAP2 SWAP1 POP JUMP JUMPDEST PUSH0 PUSH1 0x20 DUP3 ADD SWAP1 POP DUP2 DUP2 SUB PUSH0 DUP4 ADD MSTORE PUSH2 0x2215 DUP2 PUSH2 0x21DC JUMP JUMPDEST SWAP1 POP SWAP2 SWAP1 POP JUMP JUMPDEST PUSH32 0x4E487B7100000000000000000000000000000000000000000000000000000000 PUSH0 MSTORE PUSH1 0x41 PUSH1 0x4 MSTORE PUSH1 0x24 PUSH0 REVERT JUMPDEST PUSH32 0x4E487B7100000000000000000000000000000000000000000000000000000000 PUSH0 MSTORE PUSH1 0x32 PUSH1 0x4 MSTORE PUSH1 0x24 PUSH0 REVERT JUMPDEST PUSH0 DUP2 MLOAD SWAP1 POP SWAP2 SWAP1 POP JUMP JUMPDEST PUSH0 DUP3 DUP3 MSTORE PUSH1 0x20 DUP3 ADD SWAP1 POP SWAP3 SWAP2 POP POP JUMP JUMPDEST PUSH0 DUP2 SWAP1 POP PUSH1 0x20 DUP3 ADD SWAP1 POP SWAP2 SWAP1 POP JUMP JUMPDEST PUSH2 0x22A8 DUP2 PUSH2 0x1DCA JUMP JUMPDEST DUP3 MSTORE POP POP JUMP JUMPDEST PUSH0 PUSH2 0x22B9 DUP4 DUP4 PUSH2 0x229F JUMP JUMPDEST PUSH1 0x20 DUP4 ADD SWAP1 POP SWAP3 SWAP2 POP POP JUMP JUMPDEST PUSH0 PUSH1 0x20 DUP3 ADD SWAP1 POP SWAP2 SWAP1 POP JUMP JUMPDEST PUSH0 PUSH2 0x22DB DUP3 PUSH2 0x2276 JUMP JUMPDEST PUSH2 0x22E5 DUP2 DUP6 PUSH2 0x2280 JUMP JUMPDEST SWAP4 POP PUSH2 0x22F0 DUP4 PUSH2 0x2290 JUMP JUMPDEST DUP1 PUSH0 JUMPDEST DUP4 DUP2 LT ISZERO PUSH2 0x2320 JUMPI DUP2 MLOAD PUSH2 0x2307 DUP9 DUP3 PUSH2 0x22AE JUMP JUMPDEST SWAP8 POP PUSH2 0x2312 DUP4 PUSH2 0x22C5 JUMP JUMPDEST SWAP3 POP POP PUSH1 0x1 DUP2 ADD SWAP1 POP PUSH2 0x22F3 JUMP JUMPDEST POP DUP6 SWAP4 POP POP POP POP SWAP3 SWAP2 POP POP JUMP JUMPDEST PUSH0 PUSH1 0xA0 DUP3 ADD SWAP1 POP PUSH2 0x2340 PUSH0 DUP4 ADD DUP9 PUSH2 0x1D7F JUMP JUMPDEST PUSH2 0x234D PUSH1 0x20 DUP4 ADD DUP8 PUSH2 0x1D7F JUMP JUMPDEST DUP2 DUP2 SUB PUSH1 0x40 DUP4 ADD MSTORE PUSH2 0x235F DUP2 DUP7 PUSH2 0x22D1 JUMP JUMPDEST SWAP1 POP PUSH2 0x236E PUSH1 0x60 DUP4 ADD DUP6 PUSH2 0x1EAA JUMP JUMPDEST PUSH2 0x237B PUSH1 0x80 DUP4 ADD DUP5 PUSH2 0x1D7F JUMP JUMPDEST SWAP7 SWAP6 POP POP POP POP POP POP JUMP JUMPDEST PUSH0 PUSH2 0x238F DUP3 PUSH2 0x1D76 JUMP JUMPDEST SWAP2 POP PUSH2 0x239A DUP4 PUSH2 0x1D76 JUMP JUMPDEST SWAP3 POP DUP3 DUP3 SUB SWAP1 POP DUP2 DUP2 GT ISZERO PUSH2 0x23B2 JUMPI PUSH2 0x23B1 PUSH2 0x2154 JUMP JUMPDEST JUMPDEST SWAP3 SWAP2 POP POP JUMP JUMPDEST PUSH0 PUSH1 0x40 DUP3 ADD SWAP1 POP PUSH2 0x23CB PUSH0 DUP4 ADD DUP6 PUSH2 0x1EAA JUMP JUMPDEST PUSH2 0x23D8 PUSH1 0x20 DUP4 ADD DUP5 PUSH2 0x1D7F JUMP JUMPDEST SWAP4 SWAP3 POP POP POP JUMP JUMPDEST PUSH32 0x416D6F756E74206578636565647320746865206D6178696D756D207769746864 PUSH0 DUP3 ADD MSTORE PUSH32 0x726177616C000000000000000000000000000000000000000000000000000000 PUSH1 0x20 DUP3 ADD MSTORE POP JUMP JUMPDEST PUSH0 PUSH2 0x2439 PUSH1 0x25 DUP4 PUSH2 0x1C70 JUMP JUMPDEST SWAP2 POP PUSH2 0x2444 DUP3 PUSH2 0x23DF JUMP JUMPDEST PUSH1 0x40 DUP3 ADD SWAP1 POP SWAP2 SWAP1 POP JUMP JUMPDEST PUSH0 PUSH1 0x20 DUP3 ADD SWAP1 POP DUP2 DUP2 SUB PUSH0 DUP4 ADD MSTORE PUSH2 0x2466 DUP2 PUSH2 0x242D JUMP JUMPDEST SWAP1 POP SWAP2 SWAP1 POP JUMP JUMPDEST PUSH32 0x4E6F7420656E6F7567682046756E647300000000000000000000000000000000 PUSH0 DUP3 ADD MSTORE POP JUMP JUMPDEST PUSH0 PUSH2 0x24A1 PUSH1 0x10 DUP4 PUSH2 0x1C70 JUMP JUMPDEST SWAP2 POP PUSH2 0x24AC DUP3 PUSH2 0x246D JUMP JUMPDEST PUSH1 0x20 DUP3 ADD SWAP1 POP SWAP2 SWAP1 POP JUMP JUMPDEST PUSH0 PUSH1 0x20 DUP3 ADD SWAP1 POP DUP2 DUP2 SUB PUSH0 DUP4 ADD MSTORE PUSH2 0x24CE DUP2 PUSH2 0x2495 JUMP JUMPDEST SWAP1 POP SWAP2 SWAP1 POP JUMP JUMPDEST PUSH0 PUSH14 0xFFFFFFFFFFFFFFFFFFFFFFFFFFFF DUP3 AND SWAP1 POP SWAP2 SWAP1 POP JUMP JUMPDEST PUSH2 0x24F7 DUP2 PUSH2 0x24D5 JUMP JUMPDEST DUP2 EQ PUSH2 0x2501 JUMPI PUSH0 DUP1 REVERT JUMPDEST POP JUMP JUMPDEST PUSH0 DUP2 MLOAD SWAP1 POP PUSH2 0x2512 DUP2 PUSH2 0x24EE JUMP JUMPDEST SWAP3 SWAP2 POP POP JUMP JUMPDEST PUSH0 PUSH4 0xFFFFFFFF DUP3 AND SWAP1 POP SWAP2 SWAP1 POP JUMP JUMPDEST PUSH2 0x2530 DUP2 PUSH2 0x2518 JUMP JUMPDEST DUP2 EQ PUSH2 0x253A JUMPI PUSH0 DUP1 REVERT JUMPDEST POP JUMP JUMPDEST PUSH0 DUP2 MLOAD SWAP1 POP PUSH2 0x254B DUP2 PUSH2 0x2527 JUMP JUMPDEST SWAP3 SWAP2 POP POP JUMP JUMPDEST PUSH0 DUP1 PUSH0 PUSH1 0x60 DUP5 DUP7 SUB SLT ISZERO PUSH2 0x2568 JUMPI PUSH2 0x2567 PUSH2 0x1DA7 JUMP JUMPDEST JUMPDEST PUSH0 PUSH2 0x2575 DUP7 DUP3 DUP8 ADD PUSH2 0x2504 JUMP JUMPDEST SWAP4 POP POP PUSH1 0x20 PUSH2 0x2586 DUP7 DUP3 DUP8 ADD PUSH2 0x2504 JUMP JUMPDEST SWAP3 POP POP PUSH1 0x40 PUSH2 0x2597 DUP7 DUP3 DUP8 ADD PUSH2 0x253D JUMP JUMPDEST SWAP2 POP POP SWAP3 POP SWAP3 POP SWAP3 JUMP JUMPDEST PUSH0 PUSH2 0x25AB DUP3 PUSH2 0x1D76 JUMP JUMPDEST SWAP2 POP PUSH2 0x25B6 DUP4 PUSH2 0x1D76 JUMP JUMPDEST SWAP3 POP DUP3 DUP3 MUL PUSH2 0x25C4 DUP2 PUSH2 0x1D76 JUMP JUMPDEST SWAP2 POP DUP3 DUP3 DIV DUP5 EQ DUP4 ISZERO OR PUSH2 0x25DB JUMPI PUSH2 0x25DA PUSH2 0x2154 JUMP JUMPDEST JUMPDEST POP SWAP3 SWAP2 POP POP JUMP JUMPDEST PUSH0 PUSH2 0x25EC DUP3 PUSH2 0x24D5 JUMP JUMPDEST SWAP2 POP PUSH2 0x25F7 DUP4 PUSH2 0x24D5 JUMP JUMPDEST SWAP3 POP DUP3 DUP3 MUL PUSH2 0x2605 DUP2 PUSH2 0x24D5 JUMP JUMPDEST SWAP2 POP DUP1 DUP3 EQ PUSH2 0x2617 JUMPI PUSH2 0x2616 PUSH2 0x2154 JUMP JUMPDEST JUMPDEST POP SWAP3 SWAP2 POP POP JUMP JUMPDEST PUSH32 0x4E487B7100000000000000000000000000000000000000000000000000000000 PUSH0 MSTORE PUSH1 0x12 PUSH1 0x4 MSTORE PUSH1 0x24 PUSH0 REVERT JUMPDEST PUSH0 PUSH2 0x2655 DUP3 PUSH2 0x1D76 JUMP JUMPDEST SWAP2 POP PUSH2 0x2660 DUP4 PUSH2 0x1D76 JUMP JUMPDEST SWAP3 POP DUP3 PUSH2 0x2670 JUMPI PUSH2 0x266F PUSH2 0x261E JUMP JUMPDEST JUMPDEST DUP3 DUP3 DIV SWAP1 POP SWAP3 SWAP2 POP POP JUMP JUMPDEST PUSH0 PUSH1 0x60 DUP3 ADD SWAP1 POP PUSH2 0x268E PUSH0 DUP4 ADD DUP7 PUSH2 0x1EAA JUMP JUMPDEST PUSH2 0x269B PUSH1 0x20 DUP4 ADD DUP6 PUSH2 0x1EAA JUMP JUMPDEST PUSH2 0x26A8 PUSH1 0x40 DUP4 ADD DUP5 PUSH2 0x1D7F JUMP JUMPDEST SWAP5 SWAP4 POP POP POP POP JUMP JUMPDEST PUSH0 PUSH1 0x80 DUP3 ADD SWAP1 POP PUSH2 0x26C3 PUSH0 DUP4 ADD DUP8 PUSH2 0x1D7F JUMP JUMPDEST DUP2 DUP2 SUB PUSH1 0x20 DUP4 ADD MSTORE PUSH2 0x26D5 DUP2 DUP7 PUSH2 0x22D1 JUMP JUMPDEST SWAP1 POP PUSH2 0x26E4 PUSH1 0x40 DUP4 ADD DUP6 PUSH2 0x1EAA JUMP JUMPDEST PUSH2 0x26F1 PUSH1 0x60 DUP4 ADD DUP5 PUSH2 0x1D7F JUMP JUMPDEST SWAP6 SWAP5 POP POP POP POP POP JUMP INVALID LOG2 PUSH5 0x6970667358 0x22 SLT KECCAK256 PUSH9 0x97F11937A188AF94AC 0xC8 DUP12 0xB3 LOG4 0xF SIGNEXTEND 0xDF DUP14 0xCC SLOAD 0xD 0xC4 ISZERO SWAP9 LOG1 SGT PUSH14 0xFA616E27E264736F6C634300081A STOP CALLER "
				},
				"gasEstimates": {
					"creation": {
						"codeDepositCost": "2006400",
						"executionCost": "infinite",
						"totalCost": "infinite"
					},
					"external": {
						"": "532",
						"consultKipuBankFunds()": "infinite",
						"deposit()": "infinite",
						"depositERC20(address,uint256,uint256)": "infinite",
						"emergencyWithdrawal(uint256,address)": "infinite",
						"i_bankCap()": "infinite",
						"i_maxWithdrawal()": "infinite",
						"i_usdc()": "infinite",
						"i_weth()": "infinite",
						"owner()": "2538",
						"renounceOwnership()": "infinite",
						"s_totalDepositsByToken(address)": "2870",
						"s_totalWithdrawals()": "2469",
						"transferOwnership(address)": "infinite",
						"uniswapFactory()": "infinite",
						"uniswapRouter()": "infinite",
						"withdrawUsdc(uint256)": "infinite"
					},
					"internal": {
						"_actualizeOperations(bool,address)": "infinite",
						"_consultFunds()": "infinite",
						"_depositETH(address,uint256)": "infinite",
						"_estimateUSDCOut(address,uint256)": "infinite"
					}
				},
				"methodIdentifiers": {
					"consultKipuBankFunds()": "c4cbcf3d",
					"deposit()": "d0e30db0",
					"depositERC20(address,uint256,uint256)": "21425ee0",
					"emergencyWithdrawal(uint256,address)": "9e2b5339",
					"i_bankCap()": "f6687af7",
					"i_maxWithdrawal()": "089781a9",
					"i_usdc()": "ff40e1d0",
					"i_weth()": "4dbe7e92",
					"owner()": "8da5cb5b",
					"renounceOwnership()": "715018a6",
					"s_totalDepositsByToken(address)": "260ad389",
					"s_totalWithdrawals()": "f3db702c",
					"transferOwnership(address)": "f2fde38b",
					"uniswapFactory()": "8bdb2afa",
					"uniswapRouter()": "735de9f7",
					"withdrawUsdc(uint256)": "5b06dece"
				}
			},
			"storageLayout": {
				"storage": [
					{
						"astId": 8,
						"contract": "contracts/KipuBankV3.sol:KipuBankV3",
						"label": "_owner",
						"offset": 0,
						"slot": "0",
						"type": "t_address"
					},
					{
						"astId": 846,
						"contract": "contracts/KipuBankV3.sol:KipuBankV3",
						"label": "_status",
						"offset": 0,
						"slot": "1",
						"type": "t_uint256"
					},
					{
						"astId": 1648,
						"contract": "contracts/KipuBankV3.sol:KipuBankV3",
						"label": "s_balances",
						"offset": 0,
						"slot": "2",
						"type": "t_mapping(t_address,t_uint256)"
					},
					{
						"astId": 1653,
						"contract": "contracts/KipuBankV3.sol:KipuBankV3",
						"label": "s_totalDepositsByToken",
						"offset": 0,
						"slot": "3",
						"type": "t_mapping(t_address,t_uint256)"
					},
					{
						"astId": 1656,
						"contract": "contracts/KipuBankV3.sol:KipuBankV3",
						"label": "s_totalWithdrawals",
						"offset": 0,
						"slot": "4",
						"type": "t_uint256"
					},
					{
						"astId": 1677,
						"contract": "contracts/KipuBankV3.sol:KipuBankV3",
						"label": "uniswapFactory",
						"offset": 0,
						"slot": "5",
						"type": "t_contract(IUniswapV2Factory)979"
					}
				],
				"types": {
					"t_address": {
						"encoding": "inplace",
						"label": "address",
						"numberOfBytes": "20"
					},
					"t_contract(IUniswapV2Factory)979": {
						"encoding": "inplace",
						"label": "contract IUniswapV2Factory",
						"numberOfBytes": "20"
					},
					"t_mapping(t_address,t_uint256)": {
						"encoding": "mapping",
						"key": "t_address",
						"label": "mapping(address => uint256)",
						"numberOfBytes": "32",
						"value": "t_uint256"
					},
					"t_uint256": {
						"encoding": "inplace",
						"label": "uint256",
						"numberOfBytes": "32"
					}
				}
			},
			"userdoc": {
				"errors": {
					"KipuBank_DeniedContract()": [
						{
							"notice": "Thrown during deployment if bank limits are set too low."
						}
					],
					"KipuBank_FailedDeposit(bytes)": [
						{
							"notice": "Thrown when a deposit fails due to exceeding the bank's maximum capacity."
						}
					],
					"KipuBank_FailedOperation(bytes)": [
						{
							"notice": "Thrown for general operational failures."
						}
					],
					"KipuBank_FailedWithdrawal(bytes)": [
						{
							"notice": "Thrown when a withdrawal fails."
						}
					],
					"KipuBank_InsufficientFunds(bytes)": [
						{
							"notice": "Thrown when a withdrawal is attempted without sufficient user balance."
						}
					],
					"KipuBank_NotSupportedToken(address)": [
						{
							"notice": "Thrown when a deposit is attempted for an ERC20 token that lacks a direct pair with USDC on Uniswap V2."
						}
					]
				},
				"events": {
					"KipuBank_EmergencyWithdrawal(uint256)": {
						"notice": "Emitted when the owner executes an emergency withdrawal of USDC."
					},
					"KipuBank_SuccessfulDeposit(address,uint256)": {
						"notice": "Emitted when a deposit is successful."
					},
					"KipuBank_SuccessfulWithdrawal(address,uint256)": {
						"notice": "Emitted when a withdrawal is successful."
					}
				},
				"kind": "user",
				"methods": {
					"constructor": {
						"notice": "Deploys the contract, initializing the owner, bank limits, supported tokens and the Uniswap V2 environment."
					},
					"consultKipuBankFunds()": {
						"notice": "Returns the total consolidated value of all assets held by the bank, which is the total balance of USDC."
					},
					"deposit()": {
						"notice": "Allows users to deposit native Ether (ETH) into the bank. ETH is automatically swapped to USDC."
					},
					"depositERC20(address,uint256,uint256)": {
						"notice": "Allows users to deposit any supported ERC20 token. The token is automatically swapped to USDC."
					},
					"emergencyWithdrawal(uint256,address)": {
						"notice": "Allows the contract owner to safely withdraw USDC from the contract in case of emergency or error."
					},
					"i_bankCap()": {
						"notice": "Maximum USD capacity that the bank can hold, scaled to 6 USDC decimals. Immutable."
					},
					"i_maxWithdrawal()": {
						"notice": "Maximum allowed withdrawal amount per transaction in USDC. Immutable."
					},
					"i_usdc()": {
						"notice": "The immutable interface address for the USDC ERC20 token."
					},
					"i_weth()": {
						"notice": "The immutable address for the WETH token, used as the intermediary for ETH swaps."
					},
					"s_totalDepositsByToken(address)": {
						"notice": "Total number of deposits made, tracked by the original token deposited."
					},
					"s_totalWithdrawals()": {
						"notice": "Total count of withdrawal operations executed from the bank."
					},
					"uniswapFactory()": {
						"notice": "The immutable interface for the Uniswap V2 Factory, derived from the router address."
					},
					"uniswapRouter()": {
						"notice": "The immutable interface for the Uniswap V2 Router, used for all swaps to USDC."
					},
					"withdrawUsdc(uint256)": {
						"notice": "Allows users to withdraw their consolidated balance, which is always paid out in USDC."
					}
				},
				"version": 1
			}
		}
	}
}