{
	"contracts/KipuBankV3.sol": {
		"KipuBankV3": {
			"abi": [
				{
					"inputs": [
						{
							"internalType": "address",
							"name": "_initialOwner",
							"type": "address"
						},
						{
							"internalType": "address",
							"name": "_weth",
							"type": "address"
						},
						{
							"internalType": "address",
							"name": "_usdc",
							"type": "address"
						},
						{
							"internalType": "address",
							"name": "_router",
							"type": "address"
						},
						{
							"internalType": "uint256",
							"name": "_bankCap",
							"type": "uint256"
						},
						{
							"internalType": "uint256",
							"name": "_maxWithdrawal",
							"type": "uint256"
						}
					],
					"stateMutability": "nonpayable",
					"type": "constructor"
				},
				{
					"inputs": [],
					"name": "KipuBank_DeniedContract",
					"type": "error"
				},
				{
					"inputs": [
						{
							"internalType": "bytes",
							"name": "error",
							"type": "bytes"
						}
					],
					"name": "KipuBank_FailedDeposit",
					"type": "error"
				},
				{
					"inputs": [
						{
							"internalType": "bytes",
							"name": "error",
							"type": "bytes"
						}
					],
					"name": "KipuBank_FailedOperation",
					"type": "error"
				},
				{
					"inputs": [
						{
							"internalType": "bytes",
							"name": "error",
							"type": "bytes"
						}
					],
					"name": "KipuBank_FailedWithdrawal",
					"type": "error"
				},
				{
					"inputs": [
						{
							"internalType": "bytes",
							"name": "error",
							"type": "bytes"
						}
					],
					"name": "KipuBank_InsufficientFounds",
					"type": "error"
				},
				{
					"inputs": [
						{
							"internalType": "address",
							"name": "token",
							"type": "address"
						}
					],
					"name": "KipuBank_NotSupportedToken",
					"type": "error"
				},
				{
					"inputs": [
						{
							"internalType": "address",
							"name": "owner",
							"type": "address"
						}
					],
					"name": "OwnableInvalidOwner",
					"type": "error"
				},
				{
					"inputs": [
						{
							"internalType": "address",
							"name": "account",
							"type": "address"
						}
					],
					"name": "OwnableUnauthorizedAccount",
					"type": "error"
				},
				{
					"inputs": [],
					"name": "ReentrancyGuardReentrantCall",
					"type": "error"
				},
				{
					"inputs": [
						{
							"internalType": "address",
							"name": "token",
							"type": "address"
						}
					],
					"name": "SafeERC20FailedOperation",
					"type": "error"
				},
				{
					"anonymous": false,
					"inputs": [
						{
							"indexed": false,
							"internalType": "address",
							"name": "receiver",
							"type": "address"
						},
						{
							"indexed": false,
							"internalType": "uint256",
							"name": "amount",
							"type": "uint256"
						}
					],
					"name": "KipuBank_SuccessfulDeposit",
					"type": "event"
				},
				{
					"anonymous": false,
					"inputs": [
						{
							"indexed": false,
							"internalType": "address",
							"name": "receiver",
							"type": "address"
						},
						{
							"indexed": false,
							"internalType": "uint256",
							"name": "amount",
							"type": "uint256"
						}
					],
					"name": "KipuBank_SuccessfulWithdrawal",
					"type": "event"
				},
				{
					"anonymous": false,
					"inputs": [
						{
							"indexed": true,
							"internalType": "address",
							"name": "previousOwner",
							"type": "address"
						},
						{
							"indexed": true,
							"internalType": "address",
							"name": "newOwner",
							"type": "address"
						}
					],
					"name": "OwnershipTransferred",
					"type": "event"
				},
				{
					"stateMutability": "nonpayable",
					"type": "fallback"
				},
				{
					"inputs": [],
					"name": "consultKipuBankFounds",
					"outputs": [
						{
							"internalType": "uint256",
							"name": "amount_",
							"type": "uint256"
						}
					],
					"stateMutability": "view",
					"type": "function"
				},
				{
					"inputs": [],
					"name": "deposit",
					"outputs": [],
					"stateMutability": "payable",
					"type": "function"
				},
				{
					"inputs": [
						{
							"internalType": "address",
							"name": "_token",
							"type": "address"
						},
						{
							"internalType": "uint256",
							"name": "_amountIn",
							"type": "uint256"
						},
						{
							"internalType": "uint256",
							"name": "_amountMinOut",
							"type": "uint256"
						}
					],
					"name": "depositERC20",
					"outputs": [],
					"stateMutability": "nonpayable",
					"type": "function"
				},
				{
					"inputs": [
						{
							"internalType": "uint256",
							"name": "_amount",
							"type": "uint256"
						},
						{
							"internalType": "address",
							"name": "_recipient",
							"type": "address"
						}
					],
					"name": "emergencyWithdrawal",
					"outputs": [],
					"stateMutability": "nonpayable",
					"type": "function"
				},
				{
					"inputs": [],
					"name": "i_bankCap",
					"outputs": [
						{
							"internalType": "uint256",
							"name": "",
							"type": "uint256"
						}
					],
					"stateMutability": "view",
					"type": "function"
				},
				{
					"inputs": [],
					"name": "i_maxWithdrawal",
					"outputs": [
						{
							"internalType": "uint256",
							"name": "",
							"type": "uint256"
						}
					],
					"stateMutability": "view",
					"type": "function"
				},
				{
					"inputs": [],
					"name": "i_usdc",
					"outputs": [
						{
							"internalType": "contract IERC20",
							"name": "",
							"type": "address"
						}
					],
					"stateMutability": "view",
					"type": "function"
				},
				{
					"inputs": [],
					"name": "i_weth",
					"outputs": [
						{
							"internalType": "address",
							"name": "",
							"type": "address"
						}
					],
					"stateMutability": "view",
					"type": "function"
				},
				{
					"inputs": [],
					"name": "owner",
					"outputs": [
						{
							"internalType": "address",
							"name": "",
							"type": "address"
						}
					],
					"stateMutability": "view",
					"type": "function"
				},
				{
					"inputs": [],
					"name": "renounceOwnership",
					"outputs": [],
					"stateMutability": "nonpayable",
					"type": "function"
				},
				{
					"inputs": [
						{
							"internalType": "address",
							"name": "",
							"type": "address"
						}
					],
					"name": "s_totalDepositsByToken",
					"outputs": [
						{
							"internalType": "uint256",
							"name": "",
							"type": "uint256"
						}
					],
					"stateMutability": "view",
					"type": "function"
				},
				{
					"inputs": [],
					"name": "s_totalWithdrawals",
					"outputs": [
						{
							"internalType": "uint256",
							"name": "",
							"type": "uint256"
						}
					],
					"stateMutability": "view",
					"type": "function"
				},
				{
					"inputs": [
						{
							"internalType": "address",
							"name": "newOwner",
							"type": "address"
						}
					],
					"name": "transferOwnership",
					"outputs": [],
					"stateMutability": "nonpayable",
					"type": "function"
				},
				{
					"inputs": [],
					"name": "uniswapFactory",
					"outputs": [
						{
							"internalType": "contract IUniswapV2Factory",
							"name": "",
							"type": "address"
						}
					],
					"stateMutability": "view",
					"type": "function"
				},
				{
					"inputs": [],
					"name": "uniswapRouter",
					"outputs": [
						{
							"internalType": "contract IUniswapV2Router02",
							"name": "",
							"type": "address"
						}
					],
					"stateMutability": "view",
					"type": "function"
				},
				{
					"inputs": [
						{
							"internalType": "uint256",
							"name": "_amount",
							"type": "uint256"
						}
					],
					"name": "withdrawUsdc",
					"outputs": [],
					"stateMutability": "nonpayable",
					"type": "function"
				},
				{
					"stateMutability": "payable",
					"type": "receive"
				}
			],
			"devdoc": {
				"errors": {
					"OwnableInvalidOwner(address)": [
						{
							"details": "The owner is not a valid owner account. (eg. `address(0)`)"
						}
					],
					"OwnableUnauthorizedAccount(address)": [
						{
							"details": "The caller account is not authorized to perform an operation."
						}
					],
					"ReentrancyGuardReentrantCall()": [
						{
							"details": "Unauthorized reentrant call."
						}
					],
					"SafeERC20FailedOperation(address)": [
						{
							"details": "An operation with an ERC-20 token failed."
						}
					]
				},
				"kind": "dev",
				"methods": {
					"owner()": {
						"details": "Returns the address of the current owner."
					},
					"renounceOwnership()": {
						"details": "Leaves the contract without owner. It will not be possible to call `onlyOwner` functions. Can only be called by the current owner. NOTE: Renouncing ownership will leave the contract without an owner, thereby disabling any functionality that is only available to the owner."
					},
					"transferOwnership(address)": {
						"details": "Transfers ownership of the contract to a new account (`newOwner`). Can only be called by the current owner."
					}
				},
				"version": 1
			},
			"evm": {
				"assembly": "    /* \"contracts/KipuBankV3.sol\":1057:11175  contract KipuBankV3 is Ownable, ReentrancyGuard{... */\n  mstore(0x40, 0x0120)\n    /* \"contracts/KipuBankV3.sol\":5301:5882  constructor(... */\n  callvalue\n  dup1\n  iszero\n  tag_1\n  jumpi\n  0x00\n  dup1\n  revert\ntag_1:\n  pop\n  mload(0x40)\n  sub(codesize, bytecodeSize)\n  dup1\n  bytecodeSize\n  dup4\n  codecopy\n  dup2\n  dup2\n  add\n  0x40\n  mstore\n  dup2\n  add\n  swap1\n  tag_2\n  swap2\n  swap1\n  tag_3\n  jump\t// in\ntag_2:\n    /* \"contracts/KipuBankV3.sol\":5472:5485  _initialOwner */\n  dup6\n    /* \"@openzeppelin/contracts/access/Ownable.sol\":1297:1298  0 */\n  0x00\n    /* \"@openzeppelin/contracts/access/Ownable.sol\":1273:1299  initialOwner == address(0) */\n  0xffffffffffffffffffffffffffffffffffffffff\n  and\n    /* \"@openzeppelin/contracts/access/Ownable.sol\":1273:1285  initialOwner */\n  dup2\n    /* \"@openzeppelin/contracts/access/Ownable.sol\":1273:1299  initialOwner == address(0) */\n  0xffffffffffffffffffffffffffffffffffffffff\n  and\n  sub\n    /* \"@openzeppelin/contracts/access/Ownable.sol\":1269:1364  if (initialOwner == address(0)) {... */\n  tag_8\n  jumpi\n    /* \"@openzeppelin/contracts/access/Ownable.sol\":1350:1351  0 */\n  0x00\n    /* \"@openzeppelin/contracts/access/Ownable.sol\":1322:1353  OwnableInvalidOwner(address(0)) */\n  mload(0x40)\n  0x1e4fbdf700000000000000000000000000000000000000000000000000000000\n  dup2\n  mstore\n  0x04\n  add\n  tag_9\n  swap2\n  swap1\n  tag_10\n  jump\t// in\ntag_9:\n  mload(0x40)\n  dup1\n  swap2\n  sub\n  swap1\n  revert\n    /* \"@openzeppelin/contracts/access/Ownable.sol\":1269:1364  if (initialOwner == address(0)) {... */\ntag_8:\n    /* \"@openzeppelin/contracts/access/Ownable.sol\":1373:1405  _transferOwnership(initialOwner) */\n  tag_11\n    /* \"@openzeppelin/contracts/access/Ownable.sol\":1392:1404  initialOwner */\n  dup2\n    /* \"@openzeppelin/contracts/access/Ownable.sol\":1373:1391  _transferOwnership */\n  shl(0x20, tag_12)\n    /* \"@openzeppelin/contracts/access/Ownable.sol\":1373:1405  _transferOwnership(initialOwner) */\n  0x20\n  shr\n  jump\t// in\ntag_11:\n    /* \"@openzeppelin/contracts/access/Ownable.sol\":1225:1412  constructor(address initialOwner) {... */\n  pop\n    /* \"@openzeppelin/contracts/utils/ReentrancyGuard.sol\":1857:1858  1 */\n  0x01\n    /* \"@openzeppelin/contracts/utils/ReentrancyGuard.sol\":2061:2068  _status */\n  dup1\n    /* \"@openzeppelin/contracts/utils/ReentrancyGuard.sol\":2061:2082  _status = NOT_ENTERED */\n  dup2\n  swap1\n  sstore\n  pop\n    /* \"contracts/KipuBankV3.sol\":5522:5524  10 */\n  0x0a\n    /* \"contracts/KipuBankV3.sol\":5511:5519  _bankCap */\n  dup3\n    /* \"contracts/KipuBankV3.sol\":5511:5524  _bankCap < 10 */\n  lt\n    /* \"contracts/KipuBankV3.sol\":5511:5546  _bankCap < 10 || _maxWithdrawal < 1 */\n  dup1\n  tag_15\n  jumpi\n  pop\n    /* \"contracts/KipuBankV3.sol\":5545:5546  1 */\n  0x01\n    /* \"contracts/KipuBankV3.sol\":5528:5542  _maxWithdrawal */\n  dup2\n    /* \"contracts/KipuBankV3.sol\":5528:5546  _maxWithdrawal < 1 */\n  lt\n    /* \"contracts/KipuBankV3.sol\":5511:5546  _bankCap < 10 || _maxWithdrawal < 1 */\ntag_15:\n    /* \"contracts/KipuBankV3.sol\":5507:5580  if (_bankCap < 10 || _maxWithdrawal < 1) revert KipuBank_DeniedContract() */\n  iszero\n  tag_16\n  jumpi\n    /* \"contracts/KipuBankV3.sol\":5555:5580  KipuBank_DeniedContract() */\n  mload(0x40)\n  0x01d65100000000000000000000000000000000000000000000000000000000\n  dup2\n  mstore\n  0x04\n  add\n  mload(0x40)\n  dup1\n  swap2\n  sub\n  swap1\n  revert\n    /* \"contracts/KipuBankV3.sol\":5507:5580  if (_bankCap < 10 || _maxWithdrawal < 1) revert KipuBank_DeniedContract() */\ntag_16:\n    /* \"contracts/KipuBankV3.sol\":5624:5629  10**8 */\n  0x05f5e100\n    /* \"contracts/KipuBankV3.sol\":5613:5621  _bankCap */\n  dup3\n    /* \"contracts/KipuBankV3.sol\":5613:5629  _bankCap * 10**8 */\n  tag_17\n  swap2\n  swap1\n  tag_18\n  jump\t// in\ntag_17:\n    /* \"contracts/KipuBankV3.sol\":5601:5629  i_bankCap = _bankCap * 10**8 */\n  0x80\n  dup2\n  dup2\n  mstore\n  pop\n  pop\n    /* \"contracts/KipuBankV3.sol\":5675:5680  10**8 */\n  0x05f5e100\n    /* \"contracts/KipuBankV3.sol\":5659:5673  _maxWithdrawal */\n  dup2\n    /* \"contracts/KipuBankV3.sol\":5659:5680  _maxWithdrawal* 10**8 */\n  tag_19\n  swap2\n  swap1\n  tag_18\n  jump\t// in\ntag_19:\n    /* \"contracts/KipuBankV3.sol\":5640:5680  i_maxWithdrawal  = _maxWithdrawal* 10**8 */\n  0xa0\n  dup2\n  dup2\n  mstore\n  pop\n  pop\n    /* \"contracts/KipuBankV3.sol\":5717:5722  _usdc */\n  dup4\n    /* \"contracts/KipuBankV3.sol\":5701:5723  i_usdc = IERC20(_usdc) */\n  0xffffffffffffffffffffffffffffffffffffffff\n  and\n  0xc0\n  dup2\n  0xffffffffffffffffffffffffffffffffffffffff\n  and\n  dup2\n  mstore\n  pop\n  pop\n    /* \"contracts/KipuBankV3.sol\":5743:5748  _weth */\n  dup5\n    /* \"contracts/KipuBankV3.sol\":5734:5748  i_weth = _weth */\n  0xffffffffffffffffffffffffffffffffffffffff\n  and\n  0xe0\n  dup2\n  0xffffffffffffffffffffffffffffffffffffffff\n  and\n  dup2\n  mstore\n  pop\n  pop\n    /* \"contracts/KipuBankV3.sol\":5796:5803  _router */\n  dup3\n    /* \"contracts/KipuBankV3.sol\":5761:5804  uniswapRouter = IUniswapV2Router02(_router) */\n  0xffffffffffffffffffffffffffffffffffffffff\n  and\n  0x0100\n  dup2\n  0xffffffffffffffffffffffffffffffffffffffff\n  and\n  dup2\n  mstore\n  pop\n  pop\n    /* \"contracts/KipuBankV3.sol\":5850:5863  uniswapRouter */\n  mload(0x0100)\n    /* \"contracts/KipuBankV3.sol\":5850:5871  uniswapRouter.factory */\n  0xffffffffffffffffffffffffffffffffffffffff\n  and\n  0xc45a0155\n    /* \"contracts/KipuBankV3.sol\":5850:5873  uniswapRouter.factory() */\n  mload(0x40)\n  dup2\n  0xffffffff\n  and\n  0xe0\n  shl\n  dup2\n  mstore\n  0x04\n  add\n  0x20\n  mload(0x40)\n  dup1\n  dup4\n  sub\n  dup2\n  dup7\n  gas\n  staticcall\n  iszero\n  dup1\n  iszero\n  tag_21\n  jumpi\n  returndatasize\n  0x00\n  dup1\n  returndatacopy\n  revert(0x00, returndatasize)\ntag_21:\n  pop\n  pop\n  pop\n  pop\n  mload(0x40)\n  returndatasize\n  not(0x1f)\n  0x1f\n  dup3\n  add\n  and\n  dup3\n  add\n  dup1\n  0x40\n  mstore\n  pop\n  dup2\n  add\n  swap1\n  tag_22\n  swap2\n  swap1\n  tag_23\n  jump\t// in\ntag_22:\n    /* \"contracts/KipuBankV3.sol\":5815:5829  uniswapFactory */\n  0x05\n  0x00\n    /* \"contracts/KipuBankV3.sol\":5815:5874  uniswapFactory = IUniswapV2Factory(uniswapRouter.factory()) */\n  0x0100\n  exp\n  dup2\n  sload\n  dup2\n  0xffffffffffffffffffffffffffffffffffffffff\n  mul\n  not\n  and\n  swap1\n  dup4\n  0xffffffffffffffffffffffffffffffffffffffff\n  and\n  mul\n  or\n  swap1\n  sstore\n  pop\n    /* \"contracts/KipuBankV3.sol\":5301:5882  constructor(... */\n  pop\n  pop\n  pop\n  pop\n  pop\n  pop\n    /* \"contracts/KipuBankV3.sol\":1057:11175  contract KipuBankV3 is Ownable, ReentrancyGuard{... */\n  jump(tag_24)\n    /* \"@openzeppelin/contracts/access/Ownable.sol\":2912:3099  function _transferOwnership(address newOwner) internal virtual {... */\ntag_12:\n    /* \"@openzeppelin/contracts/access/Ownable.sol\":2985:3001  address oldOwner */\n  0x00\n    /* \"@openzeppelin/contracts/access/Ownable.sol\":3004:3010  _owner */\n  dup1\n  0x00\n  swap1\n  sload\n  swap1\n  0x0100\n  exp\n  swap1\n  div\n  0xffffffffffffffffffffffffffffffffffffffff\n  and\n    /* \"@openzeppelin/contracts/access/Ownable.sol\":2985:3010  address oldOwner = _owner */\n  swap1\n  pop\n    /* \"@openzeppelin/contracts/access/Ownable.sol\":3029:3037  newOwner */\n  dup2\n    /* \"@openzeppelin/contracts/access/Ownable.sol\":3020:3026  _owner */\n  0x00\n  dup1\n    /* \"@openzeppelin/contracts/access/Ownable.sol\":3020:3037  _owner = newOwner */\n  0x0100\n  exp\n  dup2\n  sload\n  dup2\n  0xffffffffffffffffffffffffffffffffffffffff\n  mul\n  not\n  and\n  swap1\n  dup4\n  0xffffffffffffffffffffffffffffffffffffffff\n  and\n  mul\n  or\n  swap1\n  sstore\n  pop\n    /* \"@openzeppelin/contracts/access/Ownable.sol\":3083:3091  newOwner */\n  dup2\n    /* \"@openzeppelin/contracts/access/Ownable.sol\":3052:3092  OwnershipTransferred(oldOwner, newOwner) */\n  0xffffffffffffffffffffffffffffffffffffffff\n  and\n    /* \"@openzeppelin/contracts/access/Ownable.sol\":3073:3081  oldOwner */\n  dup2\n    /* \"@openzeppelin/contracts/access/Ownable.sol\":3052:3092  OwnershipTransferred(oldOwner, newOwner) */\n  0xffffffffffffffffffffffffffffffffffffffff\n  and\n  0x8be0079c531659141344cd1fd0a4f28419497f9722a3daafe3b4186f6b6457e0\n  mload(0x40)\n  mload(0x40)\n  dup1\n  swap2\n  sub\n  swap1\n  log3\n    /* \"@openzeppelin/contracts/access/Ownable.sol\":2975:3099  {... */\n  pop\n    /* \"@openzeppelin/contracts/access/Ownable.sol\":2912:3099  function _transferOwnership(address newOwner) internal virtual {... */\n  pop\n  jump\t// out\n    /* \"#utility.yul\":88:205   */\ntag_27:\n    /* \"#utility.yul\":197:198   */\n  0x00\n    /* \"#utility.yul\":194:195   */\n  dup1\n    /* \"#utility.yul\":187:199   */\n  revert\n    /* \"#utility.yul\":334:460   */\ntag_29:\n    /* \"#utility.yul\":371:378   */\n  0x00\n    /* \"#utility.yul\":411:453   */\n  0xffffffffffffffffffffffffffffffffffffffff\n    /* \"#utility.yul\":404:409   */\n  dup3\n    /* \"#utility.yul\":400:454   */\n  and\n    /* \"#utility.yul\":389:454   */\n  swap1\n  pop\n    /* \"#utility.yul\":334:460   */\n  swap2\n  swap1\n  pop\n  jump\t// out\n    /* \"#utility.yul\":466:562   */\ntag_30:\n    /* \"#utility.yul\":503:510   */\n  0x00\n    /* \"#utility.yul\":532:556   */\n  tag_44\n    /* \"#utility.yul\":550:555   */\n  dup3\n    /* \"#utility.yul\":532:556   */\n  tag_29\n  jump\t// in\ntag_44:\n    /* \"#utility.yul\":521:556   */\n  swap1\n  pop\n    /* \"#utility.yul\":466:562   */\n  swap2\n  swap1\n  pop\n  jump\t// out\n    /* \"#utility.yul\":568:690   */\ntag_31:\n    /* \"#utility.yul\":641:665   */\n  tag_46\n    /* \"#utility.yul\":659:664   */\n  dup2\n    /* \"#utility.yul\":641:665   */\n  tag_30\n  jump\t// in\ntag_46:\n    /* \"#utility.yul\":634:639   */\n  dup2\n    /* \"#utility.yul\":631:666   */\n  eq\n    /* \"#utility.yul\":621:684   */\n  tag_47\n  jumpi\n    /* \"#utility.yul\":680:681   */\n  0x00\n    /* \"#utility.yul\":677:678   */\n  dup1\n    /* \"#utility.yul\":670:682   */\n  revert\n    /* \"#utility.yul\":621:684   */\ntag_47:\n    /* \"#utility.yul\":568:690   */\n  pop\n  jump\t// out\n    /* \"#utility.yul\":696:839   */\ntag_32:\n    /* \"#utility.yul\":753:758   */\n  0x00\n    /* \"#utility.yul\":784:790   */\n  dup2\n    /* \"#utility.yul\":778:791   */\n  mload\n    /* \"#utility.yul\":769:791   */\n  swap1\n  pop\n    /* \"#utility.yul\":800:833   */\n  tag_49\n    /* \"#utility.yul\":827:832   */\n  dup2\n    /* \"#utility.yul\":800:833   */\n  tag_31\n  jump\t// in\ntag_49:\n    /* \"#utility.yul\":696:839   */\n  swap3\n  swap2\n  pop\n  pop\n  jump\t// out\n    /* \"#utility.yul\":845:922   */\ntag_33:\n    /* \"#utility.yul\":882:889   */\n  0x00\n    /* \"#utility.yul\":911:916   */\n  dup2\n    /* \"#utility.yul\":900:916   */\n  swap1\n  pop\n    /* \"#utility.yul\":845:922   */\n  swap2\n  swap1\n  pop\n  jump\t// out\n    /* \"#utility.yul\":928:1050   */\ntag_34:\n    /* \"#utility.yul\":1001:1025   */\n  tag_52\n    /* \"#utility.yul\":1019:1024   */\n  dup2\n    /* \"#utility.yul\":1001:1025   */\n  tag_33\n  jump\t// in\ntag_52:\n    /* \"#utility.yul\":994:999   */\n  dup2\n    /* \"#utility.yul\":991:1026   */\n  eq\n    /* \"#utility.yul\":981:1044   */\n  tag_53\n  jumpi\n    /* \"#utility.yul\":1040:1041   */\n  0x00\n    /* \"#utility.yul\":1037:1038   */\n  dup1\n    /* \"#utility.yul\":1030:1042   */\n  revert\n    /* \"#utility.yul\":981:1044   */\ntag_53:\n    /* \"#utility.yul\":928:1050   */\n  pop\n  jump\t// out\n    /* \"#utility.yul\":1056:1199   */\ntag_35:\n    /* \"#utility.yul\":1113:1118   */\n  0x00\n    /* \"#utility.yul\":1144:1150   */\n  dup2\n    /* \"#utility.yul\":1138:1151   */\n  mload\n    /* \"#utility.yul\":1129:1151   */\n  swap1\n  pop\n    /* \"#utility.yul\":1160:1193   */\n  tag_55\n    /* \"#utility.yul\":1187:1192   */\n  dup2\n    /* \"#utility.yul\":1160:1193   */\n  tag_34\n  jump\t// in\ntag_55:\n    /* \"#utility.yul\":1056:1199   */\n  swap3\n  swap2\n  pop\n  pop\n  jump\t// out\n    /* \"#utility.yul\":1205:2339   */\ntag_3:\n    /* \"#utility.yul\":1320:1326   */\n  0x00\n    /* \"#utility.yul\":1328:1334   */\n  dup1\n    /* \"#utility.yul\":1336:1342   */\n  0x00\n    /* \"#utility.yul\":1344:1350   */\n  dup1\n    /* \"#utility.yul\":1352:1358   */\n  0x00\n    /* \"#utility.yul\":1360:1366   */\n  dup1\n    /* \"#utility.yul\":1409:1412   */\n  0xc0\n    /* \"#utility.yul\":1397:1406   */\n  dup8\n    /* \"#utility.yul\":1388:1395   */\n  dup10\n    /* \"#utility.yul\":1384:1407   */\n  sub\n    /* \"#utility.yul\":1380:1413   */\n  slt\n    /* \"#utility.yul\":1377:1497   */\n  iszero\n  tag_57\n  jumpi\n    /* \"#utility.yul\":1416:1495   */\n  tag_58\n  tag_27\n  jump\t// in\ntag_58:\n    /* \"#utility.yul\":1377:1497   */\ntag_57:\n    /* \"#utility.yul\":1536:1537   */\n  0x00\n    /* \"#utility.yul\":1561:1625   */\n  tag_59\n    /* \"#utility.yul\":1617:1624   */\n  dup10\n    /* \"#utility.yul\":1608:1614   */\n  dup3\n    /* \"#utility.yul\":1597:1606   */\n  dup11\n    /* \"#utility.yul\":1593:1615   */\n  add\n    /* \"#utility.yul\":1561:1625   */\n  tag_32\n  jump\t// in\ntag_59:\n    /* \"#utility.yul\":1551:1625   */\n  swap7\n  pop\n    /* \"#utility.yul\":1507:1635   */\n  pop\n    /* \"#utility.yul\":1674:1676   */\n  0x20\n    /* \"#utility.yul\":1700:1764   */\n  tag_60\n    /* \"#utility.yul\":1756:1763   */\n  dup10\n    /* \"#utility.yul\":1747:1753   */\n  dup3\n    /* \"#utility.yul\":1736:1745   */\n  dup11\n    /* \"#utility.yul\":1732:1754   */\n  add\n    /* \"#utility.yul\":1700:1764   */\n  tag_32\n  jump\t// in\ntag_60:\n    /* \"#utility.yul\":1690:1764   */\n  swap6\n  pop\n    /* \"#utility.yul\":1645:1774   */\n  pop\n    /* \"#utility.yul\":1813:1815   */\n  0x40\n    /* \"#utility.yul\":1839:1903   */\n  tag_61\n    /* \"#utility.yul\":1895:1902   */\n  dup10\n    /* \"#utility.yul\":1886:1892   */\n  dup3\n    /* \"#utility.yul\":1875:1884   */\n  dup11\n    /* \"#utility.yul\":1871:1893   */\n  add\n    /* \"#utility.yul\":1839:1903   */\n  tag_32\n  jump\t// in\ntag_61:\n    /* \"#utility.yul\":1829:1903   */\n  swap5\n  pop\n    /* \"#utility.yul\":1784:1913   */\n  pop\n    /* \"#utility.yul\":1952:1954   */\n  0x60\n    /* \"#utility.yul\":1978:2042   */\n  tag_62\n    /* \"#utility.yul\":2034:2041   */\n  dup10\n    /* \"#utility.yul\":2025:2031   */\n  dup3\n    /* \"#utility.yul\":2014:2023   */\n  dup11\n    /* \"#utility.yul\":2010:2032   */\n  add\n    /* \"#utility.yul\":1978:2042   */\n  tag_32\n  jump\t// in\ntag_62:\n    /* \"#utility.yul\":1968:2042   */\n  swap4\n  pop\n    /* \"#utility.yul\":1923:2052   */\n  pop\n    /* \"#utility.yul\":2091:2094   */\n  0x80\n    /* \"#utility.yul\":2118:2182   */\n  tag_63\n    /* \"#utility.yul\":2174:2181   */\n  dup10\n    /* \"#utility.yul\":2165:2171   */\n  dup3\n    /* \"#utility.yul\":2154:2163   */\n  dup11\n    /* \"#utility.yul\":2150:2172   */\n  add\n    /* \"#utility.yul\":2118:2182   */\n  tag_35\n  jump\t// in\ntag_63:\n    /* \"#utility.yul\":2108:2182   */\n  swap3\n  pop\n    /* \"#utility.yul\":2062:2192   */\n  pop\n    /* \"#utility.yul\":2231:2234   */\n  0xa0\n    /* \"#utility.yul\":2258:2322   */\n  tag_64\n    /* \"#utility.yul\":2314:2321   */\n  dup10\n    /* \"#utility.yul\":2305:2311   */\n  dup3\n    /* \"#utility.yul\":2294:2303   */\n  dup11\n    /* \"#utility.yul\":2290:2312   */\n  add\n    /* \"#utility.yul\":2258:2322   */\n  tag_35\n  jump\t// in\ntag_64:\n    /* \"#utility.yul\":2248:2322   */\n  swap2\n  pop\n    /* \"#utility.yul\":2202:2332   */\n  pop\n    /* \"#utility.yul\":1205:2339   */\n  swap3\n  swap6\n  pop\n  swap3\n  swap6\n  pop\n  swap3\n  swap6\n  jump\t// out\n    /* \"#utility.yul\":2345:2463   */\ntag_36:\n    /* \"#utility.yul\":2432:2456   */\n  tag_66\n    /* \"#utility.yul\":2450:2455   */\n  dup2\n    /* \"#utility.yul\":2432:2456   */\n  tag_30\n  jump\t// in\ntag_66:\n    /* \"#utility.yul\":2427:2430   */\n  dup3\n    /* \"#utility.yul\":2420:2457   */\n  mstore\n    /* \"#utility.yul\":2345:2463   */\n  pop\n  pop\n  jump\t// out\n    /* \"#utility.yul\":2469:2691   */\ntag_10:\n    /* \"#utility.yul\":2562:2566   */\n  0x00\n    /* \"#utility.yul\":2600:2602   */\n  0x20\n    /* \"#utility.yul\":2589:2598   */\n  dup3\n    /* \"#utility.yul\":2585:2603   */\n  add\n    /* \"#utility.yul\":2577:2603   */\n  swap1\n  pop\n    /* \"#utility.yul\":2613:2684   */\n  tag_68\n    /* \"#utility.yul\":2681:2682   */\n  0x00\n    /* \"#utility.yul\":2670:2679   */\n  dup4\n    /* \"#utility.yul\":2666:2683   */\n  add\n    /* \"#utility.yul\":2657:2663   */\n  dup5\n    /* \"#utility.yul\":2613:2684   */\n  tag_36\n  jump\t// in\ntag_68:\n    /* \"#utility.yul\":2469:2691   */\n  swap3\n  swap2\n  pop\n  pop\n  jump\t// out\n    /* \"#utility.yul\":2697:2877   */\ntag_37:\n    /* \"#utility.yul\":2745:2822   */\n  0x4e487b7100000000000000000000000000000000000000000000000000000000\n    /* \"#utility.yul\":2742:2743   */\n  0x00\n    /* \"#utility.yul\":2735:2823   */\n  mstore\n    /* \"#utility.yul\":2842:2846   */\n  0x11\n    /* \"#utility.yul\":2839:2840   */\n  0x04\n    /* \"#utility.yul\":2832:2847   */\n  mstore\n    /* \"#utility.yul\":2866:2870   */\n  0x24\n    /* \"#utility.yul\":2863:2864   */\n  0x00\n    /* \"#utility.yul\":2856:2871   */\n  revert\n    /* \"#utility.yul\":2883:3293   */\ntag_18:\n    /* \"#utility.yul\":2923:2930   */\n  0x00\n    /* \"#utility.yul\":2946:2966   */\n  tag_71\n    /* \"#utility.yul\":2964:2965   */\n  dup3\n    /* \"#utility.yul\":2946:2966   */\n  tag_33\n  jump\t// in\ntag_71:\n    /* \"#utility.yul\":2941:2966   */\n  swap2\n  pop\n    /* \"#utility.yul\":2980:3000   */\n  tag_72\n    /* \"#utility.yul\":2998:2999   */\n  dup4\n    /* \"#utility.yul\":2980:3000   */\n  tag_33\n  jump\t// in\ntag_72:\n    /* \"#utility.yul\":2975:3000   */\n  swap3\n  pop\n    /* \"#utility.yul\":3035:3036   */\n  dup3\n    /* \"#utility.yul\":3032:3033   */\n  dup3\n    /* \"#utility.yul\":3028:3037   */\n  mul\n    /* \"#utility.yul\":3057:3087   */\n  tag_73\n    /* \"#utility.yul\":3075:3086   */\n  dup2\n    /* \"#utility.yul\":3057:3087   */\n  tag_33\n  jump\t// in\ntag_73:\n    /* \"#utility.yul\":3046:3087   */\n  swap2\n  pop\n    /* \"#utility.yul\":3236:3237   */\n  dup3\n    /* \"#utility.yul\":3227:3234   */\n  dup3\n    /* \"#utility.yul\":3223:3238   */\n  div\n    /* \"#utility.yul\":3220:3221   */\n  dup5\n    /* \"#utility.yul\":3217:3239   */\n  eq\n    /* \"#utility.yul\":3197:3198   */\n  dup4\n    /* \"#utility.yul\":3190:3199   */\n  iszero\n    /* \"#utility.yul\":3170:3253   */\n  or\n    /* \"#utility.yul\":3147:3286   */\n  tag_74\n  jumpi\n    /* \"#utility.yul\":3266:3284   */\n  tag_75\n  tag_37\n  jump\t// in\ntag_75:\n    /* \"#utility.yul\":3147:3286   */\ntag_74:\n    /* \"#utility.yul\":2931:3293   */\n  pop\n    /* \"#utility.yul\":2883:3293   */\n  swap3\n  swap2\n  pop\n  pop\n  jump\t// out\n    /* \"#utility.yul\":3299:3650   */\ntag_23:\n    /* \"#utility.yul\":3369:3375   */\n  0x00\n    /* \"#utility.yul\":3418:3420   */\n  0x20\n    /* \"#utility.yul\":3406:3415   */\n  dup3\n    /* \"#utility.yul\":3397:3404   */\n  dup5\n    /* \"#utility.yul\":3393:3416   */\n  sub\n    /* \"#utility.yul\":3389:3421   */\n  slt\n    /* \"#utility.yul\":3386:3505   */\n  iszero\n  tag_77\n  jumpi\n    /* \"#utility.yul\":3424:3503   */\n  tag_78\n  tag_27\n  jump\t// in\ntag_78:\n    /* \"#utility.yul\":3386:3505   */\ntag_77:\n    /* \"#utility.yul\":3544:3545   */\n  0x00\n    /* \"#utility.yul\":3569:3633   */\n  tag_79\n    /* \"#utility.yul\":3625:3632   */\n  dup5\n    /* \"#utility.yul\":3616:3622   */\n  dup3\n    /* \"#utility.yul\":3605:3614   */\n  dup6\n    /* \"#utility.yul\":3601:3623   */\n  add\n    /* \"#utility.yul\":3569:3633   */\n  tag_32\n  jump\t// in\ntag_79:\n    /* \"#utility.yul\":3559:3633   */\n  swap2\n  pop\n    /* \"#utility.yul\":3515:3643   */\n  pop\n    /* \"#utility.yul\":3299:3650   */\n  swap3\n  swap2\n  pop\n  pop\n  jump\t// out\n    /* \"contracts/KipuBankV3.sol\":1057:11175  contract KipuBankV3 is Ownable, ReentrancyGuard{... */\ntag_24:\n  mload(0x80)\n  mload(0xa0)\n  mload(0xc0)\n  mload(0xe0)\n  mload(0x0100)\n  codecopy(0x00, dataOffset(sub_0), dataSize(sub_0))\n  0x00\n  assignImmutable(\"0x85f02f516c7d0991c664a4bec2d330227d63675d95439bf15f2f85c90c4fd2e5\")\n  0x00\n  assignImmutable(\"0x309aa99e4c861402170585a42262b5b520b1e1d0fbf588b84ec666d14740e5b1\")\n  0x00\n  assignImmutable(\"0xe0800c6beceec1247d5682d9f388b4169d48b373c18811205d6cd68456d8cf3b\")\n  0x00\n  assignImmutable(\"0x25f9e8aeae9c2ffb4081060f1a62aa0739d35380589299578ccc29b3c3a0654e\")\n  0x00\n  assignImmutable(\"0xad55db84fbe3147935ae260b6daeae918a666c79e031e119ec3348828c3cd0fb\")\n  return(0x00, dataSize(sub_0))\nstop\n\nsub_0: assembly {\n        /* \"contracts/KipuBankV3.sol\":1057:11175  contract KipuBankV3 is Ownable, ReentrancyGuard{... */\n      mstore(0x40, 0x80)\n      jumpi(tag_1, lt(calldatasize, 0x04))\n      shr(0xe0, calldataload(0x00))\n      dup1\n      0x8bdb2afa\n      gt\n      tag_19\n      jumpi\n      dup1\n      0xf2fde38b\n      gt\n      tag_20\n      jumpi\n      dup1\n      0xf2fde38b\n      eq\n      tag_15\n      jumpi\n      dup1\n      0xf3db702c\n      eq\n      tag_16\n      jumpi\n      dup1\n      0xf6687af7\n      eq\n      tag_17\n      jumpi\n      dup1\n      0xff40e1d0\n      eq\n      tag_18\n      jumpi\n      jump(tag_2)\n    tag_20:\n      dup1\n      0x8bdb2afa\n      eq\n      tag_11\n      jumpi\n      dup1\n      0x8da5cb5b\n      eq\n      tag_12\n      jumpi\n      dup1\n      0x9e2b5339\n      eq\n      tag_13\n      jumpi\n      dup1\n      0xd0e30db0\n      eq\n      tag_14\n      jumpi\n      jump(tag_2)\n    tag_19:\n      dup1\n      0x4dbe7e92\n      gt\n      tag_21\n      jumpi\n      dup1\n      0x4dbe7e92\n      eq\n      tag_7\n      jumpi\n      dup1\n      0x5b06dece\n      eq\n      tag_8\n      jumpi\n      dup1\n      0x715018a6\n      eq\n      tag_9\n      jumpi\n      dup1\n      0x735de9f7\n      eq\n      tag_10\n      jumpi\n      jump(tag_2)\n    tag_21:\n      dup1\n      0x06f69acc\n      eq\n      tag_3\n      jumpi\n      dup1\n      0x089781a9\n      eq\n      tag_4\n      jumpi\n      dup1\n      0x21425ee0\n      eq\n      tag_5\n      jumpi\n      dup1\n      0x260ad389\n      eq\n      tag_6\n      jumpi\n      jump(tag_2)\n    tag_1:\n      jumpi(tag_2, calldatasize)\n        /* \"contracts/KipuBankV3.sol\":6082:6116  _depositETH(msg.sender, msg.value) */\n      tag_24\n        /* \"contracts/KipuBankV3.sol\":6094:6104  msg.sender */\n      caller\n        /* \"contracts/KipuBankV3.sol\":6106:6115  msg.value */\n      callvalue\n        /* \"contracts/KipuBankV3.sol\":6082:6093  _depositETH */\n      tag_25\n        /* \"contracts/KipuBankV3.sol\":6082:6116  _depositETH(msg.sender, msg.value) */\n      jump\t// in\n    tag_24:\n        /* \"contracts/KipuBankV3.sol\":1057:11175  contract KipuBankV3 is Ownable, ReentrancyGuard{... */\n      stop\n    tag_2:\n      callvalue\n      dup1\n      iszero\n      tag_26\n      jumpi\n      0x00\n      dup1\n      revert\n    tag_26:\n      pop\n        /* \"contracts/KipuBankV3.sol\":6287:6362  KipuBank_FailedOperation(\"Operation does not exists or data was incorrect\") */\n      mload(0x40)\n      0x336ea14200000000000000000000000000000000000000000000000000000000\n      dup2\n      mstore\n      0x04\n      add\n      tag_29\n      swap1\n      tag_30\n      jump\t// in\n    tag_29:\n      mload(0x40)\n      dup1\n      swap2\n      sub\n      swap1\n      revert\n        /* \"contracts/KipuBankV3.sol\":6619:6782  function consultKipuBankFounds() external view returns (uint256 amount_){... */\n    tag_3:\n      callvalue\n      dup1\n      iszero\n      tag_31\n      jumpi\n      0x00\n      dup1\n      revert\n    tag_31:\n      pop\n      tag_32\n      tag_33\n      jump\t// in\n    tag_32:\n      mload(0x40)\n      tag_34\n      swap2\n      swap1\n      tag_35\n      jump\t// in\n    tag_34:\n      mload(0x40)\n      dup1\n      swap2\n      sub\n      swap1\n      return\n        /* \"contracts/KipuBankV3.sol\":1783:1823  uint256 public immutable i_maxWithdrawal */\n    tag_4:\n      callvalue\n      dup1\n      iszero\n      tag_36\n      jumpi\n      0x00\n      dup1\n      revert\n    tag_36:\n      pop\n      tag_37\n      tag_38\n      jump\t// in\n    tag_37:\n      mload(0x40)\n      tag_39\n      swap2\n      swap1\n      tag_35\n      jump\t// in\n    tag_39:\n      mload(0x40)\n      dup1\n      swap2\n      sub\n      swap1\n      return\n        /* \"contracts/KipuBankV3.sol\":7183:8536  function depositERC20(address _token, uint256 _amountIn, uint256 _amountMinOut... */\n    tag_5:\n      callvalue\n      dup1\n      iszero\n      tag_40\n      jumpi\n      0x00\n      dup1\n      revert\n    tag_40:\n      pop\n      tag_41\n      0x04\n      dup1\n      calldatasize\n      sub\n      dup2\n      add\n      swap1\n      tag_42\n      swap2\n      swap1\n      tag_43\n      jump\t// in\n    tag_42:\n      tag_44\n      jump\t// in\n    tag_41:\n      stop\n        /* \"contracts/KipuBankV3.sol\":1452:1509  mapping(address => uint256) public s_totalDepositsByToken */\n    tag_6:\n      callvalue\n      dup1\n      iszero\n      tag_45\n      jumpi\n      0x00\n      dup1\n      revert\n    tag_45:\n      pop\n      tag_46\n      0x04\n      dup1\n      calldatasize\n      sub\n      dup2\n      add\n      swap1\n      tag_47\n      swap2\n      swap1\n      tag_48\n      jump\t// in\n    tag_47:\n      tag_49\n      jump\t// in\n    tag_46:\n      mload(0x40)\n      tag_50\n      swap2\n      swap1\n      tag_35\n      jump\t// in\n    tag_50:\n      mload(0x40)\n      dup1\n      swap2\n      sub\n      swap1\n      return\n        /* \"contracts/KipuBankV3.sol\":1915:1946  address public immutable i_weth */\n    tag_7:\n      callvalue\n      dup1\n      iszero\n      tag_51\n      jumpi\n      0x00\n      dup1\n      revert\n    tag_51:\n      pop\n      tag_52\n      tag_53\n      jump\t// in\n    tag_52:\n      mload(0x40)\n      tag_54\n      swap2\n      swap1\n      tag_55\n      jump\t// in\n    tag_54:\n      mload(0x40)\n      dup1\n      swap2\n      sub\n      swap1\n      return\n        /* \"contracts/KipuBankV3.sol\":8544:8897  function withdrawUsdc(uint256 _amount) external nonReentrant _availableAmount(_amount){... */\n    tag_8:\n      callvalue\n      dup1\n      iszero\n      tag_56\n      jumpi\n      0x00\n      dup1\n      revert\n    tag_56:\n      pop\n      tag_57\n      0x04\n      dup1\n      calldatasize\n      sub\n      dup2\n      add\n      swap1\n      tag_58\n      swap2\n      swap1\n      tag_59\n      jump\t// in\n    tag_58:\n      tag_60\n      jump\t// in\n    tag_57:\n      stop\n        /* \"@openzeppelin/contracts/access/Ownable.sol\":2293:2394  function renounceOwnership() public virtual onlyOwner {... */\n    tag_9:\n      callvalue\n      dup1\n      iszero\n      tag_61\n      jumpi\n      0x00\n      dup1\n      revert\n    tag_61:\n      pop\n      tag_62\n      tag_63\n      jump\t// in\n    tag_62:\n      stop\n        /* \"contracts/KipuBankV3.sol\":2016:2065  IUniswapV2Router02 public immutable uniswapRouter */\n    tag_10:\n      callvalue\n      dup1\n      iszero\n      tag_64\n      jumpi\n      0x00\n      dup1\n      revert\n    tag_64:\n      pop\n      tag_65\n      tag_66\n      jump\t// in\n    tag_65:\n      mload(0x40)\n      tag_67\n      swap2\n      swap1\n      tag_68\n      jump\t// in\n    tag_67:\n      mload(0x40)\n      dup1\n      swap2\n      sub\n      swap1\n      return\n        /* \"contracts/KipuBankV3.sol\":2074:2113  IUniswapV2Factory public uniswapFactory */\n    tag_11:\n      callvalue\n      dup1\n      iszero\n      tag_69\n      jumpi\n      0x00\n      dup1\n      revert\n    tag_69:\n      pop\n      tag_70\n      tag_71\n      jump\t// in\n    tag_70:\n      mload(0x40)\n      tag_72\n      swap2\n      swap1\n      tag_73\n      jump\t// in\n    tag_72:\n      mload(0x40)\n      dup1\n      swap2\n      sub\n      swap1\n      return\n        /* \"@openzeppelin/contracts/access/Ownable.sol\":1638:1723  function owner() public view virtual returns (address) {... */\n    tag_12:\n      callvalue\n      dup1\n      iszero\n      tag_74\n      jumpi\n      0x00\n      dup1\n      revert\n    tag_74:\n      pop\n      tag_75\n      tag_76\n      jump\t// in\n    tag_75:\n      mload(0x40)\n      tag_77\n      swap2\n      swap1\n      tag_55\n      jump\t// in\n    tag_77:\n      mload(0x40)\n      dup1\n      swap2\n      sub\n      swap1\n      return\n        /* \"contracts/KipuBankV3.sol\":8905:9057  function emergencyWithdrawal(uint256 _amount, address _recipient) external onlyOwner {... */\n    tag_13:\n      callvalue\n      dup1\n      iszero\n      tag_78\n      jumpi\n      0x00\n      dup1\n      revert\n    tag_78:\n      pop\n      tag_79\n      0x04\n      dup1\n      calldatasize\n      sub\n      dup2\n      add\n      swap1\n      tag_80\n      swap2\n      swap1\n      tag_81\n      jump\t// in\n    tag_80:\n      tag_82\n      jump\t// in\n    tag_79:\n      stop\n        /* \"contracts/KipuBankV3.sol\":7074:7175  function deposit() external payable nonReentrant{... */\n    tag_14:\n      tag_83\n      tag_84\n      jump\t// in\n    tag_83:\n      stop\n        /* \"@openzeppelin/contracts/access/Ownable.sol\":2543:2758  function transferOwnership(address newOwner) public virtual onlyOwner {... */\n    tag_15:\n      callvalue\n      dup1\n      iszero\n      tag_85\n      jumpi\n      0x00\n      dup1\n      revert\n    tag_85:\n      pop\n      tag_86\n      0x04\n      dup1\n      calldatasize\n      sub\n      dup2\n      add\n      swap1\n      tag_87\n      swap2\n      swap1\n      tag_48\n      jump\t// in\n    tag_87:\n      tag_88\n      jump\t// in\n    tag_86:\n      stop\n        /* \"contracts/KipuBankV3.sol\":1568:1601  uint256 public s_totalWithdrawals */\n    tag_16:\n      callvalue\n      dup1\n      iszero\n      tag_89\n      jumpi\n      0x00\n      dup1\n      revert\n    tag_89:\n      pop\n      tag_90\n      tag_91\n      jump\t// in\n    tag_90:\n      mload(0x40)\n      tag_92\n      swap2\n      swap1\n      tag_35\n      jump\t// in\n    tag_92:\n      mload(0x40)\n      dup1\n      swap2\n      sub\n      swap1\n      return\n        /* \"contracts/KipuBankV3.sol\":1673:1707  uint256 public immutable i_bankCap */\n    tag_17:\n      callvalue\n      dup1\n      iszero\n      tag_93\n      jumpi\n      0x00\n      dup1\n      revert\n    tag_93:\n      pop\n      tag_94\n      tag_95\n      jump\t// in\n    tag_94:\n      mload(0x40)\n      tag_96\n      swap2\n      swap1\n      tag_35\n      jump\t// in\n    tag_96:\n      mload(0x40)\n      dup1\n      swap2\n      sub\n      swap1\n      return\n        /* \"contracts/KipuBankV3.sol\":1876:1906  IERC20 public immutable i_usdc */\n    tag_18:\n      callvalue\n      dup1\n      iszero\n      tag_97\n      jumpi\n      0x00\n      dup1\n      revert\n    tag_97:\n      pop\n      tag_98\n      tag_99\n      jump\t// in\n    tag_98:\n      mload(0x40)\n      tag_100\n      swap2\n      swap1\n      tag_101\n      jump\t// in\n    tag_100:\n      mload(0x40)\n      dup1\n      swap2\n      sub\n      swap1\n      return\n        /* \"contracts/KipuBankV3.sol\":9825:10790  function _depositETH(address _sender, uint256 _amountIn) private _areFundsExceeded(i_weth, _amountIn) {... */\n    tag_25:\n        /* \"contracts/KipuBankV3.sol\":9908:9914  i_weth */\n      immutable(\"0x309aa99e4c861402170585a42262b5b520b1e1d0fbf588b84ec666d14740e5b1\")\n        /* \"contracts/KipuBankV3.sol\":9916:9925  _amountIn */\n      dup2\n        /* \"contracts/KipuBankV3.sol\":4331:4351  uint256 amountInUSDC */\n      0x00\n        /* \"contracts/KipuBankV3.sol\":4354:4387  _estimateUSDCOut(_token, _amount) */\n      tag_103\n        /* \"contracts/KipuBankV3.sol\":4371:4377  _token */\n      dup4\n        /* \"contracts/KipuBankV3.sol\":4379:4386  _amount */\n      dup4\n        /* \"contracts/KipuBankV3.sol\":4354:4370  _estimateUSDCOut */\n      tag_104\n        /* \"contracts/KipuBankV3.sol\":4354:4387  _estimateUSDCOut(_token, _amount) */\n      jump\t// in\n    tag_103:\n        /* \"contracts/KipuBankV3.sol\":4331:4387  uint256 amountInUSDC = _estimateUSDCOut(_token, _amount) */\n      swap1\n      pop\n        /* \"contracts/KipuBankV3.sol\":4459:4468  i_bankCap */\n      immutable(\"0xad55db84fbe3147935ae260b6daeae918a666c79e031e119ec3348828c3cd0fb\")\n        /* \"contracts/KipuBankV3.sol\":4444:4456  amountInUSDC */\n      dup2\n        /* \"contracts/KipuBankV3.sol\":4409:4415  i_usdc */\n      immutable(\"0xe0800c6beceec1247d5682d9f388b4169d48b373c18811205d6cd68456d8cf3b\")\n        /* \"contracts/KipuBankV3.sol\":4402:4426  IERC20(i_usdc).balanceOf */\n      0xffffffffffffffffffffffffffffffffffffffff\n      and\n      0x70a08231\n        /* \"contracts/KipuBankV3.sol\":4435:4439  this */\n      address\n        /* \"contracts/KipuBankV3.sol\":4402:4441  IERC20(i_usdc).balanceOf(address(this)) */\n      mload(0x40)\n      dup3\n      0xffffffff\n      and\n      0xe0\n      shl\n      dup2\n      mstore\n      0x04\n      add\n      tag_105\n      swap2\n      swap1\n      tag_55\n      jump\t// in\n    tag_105:\n      0x20\n      mload(0x40)\n      dup1\n      dup4\n      sub\n      dup2\n      dup7\n      gas\n      staticcall\n      iszero\n      dup1\n      iszero\n      tag_107\n      jumpi\n      returndatasize\n      0x00\n      dup1\n      returndatacopy\n      revert(0x00, returndatasize)\n    tag_107:\n      pop\n      pop\n      pop\n      pop\n      mload(0x40)\n      returndatasize\n      not(0x1f)\n      0x1f\n      dup3\n      add\n      and\n      dup3\n      add\n      dup1\n      0x40\n      mstore\n      pop\n      dup2\n      add\n      swap1\n      tag_108\n      swap2\n      swap1\n      tag_109\n      jump\t// in\n    tag_108:\n        /* \"contracts/KipuBankV3.sol\":4402:4456  IERC20(i_usdc).balanceOf(address(this)) + amountInUSDC */\n      tag_110\n      swap2\n      swap1\n      tag_111\n      jump\t// in\n    tag_110:\n        /* \"contracts/KipuBankV3.sol\":4402:4468  IERC20(i_usdc).balanceOf(address(this)) + amountInUSDC > i_bankCap */\n      gt\n        /* \"contracts/KipuBankV3.sol\":4398:4561  if (IERC20(i_usdc).balanceOf(address(this)) + amountInUSDC > i_bankCap) {... */\n      iszero\n      tag_112\n      jumpi\n        /* \"contracts/KipuBankV3.sol\":4492:4549  KipuBank_FailedDeposit(\"Total KipuBank's funds exceeded\") */\n      mload(0x40)\n      0xa2d2e1b200000000000000000000000000000000000000000000000000000000\n      dup2\n      mstore\n      0x04\n      add\n      tag_113\n      swap1\n      tag_114\n      jump\t// in\n    tag_113:\n      mload(0x40)\n      dup1\n      swap2\n      sub\n      swap1\n      revert\n        /* \"contracts/KipuBankV3.sol\":4398:4561  if (IERC20(i_usdc).balanceOf(address(this)) + amountInUSDC > i_bankCap) {... */\n    tag_112:\n        /* \"contracts/KipuBankV3.sol\":9938:9959  uint256 beforeBalance */\n      0x00\n        /* \"contracts/KipuBankV3.sol\":9969:9975  i_usdc */\n      immutable(\"0xe0800c6beceec1247d5682d9f388b4169d48b373c18811205d6cd68456d8cf3b\")\n        /* \"contracts/KipuBankV3.sol\":9962:9986  IERC20(i_usdc).balanceOf */\n      0xffffffffffffffffffffffffffffffffffffffff\n      and\n      0x70a08231\n        /* \"contracts/KipuBankV3.sol\":9995:9999  this */\n      address\n        /* \"contracts/KipuBankV3.sol\":9962:10001  IERC20(i_usdc).balanceOf(address(this)) */\n      mload(0x40)\n      dup3\n      0xffffffff\n      and\n      0xe0\n      shl\n      dup2\n      mstore\n      0x04\n      add\n      tag_116\n      swap2\n      swap1\n      tag_55\n      jump\t// in\n    tag_116:\n      0x20\n      mload(0x40)\n      dup1\n      dup4\n      sub\n      dup2\n      dup7\n      gas\n      staticcall\n      iszero\n      dup1\n      iszero\n      tag_118\n      jumpi\n      returndatasize\n      0x00\n      dup1\n      returndatacopy\n      revert(0x00, returndatasize)\n    tag_118:\n      pop\n      pop\n      pop\n      pop\n      mload(0x40)\n      returndatasize\n      not(0x1f)\n      0x1f\n      dup3\n      add\n      and\n      dup3\n      add\n      dup1\n      0x40\n      mstore\n      pop\n      dup2\n      add\n      swap1\n      tag_119\n      swap2\n      swap1\n      tag_109\n      jump\t// in\n    tag_119:\n        /* \"contracts/KipuBankV3.sol\":9938:10001  uint256 beforeBalance = IERC20(i_usdc).balanceOf(address(this)) */\n      swap1\n      pop\n        /* \"contracts/KipuBankV3.sol\":10022:10043  uint256 _amountMinOut */\n      0x00\n        /* \"contracts/KipuBankV3.sol\":10046:10081  _estimateUSDCOut(i_weth, _amountIn) */\n      tag_120\n        /* \"contracts/KipuBankV3.sol\":10063:10069  i_weth */\n      immutable(\"0x309aa99e4c861402170585a42262b5b520b1e1d0fbf588b84ec666d14740e5b1\")\n        /* \"contracts/KipuBankV3.sol\":10071:10080  _amountIn */\n      dup8\n        /* \"contracts/KipuBankV3.sol\":10046:10062  _estimateUSDCOut */\n      tag_104\n        /* \"contracts/KipuBankV3.sol\":10046:10081  _estimateUSDCOut(i_weth, _amountIn) */\n      jump\t// in\n    tag_120:\n        /* \"contracts/KipuBankV3.sol\":10022:10081  uint256 _amountMinOut = _estimateUSDCOut(i_weth, _amountIn) */\n      swap1\n      pop\n        /* \"contracts/KipuBankV3.sol\":10109:10115  9 * 10 */\n      0x5a\n        /* \"contracts/KipuBankV3.sol\":10092:10115  _amountMinOut /= 9 * 10 */\n      dup2\n      tag_121\n      swap2\n      swap1\n      tag_122\n      jump\t// in\n    tag_121:\n      swap1\n      pop\n        /* \"contracts/KipuBankV3.sol\":10128:10149  address[] memory path */\n      0x60\n        /* \"contracts/KipuBankV3.sol\":10170:10176  i_weth */\n      immutable(\"0x309aa99e4c861402170585a42262b5b520b1e1d0fbf588b84ec666d14740e5b1\")\n        /* \"contracts/KipuBankV3.sol\":10160:10164  path */\n      dup2\n        /* \"contracts/KipuBankV3.sol\":10165:10166  0 */\n      0x00\n        /* \"contracts/KipuBankV3.sol\":10160:10167  path[0] */\n      dup2\n      mload\n      dup2\n      lt\n      tag_123\n      jumpi\n      tag_124\n      tag_125\n      jump\t// in\n    tag_124:\n    tag_123:\n      0x20\n      mul\n      0x20\n      add\n      add\n        /* \"contracts/KipuBankV3.sol\":10160:10176  path[0] = i_weth */\n      swap1\n      0xffffffffffffffffffffffffffffffffffffffff\n      and\n      swap1\n      dup2\n      0xffffffffffffffffffffffffffffffffffffffff\n      and\n      dup2\n      mstore\n      pop\n      pop\n        /* \"contracts/KipuBankV3.sol\":10205:10211  i_usdc */\n      immutable(\"0xe0800c6beceec1247d5682d9f388b4169d48b373c18811205d6cd68456d8cf3b\")\n        /* \"contracts/KipuBankV3.sol\":10187:10191  path */\n      dup2\n        /* \"contracts/KipuBankV3.sol\":10192:10193  1 */\n      0x01\n        /* \"contracts/KipuBankV3.sol\":10187:10194  path[1] */\n      dup2\n      mload\n      dup2\n      lt\n      tag_126\n      jumpi\n      tag_127\n      tag_125\n      jump\t// in\n    tag_127:\n    tag_126:\n      0x20\n      mul\n      0x20\n      add\n      add\n        /* \"contracts/KipuBankV3.sol\":10187:10212  path[1] = address(i_usdc) */\n      swap1\n      0xffffffffffffffffffffffffffffffffffffffff\n      and\n      swap1\n      dup2\n      0xffffffffffffffffffffffffffffffffffffffff\n      and\n      dup2\n      mstore\n      pop\n      pop\n        /* \"contracts/KipuBankV3.sol\":10273:10286  uniswapRouter */\n      immutable(\"0x85f02f516c7d0991c664a4bec2d330227d63675d95439bf15f2f85c90c4fd2e5\")\n        /* \"contracts/KipuBankV3.sol\":10273:10337  uniswapRouter.swapExactETHForTokensSupportingFeeOnTransferTokens */\n      0xffffffffffffffffffffffffffffffffffffffff\n      and\n      0xb6f9de95\n        /* \"contracts/KipuBankV3.sol\":10346:10355  _amountIn */\n      dup9\n        /* \"contracts/KipuBankV3.sol\":10372:10385  _amountMinOut */\n      dup5\n        /* \"contracts/KipuBankV3.sol\":10400:10404  path */\n      dup5\n        /* \"contracts/KipuBankV3.sol\":10427:10431  this */\n      address\n        /* \"contracts/KipuBankV3.sol\":10465:10468  300 */\n      0x012c\n        /* \"contracts/KipuBankV3.sol\":10447:10462  block.timestamp */\n      timestamp\n        /* \"contracts/KipuBankV3.sol\":10447:10468  block.timestamp + 300 */\n      tag_128\n      swap2\n      swap1\n      tag_111\n      jump\t// in\n    tag_128:\n        /* \"contracts/KipuBankV3.sol\":10273:10479  uniswapRouter.swapExactETHForTokensSupportingFeeOnTransferTokens{ value: _amountIn }(... */\n      mload(0x40)\n      dup7\n      0xffffffff\n      and\n      0xe0\n      shl\n      dup2\n      mstore\n      0x04\n      add\n      tag_129\n      swap5\n      swap4\n      swap3\n      swap2\n      swap1\n      tag_130\n      jump\t// in\n    tag_129:\n      0x00\n      mload(0x40)\n      dup1\n      dup4\n      sub\n      dup2\n      dup6\n      dup9\n      dup1\n      extcodesize\n      iszero\n      dup1\n      iszero\n      tag_131\n      jumpi\n      0x00\n      dup1\n      revert\n    tag_131:\n      pop\n      gas\n      call\n      iszero\n      dup1\n      iszero\n      tag_133\n      jumpi\n      returndatasize\n      0x00\n      dup1\n      returndatacopy\n      revert(0x00, returndatasize)\n    tag_133:\n      pop\n      pop\n      pop\n      pop\n      pop\n        /* \"contracts/KipuBankV3.sol\":10492:10512  uint256 afterBalance */\n      0x00\n        /* \"contracts/KipuBankV3.sol\":10522:10528  i_usdc */\n      immutable(\"0xe0800c6beceec1247d5682d9f388b4169d48b373c18811205d6cd68456d8cf3b\")\n        /* \"contracts/KipuBankV3.sol\":10515:10539  IERC20(i_usdc).balanceOf */\n      0xffffffffffffffffffffffffffffffffffffffff\n      and\n      0x70a08231\n        /* \"contracts/KipuBankV3.sol\":10548:10552  this */\n      address\n        /* \"contracts/KipuBankV3.sol\":10515:10554  IERC20(i_usdc).balanceOf(address(this)) */\n      mload(0x40)\n      dup3\n      0xffffffff\n      and\n      0xe0\n      shl\n      dup2\n      mstore\n      0x04\n      add\n      tag_134\n      swap2\n      swap1\n      tag_55\n      jump\t// in\n    tag_134:\n      0x20\n      mload(0x40)\n      dup1\n      dup4\n      sub\n      dup2\n      dup7\n      gas\n      staticcall\n      iszero\n      dup1\n      iszero\n      tag_136\n      jumpi\n      returndatasize\n      0x00\n      dup1\n      returndatacopy\n      revert(0x00, returndatasize)\n    tag_136:\n      pop\n      pop\n      pop\n      pop\n      mload(0x40)\n      returndatasize\n      not(0x1f)\n      0x1f\n      dup3\n      add\n      and\n      dup3\n      add\n      dup1\n      0x40\n      mstore\n      pop\n      dup2\n      add\n      swap1\n      tag_137\n      swap2\n      swap1\n      tag_109\n      jump\t// in\n    tag_137:\n        /* \"contracts/KipuBankV3.sol\":10492:10554  uint256 afterBalance = IERC20(i_usdc).balanceOf(address(this)) */\n      swap1\n      pop\n        /* \"contracts/KipuBankV3.sol\":10565:10585  uint256 usdcReceived */\n      0x00\n        /* \"contracts/KipuBankV3.sol\":10603:10616  beforeBalance */\n      dup5\n        /* \"contracts/KipuBankV3.sol\":10588:10600  afterBalance */\n      dup3\n        /* \"contracts/KipuBankV3.sol\":10588:10616  afterBalance - beforeBalance */\n      tag_138\n      swap2\n      swap1\n      tag_139\n      jump\t// in\n    tag_138:\n        /* \"contracts/KipuBankV3.sol\":10565:10616  uint256 usdcReceived = afterBalance - beforeBalance */\n      swap1\n      pop\n        /* \"contracts/KipuBankV3.sol\":10660:10672  usdcReceived */\n      dup1\n        /* \"contracts/KipuBankV3.sol\":10637:10647  s_balances */\n      0x02\n        /* \"contracts/KipuBankV3.sol\":10637:10656  s_balances[_sender] */\n      0x00\n        /* \"contracts/KipuBankV3.sol\":10648:10655  _sender */\n      dup13\n        /* \"contracts/KipuBankV3.sol\":10637:10656  s_balances[_sender] */\n      0xffffffffffffffffffffffffffffffffffffffff\n      and\n      0xffffffffffffffffffffffffffffffffffffffff\n      and\n      dup2\n      mstore\n      0x20\n      add\n      swap1\n      dup2\n      mstore\n      0x20\n      add\n      0x00\n      keccak256\n      0x00\n        /* \"contracts/KipuBankV3.sol\":10637:10672  s_balances[_sender] += usdcReceived */\n      dup3\n      dup3\n      sload\n      tag_140\n      swap2\n      swap1\n      tag_111\n      jump\t// in\n    tag_140:\n      swap3\n      pop\n      pop\n      dup2\n      swap1\n      sstore\n      pop\n        /* \"contracts/KipuBankV3.sol\":10683:10717  _actualizeOperations(true, i_weth) */\n      tag_141\n        /* \"contracts/KipuBankV3.sol\":10704:10708  true */\n      0x01\n        /* \"contracts/KipuBankV3.sol\":10710:10716  i_weth */\n      immutable(\"0x309aa99e4c861402170585a42262b5b520b1e1d0fbf588b84ec666d14740e5b1\")\n        /* \"contracts/KipuBankV3.sol\":10683:10703  _actualizeOperations */\n      tag_142\n        /* \"contracts/KipuBankV3.sol\":10683:10717  _actualizeOperations(true, i_weth) */\n      jump\t// in\n    tag_141:\n        /* \"contracts/KipuBankV3.sol\":10733:10782  KipuBank_SuccessfulDeposit(_sender, usdcReceived) */\n      0x7b7cd0ddbbea241880e825e1eb51c30752cb96dd7efeb4be691ec55dfa4d8963\n        /* \"contracts/KipuBankV3.sol\":10760:10767  _sender */\n      dup11\n        /* \"contracts/KipuBankV3.sol\":10769:10781  usdcReceived */\n      dup3\n        /* \"contracts/KipuBankV3.sol\":10733:10782  KipuBank_SuccessfulDeposit(_sender, usdcReceived) */\n      mload(0x40)\n      tag_143\n      swap3\n      swap2\n      swap1\n      tag_144\n      jump\t// in\n    tag_143:\n      mload(0x40)\n      dup1\n      swap2\n      sub\n      swap1\n      log1\n        /* \"contracts/KipuBankV3.sol\":9927:10790  {... */\n      pop\n      pop\n      pop\n      pop\n      pop\n        /* \"contracts/KipuBankV3.sol\":4320:4580  {... */\n      pop\n        /* \"contracts/KipuBankV3.sol\":9825:10790  function _depositETH(address _sender, uint256 _amountIn) private _areFundsExceeded(i_weth, _amountIn) {... */\n      pop\n      pop\n      pop\n      pop\n      jump\t// out\n        /* \"contracts/KipuBankV3.sol\":6619:6782  function consultKipuBankFounds() external view returns (uint256 amount_){... */\n    tag_33:\n        /* \"contracts/KipuBankV3.sol\":6675:6690  uint256 amount_ */\n      0x00\n        /* \"contracts/KipuBankV3.sol\":6728:6733  10**8 */\n      0x05f5e100\n        /* \"contracts/KipuBankV3.sol\":6709:6725  _consultFounds() */\n      tag_146\n        /* \"contracts/KipuBankV3.sol\":6709:6723  _consultFounds */\n      tag_147\n        /* \"contracts/KipuBankV3.sol\":6709:6725  _consultFounds() */\n      jump\t// in\n    tag_146:\n        /* \"contracts/KipuBankV3.sol\":6709:6733  _consultFounds() / 10**8 */\n      tag_148\n      swap2\n      swap1\n      tag_122\n      jump\t// in\n    tag_148:\n        /* \"contracts/KipuBankV3.sol\":6702:6733  return _consultFounds() / 10**8 */\n      swap1\n      pop\n        /* \"contracts/KipuBankV3.sol\":6619:6782  function consultKipuBankFounds() external view returns (uint256 amount_){... */\n      swap1\n      jump\t// out\n        /* \"contracts/KipuBankV3.sol\":1783:1823  uint256 public immutable i_maxWithdrawal */\n    tag_38:\n      immutable(\"0x25f9e8aeae9c2ffb4081060f1a62aa0739d35380589299578ccc29b3c3a0654e\")\n      dup2\n      jump\t// out\n        /* \"contracts/KipuBankV3.sol\":7183:8536  function depositERC20(address _token, uint256 _amountIn, uint256 _amountMinOut... */\n    tag_44:\n        /* \"@openzeppelin/contracts/utils/ReentrancyGuard.sol\":2500:2521  _nonReentrantBefore() */\n      tag_150\n        /* \"@openzeppelin/contracts/utils/ReentrancyGuard.sol\":2500:2519  _nonReentrantBefore */\n      tag_151\n        /* \"@openzeppelin/contracts/utils/ReentrancyGuard.sol\":2500:2521  _nonReentrantBefore() */\n      jump\t// in\n    tag_150:\n        /* \"contracts/KipuBankV3.sol\":7311:7317  _token */\n      dup3\n        /* \"contracts/KipuBankV3.sol\":4703:4715  address pair */\n      0x00\n        /* \"contracts/KipuBankV3.sol\":4718:4732  uniswapFactory */\n      0x05\n      0x00\n      swap1\n      sload\n      swap1\n      0x0100\n      exp\n      swap1\n      div\n      0xffffffffffffffffffffffffffffffffffffffff\n      and\n        /* \"contracts/KipuBankV3.sol\":4718:4740  uniswapFactory.getPair */\n      0xffffffffffffffffffffffffffffffffffffffff\n      and\n      0xe6a43905\n        /* \"contracts/KipuBankV3.sol\":4741:4747  _token */\n      dup4\n        /* \"contracts/KipuBankV3.sol\":4757:4763  i_usdc */\n      immutable(\"0xe0800c6beceec1247d5682d9f388b4169d48b373c18811205d6cd68456d8cf3b\")\n        /* \"contracts/KipuBankV3.sol\":4718:4765  uniswapFactory.getPair(_token, address(i_usdc)) */\n      mload(0x40)\n      dup4\n      0xffffffff\n      and\n      0xe0\n      shl\n      dup2\n      mstore\n      0x04\n      add\n      tag_153\n      swap3\n      swap2\n      swap1\n      tag_154\n      jump\t// in\n    tag_153:\n      0x20\n      mload(0x40)\n      dup1\n      dup4\n      sub\n      dup2\n      dup7\n      gas\n      staticcall\n      iszero\n      dup1\n      iszero\n      tag_156\n      jumpi\n      returndatasize\n      0x00\n      dup1\n      returndatacopy\n      revert(0x00, returndatasize)\n    tag_156:\n      pop\n      pop\n      pop\n      pop\n      mload(0x40)\n      returndatasize\n      not(0x1f)\n      0x1f\n      dup3\n      add\n      and\n      dup3\n      add\n      dup1\n      0x40\n      mstore\n      pop\n      dup2\n      add\n      swap1\n      tag_157\n      swap2\n      swap1\n      tag_158\n      jump\t// in\n    tag_157:\n        /* \"contracts/KipuBankV3.sol\":4703:4765  address pair = uniswapFactory.getPair(_token, address(i_usdc)) */\n      swap1\n      pop\n        /* \"contracts/KipuBankV3.sol\":4791:4797  i_weth */\n      immutable(\"0x309aa99e4c861402170585a42262b5b520b1e1d0fbf588b84ec666d14740e5b1\")\n        /* \"contracts/KipuBankV3.sol\":4783:4797  pair == i_weth */\n      0xffffffffffffffffffffffffffffffffffffffff\n      and\n        /* \"contracts/KipuBankV3.sol\":4783:4787  pair */\n      dup2\n        /* \"contracts/KipuBankV3.sol\":4783:4797  pair == i_weth */\n      0xffffffffffffffffffffffffffffffffffffffff\n      and\n      sub\n        /* \"contracts/KipuBankV3.sol\":4780:4874  if(pair == i_weth){... */\n      tag_159\n      jumpi\n        /* \"contracts/KipuBankV3.sol\":4851:4857  _token */\n      dup2\n        /* \"contracts/KipuBankV3.sol\":4824:4858  KipuBank_NotSupportedToken(_token) */\n      mload(0x40)\n      0xe584a63f00000000000000000000000000000000000000000000000000000000\n      dup2\n      mstore\n      0x04\n      add\n      tag_160\n      swap2\n      swap1\n      tag_55\n      jump\t// in\n    tag_160:\n      mload(0x40)\n      dup1\n      swap2\n      sub\n      swap1\n      revert\n        /* \"contracts/KipuBankV3.sol\":4780:4874  if(pair == i_weth){... */\n    tag_159:\n        /* \"contracts/KipuBankV3.sol\":7343:7349  _token */\n      dup5\n        /* \"contracts/KipuBankV3.sol\":7351:7360  _amountIn */\n      dup5\n        /* \"contracts/KipuBankV3.sol\":4992:4998  i_weth */\n      immutable(\"0x309aa99e4c861402170585a42262b5b520b1e1d0fbf588b84ec666d14740e5b1\")\n        /* \"contracts/KipuBankV3.sol\":4982:4998  _token != i_weth */\n      0xffffffffffffffffffffffffffffffffffffffff\n      and\n        /* \"contracts/KipuBankV3.sol\":4982:4988  _token */\n      dup3\n        /* \"contracts/KipuBankV3.sol\":4982:4998  _token != i_weth */\n      0xffffffffffffffffffffffffffffffffffffffff\n      and\n      eq\n        /* \"contracts/KipuBankV3.sol\":4978:5244  if (_token != i_weth) {... */\n      tag_162\n      jumpi\n        /* \"contracts/KipuBankV3.sol\":5015:5027  IERC20 token */\n      0x00\n        /* \"contracts/KipuBankV3.sol\":5037:5043  _token */\n      dup3\n        /* \"contracts/KipuBankV3.sol\":5015:5044  IERC20 token = IERC20(_token) */\n      swap1\n      pop\n        /* \"contracts/KipuBankV3.sol\":5108:5115  _amount */\n      dup2\n        /* \"contracts/KipuBankV3.sol\":5063:5068  token */\n      dup2\n        /* \"contracts/KipuBankV3.sol\":5063:5078  token.allowance */\n      0xffffffffffffffffffffffffffffffffffffffff\n      and\n      0xdd62ed3e\n        /* \"contracts/KipuBankV3.sol\":5079:5089  msg.sender */\n      caller\n        /* \"contracts/KipuBankV3.sol\":5099:5103  this */\n      address\n        /* \"contracts/KipuBankV3.sol\":5063:5105  token.allowance(msg.sender, address(this)) */\n      mload(0x40)\n      dup4\n      0xffffffff\n      and\n      0xe0\n      shl\n      dup2\n      mstore\n      0x04\n      add\n      tag_163\n      swap3\n      swap2\n      swap1\n      tag_154\n      jump\t// in\n    tag_163:\n      0x20\n      mload(0x40)\n      dup1\n      dup4\n      sub\n      dup2\n      dup7\n      gas\n      staticcall\n      iszero\n      dup1\n      iszero\n      tag_165\n      jumpi\n      returndatasize\n      0x00\n      dup1\n      returndatacopy\n      revert(0x00, returndatasize)\n    tag_165:\n      pop\n      pop\n      pop\n      pop\n      mload(0x40)\n      returndatasize\n      not(0x1f)\n      0x1f\n      dup3\n      add\n      and\n      dup3\n      add\n      dup1\n      0x40\n      mstore\n      pop\n      dup2\n      add\n      swap1\n      tag_166\n      swap2\n      swap1\n      tag_109\n      jump\t// in\n    tag_166:\n        /* \"contracts/KipuBankV3.sol\":5063:5115  token.allowance(msg.sender, address(this)) < _amount */\n      lt\n        /* \"contracts/KipuBankV3.sol\":5059:5233  if (token.allowance(msg.sender, address(this)) < _amount) {... */\n      iszero\n      tag_167\n      jumpi\n        /* \"contracts/KipuBankV3.sol\":5143:5217  KipuBank_FailedOperation(\"ERC20: Insufficient allowance for transferFrom\") */\n      mload(0x40)\n      0x336ea14200000000000000000000000000000000000000000000000000000000\n      dup2\n      mstore\n      0x04\n      add\n      tag_168\n      swap1\n      tag_169\n      jump\t// in\n    tag_168:\n      mload(0x40)\n      dup1\n      swap2\n      sub\n      swap1\n      revert\n        /* \"contracts/KipuBankV3.sol\":5059:5233  if (token.allowance(msg.sender, address(this)) < _amount) {... */\n    tag_167:\n        /* \"contracts/KipuBankV3.sol\":5000:5244  {... */\n      pop\n        /* \"contracts/KipuBankV3.sol\":4978:5244  if (_token != i_weth) {... */\n    tag_162:\n        /* \"contracts/KipuBankV3.sol\":7380:7386  _token */\n      dup7\n        /* \"contracts/KipuBankV3.sol\":7388:7397  _amountIn */\n      dup7\n        /* \"contracts/KipuBankV3.sol\":4331:4351  uint256 amountInUSDC */\n      0x00\n        /* \"contracts/KipuBankV3.sol\":4354:4387  _estimateUSDCOut(_token, _amount) */\n      tag_171\n        /* \"contracts/KipuBankV3.sol\":4371:4377  _token */\n      dup4\n        /* \"contracts/KipuBankV3.sol\":4379:4386  _amount */\n      dup4\n        /* \"contracts/KipuBankV3.sol\":4354:4370  _estimateUSDCOut */\n      tag_104\n        /* \"contracts/KipuBankV3.sol\":4354:4387  _estimateUSDCOut(_token, _amount) */\n      jump\t// in\n    tag_171:\n        /* \"contracts/KipuBankV3.sol\":4331:4387  uint256 amountInUSDC = _estimateUSDCOut(_token, _amount) */\n      swap1\n      pop\n        /* \"contracts/KipuBankV3.sol\":4459:4468  i_bankCap */\n      immutable(\"0xad55db84fbe3147935ae260b6daeae918a666c79e031e119ec3348828c3cd0fb\")\n        /* \"contracts/KipuBankV3.sol\":4444:4456  amountInUSDC */\n      dup2\n        /* \"contracts/KipuBankV3.sol\":4409:4415  i_usdc */\n      immutable(\"0xe0800c6beceec1247d5682d9f388b4169d48b373c18811205d6cd68456d8cf3b\")\n        /* \"contracts/KipuBankV3.sol\":4402:4426  IERC20(i_usdc).balanceOf */\n      0xffffffffffffffffffffffffffffffffffffffff\n      and\n      0x70a08231\n        /* \"contracts/KipuBankV3.sol\":4435:4439  this */\n      address\n        /* \"contracts/KipuBankV3.sol\":4402:4441  IERC20(i_usdc).balanceOf(address(this)) */\n      mload(0x40)\n      dup3\n      0xffffffff\n      and\n      0xe0\n      shl\n      dup2\n      mstore\n      0x04\n      add\n      tag_172\n      swap2\n      swap1\n      tag_55\n      jump\t// in\n    tag_172:\n      0x20\n      mload(0x40)\n      dup1\n      dup4\n      sub\n      dup2\n      dup7\n      gas\n      staticcall\n      iszero\n      dup1\n      iszero\n      tag_174\n      jumpi\n      returndatasize\n      0x00\n      dup1\n      returndatacopy\n      revert(0x00, returndatasize)\n    tag_174:\n      pop\n      pop\n      pop\n      pop\n      mload(0x40)\n      returndatasize\n      not(0x1f)\n      0x1f\n      dup3\n      add\n      and\n      dup3\n      add\n      dup1\n      0x40\n      mstore\n      pop\n      dup2\n      add\n      swap1\n      tag_175\n      swap2\n      swap1\n      tag_109\n      jump\t// in\n    tag_175:\n        /* \"contracts/KipuBankV3.sol\":4402:4456  IERC20(i_usdc).balanceOf(address(this)) + amountInUSDC */\n      tag_176\n      swap2\n      swap1\n      tag_111\n      jump\t// in\n    tag_176:\n        /* \"contracts/KipuBankV3.sol\":4402:4468  IERC20(i_usdc).balanceOf(address(this)) + amountInUSDC > i_bankCap */\n      gt\n        /* \"contracts/KipuBankV3.sol\":4398:4561  if (IERC20(i_usdc).balanceOf(address(this)) + amountInUSDC > i_bankCap) {... */\n      iszero\n      tag_177\n      jumpi\n        /* \"contracts/KipuBankV3.sol\":4492:4549  KipuBank_FailedDeposit(\"Total KipuBank's funds exceeded\") */\n      mload(0x40)\n      0xa2d2e1b200000000000000000000000000000000000000000000000000000000\n      dup2\n      mstore\n      0x04\n      add\n      tag_178\n      swap1\n      tag_114\n      jump\t// in\n    tag_178:\n      mload(0x40)\n      dup1\n      swap2\n      sub\n      swap1\n      revert\n        /* \"contracts/KipuBankV3.sol\":4398:4561  if (IERC20(i_usdc).balanceOf(address(this)) + amountInUSDC > i_bankCap) {... */\n    tag_177:\n        /* \"contracts/KipuBankV3.sol\":7411:7480  IERC20(_token).safeTransferFrom(msg.sender, address(this), _amountIn) */\n      tag_180\n        /* \"contracts/KipuBankV3.sol\":7443:7453  msg.sender */\n      caller\n        /* \"contracts/KipuBankV3.sol\":7463:7467  this */\n      address\n        /* \"contracts/KipuBankV3.sol\":7470:7479  _amountIn */\n      dup12\n        /* \"contracts/KipuBankV3.sol\":7418:7424  _token */\n      dup14\n        /* \"contracts/KipuBankV3.sol\":7411:7442  IERC20(_token).safeTransferFrom */\n      0xffffffffffffffffffffffffffffffffffffffff\n      and\n      tag_181\n      swap1\n        /* \"contracts/KipuBankV3.sol\":7411:7480  IERC20(_token).safeTransferFrom(msg.sender, address(this), _amountIn) */\n      swap4\n      swap3\n      swap2\n      swap1\n      0xffffffff\n      and\n      jump\t// in\n    tag_180:\n        /* \"contracts/KipuBankV3.sol\":7493:7514  uint256 beforeBalance */\n      0x00\n        /* \"contracts/KipuBankV3.sol\":7524:7530  i_usdc */\n      immutable(\"0xe0800c6beceec1247d5682d9f388b4169d48b373c18811205d6cd68456d8cf3b\")\n        /* \"contracts/KipuBankV3.sol\":7517:7541  IERC20(i_usdc).balanceOf */\n      0xffffffffffffffffffffffffffffffffffffffff\n      and\n      0x70a08231\n        /* \"contracts/KipuBankV3.sol\":7550:7554  this */\n      address\n        /* \"contracts/KipuBankV3.sol\":7517:7556  IERC20(i_usdc).balanceOf(address(this)) */\n      mload(0x40)\n      dup3\n      0xffffffff\n      and\n      0xe0\n      shl\n      dup2\n      mstore\n      0x04\n      add\n      tag_182\n      swap2\n      swap1\n      tag_55\n      jump\t// in\n    tag_182:\n      0x20\n      mload(0x40)\n      dup1\n      dup4\n      sub\n      dup2\n      dup7\n      gas\n      staticcall\n      iszero\n      dup1\n      iszero\n      tag_184\n      jumpi\n      returndatasize\n      0x00\n      dup1\n      returndatacopy\n      revert(0x00, returndatasize)\n    tag_184:\n      pop\n      pop\n      pop\n      pop\n      mload(0x40)\n      returndatasize\n      not(0x1f)\n      0x1f\n      dup3\n      add\n      and\n      dup3\n      add\n      dup1\n      0x40\n      mstore\n      pop\n      dup2\n      add\n      swap1\n      tag_185\n      swap2\n      swap1\n      tag_109\n      jump\t// in\n    tag_185:\n        /* \"contracts/KipuBankV3.sol\":7493:7556  uint256 beforeBalance = IERC20(i_usdc).balanceOf(address(this)) */\n      swap1\n      pop\n        /* \"contracts/KipuBankV3.sol\":7567:7587  uint256 usdcReceived */\n      0x00\n        /* \"contracts/KipuBankV3.sol\":7622:7628  i_usdc */\n      immutable(\"0xe0800c6beceec1247d5682d9f388b4169d48b373c18811205d6cd68456d8cf3b\")\n        /* \"contracts/KipuBankV3.sol\":7604:7629  _token != address(i_usdc) */\n      0xffffffffffffffffffffffffffffffffffffffff\n      and\n        /* \"contracts/KipuBankV3.sol\":7604:7610  _token */\n      dup13\n        /* \"contracts/KipuBankV3.sol\":7604:7629  _token != address(i_usdc) */\n      0xffffffffffffffffffffffffffffffffffffffff\n      and\n      eq\n        /* \"contracts/KipuBankV3.sol\":7600:8365  if (_token != address(i_usdc)) {... */\n      tag_186\n      jumpi\n        /* \"contracts/KipuBankV3.sol\":7653:7659  _token */\n      dup12\n        /* \"contracts/KipuBankV3.sol\":7646:7668  IERC20(_token).approve */\n      0xffffffffffffffffffffffffffffffffffffffff\n      and\n      0x095ea7b3\n        /* \"contracts/KipuBankV3.sol\":7677:7690  uniswapRouter */\n      immutable(\"0x85f02f516c7d0991c664a4bec2d330227d63675d95439bf15f2f85c90c4fd2e5\")\n        /* \"contracts/KipuBankV3.sol\":7693:7694  0 */\n      0x00\n        /* \"contracts/KipuBankV3.sol\":7646:7695  IERC20(_token).approve(address(uniswapRouter), 0) */\n      mload(0x40)\n      dup4\n      0xffffffff\n      and\n      0xe0\n      shl\n      dup2\n      mstore\n      0x04\n      add\n      tag_187\n      swap3\n      swap2\n      swap1\n      tag_188\n      jump\t// in\n    tag_187:\n      0x20\n      mload(0x40)\n      dup1\n      dup4\n      sub\n      dup2\n      0x00\n      dup8\n      gas\n      call\n      iszero\n      dup1\n      iszero\n      tag_190\n      jumpi\n      returndatasize\n      0x00\n      dup1\n      returndatacopy\n      revert(0x00, returndatasize)\n    tag_190:\n      pop\n      pop\n      pop\n      pop\n      mload(0x40)\n      returndatasize\n      not(0x1f)\n      0x1f\n      dup3\n      add\n      and\n      dup3\n      add\n      dup1\n      0x40\n      mstore\n      pop\n      dup2\n      add\n      swap1\n      tag_191\n      swap2\n      swap1\n      tag_192\n      jump\t// in\n    tag_191:\n      pop\n        /* \"contracts/KipuBankV3.sol\":7745:7751  _token */\n      dup12\n        /* \"contracts/KipuBankV3.sol\":7738:7760  IERC20(_token).approve */\n      0xffffffffffffffffffffffffffffffffffffffff\n      and\n      0x095ea7b3\n        /* \"contracts/KipuBankV3.sol\":7769:7782  uniswapRouter */\n      immutable(\"0x85f02f516c7d0991c664a4bec2d330227d63675d95439bf15f2f85c90c4fd2e5\")\n        /* \"contracts/KipuBankV3.sol\":7785:7794  _amountIn */\n      dup14\n        /* \"contracts/KipuBankV3.sol\":7738:7795  IERC20(_token).approve(address(uniswapRouter), _amountIn) */\n      mload(0x40)\n      dup4\n      0xffffffff\n      and\n      0xe0\n      shl\n      dup2\n      mstore\n      0x04\n      add\n      tag_193\n      swap3\n      swap2\n      swap1\n      tag_144\n      jump\t// in\n    tag_193:\n      0x20\n      mload(0x40)\n      dup1\n      dup4\n      sub\n      dup2\n      0x00\n      dup8\n      gas\n      call\n      iszero\n      dup1\n      iszero\n      tag_195\n      jumpi\n      returndatasize\n      0x00\n      dup1\n      returndatacopy\n      revert(0x00, returndatasize)\n    tag_195:\n      pop\n      pop\n      pop\n      pop\n      mload(0x40)\n      returndatasize\n      not(0x1f)\n      0x1f\n      dup3\n      add\n      and\n      dup3\n      add\n      dup1\n      0x40\n      mstore\n      pop\n      dup2\n      add\n      swap1\n      tag_196\n      swap2\n      swap1\n      tag_192\n      jump\t// in\n    tag_196:\n      pop\n        /* \"contracts/KipuBankV3.sol\":7812:7833  address[] memory path */\n      0x60\n        /* \"contracts/KipuBankV3.sol\":7859:7865  _token */\n      dup13\n        /* \"contracts/KipuBankV3.sol\":7849:7853  path */\n      dup2\n        /* \"contracts/KipuBankV3.sol\":7854:7855  0 */\n      0x00\n        /* \"contracts/KipuBankV3.sol\":7849:7856  path[0] */\n      dup2\n      mload\n      dup2\n      lt\n      tag_197\n      jumpi\n      tag_198\n      tag_125\n      jump\t// in\n    tag_198:\n    tag_197:\n      0x20\n      mul\n      0x20\n      add\n      add\n        /* \"contracts/KipuBankV3.sol\":7849:7865  path[0] = _token */\n      swap1\n      0xffffffffffffffffffffffffffffffffffffffff\n      and\n      swap1\n      dup2\n      0xffffffffffffffffffffffffffffffffffffffff\n      and\n      dup2\n      mstore\n      pop\n      pop\n        /* \"contracts/KipuBankV3.sol\":7898:7904  i_usdc */\n      immutable(\"0xe0800c6beceec1247d5682d9f388b4169d48b373c18811205d6cd68456d8cf3b\")\n        /* \"contracts/KipuBankV3.sol\":7880:7884  path */\n      dup2\n        /* \"contracts/KipuBankV3.sol\":7885:7886  1 */\n      0x01\n        /* \"contracts/KipuBankV3.sol\":7880:7887  path[1] */\n      dup2\n      mload\n      dup2\n      lt\n      tag_199\n      jumpi\n      tag_200\n      tag_125\n      jump\t// in\n    tag_200:\n    tag_199:\n      0x20\n      mul\n      0x20\n      add\n      add\n        /* \"contracts/KipuBankV3.sol\":7880:7905  path[1] = address(i_usdc) */\n      swap1\n      0xffffffffffffffffffffffffffffffffffffffff\n      and\n      swap1\n      dup2\n      0xffffffffffffffffffffffffffffffffffffffff\n      and\n      dup2\n      mstore\n      pop\n      pop\n        /* \"contracts/KipuBankV3.sol\":7922:7935  uniswapRouter */\n      immutable(\"0x85f02f516c7d0991c664a4bec2d330227d63675d95439bf15f2f85c90c4fd2e5\")\n        /* \"contracts/KipuBankV3.sol\":7922:7989  uniswapRouter.swapExactTokensForTokensSupportingFeeOnTransferTokens */\n      0xffffffffffffffffffffffffffffffffffffffff\n      and\n      0x5c11d795\n        /* \"contracts/KipuBankV3.sol\":8008:8017  _amountIn */\n      dup14\n        /* \"contracts/KipuBankV3.sol\":8036:8049  _amountMinOut */\n      dup14\n        /* \"contracts/KipuBankV3.sol\":8068:8072  path */\n      dup5\n        /* \"contracts/KipuBankV3.sol\":8099:8103  this */\n      address\n        /* \"contracts/KipuBankV3.sol\":8141:8144  300 */\n      0x012c\n        /* \"contracts/KipuBankV3.sol\":8123:8138  block.timestamp */\n      timestamp\n        /* \"contracts/KipuBankV3.sol\":8123:8144  block.timestamp + 300 */\n      tag_201\n      swap2\n      swap1\n      tag_111\n      jump\t// in\n    tag_201:\n        /* \"contracts/KipuBankV3.sol\":7922:8159  uniswapRouter.swapExactTokensForTokensSupportingFeeOnTransferTokens(... */\n      mload(0x40)\n      dup7\n      0xffffffff\n      and\n      0xe0\n      shl\n      dup2\n      mstore\n      0x04\n      add\n      tag_202\n      swap6\n      swap5\n      swap4\n      swap3\n      swap2\n      swap1\n      tag_203\n      jump\t// in\n    tag_202:\n      0x00\n      mload(0x40)\n      dup1\n      dup4\n      sub\n      dup2\n      0x00\n      dup8\n      dup1\n      extcodesize\n      iszero\n      dup1\n      iszero\n      tag_204\n      jumpi\n      0x00\n      dup1\n      revert\n    tag_204:\n      pop\n      gas\n      call\n      iszero\n      dup1\n      iszero\n      tag_206\n      jumpi\n      returndatasize\n      0x00\n      dup1\n      returndatacopy\n      revert(0x00, returndatasize)\n    tag_206:\n      pop\n      pop\n      pop\n      pop\n        /* \"contracts/KipuBankV3.sol\":8176:8196  uint256 afterBalance */\n      0x00\n        /* \"contracts/KipuBankV3.sol\":8206:8212  i_usdc */\n      immutable(\"0xe0800c6beceec1247d5682d9f388b4169d48b373c18811205d6cd68456d8cf3b\")\n        /* \"contracts/KipuBankV3.sol\":8199:8223  IERC20(i_usdc).balanceOf */\n      0xffffffffffffffffffffffffffffffffffffffff\n      and\n      0x70a08231\n        /* \"contracts/KipuBankV3.sol\":8232:8236  this */\n      address\n        /* \"contracts/KipuBankV3.sol\":8199:8238  IERC20(i_usdc).balanceOf(address(this)) */\n      mload(0x40)\n      dup3\n      0xffffffff\n      and\n      0xe0\n      shl\n      dup2\n      mstore\n      0x04\n      add\n      tag_207\n      swap2\n      swap1\n      tag_55\n      jump\t// in\n    tag_207:\n      0x20\n      mload(0x40)\n      dup1\n      dup4\n      sub\n      dup2\n      dup7\n      gas\n      staticcall\n      iszero\n      dup1\n      iszero\n      tag_209\n      jumpi\n      returndatasize\n      0x00\n      dup1\n      returndatacopy\n      revert(0x00, returndatasize)\n    tag_209:\n      pop\n      pop\n      pop\n      pop\n      mload(0x40)\n      returndatasize\n      not(0x1f)\n      0x1f\n      dup3\n      add\n      and\n      dup3\n      add\n      dup1\n      0x40\n      mstore\n      pop\n      dup2\n      add\n      swap1\n      tag_210\n      swap2\n      swap1\n      tag_109\n      jump\t// in\n    tag_210:\n        /* \"contracts/KipuBankV3.sol\":8176:8238  uint256 afterBalance = IERC20(i_usdc).balanceOf(address(this)) */\n      swap1\n      pop\n        /* \"contracts/KipuBankV3.sol\":8283:8296  beforeBalance */\n      dup4\n        /* \"contracts/KipuBankV3.sol\":8268:8280  afterBalance */\n      dup2\n        /* \"contracts/KipuBankV3.sol\":8268:8296  afterBalance - beforeBalance */\n      tag_211\n      swap2\n      swap1\n      tag_139\n      jump\t// in\n    tag_211:\n        /* \"contracts/KipuBankV3.sol\":8253:8296  usdcReceived = afterBalance - beforeBalance */\n      swap3\n      pop\n        /* \"contracts/KipuBankV3.sol\":7631:8308  {... */\n      pop\n      pop\n        /* \"contracts/KipuBankV3.sol\":7600:8365  if (_token != address(i_usdc)) {... */\n      jump(tag_212)\n    tag_186:\n        /* \"contracts/KipuBankV3.sol\":8344:8353  _amountIn */\n      dup11\n        /* \"contracts/KipuBankV3.sol\":8329:8353  usdcReceived = _amountIn */\n      swap1\n      pop\n        /* \"contracts/KipuBankV3.sol\":7600:8365  if (_token != address(i_usdc)) {... */\n    tag_212:\n        /* \"contracts/KipuBankV3.sol\":8403:8415  usdcReceived */\n      dup1\n        /* \"contracts/KipuBankV3.sol\":8377:8387  s_balances */\n      0x02\n        /* \"contracts/KipuBankV3.sol\":8377:8399  s_balances[msg.sender] */\n      0x00\n        /* \"contracts/KipuBankV3.sol\":8388:8398  msg.sender */\n      caller\n        /* \"contracts/KipuBankV3.sol\":8377:8399  s_balances[msg.sender] */\n      0xffffffffffffffffffffffffffffffffffffffff\n      and\n      0xffffffffffffffffffffffffffffffffffffffff\n      and\n      dup2\n      mstore\n      0x20\n      add\n      swap1\n      dup2\n      mstore\n      0x20\n      add\n      0x00\n      keccak256\n      0x00\n        /* \"contracts/KipuBankV3.sol\":8377:8415  s_balances[msg.sender] += usdcReceived */\n      dup3\n      dup3\n      sload\n      tag_213\n      swap2\n      swap1\n      tag_111\n      jump\t// in\n    tag_213:\n      swap3\n      pop\n      pop\n      dup2\n      swap1\n      sstore\n      pop\n        /* \"contracts/KipuBankV3.sol\":8426:8460  _actualizeOperations(true, _token) */\n      tag_214\n        /* \"contracts/KipuBankV3.sol\":8447:8451  true */\n      0x01\n        /* \"contracts/KipuBankV3.sol\":8453:8459  _token */\n      dup14\n        /* \"contracts/KipuBankV3.sol\":8426:8446  _actualizeOperations */\n      tag_142\n        /* \"contracts/KipuBankV3.sol\":8426:8460  _actualizeOperations(true, _token) */\n      jump\t// in\n    tag_214:\n        /* \"contracts/KipuBankV3.sol\":8476:8528  KipuBank_SuccessfulDeposit(msg.sender, usdcReceived) */\n      0x7b7cd0ddbbea241880e825e1eb51c30752cb96dd7efeb4be691ec55dfa4d8963\n        /* \"contracts/KipuBankV3.sol\":8503:8513  msg.sender */\n      caller\n        /* \"contracts/KipuBankV3.sol\":8515:8527  usdcReceived */\n      dup3\n        /* \"contracts/KipuBankV3.sol\":8476:8528  KipuBank_SuccessfulDeposit(msg.sender, usdcReceived) */\n      mload(0x40)\n      tag_215\n      swap3\n      swap2\n      swap1\n      tag_144\n      jump\t// in\n    tag_215:\n      mload(0x40)\n      dup1\n      swap2\n      sub\n      swap1\n      log1\n        /* \"contracts/KipuBankV3.sol\":7398:8536  {... */\n      pop\n      pop\n        /* \"contracts/KipuBankV3.sol\":4320:4580  {... */\n      pop\n        /* \"contracts/KipuBankV3.sol\":5254:5255  _ */\n      pop\n      pop\n        /* \"contracts/KipuBankV3.sol\":4884:4885  _ */\n      pop\n      pop\n        /* \"contracts/KipuBankV3.sol\":4632:4893  { //prevents using excesive gas in case of unsupported tokens... */\n      pop\n        /* \"@openzeppelin/contracts/utils/ReentrancyGuard.sol\":2531:2532  _ */\n      pop\n        /* \"@openzeppelin/contracts/utils/ReentrancyGuard.sol\":2542:2562  _nonReentrantAfter() */\n      tag_216\n        /* \"@openzeppelin/contracts/utils/ReentrancyGuard.sol\":2542:2560  _nonReentrantAfter */\n      tag_217\n        /* \"@openzeppelin/contracts/utils/ReentrancyGuard.sol\":2542:2562  _nonReentrantAfter() */\n      jump\t// in\n    tag_216:\n        /* \"contracts/KipuBankV3.sol\":7183:8536  function depositERC20(address _token, uint256 _amountIn, uint256 _amountMinOut... */\n      pop\n      pop\n      pop\n      jump\t// out\n        /* \"contracts/KipuBankV3.sol\":1452:1509  mapping(address => uint256) public s_totalDepositsByToken */\n    tag_49:\n      mstore(0x20, 0x03)\n      dup1\n      0x00\n      mstore\n      keccak256(0x00, 0x40)\n      0x00\n      swap2\n      pop\n      swap1\n      pop\n      sload\n      dup2\n      jump\t// out\n        /* \"contracts/KipuBankV3.sol\":1915:1946  address public immutable i_weth */\n    tag_53:\n      immutable(\"0x309aa99e4c861402170585a42262b5b520b1e1d0fbf588b84ec666d14740e5b1\")\n      dup2\n      jump\t// out\n        /* \"contracts/KipuBankV3.sol\":8544:8897  function withdrawUsdc(uint256 _amount) external nonReentrant _availableAmount(_amount){... */\n    tag_60:\n        /* \"@openzeppelin/contracts/utils/ReentrancyGuard.sol\":2500:2521  _nonReentrantBefore() */\n      tag_219\n        /* \"@openzeppelin/contracts/utils/ReentrancyGuard.sol\":2500:2519  _nonReentrantBefore */\n      tag_151\n        /* \"@openzeppelin/contracts/utils/ReentrancyGuard.sol\":2500:2521  _nonReentrantBefore() */\n      jump\t// in\n    tag_219:\n        /* \"contracts/KipuBankV3.sol\":8622:8629  _amount */\n      dup1\n        /* \"contracts/KipuBankV3.sol\":4048:4055  _amount */\n      dup1\n        /* \"contracts/KipuBankV3.sol\":4030:4045  i_maxWithdrawal */\n      immutable(\"0x25f9e8aeae9c2ffb4081060f1a62aa0739d35380589299578ccc29b3c3a0654e\")\n        /* \"contracts/KipuBankV3.sol\":4030:4055  i_maxWithdrawal < _amount */\n      lt\n        /* \"contracts/KipuBankV3.sol\":4027:4130  if(i_maxWithdrawal < _amount) revert KipuBank_FailedWithdrawal(\"Amount exceeds the maximum withdrawal\") */\n      iszero\n      tag_221\n      jumpi\n        /* \"contracts/KipuBankV3.sol\":4064:4130  KipuBank_FailedWithdrawal(\"Amount exceeds the maximum withdrawal\") */\n      mload(0x40)\n      0x0fc0517400000000000000000000000000000000000000000000000000000000\n      dup2\n      mstore\n      0x04\n      add\n      tag_222\n      swap1\n      tag_223\n      jump\t// in\n    tag_222:\n      mload(0x40)\n      dup1\n      swap2\n      sub\n      swap1\n      revert\n        /* \"contracts/KipuBankV3.sol\":4027:4130  if(i_maxWithdrawal < _amount) revert KipuBank_FailedWithdrawal(\"Amount exceeds the maximum withdrawal\") */\n    tag_221:\n        /* \"contracts/KipuBankV3.sol\":4169:4176  _amount */\n      dup1\n        /* \"contracts/KipuBankV3.sol\":4144:4154  s_balances */\n      0x02\n        /* \"contracts/KipuBankV3.sol\":4144:4166  s_balances[msg.sender] */\n      0x00\n        /* \"contracts/KipuBankV3.sol\":4155:4165  msg.sender */\n      caller\n        /* \"contracts/KipuBankV3.sol\":4144:4166  s_balances[msg.sender] */\n      0xffffffffffffffffffffffffffffffffffffffff\n      and\n      0xffffffffffffffffffffffffffffffffffffffff\n      and\n      dup2\n      mstore\n      0x20\n      add\n      swap1\n      dup2\n      mstore\n      0x20\n      add\n      0x00\n      keccak256\n      sload\n        /* \"contracts/KipuBankV3.sol\":4144:4176  s_balances[msg.sender] < _amount */\n      lt\n        /* \"contracts/KipuBankV3.sol\":4141:4233  if(s_balances[msg.sender] < _amount) revert KipuBank_InsufficientFounds(\"Not enough founds\") */\n      iszero\n      tag_224\n      jumpi\n        /* \"contracts/KipuBankV3.sol\":4185:4233  KipuBank_InsufficientFounds(\"Not enough founds\") */\n      mload(0x40)\n      0xe7fe37fb00000000000000000000000000000000000000000000000000000000\n      dup2\n      mstore\n      0x04\n      add\n      tag_225\n      swap1\n      tag_226\n      jump\t// in\n    tag_225:\n      mload(0x40)\n      dup1\n      swap2\n      sub\n      swap1\n      revert\n        /* \"contracts/KipuBankV3.sol\":4141:4233  if(s_balances[msg.sender] < _amount) revert KipuBank_InsufficientFounds(\"Not enough founds\") */\n    tag_224:\n        /* \"contracts/KipuBankV3.sol\":8686:8693  _amount */\n      dup2\n        /* \"contracts/KipuBankV3.sol\":8660:8670  s_balances */\n      0x02\n        /* \"contracts/KipuBankV3.sol\":8660:8682  s_balances[msg.sender] */\n      0x00\n        /* \"contracts/KipuBankV3.sol\":8671:8681  msg.sender */\n      caller\n        /* \"contracts/KipuBankV3.sol\":8660:8682  s_balances[msg.sender] */\n      0xffffffffffffffffffffffffffffffffffffffff\n      and\n      0xffffffffffffffffffffffffffffffffffffffff\n      and\n      dup2\n      mstore\n      0x20\n      add\n      swap1\n      dup2\n      mstore\n      0x20\n      add\n      0x00\n      keccak256\n      0x00\n        /* \"contracts/KipuBankV3.sol\":8660:8693  s_balances[msg.sender] -= _amount */\n      dup3\n      dup3\n      sload\n      tag_228\n      swap2\n      swap1\n      tag_139\n      jump\t// in\n    tag_228:\n      swap3\n      pop\n      pop\n      dup2\n      swap1\n      sstore\n      pop\n        /* \"contracts/KipuBankV3.sol\":8704:8748  _actualizeOperations(false, address(i_usdc)) */\n      tag_229\n        /* \"contracts/KipuBankV3.sol\":8725:8730  false */\n      0x00\n        /* \"contracts/KipuBankV3.sol\":8740:8746  i_usdc */\n      immutable(\"0xe0800c6beceec1247d5682d9f388b4169d48b373c18811205d6cd68456d8cf3b\")\n        /* \"contracts/KipuBankV3.sol\":8704:8724  _actualizeOperations */\n      tag_142\n        /* \"contracts/KipuBankV3.sol\":8704:8748  _actualizeOperations(false, address(i_usdc)) */\n      jump\t// in\n    tag_229:\n        /* \"contracts/KipuBankV3.sol\":8788:8838  KipuBank_SuccessfulWithdrawal(msg.sender, _amount) */\n      0x1ff21e81cff87fccbac096ad565f52cb1b358db04a736a6a137cceb4a287a702\n        /* \"contracts/KipuBankV3.sol\":8818:8828  msg.sender */\n      caller\n        /* \"contracts/KipuBankV3.sol\":8830:8837  _amount */\n      dup4\n        /* \"contracts/KipuBankV3.sol\":8788:8838  KipuBank_SuccessfulWithdrawal(msg.sender, _amount) */\n      mload(0x40)\n      tag_230\n      swap3\n      swap2\n      swap1\n      tag_144\n      jump\t// in\n    tag_230:\n      mload(0x40)\n      dup1\n      swap2\n      sub\n      swap1\n      log1\n        /* \"contracts/KipuBankV3.sol\":8849:8889  i_usdc.safeTransfer(msg.sender, _amount) */\n      tag_231\n        /* \"contracts/KipuBankV3.sol\":8869:8879  msg.sender */\n      caller\n        /* \"contracts/KipuBankV3.sol\":8881:8888  _amount */\n      dup4\n        /* \"contracts/KipuBankV3.sol\":8849:8855  i_usdc */\n      immutable(\"0xe0800c6beceec1247d5682d9f388b4169d48b373c18811205d6cd68456d8cf3b\")\n        /* \"contracts/KipuBankV3.sol\":8849:8868  i_usdc.safeTransfer */\n      0xffffffffffffffffffffffffffffffffffffffff\n      and\n      tag_232\n      swap1\n        /* \"contracts/KipuBankV3.sol\":8849:8889  i_usdc.safeTransfer(msg.sender, _amount) */\n      swap3\n      swap2\n      swap1\n      0xffffffff\n      and\n      jump\t// in\n    tag_231:\n        /* \"@openzeppelin/contracts/utils/ReentrancyGuard.sol\":2531:2532  _ */\n      pop\n        /* \"@openzeppelin/contracts/utils/ReentrancyGuard.sol\":2542:2562  _nonReentrantAfter() */\n      tag_233\n        /* \"@openzeppelin/contracts/utils/ReentrancyGuard.sol\":2542:2560  _nonReentrantAfter */\n      tag_217\n        /* \"@openzeppelin/contracts/utils/ReentrancyGuard.sol\":2542:2562  _nonReentrantAfter() */\n      jump\t// in\n    tag_233:\n        /* \"contracts/KipuBankV3.sol\":8544:8897  function withdrawUsdc(uint256 _amount) external nonReentrant _availableAmount(_amount){... */\n      pop\n      jump\t// out\n        /* \"@openzeppelin/contracts/access/Ownable.sol\":2293:2394  function renounceOwnership() public virtual onlyOwner {... */\n    tag_63:\n        /* \"@openzeppelin/contracts/access/Ownable.sol\":1531:1544  _checkOwner() */\n      tag_235\n        /* \"@openzeppelin/contracts/access/Ownable.sol\":1531:1542  _checkOwner */\n      tag_236\n        /* \"@openzeppelin/contracts/access/Ownable.sol\":1531:1544  _checkOwner() */\n      jump\t// in\n    tag_235:\n        /* \"@openzeppelin/contracts/access/Ownable.sol\":2357:2387  _transferOwnership(address(0)) */\n      tag_238\n        /* \"@openzeppelin/contracts/access/Ownable.sol\":2384:2385  0 */\n      0x00\n        /* \"@openzeppelin/contracts/access/Ownable.sol\":2357:2375  _transferOwnership */\n      tag_239\n        /* \"@openzeppelin/contracts/access/Ownable.sol\":2357:2387  _transferOwnership(address(0)) */\n      jump\t// in\n    tag_238:\n        /* \"@openzeppelin/contracts/access/Ownable.sol\":2293:2394  function renounceOwnership() public virtual onlyOwner {... */\n      jump\t// out\n        /* \"contracts/KipuBankV3.sol\":2016:2065  IUniswapV2Router02 public immutable uniswapRouter */\n    tag_66:\n      immutable(\"0x85f02f516c7d0991c664a4bec2d330227d63675d95439bf15f2f85c90c4fd2e5\")\n      dup2\n      jump\t// out\n        /* \"contracts/KipuBankV3.sol\":2074:2113  IUniswapV2Factory public uniswapFactory */\n    tag_71:\n      0x05\n      0x00\n      swap1\n      sload\n      swap1\n      0x0100\n      exp\n      swap1\n      div\n      0xffffffffffffffffffffffffffffffffffffffff\n      and\n      dup2\n      jump\t// out\n        /* \"@openzeppelin/contracts/access/Ownable.sol\":1638:1723  function owner() public view virtual returns (address) {... */\n    tag_76:\n        /* \"@openzeppelin/contracts/access/Ownable.sol\":1684:1691  address */\n      0x00\n        /* \"@openzeppelin/contracts/access/Ownable.sol\":1710:1716  _owner */\n      dup1\n      0x00\n      swap1\n      sload\n      swap1\n      0x0100\n      exp\n      swap1\n      div\n      0xffffffffffffffffffffffffffffffffffffffff\n      and\n        /* \"@openzeppelin/contracts/access/Ownable.sol\":1703:1716  return _owner */\n      swap1\n      pop\n        /* \"@openzeppelin/contracts/access/Ownable.sol\":1638:1723  function owner() public view virtual returns (address) {... */\n      swap1\n      jump\t// out\n        /* \"contracts/KipuBankV3.sol\":8905:9057  function emergencyWithdrawal(uint256 _amount, address _recipient) external onlyOwner {... */\n    tag_82:\n        /* \"@openzeppelin/contracts/access/Ownable.sol\":1531:1544  _checkOwner() */\n      tag_242\n        /* \"@openzeppelin/contracts/access/Ownable.sol\":1531:1542  _checkOwner */\n      tag_236\n        /* \"@openzeppelin/contracts/access/Ownable.sol\":1531:1544  _checkOwner() */\n      jump\t// in\n    tag_242:\n        /* \"contracts/KipuBankV3.sol\":9001:9049  IERC20(i_usdc).safeTransfer(_recipient, _amount) */\n      tag_244\n        /* \"contracts/KipuBankV3.sol\":9029:9039  _recipient */\n      dup2\n        /* \"contracts/KipuBankV3.sol\":9041:9048  _amount */\n      dup4\n        /* \"contracts/KipuBankV3.sol\":9008:9014  i_usdc */\n      immutable(\"0xe0800c6beceec1247d5682d9f388b4169d48b373c18811205d6cd68456d8cf3b\")\n        /* \"contracts/KipuBankV3.sol\":9001:9028  IERC20(i_usdc).safeTransfer */\n      0xffffffffffffffffffffffffffffffffffffffff\n      and\n      tag_232\n      swap1\n        /* \"contracts/KipuBankV3.sol\":9001:9049  IERC20(i_usdc).safeTransfer(_recipient, _amount) */\n      swap3\n      swap2\n      swap1\n      0xffffffff\n      and\n      jump\t// in\n    tag_244:\n        /* \"contracts/KipuBankV3.sol\":8905:9057  function emergencyWithdrawal(uint256 _amount, address _recipient) external onlyOwner {... */\n      pop\n      pop\n      jump\t// out\n        /* \"contracts/KipuBankV3.sol\":7074:7175  function deposit() external payable nonReentrant{... */\n    tag_84:\n        /* \"@openzeppelin/contracts/utils/ReentrancyGuard.sol\":2500:2521  _nonReentrantBefore() */\n      tag_246\n        /* \"@openzeppelin/contracts/utils/ReentrancyGuard.sol\":2500:2519  _nonReentrantBefore */\n      tag_151\n        /* \"@openzeppelin/contracts/utils/ReentrancyGuard.sol\":2500:2521  _nonReentrantBefore() */\n      jump\t// in\n    tag_246:\n        /* \"contracts/KipuBankV3.sol\":7133:7167  _depositETH(msg.sender, msg.value) */\n      tag_248\n        /* \"contracts/KipuBankV3.sol\":7145:7155  msg.sender */\n      caller\n        /* \"contracts/KipuBankV3.sol\":7157:7166  msg.value */\n      callvalue\n        /* \"contracts/KipuBankV3.sol\":7133:7144  _depositETH */\n      tag_25\n        /* \"contracts/KipuBankV3.sol\":7133:7167  _depositETH(msg.sender, msg.value) */\n      jump\t// in\n    tag_248:\n        /* \"@openzeppelin/contracts/utils/ReentrancyGuard.sol\":2542:2562  _nonReentrantAfter() */\n      tag_249\n        /* \"@openzeppelin/contracts/utils/ReentrancyGuard.sol\":2542:2560  _nonReentrantAfter */\n      tag_217\n        /* \"@openzeppelin/contracts/utils/ReentrancyGuard.sol\":2542:2562  _nonReentrantAfter() */\n      jump\t// in\n    tag_249:\n        /* \"contracts/KipuBankV3.sol\":7074:7175  function deposit() external payable nonReentrant{... */\n      jump\t// out\n        /* \"@openzeppelin/contracts/access/Ownable.sol\":2543:2758  function transferOwnership(address newOwner) public virtual onlyOwner {... */\n    tag_88:\n        /* \"@openzeppelin/contracts/access/Ownable.sol\":1531:1544  _checkOwner() */\n      tag_251\n        /* \"@openzeppelin/contracts/access/Ownable.sol\":1531:1542  _checkOwner */\n      tag_236\n        /* \"@openzeppelin/contracts/access/Ownable.sol\":1531:1544  _checkOwner() */\n      jump\t// in\n    tag_251:\n        /* \"@openzeppelin/contracts/access/Ownable.sol\":2647:2648  0 */\n      0x00\n        /* \"@openzeppelin/contracts/access/Ownable.sol\":2627:2649  newOwner == address(0) */\n      0xffffffffffffffffffffffffffffffffffffffff\n      and\n        /* \"@openzeppelin/contracts/access/Ownable.sol\":2627:2635  newOwner */\n      dup2\n        /* \"@openzeppelin/contracts/access/Ownable.sol\":2627:2649  newOwner == address(0) */\n      0xffffffffffffffffffffffffffffffffffffffff\n      and\n      sub\n        /* \"@openzeppelin/contracts/access/Ownable.sol\":2623:2714  if (newOwner == address(0)) {... */\n      tag_253\n      jumpi\n        /* \"@openzeppelin/contracts/access/Ownable.sol\":2700:2701  0 */\n      0x00\n        /* \"@openzeppelin/contracts/access/Ownable.sol\":2672:2703  OwnableInvalidOwner(address(0)) */\n      mload(0x40)\n      0x1e4fbdf700000000000000000000000000000000000000000000000000000000\n      dup2\n      mstore\n      0x04\n      add\n      tag_254\n      swap2\n      swap1\n      tag_55\n      jump\t// in\n    tag_254:\n      mload(0x40)\n      dup1\n      swap2\n      sub\n      swap1\n      revert\n        /* \"@openzeppelin/contracts/access/Ownable.sol\":2623:2714  if (newOwner == address(0)) {... */\n    tag_253:\n        /* \"@openzeppelin/contracts/access/Ownable.sol\":2723:2751  _transferOwnership(newOwner) */\n      tag_255\n        /* \"@openzeppelin/contracts/access/Ownable.sol\":2742:2750  newOwner */\n      dup2\n        /* \"@openzeppelin/contracts/access/Ownable.sol\":2723:2741  _transferOwnership */\n      tag_239\n        /* \"@openzeppelin/contracts/access/Ownable.sol\":2723:2751  _transferOwnership(newOwner) */\n      jump\t// in\n    tag_255:\n        /* \"@openzeppelin/contracts/access/Ownable.sol\":2543:2758  function transferOwnership(address newOwner) public virtual onlyOwner {... */\n      pop\n      jump\t// out\n        /* \"contracts/KipuBankV3.sol\":1568:1601  uint256 public s_totalWithdrawals */\n    tag_91:\n      sload(0x04)\n      dup2\n      jump\t// out\n        /* \"contracts/KipuBankV3.sol\":1673:1707  uint256 public immutable i_bankCap */\n    tag_95:\n      immutable(\"0xad55db84fbe3147935ae260b6daeae918a666c79e031e119ec3348828c3cd0fb\")\n      dup2\n      jump\t// out\n        /* \"contracts/KipuBankV3.sol\":1876:1906  IERC20 public immutable i_usdc */\n    tag_99:\n      immutable(\"0xe0800c6beceec1247d5682d9f388b4169d48b373c18811205d6cd68456d8cf3b\")\n      dup2\n      jump\t// out\n        /* \"contracts/KipuBankV3.sol\":9073:9796  function _estimateUSDCOut(address _token, uint256 _amount) internal view returns (uint256) {... */\n    tag_104:\n        /* \"contracts/KipuBankV3.sol\":9155:9162  uint256 */\n      0x00\n        /* \"contracts/KipuBankV3.sol\":9193:9199  i_usdc */\n      immutable(\"0xe0800c6beceec1247d5682d9f388b4169d48b373c18811205d6cd68456d8cf3b\")\n        /* \"contracts/KipuBankV3.sol\":9175:9200  _token == address(i_usdc) */\n      0xffffffffffffffffffffffffffffffffffffffff\n      and\n        /* \"contracts/KipuBankV3.sol\":9175:9181  _token */\n      dup4\n        /* \"contracts/KipuBankV3.sol\":9175:9200  _token == address(i_usdc) */\n      0xffffffffffffffffffffffffffffffffffffffff\n      and\n      sub\n        /* \"contracts/KipuBankV3.sol\":9171:9216  if (_token == address(i_usdc)) return _amount */\n      tag_257\n      jumpi\n        /* \"contracts/KipuBankV3.sol\":9209:9216  _amount */\n      dup2\n        /* \"contracts/KipuBankV3.sol\":9202:9216  return _amount */\n      swap1\n      pop\n      jump(tag_256)\n        /* \"contracts/KipuBankV3.sol\":9171:9216  if (_token == address(i_usdc)) return _amount */\n    tag_257:\n        /* \"contracts/KipuBankV3.sol\":9225:9237  address pair */\n      0x00\n        /* \"contracts/KipuBankV3.sol\":9240:9254  uniswapFactory */\n      0x05\n      0x00\n      swap1\n      sload\n      swap1\n      0x0100\n      exp\n      swap1\n      div\n      0xffffffffffffffffffffffffffffffffffffffff\n      and\n        /* \"contracts/KipuBankV3.sol\":9240:9262  uniswapFactory.getPair */\n      0xffffffffffffffffffffffffffffffffffffffff\n      and\n      0xe6a43905\n        /* \"contracts/KipuBankV3.sol\":9263:9269  _token */\n      dup6\n        /* \"contracts/KipuBankV3.sol\":9279:9285  i_usdc */\n      immutable(\"0xe0800c6beceec1247d5682d9f388b4169d48b373c18811205d6cd68456d8cf3b\")\n        /* \"contracts/KipuBankV3.sol\":9240:9287  uniswapFactory.getPair(_token, address(i_usdc)) */\n      mload(0x40)\n      dup4\n      0xffffffff\n      and\n      0xe0\n      shl\n      dup2\n      mstore\n      0x04\n      add\n      tag_258\n      swap3\n      swap2\n      swap1\n      tag_154\n      jump\t// in\n    tag_258:\n      0x20\n      mload(0x40)\n      dup1\n      dup4\n      sub\n      dup2\n      dup7\n      gas\n      staticcall\n      iszero\n      dup1\n      iszero\n      tag_260\n      jumpi\n      returndatasize\n      0x00\n      dup1\n      returndatacopy\n      revert(0x00, returndatasize)\n    tag_260:\n      pop\n      pop\n      pop\n      pop\n      mload(0x40)\n      returndatasize\n      not(0x1f)\n      0x1f\n      dup3\n      add\n      and\n      dup3\n      add\n      dup1\n      0x40\n      mstore\n      pop\n      dup2\n      add\n      swap1\n      tag_261\n      swap2\n      swap1\n      tag_158\n      jump\t// in\n    tag_261:\n        /* \"contracts/KipuBankV3.sol\":9225:9287  address pair = uniswapFactory.getPair(_token, address(i_usdc)) */\n      swap1\n      pop\n        /* \"contracts/KipuBankV3.sol\":9310:9316  i_weth */\n      immutable(\"0x309aa99e4c861402170585a42262b5b520b1e1d0fbf588b84ec666d14740e5b1\")\n        /* \"contracts/KipuBankV3.sol\":9302:9316  pair != i_weth */\n      0xffffffffffffffffffffffffffffffffffffffff\n      and\n        /* \"contracts/KipuBankV3.sol\":9302:9306  pair */\n      dup2\n        /* \"contracts/KipuBankV3.sol\":9302:9316  pair != i_weth */\n      0xffffffffffffffffffffffffffffffffffffffff\n      and\n      sub\n        /* \"contracts/KipuBankV3.sol\":9294:9328  require(pair != i_weth, \"No pair\") */\n      tag_262\n      jumpi\n      mload(0x40)\n      0x08c379a000000000000000000000000000000000000000000000000000000000\n      dup2\n      mstore\n      0x04\n      add\n      tag_263\n      swap1\n      tag_264\n      jump\t// in\n    tag_263:\n      mload(0x40)\n      dup1\n      swap2\n      sub\n      swap1\n      revert\n    tag_262:\n        /* \"contracts/KipuBankV3.sol\":9338:9354  uint112 reserve0 */\n      0x00\n        /* \"contracts/KipuBankV3.sol\":9356:9372  uint112 reserve1 */\n      dup1\n        /* \"contracts/KipuBankV3.sol\":9392:9396  pair */\n      dup3\n        /* \"contracts/KipuBankV3.sol\":9377:9409  IUniswapV2Pair(pair).getReserves */\n      0xffffffffffffffffffffffffffffffffffffffff\n      and\n      0x0902f1ac\n        /* \"contracts/KipuBankV3.sol\":9377:9411  IUniswapV2Pair(pair).getReserves() */\n      mload(0x40)\n      dup2\n      0xffffffff\n      and\n      0xe0\n      shl\n      dup2\n      mstore\n      0x04\n      add\n      0x60\n      mload(0x40)\n      dup1\n      dup4\n      sub\n      dup2\n      dup7\n      gas\n      staticcall\n      iszero\n      dup1\n      iszero\n      tag_266\n      jumpi\n      returndatasize\n      0x00\n      dup1\n      returndatacopy\n      revert(0x00, returndatasize)\n    tag_266:\n      pop\n      pop\n      pop\n      pop\n      mload(0x40)\n      returndatasize\n      not(0x1f)\n      0x1f\n      dup3\n      add\n      and\n      dup3\n      add\n      dup1\n      0x40\n      mstore\n      pop\n      dup2\n      add\n      swap1\n      tag_267\n      swap2\n      swap1\n      tag_268\n      jump\t// in\n    tag_267:\n        /* \"contracts/KipuBankV3.sol\":9337:9411  (uint112 reserve0, uint112 reserve1,) = IUniswapV2Pair(pair).getReserves() */\n      pop\n      swap2\n      pop\n      swap2\n      pop\n        /* \"contracts/KipuBankV3.sol\":9419:9436  uint112 reserveIn */\n      0x00\n        /* \"contracts/KipuBankV3.sol\":9438:9456  uint112 reserveOut */\n      dup1\n        /* \"contracts/KipuBankV3.sol\":9477:9483  i_usdc */\n      immutable(\"0xe0800c6beceec1247d5682d9f388b4169d48b373c18811205d6cd68456d8cf3b\")\n        /* \"contracts/KipuBankV3.sol\":9460:9484  _token < address(i_usdc) */\n      0xffffffffffffffffffffffffffffffffffffffff\n      and\n        /* \"contracts/KipuBankV3.sol\":9460:9466  _token */\n      dup9\n        /* \"contracts/KipuBankV3.sol\":9460:9484  _token < address(i_usdc) */\n      0xffffffffffffffffffffffffffffffffffffffff\n      and\n      lt\n        /* \"contracts/KipuBankV3.sol\":9460:9530  _token < address(i_usdc) ? (reserve0, reserve1) : (reserve1, reserve0) */\n      tag_269\n      jumpi\n        /* \"contracts/KipuBankV3.sol\":9511:9519  reserve1 */\n      dup3\n        /* \"contracts/KipuBankV3.sol\":9521:9529  reserve0 */\n      dup5\n        /* \"contracts/KipuBankV3.sol\":9460:9530  _token < address(i_usdc) ? (reserve0, reserve1) : (reserve1, reserve0) */\n      jump(tag_270)\n    tag_269:\n        /* \"contracts/KipuBankV3.sol\":9488:9496  reserve0 */\n      dup4\n        /* \"contracts/KipuBankV3.sol\":9498:9506  reserve1 */\n      dup4\n        /* \"contracts/KipuBankV3.sol\":9460:9530  _token < address(i_usdc) ? (reserve0, reserve1) : (reserve1, reserve0) */\n    tag_270:\n        /* \"contracts/KipuBankV3.sol\":9418:9530  (uint112 reserveIn, uint112 reserveOut) = _token < address(i_usdc) ? (reserve0, reserve1) : (reserve1, reserve0) */\n      swap2\n      pop\n      swap2\n      pop\n        /* \"contracts/KipuBankV3.sol\":9586:9609  uint256 amountInWithFee */\n      0x00\n        /* \"contracts/KipuBankV3.sol\":9622:9625  997 */\n      0x03e5\n        /* \"contracts/KipuBankV3.sol\":9612:9619  _amount */\n      dup9\n        /* \"contracts/KipuBankV3.sol\":9612:9625  _amount * 997 */\n      tag_271\n      swap2\n      swap1\n      tag_272\n      jump\t// in\n    tag_271:\n        /* \"contracts/KipuBankV3.sol\":9586:9625  uint256 amountInWithFee = _amount * 997 */\n      swap1\n      pop\n        /* \"contracts/KipuBankV3.sol\":9644:9661  uint256 numerator */\n      0x00\n        /* \"contracts/KipuBankV3.sol\":9682:9692  reserveOut */\n      dup3\n        /* \"contracts/KipuBankV3.sol\":9664:9692  amountInWithFee * reserveOut */\n      0xffffffffffffffffffffffffffff\n      and\n        /* \"contracts/KipuBankV3.sol\":9664:9679  amountInWithFee */\n      dup3\n        /* \"contracts/KipuBankV3.sol\":9664:9692  amountInWithFee * reserveOut */\n      tag_273\n      swap2\n      swap1\n      tag_272\n      jump\t// in\n    tag_273:\n        /* \"contracts/KipuBankV3.sol\":9644:9692  uint256 numerator = amountInWithFee * reserveOut */\n      swap1\n      pop\n        /* \"contracts/KipuBankV3.sol\":9699:9718  uint256 denominator */\n      0x00\n        /* \"contracts/KipuBankV3.sol\":9740:9755  amountInWithFee */\n      dup3\n        /* \"contracts/KipuBankV3.sol\":9733:9737  1000 */\n      0x03e8\n        /* \"contracts/KipuBankV3.sol\":9721:9730  reserveIn */\n      dup7\n        /* \"contracts/KipuBankV3.sol\":9721:9737  reserveIn * 1000 */\n      tag_274\n      swap2\n      swap1\n      tag_275\n      jump\t// in\n    tag_274:\n        /* \"contracts/KipuBankV3.sol\":9721:9755  reserveIn * 1000 + amountInWithFee */\n      0xffffffffffffffffffffffffffff\n      and\n      tag_276\n      swap2\n      swap1\n      tag_111\n      jump\t// in\n    tag_276:\n        /* \"contracts/KipuBankV3.sol\":9699:9755  uint256 denominator = reserveIn * 1000 + amountInWithFee */\n      swap1\n      pop\n        /* \"contracts/KipuBankV3.sol\":9781:9792  denominator */\n      dup1\n        /* \"contracts/KipuBankV3.sol\":9769:9778  numerator */\n      dup3\n        /* \"contracts/KipuBankV3.sol\":9769:9792  numerator / denominator */\n      tag_277\n      swap2\n      swap1\n      tag_122\n      jump\t// in\n    tag_277:\n        /* \"contracts/KipuBankV3.sol\":9762:9792  return numerator / denominator */\n      swap9\n      pop\n      pop\n      pop\n      pop\n      pop\n      pop\n      pop\n      pop\n      pop\n        /* \"contracts/KipuBankV3.sol\":9073:9796  function _estimateUSDCOut(address _token, uint256 _amount) internal view returns (uint256) {... */\n    tag_256:\n      swap3\n      swap2\n      pop\n      pop\n      jump\t// out\n        /* \"contracts/KipuBankV3.sol\":10798:11012  function _actualizeOperations(bool isDeposit, address token) private{... */\n    tag_142:\n        /* \"contracts/KipuBankV3.sol\":10880:10889  isDeposit */\n      dup2\n        /* \"contracts/KipuBankV3.sol\":10877:11005  if(isDeposit){... */\n      iszero\n      tag_279\n      jumpi\n        /* \"contracts/KipuBankV3.sol\":10938:10939  1 */\n      0x01\n        /* \"contracts/KipuBankV3.sol\":10905:10927  s_totalDepositsByToken */\n      0x03\n        /* \"contracts/KipuBankV3.sol\":10905:10934  s_totalDepositsByToken[token] */\n      0x00\n        /* \"contracts/KipuBankV3.sol\":10928:10933  token */\n      dup4\n        /* \"contracts/KipuBankV3.sol\":10905:10934  s_totalDepositsByToken[token] */\n      0xffffffffffffffffffffffffffffffffffffffff\n      and\n      0xffffffffffffffffffffffffffffffffffffffff\n      and\n      dup2\n      mstore\n      0x20\n      add\n      swap1\n      dup2\n      mstore\n      0x20\n      add\n      0x00\n      keccak256\n      0x00\n        /* \"contracts/KipuBankV3.sol\":10905:10939  s_totalDepositsByToken[token] += 1 */\n      dup3\n      dup3\n      sload\n      tag_280\n      swap2\n      swap1\n      tag_111\n      jump\t// in\n    tag_280:\n      swap3\n      pop\n      pop\n      dup2\n      swap1\n      sstore\n      pop\n        /* \"contracts/KipuBankV3.sol\":10877:11005  if(isDeposit){... */\n      jump(tag_281)\n    tag_279:\n        /* \"contracts/KipuBankV3.sol\":10992:10993  1 */\n      0x01\n        /* \"contracts/KipuBankV3.sol\":10970:10988  s_totalWithdrawals */\n      0x04\n      0x00\n        /* \"contracts/KipuBankV3.sol\":10970:10993  s_totalWithdrawals += 1 */\n      dup3\n      dup3\n      sload\n      tag_282\n      swap2\n      swap1\n      tag_111\n      jump\t// in\n    tag_282:\n      swap3\n      pop\n      pop\n      dup2\n      swap1\n      sstore\n      pop\n        /* \"contracts/KipuBankV3.sol\":10877:11005  if(isDeposit){... */\n    tag_281:\n        /* \"contracts/KipuBankV3.sol\":10798:11012  function _actualizeOperations(bool isDeposit, address token) private{... */\n      pop\n      pop\n      jump\t// out\n        /* \"contracts/KipuBankV3.sol\":11036:11170  function _consultFounds() internal view returns (uint256 amount_) {... */\n    tag_147:\n        /* \"contracts/KipuBankV3.sol\":11085:11100  uint256 amount_ */\n      0x00\n        /* \"contracts/KipuBankV3.sol\":11130:11136  i_usdc */\n      immutable(\"0xe0800c6beceec1247d5682d9f388b4169d48b373c18811205d6cd68456d8cf3b\")\n        /* \"contracts/KipuBankV3.sol\":11123:11147  IERC20(i_usdc).balanceOf */\n      0xffffffffffffffffffffffffffffffffffffffff\n      and\n      0x70a08231\n        /* \"contracts/KipuBankV3.sol\":11156:11160  this */\n      address\n        /* \"contracts/KipuBankV3.sol\":11123:11162  IERC20(i_usdc).balanceOf(address(this)) */\n      mload(0x40)\n      dup3\n      0xffffffff\n      and\n      0xe0\n      shl\n      dup2\n      mstore\n      0x04\n      add\n      tag_284\n      swap2\n      swap1\n      tag_55\n      jump\t// in\n    tag_284:\n      0x20\n      mload(0x40)\n      dup1\n      dup4\n      sub\n      dup2\n      dup7\n      gas\n      staticcall\n      iszero\n      dup1\n      iszero\n      tag_286\n      jumpi\n      returndatasize\n      0x00\n      dup1\n      returndatacopy\n      revert(0x00, returndatasize)\n    tag_286:\n      pop\n      pop\n      pop\n      pop\n      mload(0x40)\n      returndatasize\n      not(0x1f)\n      0x1f\n      dup3\n      add\n      and\n      dup3\n      add\n      dup1\n      0x40\n      mstore\n      pop\n      dup2\n      add\n      swap1\n      tag_287\n      swap2\n      swap1\n      tag_109\n      jump\t// in\n    tag_287:\n        /* \"contracts/KipuBankV3.sol\":11113:11162  amount_ = IERC20(i_usdc).balanceOf(address(this)) */\n      swap1\n      pop\n        /* \"contracts/KipuBankV3.sol\":11036:11170  function _consultFounds() internal view returns (uint256 amount_) {... */\n      swap1\n      jump\t// out\n        /* \"@openzeppelin/contracts/utils/ReentrancyGuard.sol\":2575:2882  function _nonReentrantBefore() private {... */\n    tag_151:\n        /* \"@openzeppelin/contracts/utils/ReentrancyGuard.sol\":1899:1900  2 */\n      0x02\n        /* \"@openzeppelin/contracts/utils/ReentrancyGuard.sol\":2702:2709  _status */\n      sload(0x01)\n        /* \"@openzeppelin/contracts/utils/ReentrancyGuard.sol\":2702:2720  _status == ENTERED */\n      sub\n        /* \"@openzeppelin/contracts/utils/ReentrancyGuard.sol\":2698:2784  if (_status == ENTERED) {... */\n      tag_289\n      jumpi\n        /* \"@openzeppelin/contracts/utils/ReentrancyGuard.sol\":2743:2773  ReentrancyGuardReentrantCall() */\n      mload(0x40)\n      0x3ee5aeb500000000000000000000000000000000000000000000000000000000\n      dup2\n      mstore\n      0x04\n      add\n      mload(0x40)\n      dup1\n      swap2\n      sub\n      swap1\n      revert\n        /* \"@openzeppelin/contracts/utils/ReentrancyGuard.sol\":2698:2784  if (_status == ENTERED) {... */\n    tag_289:\n        /* \"@openzeppelin/contracts/utils/ReentrancyGuard.sol\":1899:1900  2 */\n      0x02\n        /* \"@openzeppelin/contracts/utils/ReentrancyGuard.sol\":2858:2865  _status */\n      0x01\n        /* \"@openzeppelin/contracts/utils/ReentrancyGuard.sol\":2858:2875  _status = ENTERED */\n      dup2\n      swap1\n      sstore\n      pop\n        /* \"@openzeppelin/contracts/utils/ReentrancyGuard.sol\":2575:2882  function _nonReentrantBefore() private {... */\n      jump\t// out\n        /* \"@openzeppelin/contracts/token/ERC20/utils/SafeERC20.sol\":1618:1806  function safeTransferFrom(IERC20 token, address from, address to, uint256 value) internal {... */\n    tag_181:\n        /* \"@openzeppelin/contracts/token/ERC20/utils/SafeERC20.sol\":1718:1799  _callOptionalReturn(token, abi.encodeCall(token.transferFrom, (from, to, value))) */\n      tag_291\n        /* \"@openzeppelin/contracts/token/ERC20/utils/SafeERC20.sol\":1738:1743  token */\n      dup5\n        /* \"@openzeppelin/contracts/token/ERC20/utils/SafeERC20.sol\":1760:1765  token */\n      dup6\n        /* \"@openzeppelin/contracts/token/ERC20/utils/SafeERC20.sol\":1760:1778  token.transferFrom */\n      0xffffffffffffffffffffffffffffffffffffffff\n      and\n      0x23b872dd\n        /* \"@openzeppelin/contracts/token/ERC20/utils/SafeERC20.sol\":1781:1785  from */\n      dup7\n        /* \"@openzeppelin/contracts/token/ERC20/utils/SafeERC20.sol\":1787:1789  to */\n      dup7\n        /* \"@openzeppelin/contracts/token/ERC20/utils/SafeERC20.sol\":1791:1796  value */\n      dup7\n        /* \"@openzeppelin/contracts/token/ERC20/utils/SafeERC20.sol\":1745:1798  abi.encodeCall(token.transferFrom, (from, to, value)) */\n      add(0x24, mload(0x40))\n      tag_292\n      swap4\n      swap3\n      swap2\n      swap1\n      tag_293\n      jump\t// in\n    tag_292:\n      mload(0x40)\n      0x20\n      dup2\n      dup4\n      sub\n      sub\n      dup2\n      mstore\n      swap1\n      0x40\n      mstore\n      swap2\n      pop\n      0xe0\n      shl\n      0x20\n      dup3\n      add\n      dup1\n      mload\n      0xffffffffffffffffffffffffffffffffffffffffffffffffffffffff\n      dup4\n      dup2\n      dup4\n      and\n      or\n      dup4\n      mstore\n      pop\n      pop\n      pop\n      pop\n        /* \"@openzeppelin/contracts/token/ERC20/utils/SafeERC20.sol\":1718:1737  _callOptionalReturn */\n      tag_294\n        /* \"@openzeppelin/contracts/token/ERC20/utils/SafeERC20.sol\":1718:1799  _callOptionalReturn(token, abi.encodeCall(token.transferFrom, (from, to, value))) */\n      jump\t// in\n    tag_291:\n        /* \"@openzeppelin/contracts/token/ERC20/utils/SafeERC20.sol\":1618:1806  function safeTransferFrom(IERC20 token, address from, address to, uint256 value) internal {... */\n      pop\n      pop\n      pop\n      pop\n      jump\t// out\n        /* \"@openzeppelin/contracts/utils/ReentrancyGuard.sol\":2888:3096  function _nonReentrantAfter() private {... */\n    tag_217:\n        /* \"@openzeppelin/contracts/utils/ReentrancyGuard.sol\":1857:1858  1 */\n      0x01\n        /* \"@openzeppelin/contracts/utils/ReentrancyGuard.sol\":3068:3075  _status */\n      dup1\n        /* \"@openzeppelin/contracts/utils/ReentrancyGuard.sol\":3068:3089  _status = NOT_ENTERED */\n      dup2\n      swap1\n      sstore\n      pop\n        /* \"@openzeppelin/contracts/utils/ReentrancyGuard.sol\":2888:3096  function _nonReentrantAfter() private {... */\n      jump\t// out\n        /* \"@openzeppelin/contracts/token/ERC20/utils/SafeERC20.sol\":1219:1379  function safeTransfer(IERC20 token, address to, uint256 value) internal {... */\n    tag_232:\n        /* \"@openzeppelin/contracts/token/ERC20/utils/SafeERC20.sol\":1301:1372  _callOptionalReturn(token, abi.encodeCall(token.transfer, (to, value))) */\n      tag_297\n        /* \"@openzeppelin/contracts/token/ERC20/utils/SafeERC20.sol\":1321:1326  token */\n      dup4\n        /* \"@openzeppelin/contracts/token/ERC20/utils/SafeERC20.sol\":1343:1348  token */\n      dup5\n        /* \"@openzeppelin/contracts/token/ERC20/utils/SafeERC20.sol\":1343:1357  token.transfer */\n      0xffffffffffffffffffffffffffffffffffffffff\n      and\n      0xa9059cbb\n        /* \"@openzeppelin/contracts/token/ERC20/utils/SafeERC20.sol\":1360:1362  to */\n      dup6\n        /* \"@openzeppelin/contracts/token/ERC20/utils/SafeERC20.sol\":1364:1369  value */\n      dup6\n        /* \"@openzeppelin/contracts/token/ERC20/utils/SafeERC20.sol\":1328:1371  abi.encodeCall(token.transfer, (to, value)) */\n      add(0x24, mload(0x40))\n      tag_298\n      swap3\n      swap2\n      swap1\n      tag_144\n      jump\t// in\n    tag_298:\n      mload(0x40)\n      0x20\n      dup2\n      dup4\n      sub\n      sub\n      dup2\n      mstore\n      swap1\n      0x40\n      mstore\n      swap2\n      pop\n      0xe0\n      shl\n      0x20\n      dup3\n      add\n      dup1\n      mload\n      0xffffffffffffffffffffffffffffffffffffffffffffffffffffffff\n      dup4\n      dup2\n      dup4\n      and\n      or\n      dup4\n      mstore\n      pop\n      pop\n      pop\n      pop\n        /* \"@openzeppelin/contracts/token/ERC20/utils/SafeERC20.sol\":1301:1320  _callOptionalReturn */\n      tag_294\n        /* \"@openzeppelin/contracts/token/ERC20/utils/SafeERC20.sol\":1301:1372  _callOptionalReturn(token, abi.encodeCall(token.transfer, (to, value))) */\n      jump\t// in\n    tag_297:\n        /* \"@openzeppelin/contracts/token/ERC20/utils/SafeERC20.sol\":1219:1379  function safeTransfer(IERC20 token, address to, uint256 value) internal {... */\n      pop\n      pop\n      pop\n      jump\t// out\n        /* \"@openzeppelin/contracts/access/Ownable.sol\":1796:1958  function _checkOwner() internal view virtual {... */\n    tag_236:\n        /* \"@openzeppelin/contracts/access/Ownable.sol\":1866:1878  _msgSender() */\n      tag_300\n        /* \"@openzeppelin/contracts/access/Ownable.sol\":1866:1876  _msgSender */\n      tag_301\n        /* \"@openzeppelin/contracts/access/Ownable.sol\":1866:1878  _msgSender() */\n      jump\t// in\n    tag_300:\n        /* \"@openzeppelin/contracts/access/Ownable.sol\":1855:1878  owner() != _msgSender() */\n      0xffffffffffffffffffffffffffffffffffffffff\n      and\n        /* \"@openzeppelin/contracts/access/Ownable.sol\":1855:1862  owner() */\n      tag_302\n        /* \"@openzeppelin/contracts/access/Ownable.sol\":1855:1860  owner */\n      tag_76\n        /* \"@openzeppelin/contracts/access/Ownable.sol\":1855:1862  owner() */\n      jump\t// in\n    tag_302:\n        /* \"@openzeppelin/contracts/access/Ownable.sol\":1855:1878  owner() != _msgSender() */\n      0xffffffffffffffffffffffffffffffffffffffff\n      and\n      eq\n        /* \"@openzeppelin/contracts/access/Ownable.sol\":1851:1952  if (owner() != _msgSender()) {... */\n      tag_303\n      jumpi\n        /* \"@openzeppelin/contracts/access/Ownable.sol\":1928:1940  _msgSender() */\n      tag_304\n        /* \"@openzeppelin/contracts/access/Ownable.sol\":1928:1938  _msgSender */\n      tag_301\n        /* \"@openzeppelin/contracts/access/Ownable.sol\":1928:1940  _msgSender() */\n      jump\t// in\n    tag_304:\n        /* \"@openzeppelin/contracts/access/Ownable.sol\":1901:1941  OwnableUnauthorizedAccount(_msgSender()) */\n      mload(0x40)\n      0x118cdaa700000000000000000000000000000000000000000000000000000000\n      dup2\n      mstore\n      0x04\n      add\n      tag_305\n      swap2\n      swap1\n      tag_55\n      jump\t// in\n    tag_305:\n      mload(0x40)\n      dup1\n      swap2\n      sub\n      swap1\n      revert\n        /* \"@openzeppelin/contracts/access/Ownable.sol\":1851:1952  if (owner() != _msgSender()) {... */\n    tag_303:\n        /* \"@openzeppelin/contracts/access/Ownable.sol\":1796:1958  function _checkOwner() internal view virtual {... */\n      jump\t// out\n        /* \"@openzeppelin/contracts/access/Ownable.sol\":2912:3099  function _transferOwnership(address newOwner) internal virtual {... */\n    tag_239:\n        /* \"@openzeppelin/contracts/access/Ownable.sol\":2985:3001  address oldOwner */\n      0x00\n        /* \"@openzeppelin/contracts/access/Ownable.sol\":3004:3010  _owner */\n      dup1\n      0x00\n      swap1\n      sload\n      swap1\n      0x0100\n      exp\n      swap1\n      div\n      0xffffffffffffffffffffffffffffffffffffffff\n      and\n        /* \"@openzeppelin/contracts/access/Ownable.sol\":2985:3010  address oldOwner = _owner */\n      swap1\n      pop\n        /* \"@openzeppelin/contracts/access/Ownable.sol\":3029:3037  newOwner */\n      dup2\n        /* \"@openzeppelin/contracts/access/Ownable.sol\":3020:3026  _owner */\n      0x00\n      dup1\n        /* \"@openzeppelin/contracts/access/Ownable.sol\":3020:3037  _owner = newOwner */\n      0x0100\n      exp\n      dup2\n      sload\n      dup2\n      0xffffffffffffffffffffffffffffffffffffffff\n      mul\n      not\n      and\n      swap1\n      dup4\n      0xffffffffffffffffffffffffffffffffffffffff\n      and\n      mul\n      or\n      swap1\n      sstore\n      pop\n        /* \"@openzeppelin/contracts/access/Ownable.sol\":3083:3091  newOwner */\n      dup2\n        /* \"@openzeppelin/contracts/access/Ownable.sol\":3052:3092  OwnershipTransferred(oldOwner, newOwner) */\n      0xffffffffffffffffffffffffffffffffffffffff\n      and\n        /* \"@openzeppelin/contracts/access/Ownable.sol\":3073:3081  oldOwner */\n      dup2\n        /* \"@openzeppelin/contracts/access/Ownable.sol\":3052:3092  OwnershipTransferred(oldOwner, newOwner) */\n      0xffffffffffffffffffffffffffffffffffffffff\n      and\n      0x8be0079c531659141344cd1fd0a4f28419497f9722a3daafe3b4186f6b6457e0\n      mload(0x40)\n      mload(0x40)\n      dup1\n      swap2\n      sub\n      swap1\n      log3\n        /* \"@openzeppelin/contracts/access/Ownable.sol\":2975:3099  {... */\n      pop\n        /* \"@openzeppelin/contracts/access/Ownable.sol\":2912:3099  function _transferOwnership(address newOwner) internal virtual {... */\n      pop\n      jump\t// out\n        /* \"@openzeppelin/contracts/token/ERC20/utils/SafeERC20.sol\":8370:9090  function _callOptionalReturn(IERC20 token, bytes memory data) private {... */\n    tag_294:\n        /* \"@openzeppelin/contracts/token/ERC20/utils/SafeERC20.sol\":8450:8468  uint256 returnSize */\n      0x00\n        /* \"@openzeppelin/contracts/token/ERC20/utils/SafeERC20.sol\":8478:8497  uint256 returnValue */\n      dup1\n        /* \"@openzeppelin/contracts/token/ERC20/utils/SafeERC20.sol\":8616:8620  0x20 */\n      0x20\n        /* \"@openzeppelin/contracts/token/ERC20/utils/SafeERC20.sol\":8613:8614  0 */\n      0x00\n        /* \"@openzeppelin/contracts/token/ERC20/utils/SafeERC20.sol\":8606:8610  data */\n      dup5\n        /* \"@openzeppelin/contracts/token/ERC20/utils/SafeERC20.sol\":8600:8611  mload(data) */\n      mload\n        /* \"@openzeppelin/contracts/token/ERC20/utils/SafeERC20.sol\":8593:8597  0x20 */\n      0x20\n        /* \"@openzeppelin/contracts/token/ERC20/utils/SafeERC20.sol\":8587:8591  data */\n      dup7\n        /* \"@openzeppelin/contracts/token/ERC20/utils/SafeERC20.sol\":8583:8598  add(data, 0x20) */\n      add\n        /* \"@openzeppelin/contracts/token/ERC20/utils/SafeERC20.sol\":8580:8581  0 */\n      0x00\n        /* \"@openzeppelin/contracts/token/ERC20/utils/SafeERC20.sol\":8573:8578  token */\n      dup9\n        /* \"@openzeppelin/contracts/token/ERC20/utils/SafeERC20.sol\":8566:8571  gas() */\n      gas\n        /* \"@openzeppelin/contracts/token/ERC20/utils/SafeERC20.sol\":8561:8621  call(gas(), token, 0, add(data, 0x20), mload(data), 0, 0x20) */\n      call\n        /* \"@openzeppelin/contracts/token/ERC20/utils/SafeERC20.sol\":8673:8680  success */\n      dup1\n        /* \"@openzeppelin/contracts/token/ERC20/utils/SafeERC20.sol\":8663:8839  if iszero(success) {... */\n      tag_308\n      jumpi\n        /* \"@openzeppelin/contracts/token/ERC20/utils/SafeERC20.sol\":8717:8721  0x40 */\n      0x40\n        /* \"@openzeppelin/contracts/token/ERC20/utils/SafeERC20.sol\":8711:8722  mload(0x40) */\n      mload\n        /* \"@openzeppelin/contracts/token/ERC20/utils/SafeERC20.sol\":8762:8778  returndatasize() */\n      returndatasize\n        /* \"@openzeppelin/contracts/token/ERC20/utils/SafeERC20.sol\":8759:8760  0 */\n      0x00\n        /* \"@openzeppelin/contracts/token/ERC20/utils/SafeERC20.sol\":8754:8757  ptr */\n      dup3\n        /* \"@openzeppelin/contracts/token/ERC20/utils/SafeERC20.sol\":8739:8779  returndatacopy(ptr, 0, returndatasize()) */\n      returndatacopy\n        /* \"@openzeppelin/contracts/token/ERC20/utils/SafeERC20.sol\":8808:8824  returndatasize() */\n      returndatasize\n        /* \"@openzeppelin/contracts/token/ERC20/utils/SafeERC20.sol\":8803:8806  ptr */\n      dup2\n        /* \"@openzeppelin/contracts/token/ERC20/utils/SafeERC20.sol\":8796:8825  revert(ptr, returndatasize()) */\n      revert\n        /* \"@openzeppelin/contracts/token/ERC20/utils/SafeERC20.sol\":8663:8839  if iszero(success) {... */\n    tag_308:\n        /* \"@openzeppelin/contracts/token/ERC20/utils/SafeERC20.sol\":8866:8882  returndatasize() */\n      returndatasize\n        /* \"@openzeppelin/contracts/token/ERC20/utils/SafeERC20.sol\":8852:8882  returnSize := returndatasize() */\n      swap3\n      pop\n        /* \"@openzeppelin/contracts/token/ERC20/utils/SafeERC20.sol\":8916:8917  0 */\n      0x00\n        /* \"@openzeppelin/contracts/token/ERC20/utils/SafeERC20.sol\":8910:8918  mload(0) */\n      mload\n        /* \"@openzeppelin/contracts/token/ERC20/utils/SafeERC20.sol\":8895:8918  returnValue := mload(0) */\n      swap2\n      pop\n        /* \"@openzeppelin/contracts/token/ERC20/utils/SafeERC20.sol\":8532:8928  {... */\n      pop\n        /* \"@openzeppelin/contracts/token/ERC20/utils/SafeERC20.sol\":8956:8957  0 */\n      0x00\n        /* \"@openzeppelin/contracts/token/ERC20/utils/SafeERC20.sol\":8942:8952  returnSize */\n      dup3\n        /* \"@openzeppelin/contracts/token/ERC20/utils/SafeERC20.sol\":8942:8957  returnSize == 0 */\n      eq\n        /* \"@openzeppelin/contracts/token/ERC20/utils/SafeERC20.sol\":8942:9010  returnSize == 0 ? address(token).code.length == 0 : returnValue != 1 */\n      tag_309\n      jumpi\n        /* \"@openzeppelin/contracts/token/ERC20/utils/SafeERC20.sol\":9009:9010  1 */\n      0x01\n        /* \"@openzeppelin/contracts/token/ERC20/utils/SafeERC20.sol\":8994:9005  returnValue */\n      dup2\n        /* \"@openzeppelin/contracts/token/ERC20/utils/SafeERC20.sol\":8994:9010  returnValue != 1 */\n      eq\n      iszero\n        /* \"@openzeppelin/contracts/token/ERC20/utils/SafeERC20.sol\":8942:9010  returnSize == 0 ? address(token).code.length == 0 : returnValue != 1 */\n      jump(tag_310)\n    tag_309:\n        /* \"@openzeppelin/contracts/token/ERC20/utils/SafeERC20.sol\":8990:8991  0 */\n      0x00\n        /* \"@openzeppelin/contracts/token/ERC20/utils/SafeERC20.sol\":8968:8973  token */\n      dup5\n        /* \"@openzeppelin/contracts/token/ERC20/utils/SafeERC20.sol\":8960:8986  address(token).code.length */\n      0xffffffffffffffffffffffffffffffffffffffff\n      and\n      extcodesize\n        /* \"@openzeppelin/contracts/token/ERC20/utils/SafeERC20.sol\":8960:8991  address(token).code.length == 0 */\n      eq\n        /* \"@openzeppelin/contracts/token/ERC20/utils/SafeERC20.sol\":8942:9010  returnSize == 0 ? address(token).code.length == 0 : returnValue != 1 */\n    tag_310:\n        /* \"@openzeppelin/contracts/token/ERC20/utils/SafeERC20.sol\":8938:9084  if (returnSize == 0 ? address(token).code.length == 0 : returnValue != 1) {... */\n      iszero\n      tag_311\n      jumpi\n        /* \"@openzeppelin/contracts/token/ERC20/utils/SafeERC20.sol\":9066:9071  token */\n      dup4\n        /* \"@openzeppelin/contracts/token/ERC20/utils/SafeERC20.sol\":9033:9073  SafeERC20FailedOperation(address(token)) */\n      mload(0x40)\n      0x5274afe700000000000000000000000000000000000000000000000000000000\n      dup2\n      mstore\n      0x04\n      add\n      tag_312\n      swap2\n      swap1\n      tag_55\n      jump\t// in\n    tag_312:\n      mload(0x40)\n      dup1\n      swap2\n      sub\n      swap1\n      revert\n        /* \"@openzeppelin/contracts/token/ERC20/utils/SafeERC20.sol\":8938:9084  if (returnSize == 0 ? address(token).code.length == 0 : returnValue != 1) {... */\n    tag_311:\n        /* \"@openzeppelin/contracts/token/ERC20/utils/SafeERC20.sol\":8440:9090  {... */\n      pop\n      pop\n        /* \"@openzeppelin/contracts/token/ERC20/utils/SafeERC20.sol\":8370:9090  function _callOptionalReturn(IERC20 token, bytes memory data) private {... */\n      pop\n      pop\n      jump\t// out\n        /* \"@openzeppelin/contracts/utils/Context.sol\":656:752  function _msgSender() internal view virtual returns (address) {... */\n    tag_301:\n        /* \"@openzeppelin/contracts/utils/Context.sol\":709:716  address */\n      0x00\n        /* \"@openzeppelin/contracts/utils/Context.sol\":735:745  msg.sender */\n      caller\n        /* \"@openzeppelin/contracts/utils/Context.sol\":728:745  return msg.sender */\n      swap1\n      pop\n        /* \"@openzeppelin/contracts/utils/Context.sol\":656:752  function _msgSender() internal view virtual returns (address) {... */\n      swap1\n      jump\t// out\n        /* \"#utility.yul\":7:175   */\n    tag_314:\n        /* \"#utility.yul\":90:101   */\n      0x00\n        /* \"#utility.yul\":124:130   */\n      dup3\n        /* \"#utility.yul\":119:122   */\n      dup3\n        /* \"#utility.yul\":112:131   */\n      mstore\n        /* \"#utility.yul\":164:168   */\n      0x20\n        /* \"#utility.yul\":159:162   */\n      dup3\n        /* \"#utility.yul\":155:169   */\n      add\n        /* \"#utility.yul\":140:169   */\n      swap1\n      pop\n        /* \"#utility.yul\":7:175   */\n      swap3\n      swap2\n      pop\n      pop\n      jump\t// out\n        /* \"#utility.yul\":181:415   */\n    tag_315:\n        /* \"#utility.yul\":321:355   */\n      0x4f7065726174696f6e20646f6573206e6f7420657869737473206f7220646174\n        /* \"#utility.yul\":317:318   */\n      0x00\n        /* \"#utility.yul\":309:315   */\n      dup3\n        /* \"#utility.yul\":305:319   */\n      add\n        /* \"#utility.yul\":298:356   */\n      mstore\n        /* \"#utility.yul\":390:407   */\n      0x612077617320696e636f72726563740000000000000000000000000000000000\n        /* \"#utility.yul\":385:387   */\n      0x20\n        /* \"#utility.yul\":377:383   */\n      dup3\n        /* \"#utility.yul\":373:388   */\n      add\n        /* \"#utility.yul\":366:408   */\n      mstore\n        /* \"#utility.yul\":181:415   */\n      pop\n      jump\t// out\n        /* \"#utility.yul\":421:785   */\n    tag_316:\n        /* \"#utility.yul\":562:565   */\n      0x00\n        /* \"#utility.yul\":583:649   */\n      tag_376\n        /* \"#utility.yul\":646:648   */\n      0x2f\n        /* \"#utility.yul\":641:644   */\n      dup4\n        /* \"#utility.yul\":583:649   */\n      tag_314\n      jump\t// in\n    tag_376:\n        /* \"#utility.yul\":576:649   */\n      swap2\n      pop\n        /* \"#utility.yul\":658:751   */\n      tag_377\n        /* \"#utility.yul\":747:750   */\n      dup3\n        /* \"#utility.yul\":658:751   */\n      tag_315\n      jump\t// in\n    tag_377:\n        /* \"#utility.yul\":776:778   */\n      0x40\n        /* \"#utility.yul\":771:774   */\n      dup3\n        /* \"#utility.yul\":767:779   */\n      add\n        /* \"#utility.yul\":760:779   */\n      swap1\n      pop\n        /* \"#utility.yul\":421:785   */\n      swap2\n      swap1\n      pop\n      jump\t// out\n        /* \"#utility.yul\":791:1208   */\n    tag_30:\n        /* \"#utility.yul\":956:960   */\n      0x00\n        /* \"#utility.yul\":994:996   */\n      0x20\n        /* \"#utility.yul\":983:992   */\n      dup3\n        /* \"#utility.yul\":979:997   */\n      add\n        /* \"#utility.yul\":971:997   */\n      swap1\n      pop\n        /* \"#utility.yul\":1043:1052   */\n      dup2\n        /* \"#utility.yul\":1037:1041   */\n      dup2\n        /* \"#utility.yul\":1033:1053   */\n      sub\n        /* \"#utility.yul\":1029:1030   */\n      0x00\n        /* \"#utility.yul\":1018:1027   */\n      dup4\n        /* \"#utility.yul\":1014:1031   */\n      add\n        /* \"#utility.yul\":1007:1054   */\n      mstore\n        /* \"#utility.yul\":1071:1201   */\n      tag_379\n        /* \"#utility.yul\":1196:1200   */\n      dup2\n        /* \"#utility.yul\":1071:1201   */\n      tag_316\n      jump\t// in\n    tag_379:\n        /* \"#utility.yul\":1063:1201   */\n      swap1\n      pop\n        /* \"#utility.yul\":791:1208   */\n      swap2\n      swap1\n      pop\n      jump\t// out\n        /* \"#utility.yul\":1214:1291   */\n    tag_317:\n        /* \"#utility.yul\":1251:1258   */\n      0x00\n        /* \"#utility.yul\":1280:1285   */\n      dup2\n        /* \"#utility.yul\":1269:1285   */\n      swap1\n      pop\n        /* \"#utility.yul\":1214:1291   */\n      swap2\n      swap1\n      pop\n      jump\t// out\n        /* \"#utility.yul\":1297:1415   */\n    tag_318:\n        /* \"#utility.yul\":1384:1408   */\n      tag_382\n        /* \"#utility.yul\":1402:1407   */\n      dup2\n        /* \"#utility.yul\":1384:1408   */\n      tag_317\n      jump\t// in\n    tag_382:\n        /* \"#utility.yul\":1379:1382   */\n      dup3\n        /* \"#utility.yul\":1372:1409   */\n      mstore\n        /* \"#utility.yul\":1297:1415   */\n      pop\n      pop\n      jump\t// out\n        /* \"#utility.yul\":1421:1643   */\n    tag_35:\n        /* \"#utility.yul\":1514:1518   */\n      0x00\n        /* \"#utility.yul\":1552:1554   */\n      0x20\n        /* \"#utility.yul\":1541:1550   */\n      dup3\n        /* \"#utility.yul\":1537:1555   */\n      add\n        /* \"#utility.yul\":1529:1555   */\n      swap1\n      pop\n        /* \"#utility.yul\":1565:1636   */\n      tag_384\n        /* \"#utility.yul\":1633:1634   */\n      0x00\n        /* \"#utility.yul\":1622:1631   */\n      dup4\n        /* \"#utility.yul\":1618:1635   */\n      add\n        /* \"#utility.yul\":1609:1615   */\n      dup5\n        /* \"#utility.yul\":1565:1636   */\n      tag_318\n      jump\t// in\n    tag_384:\n        /* \"#utility.yul\":1421:1643   */\n      swap3\n      swap2\n      pop\n      pop\n      jump\t// out\n        /* \"#utility.yul\":1730:1847   */\n    tag_320:\n        /* \"#utility.yul\":1839:1840   */\n      0x00\n        /* \"#utility.yul\":1836:1837   */\n      dup1\n        /* \"#utility.yul\":1829:1841   */\n      revert\n        /* \"#utility.yul\":1976:2102   */\n    tag_322:\n        /* \"#utility.yul\":2013:2020   */\n      0x00\n        /* \"#utility.yul\":2053:2095   */\n      0xffffffffffffffffffffffffffffffffffffffff\n        /* \"#utility.yul\":2046:2051   */\n      dup3\n        /* \"#utility.yul\":2042:2096   */\n      and\n        /* \"#utility.yul\":2031:2096   */\n      swap1\n      pop\n        /* \"#utility.yul\":1976:2102   */\n      swap2\n      swap1\n      pop\n      jump\t// out\n        /* \"#utility.yul\":2108:2204   */\n    tag_323:\n        /* \"#utility.yul\":2145:2152   */\n      0x00\n        /* \"#utility.yul\":2174:2198   */\n      tag_390\n        /* \"#utility.yul\":2192:2197   */\n      dup3\n        /* \"#utility.yul\":2174:2198   */\n      tag_322\n      jump\t// in\n    tag_390:\n        /* \"#utility.yul\":2163:2198   */\n      swap1\n      pop\n        /* \"#utility.yul\":2108:2204   */\n      swap2\n      swap1\n      pop\n      jump\t// out\n        /* \"#utility.yul\":2210:2332   */\n    tag_324:\n        /* \"#utility.yul\":2283:2307   */\n      tag_392\n        /* \"#utility.yul\":2301:2306   */\n      dup2\n        /* \"#utility.yul\":2283:2307   */\n      tag_323\n      jump\t// in\n    tag_392:\n        /* \"#utility.yul\":2276:2281   */\n      dup2\n        /* \"#utility.yul\":2273:2308   */\n      eq\n        /* \"#utility.yul\":2263:2326   */\n      tag_393\n      jumpi\n        /* \"#utility.yul\":2322:2323   */\n      0x00\n        /* \"#utility.yul\":2319:2320   */\n      dup1\n        /* \"#utility.yul\":2312:2324   */\n      revert\n        /* \"#utility.yul\":2263:2326   */\n    tag_393:\n        /* \"#utility.yul\":2210:2332   */\n      pop\n      jump\t// out\n        /* \"#utility.yul\":2338:2477   */\n    tag_325:\n        /* \"#utility.yul\":2384:2389   */\n      0x00\n        /* \"#utility.yul\":2422:2428   */\n      dup2\n        /* \"#utility.yul\":2409:2429   */\n      calldataload\n        /* \"#utility.yul\":2400:2429   */\n      swap1\n      pop\n        /* \"#utility.yul\":2438:2471   */\n      tag_395\n        /* \"#utility.yul\":2465:2470   */\n      dup2\n        /* \"#utility.yul\":2438:2471   */\n      tag_324\n      jump\t// in\n    tag_395:\n        /* \"#utility.yul\":2338:2477   */\n      swap3\n      swap2\n      pop\n      pop\n      jump\t// out\n        /* \"#utility.yul\":2483:2605   */\n    tag_326:\n        /* \"#utility.yul\":2556:2580   */\n      tag_397\n        /* \"#utility.yul\":2574:2579   */\n      dup2\n        /* \"#utility.yul\":2556:2580   */\n      tag_317\n      jump\t// in\n    tag_397:\n        /* \"#utility.yul\":2549:2554   */\n      dup2\n        /* \"#utility.yul\":2546:2581   */\n      eq\n        /* \"#utility.yul\":2536:2599   */\n      tag_398\n      jumpi\n        /* \"#utility.yul\":2595:2596   */\n      0x00\n        /* \"#utility.yul\":2592:2593   */\n      dup1\n        /* \"#utility.yul\":2585:2597   */\n      revert\n        /* \"#utility.yul\":2536:2599   */\n    tag_398:\n        /* \"#utility.yul\":2483:2605   */\n      pop\n      jump\t// out\n        /* \"#utility.yul\":2611:2750   */\n    tag_327:\n        /* \"#utility.yul\":2657:2662   */\n      0x00\n        /* \"#utility.yul\":2695:2701   */\n      dup2\n        /* \"#utility.yul\":2682:2702   */\n      calldataload\n        /* \"#utility.yul\":2673:2702   */\n      swap1\n      pop\n        /* \"#utility.yul\":2711:2744   */\n      tag_400\n        /* \"#utility.yul\":2738:2743   */\n      dup2\n        /* \"#utility.yul\":2711:2744   */\n      tag_326\n      jump\t// in\n    tag_400:\n        /* \"#utility.yul\":2611:2750   */\n      swap3\n      swap2\n      pop\n      pop\n      jump\t// out\n        /* \"#utility.yul\":2756:3375   */\n    tag_43:\n        /* \"#utility.yul\":2833:2839   */\n      0x00\n        /* \"#utility.yul\":2841:2847   */\n      dup1\n        /* \"#utility.yul\":2849:2855   */\n      0x00\n        /* \"#utility.yul\":2898:2900   */\n      0x60\n        /* \"#utility.yul\":2886:2895   */\n      dup5\n        /* \"#utility.yul\":2877:2884   */\n      dup7\n        /* \"#utility.yul\":2873:2896   */\n      sub\n        /* \"#utility.yul\":2869:2901   */\n      slt\n        /* \"#utility.yul\":2866:2985   */\n      iszero\n      tag_402\n      jumpi\n        /* \"#utility.yul\":2904:2983   */\n      tag_403\n      tag_320\n      jump\t// in\n    tag_403:\n        /* \"#utility.yul\":2866:2985   */\n    tag_402:\n        /* \"#utility.yul\":3024:3025   */\n      0x00\n        /* \"#utility.yul\":3049:3102   */\n      tag_404\n        /* \"#utility.yul\":3094:3101   */\n      dup7\n        /* \"#utility.yul\":3085:3091   */\n      dup3\n        /* \"#utility.yul\":3074:3083   */\n      dup8\n        /* \"#utility.yul\":3070:3092   */\n      add\n        /* \"#utility.yul\":3049:3102   */\n      tag_325\n      jump\t// in\n    tag_404:\n        /* \"#utility.yul\":3039:3102   */\n      swap4\n      pop\n        /* \"#utility.yul\":2995:3112   */\n      pop\n        /* \"#utility.yul\":3151:3153   */\n      0x20\n        /* \"#utility.yul\":3177:3230   */\n      tag_405\n        /* \"#utility.yul\":3222:3229   */\n      dup7\n        /* \"#utility.yul\":3213:3219   */\n      dup3\n        /* \"#utility.yul\":3202:3211   */\n      dup8\n        /* \"#utility.yul\":3198:3220   */\n      add\n        /* \"#utility.yul\":3177:3230   */\n      tag_327\n      jump\t// in\n    tag_405:\n        /* \"#utility.yul\":3167:3230   */\n      swap3\n      pop\n        /* \"#utility.yul\":3122:3240   */\n      pop\n        /* \"#utility.yul\":3279:3281   */\n      0x40\n        /* \"#utility.yul\":3305:3358   */\n      tag_406\n        /* \"#utility.yul\":3350:3357   */\n      dup7\n        /* \"#utility.yul\":3341:3347   */\n      dup3\n        /* \"#utility.yul\":3330:3339   */\n      dup8\n        /* \"#utility.yul\":3326:3348   */\n      add\n        /* \"#utility.yul\":3305:3358   */\n      tag_327\n      jump\t// in\n    tag_406:\n        /* \"#utility.yul\":3295:3358   */\n      swap2\n      pop\n        /* \"#utility.yul\":3250:3368   */\n      pop\n        /* \"#utility.yul\":2756:3375   */\n      swap3\n      pop\n      swap3\n      pop\n      swap3\n      jump\t// out\n        /* \"#utility.yul\":3381:3710   */\n    tag_48:\n        /* \"#utility.yul\":3440:3446   */\n      0x00\n        /* \"#utility.yul\":3489:3491   */\n      0x20\n        /* \"#utility.yul\":3477:3486   */\n      dup3\n        /* \"#utility.yul\":3468:3475   */\n      dup5\n        /* \"#utility.yul\":3464:3487   */\n      sub\n        /* \"#utility.yul\":3460:3492   */\n      slt\n        /* \"#utility.yul\":3457:3576   */\n      iszero\n      tag_408\n      jumpi\n        /* \"#utility.yul\":3495:3574   */\n      tag_409\n      tag_320\n      jump\t// in\n    tag_409:\n        /* \"#utility.yul\":3457:3576   */\n    tag_408:\n        /* \"#utility.yul\":3615:3616   */\n      0x00\n        /* \"#utility.yul\":3640:3693   */\n      tag_410\n        /* \"#utility.yul\":3685:3692   */\n      dup5\n        /* \"#utility.yul\":3676:3682   */\n      dup3\n        /* \"#utility.yul\":3665:3674   */\n      dup6\n        /* \"#utility.yul\":3661:3683   */\n      add\n        /* \"#utility.yul\":3640:3693   */\n      tag_325\n      jump\t// in\n    tag_410:\n        /* \"#utility.yul\":3630:3693   */\n      swap2\n      pop\n        /* \"#utility.yul\":3586:3703   */\n      pop\n        /* \"#utility.yul\":3381:3710   */\n      swap3\n      swap2\n      pop\n      pop\n      jump\t// out\n        /* \"#utility.yul\":3716:3834   */\n    tag_328:\n        /* \"#utility.yul\":3803:3827   */\n      tag_412\n        /* \"#utility.yul\":3821:3826   */\n      dup2\n        /* \"#utility.yul\":3803:3827   */\n      tag_323\n      jump\t// in\n    tag_412:\n        /* \"#utility.yul\":3798:3801   */\n      dup3\n        /* \"#utility.yul\":3791:3828   */\n      mstore\n        /* \"#utility.yul\":3716:3834   */\n      pop\n      pop\n      jump\t// out\n        /* \"#utility.yul\":3840:4062   */\n    tag_55:\n        /* \"#utility.yul\":3933:3937   */\n      0x00\n        /* \"#utility.yul\":3971:3973   */\n      0x20\n        /* \"#utility.yul\":3960:3969   */\n      dup3\n        /* \"#utility.yul\":3956:3974   */\n      add\n        /* \"#utility.yul\":3948:3974   */\n      swap1\n      pop\n        /* \"#utility.yul\":3984:4055   */\n      tag_414\n        /* \"#utility.yul\":4052:4053   */\n      0x00\n        /* \"#utility.yul\":4041:4050   */\n      dup4\n        /* \"#utility.yul\":4037:4054   */\n      add\n        /* \"#utility.yul\":4028:4034   */\n      dup5\n        /* \"#utility.yul\":3984:4055   */\n      tag_328\n      jump\t// in\n    tag_414:\n        /* \"#utility.yul\":3840:4062   */\n      swap3\n      swap2\n      pop\n      pop\n      jump\t// out\n        /* \"#utility.yul\":4068:4397   */\n    tag_59:\n        /* \"#utility.yul\":4127:4133   */\n      0x00\n        /* \"#utility.yul\":4176:4178   */\n      0x20\n        /* \"#utility.yul\":4164:4173   */\n      dup3\n        /* \"#utility.yul\":4155:4162   */\n      dup5\n        /* \"#utility.yul\":4151:4174   */\n      sub\n        /* \"#utility.yul\":4147:4179   */\n      slt\n        /* \"#utility.yul\":4144:4263   */\n      iszero\n      tag_416\n      jumpi\n        /* \"#utility.yul\":4182:4261   */\n      tag_417\n      tag_320\n      jump\t// in\n    tag_417:\n        /* \"#utility.yul\":4144:4263   */\n    tag_416:\n        /* \"#utility.yul\":4302:4303   */\n      0x00\n        /* \"#utility.yul\":4327:4380   */\n      tag_418\n        /* \"#utility.yul\":4372:4379   */\n      dup5\n        /* \"#utility.yul\":4363:4369   */\n      dup3\n        /* \"#utility.yul\":4352:4361   */\n      dup6\n        /* \"#utility.yul\":4348:4370   */\n      add\n        /* \"#utility.yul\":4327:4380   */\n      tag_327\n      jump\t// in\n    tag_418:\n        /* \"#utility.yul\":4317:4380   */\n      swap2\n      pop\n        /* \"#utility.yul\":4273:4390   */\n      pop\n        /* \"#utility.yul\":4068:4397   */\n      swap3\n      swap2\n      pop\n      pop\n      jump\t// out\n        /* \"#utility.yul\":4403:4463   */\n    tag_329:\n        /* \"#utility.yul\":4431:4434   */\n      0x00\n        /* \"#utility.yul\":4452:4457   */\n      dup2\n        /* \"#utility.yul\":4445:4457   */\n      swap1\n      pop\n        /* \"#utility.yul\":4403:4463   */\n      swap2\n      swap1\n      pop\n      jump\t// out\n        /* \"#utility.yul\":4469:4611   */\n    tag_330:\n        /* \"#utility.yul\":4519:4528   */\n      0x00\n        /* \"#utility.yul\":4552:4605   */\n      tag_421\n        /* \"#utility.yul\":4570:4604   */\n      tag_422\n        /* \"#utility.yul\":4579:4603   */\n      tag_423\n        /* \"#utility.yul\":4597:4602   */\n      dup5\n        /* \"#utility.yul\":4579:4603   */\n      tag_322\n      jump\t// in\n    tag_423:\n        /* \"#utility.yul\":4570:4604   */\n      tag_329\n      jump\t// in\n    tag_422:\n        /* \"#utility.yul\":4552:4605   */\n      tag_322\n      jump\t// in\n    tag_421:\n        /* \"#utility.yul\":4539:4605   */\n      swap1\n      pop\n        /* \"#utility.yul\":4469:4611   */\n      swap2\n      swap1\n      pop\n      jump\t// out\n        /* \"#utility.yul\":4617:4743   */\n    tag_331:\n        /* \"#utility.yul\":4667:4676   */\n      0x00\n        /* \"#utility.yul\":4700:4737   */\n      tag_425\n        /* \"#utility.yul\":4731:4736   */\n      dup3\n        /* \"#utility.yul\":4700:4737   */\n      tag_330\n      jump\t// in\n    tag_425:\n        /* \"#utility.yul\":4687:4737   */\n      swap1\n      pop\n        /* \"#utility.yul\":4617:4743   */\n      swap2\n      swap1\n      pop\n      jump\t// out\n        /* \"#utility.yul\":4749:4902   */\n    tag_332:\n        /* \"#utility.yul\":4826:4835   */\n      0x00\n        /* \"#utility.yul\":4859:4896   */\n      tag_427\n        /* \"#utility.yul\":4890:4895   */\n      dup3\n        /* \"#utility.yul\":4859:4896   */\n      tag_331\n      jump\t// in\n    tag_427:\n        /* \"#utility.yul\":4846:4896   */\n      swap1\n      pop\n        /* \"#utility.yul\":4749:4902   */\n      swap2\n      swap1\n      pop\n      jump\t// out\n        /* \"#utility.yul\":4908:5093   */\n    tag_333:\n        /* \"#utility.yul\":5022:5086   */\n      tag_429\n        /* \"#utility.yul\":5080:5085   */\n      dup2\n        /* \"#utility.yul\":5022:5086   */\n      tag_332\n      jump\t// in\n    tag_429:\n        /* \"#utility.yul\":5017:5020   */\n      dup3\n        /* \"#utility.yul\":5010:5087   */\n      mstore\n        /* \"#utility.yul\":4908:5093   */\n      pop\n      pop\n      jump\t// out\n        /* \"#utility.yul\":5099:5375   */\n    tag_68:\n        /* \"#utility.yul\":5219:5223   */\n      0x00\n        /* \"#utility.yul\":5257:5259   */\n      0x20\n        /* \"#utility.yul\":5246:5255   */\n      dup3\n        /* \"#utility.yul\":5242:5260   */\n      add\n        /* \"#utility.yul\":5234:5260   */\n      swap1\n      pop\n        /* \"#utility.yul\":5270:5368   */\n      tag_431\n        /* \"#utility.yul\":5365:5366   */\n      0x00\n        /* \"#utility.yul\":5354:5363   */\n      dup4\n        /* \"#utility.yul\":5350:5367   */\n      add\n        /* \"#utility.yul\":5341:5347   */\n      dup5\n        /* \"#utility.yul\":5270:5368   */\n      tag_333\n      jump\t// in\n    tag_431:\n        /* \"#utility.yul\":5099:5375   */\n      swap3\n      swap2\n      pop\n      pop\n      jump\t// out\n        /* \"#utility.yul\":5381:5532   */\n    tag_334:\n        /* \"#utility.yul\":5456:5465   */\n      0x00\n        /* \"#utility.yul\":5489:5526   */\n      tag_433\n        /* \"#utility.yul\":5520:5525   */\n      dup3\n        /* \"#utility.yul\":5489:5526   */\n      tag_331\n      jump\t// in\n    tag_433:\n        /* \"#utility.yul\":5476:5526   */\n      swap1\n      pop\n        /* \"#utility.yul\":5381:5532   */\n      swap2\n      swap1\n      pop\n      jump\t// out\n        /* \"#utility.yul\":5538:5719   */\n    tag_335:\n        /* \"#utility.yul\":5650:5712   */\n      tag_435\n        /* \"#utility.yul\":5706:5711   */\n      dup2\n        /* \"#utility.yul\":5650:5712   */\n      tag_334\n      jump\t// in\n    tag_435:\n        /* \"#utility.yul\":5645:5648   */\n      dup3\n        /* \"#utility.yul\":5638:5713   */\n      mstore\n        /* \"#utility.yul\":5538:5719   */\n      pop\n      pop\n      jump\t// out\n        /* \"#utility.yul\":5725:5997   */\n    tag_73:\n        /* \"#utility.yul\":5843:5847   */\n      0x00\n        /* \"#utility.yul\":5881:5883   */\n      0x20\n        /* \"#utility.yul\":5870:5879   */\n      dup3\n        /* \"#utility.yul\":5866:5884   */\n      add\n        /* \"#utility.yul\":5858:5884   */\n      swap1\n      pop\n        /* \"#utility.yul\":5894:5990   */\n      tag_437\n        /* \"#utility.yul\":5987:5988   */\n      0x00\n        /* \"#utility.yul\":5976:5985   */\n      dup4\n        /* \"#utility.yul\":5972:5989   */\n      add\n        /* \"#utility.yul\":5963:5969   */\n      dup5\n        /* \"#utility.yul\":5894:5990   */\n      tag_335\n      jump\t// in\n    tag_437:\n        /* \"#utility.yul\":5725:5997   */\n      swap3\n      swap2\n      pop\n      pop\n      jump\t// out\n        /* \"#utility.yul\":6003:6477   */\n    tag_81:\n        /* \"#utility.yul\":6071:6077   */\n      0x00\n        /* \"#utility.yul\":6079:6085   */\n      dup1\n        /* \"#utility.yul\":6128:6130   */\n      0x40\n        /* \"#utility.yul\":6116:6125   */\n      dup4\n        /* \"#utility.yul\":6107:6114   */\n      dup6\n        /* \"#utility.yul\":6103:6126   */\n      sub\n        /* \"#utility.yul\":6099:6131   */\n      slt\n        /* \"#utility.yul\":6096:6215   */\n      iszero\n      tag_439\n      jumpi\n        /* \"#utility.yul\":6134:6213   */\n      tag_440\n      tag_320\n      jump\t// in\n    tag_440:\n        /* \"#utility.yul\":6096:6215   */\n    tag_439:\n        /* \"#utility.yul\":6254:6255   */\n      0x00\n        /* \"#utility.yul\":6279:6332   */\n      tag_441\n        /* \"#utility.yul\":6324:6331   */\n      dup6\n        /* \"#utility.yul\":6315:6321   */\n      dup3\n        /* \"#utility.yul\":6304:6313   */\n      dup7\n        /* \"#utility.yul\":6300:6322   */\n      add\n        /* \"#utility.yul\":6279:6332   */\n      tag_327\n      jump\t// in\n    tag_441:\n        /* \"#utility.yul\":6269:6332   */\n      swap3\n      pop\n        /* \"#utility.yul\":6225:6342   */\n      pop\n        /* \"#utility.yul\":6381:6383   */\n      0x20\n        /* \"#utility.yul\":6407:6460   */\n      tag_442\n        /* \"#utility.yul\":6452:6459   */\n      dup6\n        /* \"#utility.yul\":6443:6449   */\n      dup3\n        /* \"#utility.yul\":6432:6441   */\n      dup7\n        /* \"#utility.yul\":6428:6450   */\n      add\n        /* \"#utility.yul\":6407:6460   */\n      tag_325\n      jump\t// in\n    tag_442:\n        /* \"#utility.yul\":6397:6460   */\n      swap2\n      pop\n        /* \"#utility.yul\":6352:6470   */\n      pop\n        /* \"#utility.yul\":6003:6477   */\n      swap3\n      pop\n      swap3\n      swap1\n      pop\n      jump\t// out\n        /* \"#utility.yul\":6483:6623   */\n    tag_336:\n        /* \"#utility.yul\":6547:6556   */\n      0x00\n        /* \"#utility.yul\":6580:6617   */\n      tag_444\n        /* \"#utility.yul\":6611:6616   */\n      dup3\n        /* \"#utility.yul\":6580:6617   */\n      tag_331\n      jump\t// in\n    tag_444:\n        /* \"#utility.yul\":6567:6617   */\n      swap1\n      pop\n        /* \"#utility.yul\":6483:6623   */\n      swap2\n      swap1\n      pop\n      jump\t// out\n        /* \"#utility.yul\":6629:6788   */\n    tag_337:\n        /* \"#utility.yul\":6730:6781   */\n      tag_446\n        /* \"#utility.yul\":6775:6780   */\n      dup2\n        /* \"#utility.yul\":6730:6781   */\n      tag_336\n      jump\t// in\n    tag_446:\n        /* \"#utility.yul\":6725:6728   */\n      dup3\n        /* \"#utility.yul\":6718:6782   */\n      mstore\n        /* \"#utility.yul\":6629:6788   */\n      pop\n      pop\n      jump\t// out\n        /* \"#utility.yul\":6794:7044   */\n    tag_101:\n        /* \"#utility.yul\":6901:6905   */\n      0x00\n        /* \"#utility.yul\":6939:6941   */\n      0x20\n        /* \"#utility.yul\":6928:6937   */\n      dup3\n        /* \"#utility.yul\":6924:6942   */\n      add\n        /* \"#utility.yul\":6916:6942   */\n      swap1\n      pop\n        /* \"#utility.yul\":6952:7037   */\n      tag_448\n        /* \"#utility.yul\":7034:7035   */\n      0x00\n        /* \"#utility.yul\":7023:7032   */\n      dup4\n        /* \"#utility.yul\":7019:7036   */\n      add\n        /* \"#utility.yul\":7010:7016   */\n      dup5\n        /* \"#utility.yul\":6952:7037   */\n      tag_337\n      jump\t// in\n    tag_448:\n        /* \"#utility.yul\":6794:7044   */\n      swap3\n      swap2\n      pop\n      pop\n      jump\t// out\n        /* \"#utility.yul\":7050:7193   */\n    tag_338:\n        /* \"#utility.yul\":7107:7112   */\n      0x00\n        /* \"#utility.yul\":7138:7144   */\n      dup2\n        /* \"#utility.yul\":7132:7145   */\n      mload\n        /* \"#utility.yul\":7123:7145   */\n      swap1\n      pop\n        /* \"#utility.yul\":7154:7187   */\n      tag_450\n        /* \"#utility.yul\":7181:7186   */\n      dup2\n        /* \"#utility.yul\":7154:7187   */\n      tag_326\n      jump\t// in\n    tag_450:\n        /* \"#utility.yul\":7050:7193   */\n      swap3\n      swap2\n      pop\n      pop\n      jump\t// out\n        /* \"#utility.yul\":7199:7550   */\n    tag_109:\n        /* \"#utility.yul\":7269:7275   */\n      0x00\n        /* \"#utility.yul\":7318:7320   */\n      0x20\n        /* \"#utility.yul\":7306:7315   */\n      dup3\n        /* \"#utility.yul\":7297:7304   */\n      dup5\n        /* \"#utility.yul\":7293:7316   */\n      sub\n        /* \"#utility.yul\":7289:7321   */\n      slt\n        /* \"#utility.yul\":7286:7405   */\n      iszero\n      tag_452\n      jumpi\n        /* \"#utility.yul\":7324:7403   */\n      tag_453\n      tag_320\n      jump\t// in\n    tag_453:\n        /* \"#utility.yul\":7286:7405   */\n    tag_452:\n        /* \"#utility.yul\":7444:7445   */\n      0x00\n        /* \"#utility.yul\":7469:7533   */\n      tag_454\n        /* \"#utility.yul\":7525:7532   */\n      dup5\n        /* \"#utility.yul\":7516:7522   */\n      dup3\n        /* \"#utility.yul\":7505:7514   */\n      dup6\n        /* \"#utility.yul\":7501:7523   */\n      add\n        /* \"#utility.yul\":7469:7533   */\n      tag_338\n      jump\t// in\n    tag_454:\n        /* \"#utility.yul\":7459:7533   */\n      swap2\n      pop\n        /* \"#utility.yul\":7415:7543   */\n      pop\n        /* \"#utility.yul\":7199:7550   */\n      swap3\n      swap2\n      pop\n      pop\n      jump\t// out\n        /* \"#utility.yul\":7556:7736   */\n    tag_339:\n        /* \"#utility.yul\":7604:7681   */\n      0x4e487b7100000000000000000000000000000000000000000000000000000000\n        /* \"#utility.yul\":7601:7602   */\n      0x00\n        /* \"#utility.yul\":7594:7682   */\n      mstore\n        /* \"#utility.yul\":7701:7705   */\n      0x11\n        /* \"#utility.yul\":7698:7699   */\n      0x04\n        /* \"#utility.yul\":7691:7706   */\n      mstore\n        /* \"#utility.yul\":7725:7729   */\n      0x24\n        /* \"#utility.yul\":7722:7723   */\n      0x00\n        /* \"#utility.yul\":7715:7730   */\n      revert\n        /* \"#utility.yul\":7742:7933   */\n    tag_111:\n        /* \"#utility.yul\":7782:7785   */\n      0x00\n        /* \"#utility.yul\":7801:7821   */\n      tag_457\n        /* \"#utility.yul\":7819:7820   */\n      dup3\n        /* \"#utility.yul\":7801:7821   */\n      tag_317\n      jump\t// in\n    tag_457:\n        /* \"#utility.yul\":7796:7821   */\n      swap2\n      pop\n        /* \"#utility.yul\":7835:7855   */\n      tag_458\n        /* \"#utility.yul\":7853:7854   */\n      dup4\n        /* \"#utility.yul\":7835:7855   */\n      tag_317\n      jump\t// in\n    tag_458:\n        /* \"#utility.yul\":7830:7855   */\n      swap3\n      pop\n        /* \"#utility.yul\":7878:7879   */\n      dup3\n        /* \"#utility.yul\":7875:7876   */\n      dup3\n        /* \"#utility.yul\":7871:7880   */\n      add\n        /* \"#utility.yul\":7864:7880   */\n      swap1\n      pop\n        /* \"#utility.yul\":7899:7902   */\n      dup1\n        /* \"#utility.yul\":7896:7897   */\n      dup3\n        /* \"#utility.yul\":7893:7903   */\n      gt\n        /* \"#utility.yul\":7890:7926   */\n      iszero\n      tag_459\n      jumpi\n        /* \"#utility.yul\":7906:7924   */\n      tag_460\n      tag_339\n      jump\t// in\n    tag_460:\n        /* \"#utility.yul\":7890:7926   */\n    tag_459:\n        /* \"#utility.yul\":7742:7933   */\n      swap3\n      swap2\n      pop\n      pop\n      jump\t// out\n        /* \"#utility.yul\":7939:8120   */\n    tag_340:\n        /* \"#utility.yul\":8079:8112   */\n      0x546f74616c204b69707542616e6b27732066756e647320657863656564656400\n        /* \"#utility.yul\":8075:8076   */\n      0x00\n        /* \"#utility.yul\":8067:8073   */\n      dup3\n        /* \"#utility.yul\":8063:8077   */\n      add\n        /* \"#utility.yul\":8056:8113   */\n      mstore\n        /* \"#utility.yul\":7939:8120   */\n      pop\n      jump\t// out\n        /* \"#utility.yul\":8126:8490   */\n    tag_341:\n        /* \"#utility.yul\":8267:8270   */\n      0x00\n        /* \"#utility.yul\":8288:8354   */\n      tag_463\n        /* \"#utility.yul\":8351:8353   */\n      0x1f\n        /* \"#utility.yul\":8346:8349   */\n      dup4\n        /* \"#utility.yul\":8288:8354   */\n      tag_314\n      jump\t// in\n    tag_463:\n        /* \"#utility.yul\":8281:8354   */\n      swap2\n      pop\n        /* \"#utility.yul\":8363:8456   */\n      tag_464\n        /* \"#utility.yul\":8452:8455   */\n      dup3\n        /* \"#utility.yul\":8363:8456   */\n      tag_340\n      jump\t// in\n    tag_464:\n        /* \"#utility.yul\":8481:8483   */\n      0x20\n        /* \"#utility.yul\":8476:8479   */\n      dup3\n        /* \"#utility.yul\":8472:8484   */\n      add\n        /* \"#utility.yul\":8465:8484   */\n      swap1\n      pop\n        /* \"#utility.yul\":8126:8490   */\n      swap2\n      swap1\n      pop\n      jump\t// out\n        /* \"#utility.yul\":8496:8913   */\n    tag_114:\n        /* \"#utility.yul\":8661:8665   */\n      0x00\n        /* \"#utility.yul\":8699:8701   */\n      0x20\n        /* \"#utility.yul\":8688:8697   */\n      dup3\n        /* \"#utility.yul\":8684:8702   */\n      add\n        /* \"#utility.yul\":8676:8702   */\n      swap1\n      pop\n        /* \"#utility.yul\":8748:8757   */\n      dup2\n        /* \"#utility.yul\":8742:8746   */\n      dup2\n        /* \"#utility.yul\":8738:8758   */\n      sub\n        /* \"#utility.yul\":8734:8735   */\n      0x00\n        /* \"#utility.yul\":8723:8732   */\n      dup4\n        /* \"#utility.yul\":8719:8736   */\n      add\n        /* \"#utility.yul\":8712:8759   */\n      mstore\n        /* \"#utility.yul\":8776:8906   */\n      tag_466\n        /* \"#utility.yul\":8901:8905   */\n      dup2\n        /* \"#utility.yul\":8776:8906   */\n      tag_341\n      jump\t// in\n    tag_466:\n        /* \"#utility.yul\":8768:8906   */\n      swap1\n      pop\n        /* \"#utility.yul\":8496:8913   */\n      swap2\n      swap1\n      pop\n      jump\t// out\n        /* \"#utility.yul\":8919:9099   */\n    tag_342:\n        /* \"#utility.yul\":8967:9044   */\n      0x4e487b7100000000000000000000000000000000000000000000000000000000\n        /* \"#utility.yul\":8964:8965   */\n      0x00\n        /* \"#utility.yul\":8957:9045   */\n      mstore\n        /* \"#utility.yul\":9064:9068   */\n      0x12\n        /* \"#utility.yul\":9061:9062   */\n      0x04\n        /* \"#utility.yul\":9054:9069   */\n      mstore\n        /* \"#utility.yul\":9088:9092   */\n      0x24\n        /* \"#utility.yul\":9085:9086   */\n      0x00\n        /* \"#utility.yul\":9078:9093   */\n      revert\n        /* \"#utility.yul\":9105:9290   */\n    tag_122:\n        /* \"#utility.yul\":9145:9146   */\n      0x00\n        /* \"#utility.yul\":9162:9182   */\n      tag_469\n        /* \"#utility.yul\":9180:9181   */\n      dup3\n        /* \"#utility.yul\":9162:9182   */\n      tag_317\n      jump\t// in\n    tag_469:\n        /* \"#utility.yul\":9157:9182   */\n      swap2\n      pop\n        /* \"#utility.yul\":9196:9216   */\n      tag_470\n        /* \"#utility.yul\":9214:9215   */\n      dup4\n        /* \"#utility.yul\":9196:9216   */\n      tag_317\n      jump\t// in\n    tag_470:\n        /* \"#utility.yul\":9191:9216   */\n      swap3\n      pop\n        /* \"#utility.yul\":9235:9236   */\n      dup3\n        /* \"#utility.yul\":9225:9260   */\n      tag_471\n      jumpi\n        /* \"#utility.yul\":9240:9258   */\n      tag_472\n      tag_342\n      jump\t// in\n    tag_472:\n        /* \"#utility.yul\":9225:9260   */\n    tag_471:\n        /* \"#utility.yul\":9282:9283   */\n      dup3\n        /* \"#utility.yul\":9279:9280   */\n      dup3\n        /* \"#utility.yul\":9275:9284   */\n      div\n        /* \"#utility.yul\":9270:9284   */\n      swap1\n      pop\n        /* \"#utility.yul\":9105:9290   */\n      swap3\n      swap2\n      pop\n      pop\n      jump\t// out\n        /* \"#utility.yul\":9296:9476   */\n    tag_125:\n        /* \"#utility.yul\":9344:9421   */\n      0x4e487b7100000000000000000000000000000000000000000000000000000000\n        /* \"#utility.yul\":9341:9342   */\n      0x00\n        /* \"#utility.yul\":9334:9422   */\n      mstore\n        /* \"#utility.yul\":9441:9445   */\n      0x32\n        /* \"#utility.yul\":9438:9439   */\n      0x04\n        /* \"#utility.yul\":9431:9446   */\n      mstore\n        /* \"#utility.yul\":9465:9469   */\n      0x24\n        /* \"#utility.yul\":9462:9463   */\n      0x00\n        /* \"#utility.yul\":9455:9470   */\n      revert\n        /* \"#utility.yul\":9482:9596   */\n    tag_343:\n        /* \"#utility.yul\":9549:9555   */\n      0x00\n        /* \"#utility.yul\":9583:9588   */\n      dup2\n        /* \"#utility.yul\":9577:9589   */\n      mload\n        /* \"#utility.yul\":9567:9589   */\n      swap1\n      pop\n        /* \"#utility.yul\":9482:9596   */\n      swap2\n      swap1\n      pop\n      jump\t// out\n        /* \"#utility.yul\":9602:9786   */\n    tag_344:\n        /* \"#utility.yul\":9701:9712   */\n      0x00\n        /* \"#utility.yul\":9735:9741   */\n      dup3\n        /* \"#utility.yul\":9730:9733   */\n      dup3\n        /* \"#utility.yul\":9723:9742   */\n      mstore\n        /* \"#utility.yul\":9775:9779   */\n      0x20\n        /* \"#utility.yul\":9770:9773   */\n      dup3\n        /* \"#utility.yul\":9766:9780   */\n      add\n        /* \"#utility.yul\":9751:9780   */\n      swap1\n      pop\n        /* \"#utility.yul\":9602:9786   */\n      swap3\n      swap2\n      pop\n      pop\n      jump\t// out\n        /* \"#utility.yul\":9792:9924   */\n    tag_345:\n        /* \"#utility.yul\":9859:9863   */\n      0x00\n        /* \"#utility.yul\":9882:9885   */\n      dup2\n        /* \"#utility.yul\":9874:9885   */\n      swap1\n      pop\n        /* \"#utility.yul\":9912:9916   */\n      0x20\n        /* \"#utility.yul\":9907:9910   */\n      dup3\n        /* \"#utility.yul\":9903:9917   */\n      add\n        /* \"#utility.yul\":9895:9917   */\n      swap1\n      pop\n        /* \"#utility.yul\":9792:9924   */\n      swap2\n      swap1\n      pop\n      jump\t// out\n        /* \"#utility.yul\":9930:10038   */\n    tag_346:\n        /* \"#utility.yul\":10007:10031   */\n      tag_478\n        /* \"#utility.yul\":10025:10030   */\n      dup2\n        /* \"#utility.yul\":10007:10031   */\n      tag_323\n      jump\t// in\n    tag_478:\n        /* \"#utility.yul\":10002:10005   */\n      dup3\n        /* \"#utility.yul\":9995:10032   */\n      mstore\n        /* \"#utility.yul\":9930:10038   */\n      pop\n      pop\n      jump\t// out\n        /* \"#utility.yul\":10044:10223   */\n    tag_347:\n        /* \"#utility.yul\":10113:10123   */\n      0x00\n        /* \"#utility.yul\":10134:10180   */\n      tag_480\n        /* \"#utility.yul\":10176:10179   */\n      dup4\n        /* \"#utility.yul\":10168:10174   */\n      dup4\n        /* \"#utility.yul\":10134:10180   */\n      tag_346\n      jump\t// in\n    tag_480:\n        /* \"#utility.yul\":10212:10216   */\n      0x20\n        /* \"#utility.yul\":10207:10210   */\n      dup4\n        /* \"#utility.yul\":10203:10217   */\n      add\n        /* \"#utility.yul\":10189:10217   */\n      swap1\n      pop\n        /* \"#utility.yul\":10044:10223   */\n      swap3\n      swap2\n      pop\n      pop\n      jump\t// out\n        /* \"#utility.yul\":10229:10342   */\n    tag_348:\n        /* \"#utility.yul\":10299:10303   */\n      0x00\n        /* \"#utility.yul\":10331:10335   */\n      0x20\n        /* \"#utility.yul\":10326:10329   */\n      dup3\n        /* \"#utility.yul\":10322:10336   */\n      add\n        /* \"#utility.yul\":10314:10336   */\n      swap1\n      pop\n        /* \"#utility.yul\":10229:10342   */\n      swap2\n      swap1\n      pop\n      jump\t// out\n        /* \"#utility.yul\":10378:11110   */\n    tag_349:\n        /* \"#utility.yul\":10497:10500   */\n      0x00\n        /* \"#utility.yul\":10526:10580   */\n      tag_483\n        /* \"#utility.yul\":10574:10579   */\n      dup3\n        /* \"#utility.yul\":10526:10580   */\n      tag_343\n      jump\t// in\n    tag_483:\n        /* \"#utility.yul\":10596:10682   */\n      tag_484\n        /* \"#utility.yul\":10675:10681   */\n      dup2\n        /* \"#utility.yul\":10670:10673   */\n      dup6\n        /* \"#utility.yul\":10596:10682   */\n      tag_344\n      jump\t// in\n    tag_484:\n        /* \"#utility.yul\":10589:10682   */\n      swap4\n      pop\n        /* \"#utility.yul\":10706:10762   */\n      tag_485\n        /* \"#utility.yul\":10756:10761   */\n      dup4\n        /* \"#utility.yul\":10706:10762   */\n      tag_345\n      jump\t// in\n    tag_485:\n        /* \"#utility.yul\":10785:10792   */\n      dup1\n        /* \"#utility.yul\":10816:10817   */\n      0x00\n        /* \"#utility.yul\":10801:11085   */\n    tag_486:\n        /* \"#utility.yul\":10826:10832   */\n      dup4\n        /* \"#utility.yul\":10823:10824   */\n      dup2\n        /* \"#utility.yul\":10820:10833   */\n      lt\n        /* \"#utility.yul\":10801:11085   */\n      iszero\n      tag_488\n      jumpi\n        /* \"#utility.yul\":10902:10908   */\n      dup2\n        /* \"#utility.yul\":10896:10909   */\n      mload\n        /* \"#utility.yul\":10929:10992   */\n      tag_489\n        /* \"#utility.yul\":10988:10991   */\n      dup9\n        /* \"#utility.yul\":10973:10986   */\n      dup3\n        /* \"#utility.yul\":10929:10992   */\n      tag_347\n      jump\t// in\n    tag_489:\n        /* \"#utility.yul\":10922:10992   */\n      swap8\n      pop\n        /* \"#utility.yul\":11015:11075   */\n      tag_490\n        /* \"#utility.yul\":11068:11074   */\n      dup4\n        /* \"#utility.yul\":11015:11075   */\n      tag_348\n      jump\t// in\n    tag_490:\n        /* \"#utility.yul\":11005:11075   */\n      swap3\n      pop\n        /* \"#utility.yul\":10861:11085   */\n      pop\n        /* \"#utility.yul\":10848:10849   */\n      0x01\n        /* \"#utility.yul\":10845:10846   */\n      dup2\n        /* \"#utility.yul\":10841:10850   */\n      add\n        /* \"#utility.yul\":10836:10850   */\n      swap1\n      pop\n        /* \"#utility.yul\":10801:11085   */\n      jump(tag_486)\n    tag_488:\n        /* \"#utility.yul\":10805:10819   */\n      pop\n        /* \"#utility.yul\":11101:11104   */\n      dup6\n        /* \"#utility.yul\":11094:11104   */\n      swap4\n      pop\n        /* \"#utility.yul\":10502:11110   */\n      pop\n      pop\n      pop\n        /* \"#utility.yul\":10378:11110   */\n      swap3\n      swap2\n      pop\n      pop\n      jump\t// out\n        /* \"#utility.yul\":11116:11820   */\n    tag_130:\n        /* \"#utility.yul\":11343:11347   */\n      0x00\n        /* \"#utility.yul\":11381:11384   */\n      0x80\n        /* \"#utility.yul\":11370:11379   */\n      dup3\n        /* \"#utility.yul\":11366:11385   */\n      add\n        /* \"#utility.yul\":11358:11385   */\n      swap1\n      pop\n        /* \"#utility.yul\":11395:11466   */\n      tag_492\n        /* \"#utility.yul\":11463:11464   */\n      0x00\n        /* \"#utility.yul\":11452:11461   */\n      dup4\n        /* \"#utility.yul\":11448:11465   */\n      add\n        /* \"#utility.yul\":11439:11445   */\n      dup8\n        /* \"#utility.yul\":11395:11466   */\n      tag_318\n      jump\t// in\n    tag_492:\n        /* \"#utility.yul\":11513:11522   */\n      dup2\n        /* \"#utility.yul\":11507:11511   */\n      dup2\n        /* \"#utility.yul\":11503:11523   */\n      sub\n        /* \"#utility.yul\":11498:11500   */\n      0x20\n        /* \"#utility.yul\":11487:11496   */\n      dup4\n        /* \"#utility.yul\":11483:11501   */\n      add\n        /* \"#utility.yul\":11476:11524   */\n      mstore\n        /* \"#utility.yul\":11541:11649   */\n      tag_493\n        /* \"#utility.yul\":11644:11648   */\n      dup2\n        /* \"#utility.yul\":11635:11641   */\n      dup7\n        /* \"#utility.yul\":11541:11649   */\n      tag_349\n      jump\t// in\n    tag_493:\n        /* \"#utility.yul\":11533:11649   */\n      swap1\n      pop\n        /* \"#utility.yul\":11659:11731   */\n      tag_494\n        /* \"#utility.yul\":11727:11729   */\n      0x40\n        /* \"#utility.yul\":11716:11725   */\n      dup4\n        /* \"#utility.yul\":11712:11730   */\n      add\n        /* \"#utility.yul\":11703:11709   */\n      dup6\n        /* \"#utility.yul\":11659:11731   */\n      tag_328\n      jump\t// in\n    tag_494:\n        /* \"#utility.yul\":11741:11813   */\n      tag_495\n        /* \"#utility.yul\":11809:11811   */\n      0x60\n        /* \"#utility.yul\":11798:11807   */\n      dup4\n        /* \"#utility.yul\":11794:11812   */\n      add\n        /* \"#utility.yul\":11785:11791   */\n      dup5\n        /* \"#utility.yul\":11741:11813   */\n      tag_318\n      jump\t// in\n    tag_495:\n        /* \"#utility.yul\":11116:11820   */\n      swap6\n      swap5\n      pop\n      pop\n      pop\n      pop\n      pop\n      jump\t// out\n        /* \"#utility.yul\":11826:12020   */\n    tag_139:\n        /* \"#utility.yul\":11866:11870   */\n      0x00\n        /* \"#utility.yul\":11886:11906   */\n      tag_497\n        /* \"#utility.yul\":11904:11905   */\n      dup3\n        /* \"#utility.yul\":11886:11906   */\n      tag_317\n      jump\t// in\n    tag_497:\n        /* \"#utility.yul\":11881:11906   */\n      swap2\n      pop\n        /* \"#utility.yul\":11920:11940   */\n      tag_498\n        /* \"#utility.yul\":11938:11939   */\n      dup4\n        /* \"#utility.yul\":11920:11940   */\n      tag_317\n      jump\t// in\n    tag_498:\n        /* \"#utility.yul\":11915:11940   */\n      swap3\n      pop\n        /* \"#utility.yul\":11964:11965   */\n      dup3\n        /* \"#utility.yul\":11961:11962   */\n      dup3\n        /* \"#utility.yul\":11957:11966   */\n      sub\n        /* \"#utility.yul\":11949:11966   */\n      swap1\n      pop\n        /* \"#utility.yul\":11988:11989   */\n      dup2\n        /* \"#utility.yul\":11982:11986   */\n      dup2\n        /* \"#utility.yul\":11979:11990   */\n      gt\n        /* \"#utility.yul\":11976:12013   */\n      iszero\n      tag_499\n      jumpi\n        /* \"#utility.yul\":11993:12011   */\n      tag_500\n      tag_339\n      jump\t// in\n    tag_500:\n        /* \"#utility.yul\":11976:12013   */\n    tag_499:\n        /* \"#utility.yul\":11826:12020   */\n      swap3\n      swap2\n      pop\n      pop\n      jump\t// out\n        /* \"#utility.yul\":12026:12358   */\n    tag_144:\n        /* \"#utility.yul\":12147:12151   */\n      0x00\n        /* \"#utility.yul\":12185:12187   */\n      0x40\n        /* \"#utility.yul\":12174:12183   */\n      dup3\n        /* \"#utility.yul\":12170:12188   */\n      add\n        /* \"#utility.yul\":12162:12188   */\n      swap1\n      pop\n        /* \"#utility.yul\":12198:12269   */\n      tag_502\n        /* \"#utility.yul\":12266:12267   */\n      0x00\n        /* \"#utility.yul\":12255:12264   */\n      dup4\n        /* \"#utility.yul\":12251:12268   */\n      add\n        /* \"#utility.yul\":12242:12248   */\n      dup6\n        /* \"#utility.yul\":12198:12269   */\n      tag_328\n      jump\t// in\n    tag_502:\n        /* \"#utility.yul\":12279:12351   */\n      tag_503\n        /* \"#utility.yul\":12347:12349   */\n      0x20\n        /* \"#utility.yul\":12336:12345   */\n      dup4\n        /* \"#utility.yul\":12332:12350   */\n      add\n        /* \"#utility.yul\":12323:12329   */\n      dup5\n        /* \"#utility.yul\":12279:12351   */\n      tag_318\n      jump\t// in\n    tag_503:\n        /* \"#utility.yul\":12026:12358   */\n      swap4\n      swap3\n      pop\n      pop\n      pop\n      jump\t// out\n        /* \"#utility.yul\":12364:12696   */\n    tag_154:\n        /* \"#utility.yul\":12485:12489   */\n      0x00\n        /* \"#utility.yul\":12523:12525   */\n      0x40\n        /* \"#utility.yul\":12512:12521   */\n      dup3\n        /* \"#utility.yul\":12508:12526   */\n      add\n        /* \"#utility.yul\":12500:12526   */\n      swap1\n      pop\n        /* \"#utility.yul\":12536:12607   */\n      tag_505\n        /* \"#utility.yul\":12604:12605   */\n      0x00\n        /* \"#utility.yul\":12593:12602   */\n      dup4\n        /* \"#utility.yul\":12589:12606   */\n      add\n        /* \"#utility.yul\":12580:12586   */\n      dup6\n        /* \"#utility.yul\":12536:12607   */\n      tag_328\n      jump\t// in\n    tag_505:\n        /* \"#utility.yul\":12617:12689   */\n      tag_506\n        /* \"#utility.yul\":12685:12687   */\n      0x20\n        /* \"#utility.yul\":12674:12683   */\n      dup4\n        /* \"#utility.yul\":12670:12688   */\n      add\n        /* \"#utility.yul\":12661:12667   */\n      dup5\n        /* \"#utility.yul\":12617:12689   */\n      tag_328\n      jump\t// in\n    tag_506:\n        /* \"#utility.yul\":12364:12696   */\n      swap4\n      swap3\n      pop\n      pop\n      pop\n      jump\t// out\n        /* \"#utility.yul\":12702:12845   */\n    tag_350:\n        /* \"#utility.yul\":12759:12764   */\n      0x00\n        /* \"#utility.yul\":12790:12796   */\n      dup2\n        /* \"#utility.yul\":12784:12797   */\n      mload\n        /* \"#utility.yul\":12775:12797   */\n      swap1\n      pop\n        /* \"#utility.yul\":12806:12839   */\n      tag_508\n        /* \"#utility.yul\":12833:12838   */\n      dup2\n        /* \"#utility.yul\":12806:12839   */\n      tag_324\n      jump\t// in\n    tag_508:\n        /* \"#utility.yul\":12702:12845   */\n      swap3\n      swap2\n      pop\n      pop\n      jump\t// out\n        /* \"#utility.yul\":12851:13202   */\n    tag_158:\n        /* \"#utility.yul\":12921:12927   */\n      0x00\n        /* \"#utility.yul\":12970:12972   */\n      0x20\n        /* \"#utility.yul\":12958:12967   */\n      dup3\n        /* \"#utility.yul\":12949:12956   */\n      dup5\n        /* \"#utility.yul\":12945:12968   */\n      sub\n        /* \"#utility.yul\":12941:12973   */\n      slt\n        /* \"#utility.yul\":12938:13057   */\n      iszero\n      tag_510\n      jumpi\n        /* \"#utility.yul\":12976:13055   */\n      tag_511\n      tag_320\n      jump\t// in\n    tag_511:\n        /* \"#utility.yul\":12938:13057   */\n    tag_510:\n        /* \"#utility.yul\":13096:13097   */\n      0x00\n        /* \"#utility.yul\":13121:13185   */\n      tag_512\n        /* \"#utility.yul\":13177:13184   */\n      dup5\n        /* \"#utility.yul\":13168:13174   */\n      dup3\n        /* \"#utility.yul\":13157:13166   */\n      dup6\n        /* \"#utility.yul\":13153:13175   */\n      add\n        /* \"#utility.yul\":13121:13185   */\n      tag_350\n      jump\t// in\n    tag_512:\n        /* \"#utility.yul\":13111:13185   */\n      swap2\n      pop\n        /* \"#utility.yul\":13067:13195   */\n      pop\n        /* \"#utility.yul\":12851:13202   */\n      swap3\n      swap2\n      pop\n      pop\n      jump\t// out\n        /* \"#utility.yul\":13208:13441   */\n    tag_351:\n        /* \"#utility.yul\":13348:13382   */\n      0x45524332303a20496e73756666696369656e7420616c6c6f77616e636520666f\n        /* \"#utility.yul\":13344:13345   */\n      0x00\n        /* \"#utility.yul\":13336:13342   */\n      dup3\n        /* \"#utility.yul\":13332:13346   */\n      add\n        /* \"#utility.yul\":13325:13383   */\n      mstore\n        /* \"#utility.yul\":13417:13433   */\n      0x72207472616e7366657246726f6d000000000000000000000000000000000000\n        /* \"#utility.yul\":13412:13414   */\n      0x20\n        /* \"#utility.yul\":13404:13410   */\n      dup3\n        /* \"#utility.yul\":13400:13415   */\n      add\n        /* \"#utility.yul\":13393:13434   */\n      mstore\n        /* \"#utility.yul\":13208:13441   */\n      pop\n      jump\t// out\n        /* \"#utility.yul\":13447:13811   */\n    tag_352:\n        /* \"#utility.yul\":13588:13591   */\n      0x00\n        /* \"#utility.yul\":13609:13675   */\n      tag_515\n        /* \"#utility.yul\":13672:13674   */\n      0x2e\n        /* \"#utility.yul\":13667:13670   */\n      dup4\n        /* \"#utility.yul\":13609:13675   */\n      tag_314\n      jump\t// in\n    tag_515:\n        /* \"#utility.yul\":13602:13675   */\n      swap2\n      pop\n        /* \"#utility.yul\":13684:13777   */\n      tag_516\n        /* \"#utility.yul\":13773:13776   */\n      dup3\n        /* \"#utility.yul\":13684:13777   */\n      tag_351\n      jump\t// in\n    tag_516:\n        /* \"#utility.yul\":13802:13804   */\n      0x40\n        /* \"#utility.yul\":13797:13800   */\n      dup3\n        /* \"#utility.yul\":13793:13805   */\n      add\n        /* \"#utility.yul\":13786:13805   */\n      swap1\n      pop\n        /* \"#utility.yul\":13447:13811   */\n      swap2\n      swap1\n      pop\n      jump\t// out\n        /* \"#utility.yul\":13817:14234   */\n    tag_169:\n        /* \"#utility.yul\":13982:13986   */\n      0x00\n        /* \"#utility.yul\":14020:14022   */\n      0x20\n        /* \"#utility.yul\":14009:14018   */\n      dup3\n        /* \"#utility.yul\":14005:14023   */\n      add\n        /* \"#utility.yul\":13997:14023   */\n      swap1\n      pop\n        /* \"#utility.yul\":14069:14078   */\n      dup2\n        /* \"#utility.yul\":14063:14067   */\n      dup2\n        /* \"#utility.yul\":14059:14079   */\n      sub\n        /* \"#utility.yul\":14055:14056   */\n      0x00\n        /* \"#utility.yul\":14044:14053   */\n      dup4\n        /* \"#utility.yul\":14040:14057   */\n      add\n        /* \"#utility.yul\":14033:14080   */\n      mstore\n        /* \"#utility.yul\":14097:14227   */\n      tag_518\n        /* \"#utility.yul\":14222:14226   */\n      dup2\n        /* \"#utility.yul\":14097:14227   */\n      tag_352\n      jump\t// in\n    tag_518:\n        /* \"#utility.yul\":14089:14227   */\n      swap1\n      pop\n        /* \"#utility.yul\":13817:14234   */\n      swap2\n      swap1\n      pop\n      jump\t// out\n        /* \"#utility.yul\":14240:14325   */\n    tag_353:\n        /* \"#utility.yul\":14285:14292   */\n      0x00\n        /* \"#utility.yul\":14314:14319   */\n      dup2\n        /* \"#utility.yul\":14303:14319   */\n      swap1\n      pop\n        /* \"#utility.yul\":14240:14325   */\n      swap2\n      swap1\n      pop\n      jump\t// out\n        /* \"#utility.yul\":14331:14489   */\n    tag_354:\n        /* \"#utility.yul\":14389:14398   */\n      0x00\n        /* \"#utility.yul\":14422:14483   */\n      tag_521\n        /* \"#utility.yul\":14440:14482   */\n      tag_522\n        /* \"#utility.yul\":14449:14481   */\n      tag_523\n        /* \"#utility.yul\":14475:14480   */\n      dup5\n        /* \"#utility.yul\":14449:14481   */\n      tag_353\n      jump\t// in\n    tag_523:\n        /* \"#utility.yul\":14440:14482   */\n      tag_329\n      jump\t// in\n    tag_522:\n        /* \"#utility.yul\":14422:14483   */\n      tag_317\n      jump\t// in\n    tag_521:\n        /* \"#utility.yul\":14409:14483   */\n      swap1\n      pop\n        /* \"#utility.yul\":14331:14489   */\n      swap2\n      swap1\n      pop\n      jump\t// out\n        /* \"#utility.yul\":14495:14642   */\n    tag_355:\n        /* \"#utility.yul\":14590:14635   */\n      tag_525\n        /* \"#utility.yul\":14629:14634   */\n      dup2\n        /* \"#utility.yul\":14590:14635   */\n      tag_354\n      jump\t// in\n    tag_525:\n        /* \"#utility.yul\":14585:14588   */\n      dup3\n        /* \"#utility.yul\":14578:14636   */\n      mstore\n        /* \"#utility.yul\":14495:14642   */\n      pop\n      pop\n      jump\t// out\n        /* \"#utility.yul\":14648:14996   */\n    tag_188:\n        /* \"#utility.yul\":14777:14781   */\n      0x00\n        /* \"#utility.yul\":14815:14817   */\n      0x40\n        /* \"#utility.yul\":14804:14813   */\n      dup3\n        /* \"#utility.yul\":14800:14818   */\n      add\n        /* \"#utility.yul\":14792:14818   */\n      swap1\n      pop\n        /* \"#utility.yul\":14828:14899   */\n      tag_527\n        /* \"#utility.yul\":14896:14897   */\n      0x00\n        /* \"#utility.yul\":14885:14894   */\n      dup4\n        /* \"#utility.yul\":14881:14898   */\n      add\n        /* \"#utility.yul\":14872:14878   */\n      dup6\n        /* \"#utility.yul\":14828:14899   */\n      tag_328\n      jump\t// in\n    tag_527:\n        /* \"#utility.yul\":14909:14989   */\n      tag_528\n        /* \"#utility.yul\":14985:14987   */\n      0x20\n        /* \"#utility.yul\":14974:14983   */\n      dup4\n        /* \"#utility.yul\":14970:14988   */\n      add\n        /* \"#utility.yul\":14961:14967   */\n      dup5\n        /* \"#utility.yul\":14909:14989   */\n      tag_355\n      jump\t// in\n    tag_528:\n        /* \"#utility.yul\":14648:14996   */\n      swap4\n      swap3\n      pop\n      pop\n      pop\n      jump\t// out\n        /* \"#utility.yul\":15002:15092   */\n    tag_356:\n        /* \"#utility.yul\":15036:15043   */\n      0x00\n        /* \"#utility.yul\":15079:15084   */\n      dup2\n        /* \"#utility.yul\":15072:15085   */\n      iszero\n        /* \"#utility.yul\":15065:15086   */\n      iszero\n        /* \"#utility.yul\":15054:15086   */\n      swap1\n      pop\n        /* \"#utility.yul\":15002:15092   */\n      swap2\n      swap1\n      pop\n      jump\t// out\n        /* \"#utility.yul\":15098:15214   */\n    tag_357:\n        /* \"#utility.yul\":15168:15189   */\n      tag_531\n        /* \"#utility.yul\":15183:15188   */\n      dup2\n        /* \"#utility.yul\":15168:15189   */\n      tag_356\n      jump\t// in\n    tag_531:\n        /* \"#utility.yul\":15161:15166   */\n      dup2\n        /* \"#utility.yul\":15158:15190   */\n      eq\n        /* \"#utility.yul\":15148:15208   */\n      tag_532\n      jumpi\n        /* \"#utility.yul\":15204:15205   */\n      0x00\n        /* \"#utility.yul\":15201:15202   */\n      dup1\n        /* \"#utility.yul\":15194:15206   */\n      revert\n        /* \"#utility.yul\":15148:15208   */\n    tag_532:\n        /* \"#utility.yul\":15098:15214   */\n      pop\n      jump\t// out\n        /* \"#utility.yul\":15220:15357   */\n    tag_358:\n        /* \"#utility.yul\":15274:15279   */\n      0x00\n        /* \"#utility.yul\":15305:15311   */\n      dup2\n        /* \"#utility.yul\":15299:15312   */\n      mload\n        /* \"#utility.yul\":15290:15312   */\n      swap1\n      pop\n        /* \"#utility.yul\":15321:15351   */\n      tag_534\n        /* \"#utility.yul\":15345:15350   */\n      dup2\n        /* \"#utility.yul\":15321:15351   */\n      tag_357\n      jump\t// in\n    tag_534:\n        /* \"#utility.yul\":15220:15357   */\n      swap3\n      swap2\n      pop\n      pop\n      jump\t// out\n        /* \"#utility.yul\":15363:15708   */\n    tag_192:\n        /* \"#utility.yul\":15430:15436   */\n      0x00\n        /* \"#utility.yul\":15479:15481   */\n      0x20\n        /* \"#utility.yul\":15467:15476   */\n      dup3\n        /* \"#utility.yul\":15458:15465   */\n      dup5\n        /* \"#utility.yul\":15454:15477   */\n      sub\n        /* \"#utility.yul\":15450:15482   */\n      slt\n        /* \"#utility.yul\":15447:15566   */\n      iszero\n      tag_536\n      jumpi\n        /* \"#utility.yul\":15485:15564   */\n      tag_537\n      tag_320\n      jump\t// in\n    tag_537:\n        /* \"#utility.yul\":15447:15566   */\n    tag_536:\n        /* \"#utility.yul\":15605:15606   */\n      0x00\n        /* \"#utility.yul\":15630:15691   */\n      tag_538\n        /* \"#utility.yul\":15683:15690   */\n      dup5\n        /* \"#utility.yul\":15674:15680   */\n      dup3\n        /* \"#utility.yul\":15663:15672   */\n      dup6\n        /* \"#utility.yul\":15659:15681   */\n      add\n        /* \"#utility.yul\":15630:15691   */\n      tag_358\n      jump\t// in\n    tag_538:\n        /* \"#utility.yul\":15620:15691   */\n      swap2\n      pop\n        /* \"#utility.yul\":15576:15701   */\n      pop\n        /* \"#utility.yul\":15363:15708   */\n      swap3\n      swap2\n      pop\n      pop\n      jump\t// out\n        /* \"#utility.yul\":15714:16529   */\n    tag_203:\n        /* \"#utility.yul\":15969:15973   */\n      0x00\n        /* \"#utility.yul\":16007:16010   */\n      0xa0\n        /* \"#utility.yul\":15996:16005   */\n      dup3\n        /* \"#utility.yul\":15992:16011   */\n      add\n        /* \"#utility.yul\":15984:16011   */\n      swap1\n      pop\n        /* \"#utility.yul\":16021:16092   */\n      tag_540\n        /* \"#utility.yul\":16089:16090   */\n      0x00\n        /* \"#utility.yul\":16078:16087   */\n      dup4\n        /* \"#utility.yul\":16074:16091   */\n      add\n        /* \"#utility.yul\":16065:16071   */\n      dup9\n        /* \"#utility.yul\":16021:16092   */\n      tag_318\n      jump\t// in\n    tag_540:\n        /* \"#utility.yul\":16102:16174   */\n      tag_541\n        /* \"#utility.yul\":16170:16172   */\n      0x20\n        /* \"#utility.yul\":16159:16168   */\n      dup4\n        /* \"#utility.yul\":16155:16173   */\n      add\n        /* \"#utility.yul\":16146:16152   */\n      dup8\n        /* \"#utility.yul\":16102:16174   */\n      tag_318\n      jump\t// in\n    tag_541:\n        /* \"#utility.yul\":16221:16230   */\n      dup2\n        /* \"#utility.yul\":16215:16219   */\n      dup2\n        /* \"#utility.yul\":16211:16231   */\n      sub\n        /* \"#utility.yul\":16206:16208   */\n      0x40\n        /* \"#utility.yul\":16195:16204   */\n      dup4\n        /* \"#utility.yul\":16191:16209   */\n      add\n        /* \"#utility.yul\":16184:16232   */\n      mstore\n        /* \"#utility.yul\":16249:16357   */\n      tag_542\n        /* \"#utility.yul\":16352:16356   */\n      dup2\n        /* \"#utility.yul\":16343:16349   */\n      dup7\n        /* \"#utility.yul\":16249:16357   */\n      tag_349\n      jump\t// in\n    tag_542:\n        /* \"#utility.yul\":16241:16357   */\n      swap1\n      pop\n        /* \"#utility.yul\":16367:16439   */\n      tag_543\n        /* \"#utility.yul\":16435:16437   */\n      0x60\n        /* \"#utility.yul\":16424:16433   */\n      dup4\n        /* \"#utility.yul\":16420:16438   */\n      add\n        /* \"#utility.yul\":16411:16417   */\n      dup6\n        /* \"#utility.yul\":16367:16439   */\n      tag_328\n      jump\t// in\n    tag_543:\n        /* \"#utility.yul\":16449:16522   */\n      tag_544\n        /* \"#utility.yul\":16517:16520   */\n      0x80\n        /* \"#utility.yul\":16506:16515   */\n      dup4\n        /* \"#utility.yul\":16502:16521   */\n      add\n        /* \"#utility.yul\":16493:16499   */\n      dup5\n        /* \"#utility.yul\":16449:16522   */\n      tag_318\n      jump\t// in\n    tag_544:\n        /* \"#utility.yul\":15714:16529   */\n      swap7\n      swap6\n      pop\n      pop\n      pop\n      pop\n      pop\n      pop\n      jump\t// out\n        /* \"#utility.yul\":16535:16759   */\n    tag_359:\n        /* \"#utility.yul\":16675:16709   */\n      0x416d6f756e74206578636565647320746865206d6178696d756d207769746864\n        /* \"#utility.yul\":16671:16672   */\n      0x00\n        /* \"#utility.yul\":16663:16669   */\n      dup3\n        /* \"#utility.yul\":16659:16673   */\n      add\n        /* \"#utility.yul\":16652:16710   */\n      mstore\n        /* \"#utility.yul\":16744:16751   */\n      0x726177616c000000000000000000000000000000000000000000000000000000\n        /* \"#utility.yul\":16739:16741   */\n      0x20\n        /* \"#utility.yul\":16731:16737   */\n      dup3\n        /* \"#utility.yul\":16727:16742   */\n      add\n        /* \"#utility.yul\":16720:16752   */\n      mstore\n        /* \"#utility.yul\":16535:16759   */\n      pop\n      jump\t// out\n        /* \"#utility.yul\":16765:17129   */\n    tag_360:\n        /* \"#utility.yul\":16906:16909   */\n      0x00\n        /* \"#utility.yul\":16927:16993   */\n      tag_547\n        /* \"#utility.yul\":16990:16992   */\n      0x25\n        /* \"#utility.yul\":16985:16988   */\n      dup4\n        /* \"#utility.yul\":16927:16993   */\n      tag_314\n      jump\t// in\n    tag_547:\n        /* \"#utility.yul\":16920:16993   */\n      swap2\n      pop\n        /* \"#utility.yul\":17002:17095   */\n      tag_548\n        /* \"#utility.yul\":17091:17094   */\n      dup3\n        /* \"#utility.yul\":17002:17095   */\n      tag_359\n      jump\t// in\n    tag_548:\n        /* \"#utility.yul\":17120:17122   */\n      0x40\n        /* \"#utility.yul\":17115:17118   */\n      dup3\n        /* \"#utility.yul\":17111:17123   */\n      add\n        /* \"#utility.yul\":17104:17123   */\n      swap1\n      pop\n        /* \"#utility.yul\":16765:17129   */\n      swap2\n      swap1\n      pop\n      jump\t// out\n        /* \"#utility.yul\":17135:17552   */\n    tag_223:\n        /* \"#utility.yul\":17300:17304   */\n      0x00\n        /* \"#utility.yul\":17338:17340   */\n      0x20\n        /* \"#utility.yul\":17327:17336   */\n      dup3\n        /* \"#utility.yul\":17323:17341   */\n      add\n        /* \"#utility.yul\":17315:17341   */\n      swap1\n      pop\n        /* \"#utility.yul\":17387:17396   */\n      dup2\n        /* \"#utility.yul\":17381:17385   */\n      dup2\n        /* \"#utility.yul\":17377:17397   */\n      sub\n        /* \"#utility.yul\":17373:17374   */\n      0x00\n        /* \"#utility.yul\":17362:17371   */\n      dup4\n        /* \"#utility.yul\":17358:17375   */\n      add\n        /* \"#utility.yul\":17351:17398   */\n      mstore\n        /* \"#utility.yul\":17415:17545   */\n      tag_550\n        /* \"#utility.yul\":17540:17544   */\n      dup2\n        /* \"#utility.yul\":17415:17545   */\n      tag_360\n      jump\t// in\n    tag_550:\n        /* \"#utility.yul\":17407:17545   */\n      swap1\n      pop\n        /* \"#utility.yul\":17135:17552   */\n      swap2\n      swap1\n      pop\n      jump\t// out\n        /* \"#utility.yul\":17558:17725   */\n    tag_361:\n        /* \"#utility.yul\":17698:17717   */\n      0x4e6f7420656e6f75676820666f756e6473000000000000000000000000000000\n        /* \"#utility.yul\":17694:17695   */\n      0x00\n        /* \"#utility.yul\":17686:17692   */\n      dup3\n        /* \"#utility.yul\":17682:17696   */\n      add\n        /* \"#utility.yul\":17675:17718   */\n      mstore\n        /* \"#utility.yul\":17558:17725   */\n      pop\n      jump\t// out\n        /* \"#utility.yul\":17731:18095   */\n    tag_362:\n        /* \"#utility.yul\":17872:17875   */\n      0x00\n        /* \"#utility.yul\":17893:17959   */\n      tag_553\n        /* \"#utility.yul\":17956:17958   */\n      0x11\n        /* \"#utility.yul\":17951:17954   */\n      dup4\n        /* \"#utility.yul\":17893:17959   */\n      tag_314\n      jump\t// in\n    tag_553:\n        /* \"#utility.yul\":17886:17959   */\n      swap2\n      pop\n        /* \"#utility.yul\":17968:18061   */\n      tag_554\n        /* \"#utility.yul\":18057:18060   */\n      dup3\n        /* \"#utility.yul\":17968:18061   */\n      tag_361\n      jump\t// in\n    tag_554:\n        /* \"#utility.yul\":18086:18088   */\n      0x20\n        /* \"#utility.yul\":18081:18084   */\n      dup3\n        /* \"#utility.yul\":18077:18089   */\n      add\n        /* \"#utility.yul\":18070:18089   */\n      swap1\n      pop\n        /* \"#utility.yul\":17731:18095   */\n      swap2\n      swap1\n      pop\n      jump\t// out\n        /* \"#utility.yul\":18101:18518   */\n    tag_226:\n        /* \"#utility.yul\":18266:18270   */\n      0x00\n        /* \"#utility.yul\":18304:18306   */\n      0x20\n        /* \"#utility.yul\":18293:18302   */\n      dup3\n        /* \"#utility.yul\":18289:18307   */\n      add\n        /* \"#utility.yul\":18281:18307   */\n      swap1\n      pop\n        /* \"#utility.yul\":18353:18362   */\n      dup2\n        /* \"#utility.yul\":18347:18351   */\n      dup2\n        /* \"#utility.yul\":18343:18363   */\n      sub\n        /* \"#utility.yul\":18339:18340   */\n      0x00\n        /* \"#utility.yul\":18328:18337   */\n      dup4\n        /* \"#utility.yul\":18324:18341   */\n      add\n        /* \"#utility.yul\":18317:18364   */\n      mstore\n        /* \"#utility.yul\":18381:18511   */\n      tag_556\n        /* \"#utility.yul\":18506:18510   */\n      dup2\n        /* \"#utility.yul\":18381:18511   */\n      tag_362\n      jump\t// in\n    tag_556:\n        /* \"#utility.yul\":18373:18511   */\n      swap1\n      pop\n        /* \"#utility.yul\":18101:18518   */\n      swap2\n      swap1\n      pop\n      jump\t// out\n        /* \"#utility.yul\":18524:18693   */\n    tag_363:\n        /* \"#utility.yul\":18608:18619   */\n      0x00\n        /* \"#utility.yul\":18642:18648   */\n      dup3\n        /* \"#utility.yul\":18637:18640   */\n      dup3\n        /* \"#utility.yul\":18630:18649   */\n      mstore\n        /* \"#utility.yul\":18682:18686   */\n      0x20\n        /* \"#utility.yul\":18677:18680   */\n      dup3\n        /* \"#utility.yul\":18673:18687   */\n      add\n        /* \"#utility.yul\":18658:18687   */\n      swap1\n      pop\n        /* \"#utility.yul\":18524:18693   */\n      swap3\n      swap2\n      pop\n      pop\n      jump\t// out\n        /* \"#utility.yul\":18699:18856   */\n    tag_364:\n        /* \"#utility.yul\":18839:18848   */\n      0x4e6f207061697200000000000000000000000000000000000000000000000000\n        /* \"#utility.yul\":18835:18836   */\n      0x00\n        /* \"#utility.yul\":18827:18833   */\n      dup3\n        /* \"#utility.yul\":18823:18837   */\n      add\n        /* \"#utility.yul\":18816:18849   */\n      mstore\n        /* \"#utility.yul\":18699:18856   */\n      pop\n      jump\t// out\n        /* \"#utility.yul\":18862:19227   */\n    tag_365:\n        /* \"#utility.yul\":19004:19007   */\n      0x00\n        /* \"#utility.yul\":19025:19091   */\n      tag_560\n        /* \"#utility.yul\":19089:19090   */\n      0x07\n        /* \"#utility.yul\":19084:19087   */\n      dup4\n        /* \"#utility.yul\":19025:19091   */\n      tag_363\n      jump\t// in\n    tag_560:\n        /* \"#utility.yul\":19018:19091   */\n      swap2\n      pop\n        /* \"#utility.yul\":19100:19193   */\n      tag_561\n        /* \"#utility.yul\":19189:19192   */\n      dup3\n        /* \"#utility.yul\":19100:19193   */\n      tag_364\n      jump\t// in\n    tag_561:\n        /* \"#utility.yul\":19218:19220   */\n      0x20\n        /* \"#utility.yul\":19213:19216   */\n      dup3\n        /* \"#utility.yul\":19209:19221   */\n      add\n        /* \"#utility.yul\":19202:19221   */\n      swap1\n      pop\n        /* \"#utility.yul\":18862:19227   */\n      swap2\n      swap1\n      pop\n      jump\t// out\n        /* \"#utility.yul\":19233:19652   */\n    tag_264:\n        /* \"#utility.yul\":19399:19403   */\n      0x00\n        /* \"#utility.yul\":19437:19439   */\n      0x20\n        /* \"#utility.yul\":19426:19435   */\n      dup3\n        /* \"#utility.yul\":19422:19440   */\n      add\n        /* \"#utility.yul\":19414:19440   */\n      swap1\n      pop\n        /* \"#utility.yul\":19486:19495   */\n      dup2\n        /* \"#utility.yul\":19480:19484   */\n      dup2\n        /* \"#utility.yul\":19476:19496   */\n      sub\n        /* \"#utility.yul\":19472:19473   */\n      0x00\n        /* \"#utility.yul\":19461:19470   */\n      dup4\n        /* \"#utility.yul\":19457:19474   */\n      add\n        /* \"#utility.yul\":19450:19497   */\n      mstore\n        /* \"#utility.yul\":19514:19645   */\n      tag_563\n        /* \"#utility.yul\":19640:19644   */\n      dup2\n        /* \"#utility.yul\":19514:19645   */\n      tag_365\n      jump\t// in\n    tag_563:\n        /* \"#utility.yul\":19506:19645   */\n      swap1\n      pop\n        /* \"#utility.yul\":19233:19652   */\n      swap2\n      swap1\n      pop\n      jump\t// out\n        /* \"#utility.yul\":19658:19772   */\n    tag_366:\n        /* \"#utility.yul\":19695:19702   */\n      0x00\n        /* \"#utility.yul\":19735:19765   */\n      0xffffffffffffffffffffffffffff\n        /* \"#utility.yul\":19728:19733   */\n      dup3\n        /* \"#utility.yul\":19724:19766   */\n      and\n        /* \"#utility.yul\":19713:19766   */\n      swap1\n      pop\n        /* \"#utility.yul\":19658:19772   */\n      swap2\n      swap1\n      pop\n      jump\t// out\n        /* \"#utility.yul\":19778:19900   */\n    tag_367:\n        /* \"#utility.yul\":19851:19875   */\n      tag_566\n        /* \"#utility.yul\":19869:19874   */\n      dup2\n        /* \"#utility.yul\":19851:19875   */\n      tag_366\n      jump\t// in\n    tag_566:\n        /* \"#utility.yul\":19844:19849   */\n      dup2\n        /* \"#utility.yul\":19841:19876   */\n      eq\n        /* \"#utility.yul\":19831:19894   */\n      tag_567\n      jumpi\n        /* \"#utility.yul\":19890:19891   */\n      0x00\n        /* \"#utility.yul\":19887:19888   */\n      dup1\n        /* \"#utility.yul\":19880:19892   */\n      revert\n        /* \"#utility.yul\":19831:19894   */\n    tag_567:\n        /* \"#utility.yul\":19778:19900   */\n      pop\n      jump\t// out\n        /* \"#utility.yul\":19906:20049   */\n    tag_368:\n        /* \"#utility.yul\":19963:19968   */\n      0x00\n        /* \"#utility.yul\":19994:20000   */\n      dup2\n        /* \"#utility.yul\":19988:20001   */\n      mload\n        /* \"#utility.yul\":19979:20001   */\n      swap1\n      pop\n        /* \"#utility.yul\":20010:20043   */\n      tag_569\n        /* \"#utility.yul\":20037:20042   */\n      dup2\n        /* \"#utility.yul\":20010:20043   */\n      tag_367\n      jump\t// in\n    tag_569:\n        /* \"#utility.yul\":19906:20049   */\n      swap3\n      swap2\n      pop\n      pop\n      jump\t// out\n        /* \"#utility.yul\":20055:20148   */\n    tag_369:\n        /* \"#utility.yul\":20091:20098   */\n      0x00\n        /* \"#utility.yul\":20131:20141   */\n      0xffffffff\n        /* \"#utility.yul\":20124:20129   */\n      dup3\n        /* \"#utility.yul\":20120:20142   */\n      and\n        /* \"#utility.yul\":20109:20142   */\n      swap1\n      pop\n        /* \"#utility.yul\":20055:20148   */\n      swap2\n      swap1\n      pop\n      jump\t// out\n        /* \"#utility.yul\":20154:20274   */\n    tag_370:\n        /* \"#utility.yul\":20226:20249   */\n      tag_572\n        /* \"#utility.yul\":20243:20248   */\n      dup2\n        /* \"#utility.yul\":20226:20249   */\n      tag_369\n      jump\t// in\n    tag_572:\n        /* \"#utility.yul\":20219:20224   */\n      dup2\n        /* \"#utility.yul\":20216:20250   */\n      eq\n        /* \"#utility.yul\":20206:20268   */\n      tag_573\n      jumpi\n        /* \"#utility.yul\":20264:20265   */\n      0x00\n        /* \"#utility.yul\":20261:20262   */\n      dup1\n        /* \"#utility.yul\":20254:20266   */\n      revert\n        /* \"#utility.yul\":20206:20268   */\n    tag_573:\n        /* \"#utility.yul\":20154:20274   */\n      pop\n      jump\t// out\n        /* \"#utility.yul\":20280:20421   */\n    tag_371:\n        /* \"#utility.yul\":20336:20341   */\n      0x00\n        /* \"#utility.yul\":20367:20373   */\n      dup2\n        /* \"#utility.yul\":20361:20374   */\n      mload\n        /* \"#utility.yul\":20352:20374   */\n      swap1\n      pop\n        /* \"#utility.yul\":20383:20415   */\n      tag_575\n        /* \"#utility.yul\":20409:20414   */\n      dup2\n        /* \"#utility.yul\":20383:20415   */\n      tag_370\n      jump\t// in\n    tag_575:\n        /* \"#utility.yul\":20280:20421   */\n      swap3\n      swap2\n      pop\n      pop\n      jump\t// out\n        /* \"#utility.yul\":20427:21088   */\n    tag_268:\n        /* \"#utility.yul\":20514:20520   */\n      0x00\n        /* \"#utility.yul\":20522:20528   */\n      dup1\n        /* \"#utility.yul\":20530:20536   */\n      0x00\n        /* \"#utility.yul\":20579:20581   */\n      0x60\n        /* \"#utility.yul\":20567:20576   */\n      dup5\n        /* \"#utility.yul\":20558:20565   */\n      dup7\n        /* \"#utility.yul\":20554:20577   */\n      sub\n        /* \"#utility.yul\":20550:20582   */\n      slt\n        /* \"#utility.yul\":20547:20666   */\n      iszero\n      tag_577\n      jumpi\n        /* \"#utility.yul\":20585:20664   */\n      tag_578\n      tag_320\n      jump\t// in\n    tag_578:\n        /* \"#utility.yul\":20547:20666   */\n    tag_577:\n        /* \"#utility.yul\":20705:20706   */\n      0x00\n        /* \"#utility.yul\":20730:20794   */\n      tag_579\n        /* \"#utility.yul\":20786:20793   */\n      dup7\n        /* \"#utility.yul\":20777:20783   */\n      dup3\n        /* \"#utility.yul\":20766:20775   */\n      dup8\n        /* \"#utility.yul\":20762:20784   */\n      add\n        /* \"#utility.yul\":20730:20794   */\n      tag_368\n      jump\t// in\n    tag_579:\n        /* \"#utility.yul\":20720:20794   */\n      swap4\n      pop\n        /* \"#utility.yul\":20676:20804   */\n      pop\n        /* \"#utility.yul\":20843:20845   */\n      0x20\n        /* \"#utility.yul\":20869:20933   */\n      tag_580\n        /* \"#utility.yul\":20925:20932   */\n      dup7\n        /* \"#utility.yul\":20916:20922   */\n      dup3\n        /* \"#utility.yul\":20905:20914   */\n      dup8\n        /* \"#utility.yul\":20901:20923   */\n      add\n        /* \"#utility.yul\":20869:20933   */\n      tag_368\n      jump\t// in\n    tag_580:\n        /* \"#utility.yul\":20859:20933   */\n      swap3\n      pop\n        /* \"#utility.yul\":20814:20943   */\n      pop\n        /* \"#utility.yul\":20982:20984   */\n      0x40\n        /* \"#utility.yul\":21008:21071   */\n      tag_581\n        /* \"#utility.yul\":21063:21070   */\n      dup7\n        /* \"#utility.yul\":21054:21060   */\n      dup3\n        /* \"#utility.yul\":21043:21052   */\n      dup8\n        /* \"#utility.yul\":21039:21061   */\n      add\n        /* \"#utility.yul\":21008:21071   */\n      tag_371\n      jump\t// in\n    tag_581:\n        /* \"#utility.yul\":20998:21071   */\n      swap2\n      pop\n        /* \"#utility.yul\":20953:21081   */\n      pop\n        /* \"#utility.yul\":20427:21088   */\n      swap3\n      pop\n      swap3\n      pop\n      swap3\n      jump\t// out\n        /* \"#utility.yul\":21094:21504   */\n    tag_272:\n        /* \"#utility.yul\":21134:21141   */\n      0x00\n        /* \"#utility.yul\":21157:21177   */\n      tag_583\n        /* \"#utility.yul\":21175:21176   */\n      dup3\n        /* \"#utility.yul\":21157:21177   */\n      tag_317\n      jump\t// in\n    tag_583:\n        /* \"#utility.yul\":21152:21177   */\n      swap2\n      pop\n        /* \"#utility.yul\":21191:21211   */\n      tag_584\n        /* \"#utility.yul\":21209:21210   */\n      dup4\n        /* \"#utility.yul\":21191:21211   */\n      tag_317\n      jump\t// in\n    tag_584:\n        /* \"#utility.yul\":21186:21211   */\n      swap3\n      pop\n        /* \"#utility.yul\":21246:21247   */\n      dup3\n        /* \"#utility.yul\":21243:21244   */\n      dup3\n        /* \"#utility.yul\":21239:21248   */\n      mul\n        /* \"#utility.yul\":21268:21298   */\n      tag_585\n        /* \"#utility.yul\":21286:21297   */\n      dup2\n        /* \"#utility.yul\":21268:21298   */\n      tag_317\n      jump\t// in\n    tag_585:\n        /* \"#utility.yul\":21257:21298   */\n      swap2\n      pop\n        /* \"#utility.yul\":21447:21448   */\n      dup3\n        /* \"#utility.yul\":21438:21445   */\n      dup3\n        /* \"#utility.yul\":21434:21449   */\n      div\n        /* \"#utility.yul\":21431:21432   */\n      dup5\n        /* \"#utility.yul\":21428:21450   */\n      eq\n        /* \"#utility.yul\":21408:21409   */\n      dup4\n        /* \"#utility.yul\":21401:21410   */\n      iszero\n        /* \"#utility.yul\":21381:21464   */\n      or\n        /* \"#utility.yul\":21358:21497   */\n      tag_586\n      jumpi\n        /* \"#utility.yul\":21477:21495   */\n      tag_587\n      tag_339\n      jump\t// in\n    tag_587:\n        /* \"#utility.yul\":21358:21497   */\n    tag_586:\n        /* \"#utility.yul\":21142:21504   */\n      pop\n        /* \"#utility.yul\":21094:21504   */\n      swap3\n      swap2\n      pop\n      pop\n      jump\t// out\n        /* \"#utility.yul\":21510:21789   */\n    tag_275:\n        /* \"#utility.yul\":21550:21557   */\n      0x00\n        /* \"#utility.yul\":21573:21593   */\n      tag_589\n        /* \"#utility.yul\":21591:21592   */\n      dup3\n        /* \"#utility.yul\":21573:21593   */\n      tag_366\n      jump\t// in\n    tag_589:\n        /* \"#utility.yul\":21568:21593   */\n      swap2\n      pop\n        /* \"#utility.yul\":21607:21627   */\n      tag_590\n        /* \"#utility.yul\":21625:21626   */\n      dup4\n        /* \"#utility.yul\":21607:21627   */\n      tag_366\n      jump\t// in\n    tag_590:\n        /* \"#utility.yul\":21602:21627   */\n      swap3\n      pop\n        /* \"#utility.yul\":21662:21663   */\n      dup3\n        /* \"#utility.yul\":21659:21660   */\n      dup3\n        /* \"#utility.yul\":21655:21664   */\n      mul\n        /* \"#utility.yul\":21684:21714   */\n      tag_591\n        /* \"#utility.yul\":21702:21713   */\n      dup2\n        /* \"#utility.yul\":21684:21714   */\n      tag_366\n      jump\t// in\n    tag_591:\n        /* \"#utility.yul\":21673:21714   */\n      swap2\n      pop\n        /* \"#utility.yul\":21746:21757   */\n      dup1\n        /* \"#utility.yul\":21737:21744   */\n      dup3\n        /* \"#utility.yul\":21734:21758   */\n      eq\n        /* \"#utility.yul\":21724:21782   */\n      tag_592\n      jumpi\n        /* \"#utility.yul\":21762:21780   */\n      tag_593\n      tag_339\n      jump\t// in\n    tag_593:\n        /* \"#utility.yul\":21724:21782   */\n    tag_592:\n        /* \"#utility.yul\":21558:21789   */\n      pop\n        /* \"#utility.yul\":21510:21789   */\n      swap3\n      swap2\n      pop\n      pop\n      jump\t// out\n        /* \"#utility.yul\":21795:22237   */\n    tag_293:\n        /* \"#utility.yul\":21944:21948   */\n      0x00\n        /* \"#utility.yul\":21982:21984   */\n      0x60\n        /* \"#utility.yul\":21971:21980   */\n      dup3\n        /* \"#utility.yul\":21967:21985   */\n      add\n        /* \"#utility.yul\":21959:21985   */\n      swap1\n      pop\n        /* \"#utility.yul\":21995:22066   */\n      tag_595\n        /* \"#utility.yul\":22063:22064   */\n      0x00\n        /* \"#utility.yul\":22052:22061   */\n      dup4\n        /* \"#utility.yul\":22048:22065   */\n      add\n        /* \"#utility.yul\":22039:22045   */\n      dup7\n        /* \"#utility.yul\":21995:22066   */\n      tag_328\n      jump\t// in\n    tag_595:\n        /* \"#utility.yul\":22076:22148   */\n      tag_596\n        /* \"#utility.yul\":22144:22146   */\n      0x20\n        /* \"#utility.yul\":22133:22142   */\n      dup4\n        /* \"#utility.yul\":22129:22147   */\n      add\n        /* \"#utility.yul\":22120:22126   */\n      dup6\n        /* \"#utility.yul\":22076:22148   */\n      tag_328\n      jump\t// in\n    tag_596:\n        /* \"#utility.yul\":22158:22230   */\n      tag_597\n        /* \"#utility.yul\":22226:22228   */\n      0x40\n        /* \"#utility.yul\":22215:22224   */\n      dup4\n        /* \"#utility.yul\":22211:22229   */\n      add\n        /* \"#utility.yul\":22202:22208   */\n      dup5\n        /* \"#utility.yul\":22158:22230   */\n      tag_318\n      jump\t// in\n    tag_597:\n        /* \"#utility.yul\":21795:22237   */\n      swap5\n      swap4\n      pop\n      pop\n      pop\n      pop\n      jump\t// out\n\n    auxdata: 0xa26469706673582212207e13f7e609939e916397f2ae9cd1db38d85fad3a994f2ee436261fd4fc97f51964736f6c634300081a0033\n}\n",
				"bytecode": {
					"linkReferences": {},
					"object": "610120604052348015610010575f80fd5b50604051612e68380380612e68833981810160405281019061003291906103d6565b855f73ffffffffffffffffffffffffffffffffffffffff168173ffffffffffffffffffffffffffffffffffffffff16036100a3575f6040517f1e4fbdf700000000000000000000000000000000000000000000000000000000815260040161009a919061046e565b60405180910390fd5b6100b28161028460201b60201c565b5060018081905550600a8210806100c95750600181105b156100ff576040517e01d65100000000000000000000000000000000000000000000000000000000815260040160405180910390fd5b6305f5e1008261010f91906104b4565b608081815250506305f5e1008161012691906104b4565b60a081815250508373ffffffffffffffffffffffffffffffffffffffff1660c08173ffffffffffffffffffffffffffffffffffffffff16815250508473ffffffffffffffffffffffffffffffffffffffff1660e08173ffffffffffffffffffffffffffffffffffffffff16815250508273ffffffffffffffffffffffffffffffffffffffff166101008173ffffffffffffffffffffffffffffffffffffffff16815250506101005173ffffffffffffffffffffffffffffffffffffffff1663c45a01556040518163ffffffff1660e01b8152600401602060405180830381865afa158015610216573d5f803e3d5ffd5b505050506040513d601f19601f8201168201806040525081019061023a91906104f5565b60055f6101000a81548173ffffffffffffffffffffffffffffffffffffffff021916908373ffffffffffffffffffffffffffffffffffffffff160217905550505050505050610520565b5f805f9054906101000a900473ffffffffffffffffffffffffffffffffffffffff169050815f806101000a81548173ffffffffffffffffffffffffffffffffffffffff021916908373ffffffffffffffffffffffffffffffffffffffff1602179055508173ffffffffffffffffffffffffffffffffffffffff168173ffffffffffffffffffffffffffffffffffffffff167f8be0079c531659141344cd1fd0a4f28419497f9722a3daafe3b4186f6b6457e060405160405180910390a35050565b5f80fd5b5f73ffffffffffffffffffffffffffffffffffffffff82169050919050565b5f61037282610349565b9050919050565b61038281610368565b811461038c575f80fd5b50565b5f8151905061039d81610379565b92915050565b5f819050919050565b6103b5816103a3565b81146103bf575f80fd5b50565b5f815190506103d0816103ac565b92915050565b5f805f805f8060c087890312156103f0576103ef610345565b5b5f6103fd89828a0161038f565b965050602061040e89828a0161038f565b955050604061041f89828a0161038f565b945050606061043089828a0161038f565b935050608061044189828a016103c2565b92505060a061045289828a016103c2565b9150509295509295509295565b61046881610368565b82525050565b5f6020820190506104815f83018461045f565b92915050565b7f4e487b71000000000000000000000000000000000000000000000000000000005f52601160045260245ffd5b5f6104be826103a3565b91506104c9836103a3565b92508282026104d7816103a3565b915082820484148315176104ee576104ed610487565b5b5092915050565b5f6020828403121561050a57610509610345565b5b5f6105178482850161038f565b91505092915050565b60805160a05160c05160e051610100516128326106365f395f81816106b001528181610db301528181610e4f01528181610f8e01526113cf01525f81816103c601528181610599015281816105d30152818161084d015281816109c001528181610a520152818161119f015261169e01525f8181610417015281816104fb015281816106410152818161074c0152818161094101528181610b9801528181610ca901528181610d4401528181610f1f0152818161102a015281816113060152818161136a0152818161144c01528181611560015281816115850152818161161f015281816117a201526118fa01525f81816108d501526111cd01525f81816103f501528181610b76015261153c01526128325ff3fe6080604052600436106100f6575f3560e01c80638bdb2afa11610089578063f2fde38b11610058578063f2fde38b1461031e578063f3db702c14610346578063f6687af714610370578063ff40e1d01461039a57610107565b80638bdb2afa146102985780638da5cb5b146102c25780639e2b5339146102ec578063d0e30db01461031457610107565b80634dbe7e92116100c55780634dbe7e92146102065780635b06dece14610230578063715018a614610258578063735de9f71461026e57610107565b806306f69acc1461014e578063089781a91461017857806321425ee0146101a2578063260ad389146101ca57610107565b366101075761010533346103c4565b005b348015610112575f80fd5b506040517f336ea14200000000000000000000000000000000000000000000000000000000815260040161014590611d4f565b60405180910390fd5b348015610159575f80fd5b506101626108b6565b60405161016f9190611d85565b60405180910390f35b348015610183575f80fd5b5061018c6108d3565b6040516101999190611d85565b60405180910390f35b3480156101ad575f80fd5b506101c860048036038101906101c39190611e26565b6108f7565b005b3480156101d5575f80fd5b506101f060048036038101906101eb9190611e76565b611188565b6040516101fd9190611d85565b60405180910390f35b348015610211575f80fd5b5061021a61119d565b6040516102279190611eb0565b60405180910390f35b34801561023b575f80fd5b5061025660048036038101906102519190611ec9565b6111c1565b005b348015610263575f80fd5b5061026c6113ba565b005b348015610279575f80fd5b506102826113cd565b60405161028f9190611f4f565b60405180910390f35b3480156102a3575f80fd5b506102ac6113f1565b6040516102b99190611f88565b60405180910390f35b3480156102cd575f80fd5b506102d6611416565b6040516102e39190611eb0565b60405180910390f35b3480156102f7575f80fd5b50610312600480360381019061030d9190611fa1565b61143d565b005b61031c611494565b005b348015610329575f80fd5b50610344600480360381019061033f9190611e76565b6114b0565b005b348015610351575f80fd5b5061035a611534565b6040516103679190611d85565b60405180910390f35b34801561037b575f80fd5b5061038461153a565b6040516103919190611d85565b60405180910390f35b3480156103a5575f80fd5b506103ae61155e565b6040516103bb9190611fff565b60405180910390f35b7f0000000000000000000000000000000000000000000000000000000000000000815f6103f18383611582565b90507f0000000000000000000000000000000000000000000000000000000000000000817f000000000000000000000000000000000000000000000000000000000000000073ffffffffffffffffffffffffffffffffffffffff166370a08231306040518263ffffffff1660e01b815260040161046e9190611eb0565b602060405180830381865afa158015610489573d5f803e3d5ffd5b505050506040513d601f19601f820116820180604052508101906104ad919061202c565b6104b79190612084565b11156104f8576040517fa2d2e1b20000000000000000000000000000000000000000000000000000000081526004016104ef90612101565b60405180910390fd5b5f7f000000000000000000000000000000000000000000000000000000000000000073ffffffffffffffffffffffffffffffffffffffff166370a08231306040518263ffffffff1660e01b81526004016105529190611eb0565b602060405180830381865afa15801561056d573d5f803e3d5ffd5b505050506040513d601f19601f82011682018060405250810190610591919061202c565b90505f6105be7f000000000000000000000000000000000000000000000000000000000000000087611582565b9050605a816105cd919061214c565b905060607f0000000000000000000000000000000000000000000000000000000000000000815f815181106106055761060461217c565b5b602002602001019073ffffffffffffffffffffffffffffffffffffffff16908173ffffffffffffffffffffffffffffffffffffffff16815250507f0000000000000000000000000000000000000000000000000000000000000000816001815181106106745761067361217c565b5b602002602001019073ffffffffffffffffffffffffffffffffffffffff16908173ffffffffffffffffffffffffffffffffffffffff16815250507f000000000000000000000000000000000000000000000000000000000000000073ffffffffffffffffffffffffffffffffffffffff1663b6f9de958884843061012c426106fc9190612084565b6040518663ffffffff1660e01b815260040161071b9493929190612260565b5f604051808303818588803b158015610732575f80fd5b505af1158015610744573d5f803e3d5ffd5b50505050505f7f000000000000000000000000000000000000000000000000000000000000000073ffffffffffffffffffffffffffffffffffffffff166370a08231306040518263ffffffff1660e01b81526004016107a39190611eb0565b602060405180830381865afa1580156107be573d5f803e3d5ffd5b505050506040513d601f19601f820116820180604052508101906107e2919061202c565b90505f84826107f191906122aa565b90508060025f8c73ffffffffffffffffffffffffffffffffffffffff1673ffffffffffffffffffffffffffffffffffffffff1681526020019081526020015f205f82825461083f9190612084565b9250508190555061087160017f000000000000000000000000000000000000000000000000000000000000000061187a565b7f7b7cd0ddbbea241880e825e1eb51c30752cb96dd7efeb4be691ec55dfa4d89638a826040516108a29291906122dd565b60405180910390a150505050505050505050565b5f6305f5e1006108c46118f7565b6108ce919061214c565b905090565b7f000000000000000000000000000000000000000000000000000000000000000081565b6108ff611995565b825f60055f9054906101000a900473ffffffffffffffffffffffffffffffffffffffff1673ffffffffffffffffffffffffffffffffffffffff1663e6a43905837f00000000000000000000000000000000000000000000000000000000000000006040518363ffffffff1660e01b815260040161097d929190612304565b602060405180830381865afa158015610998573d5f803e3d5ffd5b505050506040513d601f19601f820116820180604052508101906109bc919061233f565b90507f000000000000000000000000000000000000000000000000000000000000000073ffffffffffffffffffffffffffffffffffffffff168173ffffffffffffffffffffffffffffffffffffffff1603610a4e57816040517fe584a63f000000000000000000000000000000000000000000000000000000008152600401610a459190611eb0565b60405180910390fd5b84847f000000000000000000000000000000000000000000000000000000000000000073ffffffffffffffffffffffffffffffffffffffff168273ffffffffffffffffffffffffffffffffffffffff1614610b65575f829050818173ffffffffffffffffffffffffffffffffffffffff1663dd62ed3e33306040518363ffffffff1660e01b8152600401610ae3929190612304565b602060405180830381865afa158015610afe573d5f803e3d5ffd5b505050506040513d601f19601f82011682018060405250810190610b22919061202c565b1015610b63576040517f336ea142000000000000000000000000000000000000000000000000000000008152600401610b5a906123da565b60405180910390fd5b505b86865f610b728383611582565b90507f0000000000000000000000000000000000000000000000000000000000000000817f000000000000000000000000000000000000000000000000000000000000000073ffffffffffffffffffffffffffffffffffffffff166370a08231306040518263ffffffff1660e01b8152600401610bef9190611eb0565b602060405180830381865afa158015610c0a573d5f803e3d5ffd5b505050506040513d601f19601f82011682018060405250810190610c2e919061202c565b610c389190612084565b1115610c79576040517fa2d2e1b2000000000000000000000000000000000000000000000000000000008152600401610c7090612101565b60405180910390fd5b610ca633308b8d73ffffffffffffffffffffffffffffffffffffffff166119db909392919063ffffffff16565b5f7f000000000000000000000000000000000000000000000000000000000000000073ffffffffffffffffffffffffffffffffffffffff166370a08231306040518263ffffffff1660e01b8152600401610d009190611eb0565b602060405180830381865afa158015610d1b573d5f803e3d5ffd5b505050506040513d601f19601f82011682018060405250810190610d3f919061202c565b90505f7f000000000000000000000000000000000000000000000000000000000000000073ffffffffffffffffffffffffffffffffffffffff168c73ffffffffffffffffffffffffffffffffffffffff16146110d7578b73ffffffffffffffffffffffffffffffffffffffff1663095ea7b37f00000000000000000000000000000000000000000000000000000000000000005f6040518363ffffffff1660e01b8152600401610df0929190612431565b6020604051808303815f875af1158015610e0c573d5f803e3d5ffd5b505050506040513d601f19601f82011682018060405250810190610e30919061248d565b508b73ffffffffffffffffffffffffffffffffffffffff1663095ea7b37f00000000000000000000000000000000000000000000000000000000000000008d6040518363ffffffff1660e01b8152600401610e8c9291906122dd565b6020604051808303815f875af1158015610ea8573d5f803e3d5ffd5b505050506040513d601f19601f82011682018060405250810190610ecc919061248d565b5060608c815f81518110610ee357610ee261217c565b5b602002602001019073ffffffffffffffffffffffffffffffffffffffff16908173ffffffffffffffffffffffffffffffffffffffff16815250507f000000000000000000000000000000000000000000000000000000000000000081600181518110610f5257610f5161217c565b5b602002602001019073ffffffffffffffffffffffffffffffffffffffff16908173ffffffffffffffffffffffffffffffffffffffff16815250507f000000000000000000000000000000000000000000000000000000000000000073ffffffffffffffffffffffffffffffffffffffff16635c11d7958d8d843061012c42610fda9190612084565b6040518663ffffffff1660e01b8152600401610ffa9594939291906124b8565b5f604051808303815f87803b158015611011575f80fd5b505af1158015611023573d5f803e3d5ffd5b505050505f7f000000000000000000000000000000000000000000000000000000000000000073ffffffffffffffffffffffffffffffffffffffff166370a08231306040518263ffffffff1660e01b81526004016110819190611eb0565b602060405180830381865afa15801561109c573d5f803e3d5ffd5b505050506040513d601f19601f820116820180604052508101906110c0919061202c565b905083816110ce91906122aa565b925050506110db565b8a90505b8060025f3373ffffffffffffffffffffffffffffffffffffffff1673ffffffffffffffffffffffffffffffffffffffff1681526020019081526020015f205f8282546111279190612084565b9250508190555061113960018d61187a565b7f7b7cd0ddbbea241880e825e1eb51c30752cb96dd7efeb4be691ec55dfa4d8963338260405161116a9291906122dd565b60405180910390a1505050505050505050611183611a5d565b505050565b6003602052805f5260405f205f915090505481565b7f000000000000000000000000000000000000000000000000000000000000000081565b6111c9611995565b80807f0000000000000000000000000000000000000000000000000000000000000000101561122d576040517f0fc0517400000000000000000000000000000000000000000000000000000000815260040161122490612580565b60405180910390fd5b8060025f3373ffffffffffffffffffffffffffffffffffffffff1673ffffffffffffffffffffffffffffffffffffffff1681526020019081526020015f205410156112ad576040517fe7fe37fb0000000000000000000000000000000000000000000000000000000081526004016112a4906125e8565b60405180910390fd5b8160025f3373ffffffffffffffffffffffffffffffffffffffff1673ffffffffffffffffffffffffffffffffffffffff1681526020019081526020015f205f8282546112f991906122aa565b9250508190555061132a5f7f000000000000000000000000000000000000000000000000000000000000000061187a565b7f1ff21e81cff87fccbac096ad565f52cb1b358db04a736a6a137cceb4a287a702338360405161135b9291906122dd565b60405180910390a16113ae33837f000000000000000000000000000000000000000000000000000000000000000073ffffffffffffffffffffffffffffffffffffffff16611a669092919063ffffffff16565b506113b7611a5d565b50565b6113c2611ae5565b6113cb5f611b6c565b565b7f000000000000000000000000000000000000000000000000000000000000000081565b60055f9054906101000a900473ffffffffffffffffffffffffffffffffffffffff1681565b5f805f9054906101000a900473ffffffffffffffffffffffffffffffffffffffff16905090565b611445611ae5565b61149081837f000000000000000000000000000000000000000000000000000000000000000073ffffffffffffffffffffffffffffffffffffffff16611a669092919063ffffffff16565b5050565b61149c611995565b6114a633346103c4565b6114ae611a5d565b565b6114b8611ae5565b5f73ffffffffffffffffffffffffffffffffffffffff168173ffffffffffffffffffffffffffffffffffffffff1603611528575f6040517f1e4fbdf700000000000000000000000000000000000000000000000000000000815260040161151f9190611eb0565b60405180910390fd5b61153181611b6c565b50565b60045481565b7f000000000000000000000000000000000000000000000000000000000000000081565b7f000000000000000000000000000000000000000000000000000000000000000081565b5f7f000000000000000000000000000000000000000000000000000000000000000073ffffffffffffffffffffffffffffffffffffffff168373ffffffffffffffffffffffffffffffffffffffff16036115de57819050611874565b5f60055f9054906101000a900473ffffffffffffffffffffffffffffffffffffffff1673ffffffffffffffffffffffffffffffffffffffff1663e6a43905857f00000000000000000000000000000000000000000000000000000000000000006040518363ffffffff1660e01b815260040161165b929190612304565b602060405180830381865afa158015611676573d5f803e3d5ffd5b505050506040513d601f19601f8201168201806040525081019061169a919061233f565b90507f000000000000000000000000000000000000000000000000000000000000000073ffffffffffffffffffffffffffffffffffffffff168173ffffffffffffffffffffffffffffffffffffffff160361172a576040517f08c379a000000000000000000000000000000000000000000000000000000000815260040161172190612660565b60405180910390fd5b5f808273ffffffffffffffffffffffffffffffffffffffff16630902f1ac6040518163ffffffff1660e01b8152600401606060405180830381865afa158015611775573d5f803e3d5ffd5b505050506040513d601f19601f8201168201806040525081019061179991906126fa565b50915091505f807f000000000000000000000000000000000000000000000000000000000000000073ffffffffffffffffffffffffffffffffffffffff168873ffffffffffffffffffffffffffffffffffffffff16106117fa5782846117fd565b83835b915091505f6103e588611810919061274a565b90505f826dffffffffffffffffffffffffffff168261182f919061274a565b90505f826103e886611841919061278b565b6dffffffffffffffffffffffffffff1661185b9190612084565b90508082611869919061214c565b985050505050505050505b92915050565b81156118d957600160035f8373ffffffffffffffffffffffffffffffffffffffff1673ffffffffffffffffffffffffffffffffffffffff1681526020019081526020015f205f8282546118cd9190612084565b925050819055506118f3565b600160045f8282546118eb9190612084565b925050819055505b5050565b5f7f000000000000000000000000000000000000000000000000000000000000000073ffffffffffffffffffffffffffffffffffffffff166370a08231306040518263ffffffff1660e01b81526004016119519190611eb0565b602060405180830381865afa15801561196c573d5f803e3d5ffd5b505050506040513d601f19601f82011682018060405250810190611990919061202c565b905090565b6002600154036119d1576040517f3ee5aeb500000000000000000000000000000000000000000000000000000000815260040160405180910390fd5b6002600181905550565b611a57848573ffffffffffffffffffffffffffffffffffffffff166323b872dd868686604051602401611a10939291906127c7565b604051602081830303815290604052915060e01b6020820180517bffffffffffffffffffffffffffffffffffffffffffffffffffffffff8381831617835250505050611c2d565b50505050565b60018081905550565b611ae0838473ffffffffffffffffffffffffffffffffffffffff1663a9059cbb8585604051602401611a999291906122dd565b604051602081830303815290604052915060e01b6020820180517bffffffffffffffffffffffffffffffffffffffffffffffffffffffff8381831617835250505050611c2d565b505050565b611aed611cc8565b73ffffffffffffffffffffffffffffffffffffffff16611b0b611416565b73ffffffffffffffffffffffffffffffffffffffff1614611b6a57611b2e611cc8565b6040517f118cdaa7000000000000000000000000000000000000000000000000000000008152600401611b619190611eb0565b60405180910390fd5b565b5f805f9054906101000a900473ffffffffffffffffffffffffffffffffffffffff169050815f806101000a81548173ffffffffffffffffffffffffffffffffffffffff021916908373ffffffffffffffffffffffffffffffffffffffff1602179055508173ffffffffffffffffffffffffffffffffffffffff168173ffffffffffffffffffffffffffffffffffffffff167f8be0079c531659141344cd1fd0a4f28419497f9722a3daafe3b4186f6b6457e060405160405180910390a35050565b5f8060205f8451602086015f885af180611c4c576040513d5f823e3d81fd5b3d92505f519150505f8214611c65576001811415611c80565b5f8473ffffffffffffffffffffffffffffffffffffffff163b145b15611cc257836040517f5274afe7000000000000000000000000000000000000000000000000000000008152600401611cb99190611eb0565b60405180910390fd5b50505050565b5f33905090565b5f82825260208201905092915050565b7f4f7065726174696f6e20646f6573206e6f7420657869737473206f72206461745f8201527f612077617320696e636f72726563740000000000000000000000000000000000602082015250565b5f611d39602f83611ccf565b9150611d4482611cdf565b604082019050919050565b5f6020820190508181035f830152611d6681611d2d565b9050919050565b5f819050919050565b611d7f81611d6d565b82525050565b5f602082019050611d985f830184611d76565b92915050565b5f80fd5b5f73ffffffffffffffffffffffffffffffffffffffff82169050919050565b5f611dcb82611da2565b9050919050565b611ddb81611dc1565b8114611de5575f80fd5b50565b5f81359050611df681611dd2565b92915050565b611e0581611d6d565b8114611e0f575f80fd5b50565b5f81359050611e2081611dfc565b92915050565b5f805f60608486031215611e3d57611e3c611d9e565b5b5f611e4a86828701611de8565b9350506020611e5b86828701611e12565b9250506040611e6c86828701611e12565b9150509250925092565b5f60208284031215611e8b57611e8a611d9e565b5b5f611e9884828501611de8565b91505092915050565b611eaa81611dc1565b82525050565b5f602082019050611ec35f830184611ea1565b92915050565b5f60208284031215611ede57611edd611d9e565b5b5f611eeb84828501611e12565b91505092915050565b5f819050919050565b5f611f17611f12611f0d84611da2565b611ef4565b611da2565b9050919050565b5f611f2882611efd565b9050919050565b5f611f3982611f1e565b9050919050565b611f4981611f2f565b82525050565b5f602082019050611f625f830184611f40565b92915050565b5f611f7282611f1e565b9050919050565b611f8281611f68565b82525050565b5f602082019050611f9b5f830184611f79565b92915050565b5f8060408385031215611fb757611fb6611d9e565b5b5f611fc485828601611e12565b9250506020611fd585828601611de8565b9150509250929050565b5f611fe982611f1e565b9050919050565b611ff981611fdf565b82525050565b5f6020820190506120125f830184611ff0565b92915050565b5f8151905061202681611dfc565b92915050565b5f6020828403121561204157612040611d9e565b5b5f61204e84828501612018565b91505092915050565b7f4e487b71000000000000000000000000000000000000000000000000000000005f52601160045260245ffd5b5f61208e82611d6d565b915061209983611d6d565b92508282019050808211156120b1576120b0612057565b5b92915050565b7f546f74616c204b69707542616e6b27732066756e6473206578636565646564005f82015250565b5f6120eb601f83611ccf565b91506120f6826120b7565b602082019050919050565b5f6020820190508181035f830152612118816120df565b9050919050565b7f4e487b71000000000000000000000000000000000000000000000000000000005f52601260045260245ffd5b5f61215682611d6d565b915061216183611d6d565b9250826121715761217061211f565b5b828204905092915050565b7f4e487b71000000000000000000000000000000000000000000000000000000005f52603260045260245ffd5b5f81519050919050565b5f82825260208201905092915050565b5f819050602082019050919050565b6121db81611dc1565b82525050565b5f6121ec83836121d2565b60208301905092915050565b5f602082019050919050565b5f61220e826121a9565b61221881856121b3565b9350612223836121c3565b805f5b8381101561225357815161223a88826121e1565b9750612245836121f8565b925050600181019050612226565b5085935050505092915050565b5f6080820190506122735f830187611d76565b81810360208301526122858186612204565b90506122946040830185611ea1565b6122a16060830184611d76565b95945050505050565b5f6122b482611d6d565b91506122bf83611d6d565b92508282039050818111156122d7576122d6612057565b5b92915050565b5f6040820190506122f05f830185611ea1565b6122fd6020830184611d76565b9392505050565b5f6040820190506123175f830185611ea1565b6123246020830184611ea1565b9392505050565b5f8151905061233981611dd2565b92915050565b5f6020828403121561235457612353611d9e565b5b5f6123618482850161232b565b91505092915050565b7f45524332303a20496e73756666696369656e7420616c6c6f77616e636520666f5f8201527f72207472616e7366657246726f6d000000000000000000000000000000000000602082015250565b5f6123c4602e83611ccf565b91506123cf8261236a565b604082019050919050565b5f6020820190508181035f8301526123f1816123b8565b9050919050565b5f819050919050565b5f61241b612416612411846123f8565b611ef4565b611d6d565b9050919050565b61242b81612401565b82525050565b5f6040820190506124445f830185611ea1565b6124516020830184612422565b9392505050565b5f8115159050919050565b61246c81612458565b8114612476575f80fd5b50565b5f8151905061248781612463565b92915050565b5f602082840312156124a2576124a1611d9e565b5b5f6124af84828501612479565b91505092915050565b5f60a0820190506124cb5f830188611d76565b6124d86020830187611d76565b81810360408301526124ea8186612204565b90506124f96060830185611ea1565b6125066080830184611d76565b9695505050505050565b7f416d6f756e74206578636565647320746865206d6178696d756d2077697468645f8201527f726177616c000000000000000000000000000000000000000000000000000000602082015250565b5f61256a602583611ccf565b915061257582612510565b604082019050919050565b5f6020820190508181035f8301526125978161255e565b9050919050565b7f4e6f7420656e6f75676820666f756e64730000000000000000000000000000005f82015250565b5f6125d2601183611ccf565b91506125dd8261259e565b602082019050919050565b5f6020820190508181035f8301526125ff816125c6565b9050919050565b5f82825260208201905092915050565b7f4e6f2070616972000000000000000000000000000000000000000000000000005f82015250565b5f61264a600783612606565b915061265582612616565b602082019050919050565b5f6020820190508181035f8301526126778161263e565b9050919050565b5f6dffffffffffffffffffffffffffff82169050919050565b6126a08161267e565b81146126aa575f80fd5b50565b5f815190506126bb81612697565b92915050565b5f63ffffffff82169050919050565b6126d9816126c1565b81146126e3575f80fd5b50565b5f815190506126f4816126d0565b92915050565b5f805f6060848603121561271157612710611d9e565b5b5f61271e868287016126ad565b935050602061272f868287016126ad565b9250506040612740868287016126e6565b9150509250925092565b5f61275482611d6d565b915061275f83611d6d565b925082820261276d81611d6d565b9150828204841483151761278457612783612057565b5b5092915050565b5f6127958261267e565b91506127a08361267e565b92508282026127ae8161267e565b91508082146127c0576127bf612057565b5b5092915050565b5f6060820190506127da5f830186611ea1565b6127e76020830185611ea1565b6127f46040830184611d76565b94935050505056fea26469706673582212207e13f7e609939e916397f2ae9cd1db38d85fad3a994f2ee436261fd4fc97f51964736f6c634300081a0033",
					"opcodes": "PUSH2 0x120 PUSH1 0x40 MSTORE CALLVALUE DUP1 ISZERO PUSH2 0x10 JUMPI PUSH0 DUP1 REVERT JUMPDEST POP PUSH1 0x40 MLOAD PUSH2 0x2E68 CODESIZE SUB DUP1 PUSH2 0x2E68 DUP4 CODECOPY DUP2 DUP2 ADD PUSH1 0x40 MSTORE DUP2 ADD SWAP1 PUSH2 0x32 SWAP2 SWAP1 PUSH2 0x3D6 JUMP JUMPDEST DUP6 PUSH0 PUSH20 0xFFFFFFFFFFFFFFFFFFFFFFFFFFFFFFFFFFFFFFFF AND DUP2 PUSH20 0xFFFFFFFFFFFFFFFFFFFFFFFFFFFFFFFFFFFFFFFF AND SUB PUSH2 0xA3 JUMPI PUSH0 PUSH1 0x40 MLOAD PUSH32 0x1E4FBDF700000000000000000000000000000000000000000000000000000000 DUP2 MSTORE PUSH1 0x4 ADD PUSH2 0x9A SWAP2 SWAP1 PUSH2 0x46E JUMP JUMPDEST PUSH1 0x40 MLOAD DUP1 SWAP2 SUB SWAP1 REVERT JUMPDEST PUSH2 0xB2 DUP2 PUSH2 0x284 PUSH1 0x20 SHL PUSH1 0x20 SHR JUMP JUMPDEST POP PUSH1 0x1 DUP1 DUP2 SWAP1 SSTORE POP PUSH1 0xA DUP3 LT DUP1 PUSH2 0xC9 JUMPI POP PUSH1 0x1 DUP2 LT JUMPDEST ISZERO PUSH2 0xFF JUMPI PUSH1 0x40 MLOAD PUSH31 0x1D65100000000000000000000000000000000000000000000000000000000 DUP2 MSTORE PUSH1 0x4 ADD PUSH1 0x40 MLOAD DUP1 SWAP2 SUB SWAP1 REVERT JUMPDEST PUSH4 0x5F5E100 DUP3 PUSH2 0x10F SWAP2 SWAP1 PUSH2 0x4B4 JUMP JUMPDEST PUSH1 0x80 DUP2 DUP2 MSTORE POP POP PUSH4 0x5F5E100 DUP2 PUSH2 0x126 SWAP2 SWAP1 PUSH2 0x4B4 JUMP JUMPDEST PUSH1 0xA0 DUP2 DUP2 MSTORE POP POP DUP4 PUSH20 0xFFFFFFFFFFFFFFFFFFFFFFFFFFFFFFFFFFFFFFFF AND PUSH1 0xC0 DUP2 PUSH20 0xFFFFFFFFFFFFFFFFFFFFFFFFFFFFFFFFFFFFFFFF AND DUP2 MSTORE POP POP DUP5 PUSH20 0xFFFFFFFFFFFFFFFFFFFFFFFFFFFFFFFFFFFFFFFF AND PUSH1 0xE0 DUP2 PUSH20 0xFFFFFFFFFFFFFFFFFFFFFFFFFFFFFFFFFFFFFFFF AND DUP2 MSTORE POP POP DUP3 PUSH20 0xFFFFFFFFFFFFFFFFFFFFFFFFFFFFFFFFFFFFFFFF AND PUSH2 0x100 DUP2 PUSH20 0xFFFFFFFFFFFFFFFFFFFFFFFFFFFFFFFFFFFFFFFF AND DUP2 MSTORE POP POP PUSH2 0x100 MLOAD PUSH20 0xFFFFFFFFFFFFFFFFFFFFFFFFFFFFFFFFFFFFFFFF AND PUSH4 0xC45A0155 PUSH1 0x40 MLOAD DUP2 PUSH4 0xFFFFFFFF AND PUSH1 0xE0 SHL DUP2 MSTORE PUSH1 0x4 ADD PUSH1 0x20 PUSH1 0x40 MLOAD DUP1 DUP4 SUB DUP2 DUP7 GAS STATICCALL ISZERO DUP1 ISZERO PUSH2 0x216 JUMPI RETURNDATASIZE PUSH0 DUP1 RETURNDATACOPY RETURNDATASIZE PUSH0 REVERT JUMPDEST POP POP POP POP PUSH1 0x40 MLOAD RETURNDATASIZE PUSH1 0x1F NOT PUSH1 0x1F DUP3 ADD AND DUP3 ADD DUP1 PUSH1 0x40 MSTORE POP DUP2 ADD SWAP1 PUSH2 0x23A SWAP2 SWAP1 PUSH2 0x4F5 JUMP JUMPDEST PUSH1 0x5 PUSH0 PUSH2 0x100 EXP DUP2 SLOAD DUP2 PUSH20 0xFFFFFFFFFFFFFFFFFFFFFFFFFFFFFFFFFFFFFFFF MUL NOT AND SWAP1 DUP4 PUSH20 0xFFFFFFFFFFFFFFFFFFFFFFFFFFFFFFFFFFFFFFFF AND MUL OR SWAP1 SSTORE POP POP POP POP POP POP POP PUSH2 0x520 JUMP JUMPDEST PUSH0 DUP1 PUSH0 SWAP1 SLOAD SWAP1 PUSH2 0x100 EXP SWAP1 DIV PUSH20 0xFFFFFFFFFFFFFFFFFFFFFFFFFFFFFFFFFFFFFFFF AND SWAP1 POP DUP2 PUSH0 DUP1 PUSH2 0x100 EXP DUP2 SLOAD DUP2 PUSH20 0xFFFFFFFFFFFFFFFFFFFFFFFFFFFFFFFFFFFFFFFF MUL NOT AND SWAP1 DUP4 PUSH20 0xFFFFFFFFFFFFFFFFFFFFFFFFFFFFFFFFFFFFFFFF AND MUL OR SWAP1 SSTORE POP DUP2 PUSH20 0xFFFFFFFFFFFFFFFFFFFFFFFFFFFFFFFFFFFFFFFF AND DUP2 PUSH20 0xFFFFFFFFFFFFFFFFFFFFFFFFFFFFFFFFFFFFFFFF AND PUSH32 0x8BE0079C531659141344CD1FD0A4F28419497F9722A3DAAFE3B4186F6B6457E0 PUSH1 0x40 MLOAD PUSH1 0x40 MLOAD DUP1 SWAP2 SUB SWAP1 LOG3 POP POP JUMP JUMPDEST PUSH0 DUP1 REVERT JUMPDEST PUSH0 PUSH20 0xFFFFFFFFFFFFFFFFFFFFFFFFFFFFFFFFFFFFFFFF DUP3 AND SWAP1 POP SWAP2 SWAP1 POP JUMP JUMPDEST PUSH0 PUSH2 0x372 DUP3 PUSH2 0x349 JUMP JUMPDEST SWAP1 POP SWAP2 SWAP1 POP JUMP JUMPDEST PUSH2 0x382 DUP2 PUSH2 0x368 JUMP JUMPDEST DUP2 EQ PUSH2 0x38C JUMPI PUSH0 DUP1 REVERT JUMPDEST POP JUMP JUMPDEST PUSH0 DUP2 MLOAD SWAP1 POP PUSH2 0x39D DUP2 PUSH2 0x379 JUMP JUMPDEST SWAP3 SWAP2 POP POP JUMP JUMPDEST PUSH0 DUP2 SWAP1 POP SWAP2 SWAP1 POP JUMP JUMPDEST PUSH2 0x3B5 DUP2 PUSH2 0x3A3 JUMP JUMPDEST DUP2 EQ PUSH2 0x3BF JUMPI PUSH0 DUP1 REVERT JUMPDEST POP JUMP JUMPDEST PUSH0 DUP2 MLOAD SWAP1 POP PUSH2 0x3D0 DUP2 PUSH2 0x3AC JUMP JUMPDEST SWAP3 SWAP2 POP POP JUMP JUMPDEST PUSH0 DUP1 PUSH0 DUP1 PUSH0 DUP1 PUSH1 0xC0 DUP8 DUP10 SUB SLT ISZERO PUSH2 0x3F0 JUMPI PUSH2 0x3EF PUSH2 0x345 JUMP JUMPDEST JUMPDEST PUSH0 PUSH2 0x3FD DUP10 DUP3 DUP11 ADD PUSH2 0x38F JUMP JUMPDEST SWAP7 POP POP PUSH1 0x20 PUSH2 0x40E DUP10 DUP3 DUP11 ADD PUSH2 0x38F JUMP JUMPDEST SWAP6 POP POP PUSH1 0x40 PUSH2 0x41F DUP10 DUP3 DUP11 ADD PUSH2 0x38F JUMP JUMPDEST SWAP5 POP POP PUSH1 0x60 PUSH2 0x430 DUP10 DUP3 DUP11 ADD PUSH2 0x38F JUMP JUMPDEST SWAP4 POP POP PUSH1 0x80 PUSH2 0x441 DUP10 DUP3 DUP11 ADD PUSH2 0x3C2 JUMP JUMPDEST SWAP3 POP POP PUSH1 0xA0 PUSH2 0x452 DUP10 DUP3 DUP11 ADD PUSH2 0x3C2 JUMP JUMPDEST SWAP2 POP POP SWAP3 SWAP6 POP SWAP3 SWAP6 POP SWAP3 SWAP6 JUMP JUMPDEST PUSH2 0x468 DUP2 PUSH2 0x368 JUMP JUMPDEST DUP3 MSTORE POP POP JUMP JUMPDEST PUSH0 PUSH1 0x20 DUP3 ADD SWAP1 POP PUSH2 0x481 PUSH0 DUP4 ADD DUP5 PUSH2 0x45F JUMP JUMPDEST SWAP3 SWAP2 POP POP JUMP JUMPDEST PUSH32 0x4E487B7100000000000000000000000000000000000000000000000000000000 PUSH0 MSTORE PUSH1 0x11 PUSH1 0x4 MSTORE PUSH1 0x24 PUSH0 REVERT JUMPDEST PUSH0 PUSH2 0x4BE DUP3 PUSH2 0x3A3 JUMP JUMPDEST SWAP2 POP PUSH2 0x4C9 DUP4 PUSH2 0x3A3 JUMP JUMPDEST SWAP3 POP DUP3 DUP3 MUL PUSH2 0x4D7 DUP2 PUSH2 0x3A3 JUMP JUMPDEST SWAP2 POP DUP3 DUP3 DIV DUP5 EQ DUP4 ISZERO OR PUSH2 0x4EE JUMPI PUSH2 0x4ED PUSH2 0x487 JUMP JUMPDEST JUMPDEST POP SWAP3 SWAP2 POP POP JUMP JUMPDEST PUSH0 PUSH1 0x20 DUP3 DUP5 SUB SLT ISZERO PUSH2 0x50A JUMPI PUSH2 0x509 PUSH2 0x345 JUMP JUMPDEST JUMPDEST PUSH0 PUSH2 0x517 DUP5 DUP3 DUP6 ADD PUSH2 0x38F JUMP JUMPDEST SWAP2 POP POP SWAP3 SWAP2 POP POP JUMP JUMPDEST PUSH1 0x80 MLOAD PUSH1 0xA0 MLOAD PUSH1 0xC0 MLOAD PUSH1 0xE0 MLOAD PUSH2 0x100 MLOAD PUSH2 0x2832 PUSH2 0x636 PUSH0 CODECOPY PUSH0 DUP2 DUP2 PUSH2 0x6B0 ADD MSTORE DUP2 DUP2 PUSH2 0xDB3 ADD MSTORE DUP2 DUP2 PUSH2 0xE4F ADD MSTORE DUP2 DUP2 PUSH2 0xF8E ADD MSTORE PUSH2 0x13CF ADD MSTORE PUSH0 DUP2 DUP2 PUSH2 0x3C6 ADD MSTORE DUP2 DUP2 PUSH2 0x599 ADD MSTORE DUP2 DUP2 PUSH2 0x5D3 ADD MSTORE DUP2 DUP2 PUSH2 0x84D ADD MSTORE DUP2 DUP2 PUSH2 0x9C0 ADD MSTORE DUP2 DUP2 PUSH2 0xA52 ADD MSTORE DUP2 DUP2 PUSH2 0x119F ADD MSTORE PUSH2 0x169E ADD MSTORE PUSH0 DUP2 DUP2 PUSH2 0x417 ADD MSTORE DUP2 DUP2 PUSH2 0x4FB ADD MSTORE DUP2 DUP2 PUSH2 0x641 ADD MSTORE DUP2 DUP2 PUSH2 0x74C ADD MSTORE DUP2 DUP2 PUSH2 0x941 ADD MSTORE DUP2 DUP2 PUSH2 0xB98 ADD MSTORE DUP2 DUP2 PUSH2 0xCA9 ADD MSTORE DUP2 DUP2 PUSH2 0xD44 ADD MSTORE DUP2 DUP2 PUSH2 0xF1F ADD MSTORE DUP2 DUP2 PUSH2 0x102A ADD MSTORE DUP2 DUP2 PUSH2 0x1306 ADD MSTORE DUP2 DUP2 PUSH2 0x136A ADD MSTORE DUP2 DUP2 PUSH2 0x144C ADD MSTORE DUP2 DUP2 PUSH2 0x1560 ADD MSTORE DUP2 DUP2 PUSH2 0x1585 ADD MSTORE DUP2 DUP2 PUSH2 0x161F ADD MSTORE DUP2 DUP2 PUSH2 0x17A2 ADD MSTORE PUSH2 0x18FA ADD MSTORE PUSH0 DUP2 DUP2 PUSH2 0x8D5 ADD MSTORE PUSH2 0x11CD ADD MSTORE PUSH0 DUP2 DUP2 PUSH2 0x3F5 ADD MSTORE DUP2 DUP2 PUSH2 0xB76 ADD MSTORE PUSH2 0x153C ADD MSTORE PUSH2 0x2832 PUSH0 RETURN INVALID PUSH1 0x80 PUSH1 0x40 MSTORE PUSH1 0x4 CALLDATASIZE LT PUSH2 0xF6 JUMPI PUSH0 CALLDATALOAD PUSH1 0xE0 SHR DUP1 PUSH4 0x8BDB2AFA GT PUSH2 0x89 JUMPI DUP1 PUSH4 0xF2FDE38B GT PUSH2 0x58 JUMPI DUP1 PUSH4 0xF2FDE38B EQ PUSH2 0x31E JUMPI DUP1 PUSH4 0xF3DB702C EQ PUSH2 0x346 JUMPI DUP1 PUSH4 0xF6687AF7 EQ PUSH2 0x370 JUMPI DUP1 PUSH4 0xFF40E1D0 EQ PUSH2 0x39A JUMPI PUSH2 0x107 JUMP JUMPDEST DUP1 PUSH4 0x8BDB2AFA EQ PUSH2 0x298 JUMPI DUP1 PUSH4 0x8DA5CB5B EQ PUSH2 0x2C2 JUMPI DUP1 PUSH4 0x9E2B5339 EQ PUSH2 0x2EC JUMPI DUP1 PUSH4 0xD0E30DB0 EQ PUSH2 0x314 JUMPI PUSH2 0x107 JUMP JUMPDEST DUP1 PUSH4 0x4DBE7E92 GT PUSH2 0xC5 JUMPI DUP1 PUSH4 0x4DBE7E92 EQ PUSH2 0x206 JUMPI DUP1 PUSH4 0x5B06DECE EQ PUSH2 0x230 JUMPI DUP1 PUSH4 0x715018A6 EQ PUSH2 0x258 JUMPI DUP1 PUSH4 0x735DE9F7 EQ PUSH2 0x26E JUMPI PUSH2 0x107 JUMP JUMPDEST DUP1 PUSH4 0x6F69ACC EQ PUSH2 0x14E JUMPI DUP1 PUSH4 0x89781A9 EQ PUSH2 0x178 JUMPI DUP1 PUSH4 0x21425EE0 EQ PUSH2 0x1A2 JUMPI DUP1 PUSH4 0x260AD389 EQ PUSH2 0x1CA JUMPI PUSH2 0x107 JUMP JUMPDEST CALLDATASIZE PUSH2 0x107 JUMPI PUSH2 0x105 CALLER CALLVALUE PUSH2 0x3C4 JUMP JUMPDEST STOP JUMPDEST CALLVALUE DUP1 ISZERO PUSH2 0x112 JUMPI PUSH0 DUP1 REVERT JUMPDEST POP PUSH1 0x40 MLOAD PUSH32 0x336EA14200000000000000000000000000000000000000000000000000000000 DUP2 MSTORE PUSH1 0x4 ADD PUSH2 0x145 SWAP1 PUSH2 0x1D4F JUMP JUMPDEST PUSH1 0x40 MLOAD DUP1 SWAP2 SUB SWAP1 REVERT JUMPDEST CALLVALUE DUP1 ISZERO PUSH2 0x159 JUMPI PUSH0 DUP1 REVERT JUMPDEST POP PUSH2 0x162 PUSH2 0x8B6 JUMP JUMPDEST PUSH1 0x40 MLOAD PUSH2 0x16F SWAP2 SWAP1 PUSH2 0x1D85 JUMP JUMPDEST PUSH1 0x40 MLOAD DUP1 SWAP2 SUB SWAP1 RETURN JUMPDEST CALLVALUE DUP1 ISZERO PUSH2 0x183 JUMPI PUSH0 DUP1 REVERT JUMPDEST POP PUSH2 0x18C PUSH2 0x8D3 JUMP JUMPDEST PUSH1 0x40 MLOAD PUSH2 0x199 SWAP2 SWAP1 PUSH2 0x1D85 JUMP JUMPDEST PUSH1 0x40 MLOAD DUP1 SWAP2 SUB SWAP1 RETURN JUMPDEST CALLVALUE DUP1 ISZERO PUSH2 0x1AD JUMPI PUSH0 DUP1 REVERT JUMPDEST POP PUSH2 0x1C8 PUSH1 0x4 DUP1 CALLDATASIZE SUB DUP2 ADD SWAP1 PUSH2 0x1C3 SWAP2 SWAP1 PUSH2 0x1E26 JUMP JUMPDEST PUSH2 0x8F7 JUMP JUMPDEST STOP JUMPDEST CALLVALUE DUP1 ISZERO PUSH2 0x1D5 JUMPI PUSH0 DUP1 REVERT JUMPDEST POP PUSH2 0x1F0 PUSH1 0x4 DUP1 CALLDATASIZE SUB DUP2 ADD SWAP1 PUSH2 0x1EB SWAP2 SWAP1 PUSH2 0x1E76 JUMP JUMPDEST PUSH2 0x1188 JUMP JUMPDEST PUSH1 0x40 MLOAD PUSH2 0x1FD SWAP2 SWAP1 PUSH2 0x1D85 JUMP JUMPDEST PUSH1 0x40 MLOAD DUP1 SWAP2 SUB SWAP1 RETURN JUMPDEST CALLVALUE DUP1 ISZERO PUSH2 0x211 JUMPI PUSH0 DUP1 REVERT JUMPDEST POP PUSH2 0x21A PUSH2 0x119D JUMP JUMPDEST PUSH1 0x40 MLOAD PUSH2 0x227 SWAP2 SWAP1 PUSH2 0x1EB0 JUMP JUMPDEST PUSH1 0x40 MLOAD DUP1 SWAP2 SUB SWAP1 RETURN JUMPDEST CALLVALUE DUP1 ISZERO PUSH2 0x23B JUMPI PUSH0 DUP1 REVERT JUMPDEST POP PUSH2 0x256 PUSH1 0x4 DUP1 CALLDATASIZE SUB DUP2 ADD SWAP1 PUSH2 0x251 SWAP2 SWAP1 PUSH2 0x1EC9 JUMP JUMPDEST PUSH2 0x11C1 JUMP JUMPDEST STOP JUMPDEST CALLVALUE DUP1 ISZERO PUSH2 0x263 JUMPI PUSH0 DUP1 REVERT JUMPDEST POP PUSH2 0x26C PUSH2 0x13BA JUMP JUMPDEST STOP JUMPDEST CALLVALUE DUP1 ISZERO PUSH2 0x279 JUMPI PUSH0 DUP1 REVERT JUMPDEST POP PUSH2 0x282 PUSH2 0x13CD JUMP JUMPDEST PUSH1 0x40 MLOAD PUSH2 0x28F SWAP2 SWAP1 PUSH2 0x1F4F JUMP JUMPDEST PUSH1 0x40 MLOAD DUP1 SWAP2 SUB SWAP1 RETURN JUMPDEST CALLVALUE DUP1 ISZERO PUSH2 0x2A3 JUMPI PUSH0 DUP1 REVERT JUMPDEST POP PUSH2 0x2AC PUSH2 0x13F1 JUMP JUMPDEST PUSH1 0x40 MLOAD PUSH2 0x2B9 SWAP2 SWAP1 PUSH2 0x1F88 JUMP JUMPDEST PUSH1 0x40 MLOAD DUP1 SWAP2 SUB SWAP1 RETURN JUMPDEST CALLVALUE DUP1 ISZERO PUSH2 0x2CD JUMPI PUSH0 DUP1 REVERT JUMPDEST POP PUSH2 0x2D6 PUSH2 0x1416 JUMP JUMPDEST PUSH1 0x40 MLOAD PUSH2 0x2E3 SWAP2 SWAP1 PUSH2 0x1EB0 JUMP JUMPDEST PUSH1 0x40 MLOAD DUP1 SWAP2 SUB SWAP1 RETURN JUMPDEST CALLVALUE DUP1 ISZERO PUSH2 0x2F7 JUMPI PUSH0 DUP1 REVERT JUMPDEST POP PUSH2 0x312 PUSH1 0x4 DUP1 CALLDATASIZE SUB DUP2 ADD SWAP1 PUSH2 0x30D SWAP2 SWAP1 PUSH2 0x1FA1 JUMP JUMPDEST PUSH2 0x143D JUMP JUMPDEST STOP JUMPDEST PUSH2 0x31C PUSH2 0x1494 JUMP JUMPDEST STOP JUMPDEST CALLVALUE DUP1 ISZERO PUSH2 0x329 JUMPI PUSH0 DUP1 REVERT JUMPDEST POP PUSH2 0x344 PUSH1 0x4 DUP1 CALLDATASIZE SUB DUP2 ADD SWAP1 PUSH2 0x33F SWAP2 SWAP1 PUSH2 0x1E76 JUMP JUMPDEST PUSH2 0x14B0 JUMP JUMPDEST STOP JUMPDEST CALLVALUE DUP1 ISZERO PUSH2 0x351 JUMPI PUSH0 DUP1 REVERT JUMPDEST POP PUSH2 0x35A PUSH2 0x1534 JUMP JUMPDEST PUSH1 0x40 MLOAD PUSH2 0x367 SWAP2 SWAP1 PUSH2 0x1D85 JUMP JUMPDEST PUSH1 0x40 MLOAD DUP1 SWAP2 SUB SWAP1 RETURN JUMPDEST CALLVALUE DUP1 ISZERO PUSH2 0x37B JUMPI PUSH0 DUP1 REVERT JUMPDEST POP PUSH2 0x384 PUSH2 0x153A JUMP JUMPDEST PUSH1 0x40 MLOAD PUSH2 0x391 SWAP2 SWAP1 PUSH2 0x1D85 JUMP JUMPDEST PUSH1 0x40 MLOAD DUP1 SWAP2 SUB SWAP1 RETURN JUMPDEST CALLVALUE DUP1 ISZERO PUSH2 0x3A5 JUMPI PUSH0 DUP1 REVERT JUMPDEST POP PUSH2 0x3AE PUSH2 0x155E JUMP JUMPDEST PUSH1 0x40 MLOAD PUSH2 0x3BB SWAP2 SWAP1 PUSH2 0x1FFF JUMP JUMPDEST PUSH1 0x40 MLOAD DUP1 SWAP2 SUB SWAP1 RETURN JUMPDEST PUSH32 0x0 DUP2 PUSH0 PUSH2 0x3F1 DUP4 DUP4 PUSH2 0x1582 JUMP JUMPDEST SWAP1 POP PUSH32 0x0 DUP2 PUSH32 0x0 PUSH20 0xFFFFFFFFFFFFFFFFFFFFFFFFFFFFFFFFFFFFFFFF AND PUSH4 0x70A08231 ADDRESS PUSH1 0x40 MLOAD DUP3 PUSH4 0xFFFFFFFF AND PUSH1 0xE0 SHL DUP2 MSTORE PUSH1 0x4 ADD PUSH2 0x46E SWAP2 SWAP1 PUSH2 0x1EB0 JUMP JUMPDEST PUSH1 0x20 PUSH1 0x40 MLOAD DUP1 DUP4 SUB DUP2 DUP7 GAS STATICCALL ISZERO DUP1 ISZERO PUSH2 0x489 JUMPI RETURNDATASIZE PUSH0 DUP1 RETURNDATACOPY RETURNDATASIZE PUSH0 REVERT JUMPDEST POP POP POP POP PUSH1 0x40 MLOAD RETURNDATASIZE PUSH1 0x1F NOT PUSH1 0x1F DUP3 ADD AND DUP3 ADD DUP1 PUSH1 0x40 MSTORE POP DUP2 ADD SWAP1 PUSH2 0x4AD SWAP2 SWAP1 PUSH2 0x202C JUMP JUMPDEST PUSH2 0x4B7 SWAP2 SWAP1 PUSH2 0x2084 JUMP JUMPDEST GT ISZERO PUSH2 0x4F8 JUMPI PUSH1 0x40 MLOAD PUSH32 0xA2D2E1B200000000000000000000000000000000000000000000000000000000 DUP2 MSTORE PUSH1 0x4 ADD PUSH2 0x4EF SWAP1 PUSH2 0x2101 JUMP JUMPDEST PUSH1 0x40 MLOAD DUP1 SWAP2 SUB SWAP1 REVERT JUMPDEST PUSH0 PUSH32 0x0 PUSH20 0xFFFFFFFFFFFFFFFFFFFFFFFFFFFFFFFFFFFFFFFF AND PUSH4 0x70A08231 ADDRESS PUSH1 0x40 MLOAD DUP3 PUSH4 0xFFFFFFFF AND PUSH1 0xE0 SHL DUP2 MSTORE PUSH1 0x4 ADD PUSH2 0x552 SWAP2 SWAP1 PUSH2 0x1EB0 JUMP JUMPDEST PUSH1 0x20 PUSH1 0x40 MLOAD DUP1 DUP4 SUB DUP2 DUP7 GAS STATICCALL ISZERO DUP1 ISZERO PUSH2 0x56D JUMPI RETURNDATASIZE PUSH0 DUP1 RETURNDATACOPY RETURNDATASIZE PUSH0 REVERT JUMPDEST POP POP POP POP PUSH1 0x40 MLOAD RETURNDATASIZE PUSH1 0x1F NOT PUSH1 0x1F DUP3 ADD AND DUP3 ADD DUP1 PUSH1 0x40 MSTORE POP DUP2 ADD SWAP1 PUSH2 0x591 SWAP2 SWAP1 PUSH2 0x202C JUMP JUMPDEST SWAP1 POP PUSH0 PUSH2 0x5BE PUSH32 0x0 DUP8 PUSH2 0x1582 JUMP JUMPDEST SWAP1 POP PUSH1 0x5A DUP2 PUSH2 0x5CD SWAP2 SWAP1 PUSH2 0x214C JUMP JUMPDEST SWAP1 POP PUSH1 0x60 PUSH32 0x0 DUP2 PUSH0 DUP2 MLOAD DUP2 LT PUSH2 0x605 JUMPI PUSH2 0x604 PUSH2 0x217C JUMP JUMPDEST JUMPDEST PUSH1 0x20 MUL PUSH1 0x20 ADD ADD SWAP1 PUSH20 0xFFFFFFFFFFFFFFFFFFFFFFFFFFFFFFFFFFFFFFFF AND SWAP1 DUP2 PUSH20 0xFFFFFFFFFFFFFFFFFFFFFFFFFFFFFFFFFFFFFFFF AND DUP2 MSTORE POP POP PUSH32 0x0 DUP2 PUSH1 0x1 DUP2 MLOAD DUP2 LT PUSH2 0x674 JUMPI PUSH2 0x673 PUSH2 0x217C JUMP JUMPDEST JUMPDEST PUSH1 0x20 MUL PUSH1 0x20 ADD ADD SWAP1 PUSH20 0xFFFFFFFFFFFFFFFFFFFFFFFFFFFFFFFFFFFFFFFF AND SWAP1 DUP2 PUSH20 0xFFFFFFFFFFFFFFFFFFFFFFFFFFFFFFFFFFFFFFFF AND DUP2 MSTORE POP POP PUSH32 0x0 PUSH20 0xFFFFFFFFFFFFFFFFFFFFFFFFFFFFFFFFFFFFFFFF AND PUSH4 0xB6F9DE95 DUP9 DUP5 DUP5 ADDRESS PUSH2 0x12C TIMESTAMP PUSH2 0x6FC SWAP2 SWAP1 PUSH2 0x2084 JUMP JUMPDEST PUSH1 0x40 MLOAD DUP7 PUSH4 0xFFFFFFFF AND PUSH1 0xE0 SHL DUP2 MSTORE PUSH1 0x4 ADD PUSH2 0x71B SWAP5 SWAP4 SWAP3 SWAP2 SWAP1 PUSH2 0x2260 JUMP JUMPDEST PUSH0 PUSH1 0x40 MLOAD DUP1 DUP4 SUB DUP2 DUP6 DUP9 DUP1 EXTCODESIZE ISZERO DUP1 ISZERO PUSH2 0x732 JUMPI PUSH0 DUP1 REVERT JUMPDEST POP GAS CALL ISZERO DUP1 ISZERO PUSH2 0x744 JUMPI RETURNDATASIZE PUSH0 DUP1 RETURNDATACOPY RETURNDATASIZE PUSH0 REVERT JUMPDEST POP POP POP POP POP PUSH0 PUSH32 0x0 PUSH20 0xFFFFFFFFFFFFFFFFFFFFFFFFFFFFFFFFFFFFFFFF AND PUSH4 0x70A08231 ADDRESS PUSH1 0x40 MLOAD DUP3 PUSH4 0xFFFFFFFF AND PUSH1 0xE0 SHL DUP2 MSTORE PUSH1 0x4 ADD PUSH2 0x7A3 SWAP2 SWAP1 PUSH2 0x1EB0 JUMP JUMPDEST PUSH1 0x20 PUSH1 0x40 MLOAD DUP1 DUP4 SUB DUP2 DUP7 GAS STATICCALL ISZERO DUP1 ISZERO PUSH2 0x7BE JUMPI RETURNDATASIZE PUSH0 DUP1 RETURNDATACOPY RETURNDATASIZE PUSH0 REVERT JUMPDEST POP POP POP POP PUSH1 0x40 MLOAD RETURNDATASIZE PUSH1 0x1F NOT PUSH1 0x1F DUP3 ADD AND DUP3 ADD DUP1 PUSH1 0x40 MSTORE POP DUP2 ADD SWAP1 PUSH2 0x7E2 SWAP2 SWAP1 PUSH2 0x202C JUMP JUMPDEST SWAP1 POP PUSH0 DUP5 DUP3 PUSH2 0x7F1 SWAP2 SWAP1 PUSH2 0x22AA JUMP JUMPDEST SWAP1 POP DUP1 PUSH1 0x2 PUSH0 DUP13 PUSH20 0xFFFFFFFFFFFFFFFFFFFFFFFFFFFFFFFFFFFFFFFF AND PUSH20 0xFFFFFFFFFFFFFFFFFFFFFFFFFFFFFFFFFFFFFFFF AND DUP2 MSTORE PUSH1 0x20 ADD SWAP1 DUP2 MSTORE PUSH1 0x20 ADD PUSH0 KECCAK256 PUSH0 DUP3 DUP3 SLOAD PUSH2 0x83F SWAP2 SWAP1 PUSH2 0x2084 JUMP JUMPDEST SWAP3 POP POP DUP2 SWAP1 SSTORE POP PUSH2 0x871 PUSH1 0x1 PUSH32 0x0 PUSH2 0x187A JUMP JUMPDEST PUSH32 0x7B7CD0DDBBEA241880E825E1EB51C30752CB96DD7EFEB4BE691EC55DFA4D8963 DUP11 DUP3 PUSH1 0x40 MLOAD PUSH2 0x8A2 SWAP3 SWAP2 SWAP1 PUSH2 0x22DD JUMP JUMPDEST PUSH1 0x40 MLOAD DUP1 SWAP2 SUB SWAP1 LOG1 POP POP POP POP POP POP POP POP POP POP JUMP JUMPDEST PUSH0 PUSH4 0x5F5E100 PUSH2 0x8C4 PUSH2 0x18F7 JUMP JUMPDEST PUSH2 0x8CE SWAP2 SWAP1 PUSH2 0x214C JUMP JUMPDEST SWAP1 POP SWAP1 JUMP JUMPDEST PUSH32 0x0 DUP2 JUMP JUMPDEST PUSH2 0x8FF PUSH2 0x1995 JUMP JUMPDEST DUP3 PUSH0 PUSH1 0x5 PUSH0 SWAP1 SLOAD SWAP1 PUSH2 0x100 EXP SWAP1 DIV PUSH20 0xFFFFFFFFFFFFFFFFFFFFFFFFFFFFFFFFFFFFFFFF AND PUSH20 0xFFFFFFFFFFFFFFFFFFFFFFFFFFFFFFFFFFFFFFFF AND PUSH4 0xE6A43905 DUP4 PUSH32 0x0 PUSH1 0x40 MLOAD DUP4 PUSH4 0xFFFFFFFF AND PUSH1 0xE0 SHL DUP2 MSTORE PUSH1 0x4 ADD PUSH2 0x97D SWAP3 SWAP2 SWAP1 PUSH2 0x2304 JUMP JUMPDEST PUSH1 0x20 PUSH1 0x40 MLOAD DUP1 DUP4 SUB DUP2 DUP7 GAS STATICCALL ISZERO DUP1 ISZERO PUSH2 0x998 JUMPI RETURNDATASIZE PUSH0 DUP1 RETURNDATACOPY RETURNDATASIZE PUSH0 REVERT JUMPDEST POP POP POP POP PUSH1 0x40 MLOAD RETURNDATASIZE PUSH1 0x1F NOT PUSH1 0x1F DUP3 ADD AND DUP3 ADD DUP1 PUSH1 0x40 MSTORE POP DUP2 ADD SWAP1 PUSH2 0x9BC SWAP2 SWAP1 PUSH2 0x233F JUMP JUMPDEST SWAP1 POP PUSH32 0x0 PUSH20 0xFFFFFFFFFFFFFFFFFFFFFFFFFFFFFFFFFFFFFFFF AND DUP2 PUSH20 0xFFFFFFFFFFFFFFFFFFFFFFFFFFFFFFFFFFFFFFFF AND SUB PUSH2 0xA4E JUMPI DUP2 PUSH1 0x40 MLOAD PUSH32 0xE584A63F00000000000000000000000000000000000000000000000000000000 DUP2 MSTORE PUSH1 0x4 ADD PUSH2 0xA45 SWAP2 SWAP1 PUSH2 0x1EB0 JUMP JUMPDEST PUSH1 0x40 MLOAD DUP1 SWAP2 SUB SWAP1 REVERT JUMPDEST DUP5 DUP5 PUSH32 0x0 PUSH20 0xFFFFFFFFFFFFFFFFFFFFFFFFFFFFFFFFFFFFFFFF AND DUP3 PUSH20 0xFFFFFFFFFFFFFFFFFFFFFFFFFFFFFFFFFFFFFFFF AND EQ PUSH2 0xB65 JUMPI PUSH0 DUP3 SWAP1 POP DUP2 DUP2 PUSH20 0xFFFFFFFFFFFFFFFFFFFFFFFFFFFFFFFFFFFFFFFF AND PUSH4 0xDD62ED3E CALLER ADDRESS PUSH1 0x40 MLOAD DUP4 PUSH4 0xFFFFFFFF AND PUSH1 0xE0 SHL DUP2 MSTORE PUSH1 0x4 ADD PUSH2 0xAE3 SWAP3 SWAP2 SWAP1 PUSH2 0x2304 JUMP JUMPDEST PUSH1 0x20 PUSH1 0x40 MLOAD DUP1 DUP4 SUB DUP2 DUP7 GAS STATICCALL ISZERO DUP1 ISZERO PUSH2 0xAFE JUMPI RETURNDATASIZE PUSH0 DUP1 RETURNDATACOPY RETURNDATASIZE PUSH0 REVERT JUMPDEST POP POP POP POP PUSH1 0x40 MLOAD RETURNDATASIZE PUSH1 0x1F NOT PUSH1 0x1F DUP3 ADD AND DUP3 ADD DUP1 PUSH1 0x40 MSTORE POP DUP2 ADD SWAP1 PUSH2 0xB22 SWAP2 SWAP1 PUSH2 0x202C JUMP JUMPDEST LT ISZERO PUSH2 0xB63 JUMPI PUSH1 0x40 MLOAD PUSH32 0x336EA14200000000000000000000000000000000000000000000000000000000 DUP2 MSTORE PUSH1 0x4 ADD PUSH2 0xB5A SWAP1 PUSH2 0x23DA JUMP JUMPDEST PUSH1 0x40 MLOAD DUP1 SWAP2 SUB SWAP1 REVERT JUMPDEST POP JUMPDEST DUP7 DUP7 PUSH0 PUSH2 0xB72 DUP4 DUP4 PUSH2 0x1582 JUMP JUMPDEST SWAP1 POP PUSH32 0x0 DUP2 PUSH32 0x0 PUSH20 0xFFFFFFFFFFFFFFFFFFFFFFFFFFFFFFFFFFFFFFFF AND PUSH4 0x70A08231 ADDRESS PUSH1 0x40 MLOAD DUP3 PUSH4 0xFFFFFFFF AND PUSH1 0xE0 SHL DUP2 MSTORE PUSH1 0x4 ADD PUSH2 0xBEF SWAP2 SWAP1 PUSH2 0x1EB0 JUMP JUMPDEST PUSH1 0x20 PUSH1 0x40 MLOAD DUP1 DUP4 SUB DUP2 DUP7 GAS STATICCALL ISZERO DUP1 ISZERO PUSH2 0xC0A JUMPI RETURNDATASIZE PUSH0 DUP1 RETURNDATACOPY RETURNDATASIZE PUSH0 REVERT JUMPDEST POP POP POP POP PUSH1 0x40 MLOAD RETURNDATASIZE PUSH1 0x1F NOT PUSH1 0x1F DUP3 ADD AND DUP3 ADD DUP1 PUSH1 0x40 MSTORE POP DUP2 ADD SWAP1 PUSH2 0xC2E SWAP2 SWAP1 PUSH2 0x202C JUMP JUMPDEST PUSH2 0xC38 SWAP2 SWAP1 PUSH2 0x2084 JUMP JUMPDEST GT ISZERO PUSH2 0xC79 JUMPI PUSH1 0x40 MLOAD PUSH32 0xA2D2E1B200000000000000000000000000000000000000000000000000000000 DUP2 MSTORE PUSH1 0x4 ADD PUSH2 0xC70 SWAP1 PUSH2 0x2101 JUMP JUMPDEST PUSH1 0x40 MLOAD DUP1 SWAP2 SUB SWAP1 REVERT JUMPDEST PUSH2 0xCA6 CALLER ADDRESS DUP12 DUP14 PUSH20 0xFFFFFFFFFFFFFFFFFFFFFFFFFFFFFFFFFFFFFFFF AND PUSH2 0x19DB SWAP1 SWAP4 SWAP3 SWAP2 SWAP1 PUSH4 0xFFFFFFFF AND JUMP JUMPDEST PUSH0 PUSH32 0x0 PUSH20 0xFFFFFFFFFFFFFFFFFFFFFFFFFFFFFFFFFFFFFFFF AND PUSH4 0x70A08231 ADDRESS PUSH1 0x40 MLOAD DUP3 PUSH4 0xFFFFFFFF AND PUSH1 0xE0 SHL DUP2 MSTORE PUSH1 0x4 ADD PUSH2 0xD00 SWAP2 SWAP1 PUSH2 0x1EB0 JUMP JUMPDEST PUSH1 0x20 PUSH1 0x40 MLOAD DUP1 DUP4 SUB DUP2 DUP7 GAS STATICCALL ISZERO DUP1 ISZERO PUSH2 0xD1B JUMPI RETURNDATASIZE PUSH0 DUP1 RETURNDATACOPY RETURNDATASIZE PUSH0 REVERT JUMPDEST POP POP POP POP PUSH1 0x40 MLOAD RETURNDATASIZE PUSH1 0x1F NOT PUSH1 0x1F DUP3 ADD AND DUP3 ADD DUP1 PUSH1 0x40 MSTORE POP DUP2 ADD SWAP1 PUSH2 0xD3F SWAP2 SWAP1 PUSH2 0x202C JUMP JUMPDEST SWAP1 POP PUSH0 PUSH32 0x0 PUSH20 0xFFFFFFFFFFFFFFFFFFFFFFFFFFFFFFFFFFFFFFFF AND DUP13 PUSH20 0xFFFFFFFFFFFFFFFFFFFFFFFFFFFFFFFFFFFFFFFF AND EQ PUSH2 0x10D7 JUMPI DUP12 PUSH20 0xFFFFFFFFFFFFFFFFFFFFFFFFFFFFFFFFFFFFFFFF AND PUSH4 0x95EA7B3 PUSH32 0x0 PUSH0 PUSH1 0x40 MLOAD DUP4 PUSH4 0xFFFFFFFF AND PUSH1 0xE0 SHL DUP2 MSTORE PUSH1 0x4 ADD PUSH2 0xDF0 SWAP3 SWAP2 SWAP1 PUSH2 0x2431 JUMP JUMPDEST PUSH1 0x20 PUSH1 0x40 MLOAD DUP1 DUP4 SUB DUP2 PUSH0 DUP8 GAS CALL ISZERO DUP1 ISZERO PUSH2 0xE0C JUMPI RETURNDATASIZE PUSH0 DUP1 RETURNDATACOPY RETURNDATASIZE PUSH0 REVERT JUMPDEST POP POP POP POP PUSH1 0x40 MLOAD RETURNDATASIZE PUSH1 0x1F NOT PUSH1 0x1F DUP3 ADD AND DUP3 ADD DUP1 PUSH1 0x40 MSTORE POP DUP2 ADD SWAP1 PUSH2 0xE30 SWAP2 SWAP1 PUSH2 0x248D JUMP JUMPDEST POP DUP12 PUSH20 0xFFFFFFFFFFFFFFFFFFFFFFFFFFFFFFFFFFFFFFFF AND PUSH4 0x95EA7B3 PUSH32 0x0 DUP14 PUSH1 0x40 MLOAD DUP4 PUSH4 0xFFFFFFFF AND PUSH1 0xE0 SHL DUP2 MSTORE PUSH1 0x4 ADD PUSH2 0xE8C SWAP3 SWAP2 SWAP1 PUSH2 0x22DD JUMP JUMPDEST PUSH1 0x20 PUSH1 0x40 MLOAD DUP1 DUP4 SUB DUP2 PUSH0 DUP8 GAS CALL ISZERO DUP1 ISZERO PUSH2 0xEA8 JUMPI RETURNDATASIZE PUSH0 DUP1 RETURNDATACOPY RETURNDATASIZE PUSH0 REVERT JUMPDEST POP POP POP POP PUSH1 0x40 MLOAD RETURNDATASIZE PUSH1 0x1F NOT PUSH1 0x1F DUP3 ADD AND DUP3 ADD DUP1 PUSH1 0x40 MSTORE POP DUP2 ADD SWAP1 PUSH2 0xECC SWAP2 SWAP1 PUSH2 0x248D JUMP JUMPDEST POP PUSH1 0x60 DUP13 DUP2 PUSH0 DUP2 MLOAD DUP2 LT PUSH2 0xEE3 JUMPI PUSH2 0xEE2 PUSH2 0x217C JUMP JUMPDEST JUMPDEST PUSH1 0x20 MUL PUSH1 0x20 ADD ADD SWAP1 PUSH20 0xFFFFFFFFFFFFFFFFFFFFFFFFFFFFFFFFFFFFFFFF AND SWAP1 DUP2 PUSH20 0xFFFFFFFFFFFFFFFFFFFFFFFFFFFFFFFFFFFFFFFF AND DUP2 MSTORE POP POP PUSH32 0x0 DUP2 PUSH1 0x1 DUP2 MLOAD DUP2 LT PUSH2 0xF52 JUMPI PUSH2 0xF51 PUSH2 0x217C JUMP JUMPDEST JUMPDEST PUSH1 0x20 MUL PUSH1 0x20 ADD ADD SWAP1 PUSH20 0xFFFFFFFFFFFFFFFFFFFFFFFFFFFFFFFFFFFFFFFF AND SWAP1 DUP2 PUSH20 0xFFFFFFFFFFFFFFFFFFFFFFFFFFFFFFFFFFFFFFFF AND DUP2 MSTORE POP POP PUSH32 0x0 PUSH20 0xFFFFFFFFFFFFFFFFFFFFFFFFFFFFFFFFFFFFFFFF AND PUSH4 0x5C11D795 DUP14 DUP14 DUP5 ADDRESS PUSH2 0x12C TIMESTAMP PUSH2 0xFDA SWAP2 SWAP1 PUSH2 0x2084 JUMP JUMPDEST PUSH1 0x40 MLOAD DUP7 PUSH4 0xFFFFFFFF AND PUSH1 0xE0 SHL DUP2 MSTORE PUSH1 0x4 ADD PUSH2 0xFFA SWAP6 SWAP5 SWAP4 SWAP3 SWAP2 SWAP1 PUSH2 0x24B8 JUMP JUMPDEST PUSH0 PUSH1 0x40 MLOAD DUP1 DUP4 SUB DUP2 PUSH0 DUP8 DUP1 EXTCODESIZE ISZERO DUP1 ISZERO PUSH2 0x1011 JUMPI PUSH0 DUP1 REVERT JUMPDEST POP GAS CALL ISZERO DUP1 ISZERO PUSH2 0x1023 JUMPI RETURNDATASIZE PUSH0 DUP1 RETURNDATACOPY RETURNDATASIZE PUSH0 REVERT JUMPDEST POP POP POP POP PUSH0 PUSH32 0x0 PUSH20 0xFFFFFFFFFFFFFFFFFFFFFFFFFFFFFFFFFFFFFFFF AND PUSH4 0x70A08231 ADDRESS PUSH1 0x40 MLOAD DUP3 PUSH4 0xFFFFFFFF AND PUSH1 0xE0 SHL DUP2 MSTORE PUSH1 0x4 ADD PUSH2 0x1081 SWAP2 SWAP1 PUSH2 0x1EB0 JUMP JUMPDEST PUSH1 0x20 PUSH1 0x40 MLOAD DUP1 DUP4 SUB DUP2 DUP7 GAS STATICCALL ISZERO DUP1 ISZERO PUSH2 0x109C JUMPI RETURNDATASIZE PUSH0 DUP1 RETURNDATACOPY RETURNDATASIZE PUSH0 REVERT JUMPDEST POP POP POP POP PUSH1 0x40 MLOAD RETURNDATASIZE PUSH1 0x1F NOT PUSH1 0x1F DUP3 ADD AND DUP3 ADD DUP1 PUSH1 0x40 MSTORE POP DUP2 ADD SWAP1 PUSH2 0x10C0 SWAP2 SWAP1 PUSH2 0x202C JUMP JUMPDEST SWAP1 POP DUP4 DUP2 PUSH2 0x10CE SWAP2 SWAP1 PUSH2 0x22AA JUMP JUMPDEST SWAP3 POP POP POP PUSH2 0x10DB JUMP JUMPDEST DUP11 SWAP1 POP JUMPDEST DUP1 PUSH1 0x2 PUSH0 CALLER PUSH20 0xFFFFFFFFFFFFFFFFFFFFFFFFFFFFFFFFFFFFFFFF AND PUSH20 0xFFFFFFFFFFFFFFFFFFFFFFFFFFFFFFFFFFFFFFFF AND DUP2 MSTORE PUSH1 0x20 ADD SWAP1 DUP2 MSTORE PUSH1 0x20 ADD PUSH0 KECCAK256 PUSH0 DUP3 DUP3 SLOAD PUSH2 0x1127 SWAP2 SWAP1 PUSH2 0x2084 JUMP JUMPDEST SWAP3 POP POP DUP2 SWAP1 SSTORE POP PUSH2 0x1139 PUSH1 0x1 DUP14 PUSH2 0x187A JUMP JUMPDEST PUSH32 0x7B7CD0DDBBEA241880E825E1EB51C30752CB96DD7EFEB4BE691EC55DFA4D8963 CALLER DUP3 PUSH1 0x40 MLOAD PUSH2 0x116A SWAP3 SWAP2 SWAP1 PUSH2 0x22DD JUMP JUMPDEST PUSH1 0x40 MLOAD DUP1 SWAP2 SUB SWAP1 LOG1 POP POP POP POP POP POP POP POP POP PUSH2 0x1183 PUSH2 0x1A5D JUMP JUMPDEST POP POP POP JUMP JUMPDEST PUSH1 0x3 PUSH1 0x20 MSTORE DUP1 PUSH0 MSTORE PUSH1 0x40 PUSH0 KECCAK256 PUSH0 SWAP2 POP SWAP1 POP SLOAD DUP2 JUMP JUMPDEST PUSH32 0x0 DUP2 JUMP JUMPDEST PUSH2 0x11C9 PUSH2 0x1995 JUMP JUMPDEST DUP1 DUP1 PUSH32 0x0 LT ISZERO PUSH2 0x122D JUMPI PUSH1 0x40 MLOAD PUSH32 0xFC0517400000000000000000000000000000000000000000000000000000000 DUP2 MSTORE PUSH1 0x4 ADD PUSH2 0x1224 SWAP1 PUSH2 0x2580 JUMP JUMPDEST PUSH1 0x40 MLOAD DUP1 SWAP2 SUB SWAP1 REVERT JUMPDEST DUP1 PUSH1 0x2 PUSH0 CALLER PUSH20 0xFFFFFFFFFFFFFFFFFFFFFFFFFFFFFFFFFFFFFFFF AND PUSH20 0xFFFFFFFFFFFFFFFFFFFFFFFFFFFFFFFFFFFFFFFF AND DUP2 MSTORE PUSH1 0x20 ADD SWAP1 DUP2 MSTORE PUSH1 0x20 ADD PUSH0 KECCAK256 SLOAD LT ISZERO PUSH2 0x12AD JUMPI PUSH1 0x40 MLOAD PUSH32 0xE7FE37FB00000000000000000000000000000000000000000000000000000000 DUP2 MSTORE PUSH1 0x4 ADD PUSH2 0x12A4 SWAP1 PUSH2 0x25E8 JUMP JUMPDEST PUSH1 0x40 MLOAD DUP1 SWAP2 SUB SWAP1 REVERT JUMPDEST DUP2 PUSH1 0x2 PUSH0 CALLER PUSH20 0xFFFFFFFFFFFFFFFFFFFFFFFFFFFFFFFFFFFFFFFF AND PUSH20 0xFFFFFFFFFFFFFFFFFFFFFFFFFFFFFFFFFFFFFFFF AND DUP2 MSTORE PUSH1 0x20 ADD SWAP1 DUP2 MSTORE PUSH1 0x20 ADD PUSH0 KECCAK256 PUSH0 DUP3 DUP3 SLOAD PUSH2 0x12F9 SWAP2 SWAP1 PUSH2 0x22AA JUMP JUMPDEST SWAP3 POP POP DUP2 SWAP1 SSTORE POP PUSH2 0x132A PUSH0 PUSH32 0x0 PUSH2 0x187A JUMP JUMPDEST PUSH32 0x1FF21E81CFF87FCCBAC096AD565F52CB1B358DB04A736A6A137CCEB4A287A702 CALLER DUP4 PUSH1 0x40 MLOAD PUSH2 0x135B SWAP3 SWAP2 SWAP1 PUSH2 0x22DD JUMP JUMPDEST PUSH1 0x40 MLOAD DUP1 SWAP2 SUB SWAP1 LOG1 PUSH2 0x13AE CALLER DUP4 PUSH32 0x0 PUSH20 0xFFFFFFFFFFFFFFFFFFFFFFFFFFFFFFFFFFFFFFFF AND PUSH2 0x1A66 SWAP1 SWAP3 SWAP2 SWAP1 PUSH4 0xFFFFFFFF AND JUMP JUMPDEST POP PUSH2 0x13B7 PUSH2 0x1A5D JUMP JUMPDEST POP JUMP JUMPDEST PUSH2 0x13C2 PUSH2 0x1AE5 JUMP JUMPDEST PUSH2 0x13CB PUSH0 PUSH2 0x1B6C JUMP JUMPDEST JUMP JUMPDEST PUSH32 0x0 DUP2 JUMP JUMPDEST PUSH1 0x5 PUSH0 SWAP1 SLOAD SWAP1 PUSH2 0x100 EXP SWAP1 DIV PUSH20 0xFFFFFFFFFFFFFFFFFFFFFFFFFFFFFFFFFFFFFFFF AND DUP2 JUMP JUMPDEST PUSH0 DUP1 PUSH0 SWAP1 SLOAD SWAP1 PUSH2 0x100 EXP SWAP1 DIV PUSH20 0xFFFFFFFFFFFFFFFFFFFFFFFFFFFFFFFFFFFFFFFF AND SWAP1 POP SWAP1 JUMP JUMPDEST PUSH2 0x1445 PUSH2 0x1AE5 JUMP JUMPDEST PUSH2 0x1490 DUP2 DUP4 PUSH32 0x0 PUSH20 0xFFFFFFFFFFFFFFFFFFFFFFFFFFFFFFFFFFFFFFFF AND PUSH2 0x1A66 SWAP1 SWAP3 SWAP2 SWAP1 PUSH4 0xFFFFFFFF AND JUMP JUMPDEST POP POP JUMP JUMPDEST PUSH2 0x149C PUSH2 0x1995 JUMP JUMPDEST PUSH2 0x14A6 CALLER CALLVALUE PUSH2 0x3C4 JUMP JUMPDEST PUSH2 0x14AE PUSH2 0x1A5D JUMP JUMPDEST JUMP JUMPDEST PUSH2 0x14B8 PUSH2 0x1AE5 JUMP JUMPDEST PUSH0 PUSH20 0xFFFFFFFFFFFFFFFFFFFFFFFFFFFFFFFFFFFFFFFF AND DUP2 PUSH20 0xFFFFFFFFFFFFFFFFFFFFFFFFFFFFFFFFFFFFFFFF AND SUB PUSH2 0x1528 JUMPI PUSH0 PUSH1 0x40 MLOAD PUSH32 0x1E4FBDF700000000000000000000000000000000000000000000000000000000 DUP2 MSTORE PUSH1 0x4 ADD PUSH2 0x151F SWAP2 SWAP1 PUSH2 0x1EB0 JUMP JUMPDEST PUSH1 0x40 MLOAD DUP1 SWAP2 SUB SWAP1 REVERT JUMPDEST PUSH2 0x1531 DUP2 PUSH2 0x1B6C JUMP JUMPDEST POP JUMP JUMPDEST PUSH1 0x4 SLOAD DUP2 JUMP JUMPDEST PUSH32 0x0 DUP2 JUMP JUMPDEST PUSH32 0x0 DUP2 JUMP JUMPDEST PUSH0 PUSH32 0x0 PUSH20 0xFFFFFFFFFFFFFFFFFFFFFFFFFFFFFFFFFFFFFFFF AND DUP4 PUSH20 0xFFFFFFFFFFFFFFFFFFFFFFFFFFFFFFFFFFFFFFFF AND SUB PUSH2 0x15DE JUMPI DUP2 SWAP1 POP PUSH2 0x1874 JUMP JUMPDEST PUSH0 PUSH1 0x5 PUSH0 SWAP1 SLOAD SWAP1 PUSH2 0x100 EXP SWAP1 DIV PUSH20 0xFFFFFFFFFFFFFFFFFFFFFFFFFFFFFFFFFFFFFFFF AND PUSH20 0xFFFFFFFFFFFFFFFFFFFFFFFFFFFFFFFFFFFFFFFF AND PUSH4 0xE6A43905 DUP6 PUSH32 0x0 PUSH1 0x40 MLOAD DUP4 PUSH4 0xFFFFFFFF AND PUSH1 0xE0 SHL DUP2 MSTORE PUSH1 0x4 ADD PUSH2 0x165B SWAP3 SWAP2 SWAP1 PUSH2 0x2304 JUMP JUMPDEST PUSH1 0x20 PUSH1 0x40 MLOAD DUP1 DUP4 SUB DUP2 DUP7 GAS STATICCALL ISZERO DUP1 ISZERO PUSH2 0x1676 JUMPI RETURNDATASIZE PUSH0 DUP1 RETURNDATACOPY RETURNDATASIZE PUSH0 REVERT JUMPDEST POP POP POP POP PUSH1 0x40 MLOAD RETURNDATASIZE PUSH1 0x1F NOT PUSH1 0x1F DUP3 ADD AND DUP3 ADD DUP1 PUSH1 0x40 MSTORE POP DUP2 ADD SWAP1 PUSH2 0x169A SWAP2 SWAP1 PUSH2 0x233F JUMP JUMPDEST SWAP1 POP PUSH32 0x0 PUSH20 0xFFFFFFFFFFFFFFFFFFFFFFFFFFFFFFFFFFFFFFFF AND DUP2 PUSH20 0xFFFFFFFFFFFFFFFFFFFFFFFFFFFFFFFFFFFFFFFF AND SUB PUSH2 0x172A JUMPI PUSH1 0x40 MLOAD PUSH32 0x8C379A000000000000000000000000000000000000000000000000000000000 DUP2 MSTORE PUSH1 0x4 ADD PUSH2 0x1721 SWAP1 PUSH2 0x2660 JUMP JUMPDEST PUSH1 0x40 MLOAD DUP1 SWAP2 SUB SWAP1 REVERT JUMPDEST PUSH0 DUP1 DUP3 PUSH20 0xFFFFFFFFFFFFFFFFFFFFFFFFFFFFFFFFFFFFFFFF AND PUSH4 0x902F1AC PUSH1 0x40 MLOAD DUP2 PUSH4 0xFFFFFFFF AND PUSH1 0xE0 SHL DUP2 MSTORE PUSH1 0x4 ADD PUSH1 0x60 PUSH1 0x40 MLOAD DUP1 DUP4 SUB DUP2 DUP7 GAS STATICCALL ISZERO DUP1 ISZERO PUSH2 0x1775 JUMPI RETURNDATASIZE PUSH0 DUP1 RETURNDATACOPY RETURNDATASIZE PUSH0 REVERT JUMPDEST POP POP POP POP PUSH1 0x40 MLOAD RETURNDATASIZE PUSH1 0x1F NOT PUSH1 0x1F DUP3 ADD AND DUP3 ADD DUP1 PUSH1 0x40 MSTORE POP DUP2 ADD SWAP1 PUSH2 0x1799 SWAP2 SWAP1 PUSH2 0x26FA JUMP JUMPDEST POP SWAP2 POP SWAP2 POP PUSH0 DUP1 PUSH32 0x0 PUSH20 0xFFFFFFFFFFFFFFFFFFFFFFFFFFFFFFFFFFFFFFFF AND DUP9 PUSH20 0xFFFFFFFFFFFFFFFFFFFFFFFFFFFFFFFFFFFFFFFF AND LT PUSH2 0x17FA JUMPI DUP3 DUP5 PUSH2 0x17FD JUMP JUMPDEST DUP4 DUP4 JUMPDEST SWAP2 POP SWAP2 POP PUSH0 PUSH2 0x3E5 DUP9 PUSH2 0x1810 SWAP2 SWAP1 PUSH2 0x274A JUMP JUMPDEST SWAP1 POP PUSH0 DUP3 PUSH14 0xFFFFFFFFFFFFFFFFFFFFFFFFFFFF AND DUP3 PUSH2 0x182F SWAP2 SWAP1 PUSH2 0x274A JUMP JUMPDEST SWAP1 POP PUSH0 DUP3 PUSH2 0x3E8 DUP7 PUSH2 0x1841 SWAP2 SWAP1 PUSH2 0x278B JUMP JUMPDEST PUSH14 0xFFFFFFFFFFFFFFFFFFFFFFFFFFFF AND PUSH2 0x185B SWAP2 SWAP1 PUSH2 0x2084 JUMP JUMPDEST SWAP1 POP DUP1 DUP3 PUSH2 0x1869 SWAP2 SWAP1 PUSH2 0x214C JUMP JUMPDEST SWAP9 POP POP POP POP POP POP POP POP POP JUMPDEST SWAP3 SWAP2 POP POP JUMP JUMPDEST DUP2 ISZERO PUSH2 0x18D9 JUMPI PUSH1 0x1 PUSH1 0x3 PUSH0 DUP4 PUSH20 0xFFFFFFFFFFFFFFFFFFFFFFFFFFFFFFFFFFFFFFFF AND PUSH20 0xFFFFFFFFFFFFFFFFFFFFFFFFFFFFFFFFFFFFFFFF AND DUP2 MSTORE PUSH1 0x20 ADD SWAP1 DUP2 MSTORE PUSH1 0x20 ADD PUSH0 KECCAK256 PUSH0 DUP3 DUP3 SLOAD PUSH2 0x18CD SWAP2 SWAP1 PUSH2 0x2084 JUMP JUMPDEST SWAP3 POP POP DUP2 SWAP1 SSTORE POP PUSH2 0x18F3 JUMP JUMPDEST PUSH1 0x1 PUSH1 0x4 PUSH0 DUP3 DUP3 SLOAD PUSH2 0x18EB SWAP2 SWAP1 PUSH2 0x2084 JUMP JUMPDEST SWAP3 POP POP DUP2 SWAP1 SSTORE POP JUMPDEST POP POP JUMP JUMPDEST PUSH0 PUSH32 0x0 PUSH20 0xFFFFFFFFFFFFFFFFFFFFFFFFFFFFFFFFFFFFFFFF AND PUSH4 0x70A08231 ADDRESS PUSH1 0x40 MLOAD DUP3 PUSH4 0xFFFFFFFF AND PUSH1 0xE0 SHL DUP2 MSTORE PUSH1 0x4 ADD PUSH2 0x1951 SWAP2 SWAP1 PUSH2 0x1EB0 JUMP JUMPDEST PUSH1 0x20 PUSH1 0x40 MLOAD DUP1 DUP4 SUB DUP2 DUP7 GAS STATICCALL ISZERO DUP1 ISZERO PUSH2 0x196C JUMPI RETURNDATASIZE PUSH0 DUP1 RETURNDATACOPY RETURNDATASIZE PUSH0 REVERT JUMPDEST POP POP POP POP PUSH1 0x40 MLOAD RETURNDATASIZE PUSH1 0x1F NOT PUSH1 0x1F DUP3 ADD AND DUP3 ADD DUP1 PUSH1 0x40 MSTORE POP DUP2 ADD SWAP1 PUSH2 0x1990 SWAP2 SWAP1 PUSH2 0x202C JUMP JUMPDEST SWAP1 POP SWAP1 JUMP JUMPDEST PUSH1 0x2 PUSH1 0x1 SLOAD SUB PUSH2 0x19D1 JUMPI PUSH1 0x40 MLOAD PUSH32 0x3EE5AEB500000000000000000000000000000000000000000000000000000000 DUP2 MSTORE PUSH1 0x4 ADD PUSH1 0x40 MLOAD DUP1 SWAP2 SUB SWAP1 REVERT JUMPDEST PUSH1 0x2 PUSH1 0x1 DUP2 SWAP1 SSTORE POP JUMP JUMPDEST PUSH2 0x1A57 DUP5 DUP6 PUSH20 0xFFFFFFFFFFFFFFFFFFFFFFFFFFFFFFFFFFFFFFFF AND PUSH4 0x23B872DD DUP7 DUP7 DUP7 PUSH1 0x40 MLOAD PUSH1 0x24 ADD PUSH2 0x1A10 SWAP4 SWAP3 SWAP2 SWAP1 PUSH2 0x27C7 JUMP JUMPDEST PUSH1 0x40 MLOAD PUSH1 0x20 DUP2 DUP4 SUB SUB DUP2 MSTORE SWAP1 PUSH1 0x40 MSTORE SWAP2 POP PUSH1 0xE0 SHL PUSH1 0x20 DUP3 ADD DUP1 MLOAD PUSH28 0xFFFFFFFFFFFFFFFFFFFFFFFFFFFFFFFFFFFFFFFFFFFFFFFFFFFFFFFF DUP4 DUP2 DUP4 AND OR DUP4 MSTORE POP POP POP POP PUSH2 0x1C2D JUMP JUMPDEST POP POP POP POP JUMP JUMPDEST PUSH1 0x1 DUP1 DUP2 SWAP1 SSTORE POP JUMP JUMPDEST PUSH2 0x1AE0 DUP4 DUP5 PUSH20 0xFFFFFFFFFFFFFFFFFFFFFFFFFFFFFFFFFFFFFFFF AND PUSH4 0xA9059CBB DUP6 DUP6 PUSH1 0x40 MLOAD PUSH1 0x24 ADD PUSH2 0x1A99 SWAP3 SWAP2 SWAP1 PUSH2 0x22DD JUMP JUMPDEST PUSH1 0x40 MLOAD PUSH1 0x20 DUP2 DUP4 SUB SUB DUP2 MSTORE SWAP1 PUSH1 0x40 MSTORE SWAP2 POP PUSH1 0xE0 SHL PUSH1 0x20 DUP3 ADD DUP1 MLOAD PUSH28 0xFFFFFFFFFFFFFFFFFFFFFFFFFFFFFFFFFFFFFFFFFFFFFFFFFFFFFFFF DUP4 DUP2 DUP4 AND OR DUP4 MSTORE POP POP POP POP PUSH2 0x1C2D JUMP JUMPDEST POP POP POP JUMP JUMPDEST PUSH2 0x1AED PUSH2 0x1CC8 JUMP JUMPDEST PUSH20 0xFFFFFFFFFFFFFFFFFFFFFFFFFFFFFFFFFFFFFFFF AND PUSH2 0x1B0B PUSH2 0x1416 JUMP JUMPDEST PUSH20 0xFFFFFFFFFFFFFFFFFFFFFFFFFFFFFFFFFFFFFFFF AND EQ PUSH2 0x1B6A JUMPI PUSH2 0x1B2E PUSH2 0x1CC8 JUMP JUMPDEST PUSH1 0x40 MLOAD PUSH32 0x118CDAA700000000000000000000000000000000000000000000000000000000 DUP2 MSTORE PUSH1 0x4 ADD PUSH2 0x1B61 SWAP2 SWAP1 PUSH2 0x1EB0 JUMP JUMPDEST PUSH1 0x40 MLOAD DUP1 SWAP2 SUB SWAP1 REVERT JUMPDEST JUMP JUMPDEST PUSH0 DUP1 PUSH0 SWAP1 SLOAD SWAP1 PUSH2 0x100 EXP SWAP1 DIV PUSH20 0xFFFFFFFFFFFFFFFFFFFFFFFFFFFFFFFFFFFFFFFF AND SWAP1 POP DUP2 PUSH0 DUP1 PUSH2 0x100 EXP DUP2 SLOAD DUP2 PUSH20 0xFFFFFFFFFFFFFFFFFFFFFFFFFFFFFFFFFFFFFFFF MUL NOT AND SWAP1 DUP4 PUSH20 0xFFFFFFFFFFFFFFFFFFFFFFFFFFFFFFFFFFFFFFFF AND MUL OR SWAP1 SSTORE POP DUP2 PUSH20 0xFFFFFFFFFFFFFFFFFFFFFFFFFFFFFFFFFFFFFFFF AND DUP2 PUSH20 0xFFFFFFFFFFFFFFFFFFFFFFFFFFFFFFFFFFFFFFFF AND PUSH32 0x8BE0079C531659141344CD1FD0A4F28419497F9722A3DAAFE3B4186F6B6457E0 PUSH1 0x40 MLOAD PUSH1 0x40 MLOAD DUP1 SWAP2 SUB SWAP1 LOG3 POP POP JUMP JUMPDEST PUSH0 DUP1 PUSH1 0x20 PUSH0 DUP5 MLOAD PUSH1 0x20 DUP7 ADD PUSH0 DUP9 GAS CALL DUP1 PUSH2 0x1C4C JUMPI PUSH1 0x40 MLOAD RETURNDATASIZE PUSH0 DUP3 RETURNDATACOPY RETURNDATASIZE DUP2 REVERT JUMPDEST RETURNDATASIZE SWAP3 POP PUSH0 MLOAD SWAP2 POP POP PUSH0 DUP3 EQ PUSH2 0x1C65 JUMPI PUSH1 0x1 DUP2 EQ ISZERO PUSH2 0x1C80 JUMP JUMPDEST PUSH0 DUP5 PUSH20 0xFFFFFFFFFFFFFFFFFFFFFFFFFFFFFFFFFFFFFFFF AND EXTCODESIZE EQ JUMPDEST ISZERO PUSH2 0x1CC2 JUMPI DUP4 PUSH1 0x40 MLOAD PUSH32 0x5274AFE700000000000000000000000000000000000000000000000000000000 DUP2 MSTORE PUSH1 0x4 ADD PUSH2 0x1CB9 SWAP2 SWAP1 PUSH2 0x1EB0 JUMP JUMPDEST PUSH1 0x40 MLOAD DUP1 SWAP2 SUB SWAP1 REVERT JUMPDEST POP POP POP POP JUMP JUMPDEST PUSH0 CALLER SWAP1 POP SWAP1 JUMP JUMPDEST PUSH0 DUP3 DUP3 MSTORE PUSH1 0x20 DUP3 ADD SWAP1 POP SWAP3 SWAP2 POP POP JUMP JUMPDEST PUSH32 0x4F7065726174696F6E20646F6573206E6F7420657869737473206F7220646174 PUSH0 DUP3 ADD MSTORE PUSH32 0x612077617320696E636F72726563740000000000000000000000000000000000 PUSH1 0x20 DUP3 ADD MSTORE POP JUMP JUMPDEST PUSH0 PUSH2 0x1D39 PUSH1 0x2F DUP4 PUSH2 0x1CCF JUMP JUMPDEST SWAP2 POP PUSH2 0x1D44 DUP3 PUSH2 0x1CDF JUMP JUMPDEST PUSH1 0x40 DUP3 ADD SWAP1 POP SWAP2 SWAP1 POP JUMP JUMPDEST PUSH0 PUSH1 0x20 DUP3 ADD SWAP1 POP DUP2 DUP2 SUB PUSH0 DUP4 ADD MSTORE PUSH2 0x1D66 DUP2 PUSH2 0x1D2D JUMP JUMPDEST SWAP1 POP SWAP2 SWAP1 POP JUMP JUMPDEST PUSH0 DUP2 SWAP1 POP SWAP2 SWAP1 POP JUMP JUMPDEST PUSH2 0x1D7F DUP2 PUSH2 0x1D6D JUMP JUMPDEST DUP3 MSTORE POP POP JUMP JUMPDEST PUSH0 PUSH1 0x20 DUP3 ADD SWAP1 POP PUSH2 0x1D98 PUSH0 DUP4 ADD DUP5 PUSH2 0x1D76 JUMP JUMPDEST SWAP3 SWAP2 POP POP JUMP JUMPDEST PUSH0 DUP1 REVERT JUMPDEST PUSH0 PUSH20 0xFFFFFFFFFFFFFFFFFFFFFFFFFFFFFFFFFFFFFFFF DUP3 AND SWAP1 POP SWAP2 SWAP1 POP JUMP JUMPDEST PUSH0 PUSH2 0x1DCB DUP3 PUSH2 0x1DA2 JUMP JUMPDEST SWAP1 POP SWAP2 SWAP1 POP JUMP JUMPDEST PUSH2 0x1DDB DUP2 PUSH2 0x1DC1 JUMP JUMPDEST DUP2 EQ PUSH2 0x1DE5 JUMPI PUSH0 DUP1 REVERT JUMPDEST POP JUMP JUMPDEST PUSH0 DUP2 CALLDATALOAD SWAP1 POP PUSH2 0x1DF6 DUP2 PUSH2 0x1DD2 JUMP JUMPDEST SWAP3 SWAP2 POP POP JUMP JUMPDEST PUSH2 0x1E05 DUP2 PUSH2 0x1D6D JUMP JUMPDEST DUP2 EQ PUSH2 0x1E0F JUMPI PUSH0 DUP1 REVERT JUMPDEST POP JUMP JUMPDEST PUSH0 DUP2 CALLDATALOAD SWAP1 POP PUSH2 0x1E20 DUP2 PUSH2 0x1DFC JUMP JUMPDEST SWAP3 SWAP2 POP POP JUMP JUMPDEST PUSH0 DUP1 PUSH0 PUSH1 0x60 DUP5 DUP7 SUB SLT ISZERO PUSH2 0x1E3D JUMPI PUSH2 0x1E3C PUSH2 0x1D9E JUMP JUMPDEST JUMPDEST PUSH0 PUSH2 0x1E4A DUP7 DUP3 DUP8 ADD PUSH2 0x1DE8 JUMP JUMPDEST SWAP4 POP POP PUSH1 0x20 PUSH2 0x1E5B DUP7 DUP3 DUP8 ADD PUSH2 0x1E12 JUMP JUMPDEST SWAP3 POP POP PUSH1 0x40 PUSH2 0x1E6C DUP7 DUP3 DUP8 ADD PUSH2 0x1E12 JUMP JUMPDEST SWAP2 POP POP SWAP3 POP SWAP3 POP SWAP3 JUMP JUMPDEST PUSH0 PUSH1 0x20 DUP3 DUP5 SUB SLT ISZERO PUSH2 0x1E8B JUMPI PUSH2 0x1E8A PUSH2 0x1D9E JUMP JUMPDEST JUMPDEST PUSH0 PUSH2 0x1E98 DUP5 DUP3 DUP6 ADD PUSH2 0x1DE8 JUMP JUMPDEST SWAP2 POP POP SWAP3 SWAP2 POP POP JUMP JUMPDEST PUSH2 0x1EAA DUP2 PUSH2 0x1DC1 JUMP JUMPDEST DUP3 MSTORE POP POP JUMP JUMPDEST PUSH0 PUSH1 0x20 DUP3 ADD SWAP1 POP PUSH2 0x1EC3 PUSH0 DUP4 ADD DUP5 PUSH2 0x1EA1 JUMP JUMPDEST SWAP3 SWAP2 POP POP JUMP JUMPDEST PUSH0 PUSH1 0x20 DUP3 DUP5 SUB SLT ISZERO PUSH2 0x1EDE JUMPI PUSH2 0x1EDD PUSH2 0x1D9E JUMP JUMPDEST JUMPDEST PUSH0 PUSH2 0x1EEB DUP5 DUP3 DUP6 ADD PUSH2 0x1E12 JUMP JUMPDEST SWAP2 POP POP SWAP3 SWAP2 POP POP JUMP JUMPDEST PUSH0 DUP2 SWAP1 POP SWAP2 SWAP1 POP JUMP JUMPDEST PUSH0 PUSH2 0x1F17 PUSH2 0x1F12 PUSH2 0x1F0D DUP5 PUSH2 0x1DA2 JUMP JUMPDEST PUSH2 0x1EF4 JUMP JUMPDEST PUSH2 0x1DA2 JUMP JUMPDEST SWAP1 POP SWAP2 SWAP1 POP JUMP JUMPDEST PUSH0 PUSH2 0x1F28 DUP3 PUSH2 0x1EFD JUMP JUMPDEST SWAP1 POP SWAP2 SWAP1 POP JUMP JUMPDEST PUSH0 PUSH2 0x1F39 DUP3 PUSH2 0x1F1E JUMP JUMPDEST SWAP1 POP SWAP2 SWAP1 POP JUMP JUMPDEST PUSH2 0x1F49 DUP2 PUSH2 0x1F2F JUMP JUMPDEST DUP3 MSTORE POP POP JUMP JUMPDEST PUSH0 PUSH1 0x20 DUP3 ADD SWAP1 POP PUSH2 0x1F62 PUSH0 DUP4 ADD DUP5 PUSH2 0x1F40 JUMP JUMPDEST SWAP3 SWAP2 POP POP JUMP JUMPDEST PUSH0 PUSH2 0x1F72 DUP3 PUSH2 0x1F1E JUMP JUMPDEST SWAP1 POP SWAP2 SWAP1 POP JUMP JUMPDEST PUSH2 0x1F82 DUP2 PUSH2 0x1F68 JUMP JUMPDEST DUP3 MSTORE POP POP JUMP JUMPDEST PUSH0 PUSH1 0x20 DUP3 ADD SWAP1 POP PUSH2 0x1F9B PUSH0 DUP4 ADD DUP5 PUSH2 0x1F79 JUMP JUMPDEST SWAP3 SWAP2 POP POP JUMP JUMPDEST PUSH0 DUP1 PUSH1 0x40 DUP4 DUP6 SUB SLT ISZERO PUSH2 0x1FB7 JUMPI PUSH2 0x1FB6 PUSH2 0x1D9E JUMP JUMPDEST JUMPDEST PUSH0 PUSH2 0x1FC4 DUP6 DUP3 DUP7 ADD PUSH2 0x1E12 JUMP JUMPDEST SWAP3 POP POP PUSH1 0x20 PUSH2 0x1FD5 DUP6 DUP3 DUP7 ADD PUSH2 0x1DE8 JUMP JUMPDEST SWAP2 POP POP SWAP3 POP SWAP3 SWAP1 POP JUMP JUMPDEST PUSH0 PUSH2 0x1FE9 DUP3 PUSH2 0x1F1E JUMP JUMPDEST SWAP1 POP SWAP2 SWAP1 POP JUMP JUMPDEST PUSH2 0x1FF9 DUP2 PUSH2 0x1FDF JUMP JUMPDEST DUP3 MSTORE POP POP JUMP JUMPDEST PUSH0 PUSH1 0x20 DUP3 ADD SWAP1 POP PUSH2 0x2012 PUSH0 DUP4 ADD DUP5 PUSH2 0x1FF0 JUMP JUMPDEST SWAP3 SWAP2 POP POP JUMP JUMPDEST PUSH0 DUP2 MLOAD SWAP1 POP PUSH2 0x2026 DUP2 PUSH2 0x1DFC JUMP JUMPDEST SWAP3 SWAP2 POP POP JUMP JUMPDEST PUSH0 PUSH1 0x20 DUP3 DUP5 SUB SLT ISZERO PUSH2 0x2041 JUMPI PUSH2 0x2040 PUSH2 0x1D9E JUMP JUMPDEST JUMPDEST PUSH0 PUSH2 0x204E DUP5 DUP3 DUP6 ADD PUSH2 0x2018 JUMP JUMPDEST SWAP2 POP POP SWAP3 SWAP2 POP POP JUMP JUMPDEST PUSH32 0x4E487B7100000000000000000000000000000000000000000000000000000000 PUSH0 MSTORE PUSH1 0x11 PUSH1 0x4 MSTORE PUSH1 0x24 PUSH0 REVERT JUMPDEST PUSH0 PUSH2 0x208E DUP3 PUSH2 0x1D6D JUMP JUMPDEST SWAP2 POP PUSH2 0x2099 DUP4 PUSH2 0x1D6D JUMP JUMPDEST SWAP3 POP DUP3 DUP3 ADD SWAP1 POP DUP1 DUP3 GT ISZERO PUSH2 0x20B1 JUMPI PUSH2 0x20B0 PUSH2 0x2057 JUMP JUMPDEST JUMPDEST SWAP3 SWAP2 POP POP JUMP JUMPDEST PUSH32 0x546F74616C204B69707542616E6B27732066756E647320657863656564656400 PUSH0 DUP3 ADD MSTORE POP JUMP JUMPDEST PUSH0 PUSH2 0x20EB PUSH1 0x1F DUP4 PUSH2 0x1CCF JUMP JUMPDEST SWAP2 POP PUSH2 0x20F6 DUP3 PUSH2 0x20B7 JUMP JUMPDEST PUSH1 0x20 DUP3 ADD SWAP1 POP SWAP2 SWAP1 POP JUMP JUMPDEST PUSH0 PUSH1 0x20 DUP3 ADD SWAP1 POP DUP2 DUP2 SUB PUSH0 DUP4 ADD MSTORE PUSH2 0x2118 DUP2 PUSH2 0x20DF JUMP JUMPDEST SWAP1 POP SWAP2 SWAP1 POP JUMP JUMPDEST PUSH32 0x4E487B7100000000000000000000000000000000000000000000000000000000 PUSH0 MSTORE PUSH1 0x12 PUSH1 0x4 MSTORE PUSH1 0x24 PUSH0 REVERT JUMPDEST PUSH0 PUSH2 0x2156 DUP3 PUSH2 0x1D6D JUMP JUMPDEST SWAP2 POP PUSH2 0x2161 DUP4 PUSH2 0x1D6D JUMP JUMPDEST SWAP3 POP DUP3 PUSH2 0x2171 JUMPI PUSH2 0x2170 PUSH2 0x211F JUMP JUMPDEST JUMPDEST DUP3 DUP3 DIV SWAP1 POP SWAP3 SWAP2 POP POP JUMP JUMPDEST PUSH32 0x4E487B7100000000000000000000000000000000000000000000000000000000 PUSH0 MSTORE PUSH1 0x32 PUSH1 0x4 MSTORE PUSH1 0x24 PUSH0 REVERT JUMPDEST PUSH0 DUP2 MLOAD SWAP1 POP SWAP2 SWAP1 POP JUMP JUMPDEST PUSH0 DUP3 DUP3 MSTORE PUSH1 0x20 DUP3 ADD SWAP1 POP SWAP3 SWAP2 POP POP JUMP JUMPDEST PUSH0 DUP2 SWAP1 POP PUSH1 0x20 DUP3 ADD SWAP1 POP SWAP2 SWAP1 POP JUMP JUMPDEST PUSH2 0x21DB DUP2 PUSH2 0x1DC1 JUMP JUMPDEST DUP3 MSTORE POP POP JUMP JUMPDEST PUSH0 PUSH2 0x21EC DUP4 DUP4 PUSH2 0x21D2 JUMP JUMPDEST PUSH1 0x20 DUP4 ADD SWAP1 POP SWAP3 SWAP2 POP POP JUMP JUMPDEST PUSH0 PUSH1 0x20 DUP3 ADD SWAP1 POP SWAP2 SWAP1 POP JUMP JUMPDEST PUSH0 PUSH2 0x220E DUP3 PUSH2 0x21A9 JUMP JUMPDEST PUSH2 0x2218 DUP2 DUP6 PUSH2 0x21B3 JUMP JUMPDEST SWAP4 POP PUSH2 0x2223 DUP4 PUSH2 0x21C3 JUMP JUMPDEST DUP1 PUSH0 JUMPDEST DUP4 DUP2 LT ISZERO PUSH2 0x2253 JUMPI DUP2 MLOAD PUSH2 0x223A DUP9 DUP3 PUSH2 0x21E1 JUMP JUMPDEST SWAP8 POP PUSH2 0x2245 DUP4 PUSH2 0x21F8 JUMP JUMPDEST SWAP3 POP POP PUSH1 0x1 DUP2 ADD SWAP1 POP PUSH2 0x2226 JUMP JUMPDEST POP DUP6 SWAP4 POP POP POP POP SWAP3 SWAP2 POP POP JUMP JUMPDEST PUSH0 PUSH1 0x80 DUP3 ADD SWAP1 POP PUSH2 0x2273 PUSH0 DUP4 ADD DUP8 PUSH2 0x1D76 JUMP JUMPDEST DUP2 DUP2 SUB PUSH1 0x20 DUP4 ADD MSTORE PUSH2 0x2285 DUP2 DUP7 PUSH2 0x2204 JUMP JUMPDEST SWAP1 POP PUSH2 0x2294 PUSH1 0x40 DUP4 ADD DUP6 PUSH2 0x1EA1 JUMP JUMPDEST PUSH2 0x22A1 PUSH1 0x60 DUP4 ADD DUP5 PUSH2 0x1D76 JUMP JUMPDEST SWAP6 SWAP5 POP POP POP POP POP JUMP JUMPDEST PUSH0 PUSH2 0x22B4 DUP3 PUSH2 0x1D6D JUMP JUMPDEST SWAP2 POP PUSH2 0x22BF DUP4 PUSH2 0x1D6D JUMP JUMPDEST SWAP3 POP DUP3 DUP3 SUB SWAP1 POP DUP2 DUP2 GT ISZERO PUSH2 0x22D7 JUMPI PUSH2 0x22D6 PUSH2 0x2057 JUMP JUMPDEST JUMPDEST SWAP3 SWAP2 POP POP JUMP JUMPDEST PUSH0 PUSH1 0x40 DUP3 ADD SWAP1 POP PUSH2 0x22F0 PUSH0 DUP4 ADD DUP6 PUSH2 0x1EA1 JUMP JUMPDEST PUSH2 0x22FD PUSH1 0x20 DUP4 ADD DUP5 PUSH2 0x1D76 JUMP JUMPDEST SWAP4 SWAP3 POP POP POP JUMP JUMPDEST PUSH0 PUSH1 0x40 DUP3 ADD SWAP1 POP PUSH2 0x2317 PUSH0 DUP4 ADD DUP6 PUSH2 0x1EA1 JUMP JUMPDEST PUSH2 0x2324 PUSH1 0x20 DUP4 ADD DUP5 PUSH2 0x1EA1 JUMP JUMPDEST SWAP4 SWAP3 POP POP POP JUMP JUMPDEST PUSH0 DUP2 MLOAD SWAP1 POP PUSH2 0x2339 DUP2 PUSH2 0x1DD2 JUMP JUMPDEST SWAP3 SWAP2 POP POP JUMP JUMPDEST PUSH0 PUSH1 0x20 DUP3 DUP5 SUB SLT ISZERO PUSH2 0x2354 JUMPI PUSH2 0x2353 PUSH2 0x1D9E JUMP JUMPDEST JUMPDEST PUSH0 PUSH2 0x2361 DUP5 DUP3 DUP6 ADD PUSH2 0x232B JUMP JUMPDEST SWAP2 POP POP SWAP3 SWAP2 POP POP JUMP JUMPDEST PUSH32 0x45524332303A20496E73756666696369656E7420616C6C6F77616E636520666F PUSH0 DUP3 ADD MSTORE PUSH32 0x72207472616E7366657246726F6D000000000000000000000000000000000000 PUSH1 0x20 DUP3 ADD MSTORE POP JUMP JUMPDEST PUSH0 PUSH2 0x23C4 PUSH1 0x2E DUP4 PUSH2 0x1CCF JUMP JUMPDEST SWAP2 POP PUSH2 0x23CF DUP3 PUSH2 0x236A JUMP JUMPDEST PUSH1 0x40 DUP3 ADD SWAP1 POP SWAP2 SWAP1 POP JUMP JUMPDEST PUSH0 PUSH1 0x20 DUP3 ADD SWAP1 POP DUP2 DUP2 SUB PUSH0 DUP4 ADD MSTORE PUSH2 0x23F1 DUP2 PUSH2 0x23B8 JUMP JUMPDEST SWAP1 POP SWAP2 SWAP1 POP JUMP JUMPDEST PUSH0 DUP2 SWAP1 POP SWAP2 SWAP1 POP JUMP JUMPDEST PUSH0 PUSH2 0x241B PUSH2 0x2416 PUSH2 0x2411 DUP5 PUSH2 0x23F8 JUMP JUMPDEST PUSH2 0x1EF4 JUMP JUMPDEST PUSH2 0x1D6D JUMP JUMPDEST SWAP1 POP SWAP2 SWAP1 POP JUMP JUMPDEST PUSH2 0x242B DUP2 PUSH2 0x2401 JUMP JUMPDEST DUP3 MSTORE POP POP JUMP JUMPDEST PUSH0 PUSH1 0x40 DUP3 ADD SWAP1 POP PUSH2 0x2444 PUSH0 DUP4 ADD DUP6 PUSH2 0x1EA1 JUMP JUMPDEST PUSH2 0x2451 PUSH1 0x20 DUP4 ADD DUP5 PUSH2 0x2422 JUMP JUMPDEST SWAP4 SWAP3 POP POP POP JUMP JUMPDEST PUSH0 DUP2 ISZERO ISZERO SWAP1 POP SWAP2 SWAP1 POP JUMP JUMPDEST PUSH2 0x246C DUP2 PUSH2 0x2458 JUMP JUMPDEST DUP2 EQ PUSH2 0x2476 JUMPI PUSH0 DUP1 REVERT JUMPDEST POP JUMP JUMPDEST PUSH0 DUP2 MLOAD SWAP1 POP PUSH2 0x2487 DUP2 PUSH2 0x2463 JUMP JUMPDEST SWAP3 SWAP2 POP POP JUMP JUMPDEST PUSH0 PUSH1 0x20 DUP3 DUP5 SUB SLT ISZERO PUSH2 0x24A2 JUMPI PUSH2 0x24A1 PUSH2 0x1D9E JUMP JUMPDEST JUMPDEST PUSH0 PUSH2 0x24AF DUP5 DUP3 DUP6 ADD PUSH2 0x2479 JUMP JUMPDEST SWAP2 POP POP SWAP3 SWAP2 POP POP JUMP JUMPDEST PUSH0 PUSH1 0xA0 DUP3 ADD SWAP1 POP PUSH2 0x24CB PUSH0 DUP4 ADD DUP9 PUSH2 0x1D76 JUMP JUMPDEST PUSH2 0x24D8 PUSH1 0x20 DUP4 ADD DUP8 PUSH2 0x1D76 JUMP JUMPDEST DUP2 DUP2 SUB PUSH1 0x40 DUP4 ADD MSTORE PUSH2 0x24EA DUP2 DUP7 PUSH2 0x2204 JUMP JUMPDEST SWAP1 POP PUSH2 0x24F9 PUSH1 0x60 DUP4 ADD DUP6 PUSH2 0x1EA1 JUMP JUMPDEST PUSH2 0x2506 PUSH1 0x80 DUP4 ADD DUP5 PUSH2 0x1D76 JUMP JUMPDEST SWAP7 SWAP6 POP POP POP POP POP POP JUMP JUMPDEST PUSH32 0x416D6F756E74206578636565647320746865206D6178696D756D207769746864 PUSH0 DUP3 ADD MSTORE PUSH32 0x726177616C000000000000000000000000000000000000000000000000000000 PUSH1 0x20 DUP3 ADD MSTORE POP JUMP JUMPDEST PUSH0 PUSH2 0x256A PUSH1 0x25 DUP4 PUSH2 0x1CCF JUMP JUMPDEST SWAP2 POP PUSH2 0x2575 DUP3 PUSH2 0x2510 JUMP JUMPDEST PUSH1 0x40 DUP3 ADD SWAP1 POP SWAP2 SWAP1 POP JUMP JUMPDEST PUSH0 PUSH1 0x20 DUP3 ADD SWAP1 POP DUP2 DUP2 SUB PUSH0 DUP4 ADD MSTORE PUSH2 0x2597 DUP2 PUSH2 0x255E JUMP JUMPDEST SWAP1 POP SWAP2 SWAP1 POP JUMP JUMPDEST PUSH32 0x4E6F7420656E6F75676820666F756E6473000000000000000000000000000000 PUSH0 DUP3 ADD MSTORE POP JUMP JUMPDEST PUSH0 PUSH2 0x25D2 PUSH1 0x11 DUP4 PUSH2 0x1CCF JUMP JUMPDEST SWAP2 POP PUSH2 0x25DD DUP3 PUSH2 0x259E JUMP JUMPDEST PUSH1 0x20 DUP3 ADD SWAP1 POP SWAP2 SWAP1 POP JUMP JUMPDEST PUSH0 PUSH1 0x20 DUP3 ADD SWAP1 POP DUP2 DUP2 SUB PUSH0 DUP4 ADD MSTORE PUSH2 0x25FF DUP2 PUSH2 0x25C6 JUMP JUMPDEST SWAP1 POP SWAP2 SWAP1 POP JUMP JUMPDEST PUSH0 DUP3 DUP3 MSTORE PUSH1 0x20 DUP3 ADD SWAP1 POP SWAP3 SWAP2 POP POP JUMP JUMPDEST PUSH32 0x4E6F207061697200000000000000000000000000000000000000000000000000 PUSH0 DUP3 ADD MSTORE POP JUMP JUMPDEST PUSH0 PUSH2 0x264A PUSH1 0x7 DUP4 PUSH2 0x2606 JUMP JUMPDEST SWAP2 POP PUSH2 0x2655 DUP3 PUSH2 0x2616 JUMP JUMPDEST PUSH1 0x20 DUP3 ADD SWAP1 POP SWAP2 SWAP1 POP JUMP JUMPDEST PUSH0 PUSH1 0x20 DUP3 ADD SWAP1 POP DUP2 DUP2 SUB PUSH0 DUP4 ADD MSTORE PUSH2 0x2677 DUP2 PUSH2 0x263E JUMP JUMPDEST SWAP1 POP SWAP2 SWAP1 POP JUMP JUMPDEST PUSH0 PUSH14 0xFFFFFFFFFFFFFFFFFFFFFFFFFFFF DUP3 AND SWAP1 POP SWAP2 SWAP1 POP JUMP JUMPDEST PUSH2 0x26A0 DUP2 PUSH2 0x267E JUMP JUMPDEST DUP2 EQ PUSH2 0x26AA JUMPI PUSH0 DUP1 REVERT JUMPDEST POP JUMP JUMPDEST PUSH0 DUP2 MLOAD SWAP1 POP PUSH2 0x26BB DUP2 PUSH2 0x2697 JUMP JUMPDEST SWAP3 SWAP2 POP POP JUMP JUMPDEST PUSH0 PUSH4 0xFFFFFFFF DUP3 AND SWAP1 POP SWAP2 SWAP1 POP JUMP JUMPDEST PUSH2 0x26D9 DUP2 PUSH2 0x26C1 JUMP JUMPDEST DUP2 EQ PUSH2 0x26E3 JUMPI PUSH0 DUP1 REVERT JUMPDEST POP JUMP JUMPDEST PUSH0 DUP2 MLOAD SWAP1 POP PUSH2 0x26F4 DUP2 PUSH2 0x26D0 JUMP JUMPDEST SWAP3 SWAP2 POP POP JUMP JUMPDEST PUSH0 DUP1 PUSH0 PUSH1 0x60 DUP5 DUP7 SUB SLT ISZERO PUSH2 0x2711 JUMPI PUSH2 0x2710 PUSH2 0x1D9E JUMP JUMPDEST JUMPDEST PUSH0 PUSH2 0x271E DUP7 DUP3 DUP8 ADD PUSH2 0x26AD JUMP JUMPDEST SWAP4 POP POP PUSH1 0x20 PUSH2 0x272F DUP7 DUP3 DUP8 ADD PUSH2 0x26AD JUMP JUMPDEST SWAP3 POP POP PUSH1 0x40 PUSH2 0x2740 DUP7 DUP3 DUP8 ADD PUSH2 0x26E6 JUMP JUMPDEST SWAP2 POP POP SWAP3 POP SWAP3 POP SWAP3 JUMP JUMPDEST PUSH0 PUSH2 0x2754 DUP3 PUSH2 0x1D6D JUMP JUMPDEST SWAP2 POP PUSH2 0x275F DUP4 PUSH2 0x1D6D JUMP JUMPDEST SWAP3 POP DUP3 DUP3 MUL PUSH2 0x276D DUP2 PUSH2 0x1D6D JUMP JUMPDEST SWAP2 POP DUP3 DUP3 DIV DUP5 EQ DUP4 ISZERO OR PUSH2 0x2784 JUMPI PUSH2 0x2783 PUSH2 0x2057 JUMP JUMPDEST JUMPDEST POP SWAP3 SWAP2 POP POP JUMP JUMPDEST PUSH0 PUSH2 0x2795 DUP3 PUSH2 0x267E JUMP JUMPDEST SWAP2 POP PUSH2 0x27A0 DUP4 PUSH2 0x267E JUMP JUMPDEST SWAP3 POP DUP3 DUP3 MUL PUSH2 0x27AE DUP2 PUSH2 0x267E JUMP JUMPDEST SWAP2 POP DUP1 DUP3 EQ PUSH2 0x27C0 JUMPI PUSH2 0x27BF PUSH2 0x2057 JUMP JUMPDEST JUMPDEST POP SWAP3 SWAP2 POP POP JUMP JUMPDEST PUSH0 PUSH1 0x60 DUP3 ADD SWAP1 POP PUSH2 0x27DA PUSH0 DUP4 ADD DUP7 PUSH2 0x1EA1 JUMP JUMPDEST PUSH2 0x27E7 PUSH1 0x20 DUP4 ADD DUP6 PUSH2 0x1EA1 JUMP JUMPDEST PUSH2 0x27F4 PUSH1 0x40 DUP4 ADD DUP5 PUSH2 0x1D76 JUMP JUMPDEST SWAP5 SWAP4 POP POP POP POP JUMP INVALID LOG2 PUSH5 0x6970667358 0x22 SLT KECCAK256 PUSH31 0x13F7E609939E916397F2AE9CD1DB38D85FAD3A994F2EE436261FD4FC97F519 PUSH5 0x736F6C6343 STOP ADDMOD BYTE STOP CALLER "
				},
				"gasEstimates": {
					"creation": {
						"codeDepositCost": "2058000",
						"executionCost": "infinite",
						"totalCost": "infinite"
					},
					"external": {
						"": "532",
						"consultKipuBankFounds()": "infinite",
						"deposit()": "infinite",
						"depositERC20(address,uint256,uint256)": "infinite",
						"emergencyWithdrawal(uint256,address)": "infinite",
						"i_bankCap()": "infinite",
						"i_maxWithdrawal()": "infinite",
						"i_usdc()": "infinite",
						"i_weth()": "infinite",
						"owner()": "2560",
						"renounceOwnership()": "infinite",
						"s_totalDepositsByToken(address)": "2892",
						"s_totalWithdrawals()": "2469",
						"transferOwnership(address)": "infinite",
						"uniswapFactory()": "infinite",
						"uniswapRouter()": "infinite",
						"withdrawUsdc(uint256)": "infinite"
					},
					"internal": {
						"_actualizeOperations(bool,address)": "infinite",
						"_consultFounds()": "infinite",
						"_depositETH(address,uint256)": "infinite",
						"_estimateUSDCOut(address,uint256)": "infinite"
					}
				},
				"methodIdentifiers": {
					"consultKipuBankFounds()": "06f69acc",
					"deposit()": "d0e30db0",
					"depositERC20(address,uint256,uint256)": "21425ee0",
					"emergencyWithdrawal(uint256,address)": "9e2b5339",
					"i_bankCap()": "f6687af7",
					"i_maxWithdrawal()": "089781a9",
					"i_usdc()": "ff40e1d0",
					"i_weth()": "4dbe7e92",
					"owner()": "8da5cb5b",
					"renounceOwnership()": "715018a6",
					"s_totalDepositsByToken(address)": "260ad389",
					"s_totalWithdrawals()": "f3db702c",
					"transferOwnership(address)": "f2fde38b",
					"uniswapFactory()": "8bdb2afa",
					"uniswapRouter()": "735de9f7",
					"withdrawUsdc(uint256)": "5b06dece"
				}
			},
			"storageLayout": {
				"storage": [
					{
						"astId": 8,
						"contract": "contracts/KipuBankV3.sol:KipuBankV3",
						"label": "_owner",
						"offset": 0,
						"slot": "0",
						"type": "t_address"
					},
					{
						"astId": 846,
						"contract": "contracts/KipuBankV3.sol:KipuBankV3",
						"label": "_status",
						"offset": 0,
						"slot": "1",
						"type": "t_uint256"
					},
					{
						"astId": 1648,
						"contract": "contracts/KipuBankV3.sol:KipuBankV3",
						"label": "s_balances",
						"offset": 0,
						"slot": "2",
						"type": "t_mapping(t_address,t_uint256)"
					},
					{
						"astId": 1653,
						"contract": "contracts/KipuBankV3.sol:KipuBankV3",
						"label": "s_totalDepositsByToken",
						"offset": 0,
						"slot": "3",
						"type": "t_mapping(t_address,t_uint256)"
					},
					{
						"astId": 1656,
						"contract": "contracts/KipuBankV3.sol:KipuBankV3",
						"label": "s_totalWithdrawals",
						"offset": 0,
						"slot": "4",
						"type": "t_uint256"
					},
					{
						"astId": 1675,
						"contract": "contracts/KipuBankV3.sol:KipuBankV3",
						"label": "uniswapFactory",
						"offset": 0,
						"slot": "5",
						"type": "t_contract(IUniswapV2Factory)979"
					}
				],
				"types": {
					"t_address": {
						"encoding": "inplace",
						"label": "address",
						"numberOfBytes": "20"
					},
					"t_contract(IUniswapV2Factory)979": {
						"encoding": "inplace",
						"label": "contract IUniswapV2Factory",
						"numberOfBytes": "20"
					},
					"t_mapping(t_address,t_uint256)": {
						"encoding": "mapping",
						"key": "t_address",
						"label": "mapping(address => uint256)",
						"numberOfBytes": "32",
						"value": "t_uint256"
					},
					"t_uint256": {
						"encoding": "inplace",
						"label": "uint256",
						"numberOfBytes": "32"
					}
				}
			},
			"userdoc": {
				"kind": "user",
				"methods": {
					"i_bankCap()": {
						"notice": "Maximum Ether capacity that the bank can hold."
					},
					"i_maxWithdrawal()": {
						"notice": "Maximum allowed withdrawal amount per transaction."
					},
					"i_usdc()": {
						"notice": "USDC ERC20 token instance."
					},
					"s_totalDepositsByToken(address)": {
						"notice": "PUEDE QUE LA CANTIDAD DE DEPOSITS POR TOKEN LOS ELIMINE Y VUELVAN A SER GENERALES Total number of deposits made per token."
					},
					"s_totalWithdrawals()": {
						"notice": "Total number of withdrawals made."
					},
					"uniswapRouter()": {
						"notice": "Uniswap V2 Router instance for token swaps."
					}
				},
				"version": 1
			}
		}
	}
}