{
	"data": {
		"bytecode": {
			"linkReferences": {},
			"object": "610120604052348015610010575f80fd5b50604051612e68380380612e68833981810160405281019061003291906103d6565b855f73ffffffffffffffffffffffffffffffffffffffff168173ffffffffffffffffffffffffffffffffffffffff16036100a3575f6040517f1e4fbdf700000000000000000000000000000000000000000000000000000000815260040161009a919061046e565b60405180910390fd5b6100b28161028460201b60201c565b5060018081905550600a8210806100c95750600181105b156100ff576040517e01d65100000000000000000000000000000000000000000000000000000000815260040160405180910390fd5b6305f5e1008261010f91906104b4565b608081815250506305f5e1008161012691906104b4565b60a081815250508373ffffffffffffffffffffffffffffffffffffffff1660c08173ffffffffffffffffffffffffffffffffffffffff16815250508473ffffffffffffffffffffffffffffffffffffffff1660e08173ffffffffffffffffffffffffffffffffffffffff16815250508273ffffffffffffffffffffffffffffffffffffffff166101008173ffffffffffffffffffffffffffffffffffffffff16815250506101005173ffffffffffffffffffffffffffffffffffffffff1663c45a01556040518163ffffffff1660e01b8152600401602060405180830381865afa158015610216573d5f803e3d5ffd5b505050506040513d601f19601f8201168201806040525081019061023a91906104f5565b60055f6101000a81548173ffffffffffffffffffffffffffffffffffffffff021916908373ffffffffffffffffffffffffffffffffffffffff160217905550505050505050610520565b5f805f9054906101000a900473ffffffffffffffffffffffffffffffffffffffff169050815f806101000a81548173ffffffffffffffffffffffffffffffffffffffff021916908373ffffffffffffffffffffffffffffffffffffffff1602179055508173ffffffffffffffffffffffffffffffffffffffff168173ffffffffffffffffffffffffffffffffffffffff167f8be0079c531659141344cd1fd0a4f28419497f9722a3daafe3b4186f6b6457e060405160405180910390a35050565b5f80fd5b5f73ffffffffffffffffffffffffffffffffffffffff82169050919050565b5f61037282610349565b9050919050565b61038281610368565b811461038c575f80fd5b50565b5f8151905061039d81610379565b92915050565b5f819050919050565b6103b5816103a3565b81146103bf575f80fd5b50565b5f815190506103d0816103ac565b92915050565b5f805f805f8060c087890312156103f0576103ef610345565b5b5f6103fd89828a0161038f565b965050602061040e89828a0161038f565b955050604061041f89828a0161038f565b945050606061043089828a0161038f565b935050608061044189828a016103c2565b92505060a061045289828a016103c2565b9150509295509295509295565b61046881610368565b82525050565b5f6020820190506104815f83018461045f565b92915050565b7f4e487b71000000000000000000000000000000000000000000000000000000005f52601160045260245ffd5b5f6104be826103a3565b91506104c9836103a3565b92508282026104d7816103a3565b915082820484148315176104ee576104ed610487565b5b5092915050565b5f6020828403121561050a57610509610345565b5b5f6105178482850161038f565b91505092915050565b60805160a05160c05160e051610100516128326106365f395f81816106b001528181610db301528181610e4f01528181610f8e01526113cf01525f81816103c601528181610599015281816105d30152818161084d015281816109c001528181610a520152818161119f015261169e01525f8181610417015281816104fb015281816106410152818161074c0152818161094101528181610b9801528181610ca901528181610d4401528181610f1f0152818161102a015281816113060152818161136a0152818161144c01528181611560015281816115850152818161161f015281816117a201526118fa01525f81816108d501526111cd01525f81816103f501528181610b76015261153c01526128325ff3fe6080604052600436106100f6575f3560e01c80638bdb2afa11610089578063f2fde38b11610058578063f2fde38b1461031e578063f3db702c14610346578063f6687af714610370578063ff40e1d01461039a57610107565b80638bdb2afa146102985780638da5cb5b146102c25780639e2b5339146102ec578063d0e30db01461031457610107565b80634dbe7e92116100c55780634dbe7e92146102065780635b06dece14610230578063715018a614610258578063735de9f71461026e57610107565b806306f69acc1461014e578063089781a91461017857806321425ee0146101a2578063260ad389146101ca57610107565b366101075761010533346103c4565b005b348015610112575f80fd5b506040517f336ea14200000000000000000000000000000000000000000000000000000000815260040161014590611d4f565b60405180910390fd5b348015610159575f80fd5b506101626108b6565b60405161016f9190611d85565b60405180910390f35b348015610183575f80fd5b5061018c6108d3565b6040516101999190611d85565b60405180910390f35b3480156101ad575f80fd5b506101c860048036038101906101c39190611e26565b6108f7565b005b3480156101d5575f80fd5b506101f060048036038101906101eb9190611e76565b611188565b6040516101fd9190611d85565b60405180910390f35b348015610211575f80fd5b5061021a61119d565b6040516102279190611eb0565b60405180910390f35b34801561023b575f80fd5b5061025660048036038101906102519190611ec9565b6111c1565b005b348015610263575f80fd5b5061026c6113ba565b005b348015610279575f80fd5b506102826113cd565b60405161028f9190611f4f565b60405180910390f35b3480156102a3575f80fd5b506102ac6113f1565b6040516102b99190611f88565b60405180910390f35b3480156102cd575f80fd5b506102d6611416565b6040516102e39190611eb0565b60405180910390f35b3480156102f7575f80fd5b50610312600480360381019061030d9190611fa1565b61143d565b005b61031c611494565b005b348015610329575f80fd5b50610344600480360381019061033f9190611e76565b6114b0565b005b348015610351575f80fd5b5061035a611534565b6040516103679190611d85565b60405180910390f35b34801561037b575f80fd5b5061038461153a565b6040516103919190611d85565b60405180910390f35b3480156103a5575f80fd5b506103ae61155e565b6040516103bb9190611fff565b60405180910390f35b7f0000000000000000000000000000000000000000000000000000000000000000815f6103f18383611582565b90507f0000000000000000000000000000000000000000000000000000000000000000817f000000000000000000000000000000000000000000000000000000000000000073ffffffffffffffffffffffffffffffffffffffff166370a08231306040518263ffffffff1660e01b815260040161046e9190611eb0565b602060405180830381865afa158015610489573d5f803e3d5ffd5b505050506040513d601f19601f820116820180604052508101906104ad919061202c565b6104b79190612084565b11156104f8576040517fa2d2e1b20000000000000000000000000000000000000000000000000000000081526004016104ef90612101565b60405180910390fd5b5f7f000000000000000000000000000000000000000000000000000000000000000073ffffffffffffffffffffffffffffffffffffffff166370a08231306040518263ffffffff1660e01b81526004016105529190611eb0565b602060405180830381865afa15801561056d573d5f803e3d5ffd5b505050506040513d601f19601f82011682018060405250810190610591919061202c565b90505f6105be7f000000000000000000000000000000000000000000000000000000000000000087611582565b9050605a816105cd919061214c565b905060607f0000000000000000000000000000000000000000000000000000000000000000815f815181106106055761060461217c565b5b602002602001019073ffffffffffffffffffffffffffffffffffffffff16908173ffffffffffffffffffffffffffffffffffffffff16815250507f0000000000000000000000000000000000000000000000000000000000000000816001815181106106745761067361217c565b5b602002602001019073ffffffffffffffffffffffffffffffffffffffff16908173ffffffffffffffffffffffffffffffffffffffff16815250507f000000000000000000000000000000000000000000000000000000000000000073ffffffffffffffffffffffffffffffffffffffff1663b6f9de958884843061012c426106fc9190612084565b6040518663ffffffff1660e01b815260040161071b9493929190612260565b5f604051808303818588803b158015610732575f80fd5b505af1158015610744573d5f803e3d5ffd5b50505050505f7f000000000000000000000000000000000000000000000000000000000000000073ffffffffffffffffffffffffffffffffffffffff166370a08231306040518263ffffffff1660e01b81526004016107a39190611eb0565b602060405180830381865afa1580156107be573d5f803e3d5ffd5b505050506040513d601f19601f820116820180604052508101906107e2919061202c565b90505f84826107f191906122aa565b90508060025f8c73ffffffffffffffffffffffffffffffffffffffff1673ffffffffffffffffffffffffffffffffffffffff1681526020019081526020015f205f82825461083f9190612084565b9250508190555061087160017f000000000000000000000000000000000000000000000000000000000000000061187a565b7f7b7cd0ddbbea241880e825e1eb51c30752cb96dd7efeb4be691ec55dfa4d89638a826040516108a29291906122dd565b60405180910390a150505050505050505050565b5f6305f5e1006108c46118f7565b6108ce919061214c565b905090565b7f000000000000000000000000000000000000000000000000000000000000000081565b6108ff611995565b825f60055f9054906101000a900473ffffffffffffffffffffffffffffffffffffffff1673ffffffffffffffffffffffffffffffffffffffff1663e6a43905837f00000000000000000000000000000000000000000000000000000000000000006040518363ffffffff1660e01b815260040161097d929190612304565b602060405180830381865afa158015610998573d5f803e3d5ffd5b505050506040513d601f19601f820116820180604052508101906109bc919061233f565b90507f000000000000000000000000000000000000000000000000000000000000000073ffffffffffffffffffffffffffffffffffffffff168173ffffffffffffffffffffffffffffffffffffffff1603610a4e57816040517fe584a63f000000000000000000000000000000000000000000000000000000008152600401610a459190611eb0565b60405180910390fd5b84847f000000000000000000000000000000000000000000000000000000000000000073ffffffffffffffffffffffffffffffffffffffff168273ffffffffffffffffffffffffffffffffffffffff1614610b65575f829050818173ffffffffffffffffffffffffffffffffffffffff1663dd62ed3e33306040518363ffffffff1660e01b8152600401610ae3929190612304565b602060405180830381865afa158015610afe573d5f803e3d5ffd5b505050506040513d601f19601f82011682018060405250810190610b22919061202c565b1015610b63576040517f336ea142000000000000000000000000000000000000000000000000000000008152600401610b5a906123da565b60405180910390fd5b505b86865f610b728383611582565b90507f0000000000000000000000000000000000000000000000000000000000000000817f000000000000000000000000000000000000000000000000000000000000000073ffffffffffffffffffffffffffffffffffffffff166370a08231306040518263ffffffff1660e01b8152600401610bef9190611eb0565b602060405180830381865afa158015610c0a573d5f803e3d5ffd5b505050506040513d601f19601f82011682018060405250810190610c2e919061202c565b610c389190612084565b1115610c79576040517fa2d2e1b2000000000000000000000000000000000000000000000000000000008152600401610c7090612101565b60405180910390fd5b610ca633308b8d73ffffffffffffffffffffffffffffffffffffffff166119db909392919063ffffffff16565b5f7f000000000000000000000000000000000000000000000000000000000000000073ffffffffffffffffffffffffffffffffffffffff166370a08231306040518263ffffffff1660e01b8152600401610d009190611eb0565b602060405180830381865afa158015610d1b573d5f803e3d5ffd5b505050506040513d601f19601f82011682018060405250810190610d3f919061202c565b90505f7f000000000000000000000000000000000000000000000000000000000000000073ffffffffffffffffffffffffffffffffffffffff168c73ffffffffffffffffffffffffffffffffffffffff16146110d7578b73ffffffffffffffffffffffffffffffffffffffff1663095ea7b37f00000000000000000000000000000000000000000000000000000000000000005f6040518363ffffffff1660e01b8152600401610df0929190612431565b6020604051808303815f875af1158015610e0c573d5f803e3d5ffd5b505050506040513d601f19601f82011682018060405250810190610e30919061248d565b508b73ffffffffffffffffffffffffffffffffffffffff1663095ea7b37f00000000000000000000000000000000000000000000000000000000000000008d6040518363ffffffff1660e01b8152600401610e8c9291906122dd565b6020604051808303815f875af1158015610ea8573d5f803e3d5ffd5b505050506040513d601f19601f82011682018060405250810190610ecc919061248d565b5060608c815f81518110610ee357610ee261217c565b5b602002602001019073ffffffffffffffffffffffffffffffffffffffff16908173ffffffffffffffffffffffffffffffffffffffff16815250507f000000000000000000000000000000000000000000000000000000000000000081600181518110610f5257610f5161217c565b5b602002602001019073ffffffffffffffffffffffffffffffffffffffff16908173ffffffffffffffffffffffffffffffffffffffff16815250507f000000000000000000000000000000000000000000000000000000000000000073ffffffffffffffffffffffffffffffffffffffff16635c11d7958d8d843061012c42610fda9190612084565b6040518663ffffffff1660e01b8152600401610ffa9594939291906124b8565b5f604051808303815f87803b158015611011575f80fd5b505af1158015611023573d5f803e3d5ffd5b505050505f7f000000000000000000000000000000000000000000000000000000000000000073ffffffffffffffffffffffffffffffffffffffff166370a08231306040518263ffffffff1660e01b81526004016110819190611eb0565b602060405180830381865afa15801561109c573d5f803e3d5ffd5b505050506040513d601f19601f820116820180604052508101906110c0919061202c565b905083816110ce91906122aa565b925050506110db565b8a90505b8060025f3373ffffffffffffffffffffffffffffffffffffffff1673ffffffffffffffffffffffffffffffffffffffff1681526020019081526020015f205f8282546111279190612084565b9250508190555061113960018d61187a565b7f7b7cd0ddbbea241880e825e1eb51c30752cb96dd7efeb4be691ec55dfa4d8963338260405161116a9291906122dd565b60405180910390a1505050505050505050611183611a5d565b505050565b6003602052805f5260405f205f915090505481565b7f000000000000000000000000000000000000000000000000000000000000000081565b6111c9611995565b80807f0000000000000000000000000000000000000000000000000000000000000000101561122d576040517f0fc0517400000000000000000000000000000000000000000000000000000000815260040161122490612580565b60405180910390fd5b8060025f3373ffffffffffffffffffffffffffffffffffffffff1673ffffffffffffffffffffffffffffffffffffffff1681526020019081526020015f205410156112ad576040517fe7fe37fb0000000000000000000000000000000000000000000000000000000081526004016112a4906125e8565b60405180910390fd5b8160025f3373ffffffffffffffffffffffffffffffffffffffff1673ffffffffffffffffffffffffffffffffffffffff1681526020019081526020015f205f8282546112f991906122aa565b9250508190555061132a5f7f000000000000000000000000000000000000000000000000000000000000000061187a565b7f1ff21e81cff87fccbac096ad565f52cb1b358db04a736a6a137cceb4a287a702338360405161135b9291906122dd565b60405180910390a16113ae33837f000000000000000000000000000000000000000000000000000000000000000073ffffffffffffffffffffffffffffffffffffffff16611a669092919063ffffffff16565b506113b7611a5d565b50565b6113c2611ae5565b6113cb5f611b6c565b565b7f000000000000000000000000000000000000000000000000000000000000000081565b60055f9054906101000a900473ffffffffffffffffffffffffffffffffffffffff1681565b5f805f9054906101000a900473ffffffffffffffffffffffffffffffffffffffff16905090565b611445611ae5565b61149081837f000000000000000000000000000000000000000000000000000000000000000073ffffffffffffffffffffffffffffffffffffffff16611a669092919063ffffffff16565b5050565b61149c611995565b6114a633346103c4565b6114ae611a5d565b565b6114b8611ae5565b5f73ffffffffffffffffffffffffffffffffffffffff168173ffffffffffffffffffffffffffffffffffffffff1603611528575f6040517f1e4fbdf700000000000000000000000000000000000000000000000000000000815260040161151f9190611eb0565b60405180910390fd5b61153181611b6c565b50565b60045481565b7f000000000000000000000000000000000000000000000000000000000000000081565b7f000000000000000000000000000000000000000000000000000000000000000081565b5f7f000000000000000000000000000000000000000000000000000000000000000073ffffffffffffffffffffffffffffffffffffffff168373ffffffffffffffffffffffffffffffffffffffff16036115de57819050611874565b5f60055f9054906101000a900473ffffffffffffffffffffffffffffffffffffffff1673ffffffffffffffffffffffffffffffffffffffff1663e6a43905857f00000000000000000000000000000000000000000000000000000000000000006040518363ffffffff1660e01b815260040161165b929190612304565b602060405180830381865afa158015611676573d5f803e3d5ffd5b505050506040513d601f19601f8201168201806040525081019061169a919061233f565b90507f000000000000000000000000000000000000000000000000000000000000000073ffffffffffffffffffffffffffffffffffffffff168173ffffffffffffffffffffffffffffffffffffffff160361172a576040517f08c379a000000000000000000000000000000000000000000000000000000000815260040161172190612660565b60405180910390fd5b5f808273ffffffffffffffffffffffffffffffffffffffff16630902f1ac6040518163ffffffff1660e01b8152600401606060405180830381865afa158015611775573d5f803e3d5ffd5b505050506040513d601f19601f8201168201806040525081019061179991906126fa565b50915091505f807f000000000000000000000000000000000000000000000000000000000000000073ffffffffffffffffffffffffffffffffffffffff168873ffffffffffffffffffffffffffffffffffffffff16106117fa5782846117fd565b83835b915091505f6103e588611810919061274a565b90505f826dffffffffffffffffffffffffffff168261182f919061274a565b90505f826103e886611841919061278b565b6dffffffffffffffffffffffffffff1661185b9190612084565b90508082611869919061214c565b985050505050505050505b92915050565b81156118d957600160035f8373ffffffffffffffffffffffffffffffffffffffff1673ffffffffffffffffffffffffffffffffffffffff1681526020019081526020015f205f8282546118cd9190612084565b925050819055506118f3565b600160045f8282546118eb9190612084565b925050819055505b5050565b5f7f000000000000000000000000000000000000000000000000000000000000000073ffffffffffffffffffffffffffffffffffffffff166370a08231306040518263ffffffff1660e01b81526004016119519190611eb0565b602060405180830381865afa15801561196c573d5f803e3d5ffd5b505050506040513d601f19601f82011682018060405250810190611990919061202c565b905090565b6002600154036119d1576040517f3ee5aeb500000000000000000000000000000000000000000000000000000000815260040160405180910390fd5b6002600181905550565b611a57848573ffffffffffffffffffffffffffffffffffffffff166323b872dd868686604051602401611a10939291906127c7565b604051602081830303815290604052915060e01b6020820180517bffffffffffffffffffffffffffffffffffffffffffffffffffffffff8381831617835250505050611c2d565b50505050565b60018081905550565b611ae0838473ffffffffffffffffffffffffffffffffffffffff1663a9059cbb8585604051602401611a999291906122dd565b604051602081830303815290604052915060e01b6020820180517bffffffffffffffffffffffffffffffffffffffffffffffffffffffff8381831617835250505050611c2d565b505050565b611aed611cc8565b73ffffffffffffffffffffffffffffffffffffffff16611b0b611416565b73ffffffffffffffffffffffffffffffffffffffff1614611b6a57611b2e611cc8565b6040517f118cdaa7000000000000000000000000000000000000000000000000000000008152600401611b619190611eb0565b60405180910390fd5b565b5f805f9054906101000a900473ffffffffffffffffffffffffffffffffffffffff169050815f806101000a81548173ffffffffffffffffffffffffffffffffffffffff021916908373ffffffffffffffffffffffffffffffffffffffff1602179055508173ffffffffffffffffffffffffffffffffffffffff168173ffffffffffffffffffffffffffffffffffffffff167f8be0079c531659141344cd1fd0a4f28419497f9722a3daafe3b4186f6b6457e060405160405180910390a35050565b5f8060205f8451602086015f885af180611c4c576040513d5f823e3d81fd5b3d92505f519150505f8214611c65576001811415611c80565b5f8473ffffffffffffffffffffffffffffffffffffffff163b145b15611cc257836040517f5274afe7000000000000000000000000000000000000000000000000000000008152600401611cb99190611eb0565b60405180910390fd5b50505050565b5f33905090565b5f82825260208201905092915050565b7f4f7065726174696f6e20646f6573206e6f7420657869737473206f72206461745f8201527f612077617320696e636f72726563740000000000000000000000000000000000602082015250565b5f611d39602f83611ccf565b9150611d4482611cdf565b604082019050919050565b5f6020820190508181035f830152611d6681611d2d565b9050919050565b5f819050919050565b611d7f81611d6d565b82525050565b5f602082019050611d985f830184611d76565b92915050565b5f80fd5b5f73ffffffffffffffffffffffffffffffffffffffff82169050919050565b5f611dcb82611da2565b9050919050565b611ddb81611dc1565b8114611de5575f80fd5b50565b5f81359050611df681611dd2565b92915050565b611e0581611d6d565b8114611e0f575f80fd5b50565b5f81359050611e2081611dfc565b92915050565b5f805f60608486031215611e3d57611e3c611d9e565b5b5f611e4a86828701611de8565b9350506020611e5b86828701611e12565b9250506040611e6c86828701611e12565b9150509250925092565b5f60208284031215611e8b57611e8a611d9e565b5b5f611e9884828501611de8565b91505092915050565b611eaa81611dc1565b82525050565b5f602082019050611ec35f830184611ea1565b92915050565b5f60208284031215611ede57611edd611d9e565b5b5f611eeb84828501611e12565b91505092915050565b5f819050919050565b5f611f17611f12611f0d84611da2565b611ef4565b611da2565b9050919050565b5f611f2882611efd565b9050919050565b5f611f3982611f1e565b9050919050565b611f4981611f2f565b82525050565b5f602082019050611f625f830184611f40565b92915050565b5f611f7282611f1e565b9050919050565b611f8281611f68565b82525050565b5f602082019050611f9b5f830184611f79565b92915050565b5f8060408385031215611fb757611fb6611d9e565b5b5f611fc485828601611e12565b9250506020611fd585828601611de8565b9150509250929050565b5f611fe982611f1e565b9050919050565b611ff981611fdf565b82525050565b5f6020820190506120125f830184611ff0565b92915050565b5f8151905061202681611dfc565b92915050565b5f6020828403121561204157612040611d9e565b5b5f61204e84828501612018565b91505092915050565b7f4e487b71000000000000000000000000000000000000000000000000000000005f52601160045260245ffd5b5f61208e82611d6d565b915061209983611d6d565b92508282019050808211156120b1576120b0612057565b5b92915050565b7f546f74616c204b69707542616e6b27732066756e6473206578636565646564005f82015250565b5f6120eb601f83611ccf565b91506120f6826120b7565b602082019050919050565b5f6020820190508181035f830152612118816120df565b9050919050565b7f4e487b71000000000000000000000000000000000000000000000000000000005f52601260045260245ffd5b5f61215682611d6d565b915061216183611d6d565b9250826121715761217061211f565b5b828204905092915050565b7f4e487b71000000000000000000000000000000000000000000000000000000005f52603260045260245ffd5b5f81519050919050565b5f82825260208201905092915050565b5f819050602082019050919050565b6121db81611dc1565b82525050565b5f6121ec83836121d2565b60208301905092915050565b5f602082019050919050565b5f61220e826121a9565b61221881856121b3565b9350612223836121c3565b805f5b8381101561225357815161223a88826121e1565b9750612245836121f8565b925050600181019050612226565b5085935050505092915050565b5f6080820190506122735f830187611d76565b81810360208301526122858186612204565b90506122946040830185611ea1565b6122a16060830184611d76565b95945050505050565b5f6122b482611d6d565b91506122bf83611d6d565b92508282039050818111156122d7576122d6612057565b5b92915050565b5f6040820190506122f05f830185611ea1565b6122fd6020830184611d76565b9392505050565b5f6040820190506123175f830185611ea1565b6123246020830184611ea1565b9392505050565b5f8151905061233981611dd2565b92915050565b5f6020828403121561235457612353611d9e565b5b5f6123618482850161232b565b91505092915050565b7f45524332303a20496e73756666696369656e7420616c6c6f77616e636520666f5f8201527f72207472616e7366657246726f6d000000000000000000000000000000000000602082015250565b5f6123c4602e83611ccf565b91506123cf8261236a565b604082019050919050565b5f6020820190508181035f8301526123f1816123b8565b9050919050565b5f819050919050565b5f61241b612416612411846123f8565b611ef4565b611d6d565b9050919050565b61242b81612401565b82525050565b5f6040820190506124445f830185611ea1565b6124516020830184612422565b9392505050565b5f8115159050919050565b61246c81612458565b8114612476575f80fd5b50565b5f8151905061248781612463565b92915050565b5f602082840312156124a2576124a1611d9e565b5b5f6124af84828501612479565b91505092915050565b5f60a0820190506124cb5f830188611d76565b6124d86020830187611d76565b81810360408301526124ea8186612204565b90506124f96060830185611ea1565b6125066080830184611d76565b9695505050505050565b7f416d6f756e74206578636565647320746865206d6178696d756d2077697468645f8201527f726177616c000000000000000000000000000000000000000000000000000000602082015250565b5f61256a602583611ccf565b915061257582612510565b604082019050919050565b5f6020820190508181035f8301526125978161255e565b9050919050565b7f4e6f7420656e6f75676820666f756e64730000000000000000000000000000005f82015250565b5f6125d2601183611ccf565b91506125dd8261259e565b602082019050919050565b5f6020820190508181035f8301526125ff816125c6565b9050919050565b5f82825260208201905092915050565b7f4e6f2070616972000000000000000000000000000000000000000000000000005f82015250565b5f61264a600783612606565b915061265582612616565b602082019050919050565b5f6020820190508181035f8301526126778161263e565b9050919050565b5f6dffffffffffffffffffffffffffff82169050919050565b6126a08161267e565b81146126aa575f80fd5b50565b5f815190506126bb81612697565b92915050565b5f63ffffffff82169050919050565b6126d9816126c1565b81146126e3575f80fd5b50565b5f815190506126f4816126d0565b92915050565b5f805f6060848603121561271157612710611d9e565b5b5f61271e868287016126ad565b935050602061272f868287016126ad565b9250506040612740868287016126e6565b9150509250925092565b5f61275482611d6d565b915061275f83611d6d565b925082820261276d81611d6d565b9150828204841483151761278457612783612057565b5b5092915050565b5f6127958261267e565b91506127a08361267e565b92508282026127ae8161267e565b91508082146127c0576127bf612057565b5b5092915050565b5f6060820190506127da5f830186611ea1565b6127e76020830185611ea1565b6127f46040830184611d76565b94935050505056fea26469706673582212207e13f7e609939e916397f2ae9cd1db38d85fad3a994f2ee436261fd4fc97f51964736f6c634300081a0033",
			"opcodes": "PUSH2 0x120 PUSH1 0x40 MSTORE CALLVALUE DUP1 ISZERO PUSH2 0x10 JUMPI PUSH0 DUP1 REVERT JUMPDEST POP PUSH1 0x40 MLOAD PUSH2 0x2E68 CODESIZE SUB DUP1 PUSH2 0x2E68 DUP4 CODECOPY DUP2 DUP2 ADD PUSH1 0x40 MSTORE DUP2 ADD SWAP1 PUSH2 0x32 SWAP2 SWAP1 PUSH2 0x3D6 JUMP JUMPDEST DUP6 PUSH0 PUSH20 0xFFFFFFFFFFFFFFFFFFFFFFFFFFFFFFFFFFFFFFFF AND DUP2 PUSH20 0xFFFFFFFFFFFFFFFFFFFFFFFFFFFFFFFFFFFFFFFF AND SUB PUSH2 0xA3 JUMPI PUSH0 PUSH1 0x40 MLOAD PUSH32 0x1E4FBDF700000000000000000000000000000000000000000000000000000000 DUP2 MSTORE PUSH1 0x4 ADD PUSH2 0x9A SWAP2 SWAP1 PUSH2 0x46E JUMP JUMPDEST PUSH1 0x40 MLOAD DUP1 SWAP2 SUB SWAP1 REVERT JUMPDEST PUSH2 0xB2 DUP2 PUSH2 0x284 PUSH1 0x20 SHL PUSH1 0x20 SHR JUMP JUMPDEST POP PUSH1 0x1 DUP1 DUP2 SWAP1 SSTORE POP PUSH1 0xA DUP3 LT DUP1 PUSH2 0xC9 JUMPI POP PUSH1 0x1 DUP2 LT JUMPDEST ISZERO PUSH2 0xFF JUMPI PUSH1 0x40 MLOAD PUSH31 0x1D65100000000000000000000000000000000000000000000000000000000 DUP2 MSTORE PUSH1 0x4 ADD PUSH1 0x40 MLOAD DUP1 SWAP2 SUB SWAP1 REVERT JUMPDEST PUSH4 0x5F5E100 DUP3 PUSH2 0x10F SWAP2 SWAP1 PUSH2 0x4B4 JUMP JUMPDEST PUSH1 0x80 DUP2 DUP2 MSTORE POP POP PUSH4 0x5F5E100 DUP2 PUSH2 0x126 SWAP2 SWAP1 PUSH2 0x4B4 JUMP JUMPDEST PUSH1 0xA0 DUP2 DUP2 MSTORE POP POP DUP4 PUSH20 0xFFFFFFFFFFFFFFFFFFFFFFFFFFFFFFFFFFFFFFFF AND PUSH1 0xC0 DUP2 PUSH20 0xFFFFFFFFFFFFFFFFFFFFFFFFFFFFFFFFFFFFFFFF AND DUP2 MSTORE POP POP DUP5 PUSH20 0xFFFFFFFFFFFFFFFFFFFFFFFFFFFFFFFFFFFFFFFF AND PUSH1 0xE0 DUP2 PUSH20 0xFFFFFFFFFFFFFFFFFFFFFFFFFFFFFFFFFFFFFFFF AND DUP2 MSTORE POP POP DUP3 PUSH20 0xFFFFFFFFFFFFFFFFFFFFFFFFFFFFFFFFFFFFFFFF AND PUSH2 0x100 DUP2 PUSH20 0xFFFFFFFFFFFFFFFFFFFFFFFFFFFFFFFFFFFFFFFF AND DUP2 MSTORE POP POP PUSH2 0x100 MLOAD PUSH20 0xFFFFFFFFFFFFFFFFFFFFFFFFFFFFFFFFFFFFFFFF AND PUSH4 0xC45A0155 PUSH1 0x40 MLOAD DUP2 PUSH4 0xFFFFFFFF AND PUSH1 0xE0 SHL DUP2 MSTORE PUSH1 0x4 ADD PUSH1 0x20 PUSH1 0x40 MLOAD DUP1 DUP4 SUB DUP2 DUP7 GAS STATICCALL ISZERO DUP1 ISZERO PUSH2 0x216 JUMPI RETURNDATASIZE PUSH0 DUP1 RETURNDATACOPY RETURNDATASIZE PUSH0 REVERT JUMPDEST POP POP POP POP PUSH1 0x40 MLOAD RETURNDATASIZE PUSH1 0x1F NOT PUSH1 0x1F DUP3 ADD AND DUP3 ADD DUP1 PUSH1 0x40 MSTORE POP DUP2 ADD SWAP1 PUSH2 0x23A SWAP2 SWAP1 PUSH2 0x4F5 JUMP JUMPDEST PUSH1 0x5 PUSH0 PUSH2 0x100 EXP DUP2 SLOAD DUP2 PUSH20 0xFFFFFFFFFFFFFFFFFFFFFFFFFFFFFFFFFFFFFFFF MUL NOT AND SWAP1 DUP4 PUSH20 0xFFFFFFFFFFFFFFFFFFFFFFFFFFFFFFFFFFFFFFFF AND MUL OR SWAP1 SSTORE POP POP POP POP POP POP POP PUSH2 0x520 JUMP JUMPDEST PUSH0 DUP1 PUSH0 SWAP1 SLOAD SWAP1 PUSH2 0x100 EXP SWAP1 DIV PUSH20 0xFFFFFFFFFFFFFFFFFFFFFFFFFFFFFFFFFFFFFFFF AND SWAP1 POP DUP2 PUSH0 DUP1 PUSH2 0x100 EXP DUP2 SLOAD DUP2 PUSH20 0xFFFFFFFFFFFFFFFFFFFFFFFFFFFFFFFFFFFFFFFF MUL NOT AND SWAP1 DUP4 PUSH20 0xFFFFFFFFFFFFFFFFFFFFFFFFFFFFFFFFFFFFFFFF AND MUL OR SWAP1 SSTORE POP DUP2 PUSH20 0xFFFFFFFFFFFFFFFFFFFFFFFFFFFFFFFFFFFFFFFF AND DUP2 PUSH20 0xFFFFFFFFFFFFFFFFFFFFFFFFFFFFFFFFFFFFFFFF AND PUSH32 0x8BE0079C531659141344CD1FD0A4F28419497F9722A3DAAFE3B4186F6B6457E0 PUSH1 0x40 MLOAD PUSH1 0x40 MLOAD DUP1 SWAP2 SUB SWAP1 LOG3 POP POP JUMP JUMPDEST PUSH0 DUP1 REVERT JUMPDEST PUSH0 PUSH20 0xFFFFFFFFFFFFFFFFFFFFFFFFFFFFFFFFFFFFFFFF DUP3 AND SWAP1 POP SWAP2 SWAP1 POP JUMP JUMPDEST PUSH0 PUSH2 0x372 DUP3 PUSH2 0x349 JUMP JUMPDEST SWAP1 POP SWAP2 SWAP1 POP JUMP JUMPDEST PUSH2 0x382 DUP2 PUSH2 0x368 JUMP JUMPDEST DUP2 EQ PUSH2 0x38C JUMPI PUSH0 DUP1 REVERT JUMPDEST POP JUMP JUMPDEST PUSH0 DUP2 MLOAD SWAP1 POP PUSH2 0x39D DUP2 PUSH2 0x379 JUMP JUMPDEST SWAP3 SWAP2 POP POP JUMP JUMPDEST PUSH0 DUP2 SWAP1 POP SWAP2 SWAP1 POP JUMP JUMPDEST PUSH2 0x3B5 DUP2 PUSH2 0x3A3 JUMP JUMPDEST DUP2 EQ PUSH2 0x3BF JUMPI PUSH0 DUP1 REVERT JUMPDEST POP JUMP JUMPDEST PUSH0 DUP2 MLOAD SWAP1 POP PUSH2 0x3D0 DUP2 PUSH2 0x3AC JUMP JUMPDEST SWAP3 SWAP2 POP POP JUMP JUMPDEST PUSH0 DUP1 PUSH0 DUP1 PUSH0 DUP1 PUSH1 0xC0 DUP8 DUP10 SUB SLT ISZERO PUSH2 0x3F0 JUMPI PUSH2 0x3EF PUSH2 0x345 JUMP JUMPDEST JUMPDEST PUSH0 PUSH2 0x3FD DUP10 DUP3 DUP11 ADD PUSH2 0x38F JUMP JUMPDEST SWAP7 POP POP PUSH1 0x20 PUSH2 0x40E DUP10 DUP3 DUP11 ADD PUSH2 0x38F JUMP JUMPDEST SWAP6 POP POP PUSH1 0x40 PUSH2 0x41F DUP10 DUP3 DUP11 ADD PUSH2 0x38F JUMP JUMPDEST SWAP5 POP POP PUSH1 0x60 PUSH2 0x430 DUP10 DUP3 DUP11 ADD PUSH2 0x38F JUMP JUMPDEST SWAP4 POP POP PUSH1 0x80 PUSH2 0x441 DUP10 DUP3 DUP11 ADD PUSH2 0x3C2 JUMP JUMPDEST SWAP3 POP POP PUSH1 0xA0 PUSH2 0x452 DUP10 DUP3 DUP11 ADD PUSH2 0x3C2 JUMP JUMPDEST SWAP2 POP POP SWAP3 SWAP6 POP SWAP3 SWAP6 POP SWAP3 SWAP6 JUMP JUMPDEST PUSH2 0x468 DUP2 PUSH2 0x368 JUMP JUMPDEST DUP3 MSTORE POP POP JUMP JUMPDEST PUSH0 PUSH1 0x20 DUP3 ADD SWAP1 POP PUSH2 0x481 PUSH0 DUP4 ADD DUP5 PUSH2 0x45F JUMP JUMPDEST SWAP3 SWAP2 POP POP JUMP JUMPDEST PUSH32 0x4E487B7100000000000000000000000000000000000000000000000000000000 PUSH0 MSTORE PUSH1 0x11 PUSH1 0x4 MSTORE PUSH1 0x24 PUSH0 REVERT JUMPDEST PUSH0 PUSH2 0x4BE DUP3 PUSH2 0x3A3 JUMP JUMPDEST SWAP2 POP PUSH2 0x4C9 DUP4 PUSH2 0x3A3 JUMP JUMPDEST SWAP3 POP DUP3 DUP3 MUL PUSH2 0x4D7 DUP2 PUSH2 0x3A3 JUMP JUMPDEST SWAP2 POP DUP3 DUP3 DIV DUP5 EQ DUP4 ISZERO OR PUSH2 0x4EE JUMPI PUSH2 0x4ED PUSH2 0x487 JUMP JUMPDEST JUMPDEST POP SWAP3 SWAP2 POP POP JUMP JUMPDEST PUSH0 PUSH1 0x20 DUP3 DUP5 SUB SLT ISZERO PUSH2 0x50A JUMPI PUSH2 0x509 PUSH2 0x345 JUMP JUMPDEST JUMPDEST PUSH0 PUSH2 0x517 DUP5 DUP3 DUP6 ADD PUSH2 0x38F JUMP JUMPDEST SWAP2 POP POP SWAP3 SWAP2 POP POP JUMP JUMPDEST PUSH1 0x80 MLOAD PUSH1 0xA0 MLOAD PUSH1 0xC0 MLOAD PUSH1 0xE0 MLOAD PUSH2 0x100 MLOAD PUSH2 0x2832 PUSH2 0x636 PUSH0 CODECOPY PUSH0 DUP2 DUP2 PUSH2 0x6B0 ADD MSTORE DUP2 DUP2 PUSH2 0xDB3 ADD MSTORE DUP2 DUP2 PUSH2 0xE4F ADD MSTORE DUP2 DUP2 PUSH2 0xF8E ADD MSTORE PUSH2 0x13CF ADD MSTORE PUSH0 DUP2 DUP2 PUSH2 0x3C6 ADD MSTORE DUP2 DUP2 PUSH2 0x599 ADD MSTORE DUP2 DUP2 PUSH2 0x5D3 ADD MSTORE DUP2 DUP2 PUSH2 0x84D ADD MSTORE DUP2 DUP2 PUSH2 0x9C0 ADD MSTORE DUP2 DUP2 PUSH2 0xA52 ADD MSTORE DUP2 DUP2 PUSH2 0x119F ADD MSTORE PUSH2 0x169E ADD MSTORE PUSH0 DUP2 DUP2 PUSH2 0x417 ADD MSTORE DUP2 DUP2 PUSH2 0x4FB ADD MSTORE DUP2 DUP2 PUSH2 0x641 ADD MSTORE DUP2 DUP2 PUSH2 0x74C ADD MSTORE DUP2 DUP2 PUSH2 0x941 ADD MSTORE DUP2 DUP2 PUSH2 0xB98 ADD MSTORE DUP2 DUP2 PUSH2 0xCA9 ADD MSTORE DUP2 DUP2 PUSH2 0xD44 ADD MSTORE DUP2 DUP2 PUSH2 0xF1F ADD MSTORE DUP2 DUP2 PUSH2 0x102A ADD MSTORE DUP2 DUP2 PUSH2 0x1306 ADD MSTORE DUP2 DUP2 PUSH2 0x136A ADD MSTORE DUP2 DUP2 PUSH2 0x144C ADD MSTORE DUP2 DUP2 PUSH2 0x1560 ADD MSTORE DUP2 DUP2 PUSH2 0x1585 ADD MSTORE DUP2 DUP2 PUSH2 0x161F ADD MSTORE DUP2 DUP2 PUSH2 0x17A2 ADD MSTORE PUSH2 0x18FA ADD MSTORE PUSH0 DUP2 DUP2 PUSH2 0x8D5 ADD MSTORE PUSH2 0x11CD ADD MSTORE PUSH0 DUP2 DUP2 PUSH2 0x3F5 ADD MSTORE DUP2 DUP2 PUSH2 0xB76 ADD MSTORE PUSH2 0x153C ADD MSTORE PUSH2 0x2832 PUSH0 RETURN INVALID PUSH1 0x80 PUSH1 0x40 MSTORE PUSH1 0x4 CALLDATASIZE LT PUSH2 0xF6 JUMPI PUSH0 CALLDATALOAD PUSH1 0xE0 SHR DUP1 PUSH4 0x8BDB2AFA GT PUSH2 0x89 JUMPI DUP1 PUSH4 0xF2FDE38B GT PUSH2 0x58 JUMPI DUP1 PUSH4 0xF2FDE38B EQ PUSH2 0x31E JUMPI DUP1 PUSH4 0xF3DB702C EQ PUSH2 0x346 JUMPI DUP1 PUSH4 0xF6687AF7 EQ PUSH2 0x370 JUMPI DUP1 PUSH4 0xFF40E1D0 EQ PUSH2 0x39A JUMPI PUSH2 0x107 JUMP JUMPDEST DUP1 PUSH4 0x8BDB2AFA EQ PUSH2 0x298 JUMPI DUP1 PUSH4 0x8DA5CB5B EQ PUSH2 0x2C2 JUMPI DUP1 PUSH4 0x9E2B5339 EQ PUSH2 0x2EC JUMPI DUP1 PUSH4 0xD0E30DB0 EQ PUSH2 0x314 JUMPI PUSH2 0x107 JUMP JUMPDEST DUP1 PUSH4 0x4DBE7E92 GT PUSH2 0xC5 JUMPI DUP1 PUSH4 0x4DBE7E92 EQ PUSH2 0x206 JUMPI DUP1 PUSH4 0x5B06DECE EQ PUSH2 0x230 JUMPI DUP1 PUSH4 0x715018A6 EQ PUSH2 0x258 JUMPI DUP1 PUSH4 0x735DE9F7 EQ PUSH2 0x26E JUMPI PUSH2 0x107 JUMP JUMPDEST DUP1 PUSH4 0x6F69ACC EQ PUSH2 0x14E JUMPI DUP1 PUSH4 0x89781A9 EQ PUSH2 0x178 JUMPI DUP1 PUSH4 0x21425EE0 EQ PUSH2 0x1A2 JUMPI DUP1 PUSH4 0x260AD389 EQ PUSH2 0x1CA JUMPI PUSH2 0x107 JUMP JUMPDEST CALLDATASIZE PUSH2 0x107 JUMPI PUSH2 0x105 CALLER CALLVALUE PUSH2 0x3C4 JUMP JUMPDEST STOP JUMPDEST CALLVALUE DUP1 ISZERO PUSH2 0x112 JUMPI PUSH0 DUP1 REVERT JUMPDEST POP PUSH1 0x40 MLOAD PUSH32 0x336EA14200000000000000000000000000000000000000000000000000000000 DUP2 MSTORE PUSH1 0x4 ADD PUSH2 0x145 SWAP1 PUSH2 0x1D4F JUMP JUMPDEST PUSH1 0x40 MLOAD DUP1 SWAP2 SUB SWAP1 REVERT JUMPDEST CALLVALUE DUP1 ISZERO PUSH2 0x159 JUMPI PUSH0 DUP1 REVERT JUMPDEST POP PUSH2 0x162 PUSH2 0x8B6 JUMP JUMPDEST PUSH1 0x40 MLOAD PUSH2 0x16F SWAP2 SWAP1 PUSH2 0x1D85 JUMP JUMPDEST PUSH1 0x40 MLOAD DUP1 SWAP2 SUB SWAP1 RETURN JUMPDEST CALLVALUE DUP1 ISZERO PUSH2 0x183 JUMPI PUSH0 DUP1 REVERT JUMPDEST POP PUSH2 0x18C PUSH2 0x8D3 JUMP JUMPDEST PUSH1 0x40 MLOAD PUSH2 0x199 SWAP2 SWAP1 PUSH2 0x1D85 JUMP JUMPDEST PUSH1 0x40 MLOAD DUP1 SWAP2 SUB SWAP1 RETURN JUMPDEST CALLVALUE DUP1 ISZERO PUSH2 0x1AD JUMPI PUSH0 DUP1 REVERT JUMPDEST POP PUSH2 0x1C8 PUSH1 0x4 DUP1 CALLDATASIZE SUB DUP2 ADD SWAP1 PUSH2 0x1C3 SWAP2 SWAP1 PUSH2 0x1E26 JUMP JUMPDEST PUSH2 0x8F7 JUMP JUMPDEST STOP JUMPDEST CALLVALUE DUP1 ISZERO PUSH2 0x1D5 JUMPI PUSH0 DUP1 REVERT JUMPDEST POP PUSH2 0x1F0 PUSH1 0x4 DUP1 CALLDATASIZE SUB DUP2 ADD SWAP1 PUSH2 0x1EB SWAP2 SWAP1 PUSH2 0x1E76 JUMP JUMPDEST PUSH2 0x1188 JUMP JUMPDEST PUSH1 0x40 MLOAD PUSH2 0x1FD SWAP2 SWAP1 PUSH2 0x1D85 JUMP JUMPDEST PUSH1 0x40 MLOAD DUP1 SWAP2 SUB SWAP1 RETURN JUMPDEST CALLVALUE DUP1 ISZERO PUSH2 0x211 JUMPI PUSH0 DUP1 REVERT JUMPDEST POP PUSH2 0x21A PUSH2 0x119D JUMP JUMPDEST PUSH1 0x40 MLOAD PUSH2 0x227 SWAP2 SWAP1 PUSH2 0x1EB0 JUMP JUMPDEST PUSH1 0x40 MLOAD DUP1 SWAP2 SUB SWAP1 RETURN JUMPDEST CALLVALUE DUP1 ISZERO PUSH2 0x23B JUMPI PUSH0 DUP1 REVERT JUMPDEST POP PUSH2 0x256 PUSH1 0x4 DUP1 CALLDATASIZE SUB DUP2 ADD SWAP1 PUSH2 0x251 SWAP2 SWAP1 PUSH2 0x1EC9 JUMP JUMPDEST PUSH2 0x11C1 JUMP JUMPDEST STOP JUMPDEST CALLVALUE DUP1 ISZERO PUSH2 0x263 JUMPI PUSH0 DUP1 REVERT JUMPDEST POP PUSH2 0x26C PUSH2 0x13BA JUMP JUMPDEST STOP JUMPDEST CALLVALUE DUP1 ISZERO PUSH2 0x279 JUMPI PUSH0 DUP1 REVERT JUMPDEST POP PUSH2 0x282 PUSH2 0x13CD JUMP JUMPDEST PUSH1 0x40 MLOAD PUSH2 0x28F SWAP2 SWAP1 PUSH2 0x1F4F JUMP JUMPDEST PUSH1 0x40 MLOAD DUP1 SWAP2 SUB SWAP1 RETURN JUMPDEST CALLVALUE DUP1 ISZERO PUSH2 0x2A3 JUMPI PUSH0 DUP1 REVERT JUMPDEST POP PUSH2 0x2AC PUSH2 0x13F1 JUMP JUMPDEST PUSH1 0x40 MLOAD PUSH2 0x2B9 SWAP2 SWAP1 PUSH2 0x1F88 JUMP JUMPDEST PUSH1 0x40 MLOAD DUP1 SWAP2 SUB SWAP1 RETURN JUMPDEST CALLVALUE DUP1 ISZERO PUSH2 0x2CD JUMPI PUSH0 DUP1 REVERT JUMPDEST POP PUSH2 0x2D6 PUSH2 0x1416 JUMP JUMPDEST PUSH1 0x40 MLOAD PUSH2 0x2E3 SWAP2 SWAP1 PUSH2 0x1EB0 JUMP JUMPDEST PUSH1 0x40 MLOAD DUP1 SWAP2 SUB SWAP1 RETURN JUMPDEST CALLVALUE DUP1 ISZERO PUSH2 0x2F7 JUMPI PUSH0 DUP1 REVERT JUMPDEST POP PUSH2 0x312 PUSH1 0x4 DUP1 CALLDATASIZE SUB DUP2 ADD SWAP1 PUSH2 0x30D SWAP2 SWAP1 PUSH2 0x1FA1 JUMP JUMPDEST PUSH2 0x143D JUMP JUMPDEST STOP JUMPDEST PUSH2 0x31C PUSH2 0x1494 JUMP JUMPDEST STOP JUMPDEST CALLVALUE DUP1 ISZERO PUSH2 0x329 JUMPI PUSH0 DUP1 REVERT JUMPDEST POP PUSH2 0x344 PUSH1 0x4 DUP1 CALLDATASIZE SUB DUP2 ADD SWAP1 PUSH2 0x33F SWAP2 SWAP1 PUSH2 0x1E76 JUMP JUMPDEST PUSH2 0x14B0 JUMP JUMPDEST STOP JUMPDEST CALLVALUE DUP1 ISZERO PUSH2 0x351 JUMPI PUSH0 DUP1 REVERT JUMPDEST POP PUSH2 0x35A PUSH2 0x1534 JUMP JUMPDEST PUSH1 0x40 MLOAD PUSH2 0x367 SWAP2 SWAP1 PUSH2 0x1D85 JUMP JUMPDEST PUSH1 0x40 MLOAD DUP1 SWAP2 SUB SWAP1 RETURN JUMPDEST CALLVALUE DUP1 ISZERO PUSH2 0x37B JUMPI PUSH0 DUP1 REVERT JUMPDEST POP PUSH2 0x384 PUSH2 0x153A JUMP JUMPDEST PUSH1 0x40 MLOAD PUSH2 0x391 SWAP2 SWAP1 PUSH2 0x1D85 JUMP JUMPDEST PUSH1 0x40 MLOAD DUP1 SWAP2 SUB SWAP1 RETURN JUMPDEST CALLVALUE DUP1 ISZERO PUSH2 0x3A5 JUMPI PUSH0 DUP1 REVERT JUMPDEST POP PUSH2 0x3AE PUSH2 0x155E JUMP JUMPDEST PUSH1 0x40 MLOAD PUSH2 0x3BB SWAP2 SWAP1 PUSH2 0x1FFF JUMP JUMPDEST PUSH1 0x40 MLOAD DUP1 SWAP2 SUB SWAP1 RETURN JUMPDEST PUSH32 0x0 DUP2 PUSH0 PUSH2 0x3F1 DUP4 DUP4 PUSH2 0x1582 JUMP JUMPDEST SWAP1 POP PUSH32 0x0 DUP2 PUSH32 0x0 PUSH20 0xFFFFFFFFFFFFFFFFFFFFFFFFFFFFFFFFFFFFFFFF AND PUSH4 0x70A08231 ADDRESS PUSH1 0x40 MLOAD DUP3 PUSH4 0xFFFFFFFF AND PUSH1 0xE0 SHL DUP2 MSTORE PUSH1 0x4 ADD PUSH2 0x46E SWAP2 SWAP1 PUSH2 0x1EB0 JUMP JUMPDEST PUSH1 0x20 PUSH1 0x40 MLOAD DUP1 DUP4 SUB DUP2 DUP7 GAS STATICCALL ISZERO DUP1 ISZERO PUSH2 0x489 JUMPI RETURNDATASIZE PUSH0 DUP1 RETURNDATACOPY RETURNDATASIZE PUSH0 REVERT JUMPDEST POP POP POP POP PUSH1 0x40 MLOAD RETURNDATASIZE PUSH1 0x1F NOT PUSH1 0x1F DUP3 ADD AND DUP3 ADD DUP1 PUSH1 0x40 MSTORE POP DUP2 ADD SWAP1 PUSH2 0x4AD SWAP2 SWAP1 PUSH2 0x202C JUMP JUMPDEST PUSH2 0x4B7 SWAP2 SWAP1 PUSH2 0x2084 JUMP JUMPDEST GT ISZERO PUSH2 0x4F8 JUMPI PUSH1 0x40 MLOAD PUSH32 0xA2D2E1B200000000000000000000000000000000000000000000000000000000 DUP2 MSTORE PUSH1 0x4 ADD PUSH2 0x4EF SWAP1 PUSH2 0x2101 JUMP JUMPDEST PUSH1 0x40 MLOAD DUP1 SWAP2 SUB SWAP1 REVERT JUMPDEST PUSH0 PUSH32 0x0 PUSH20 0xFFFFFFFFFFFFFFFFFFFFFFFFFFFFFFFFFFFFFFFF AND PUSH4 0x70A08231 ADDRESS PUSH1 0x40 MLOAD DUP3 PUSH4 0xFFFFFFFF AND PUSH1 0xE0 SHL DUP2 MSTORE PUSH1 0x4 ADD PUSH2 0x552 SWAP2 SWAP1 PUSH2 0x1EB0 JUMP JUMPDEST PUSH1 0x20 PUSH1 0x40 MLOAD DUP1 DUP4 SUB DUP2 DUP7 GAS STATICCALL ISZERO DUP1 ISZERO PUSH2 0x56D JUMPI RETURNDATASIZE PUSH0 DUP1 RETURNDATACOPY RETURNDATASIZE PUSH0 REVERT JUMPDEST POP POP POP POP PUSH1 0x40 MLOAD RETURNDATASIZE PUSH1 0x1F NOT PUSH1 0x1F DUP3 ADD AND DUP3 ADD DUP1 PUSH1 0x40 MSTORE POP DUP2 ADD SWAP1 PUSH2 0x591 SWAP2 SWAP1 PUSH2 0x202C JUMP JUMPDEST SWAP1 POP PUSH0 PUSH2 0x5BE PUSH32 0x0 DUP8 PUSH2 0x1582 JUMP JUMPDEST SWAP1 POP PUSH1 0x5A DUP2 PUSH2 0x5CD SWAP2 SWAP1 PUSH2 0x214C JUMP JUMPDEST SWAP1 POP PUSH1 0x60 PUSH32 0x0 DUP2 PUSH0 DUP2 MLOAD DUP2 LT PUSH2 0x605 JUMPI PUSH2 0x604 PUSH2 0x217C JUMP JUMPDEST JUMPDEST PUSH1 0x20 MUL PUSH1 0x20 ADD ADD SWAP1 PUSH20 0xFFFFFFFFFFFFFFFFFFFFFFFFFFFFFFFFFFFFFFFF AND SWAP1 DUP2 PUSH20 0xFFFFFFFFFFFFFFFFFFFFFFFFFFFFFFFFFFFFFFFF AND DUP2 MSTORE POP POP PUSH32 0x0 DUP2 PUSH1 0x1 DUP2 MLOAD DUP2 LT PUSH2 0x674 JUMPI PUSH2 0x673 PUSH2 0x217C JUMP JUMPDEST JUMPDEST PUSH1 0x20 MUL PUSH1 0x20 ADD ADD SWAP1 PUSH20 0xFFFFFFFFFFFFFFFFFFFFFFFFFFFFFFFFFFFFFFFF AND SWAP1 DUP2 PUSH20 0xFFFFFFFFFFFFFFFFFFFFFFFFFFFFFFFFFFFFFFFF AND DUP2 MSTORE POP POP PUSH32 0x0 PUSH20 0xFFFFFFFFFFFFFFFFFFFFFFFFFFFFFFFFFFFFFFFF AND PUSH4 0xB6F9DE95 DUP9 DUP5 DUP5 ADDRESS PUSH2 0x12C TIMESTAMP PUSH2 0x6FC SWAP2 SWAP1 PUSH2 0x2084 JUMP JUMPDEST PUSH1 0x40 MLOAD DUP7 PUSH4 0xFFFFFFFF AND PUSH1 0xE0 SHL DUP2 MSTORE PUSH1 0x4 ADD PUSH2 0x71B SWAP5 SWAP4 SWAP3 SWAP2 SWAP1 PUSH2 0x2260 JUMP JUMPDEST PUSH0 PUSH1 0x40 MLOAD DUP1 DUP4 SUB DUP2 DUP6 DUP9 DUP1 EXTCODESIZE ISZERO DUP1 ISZERO PUSH2 0x732 JUMPI PUSH0 DUP1 REVERT JUMPDEST POP GAS CALL ISZERO DUP1 ISZERO PUSH2 0x744 JUMPI RETURNDATASIZE PUSH0 DUP1 RETURNDATACOPY RETURNDATASIZE PUSH0 REVERT JUMPDEST POP POP POP POP POP PUSH0 PUSH32 0x0 PUSH20 0xFFFFFFFFFFFFFFFFFFFFFFFFFFFFFFFFFFFFFFFF AND PUSH4 0x70A08231 ADDRESS PUSH1 0x40 MLOAD DUP3 PUSH4 0xFFFFFFFF AND PUSH1 0xE0 SHL DUP2 MSTORE PUSH1 0x4 ADD PUSH2 0x7A3 SWAP2 SWAP1 PUSH2 0x1EB0 JUMP JUMPDEST PUSH1 0x20 PUSH1 0x40 MLOAD DUP1 DUP4 SUB DUP2 DUP7 GAS STATICCALL ISZERO DUP1 ISZERO PUSH2 0x7BE JUMPI RETURNDATASIZE PUSH0 DUP1 RETURNDATACOPY RETURNDATASIZE PUSH0 REVERT JUMPDEST POP POP POP POP PUSH1 0x40 MLOAD RETURNDATASIZE PUSH1 0x1F NOT PUSH1 0x1F DUP3 ADD AND DUP3 ADD DUP1 PUSH1 0x40 MSTORE POP DUP2 ADD SWAP1 PUSH2 0x7E2 SWAP2 SWAP1 PUSH2 0x202C JUMP JUMPDEST SWAP1 POP PUSH0 DUP5 DUP3 PUSH2 0x7F1 SWAP2 SWAP1 PUSH2 0x22AA JUMP JUMPDEST SWAP1 POP DUP1 PUSH1 0x2 PUSH0 DUP13 PUSH20 0xFFFFFFFFFFFFFFFFFFFFFFFFFFFFFFFFFFFFFFFF AND PUSH20 0xFFFFFFFFFFFFFFFFFFFFFFFFFFFFFFFFFFFFFFFF AND DUP2 MSTORE PUSH1 0x20 ADD SWAP1 DUP2 MSTORE PUSH1 0x20 ADD PUSH0 KECCAK256 PUSH0 DUP3 DUP3 SLOAD PUSH2 0x83F SWAP2 SWAP1 PUSH2 0x2084 JUMP JUMPDEST SWAP3 POP POP DUP2 SWAP1 SSTORE POP PUSH2 0x871 PUSH1 0x1 PUSH32 0x0 PUSH2 0x187A JUMP JUMPDEST PUSH32 0x7B7CD0DDBBEA241880E825E1EB51C30752CB96DD7EFEB4BE691EC55DFA4D8963 DUP11 DUP3 PUSH1 0x40 MLOAD PUSH2 0x8A2 SWAP3 SWAP2 SWAP1 PUSH2 0x22DD JUMP JUMPDEST PUSH1 0x40 MLOAD DUP1 SWAP2 SUB SWAP1 LOG1 POP POP POP POP POP POP POP POP POP POP JUMP JUMPDEST PUSH0 PUSH4 0x5F5E100 PUSH2 0x8C4 PUSH2 0x18F7 JUMP JUMPDEST PUSH2 0x8CE SWAP2 SWAP1 PUSH2 0x214C JUMP JUMPDEST SWAP1 POP SWAP1 JUMP JUMPDEST PUSH32 0x0 DUP2 JUMP JUMPDEST PUSH2 0x8FF PUSH2 0x1995 JUMP JUMPDEST DUP3 PUSH0 PUSH1 0x5 PUSH0 SWAP1 SLOAD SWAP1 PUSH2 0x100 EXP SWAP1 DIV PUSH20 0xFFFFFFFFFFFFFFFFFFFFFFFFFFFFFFFFFFFFFFFF AND PUSH20 0xFFFFFFFFFFFFFFFFFFFFFFFFFFFFFFFFFFFFFFFF AND PUSH4 0xE6A43905 DUP4 PUSH32 0x0 PUSH1 0x40 MLOAD DUP4 PUSH4 0xFFFFFFFF AND PUSH1 0xE0 SHL DUP2 MSTORE PUSH1 0x4 ADD PUSH2 0x97D SWAP3 SWAP2 SWAP1 PUSH2 0x2304 JUMP JUMPDEST PUSH1 0x20 PUSH1 0x40 MLOAD DUP1 DUP4 SUB DUP2 DUP7 GAS STATICCALL ISZERO DUP1 ISZERO PUSH2 0x998 JUMPI RETURNDATASIZE PUSH0 DUP1 RETURNDATACOPY RETURNDATASIZE PUSH0 REVERT JUMPDEST POP POP POP POP PUSH1 0x40 MLOAD RETURNDATASIZE PUSH1 0x1F NOT PUSH1 0x1F DUP3 ADD AND DUP3 ADD DUP1 PUSH1 0x40 MSTORE POP DUP2 ADD SWAP1 PUSH2 0x9BC SWAP2 SWAP1 PUSH2 0x233F JUMP JUMPDEST SWAP1 POP PUSH32 0x0 PUSH20 0xFFFFFFFFFFFFFFFFFFFFFFFFFFFFFFFFFFFFFFFF AND DUP2 PUSH20 0xFFFFFFFFFFFFFFFFFFFFFFFFFFFFFFFFFFFFFFFF AND SUB PUSH2 0xA4E JUMPI DUP2 PUSH1 0x40 MLOAD PUSH32 0xE584A63F00000000000000000000000000000000000000000000000000000000 DUP2 MSTORE PUSH1 0x4 ADD PUSH2 0xA45 SWAP2 SWAP1 PUSH2 0x1EB0 JUMP JUMPDEST PUSH1 0x40 MLOAD DUP1 SWAP2 SUB SWAP1 REVERT JUMPDEST DUP5 DUP5 PUSH32 0x0 PUSH20 0xFFFFFFFFFFFFFFFFFFFFFFFFFFFFFFFFFFFFFFFF AND DUP3 PUSH20 0xFFFFFFFFFFFFFFFFFFFFFFFFFFFFFFFFFFFFFFFF AND EQ PUSH2 0xB65 JUMPI PUSH0 DUP3 SWAP1 POP DUP2 DUP2 PUSH20 0xFFFFFFFFFFFFFFFFFFFFFFFFFFFFFFFFFFFFFFFF AND PUSH4 0xDD62ED3E CALLER ADDRESS PUSH1 0x40 MLOAD DUP4 PUSH4 0xFFFFFFFF AND PUSH1 0xE0 SHL DUP2 MSTORE PUSH1 0x4 ADD PUSH2 0xAE3 SWAP3 SWAP2 SWAP1 PUSH2 0x2304 JUMP JUMPDEST PUSH1 0x20 PUSH1 0x40 MLOAD DUP1 DUP4 SUB DUP2 DUP7 GAS STATICCALL ISZERO DUP1 ISZERO PUSH2 0xAFE JUMPI RETURNDATASIZE PUSH0 DUP1 RETURNDATACOPY RETURNDATASIZE PUSH0 REVERT JUMPDEST POP POP POP POP PUSH1 0x40 MLOAD RETURNDATASIZE PUSH1 0x1F NOT PUSH1 0x1F DUP3 ADD AND DUP3 ADD DUP1 PUSH1 0x40 MSTORE POP DUP2 ADD SWAP1 PUSH2 0xB22 SWAP2 SWAP1 PUSH2 0x202C JUMP JUMPDEST LT ISZERO PUSH2 0xB63 JUMPI PUSH1 0x40 MLOAD PUSH32 0x336EA14200000000000000000000000000000000000000000000000000000000 DUP2 MSTORE PUSH1 0x4 ADD PUSH2 0xB5A SWAP1 PUSH2 0x23DA JUMP JUMPDEST PUSH1 0x40 MLOAD DUP1 SWAP2 SUB SWAP1 REVERT JUMPDEST POP JUMPDEST DUP7 DUP7 PUSH0 PUSH2 0xB72 DUP4 DUP4 PUSH2 0x1582 JUMP JUMPDEST SWAP1 POP PUSH32 0x0 DUP2 PUSH32 0x0 PUSH20 0xFFFFFFFFFFFFFFFFFFFFFFFFFFFFFFFFFFFFFFFF AND PUSH4 0x70A08231 ADDRESS PUSH1 0x40 MLOAD DUP3 PUSH4 0xFFFFFFFF AND PUSH1 0xE0 SHL DUP2 MSTORE PUSH1 0x4 ADD PUSH2 0xBEF SWAP2 SWAP1 PUSH2 0x1EB0 JUMP JUMPDEST PUSH1 0x20 PUSH1 0x40 MLOAD DUP1 DUP4 SUB DUP2 DUP7 GAS STATICCALL ISZERO DUP1 ISZERO PUSH2 0xC0A JUMPI RETURNDATASIZE PUSH0 DUP1 RETURNDATACOPY RETURNDATASIZE PUSH0 REVERT JUMPDEST POP POP POP POP PUSH1 0x40 MLOAD RETURNDATASIZE PUSH1 0x1F NOT PUSH1 0x1F DUP3 ADD AND DUP3 ADD DUP1 PUSH1 0x40 MSTORE POP DUP2 ADD SWAP1 PUSH2 0xC2E SWAP2 SWAP1 PUSH2 0x202C JUMP JUMPDEST PUSH2 0xC38 SWAP2 SWAP1 PUSH2 0x2084 JUMP JUMPDEST GT ISZERO PUSH2 0xC79 JUMPI PUSH1 0x40 MLOAD PUSH32 0xA2D2E1B200000000000000000000000000000000000000000000000000000000 DUP2 MSTORE PUSH1 0x4 ADD PUSH2 0xC70 SWAP1 PUSH2 0x2101 JUMP JUMPDEST PUSH1 0x40 MLOAD DUP1 SWAP2 SUB SWAP1 REVERT JUMPDEST PUSH2 0xCA6 CALLER ADDRESS DUP12 DUP14 PUSH20 0xFFFFFFFFFFFFFFFFFFFFFFFFFFFFFFFFFFFFFFFF AND PUSH2 0x19DB SWAP1 SWAP4 SWAP3 SWAP2 SWAP1 PUSH4 0xFFFFFFFF AND JUMP JUMPDEST PUSH0 PUSH32 0x0 PUSH20 0xFFFFFFFFFFFFFFFFFFFFFFFFFFFFFFFFFFFFFFFF AND PUSH4 0x70A08231 ADDRESS PUSH1 0x40 MLOAD DUP3 PUSH4 0xFFFFFFFF AND PUSH1 0xE0 SHL DUP2 MSTORE PUSH1 0x4 ADD PUSH2 0xD00 SWAP2 SWAP1 PUSH2 0x1EB0 JUMP JUMPDEST PUSH1 0x20 PUSH1 0x40 MLOAD DUP1 DUP4 SUB DUP2 DUP7 GAS STATICCALL ISZERO DUP1 ISZERO PUSH2 0xD1B JUMPI RETURNDATASIZE PUSH0 DUP1 RETURNDATACOPY RETURNDATASIZE PUSH0 REVERT JUMPDEST POP POP POP POP PUSH1 0x40 MLOAD RETURNDATASIZE PUSH1 0x1F NOT PUSH1 0x1F DUP3 ADD AND DUP3 ADD DUP1 PUSH1 0x40 MSTORE POP DUP2 ADD SWAP1 PUSH2 0xD3F SWAP2 SWAP1 PUSH2 0x202C JUMP JUMPDEST SWAP1 POP PUSH0 PUSH32 0x0 PUSH20 0xFFFFFFFFFFFFFFFFFFFFFFFFFFFFFFFFFFFFFFFF AND DUP13 PUSH20 0xFFFFFFFFFFFFFFFFFFFFFFFFFFFFFFFFFFFFFFFF AND EQ PUSH2 0x10D7 JUMPI DUP12 PUSH20 0xFFFFFFFFFFFFFFFFFFFFFFFFFFFFFFFFFFFFFFFF AND PUSH4 0x95EA7B3 PUSH32 0x0 PUSH0 PUSH1 0x40 MLOAD DUP4 PUSH4 0xFFFFFFFF AND PUSH1 0xE0 SHL DUP2 MSTORE PUSH1 0x4 ADD PUSH2 0xDF0 SWAP3 SWAP2 SWAP1 PUSH2 0x2431 JUMP JUMPDEST PUSH1 0x20 PUSH1 0x40 MLOAD DUP1 DUP4 SUB DUP2 PUSH0 DUP8 GAS CALL ISZERO DUP1 ISZERO PUSH2 0xE0C JUMPI RETURNDATASIZE PUSH0 DUP1 RETURNDATACOPY RETURNDATASIZE PUSH0 REVERT JUMPDEST POP POP POP POP PUSH1 0x40 MLOAD RETURNDATASIZE PUSH1 0x1F NOT PUSH1 0x1F DUP3 ADD AND DUP3 ADD DUP1 PUSH1 0x40 MSTORE POP DUP2 ADD SWAP1 PUSH2 0xE30 SWAP2 SWAP1 PUSH2 0x248D JUMP JUMPDEST POP DUP12 PUSH20 0xFFFFFFFFFFFFFFFFFFFFFFFFFFFFFFFFFFFFFFFF AND PUSH4 0x95EA7B3 PUSH32 0x0 DUP14 PUSH1 0x40 MLOAD DUP4 PUSH4 0xFFFFFFFF AND PUSH1 0xE0 SHL DUP2 MSTORE PUSH1 0x4 ADD PUSH2 0xE8C SWAP3 SWAP2 SWAP1 PUSH2 0x22DD JUMP JUMPDEST PUSH1 0x20 PUSH1 0x40 MLOAD DUP1 DUP4 SUB DUP2 PUSH0 DUP8 GAS CALL ISZERO DUP1 ISZERO PUSH2 0xEA8 JUMPI RETURNDATASIZE PUSH0 DUP1 RETURNDATACOPY RETURNDATASIZE PUSH0 REVERT JUMPDEST POP POP POP POP PUSH1 0x40 MLOAD RETURNDATASIZE PUSH1 0x1F NOT PUSH1 0x1F DUP3 ADD AND DUP3 ADD DUP1 PUSH1 0x40 MSTORE POP DUP2 ADD SWAP1 PUSH2 0xECC SWAP2 SWAP1 PUSH2 0x248D JUMP JUMPDEST POP PUSH1 0x60 DUP13 DUP2 PUSH0 DUP2 MLOAD DUP2 LT PUSH2 0xEE3 JUMPI PUSH2 0xEE2 PUSH2 0x217C JUMP JUMPDEST JUMPDEST PUSH1 0x20 MUL PUSH1 0x20 ADD ADD SWAP1 PUSH20 0xFFFFFFFFFFFFFFFFFFFFFFFFFFFFFFFFFFFFFFFF AND SWAP1 DUP2 PUSH20 0xFFFFFFFFFFFFFFFFFFFFFFFFFFFFFFFFFFFFFFFF AND DUP2 MSTORE POP POP PUSH32 0x0 DUP2 PUSH1 0x1 DUP2 MLOAD DUP2 LT PUSH2 0xF52 JUMPI PUSH2 0xF51 PUSH2 0x217C JUMP JUMPDEST JUMPDEST PUSH1 0x20 MUL PUSH1 0x20 ADD ADD SWAP1 PUSH20 0xFFFFFFFFFFFFFFFFFFFFFFFFFFFFFFFFFFFFFFFF AND SWAP1 DUP2 PUSH20 0xFFFFFFFFFFFFFFFFFFFFFFFFFFFFFFFFFFFFFFFF AND DUP2 MSTORE POP POP PUSH32 0x0 PUSH20 0xFFFFFFFFFFFFFFFFFFFFFFFFFFFFFFFFFFFFFFFF AND PUSH4 0x5C11D795 DUP14 DUP14 DUP5 ADDRESS PUSH2 0x12C TIMESTAMP PUSH2 0xFDA SWAP2 SWAP1 PUSH2 0x2084 JUMP JUMPDEST PUSH1 0x40 MLOAD DUP7 PUSH4 0xFFFFFFFF AND PUSH1 0xE0 SHL DUP2 MSTORE PUSH1 0x4 ADD PUSH2 0xFFA SWAP6 SWAP5 SWAP4 SWAP3 SWAP2 SWAP1 PUSH2 0x24B8 JUMP JUMPDEST PUSH0 PUSH1 0x40 MLOAD DUP1 DUP4 SUB DUP2 PUSH0 DUP8 DUP1 EXTCODESIZE ISZERO DUP1 ISZERO PUSH2 0x1011 JUMPI PUSH0 DUP1 REVERT JUMPDEST POP GAS CALL ISZERO DUP1 ISZERO PUSH2 0x1023 JUMPI RETURNDATASIZE PUSH0 DUP1 RETURNDATACOPY RETURNDATASIZE PUSH0 REVERT JUMPDEST POP POP POP POP PUSH0 PUSH32 0x0 PUSH20 0xFFFFFFFFFFFFFFFFFFFFFFFFFFFFFFFFFFFFFFFF AND PUSH4 0x70A08231 ADDRESS PUSH1 0x40 MLOAD DUP3 PUSH4 0xFFFFFFFF AND PUSH1 0xE0 SHL DUP2 MSTORE PUSH1 0x4 ADD PUSH2 0x1081 SWAP2 SWAP1 PUSH2 0x1EB0 JUMP JUMPDEST PUSH1 0x20 PUSH1 0x40 MLOAD DUP1 DUP4 SUB DUP2 DUP7 GAS STATICCALL ISZERO DUP1 ISZERO PUSH2 0x109C JUMPI RETURNDATASIZE PUSH0 DUP1 RETURNDATACOPY RETURNDATASIZE PUSH0 REVERT JUMPDEST POP POP POP POP PUSH1 0x40 MLOAD RETURNDATASIZE PUSH1 0x1F NOT PUSH1 0x1F DUP3 ADD AND DUP3 ADD DUP1 PUSH1 0x40 MSTORE POP DUP2 ADD SWAP1 PUSH2 0x10C0 SWAP2 SWAP1 PUSH2 0x202C JUMP JUMPDEST SWAP1 POP DUP4 DUP2 PUSH2 0x10CE SWAP2 SWAP1 PUSH2 0x22AA JUMP JUMPDEST SWAP3 POP POP POP PUSH2 0x10DB JUMP JUMPDEST DUP11 SWAP1 POP JUMPDEST DUP1 PUSH1 0x2 PUSH0 CALLER PUSH20 0xFFFFFFFFFFFFFFFFFFFFFFFFFFFFFFFFFFFFFFFF AND PUSH20 0xFFFFFFFFFFFFFFFFFFFFFFFFFFFFFFFFFFFFFFFF AND DUP2 MSTORE PUSH1 0x20 ADD SWAP1 DUP2 MSTORE PUSH1 0x20 ADD PUSH0 KECCAK256 PUSH0 DUP3 DUP3 SLOAD PUSH2 0x1127 SWAP2 SWAP1 PUSH2 0x2084 JUMP JUMPDEST SWAP3 POP POP DUP2 SWAP1 SSTORE POP PUSH2 0x1139 PUSH1 0x1 DUP14 PUSH2 0x187A JUMP JUMPDEST PUSH32 0x7B7CD0DDBBEA241880E825E1EB51C30752CB96DD7EFEB4BE691EC55DFA4D8963 CALLER DUP3 PUSH1 0x40 MLOAD PUSH2 0x116A SWAP3 SWAP2 SWAP1 PUSH2 0x22DD JUMP JUMPDEST PUSH1 0x40 MLOAD DUP1 SWAP2 SUB SWAP1 LOG1 POP POP POP POP POP POP POP POP POP PUSH2 0x1183 PUSH2 0x1A5D JUMP JUMPDEST POP POP POP JUMP JUMPDEST PUSH1 0x3 PUSH1 0x20 MSTORE DUP1 PUSH0 MSTORE PUSH1 0x40 PUSH0 KECCAK256 PUSH0 SWAP2 POP SWAP1 POP SLOAD DUP2 JUMP JUMPDEST PUSH32 0x0 DUP2 JUMP JUMPDEST PUSH2 0x11C9 PUSH2 0x1995 JUMP JUMPDEST DUP1 DUP1 PUSH32 0x0 LT ISZERO PUSH2 0x122D JUMPI PUSH1 0x40 MLOAD PUSH32 0xFC0517400000000000000000000000000000000000000000000000000000000 DUP2 MSTORE PUSH1 0x4 ADD PUSH2 0x1224 SWAP1 PUSH2 0x2580 JUMP JUMPDEST PUSH1 0x40 MLOAD DUP1 SWAP2 SUB SWAP1 REVERT JUMPDEST DUP1 PUSH1 0x2 PUSH0 CALLER PUSH20 0xFFFFFFFFFFFFFFFFFFFFFFFFFFFFFFFFFFFFFFFF AND PUSH20 0xFFFFFFFFFFFFFFFFFFFFFFFFFFFFFFFFFFFFFFFF AND DUP2 MSTORE PUSH1 0x20 ADD SWAP1 DUP2 MSTORE PUSH1 0x20 ADD PUSH0 KECCAK256 SLOAD LT ISZERO PUSH2 0x12AD JUMPI PUSH1 0x40 MLOAD PUSH32 0xE7FE37FB00000000000000000000000000000000000000000000000000000000 DUP2 MSTORE PUSH1 0x4 ADD PUSH2 0x12A4 SWAP1 PUSH2 0x25E8 JUMP JUMPDEST PUSH1 0x40 MLOAD DUP1 SWAP2 SUB SWAP1 REVERT JUMPDEST DUP2 PUSH1 0x2 PUSH0 CALLER PUSH20 0xFFFFFFFFFFFFFFFFFFFFFFFFFFFFFFFFFFFFFFFF AND PUSH20 0xFFFFFFFFFFFFFFFFFFFFFFFFFFFFFFFFFFFFFFFF AND DUP2 MSTORE PUSH1 0x20 ADD SWAP1 DUP2 MSTORE PUSH1 0x20 ADD PUSH0 KECCAK256 PUSH0 DUP3 DUP3 SLOAD PUSH2 0x12F9 SWAP2 SWAP1 PUSH2 0x22AA JUMP JUMPDEST SWAP3 POP POP DUP2 SWAP1 SSTORE POP PUSH2 0x132A PUSH0 PUSH32 0x0 PUSH2 0x187A JUMP JUMPDEST PUSH32 0x1FF21E81CFF87FCCBAC096AD565F52CB1B358DB04A736A6A137CCEB4A287A702 CALLER DUP4 PUSH1 0x40 MLOAD PUSH2 0x135B SWAP3 SWAP2 SWAP1 PUSH2 0x22DD JUMP JUMPDEST PUSH1 0x40 MLOAD DUP1 SWAP2 SUB SWAP1 LOG1 PUSH2 0x13AE CALLER DUP4 PUSH32 0x0 PUSH20 0xFFFFFFFFFFFFFFFFFFFFFFFFFFFFFFFFFFFFFFFF AND PUSH2 0x1A66 SWAP1 SWAP3 SWAP2 SWAP1 PUSH4 0xFFFFFFFF AND JUMP JUMPDEST POP PUSH2 0x13B7 PUSH2 0x1A5D JUMP JUMPDEST POP JUMP JUMPDEST PUSH2 0x13C2 PUSH2 0x1AE5 JUMP JUMPDEST PUSH2 0x13CB PUSH0 PUSH2 0x1B6C JUMP JUMPDEST JUMP JUMPDEST PUSH32 0x0 DUP2 JUMP JUMPDEST PUSH1 0x5 PUSH0 SWAP1 SLOAD SWAP1 PUSH2 0x100 EXP SWAP1 DIV PUSH20 0xFFFFFFFFFFFFFFFFFFFFFFFFFFFFFFFFFFFFFFFF AND DUP2 JUMP JUMPDEST PUSH0 DUP1 PUSH0 SWAP1 SLOAD SWAP1 PUSH2 0x100 EXP SWAP1 DIV PUSH20 0xFFFFFFFFFFFFFFFFFFFFFFFFFFFFFFFFFFFFFFFF AND SWAP1 POP SWAP1 JUMP JUMPDEST PUSH2 0x1445 PUSH2 0x1AE5 JUMP JUMPDEST PUSH2 0x1490 DUP2 DUP4 PUSH32 0x0 PUSH20 0xFFFFFFFFFFFFFFFFFFFFFFFFFFFFFFFFFFFFFFFF AND PUSH2 0x1A66 SWAP1 SWAP3 SWAP2 SWAP1 PUSH4 0xFFFFFFFF AND JUMP JUMPDEST POP POP JUMP JUMPDEST PUSH2 0x149C PUSH2 0x1995 JUMP JUMPDEST PUSH2 0x14A6 CALLER CALLVALUE PUSH2 0x3C4 JUMP JUMPDEST PUSH2 0x14AE PUSH2 0x1A5D JUMP JUMPDEST JUMP JUMPDEST PUSH2 0x14B8 PUSH2 0x1AE5 JUMP JUMPDEST PUSH0 PUSH20 0xFFFFFFFFFFFFFFFFFFFFFFFFFFFFFFFFFFFFFFFF AND DUP2 PUSH20 0xFFFFFFFFFFFFFFFFFFFFFFFFFFFFFFFFFFFFFFFF AND SUB PUSH2 0x1528 JUMPI PUSH0 PUSH1 0x40 MLOAD PUSH32 0x1E4FBDF700000000000000000000000000000000000000000000000000000000 DUP2 MSTORE PUSH1 0x4 ADD PUSH2 0x151F SWAP2 SWAP1 PUSH2 0x1EB0 JUMP JUMPDEST PUSH1 0x40 MLOAD DUP1 SWAP2 SUB SWAP1 REVERT JUMPDEST PUSH2 0x1531 DUP2 PUSH2 0x1B6C JUMP JUMPDEST POP JUMP JUMPDEST PUSH1 0x4 SLOAD DUP2 JUMP JUMPDEST PUSH32 0x0 DUP2 JUMP JUMPDEST PUSH32 0x0 DUP2 JUMP JUMPDEST PUSH0 PUSH32 0x0 PUSH20 0xFFFFFFFFFFFFFFFFFFFFFFFFFFFFFFFFFFFFFFFF AND DUP4 PUSH20 0xFFFFFFFFFFFFFFFFFFFFFFFFFFFFFFFFFFFFFFFF AND SUB PUSH2 0x15DE JUMPI DUP2 SWAP1 POP PUSH2 0x1874 JUMP JUMPDEST PUSH0 PUSH1 0x5 PUSH0 SWAP1 SLOAD SWAP1 PUSH2 0x100 EXP SWAP1 DIV PUSH20 0xFFFFFFFFFFFFFFFFFFFFFFFFFFFFFFFFFFFFFFFF AND PUSH20 0xFFFFFFFFFFFFFFFFFFFFFFFFFFFFFFFFFFFFFFFF AND PUSH4 0xE6A43905 DUP6 PUSH32 0x0 PUSH1 0x40 MLOAD DUP4 PUSH4 0xFFFFFFFF AND PUSH1 0xE0 SHL DUP2 MSTORE PUSH1 0x4 ADD PUSH2 0x165B SWAP3 SWAP2 SWAP1 PUSH2 0x2304 JUMP JUMPDEST PUSH1 0x20 PUSH1 0x40 MLOAD DUP1 DUP4 SUB DUP2 DUP7 GAS STATICCALL ISZERO DUP1 ISZERO PUSH2 0x1676 JUMPI RETURNDATASIZE PUSH0 DUP1 RETURNDATACOPY RETURNDATASIZE PUSH0 REVERT JUMPDEST POP POP POP POP PUSH1 0x40 MLOAD RETURNDATASIZE PUSH1 0x1F NOT PUSH1 0x1F DUP3 ADD AND DUP3 ADD DUP1 PUSH1 0x40 MSTORE POP DUP2 ADD SWAP1 PUSH2 0x169A SWAP2 SWAP1 PUSH2 0x233F JUMP JUMPDEST SWAP1 POP PUSH32 0x0 PUSH20 0xFFFFFFFFFFFFFFFFFFFFFFFFFFFFFFFFFFFFFFFF AND DUP2 PUSH20 0xFFFFFFFFFFFFFFFFFFFFFFFFFFFFFFFFFFFFFFFF AND SUB PUSH2 0x172A JUMPI PUSH1 0x40 MLOAD PUSH32 0x8C379A000000000000000000000000000000000000000000000000000000000 DUP2 MSTORE PUSH1 0x4 ADD PUSH2 0x1721 SWAP1 PUSH2 0x2660 JUMP JUMPDEST PUSH1 0x40 MLOAD DUP1 SWAP2 SUB SWAP1 REVERT JUMPDEST PUSH0 DUP1 DUP3 PUSH20 0xFFFFFFFFFFFFFFFFFFFFFFFFFFFFFFFFFFFFFFFF AND PUSH4 0x902F1AC PUSH1 0x40 MLOAD DUP2 PUSH4 0xFFFFFFFF AND PUSH1 0xE0 SHL DUP2 MSTORE PUSH1 0x4 ADD PUSH1 0x60 PUSH1 0x40 MLOAD DUP1 DUP4 SUB DUP2 DUP7 GAS STATICCALL ISZERO DUP1 ISZERO PUSH2 0x1775 JUMPI RETURNDATASIZE PUSH0 DUP1 RETURNDATACOPY RETURNDATASIZE PUSH0 REVERT JUMPDEST POP POP POP POP PUSH1 0x40 MLOAD RETURNDATASIZE PUSH1 0x1F NOT PUSH1 0x1F DUP3 ADD AND DUP3 ADD DUP1 PUSH1 0x40 MSTORE POP DUP2 ADD SWAP1 PUSH2 0x1799 SWAP2 SWAP1 PUSH2 0x26FA JUMP JUMPDEST POP SWAP2 POP SWAP2 POP PUSH0 DUP1 PUSH32 0x0 PUSH20 0xFFFFFFFFFFFFFFFFFFFFFFFFFFFFFFFFFFFFFFFF AND DUP9 PUSH20 0xFFFFFFFFFFFFFFFFFFFFFFFFFFFFFFFFFFFFFFFF AND LT PUSH2 0x17FA JUMPI DUP3 DUP5 PUSH2 0x17FD JUMP JUMPDEST DUP4 DUP4 JUMPDEST SWAP2 POP SWAP2 POP PUSH0 PUSH2 0x3E5 DUP9 PUSH2 0x1810 SWAP2 SWAP1 PUSH2 0x274A JUMP JUMPDEST SWAP1 POP PUSH0 DUP3 PUSH14 0xFFFFFFFFFFFFFFFFFFFFFFFFFFFF AND DUP3 PUSH2 0x182F SWAP2 SWAP1 PUSH2 0x274A JUMP JUMPDEST SWAP1 POP PUSH0 DUP3 PUSH2 0x3E8 DUP7 PUSH2 0x1841 SWAP2 SWAP1 PUSH2 0x278B JUMP JUMPDEST PUSH14 0xFFFFFFFFFFFFFFFFFFFFFFFFFFFF AND PUSH2 0x185B SWAP2 SWAP1 PUSH2 0x2084 JUMP JUMPDEST SWAP1 POP DUP1 DUP3 PUSH2 0x1869 SWAP2 SWAP1 PUSH2 0x214C JUMP JUMPDEST SWAP9 POP POP POP POP POP POP POP POP POP JUMPDEST SWAP3 SWAP2 POP POP JUMP JUMPDEST DUP2 ISZERO PUSH2 0x18D9 JUMPI PUSH1 0x1 PUSH1 0x3 PUSH0 DUP4 PUSH20 0xFFFFFFFFFFFFFFFFFFFFFFFFFFFFFFFFFFFFFFFF AND PUSH20 0xFFFFFFFFFFFFFFFFFFFFFFFFFFFFFFFFFFFFFFFF AND DUP2 MSTORE PUSH1 0x20 ADD SWAP1 DUP2 MSTORE PUSH1 0x20 ADD PUSH0 KECCAK256 PUSH0 DUP3 DUP3 SLOAD PUSH2 0x18CD SWAP2 SWAP1 PUSH2 0x2084 JUMP JUMPDEST SWAP3 POP POP DUP2 SWAP1 SSTORE POP PUSH2 0x18F3 JUMP JUMPDEST PUSH1 0x1 PUSH1 0x4 PUSH0 DUP3 DUP3 SLOAD PUSH2 0x18EB SWAP2 SWAP1 PUSH2 0x2084 JUMP JUMPDEST SWAP3 POP POP DUP2 SWAP1 SSTORE POP JUMPDEST POP POP JUMP JUMPDEST PUSH0 PUSH32 0x0 PUSH20 0xFFFFFFFFFFFFFFFFFFFFFFFFFFFFFFFFFFFFFFFF AND PUSH4 0x70A08231 ADDRESS PUSH1 0x40 MLOAD DUP3 PUSH4 0xFFFFFFFF AND PUSH1 0xE0 SHL DUP2 MSTORE PUSH1 0x4 ADD PUSH2 0x1951 SWAP2 SWAP1 PUSH2 0x1EB0 JUMP JUMPDEST PUSH1 0x20 PUSH1 0x40 MLOAD DUP1 DUP4 SUB DUP2 DUP7 GAS STATICCALL ISZERO DUP1 ISZERO PUSH2 0x196C JUMPI RETURNDATASIZE PUSH0 DUP1 RETURNDATACOPY RETURNDATASIZE PUSH0 REVERT JUMPDEST POP POP POP POP PUSH1 0x40 MLOAD RETURNDATASIZE PUSH1 0x1F NOT PUSH1 0x1F DUP3 ADD AND DUP3 ADD DUP1 PUSH1 0x40 MSTORE POP DUP2 ADD SWAP1 PUSH2 0x1990 SWAP2 SWAP1 PUSH2 0x202C JUMP JUMPDEST SWAP1 POP SWAP1 JUMP JUMPDEST PUSH1 0x2 PUSH1 0x1 SLOAD SUB PUSH2 0x19D1 JUMPI PUSH1 0x40 MLOAD PUSH32 0x3EE5AEB500000000000000000000000000000000000000000000000000000000 DUP2 MSTORE PUSH1 0x4 ADD PUSH1 0x40 MLOAD DUP1 SWAP2 SUB SWAP1 REVERT JUMPDEST PUSH1 0x2 PUSH1 0x1 DUP2 SWAP1 SSTORE POP JUMP JUMPDEST PUSH2 0x1A57 DUP5 DUP6 PUSH20 0xFFFFFFFFFFFFFFFFFFFFFFFFFFFFFFFFFFFFFFFF AND PUSH4 0x23B872DD DUP7 DUP7 DUP7 PUSH1 0x40 MLOAD PUSH1 0x24 ADD PUSH2 0x1A10 SWAP4 SWAP3 SWAP2 SWAP1 PUSH2 0x27C7 JUMP JUMPDEST PUSH1 0x40 MLOAD PUSH1 0x20 DUP2 DUP4 SUB SUB DUP2 MSTORE SWAP1 PUSH1 0x40 MSTORE SWAP2 POP PUSH1 0xE0 SHL PUSH1 0x20 DUP3 ADD DUP1 MLOAD PUSH28 0xFFFFFFFFFFFFFFFFFFFFFFFFFFFFFFFFFFFFFFFFFFFFFFFFFFFFFFFF DUP4 DUP2 DUP4 AND OR DUP4 MSTORE POP POP POP POP PUSH2 0x1C2D JUMP JUMPDEST POP POP POP POP JUMP JUMPDEST PUSH1 0x1 DUP1 DUP2 SWAP1 SSTORE POP JUMP JUMPDEST PUSH2 0x1AE0 DUP4 DUP5 PUSH20 0xFFFFFFFFFFFFFFFFFFFFFFFFFFFFFFFFFFFFFFFF AND PUSH4 0xA9059CBB DUP6 DUP6 PUSH1 0x40 MLOAD PUSH1 0x24 ADD PUSH2 0x1A99 SWAP3 SWAP2 SWAP1 PUSH2 0x22DD JUMP JUMPDEST PUSH1 0x40 MLOAD PUSH1 0x20 DUP2 DUP4 SUB SUB DUP2 MSTORE SWAP1 PUSH1 0x40 MSTORE SWAP2 POP PUSH1 0xE0 SHL PUSH1 0x20 DUP3 ADD DUP1 MLOAD PUSH28 0xFFFFFFFFFFFFFFFFFFFFFFFFFFFFFFFFFFFFFFFFFFFFFFFFFFFFFFFF DUP4 DUP2 DUP4 AND OR DUP4 MSTORE POP POP POP POP PUSH2 0x1C2D JUMP JUMPDEST POP POP POP JUMP JUMPDEST PUSH2 0x1AED PUSH2 0x1CC8 JUMP JUMPDEST PUSH20 0xFFFFFFFFFFFFFFFFFFFFFFFFFFFFFFFFFFFFFFFF AND PUSH2 0x1B0B PUSH2 0x1416 JUMP JUMPDEST PUSH20 0xFFFFFFFFFFFFFFFFFFFFFFFFFFFFFFFFFFFFFFFF AND EQ PUSH2 0x1B6A JUMPI PUSH2 0x1B2E PUSH2 0x1CC8 JUMP JUMPDEST PUSH1 0x40 MLOAD PUSH32 0x118CDAA700000000000000000000000000000000000000000000000000000000 DUP2 MSTORE PUSH1 0x4 ADD PUSH2 0x1B61 SWAP2 SWAP1 PUSH2 0x1EB0 JUMP JUMPDEST PUSH1 0x40 MLOAD DUP1 SWAP2 SUB SWAP1 REVERT JUMPDEST JUMP JUMPDEST PUSH0 DUP1 PUSH0 SWAP1 SLOAD SWAP1 PUSH2 0x100 EXP SWAP1 DIV PUSH20 0xFFFFFFFFFFFFFFFFFFFFFFFFFFFFFFFFFFFFFFFF AND SWAP1 POP DUP2 PUSH0 DUP1 PUSH2 0x100 EXP DUP2 SLOAD DUP2 PUSH20 0xFFFFFFFFFFFFFFFFFFFFFFFFFFFFFFFFFFFFFFFF MUL NOT AND SWAP1 DUP4 PUSH20 0xFFFFFFFFFFFFFFFFFFFFFFFFFFFFFFFFFFFFFFFF AND MUL OR SWAP1 SSTORE POP DUP2 PUSH20 0xFFFFFFFFFFFFFFFFFFFFFFFFFFFFFFFFFFFFFFFF AND DUP2 PUSH20 0xFFFFFFFFFFFFFFFFFFFFFFFFFFFFFFFFFFFFFFFF AND PUSH32 0x8BE0079C531659141344CD1FD0A4F28419497F9722A3DAAFE3B4186F6B6457E0 PUSH1 0x40 MLOAD PUSH1 0x40 MLOAD DUP1 SWAP2 SUB SWAP1 LOG3 POP POP JUMP JUMPDEST PUSH0 DUP1 PUSH1 0x20 PUSH0 DUP5 MLOAD PUSH1 0x20 DUP7 ADD PUSH0 DUP9 GAS CALL DUP1 PUSH2 0x1C4C JUMPI PUSH1 0x40 MLOAD RETURNDATASIZE PUSH0 DUP3 RETURNDATACOPY RETURNDATASIZE DUP2 REVERT JUMPDEST RETURNDATASIZE SWAP3 POP PUSH0 MLOAD SWAP2 POP POP PUSH0 DUP3 EQ PUSH2 0x1C65 JUMPI PUSH1 0x1 DUP2 EQ ISZERO PUSH2 0x1C80 JUMP JUMPDEST PUSH0 DUP5 PUSH20 0xFFFFFFFFFFFFFFFFFFFFFFFFFFFFFFFFFFFFFFFF AND EXTCODESIZE EQ JUMPDEST ISZERO PUSH2 0x1CC2 JUMPI DUP4 PUSH1 0x40 MLOAD PUSH32 0x5274AFE700000000000000000000000000000000000000000000000000000000 DUP2 MSTORE PUSH1 0x4 ADD PUSH2 0x1CB9 SWAP2 SWAP1 PUSH2 0x1EB0 JUMP JUMPDEST PUSH1 0x40 MLOAD DUP1 SWAP2 SUB SWAP1 REVERT JUMPDEST POP POP POP POP JUMP JUMPDEST PUSH0 CALLER SWAP1 POP SWAP1 JUMP JUMPDEST PUSH0 DUP3 DUP3 MSTORE PUSH1 0x20 DUP3 ADD SWAP1 POP SWAP3 SWAP2 POP POP JUMP JUMPDEST PUSH32 0x4F7065726174696F6E20646F6573206E6F7420657869737473206F7220646174 PUSH0 DUP3 ADD MSTORE PUSH32 0x612077617320696E636F72726563740000000000000000000000000000000000 PUSH1 0x20 DUP3 ADD MSTORE POP JUMP JUMPDEST PUSH0 PUSH2 0x1D39 PUSH1 0x2F DUP4 PUSH2 0x1CCF JUMP JUMPDEST SWAP2 POP PUSH2 0x1D44 DUP3 PUSH2 0x1CDF JUMP JUMPDEST PUSH1 0x40 DUP3 ADD SWAP1 POP SWAP2 SWAP1 POP JUMP JUMPDEST PUSH0 PUSH1 0x20 DUP3 ADD SWAP1 POP DUP2 DUP2 SUB PUSH0 DUP4 ADD MSTORE PUSH2 0x1D66 DUP2 PUSH2 0x1D2D JUMP JUMPDEST SWAP1 POP SWAP2 SWAP1 POP JUMP JUMPDEST PUSH0 DUP2 SWAP1 POP SWAP2 SWAP1 POP JUMP JUMPDEST PUSH2 0x1D7F DUP2 PUSH2 0x1D6D JUMP JUMPDEST DUP3 MSTORE POP POP JUMP JUMPDEST PUSH0 PUSH1 0x20 DUP3 ADD SWAP1 POP PUSH2 0x1D98 PUSH0 DUP4 ADD DUP5 PUSH2 0x1D76 JUMP JUMPDEST SWAP3 SWAP2 POP POP JUMP JUMPDEST PUSH0 DUP1 REVERT JUMPDEST PUSH0 PUSH20 0xFFFFFFFFFFFFFFFFFFFFFFFFFFFFFFFFFFFFFFFF DUP3 AND SWAP1 POP SWAP2 SWAP1 POP JUMP JUMPDEST PUSH0 PUSH2 0x1DCB DUP3 PUSH2 0x1DA2 JUMP JUMPDEST SWAP1 POP SWAP2 SWAP1 POP JUMP JUMPDEST PUSH2 0x1DDB DUP2 PUSH2 0x1DC1 JUMP JUMPDEST DUP2 EQ PUSH2 0x1DE5 JUMPI PUSH0 DUP1 REVERT JUMPDEST POP JUMP JUMPDEST PUSH0 DUP2 CALLDATALOAD SWAP1 POP PUSH2 0x1DF6 DUP2 PUSH2 0x1DD2 JUMP JUMPDEST SWAP3 SWAP2 POP POP JUMP JUMPDEST PUSH2 0x1E05 DUP2 PUSH2 0x1D6D JUMP JUMPDEST DUP2 EQ PUSH2 0x1E0F JUMPI PUSH0 DUP1 REVERT JUMPDEST POP JUMP JUMPDEST PUSH0 DUP2 CALLDATALOAD SWAP1 POP PUSH2 0x1E20 DUP2 PUSH2 0x1DFC JUMP JUMPDEST SWAP3 SWAP2 POP POP JUMP JUMPDEST PUSH0 DUP1 PUSH0 PUSH1 0x60 DUP5 DUP7 SUB SLT ISZERO PUSH2 0x1E3D JUMPI PUSH2 0x1E3C PUSH2 0x1D9E JUMP JUMPDEST JUMPDEST PUSH0 PUSH2 0x1E4A DUP7 DUP3 DUP8 ADD PUSH2 0x1DE8 JUMP JUMPDEST SWAP4 POP POP PUSH1 0x20 PUSH2 0x1E5B DUP7 DUP3 DUP8 ADD PUSH2 0x1E12 JUMP JUMPDEST SWAP3 POP POP PUSH1 0x40 PUSH2 0x1E6C DUP7 DUP3 DUP8 ADD PUSH2 0x1E12 JUMP JUMPDEST SWAP2 POP POP SWAP3 POP SWAP3 POP SWAP3 JUMP JUMPDEST PUSH0 PUSH1 0x20 DUP3 DUP5 SUB SLT ISZERO PUSH2 0x1E8B JUMPI PUSH2 0x1E8A PUSH2 0x1D9E JUMP JUMPDEST JUMPDEST PUSH0 PUSH2 0x1E98 DUP5 DUP3 DUP6 ADD PUSH2 0x1DE8 JUMP JUMPDEST SWAP2 POP POP SWAP3 SWAP2 POP POP JUMP JUMPDEST PUSH2 0x1EAA DUP2 PUSH2 0x1DC1 JUMP JUMPDEST DUP3 MSTORE POP POP JUMP JUMPDEST PUSH0 PUSH1 0x20 DUP3 ADD SWAP1 POP PUSH2 0x1EC3 PUSH0 DUP4 ADD DUP5 PUSH2 0x1EA1 JUMP JUMPDEST SWAP3 SWAP2 POP POP JUMP JUMPDEST PUSH0 PUSH1 0x20 DUP3 DUP5 SUB SLT ISZERO PUSH2 0x1EDE JUMPI PUSH2 0x1EDD PUSH2 0x1D9E JUMP JUMPDEST JUMPDEST PUSH0 PUSH2 0x1EEB DUP5 DUP3 DUP6 ADD PUSH2 0x1E12 JUMP JUMPDEST SWAP2 POP POP SWAP3 SWAP2 POP POP JUMP JUMPDEST PUSH0 DUP2 SWAP1 POP SWAP2 SWAP1 POP JUMP JUMPDEST PUSH0 PUSH2 0x1F17 PUSH2 0x1F12 PUSH2 0x1F0D DUP5 PUSH2 0x1DA2 JUMP JUMPDEST PUSH2 0x1EF4 JUMP JUMPDEST PUSH2 0x1DA2 JUMP JUMPDEST SWAP1 POP SWAP2 SWAP1 POP JUMP JUMPDEST PUSH0 PUSH2 0x1F28 DUP3 PUSH2 0x1EFD JUMP JUMPDEST SWAP1 POP SWAP2 SWAP1 POP JUMP JUMPDEST PUSH0 PUSH2 0x1F39 DUP3 PUSH2 0x1F1E JUMP JUMPDEST SWAP1 POP SWAP2 SWAP1 POP JUMP JUMPDEST PUSH2 0x1F49 DUP2 PUSH2 0x1F2F JUMP JUMPDEST DUP3 MSTORE POP POP JUMP JUMPDEST PUSH0 PUSH1 0x20 DUP3 ADD SWAP1 POP PUSH2 0x1F62 PUSH0 DUP4 ADD DUP5 PUSH2 0x1F40 JUMP JUMPDEST SWAP3 SWAP2 POP POP JUMP JUMPDEST PUSH0 PUSH2 0x1F72 DUP3 PUSH2 0x1F1E JUMP JUMPDEST SWAP1 POP SWAP2 SWAP1 POP JUMP JUMPDEST PUSH2 0x1F82 DUP2 PUSH2 0x1F68 JUMP JUMPDEST DUP3 MSTORE POP POP JUMP JUMPDEST PUSH0 PUSH1 0x20 DUP3 ADD SWAP1 POP PUSH2 0x1F9B PUSH0 DUP4 ADD DUP5 PUSH2 0x1F79 JUMP JUMPDEST SWAP3 SWAP2 POP POP JUMP JUMPDEST PUSH0 DUP1 PUSH1 0x40 DUP4 DUP6 SUB SLT ISZERO PUSH2 0x1FB7 JUMPI PUSH2 0x1FB6 PUSH2 0x1D9E JUMP JUMPDEST JUMPDEST PUSH0 PUSH2 0x1FC4 DUP6 DUP3 DUP7 ADD PUSH2 0x1E12 JUMP JUMPDEST SWAP3 POP POP PUSH1 0x20 PUSH2 0x1FD5 DUP6 DUP3 DUP7 ADD PUSH2 0x1DE8 JUMP JUMPDEST SWAP2 POP POP SWAP3 POP SWAP3 SWAP1 POP JUMP JUMPDEST PUSH0 PUSH2 0x1FE9 DUP3 PUSH2 0x1F1E JUMP JUMPDEST SWAP1 POP SWAP2 SWAP1 POP JUMP JUMPDEST PUSH2 0x1FF9 DUP2 PUSH2 0x1FDF JUMP JUMPDEST DUP3 MSTORE POP POP JUMP JUMPDEST PUSH0 PUSH1 0x20 DUP3 ADD SWAP1 POP PUSH2 0x2012 PUSH0 DUP4 ADD DUP5 PUSH2 0x1FF0 JUMP JUMPDEST SWAP3 SWAP2 POP POP JUMP JUMPDEST PUSH0 DUP2 MLOAD SWAP1 POP PUSH2 0x2026 DUP2 PUSH2 0x1DFC JUMP JUMPDEST SWAP3 SWAP2 POP POP JUMP JUMPDEST PUSH0 PUSH1 0x20 DUP3 DUP5 SUB SLT ISZERO PUSH2 0x2041 JUMPI PUSH2 0x2040 PUSH2 0x1D9E JUMP JUMPDEST JUMPDEST PUSH0 PUSH2 0x204E DUP5 DUP3 DUP6 ADD PUSH2 0x2018 JUMP JUMPDEST SWAP2 POP POP SWAP3 SWAP2 POP POP JUMP JUMPDEST PUSH32 0x4E487B7100000000000000000000000000000000000000000000000000000000 PUSH0 MSTORE PUSH1 0x11 PUSH1 0x4 MSTORE PUSH1 0x24 PUSH0 REVERT JUMPDEST PUSH0 PUSH2 0x208E DUP3 PUSH2 0x1D6D JUMP JUMPDEST SWAP2 POP PUSH2 0x2099 DUP4 PUSH2 0x1D6D JUMP JUMPDEST SWAP3 POP DUP3 DUP3 ADD SWAP1 POP DUP1 DUP3 GT ISZERO PUSH2 0x20B1 JUMPI PUSH2 0x20B0 PUSH2 0x2057 JUMP JUMPDEST JUMPDEST SWAP3 SWAP2 POP POP JUMP JUMPDEST PUSH32 0x546F74616C204B69707542616E6B27732066756E647320657863656564656400 PUSH0 DUP3 ADD MSTORE POP JUMP JUMPDEST PUSH0 PUSH2 0x20EB PUSH1 0x1F DUP4 PUSH2 0x1CCF JUMP JUMPDEST SWAP2 POP PUSH2 0x20F6 DUP3 PUSH2 0x20B7 JUMP JUMPDEST PUSH1 0x20 DUP3 ADD SWAP1 POP SWAP2 SWAP1 POP JUMP JUMPDEST PUSH0 PUSH1 0x20 DUP3 ADD SWAP1 POP DUP2 DUP2 SUB PUSH0 DUP4 ADD MSTORE PUSH2 0x2118 DUP2 PUSH2 0x20DF JUMP JUMPDEST SWAP1 POP SWAP2 SWAP1 POP JUMP JUMPDEST PUSH32 0x4E487B7100000000000000000000000000000000000000000000000000000000 PUSH0 MSTORE PUSH1 0x12 PUSH1 0x4 MSTORE PUSH1 0x24 PUSH0 REVERT JUMPDEST PUSH0 PUSH2 0x2156 DUP3 PUSH2 0x1D6D JUMP JUMPDEST SWAP2 POP PUSH2 0x2161 DUP4 PUSH2 0x1D6D JUMP JUMPDEST SWAP3 POP DUP3 PUSH2 0x2171 JUMPI PUSH2 0x2170 PUSH2 0x211F JUMP JUMPDEST JUMPDEST DUP3 DUP3 DIV SWAP1 POP SWAP3 SWAP2 POP POP JUMP JUMPDEST PUSH32 0x4E487B7100000000000000000000000000000000000000000000000000000000 PUSH0 MSTORE PUSH1 0x32 PUSH1 0x4 MSTORE PUSH1 0x24 PUSH0 REVERT JUMPDEST PUSH0 DUP2 MLOAD SWAP1 POP SWAP2 SWAP1 POP JUMP JUMPDEST PUSH0 DUP3 DUP3 MSTORE PUSH1 0x20 DUP3 ADD SWAP1 POP SWAP3 SWAP2 POP POP JUMP JUMPDEST PUSH0 DUP2 SWAP1 POP PUSH1 0x20 DUP3 ADD SWAP1 POP SWAP2 SWAP1 POP JUMP JUMPDEST PUSH2 0x21DB DUP2 PUSH2 0x1DC1 JUMP JUMPDEST DUP3 MSTORE POP POP JUMP JUMPDEST PUSH0 PUSH2 0x21EC DUP4 DUP4 PUSH2 0x21D2 JUMP JUMPDEST PUSH1 0x20 DUP4 ADD SWAP1 POP SWAP3 SWAP2 POP POP JUMP JUMPDEST PUSH0 PUSH1 0x20 DUP3 ADD SWAP1 POP SWAP2 SWAP1 POP JUMP JUMPDEST PUSH0 PUSH2 0x220E DUP3 PUSH2 0x21A9 JUMP JUMPDEST PUSH2 0x2218 DUP2 DUP6 PUSH2 0x21B3 JUMP JUMPDEST SWAP4 POP PUSH2 0x2223 DUP4 PUSH2 0x21C3 JUMP JUMPDEST DUP1 PUSH0 JUMPDEST DUP4 DUP2 LT ISZERO PUSH2 0x2253 JUMPI DUP2 MLOAD PUSH2 0x223A DUP9 DUP3 PUSH2 0x21E1 JUMP JUMPDEST SWAP8 POP PUSH2 0x2245 DUP4 PUSH2 0x21F8 JUMP JUMPDEST SWAP3 POP POP PUSH1 0x1 DUP2 ADD SWAP1 POP PUSH2 0x2226 JUMP JUMPDEST POP DUP6 SWAP4 POP POP POP POP SWAP3 SWAP2 POP POP JUMP JUMPDEST PUSH0 PUSH1 0x80 DUP3 ADD SWAP1 POP PUSH2 0x2273 PUSH0 DUP4 ADD DUP8 PUSH2 0x1D76 JUMP JUMPDEST DUP2 DUP2 SUB PUSH1 0x20 DUP4 ADD MSTORE PUSH2 0x2285 DUP2 DUP7 PUSH2 0x2204 JUMP JUMPDEST SWAP1 POP PUSH2 0x2294 PUSH1 0x40 DUP4 ADD DUP6 PUSH2 0x1EA1 JUMP JUMPDEST PUSH2 0x22A1 PUSH1 0x60 DUP4 ADD DUP5 PUSH2 0x1D76 JUMP JUMPDEST SWAP6 SWAP5 POP POP POP POP POP JUMP JUMPDEST PUSH0 PUSH2 0x22B4 DUP3 PUSH2 0x1D6D JUMP JUMPDEST SWAP2 POP PUSH2 0x22BF DUP4 PUSH2 0x1D6D JUMP JUMPDEST SWAP3 POP DUP3 DUP3 SUB SWAP1 POP DUP2 DUP2 GT ISZERO PUSH2 0x22D7 JUMPI PUSH2 0x22D6 PUSH2 0x2057 JUMP JUMPDEST JUMPDEST SWAP3 SWAP2 POP POP JUMP JUMPDEST PUSH0 PUSH1 0x40 DUP3 ADD SWAP1 POP PUSH2 0x22F0 PUSH0 DUP4 ADD DUP6 PUSH2 0x1EA1 JUMP JUMPDEST PUSH2 0x22FD PUSH1 0x20 DUP4 ADD DUP5 PUSH2 0x1D76 JUMP JUMPDEST SWAP4 SWAP3 POP POP POP JUMP JUMPDEST PUSH0 PUSH1 0x40 DUP3 ADD SWAP1 POP PUSH2 0x2317 PUSH0 DUP4 ADD DUP6 PUSH2 0x1EA1 JUMP JUMPDEST PUSH2 0x2324 PUSH1 0x20 DUP4 ADD DUP5 PUSH2 0x1EA1 JUMP JUMPDEST SWAP4 SWAP3 POP POP POP JUMP JUMPDEST PUSH0 DUP2 MLOAD SWAP1 POP PUSH2 0x2339 DUP2 PUSH2 0x1DD2 JUMP JUMPDEST SWAP3 SWAP2 POP POP JUMP JUMPDEST PUSH0 PUSH1 0x20 DUP3 DUP5 SUB SLT ISZERO PUSH2 0x2354 JUMPI PUSH2 0x2353 PUSH2 0x1D9E JUMP JUMPDEST JUMPDEST PUSH0 PUSH2 0x2361 DUP5 DUP3 DUP6 ADD PUSH2 0x232B JUMP JUMPDEST SWAP2 POP POP SWAP3 SWAP2 POP POP JUMP JUMPDEST PUSH32 0x45524332303A20496E73756666696369656E7420616C6C6F77616E636520666F PUSH0 DUP3 ADD MSTORE PUSH32 0x72207472616E7366657246726F6D000000000000000000000000000000000000 PUSH1 0x20 DUP3 ADD MSTORE POP JUMP JUMPDEST PUSH0 PUSH2 0x23C4 PUSH1 0x2E DUP4 PUSH2 0x1CCF JUMP JUMPDEST SWAP2 POP PUSH2 0x23CF DUP3 PUSH2 0x236A JUMP JUMPDEST PUSH1 0x40 DUP3 ADD SWAP1 POP SWAP2 SWAP1 POP JUMP JUMPDEST PUSH0 PUSH1 0x20 DUP3 ADD SWAP1 POP DUP2 DUP2 SUB PUSH0 DUP4 ADD MSTORE PUSH2 0x23F1 DUP2 PUSH2 0x23B8 JUMP JUMPDEST SWAP1 POP SWAP2 SWAP1 POP JUMP JUMPDEST PUSH0 DUP2 SWAP1 POP SWAP2 SWAP1 POP JUMP JUMPDEST PUSH0 PUSH2 0x241B PUSH2 0x2416 PUSH2 0x2411 DUP5 PUSH2 0x23F8 JUMP JUMPDEST PUSH2 0x1EF4 JUMP JUMPDEST PUSH2 0x1D6D JUMP JUMPDEST SWAP1 POP SWAP2 SWAP1 POP JUMP JUMPDEST PUSH2 0x242B DUP2 PUSH2 0x2401 JUMP JUMPDEST DUP3 MSTORE POP POP JUMP JUMPDEST PUSH0 PUSH1 0x40 DUP3 ADD SWAP1 POP PUSH2 0x2444 PUSH0 DUP4 ADD DUP6 PUSH2 0x1EA1 JUMP JUMPDEST PUSH2 0x2451 PUSH1 0x20 DUP4 ADD DUP5 PUSH2 0x2422 JUMP JUMPDEST SWAP4 SWAP3 POP POP POP JUMP JUMPDEST PUSH0 DUP2 ISZERO ISZERO SWAP1 POP SWAP2 SWAP1 POP JUMP JUMPDEST PUSH2 0x246C DUP2 PUSH2 0x2458 JUMP JUMPDEST DUP2 EQ PUSH2 0x2476 JUMPI PUSH0 DUP1 REVERT JUMPDEST POP JUMP JUMPDEST PUSH0 DUP2 MLOAD SWAP1 POP PUSH2 0x2487 DUP2 PUSH2 0x2463 JUMP JUMPDEST SWAP3 SWAP2 POP POP JUMP JUMPDEST PUSH0 PUSH1 0x20 DUP3 DUP5 SUB SLT ISZERO PUSH2 0x24A2 JUMPI PUSH2 0x24A1 PUSH2 0x1D9E JUMP JUMPDEST JUMPDEST PUSH0 PUSH2 0x24AF DUP5 DUP3 DUP6 ADD PUSH2 0x2479 JUMP JUMPDEST SWAP2 POP POP SWAP3 SWAP2 POP POP JUMP JUMPDEST PUSH0 PUSH1 0xA0 DUP3 ADD SWAP1 POP PUSH2 0x24CB PUSH0 DUP4 ADD DUP9 PUSH2 0x1D76 JUMP JUMPDEST PUSH2 0x24D8 PUSH1 0x20 DUP4 ADD DUP8 PUSH2 0x1D76 JUMP JUMPDEST DUP2 DUP2 SUB PUSH1 0x40 DUP4 ADD MSTORE PUSH2 0x24EA DUP2 DUP7 PUSH2 0x2204 JUMP JUMPDEST SWAP1 POP PUSH2 0x24F9 PUSH1 0x60 DUP4 ADD DUP6 PUSH2 0x1EA1 JUMP JUMPDEST PUSH2 0x2506 PUSH1 0x80 DUP4 ADD DUP5 PUSH2 0x1D76 JUMP JUMPDEST SWAP7 SWAP6 POP POP POP POP POP POP JUMP JUMPDEST PUSH32 0x416D6F756E74206578636565647320746865206D6178696D756D207769746864 PUSH0 DUP3 ADD MSTORE PUSH32 0x726177616C000000000000000000000000000000000000000000000000000000 PUSH1 0x20 DUP3 ADD MSTORE POP JUMP JUMPDEST PUSH0 PUSH2 0x256A PUSH1 0x25 DUP4 PUSH2 0x1CCF JUMP JUMPDEST SWAP2 POP PUSH2 0x2575 DUP3 PUSH2 0x2510 JUMP JUMPDEST PUSH1 0x40 DUP3 ADD SWAP1 POP SWAP2 SWAP1 POP JUMP JUMPDEST PUSH0 PUSH1 0x20 DUP3 ADD SWAP1 POP DUP2 DUP2 SUB PUSH0 DUP4 ADD MSTORE PUSH2 0x2597 DUP2 PUSH2 0x255E JUMP JUMPDEST SWAP1 POP SWAP2 SWAP1 POP JUMP JUMPDEST PUSH32 0x4E6F7420656E6F75676820666F756E6473000000000000000000000000000000 PUSH0 DUP3 ADD MSTORE POP JUMP JUMPDEST PUSH0 PUSH2 0x25D2 PUSH1 0x11 DUP4 PUSH2 0x1CCF JUMP JUMPDEST SWAP2 POP PUSH2 0x25DD DUP3 PUSH2 0x259E JUMP JUMPDEST PUSH1 0x20 DUP3 ADD SWAP1 POP SWAP2 SWAP1 POP JUMP JUMPDEST PUSH0 PUSH1 0x20 DUP3 ADD SWAP1 POP DUP2 DUP2 SUB PUSH0 DUP4 ADD MSTORE PUSH2 0x25FF DUP2 PUSH2 0x25C6 JUMP JUMPDEST SWAP1 POP SWAP2 SWAP1 POP JUMP JUMPDEST PUSH0 DUP3 DUP3 MSTORE PUSH1 0x20 DUP3 ADD SWAP1 POP SWAP3 SWAP2 POP POP JUMP JUMPDEST PUSH32 0x4E6F207061697200000000000000000000000000000000000000000000000000 PUSH0 DUP3 ADD MSTORE POP JUMP JUMPDEST PUSH0 PUSH2 0x264A PUSH1 0x7 DUP4 PUSH2 0x2606 JUMP JUMPDEST SWAP2 POP PUSH2 0x2655 DUP3 PUSH2 0x2616 JUMP JUMPDEST PUSH1 0x20 DUP3 ADD SWAP1 POP SWAP2 SWAP1 POP JUMP JUMPDEST PUSH0 PUSH1 0x20 DUP3 ADD SWAP1 POP DUP2 DUP2 SUB PUSH0 DUP4 ADD MSTORE PUSH2 0x2677 DUP2 PUSH2 0x263E JUMP JUMPDEST SWAP1 POP SWAP2 SWAP1 POP JUMP JUMPDEST PUSH0 PUSH14 0xFFFFFFFFFFFFFFFFFFFFFFFFFFFF DUP3 AND SWAP1 POP SWAP2 SWAP1 POP JUMP JUMPDEST PUSH2 0x26A0 DUP2 PUSH2 0x267E JUMP JUMPDEST DUP2 EQ PUSH2 0x26AA JUMPI PUSH0 DUP1 REVERT JUMPDEST POP JUMP JUMPDEST PUSH0 DUP2 MLOAD SWAP1 POP PUSH2 0x26BB DUP2 PUSH2 0x2697 JUMP JUMPDEST SWAP3 SWAP2 POP POP JUMP JUMPDEST PUSH0 PUSH4 0xFFFFFFFF DUP3 AND SWAP1 POP SWAP2 SWAP1 POP JUMP JUMPDEST PUSH2 0x26D9 DUP2 PUSH2 0x26C1 JUMP JUMPDEST DUP2 EQ PUSH2 0x26E3 JUMPI PUSH0 DUP1 REVERT JUMPDEST POP JUMP JUMPDEST PUSH0 DUP2 MLOAD SWAP1 POP PUSH2 0x26F4 DUP2 PUSH2 0x26D0 JUMP JUMPDEST SWAP3 SWAP2 POP POP JUMP JUMPDEST PUSH0 DUP1 PUSH0 PUSH1 0x60 DUP5 DUP7 SUB SLT ISZERO PUSH2 0x2711 JUMPI PUSH2 0x2710 PUSH2 0x1D9E JUMP JUMPDEST JUMPDEST PUSH0 PUSH2 0x271E DUP7 DUP3 DUP8 ADD PUSH2 0x26AD JUMP JUMPDEST SWAP4 POP POP PUSH1 0x20 PUSH2 0x272F DUP7 DUP3 DUP8 ADD PUSH2 0x26AD JUMP JUMPDEST SWAP3 POP POP PUSH1 0x40 PUSH2 0x2740 DUP7 DUP3 DUP8 ADD PUSH2 0x26E6 JUMP JUMPDEST SWAP2 POP POP SWAP3 POP SWAP3 POP SWAP3 JUMP JUMPDEST PUSH0 PUSH2 0x2754 DUP3 PUSH2 0x1D6D JUMP JUMPDEST SWAP2 POP PUSH2 0x275F DUP4 PUSH2 0x1D6D JUMP JUMPDEST SWAP3 POP DUP3 DUP3 MUL PUSH2 0x276D DUP2 PUSH2 0x1D6D JUMP JUMPDEST SWAP2 POP DUP3 DUP3 DIV DUP5 EQ DUP4 ISZERO OR PUSH2 0x2784 JUMPI PUSH2 0x2783 PUSH2 0x2057 JUMP JUMPDEST JUMPDEST POP SWAP3 SWAP2 POP POP JUMP JUMPDEST PUSH0 PUSH2 0x2795 DUP3 PUSH2 0x267E JUMP JUMPDEST SWAP2 POP PUSH2 0x27A0 DUP4 PUSH2 0x267E JUMP JUMPDEST SWAP3 POP DUP3 DUP3 MUL PUSH2 0x27AE DUP2 PUSH2 0x267E JUMP JUMPDEST SWAP2 POP DUP1 DUP3 EQ PUSH2 0x27C0 JUMPI PUSH2 0x27BF PUSH2 0x2057 JUMP JUMPDEST JUMPDEST POP SWAP3 SWAP2 POP POP JUMP JUMPDEST PUSH0 PUSH1 0x60 DUP3 ADD SWAP1 POP PUSH2 0x27DA PUSH0 DUP4 ADD DUP7 PUSH2 0x1EA1 JUMP JUMPDEST PUSH2 0x27E7 PUSH1 0x20 DUP4 ADD DUP6 PUSH2 0x1EA1 JUMP JUMPDEST PUSH2 0x27F4 PUSH1 0x40 DUP4 ADD DUP5 PUSH2 0x1D76 JUMP JUMPDEST SWAP5 SWAP4 POP POP POP POP JUMP INVALID LOG2 PUSH5 0x6970667358 0x22 SLT KECCAK256 PUSH31 0x13F7E609939E916397F2AE9CD1DB38D85FAD3A994F2EE436261FD4FC97F519 PUSH5 0x736F6C6343 STOP ADDMOD BYTE STOP CALLER "
		},
		"gasEstimates": {
			"creation": {
				"codeDepositCost": "2058000",
				"executionCost": "infinite",
				"totalCost": "infinite"
			},
			"external": {
				"": "532",
				"consultKipuBankFounds()": "infinite",
				"deposit()": "infinite",
				"depositERC20(address,uint256,uint256)": "infinite",
				"emergencyWithdrawal(uint256,address)": "infinite",
				"i_bankCap()": "infinite",
				"i_maxWithdrawal()": "infinite",
				"i_usdc()": "infinite",
				"i_weth()": "infinite",
				"owner()": "2560",
				"renounceOwnership()": "infinite",
				"s_totalDepositsByToken(address)": "2892",
				"s_totalWithdrawals()": "2469",
				"transferOwnership(address)": "infinite",
				"uniswapFactory()": "infinite",
				"uniswapRouter()": "infinite",
				"withdrawUsdc(uint256)": "infinite"
			},
			"internal": {
				"_actualizeOperations(bool,address)": "infinite",
				"_consultFounds()": "infinite",
				"_depositETH(address,uint256)": "infinite",
				"_estimateUSDCOut(address,uint256)": "infinite"
			}
		},
		"methodIdentifiers": {
			"consultKipuBankFounds()": "06f69acc",
			"deposit()": "d0e30db0",
			"depositERC20(address,uint256,uint256)": "21425ee0",
			"emergencyWithdrawal(uint256,address)": "9e2b5339",
			"i_bankCap()": "f6687af7",
			"i_maxWithdrawal()": "089781a9",
			"i_usdc()": "ff40e1d0",
			"i_weth()": "4dbe7e92",
			"owner()": "8da5cb5b",
			"renounceOwnership()": "715018a6",
			"s_totalDepositsByToken(address)": "260ad389",
			"s_totalWithdrawals()": "f3db702c",
			"transferOwnership(address)": "f2fde38b",
			"uniswapFactory()": "8bdb2afa",
			"uniswapRouter()": "735de9f7",
			"withdrawUsdc(uint256)": "5b06dece"
		}
	},
	"abi": [
		{
			"inputs": [
				{
					"internalType": "address",
					"name": "_initialOwner",
					"type": "address"
				},
				{
					"internalType": "address",
					"name": "_weth",
					"type": "address"
				},
				{
					"internalType": "address",
					"name": "_usdc",
					"type": "address"
				},
				{
					"internalType": "address",
					"name": "_router",
					"type": "address"
				},
				{
					"internalType": "uint256",
					"name": "_bankCap",
					"type": "uint256"
				},
				{
					"internalType": "uint256",
					"name": "_maxWithdrawal",
					"type": "uint256"
				}
			],
			"stateMutability": "nonpayable",
			"type": "constructor"
		},
		{
			"inputs": [],
			"name": "KipuBank_DeniedContract",
			"type": "error"
		},
		{
			"inputs": [
				{
					"internalType": "bytes",
					"name": "error",
					"type": "bytes"
				}
			],
			"name": "KipuBank_FailedDeposit",
			"type": "error"
		},
		{
			"inputs": [
				{
					"internalType": "bytes",
					"name": "error",
					"type": "bytes"
				}
			],
			"name": "KipuBank_FailedOperation",
			"type": "error"
		},
		{
			"inputs": [
				{
					"internalType": "bytes",
					"name": "error",
					"type": "bytes"
				}
			],
			"name": "KipuBank_FailedWithdrawal",
			"type": "error"
		},
		{
			"inputs": [
				{
					"internalType": "bytes",
					"name": "error",
					"type": "bytes"
				}
			],
			"name": "KipuBank_InsufficientFounds",
			"type": "error"
		},
		{
			"inputs": [
				{
					"internalType": "address",
					"name": "token",
					"type": "address"
				}
			],
			"name": "KipuBank_NotSupportedToken",
			"type": "error"
		},
		{
			"inputs": [
				{
					"internalType": "address",
					"name": "owner",
					"type": "address"
				}
			],
			"name": "OwnableInvalidOwner",
			"type": "error"
		},
		{
			"inputs": [
				{
					"internalType": "address",
					"name": "account",
					"type": "address"
				}
			],
			"name": "OwnableUnauthorizedAccount",
			"type": "error"
		},
		{
			"inputs": [],
			"name": "ReentrancyGuardReentrantCall",
			"type": "error"
		},
		{
			"inputs": [
				{
					"internalType": "address",
					"name": "token",
					"type": "address"
				}
			],
			"name": "SafeERC20FailedOperation",
			"type": "error"
		},
		{
			"anonymous": false,
			"inputs": [
				{
					"indexed": false,
					"internalType": "address",
					"name": "receiver",
					"type": "address"
				},
				{
					"indexed": false,
					"internalType": "uint256",
					"name": "amount",
					"type": "uint256"
				}
			],
			"name": "KipuBank_SuccessfulDeposit",
			"type": "event"
		},
		{
			"anonymous": false,
			"inputs": [
				{
					"indexed": false,
					"internalType": "address",
					"name": "receiver",
					"type": "address"
				},
				{
					"indexed": false,
					"internalType": "uint256",
					"name": "amount",
					"type": "uint256"
				}
			],
			"name": "KipuBank_SuccessfulWithdrawal",
			"type": "event"
		},
		{
			"anonymous": false,
			"inputs": [
				{
					"indexed": true,
					"internalType": "address",
					"name": "previousOwner",
					"type": "address"
				},
				{
					"indexed": true,
					"internalType": "address",
					"name": "newOwner",
					"type": "address"
				}
			],
			"name": "OwnershipTransferred",
			"type": "event"
		},
		{
			"stateMutability": "nonpayable",
			"type": "fallback"
		},
		{
			"inputs": [],
			"name": "consultKipuBankFounds",
			"outputs": [
				{
					"internalType": "uint256",
					"name": "amount_",
					"type": "uint256"
				}
			],
			"stateMutability": "view",
			"type": "function"
		},
		{
			"inputs": [],
			"name": "deposit",
			"outputs": [],
			"stateMutability": "payable",
			"type": "function"
		},
		{
			"inputs": [
				{
					"internalType": "address",
					"name": "_token",
					"type": "address"
				},
				{
					"internalType": "uint256",
					"name": "_amountIn",
					"type": "uint256"
				},
				{
					"internalType": "uint256",
					"name": "_amountMinOut",
					"type": "uint256"
				}
			],
			"name": "depositERC20",
			"outputs": [],
			"stateMutability": "nonpayable",
			"type": "function"
		},
		{
			"inputs": [
				{
					"internalType": "uint256",
					"name": "_amount",
					"type": "uint256"
				},
				{
					"internalType": "address",
					"name": "_recipient",
					"type": "address"
				}
			],
			"name": "emergencyWithdrawal",
			"outputs": [],
			"stateMutability": "nonpayable",
			"type": "function"
		},
		{
			"inputs": [],
			"name": "i_bankCap",
			"outputs": [
				{
					"internalType": "uint256",
					"name": "",
					"type": "uint256"
				}
			],
			"stateMutability": "view",
			"type": "function"
		},
		{
			"inputs": [],
			"name": "i_maxWithdrawal",
			"outputs": [
				{
					"internalType": "uint256",
					"name": "",
					"type": "uint256"
				}
			],
			"stateMutability": "view",
			"type": "function"
		},
		{
			"inputs": [],
			"name": "i_usdc",
			"outputs": [
				{
					"internalType": "contract IERC20",
					"name": "",
					"type": "address"
				}
			],
			"stateMutability": "view",
			"type": "function"
		},
		{
			"inputs": [],
			"name": "i_weth",
			"outputs": [
				{
					"internalType": "address",
					"name": "",
					"type": "address"
				}
			],
			"stateMutability": "view",
			"type": "function"
		},
		{
			"inputs": [],
			"name": "owner",
			"outputs": [
				{
					"internalType": "address",
					"name": "",
					"type": "address"
				}
			],
			"stateMutability": "view",
			"type": "function"
		},
		{
			"inputs": [],
			"name": "renounceOwnership",
			"outputs": [],
			"stateMutability": "nonpayable",
			"type": "function"
		},
		{
			"inputs": [
				{
					"internalType": "address",
					"name": "",
					"type": "address"
				}
			],
			"name": "s_totalDepositsByToken",
			"outputs": [
				{
					"internalType": "uint256",
					"name": "",
					"type": "uint256"
				}
			],
			"stateMutability": "view",
			"type": "function"
		},
		{
			"inputs": [],
			"name": "s_totalWithdrawals",
			"outputs": [
				{
					"internalType": "uint256",
					"name": "",
					"type": "uint256"
				}
			],
			"stateMutability": "view",
			"type": "function"
		},
		{
			"inputs": [
				{
					"internalType": "address",
					"name": "newOwner",
					"type": "address"
				}
			],
			"name": "transferOwnership",
			"outputs": [],
			"stateMutability": "nonpayable",
			"type": "function"
		},
		{
			"inputs": [],
			"name": "uniswapFactory",
			"outputs": [
				{
					"internalType": "contract IUniswapV2Factory",
					"name": "",
					"type": "address"
				}
			],
			"stateMutability": "view",
			"type": "function"
		},
		{
			"inputs": [],
			"name": "uniswapRouter",
			"outputs": [
				{
					"internalType": "contract IUniswapV2Router02",
					"name": "",
					"type": "address"
				}
			],
			"stateMutability": "view",
			"type": "function"
		},
		{
			"inputs": [
				{
					"internalType": "uint256",
					"name": "_amount",
					"type": "uint256"
				}
			],
			"name": "withdrawUsdc",
			"outputs": [],
			"stateMutability": "nonpayable",
			"type": "function"
		},
		{
			"stateMutability": "payable",
			"type": "receive"
		}
	]
}